{
  "_format": "hh-sol-artifact-1",
  "contractName": "DocumentVerification",
  "sourceName": "contracts/DocumentVerification.sol",
  "abi": [
    {
      "inputs": [
        {
          "internalType": "address",
          "name": "_tradeRegistry",
          "type": "address"
        },
        {
          "internalType": "address",
          "name": "_customs",
          "type": "address"
        }
      ],
      "stateMutability": "nonpayable",
      "type": "constructor"
    },
    {
      "anonymous": false,
      "inputs": [
        {
          "indexed": true,
          "internalType": "uint256",
          "name": "tradeId",
          "type": "uint256"
        }
      ],
      "name": "DocumentsFullyVerified",
      "type": "event"
    },
    {
      "anonymous": false,
      "inputs": [
        {
          "indexed": true,
          "internalType": "uint256",
          "name": "tradeId",
          "type": "uint256"
        },
        {
          "indexed": false,
          "internalType": "string",
          "name": "ipfsHash",
          "type": "string"
        }
      ],
      "name": "DocumentsSubmitted",
      "type": "event"
    },
    {
      "anonymous": false,
      "inputs": [
        {
          "indexed": true,
          "internalType": "uint256",
          "name": "tradeId",
          "type": "uint256"
        },
        {
          "indexed": false,
          "internalType": "string",
          "name": "role",
          "type": "string"
        },
        {
          "indexed": false,
          "internalType": "bool",
          "name": "status",
          "type": "bool"
        }
      ],
      "name": "VerificationUpdated",
      "type": "event"
    },
    {
      "inputs": [],
      "name": "customs",
      "outputs": [
        {
          "internalType": "address",
          "name": "",
          "type": "address"
        }
      ],
      "stateMutability": "view",
      "type": "function"
    },
    {
      "inputs": [
        {
          "internalType": "uint256",
          "name": "_tradeId",
          "type": "uint256"
        },
        {
          "internalType": "string",
          "name": "_ipfsHash",
          "type": "string"
        }
      ],
      "name": "submitDocuments",
      "outputs": [],
      "stateMutability": "nonpayable",
      "type": "function"
    },
    {
      "inputs": [],
      "name": "tradeRegistry",
      "outputs": [
        {
          "internalType": "contract TradeRegistry",
          "name": "",
          "type": "address"
        }
      ],
      "stateMutability": "view",
      "type": "function"
    },
    {
      "inputs": [
        {
          "internalType": "uint256",
          "name": "",
          "type": "uint256"
        }
      ],
      "name": "verifications",
      "outputs": [
        {
          "internalType": "string",
          "name": "docIpfsHash",
          "type": "string"
        },
        {
          "internalType": "bool",
          "name": "customsVerified",
          "type": "bool"
        },
        {
          "internalType": "bool",
          "name": "bankVerified",
          "type": "bool"
        },
        {
          "internalType": "bool",
          "name": "isFullyVerified",
          "type": "bool"
        }
      ],
      "stateMutability": "view",
      "type": "function"
    },
    {
      "inputs": [
        {
          "internalType": "uint256",
          "name": "_tradeId",
          "type": "uint256"
        }
      ],
      "name": "verifyAsBank",
      "outputs": [],
      "stateMutability": "nonpayable",
      "type": "function"
    },
    {
      "inputs": [
        {
          "internalType": "uint256",
          "name": "_tradeId",
          "type": "uint256"
        }
      ],
      "name": "verifyAsCustoms",
      "outputs": [],
      "stateMutability": "nonpayable",
      "type": "function"
    }
  ],
  "bytecode": "0x60806040523480156200001157600080fd5b50604051620016e7380380620016e783398181016040528101906200003791906200012a565b816000806101000a81548173ffffffffffffffffffffffffffffffffffffffff021916908373ffffffffffffffffffffffffffffffffffffffff16021790555080600260006101000a81548173ffffffffffffffffffffffffffffffffffffffff021916908373ffffffffffffffffffffffffffffffffffffffff160217905550505062000171565b600080fd5b600073ffffffffffffffffffffffffffffffffffffffff82169050919050565b6000620000f282620000c5565b9050919050565b6200010481620000e5565b81146200011057600080fd5b50565b6000815190506200012481620000f9565b92915050565b60008060408385031215620001445762000143620000c0565b5b6000620001548582860162000113565b9250506020620001678582860162000113565b9150509250929050565b61156680620001816000396000f3fe608060405234801561001057600080fd5b50600436106100625760003560e01c8063730d7f2914610067578063a18756a414610085578063b90b0a10146100a1578063bfc8c958146100d4578063d1895546146100f0578063dbd973081461010c575b600080fd5b61006f61012a565b60405161007c9190610973565b60405180910390f35b61009f600480360381019061009a91906109d8565b610150565b005b6100bb60048036038101906100b691906109d8565b610253565b6040516100cb9493929190610ab0565b60405180910390f35b6100ee60048036038101906100e99190610b61565b610332565b005b61010a600480360381019061010591906109d8565b6105a3565b005b6101146107ce565b6040516101219190610c20565b60405180910390f35b600260009054906101000a900473ffffffffffffffffffffffffffffffffffffffff1681565b600260009054906101000a900473ffffffffffffffffffffffffffffffffffffffff1673ffffffffffffffffffffffffffffffffffffffff163373ffffffffffffffffffffffffffffffffffffffff16146101e0576040517f08c379a00000000000000000000000000000000000000000000000000000000081526004016101d790610c87565b60405180910390fd5b600180600083815260200190815260200160002060010160006101000a81548160ff021916908315150217905550807fcb982ab03497ef69b3f3e4ccad41802bc8abf6ed6bd679285bc3c72f103387b1600160405161023f9190610cf3565b60405180910390a2610250816107f2565b50565b600160205280600052604060002060009150905080600001805461027690610d50565b80601f01602080910402602001604051908101604052809291908181526020018280546102a290610d50565b80156102ef5780601f106102c4576101008083540402835291602001916102ef565b820191906000526020600020905b8154815290600101906020018083116102d257829003601f168201915b5050505050908060010160009054906101000a900460ff16908060010160019054906101000a900460ff16908060010160029054906101000a900460ff16905084565b60008060009054906101000a900473ffffffffffffffffffffffffffffffffffffffff1673ffffffffffffffffffffffffffffffffffffffff16632db25e05856040518263ffffffff1660e01b815260040161038e9190610d90565b61010060405180830381865afa1580156103ac573d6000803e3d6000fd5b505050506040513d601f19601f820116820180604052508101906103d09190610f5b565b9050806040015173ffffffffffffffffffffffffffffffffffffffff163373ffffffffffffffffffffffffffffffffffffffff1614610444576040517f08c379a000000000000000000000000000000000000000000000000000000000815260040161043b90610fd5565b60405180910390fd5b6002600981111561045857610457610ff5565b5b8160a00151600981111561046f5761046e610ff5565b5b146104af576040517f08c379a00000000000000000000000000000000000000000000000000000000081526004016104a690611070565b60405180910390fd5b82826001600087815260200190815260200160002060000191826104d492919061123d565b5060008054906101000a900473ffffffffffffffffffffffffffffffffffffffff1673ffffffffffffffffffffffffffffffffffffffff16633a1b3d318560036040518363ffffffff1660e01b8152600401610531929190611355565b600060405180830381600087803b15801561054b57600080fd5b505af115801561055f573d6000803e3d6000fd5b50505050837f5af0fdcce2d0b97962b66d6a003222c307f1b5f30588317c152a1af58e8c50eb84846040516105959291906113ba565b60405180910390a250505050565b60008060009054906101000a900473ffffffffffffffffffffffffffffffffffffffff1673ffffffffffffffffffffffffffffffffffffffff16632db25e05836040518263ffffffff1660e01b81526004016105ff9190610d90565b61010060405180830381865afa15801561061d573d6000803e3d6000fd5b505050506040513d601f19601f820116820180604052508101906106419190610f5b565b9050806080015173ffffffffffffffffffffffffffffffffffffffff163373ffffffffffffffffffffffffffffffffffffffff1614806106b05750806060015173ffffffffffffffffffffffffffffffffffffffff163373ffffffffffffffffffffffffffffffffffffffff16145b6106ef576040517f08c379a00000000000000000000000000000000000000000000000000000000081526004016106e69061142a565b60405180910390fd5b6003600981111561070357610702610ff5565b5b8160a00151600981111561071a57610719610ff5565b5b1461075a576040517f08c379a000000000000000000000000000000000000000000000000000000000815260040161075190611496565b60405180910390fd5b600180600084815260200190815260200160002060010160016101000a81548160ff021916908315150217905550817fcb982ab03497ef69b3f3e4ccad41802bc8abf6ed6bd679285bc3c72f103387b160016040516107b99190611502565b60405180910390a26107ca826107f2565b5050565b60008054906101000a900473ffffffffffffffffffffffffffffffffffffffff1681565b60006001600083815260200190815260200160002090508060010160009054906101000a900460ff16801561083557508060010160019054906101000a900460ff165b801561085057508060010160029054906101000a900460ff16155b1561092e5760018160010160026101000a81548160ff02191690831515021790555060008054906101000a900473ffffffffffffffffffffffffffffffffffffffff1673ffffffffffffffffffffffffffffffffffffffff16633a1b3d318360046040518363ffffffff1660e01b81526004016108ce929190611355565b600060405180830381600087803b1580156108e857600080fd5b505af11580156108fc573d6000803e3d6000fd5b50505050817fe2bc3e270feef2f0b5fb63f4004830abd2463a2565daeb89a2c7e9c1da8324ea60405160405180910390a25b5050565b600073ffffffffffffffffffffffffffffffffffffffff82169050919050565b600061095d82610932565b9050919050565b61096d81610952565b82525050565b60006020820190506109886000830184610964565b92915050565b6000604051905090565b600080fd5b600080fd5b6000819050919050565b6109b5816109a2565b81146109c057600080fd5b50565b6000813590506109d2816109ac565b92915050565b6000602082840312156109ee576109ed610998565b5b60006109fc848285016109c3565b91505092915050565b600081519050919050565b600082825260208201905092915050565b60005b83811015610a3f578082015181840152602081019050610a24565b60008484015250505050565b6000601f19601f8301169050919050565b6000610a6782610a05565b610a718185610a10565b9350610a81818560208601610a21565b610a8a81610a4b565b840191505092915050565b60008115159050919050565b610aaa81610a95565b82525050565b60006080820190508181036000830152610aca8187610a5c565b9050610ad96020830186610aa1565b610ae66040830185610aa1565b610af36060830184610aa1565b95945050505050565b600080fd5b600080fd5b600080fd5b60008083601f840112610b2157610b20610afc565b5b8235905067ffffffffffffffff811115610b3e57610b3d610b01565b5b602083019150836001820283011115610b5a57610b59610b06565b5b9250929050565b600080600060408486031215610b7a57610b79610998565b5b6000610b88868287016109c3565b935050602084013567ffffffffffffffff811115610ba957610ba861099d565b5b610bb586828701610b0b565b92509250509250925092565b6000819050919050565b6000610be6610be1610bdc84610932565b610bc1565b610932565b9050919050565b6000610bf882610bcb565b9050919050565b6000610c0a82610bed565b9050919050565b610c1a81610bff565b82525050565b6000602082019050610c356000830184610c11565b92915050565b7f4f6e6c7920637573746f6d730000000000000000000000000000000000000000600082015250565b6000610c71600c83610a10565b9150610c7c82610c3b565b602082019050919050565b60006020820190508181036000830152610ca081610c64565b9050919050565b7f437573746f6d7300000000000000000000000000000000000000000000000000600082015250565b6000610cdd600783610a10565b9150610ce882610ca7565b602082019050919050565b60006040820190508181036000830152610d0c81610cd0565b9050610d1b6020830184610aa1565b92915050565b7f4e487b7100000000000000000000000000000000000000000000000000000000600052602260045260246000fd5b60006002820490506001821680610d6857607f821691505b602082108103610d7b57610d7a610d21565b5b50919050565b610d8a816109a2565b82525050565b6000602082019050610da56000830184610d81565b92915050565b600080fd5b7f4e487b7100000000000000000000000000000000000000000000000000000000600052604160045260246000fd5b610de882610a4b565b810181811067ffffffffffffffff82111715610e0757610e06610db0565b5b80604052505050565b6000610e1a61098e565b9050610e268282610ddf565b919050565b600081519050610e3a816109ac565b92915050565b610e4981610952565b8114610e5457600080fd5b50565b600081519050610e6681610e40565b92915050565b600a8110610e7957600080fd5b50565b600081519050610e8b81610e6c565b92915050565b60006101008284031215610ea857610ea7610dab565b5b610eb3610100610e10565b90506000610ec384828501610e2b565b6000830152506020610ed784828501610e57565b6020830152506040610eeb84828501610e57565b6040830152506060610eff84828501610e57565b6060830152506080610f1384828501610e57565b60808301525060a0610f2784828501610e7c565b60a08301525060c0610f3b84828501610e2b565b60c08301525060e0610f4f84828501610e2b565b60e08301525092915050565b60006101008284031215610f7257610f71610998565b5b6000610f8084828501610e91565b91505092915050565b7f4f6e6c79206578706f727465722063616e207375626d697420646f6373000000600082015250565b6000610fbf601d83610a10565b9150610fca82610f89565b602082019050919050565b60006020820190508181036000830152610fee81610fb2565b9050919050565b7f4e487b7100000000000000000000000000000000000000000000000000000000600052602160045260246000fd5b7f4c6f43206e6f7420697373756564000000000000000000000000000000000000600082015250565b600061105a600e83610a10565b915061106582611024565b602082019050919050565b600060208201905081810360008301526110898161104d565b9050919050565b600082905092915050565b60008190508160005260206000209050919050565b60006020601f8301049050919050565b600082821b905092915050565b6000600883026110fd7fffffffffffffffffffffffffffffffffffffffffffffffffffffffffffffffff826110c0565b61110786836110c0565b95508019841693508086168417925050509392505050565b600061113a611135611130846109a2565b610bc1565b6109a2565b9050919050565b6000819050919050565b6111548361111f565b61116861116082611141565b8484546110cd565b825550505050565b600090565b61117d611170565b61118881848461114b565b505050565b5b818110156111ac576111a1600082611175565b60018101905061118e565b5050565b601f8211156111f1576111c28161109b565b6111cb846110b0565b810160208510156111da578190505b6111ee6111e6856110b0565b83018261118d565b50505b505050565b600082821c905092915050565b6000611214600019846008026111f6565b1980831691505092915050565b600061122d8383611203565b9150826002028217905092915050565b6112478383611090565b67ffffffffffffffff8111156112605761125f610db0565b5b61126a8254610d50565b6112758282856111b0565b6000601f8311600181146112a45760008415611292578287013590505b61129c8582611221565b865550611304565b601f1984166112b28661109b565b60005b828110156112da578489013582556001820191506020850194506020810190506112b5565b868310156112f757848901356112f3601f891682611203565b8355505b6001600288020188555050505b50505050505050565b600a811061131e5761131d610ff5565b5b50565b600081905061132f8261130d565b919050565b600061133f82611321565b9050919050565b61134f81611334565b82525050565b600060408201905061136a6000830185610d81565b6113776020830184611346565b9392505050565b82818337600083830152505050565b60006113998385610a10565b93506113a683858461137e565b6113af83610a4b565b840190509392505050565b600060208201905081810360008301526113d581848661138d565b90509392505050565b7f4f6e6c792062616e6b732063616e207665726966790000000000000000000000600082015250565b6000611414601583610a10565b915061141f826113de565b602082019050919050565b6000602082019050818103600083015261144381611407565b9050919050565b7f446f6373206e6f74207375626d69747465640000000000000000000000000000600082015250565b6000611480601283610a10565b915061148b8261144a565b602082019050919050565b600060208201905081810360008301526114af81611473565b9050919050565b7f42616e6b00000000000000000000000000000000000000000000000000000000600082015250565b60006114ec600483610a10565b91506114f7826114b6565b602082019050919050565b6000604082019050818103600083015261151b816114df565b905061152a6020830184610aa1565b9291505056fea2646970667358221220b6ad3bf785d4a529e0b7e26b2ed15654a96dbfa4c3cb2d572b6035b757db473264736f6c63430008180033",
  "linkReferences": {},
  "deployedLinkReferences": {}
}