{
  "_format": "hh-sol-artifact-1",
  "contractName": "DocumentVerification",
  "sourceName": "contracts/DocumentVerification.sol",
  "abi": [
    {
      "inputs": [
        {
          "internalType": "address",
          "name": "_tradeRegistry",
          "type": "address"
        }
      ],
      "stateMutability": "nonpayable",
      "type": "constructor"
    },
    {
      "anonymous": false,
      "inputs": [
        {
          "indexed": true,
          "internalType": "uint256",
          "name": "tradeId",
          "type": "uint256"
        },
        {
          "indexed": false,
          "internalType": "string",
          "name": "ipfsHash",
          "type": "string"
        },
        {
          "indexed": false,
          "internalType": "address",
          "name": "issuedBy",
          "type": "address"
        }
      ],
      "name": "BillOfLadingIssued",
      "type": "event"
    },
    {
      "anonymous": false,
      "inputs": [
        {
          "indexed": true,
          "internalType": "uint256",
          "name": "tradeId",
          "type": "uint256"
        },
        {
          "indexed": false,
          "internalType": "bool",
          "name": "cleared",
          "type": "bool"
        },
        {
          "indexed": false,
          "internalType": "address",
          "name": "decidedBy",
          "type": "address"
        }
      ],
      "name": "CustomsDecision",
      "type": "event"
    },
    {
      "anonymous": false,
      "inputs": [
        {
          "indexed": true,
          "internalType": "uint256",
          "name": "tradeId",
          "type": "uint256"
        },
        {
          "indexed": false,
          "internalType": "address",
          "name": "recordedBy",
          "type": "address"
        }
      ],
      "name": "DutyPaymentRecorded",
      "type": "event"
    },
    {
      "anonymous": false,
      "inputs": [
        {
          "indexed": true,
          "internalType": "uint256",
          "name": "tradeId",
          "type": "uint256"
        },
        {
          "indexed": false,
          "internalType": "address",
          "name": "releasedBy",
          "type": "address"
        }
      ],
      "name": "GoodsReleasedFromDuty",
      "type": "event"
    },
    {
      "inputs": [
        {
          "internalType": "uint256",
          "name": "_tradeId",
          "type": "uint256"
        }
      ],
      "name": "getBolIpfsHash",
      "outputs": [
        {
          "internalType": "string",
          "name": "",
          "type": "string"
        }
      ],
      "stateMutability": "view",
      "type": "function"
    },
    {
      "inputs": [
        {
          "internalType": "uint256",
          "name": "_tradeId",
          "type": "uint256"
        }
      ],
      "name": "getVerification",
      "outputs": [
        {
          "components": [
            {
              "internalType": "string",
              "name": "bolIpfsHash",
              "type": "string"
            },
            {
              "internalType": "string",
              "name": "customsCertIpfsHash",
              "type": "string"
            },
            {
              "internalType": "bool",
              "name": "bolIssued",
              "type": "bool"
            },
            {
              "internalType": "bool",
              "name": "customsCleared",
              "type": "bool"
            },
            {
              "internalType": "bool",
              "name": "dutyRequired",
              "type": "bool"
            },
            {
              "internalType": "bool",
              "name": "dutyPaid",
              "type": "bool"
            }
          ],
          "internalType": "struct DocumentVerification.VerificationState",
          "name": "",
          "type": "tuple"
        }
      ],
      "stateMutability": "view",
      "type": "function"
    },
    {
      "inputs": [
        {
          "internalType": "uint256",
          "name": "_tradeId",
          "type": "uint256"
        },
        {
          "internalType": "string",
          "name": "_ipfsHash",
          "type": "string"
        }
      ],
      "name": "issueBillOfLading",
      "outputs": [],
      "stateMutability": "nonpayable",
      "type": "function"
    },
    {
      "inputs": [
        {
          "internalType": "uint256",
          "name": "_tradeId",
          "type": "uint256"
        }
      ],
      "name": "recordDutyPayment",
      "outputs": [],
      "stateMutability": "nonpayable",
      "type": "function"
    },
    {
      "inputs": [
        {
          "internalType": "uint256",
          "name": "_tradeId",
          "type": "uint256"
        }
      ],
      "name": "releaseFromDuty",
      "outputs": [],
      "stateMutability": "nonpayable",
      "type": "function"
    },
    {
      "inputs": [],
      "name": "tradeRegistry",
      "outputs": [
        {
          "internalType": "contract TradeRegistry",
          "name": "",
          "type": "address"
        }
      ],
      "stateMutability": "view",
      "type": "function"
    },
    {
      "inputs": [
        {
          "internalType": "uint256",
          "name": "",
          "type": "uint256"
        }
      ],
      "name": "verifications",
      "outputs": [
        {
          "internalType": "string",
          "name": "bolIpfsHash",
          "type": "string"
        },
        {
          "internalType": "string",
          "name": "customsCertIpfsHash",
          "type": "string"
        },
        {
          "internalType": "bool",
          "name": "bolIssued",
          "type": "bool"
        },
        {
          "internalType": "bool",
          "name": "customsCleared",
          "type": "bool"
        },
        {
          "internalType": "bool",
          "name": "dutyRequired",
          "type": "bool"
        },
        {
          "internalType": "bool",
          "name": "dutyPaid",
          "type": "bool"
        }
      ],
      "stateMutability": "view",
      "type": "function"
    },
    {
      "inputs": [
        {
          "internalType": "uint256",
          "name": "_tradeId",
          "type": "uint256"
        },
        {
          "internalType": "bool",
          "name": "_cleared",
          "type": "bool"
        },
        {
          "internalType": "string",
          "name": "_certIpfsHash",
          "type": "string"
        }
      ],
      "name": "verifyAsCustoms",
      "outputs": [],
      "stateMutability": "nonpayable",
      "type": "function"
    }
  ],
  "bytecode": "0x60806040523480156200001157600080fd5b50604051620022fe380380620022fe8339818101604052810190620000379190620000e8565b806000806101000a81548173ffffffffffffffffffffffffffffffffffffffff021916908373ffffffffffffffffffffffffffffffffffffffff160217905550506200011a565b600080fd5b600073ffffffffffffffffffffffffffffffffffffffff82169050919050565b6000620000b08262000083565b9050919050565b620000c281620000a3565b8114620000ce57600080fd5b50565b600081519050620000e281620000b7565b92915050565b6000602082840312156200010157620001006200007e565b5b60006200011184828501620000d1565b91505092915050565b6121d4806200012a6000396000f3fe608060405234801561001057600080fd5b50600436106100885760003560e01c8063959aec851161005b578063959aec85146101255780639b8d8a1014610141578063b90b0a101461015d578063dbd973081461019257610088565b80633eb3da481461008d57806358937cc8146100a95780636d64f83f146100d95780638dd62219146100f5575b600080fd5b6100a760048036038101906100a29190611283565b6101b0565b005b6100c360048036038101906100be91906112e3565b61059e565b6040516100d0919061144b565b60405180910390f35b6100f360048036038101906100ee91906112e3565b61075b565b005b61010f600480360381019061010a91906112e3565b610a08565b60405161011c91906114b7565b60405180910390f35b61013f600480360381019061013a9190611505565b610ab0565b005b61015b600480360381019061015691906112e3565b610d97565b005b610177600480360381019061017291906112e3565b610ff2565b60405161018996959493929190611588565b60405180910390f35b61019a611172565b6040516101a79190611676565b60405180910390f35b8260008060009054906101000a900473ffffffffffffffffffffffffffffffffffffffff1673ffffffffffffffffffffffffffffffffffffffff16632db25e05836040518263ffffffff1660e01b815260040161020d91906116a0565b61016060405180830381865afa15801561022b573d6000803e3d6000fd5b505050506040513d601f19601f8201168201806040525081019061024f91906118d4565b90508060a0015173ffffffffffffffffffffffffffffffffffffffff163373ffffffffffffffffffffffffffffffffffffffff16146102c3576040517f08c379a00000000000000000000000000000000000000000000000000000000081526004016102ba9061194e565b60405180910390fd5b60008060009054906101000a900473ffffffffffffffffffffffffffffffffffffffff1673ffffffffffffffffffffffffffffffffffffffff16632db25e05876040518263ffffffff1660e01b815260040161031f91906116a0565b61016060405180830381865afa15801561033d573d6000803e3d6000fd5b505050506040513d601f19601f8201168201806040525081019061036191906118d4565b90506006600f8111156103775761037661196e565b5b8160c00151600f81111561038e5761038d61196e565b5b146103ce576040517f08c379a00000000000000000000000000000000000000000000000000000000081526004016103c590611a0f565b60405180910390fd5b60008585905011610414576040517f08c379a000000000000000000000000000000000000000000000000000000000815260040161040b90611a7b565b60405180910390fd5b6001600087815260200190815260200160002060020160009054906101000a900460ff1615610478576040517f08c379a000000000000000000000000000000000000000000000000000000000815260040161046f90611ae7565b60405180910390fd5b848460016000898152602001908152602001600020600001918261049d929190611d14565b50600180600088815260200190815260200160002060020160006101000a81548160ff02191690831515021790555060008054906101000a900473ffffffffffffffffffffffffffffffffffffffff1673ffffffffffffffffffffffffffffffffffffffff16633a1b3d318760076040518363ffffffff1660e01b8152600401610528929190611e2c565b600060405180830381600087803b15801561054257600080fd5b505af1158015610556573d6000803e3d6000fd5b50505050857f63149911db316f829a231b8a15319e7c3955ae2dc560e0f9a964d69ba0be2dbd86863360405161058e93929190611ea0565b60405180910390a2505050505050565b6105a6611196565b600160008381526020019081526020016000206040518060c00160405290816000820180546105d490611b41565b80601f016020809104026020016040519081016040528092919081815260200182805461060090611b41565b801561064d5780601f106106225761010080835404028352916020019161064d565b820191906000526020600020905b81548152906001019060200180831161063057829003601f168201915b5050505050815260200160018201805461066690611b41565b80601f016020809104026020016040519081016040528092919081815260200182805461069290611b41565b80156106df5780601f106106b4576101008083540402835291602001916106df565b820191906000526020600020905b8154815290600101906020018083116106c257829003601f168201915b505050505081526020016002820160009054906101000a900460ff161515151581526020016002820160019054906101000a900460ff161515151581526020016002820160029054906101000a900460ff161515151581526020016002820160039054906101000a900460ff1615151515815250509050919050565b60008060009054906101000a900473ffffffffffffffffffffffffffffffffffffffff1673ffffffffffffffffffffffffffffffffffffffff16632db25e05836040518263ffffffff1660e01b81526004016107b791906116a0565b61016060405180830381865afa1580156107d5573d6000803e3d6000fd5b505050506040513d601f19601f820116820180604052508101906107f991906118d4565b90506009600f81111561080f5761080e61196e565b5b8160c00151600f8111156108265761082561196e565b5b14610866576040517f08c379a000000000000000000000000000000000000000000000000000000000815260040161085d90611f1e565b60405180910390fd5b60006001600084815260200190815260200160002090508060020160029054906101000a900460ff166108ce576040517f08c379a00000000000000000000000000000000000000000000000000000000081526004016108c590611f8a565b60405180910390fd5b8060020160039054906101000a900460ff1615610920576040517f08c379a000000000000000000000000000000000000000000000000000000000815260040161091790611ff6565b60405180910390fd5b60018160020160036101000a81548160ff02191690831515021790555060008054906101000a900473ffffffffffffffffffffffffffffffffffffffff1673ffffffffffffffffffffffffffffffffffffffff16633a1b3d3184600a6040518363ffffffff1660e01b8152600401610999929190611e2c565b600060405180830381600087803b1580156109b357600080fd5b505af11580156109c7573d6000803e3d6000fd5b50505050827f7e015115c2d7685e77c560c4a249667263bc29637098157719b522066cbcfd7d336040516109fb9190612016565b60405180910390a2505050565b6060600160008381526020019081526020016000206000018054610a2b90611b41565b80601f0160208091040260200160405190810160405280929190818152602001828054610a5790611b41565b8015610aa45780601f10610a7957610100808354040283529160200191610aa4565b820191906000526020600020905b815481529060010190602001808311610a8757829003601f168201915b50505050509050919050565b60008060009054906101000a900473ffffffffffffffffffffffffffffffffffffffff1673ffffffffffffffffffffffffffffffffffffffff16632db25e05866040518263ffffffff1660e01b8152600401610b0c91906116a0565b61016060405180830381865afa158015610b2a573d6000803e3d6000fd5b505050506040513d601f19601f82011682018060405250810190610b4e91906118d4565b90506007600f811115610b6457610b6361196e565b5b8160c00151600f811115610b7b57610b7a61196e565b5b14610bbb576040517f08c379a0000000000000000000000000000000000000000000000000000000008152600401610bb29061207d565b60405180910390fd5b60006001600087815260200190815260200160002090506000848490501115610bf3578383826001019182610bf1929190611d14565b505b8415610ca95760018160020160016101000a81548160ff02191690831515021790555060008054906101000a900473ffffffffffffffffffffffffffffffffffffffff1673ffffffffffffffffffffffffffffffffffffffff16633a1b3d318760086040518363ffffffff1660e01b8152600401610c72929190611e2c565b600060405180830381600087803b158015610c8c57600080fd5b505af1158015610ca0573d6000803e3d6000fd5b50505050610d55565b60018160020160026101000a81548160ff02191690831515021790555060008054906101000a900473ffffffffffffffffffffffffffffffffffffffff1673ffffffffffffffffffffffffffffffffffffffff16633a1b3d318760096040518363ffffffff1660e01b8152600401610d22929190611e2c565b600060405180830381600087803b158015610d3c57600080fd5b505af1158015610d50573d6000803e3d6000fd5b505050505b857f96752bae5a7241784ea98ffd832f3608db43fd5c35942d102b1a92fdaef13f968633604051610d8792919061209d565b60405180910390a2505050505050565b60008060009054906101000a900473ffffffffffffffffffffffffffffffffffffffff1673ffffffffffffffffffffffffffffffffffffffff16632db25e05836040518263ffffffff1660e01b8152600401610df391906116a0565b61016060405180830381865afa158015610e11573d6000803e3d6000fd5b505050506040513d601f19601f82011682018060405250810190610e3591906118d4565b9050600a600f811115610e4b57610e4a61196e565b5b8160c00151600f811115610e6257610e6161196e565b5b14610ea2576040517f08c379a0000000000000000000000000000000000000000000000000000000008152600401610e9990612112565b60405180910390fd5b60006001600084815260200190815260200160002090508060020160039054906101000a900460ff16610f0a576040517f08c379a0000000000000000000000000000000000000000000000000000000008152600401610f019061217e565b60405180910390fd5b60018160020160016101000a81548160ff02191690831515021790555060008054906101000a900473ffffffffffffffffffffffffffffffffffffffff1673ffffffffffffffffffffffffffffffffffffffff16633a1b3d318460086040518363ffffffff1660e01b8152600401610f83929190611e2c565b600060405180830381600087803b158015610f9d57600080fd5b505af1158015610fb1573d6000803e3d6000fd5b50505050827f256a72b45efe5d14bc1b5448dea14f76c8a9902c697c96c1e2862f50d37604c033604051610fe59190612016565b60405180910390a2505050565b600160205280600052604060002060009150905080600001805461101590611b41565b80601f016020809104026020016040519081016040528092919081815260200182805461104190611b41565b801561108e5780601f106110635761010080835404028352916020019161108e565b820191906000526020600020905b81548152906001019060200180831161107157829003601f168201915b5050505050908060010180546110a390611b41565b80601f01602080910402602001604051908101604052809291908181526020018280546110cf90611b41565b801561111c5780601f106110f15761010080835404028352916020019161111c565b820191906000526020600020905b8154815290600101906020018083116110ff57829003601f168201915b5050505050908060020160009054906101000a900460ff16908060020160019054906101000a900460ff16908060020160029054906101000a900460ff16908060020160039054906101000a900460ff16905086565b60008054906101000a900473ffffffffffffffffffffffffffffffffffffffff1681565b6040518060c0016040528060608152602001606081526020016000151581526020016000151581526020016000151581526020016000151581525090565b6000604051905090565b600080fd5b600080fd5b6000819050919050565b6111fb816111e8565b811461120657600080fd5b50565b600081359050611218816111f2565b92915050565b600080fd5b600080fd5b600080fd5b60008083601f8401126112435761124261121e565b5b8235905067ffffffffffffffff8111156112605761125f611223565b5b60208301915083600182028301111561127c5761127b611228565b5b9250929050565b60008060006040848603121561129c5761129b6111de565b5b60006112aa86828701611209565b935050602084013567ffffffffffffffff8111156112cb576112ca6111e3565b5b6112d78682870161122d565b92509250509250925092565b6000602082840312156112f9576112f86111de565b5b600061130784828501611209565b91505092915050565b600081519050919050565b600082825260208201905092915050565b60005b8381101561134a57808201518184015260208101905061132f565b60008484015250505050565b6000601f19601f8301169050919050565b600061137282611310565b61137c818561131b565b935061138c81856020860161132c565b61139581611356565b840191505092915050565b60008115159050919050565b6113b5816113a0565b82525050565b600060c08301600083015184820360008601526113d88282611367565b915050602083015184820360208601526113f28282611367565b915050604083015161140760408601826113ac565b50606083015161141a60608601826113ac565b50608083015161142d60808601826113ac565b5060a083015161144060a08601826113ac565b508091505092915050565b6000602082019050818103600083015261146581846113bb565b905092915050565b600082825260208201905092915050565b600061148982611310565b611493818561146d565b93506114a381856020860161132c565b6114ac81611356565b840191505092915050565b600060208201905081810360008301526114d1818461147e565b905092915050565b6114e2816113a0565b81146114ed57600080fd5b50565b6000813590506114ff816114d9565b92915050565b6000806000806060858703121561151f5761151e6111de565b5b600061152d87828801611209565b945050602061153e878288016114f0565b935050604085013567ffffffffffffffff81111561155f5761155e6111e3565b5b61156b8782880161122d565b925092505092959194509250565b611582816113a0565b82525050565b600060c08201905081810360008301526115a2818961147e565b905081810360208301526115b6818861147e565b90506115c56040830187611579565b6115d26060830186611579565b6115df6080830185611579565b6115ec60a0830184611579565b979650505050505050565b600073ffffffffffffffffffffffffffffffffffffffff82169050919050565b6000819050919050565b600061163c611637611632846115f7565b611617565b6115f7565b9050919050565b600061164e82611621565b9050919050565b600061166082611643565b9050919050565b61167081611655565b82525050565b600060208201905061168b6000830184611667565b92915050565b61169a816111e8565b82525050565b60006020820190506116b56000830184611691565b92915050565b600080fd5b7f4e487b7100000000000000000000000000000000000000000000000000000000600052604160045260246000fd5b6116f882611356565b810181811067ffffffffffffffff82111715611717576117166116c0565b5b80604052505050565b600061172a6111d4565b905061173682826116ef565b919050565b60008151905061174a816111f2565b92915050565b600061175b826115f7565b9050919050565b61176b81611750565b811461177657600080fd5b50565b60008151905061178881611762565b92915050565b6010811061179b57600080fd5b50565b6000815190506117ad8161178e565b92915050565b6000815190506117c2816114d9565b92915050565b600061016082840312156117df576117de6116bb565b5b6117ea610160611720565b905060006117fa8482850161173b565b600083015250602061180e84828501611779565b602083015250604061182284828501611779565b604083015250606061183684828501611779565b606083015250608061184a84828501611779565b60808301525060a061185e84828501611779565b60a08301525060c06118728482850161179e565b60c08301525060e06118868482850161173b565b60e08301525061010061189b8482850161173b565b610100830152506101206118b1848285016117b3565b610120830152506101406118c7848285016117b3565b6101408301525092915050565b600061016082840312156118eb576118ea6111de565b5b60006118f9848285016117c8565b91505092915050565b7f4f6e6c792061737369676e6564207368697070696e6720636f6d70616e790000600082015250565b6000611938601e8361146d565b915061194382611902565b602082019050919050565b600060208201905081810360008301526119678161192b565b9050919050565b7f4e487b7100000000000000000000000000000000000000000000000000000000600052602160045260246000fd5b7f5472616465206d75737420626520696e205348495050494e475f41535349474e60008201527f4544207374617475730000000000000000000000000000000000000000000000602082015250565b60006119f960298361146d565b9150611a048261199d565b604082019050919050565b60006020820190508181036000830152611a28816119ec565b9050919050565b7f4950465320686173682072657175697265640000000000000000000000000000600082015250565b6000611a6560128361146d565b9150611a7082611a2f565b602082019050919050565b60006020820190508181036000830152611a9481611a58565b9050919050565b7f426f4c20616c7265616479206973737565640000000000000000000000000000600082015250565b6000611ad160128361146d565b9150611adc82611a9b565b602082019050919050565b60006020820190508181036000830152611b0081611ac4565b9050919050565b600082905092915050565b7f4e487b7100000000000000000000000000000000000000000000000000000000600052602260045260246000fd5b60006002820490506001821680611b5957607f821691505b602082108103611b6c57611b6b611b12565b5b50919050565b60008190508160005260206000209050919050565b60006020601f8301049050919050565b600082821b905092915050565b600060088302611bd47fffffffffffffffffffffffffffffffffffffffffffffffffffffffffffffffff82611b97565b611bde8683611b97565b95508019841693508086168417925050509392505050565b6000611c11611c0c611c07846111e8565b611617565b6111e8565b9050919050565b6000819050919050565b611c2b83611bf6565b611c3f611c3782611c18565b848454611ba4565b825550505050565b600090565b611c54611c47565b611c5f818484611c22565b505050565b5b81811015611c8357611c78600082611c4c565b600181019050611c65565b5050565b601f821115611cc857611c9981611b72565b611ca284611b87565b81016020851015611cb1578190505b611cc5611cbd85611b87565b830182611c64565b50505b505050565b600082821c905092915050565b6000611ceb60001984600802611ccd565b1980831691505092915050565b6000611d048383611cda565b9150826002028217905092915050565b611d1e8383611b07565b67ffffffffffffffff811115611d3757611d366116c0565b5b611d418254611b41565b611d4c828285611c87565b6000601f831160018114611d7b5760008415611d69578287013590505b611d738582611cf8565b865550611ddb565b601f198416611d8986611b72565b60005b82811015611db157848901358255600182019150602085019450602081019050611d8c565b86831015611dce5784890135611dca601f891682611cda565b8355505b6001600288020188555050505b50505050505050565b60108110611df557611df461196e565b5b50565b6000819050611e0682611de4565b919050565b6000611e1682611df8565b9050919050565b611e2681611e0b565b82525050565b6000604082019050611e416000830185611691565b611e4e6020830184611e1d565b9392505050565b82818337600083830152505050565b6000611e70838561146d565b9350611e7d838584611e55565b611e8683611356565b840190509392505050565b611e9a81611750565b82525050565b60006040820190508181036000830152611ebb818587611e64565b9050611eca6020830184611e91565b949350505050565b7f4e6f2070656e64696e6720647574790000000000000000000000000000000000600082015250565b6000611f08600f8361146d565b9150611f1382611ed2565b602082019050919050565b60006020820190508181036000830152611f3781611efb565b9050919050565b7f4475747920776173206e6f742072657175697265640000000000000000000000600082015250565b6000611f7460158361146d565b9150611f7f82611f3e565b602082019050919050565b60006020820190508181036000830152611fa381611f67565b9050919050565b7f4475747920616c7265616479207265636f726465642061732070616964000000600082015250565b6000611fe0601d8361146d565b9150611feb82611faa565b602082019050919050565b6000602082019050818103600083015261200f81611fd3565b9050919050565b600060208201905061202b6000830184611e91565b92915050565b7f476f6f6473206e6f742079657420736869707065640000000000000000000000600082015250565b600061206760158361146d565b915061207282612031565b602082019050919050565b600060208201905081810360008301526120968161205a565b9050919050565b60006040820190506120b26000830185611579565b6120bf6020830184611e91565b9392505050565b7f44757479206e6f74207061696420796574000000000000000000000000000000600082015250565b60006120fc60118361146d565b9150612107826120c6565b602082019050919050565b6000602082019050818103600083015261212b816120ef565b9050919050565b7f44757479206e6f74207265636f72646564206173207061696400000000000000600082015250565b600061216860198361146d565b915061217382612132565b602082019050919050565b600060208201905081810360008301526121978161215b565b905091905056fea2646970667358221220acef7d476fc9e847ce502ad39b29e1280a1923904be5d72a30c3bcf8729e124464736f6c63430008180033",
  "linkReferences": {},
  "deployedLinkReferences": {}
}