{
  "_format": "hh-sol-artifact-1",
  "contractName": "DocumentVerification",
  "sourceName": "contracts/DocumentVerification.sol",
  "abi": [
    {
      "inputs": [
        {
          "internalType": "address",
          "name": "_tradeRegistry",
          "type": "address"
        }
      ],
      "stateMutability": "nonpayable",
      "type": "constructor"
    },
    {
      "anonymous": false,
      "inputs": [
        {
          "indexed": true,
          "internalType": "uint256",
          "name": "tradeId",
          "type": "uint256"
        },
        {
          "indexed": false,
          "internalType": "string",
          "name": "ipfsHash",
          "type": "string"
        },
        {
          "indexed": true,
          "internalType": "address",
          "name": "issuedBy",
          "type": "address"
        }
      ],
      "name": "BillOfLadingIssued",
      "type": "event"
    },
    {
      "anonymous": false,
      "inputs": [
        {
          "indexed": true,
          "internalType": "uint256",
          "name": "tradeId",
          "type": "uint256"
        },
        {
          "indexed": true,
          "internalType": "uint8",
          "name": "decision",
          "type": "uint8"
        },
        {
          "indexed": false,
          "internalType": "uint256",
          "name": "taxAmount",
          "type": "uint256"
        },
        {
          "indexed": true,
          "internalType": "address",
          "name": "decidedBy",
          "type": "address"
        }
      ],
      "name": "CustomsDecisionMade",
      "type": "event"
    },
    {
      "anonymous": false,
      "inputs": [
        {
          "indexed": true,
          "internalType": "uint256",
          "name": "tradeId",
          "type": "uint256"
        },
        {
          "indexed": true,
          "internalType": "uint256",
          "name": "taxAmount",
          "type": "uint256"
        },
        {
          "indexed": true,
          "internalType": "address",
          "name": "releasedBy",
          "type": "address"
        }
      ],
      "name": "TaxPaidAndGoodsReleased",
      "type": "event"
    },
    {
      "inputs": [
        {
          "internalType": "uint256",
          "name": "_tradeId",
          "type": "uint256"
        }
      ],
      "name": "getBolIpfsHash",
      "outputs": [
        {
          "internalType": "string",
          "name": "",
          "type": "string"
        }
      ],
      "stateMutability": "view",
      "type": "function"
    },
    {
      "inputs": [
        {
          "internalType": "uint256",
          "name": "_tradeId",
          "type": "uint256"
        }
      ],
      "name": "getVerification",
      "outputs": [
        {
          "components": [
            {
              "internalType": "string",
              "name": "bolIpfsHash",
              "type": "string"
            },
            {
              "internalType": "string",
              "name": "customsCertIpfsHash",
              "type": "string"
            },
            {
              "internalType": "uint256",
              "name": "taxAmount",
              "type": "uint256"
            },
            {
              "internalType": "bool",
              "name": "bolIssued",
              "type": "bool"
            },
            {
              "internalType": "bool",
              "name": "customsCleared",
              "type": "bool"
            },
            {
              "internalType": "uint8",
              "name": "customsDecision",
              "type": "uint8"
            },
            {
              "internalType": "bool",
              "name": "taxPaid",
              "type": "bool"
            }
          ],
          "internalType": "struct DocumentVerification.VerificationState",
          "name": "",
          "type": "tuple"
        }
      ],
      "stateMutability": "view",
      "type": "function"
    },
    {
      "inputs": [
        {
          "internalType": "uint256",
          "name": "_tradeId",
          "type": "uint256"
        },
        {
          "internalType": "string",
          "name": "_ipfsHash",
          "type": "string"
        }
      ],
      "name": "issueBillOfLading",
      "outputs": [],
      "stateMutability": "nonpayable",
      "type": "function"
    },
    {
      "inputs": [
        {
          "internalType": "uint256",
          "name": "_tradeId",
          "type": "uint256"
        }
      ],
      "name": "payTaxAndRelease",
      "outputs": [],
      "stateMutability": "nonpayable",
      "type": "function"
    },
    {
      "inputs": [],
      "name": "tradeRegistry",
      "outputs": [
        {
          "internalType": "contract TradeRegistry",
          "name": "",
          "type": "address"
        }
      ],
      "stateMutability": "view",
      "type": "function"
    },
    {
      "inputs": [
        {
          "internalType": "uint256",
          "name": "",
          "type": "uint256"
        }
      ],
      "name": "verifications",
      "outputs": [
        {
          "internalType": "string",
          "name": "bolIpfsHash",
          "type": "string"
        },
        {
          "internalType": "string",
          "name": "customsCertIpfsHash",
          "type": "string"
        },
        {
          "internalType": "uint256",
          "name": "taxAmount",
          "type": "uint256"
        },
        {
          "internalType": "bool",
          "name": "bolIssued",
          "type": "bool"
        },
        {
          "internalType": "bool",
          "name": "customsCleared",
          "type": "bool"
        },
        {
          "internalType": "uint8",
          "name": "customsDecision",
          "type": "uint8"
        },
        {
          "internalType": "bool",
          "name": "taxPaid",
          "type": "bool"
        }
      ],
      "stateMutability": "view",
      "type": "function"
    },
    {
      "inputs": [
        {
          "internalType": "uint256",
          "name": "_tradeId",
          "type": "uint256"
        },
        {
          "internalType": "uint8",
          "name": "_decision",
          "type": "uint8"
        },
        {
          "internalType": "uint256",
          "name": "_taxAmount",
          "type": "uint256"
        },
        {
          "internalType": "string",
          "name": "_certIpfsHash",
          "type": "string"
        }
      ],
      "name": "verifyAsCustoms",
      "outputs": [],
      "stateMutability": "nonpayable",
      "type": "function"
    }
  ],
  "bytecode": "0x60a0346100b157601f6113cc38819003918201601f19168301916001600160401b038311848410176100b6578084926020946040528339810103126100b157516001600160a01b038116908190036100b1576080526040516112ff90816100cd8239608051818181608d0152818161031e015281816105b001528181610a1a01528181610a7301528181610b0901528181610b5701528181610bf601528181610c4301528181610cf60152610d430152f35b600080fd5b634e487b7160e01b600052604160045260246000fdfe608080604052600436101561001357600080fd5b600090813560e01c908163345a83fa146109ac575080633eb3da481461055657806358937cc8146104305780638dd62219146103ee578063b90b0a101461034d578063dbd97308146103085763ea8324e31461006e57600080fd5b346103055760203660031901126103055760043560018060a01b0390817f000000000000000000000000000000000000000000000000000000000000000016604051632db25e0560e01b8082528360048301526102209160249583828881885afa9182156102fa576100f092610180918a916102dd575b50015116331461127d565b60405190815283600482015281818681865afa9081156102d2576101c09287926102a5575b5050015160158110156102925760090361025a57818452836020526040842092600284019384541561022057600301805460ff8160181c166101e95763ff00ff0019166301000100179055849190813b156101da57600860448492836040519586948593633a1b3d3160e01b85528a60048601528401525af180156101de576101c6575b5050339154907fb2f3804492a73e4cd995d51a482a4e90a4919f22255ee0441319bdea08733acb8480a480f35b6101cf90611026565b6101da578238610199565b8280fd5b6040513d84823e3d90fd5b60405162461bcd60e51b8152602060048201526010818501526f15185e08185b1c9958591e481c185a5960821b6044820152606490fd5b60405162461bcd60e51b81526020600482015260138184015272139bc81d185e081dd85cc8185cdcd95cdcd959606a1b6044820152606490fd5b60405162461bcd60e51b81526020600482015260118185015270151c985919481b9bdd08199b1859d9d959607a1b6044820152606490fd5b634e487b7160e01b855260216004528385fd5b6102c49250803d106102cb575b6102bc818361106c565b810190611154565b3880610115565b503d6102b2565b6040513d88823e3d90fd5b6102f49150863d88116102cb576102bc818361106c565b386100e5565b6040513d8a823e3d90fd5b80fd5b50346103055780600319360112610305576040517f00000000000000000000000000000000000000000000000000000000000000006001600160a01b03168152602090f35b50346103055760203660031901126103055760406103a991600435815280602052206103788161108e565b9060ff6103876001830161108e565b6103b7600360028501549401549160405196879660e0885260e0880190610fac565b908682036020880152610fac565b92604085015281811615156060850152818160081c1615156080850152818160101c1660a085015260181c16151560c08301520390f35b503461030557602036600319011261030557610418604061042c926004358152806020522061108e565b604051918291602083526020830190610fac565b0390f35b5034610305576020806003193601126105525760408260e09360c0835161045681611050565b6060815260608682015282858201528260608201528260808201528260a082015201526004358152808352206040519161048f83611050565b6104988261108e565b835260ff6104a86001840161108e565b9180850192835260036002850154946040870195865201549260608601838516151581526105286080880192858760081c161515845261051560a08a0195878960101c1687528760c08c019960181c16151589526040519b8c9b828d5251918c01526101008b0190610fac565b9051898203601f190160408b0152610fac565b95516060880152511515608087015251151560a0860152511660c084015251151560e08301520390f35b5080fd5b50346103055760403660031901126103055767ffffffffffffffff6004356024803583811161075c5761058d903690600401610f79565b604051632db25e0560e01b80825260048201869052919592936001600160a01b037f0000000000000000000000000000000000000000000000000000000000000000811693919261022092919083818681895afa80156109a157610140918c91610984575b5001511633036109405760405190815286600482015281818481875afa908115610935576101c0928a92610918575b505001516015811015610905576006036108af5785156108765784875260209287845260ff600360408a2001541661083d578588528784526040882090871161082a579081610671899354610fec565b601f81116107dd575b508783601f821160011461077857849161076d575b508860011b906000198a60031b1c19161790555b85825281845260408220600301805460ff19166001179055823b1561055257600760448392836040519687948593633a1b3d3160e01b85528c60048601528401525af1918215610760578692610745575b50507f63149911db316f829a231b8a15319e7c3955ae2dc560e0f9a964d69ba0be2dbd928160405193808552840152604083013784604085830101526040813395601f80199101168101030190a380f35b610750919250611026565b61075c578385386106f4565b8480fd5b50604051903d90823e3d90fd5b90508601353861068f565b828552868520915089601f198116865b898282106107c1575050106107a7575b5050600188811b0190556106a3565b87013560001960038b901b60f8161c191690553880610798565b8b85013586558e9850600190950194938401938d935001610788565b9080929352848920601f890160051c810191868a10610820575b90601f8b959493920160051c01905b818110610813575061067a565b9384558993600101610806565b90915081906107f7565b50634e487b7160e01b8752604160045286fd5b60405162461bcd60e51b81526004810185905260128184015271109bd308185b1c9958591e481a5cdcdd595960721b6044820152606490fd5b60649060126040519162461bcd60e51b8352602060048401528201527112541194c81a185cda081c995c5d5a5c995960721b6044820152fd5b60849060296040519162461bcd60e51b8352602060048401528201527f5472616465206d75737420626520696e205348495050494e475f41535349474e60448201526845442073746174757360b81b6064820152fd5b50634e487b7160e01b8752602160045286fd5b61092e9250803d106102cb576102bc818361106c565b3880610621565b6040513d8b823e3d90fd5b60405162461bcd60e51b815260206004820152601e818501527f4f6e6c792061737369676e6564207368697070696e6720636f6d70616e7900006044820152606490fd5b61099b9150853d87116102cb576102bc818361106c565b386105f2565b6040513d8d823e3d90fd5b905034610552576080366003190112610552576024359060ff821682036101da5767ffffffffffffffff9060643582811161075c576109ef903690600401610f79565b632db25e0560e01b808452600480359085015291936001600160a01b039390926102209182816024817f00000000000000000000000000000000000000000000000000000000000000008a165afa8015610935576101808791610a5d938c916102dd5750015116331461127d565b60405190815260043560048201528181602481887f0000000000000000000000000000000000000000000000000000000000000000165afa9081156102fa576101c0928992610f5c575b505001516015811015610f4857600703610f0b5785936004358552846020526040852092600384015462ff00008860101b169062ff0000191617600385015582610dc3575b50505060ff8416610bd457600301805461ff0019166101001790557f000000000000000000000000000000000000000000000000000000000000000081163b1561055257818091604460405180948193633a1b3d3160e01b83526004356004840152600860248401527f0000000000000000000000000000000000000000000000000000000000000000165af180156101de57610bc0575b50505b604051604435815260ff339216907fcdd6329e1a077a40150be3254c6571018460655bddbafb9c090bb3a7bc538126602060043592a480f35b610bc990611026565b610552578138610b84565b915060ff8316600103610ce15760443515610c8b5783916002604435910155807f0000000000000000000000000000000000000000000000000000000000000000163b1561055257818091604460405180948193633a1b3d3160e01b83526004356004840152600960248401527f0000000000000000000000000000000000000000000000000000000000000000165af180156101de57610c77575b5050610b87565b610c8090611026565b610552578138610c70565b60405162461bcd60e51b815260206004820152602860248201527f54617820616d6f756e74206d757374206265203e203020666f7220666c616767604482015267656420676f6f647360c01b6064820152608490fd5b9050600260ff8394931614600014610d8657807f0000000000000000000000000000000000000000000000000000000000000000163b1561055257818091604460405180948193633a1b3d3160e01b83526004356004840152600a60248401527f0000000000000000000000000000000000000000000000000000000000000000165af180156101de57610d77575b5090610b87565b610d8090611026565b38610d70565b60405162461bcd60e51b8152602060048201526015602482015274496e76616c6964206465636973696f6e20636f646560581b6044820152606490fd5b9091809394955011610ef757908291610de160018896950154610fec565b601f8111610ea2575b508490601f8311600114610e2c5785919083610e21575b50508160011b916000199060031b1c19161760018201555b388080610aec565b013590503880610e01565b6001849392969594018552602085209085965b601f1984168810610e87576001949596975083601f19811610610e6d575b505050811b016001820155610e19565b0135600019600384901b60f8161c19169055388080610e5d565b8181013583556020978801978a975060019093019201610e3f565b90919293945060018401875260208720601f840160051c810160208510610ef0575b90889695949392915b601f830160051c82018110610ee3575050610dea565b9687558896600101610ecd565b5080610ec4565b634e487b7160e01b86526041600452602486fd5b60405162461bcd60e51b815260206004820152601560248201527411dbdbd91cc81b9bdd081e595d081cda1a5c1c1959605a1b6044820152606490fd5b634e487b7160e01b87526021600452602487fd5b610f729250803d106102cb576102bc818361106c565b3880610aa7565b9181601f84011215610fa75782359167ffffffffffffffff8311610fa75760208381860195010111610fa757565b600080fd5b919082519283825260005b848110610fd8575050826000602080949584010152601f8019910116010190565b602081830181015184830182015201610fb7565b90600182811c9216801561101c575b602083101461100657565b634e487b7160e01b600052602260045260246000fd5b91607f1691610ffb565b67ffffffffffffffff811161103a57604052565b634e487b7160e01b600052604160045260246000fd5b60e0810190811067ffffffffffffffff82111761103a57604052565b90601f8019910116810190811067ffffffffffffffff82111761103a57604052565b906040519182600082546110a181610fec565b9081845260209460019160018116908160001461111157506001146110d2575b5050506110d09250038361106c565b565b600090815285812095935091905b8183106110f95750506110d093508201013880806110c1565b855488840185015294850194879450918301916110e0565b925050506110d094925060ff191682840152151560051b8201013880806110c1565b51906001600160a01b0382168203610fa757565b51908115158203610fa757565b80916102209283910312610fa75760405191820182811067ffffffffffffffff82111761103a57604052805182526020810151602083015260408101516040830152606081015160608301526080810151608083015260a081015160a08301526111c060c08201611133565b60c08301526111d160e08201611133565b60e08301526101006111e4818301611133565b908301526101206111f6818301611133565b90830152610140611208818301611133565b9083015261016061121a818301611133565b9083015261018061122c818301611133565b908301526101a061123e818301611133565b908301526101c080820151906015821015610fa7578301526101e0611264818301611147565b90830152611276610200809201611147565b9082015290565b1561128457565b60405162461bcd60e51b815260206004820152601b60248201527f4f6e6c7920437573746f6d20262054617820417574686f7269747900000000006044820152606490fdfea2646970667358221220e53f00363bd97b8f92e6457554b4b1188f736dc98c944c9febd8982862fd6b6a64736f6c63430008180033",
  "linkReferences": {},
  "deployedLinkReferences": {}
}