{
  "_format": "hh-sol-artifact-1",
  "contractName": "DocumentVerification",
  "sourceName": "contracts/DocumentVerification.sol",
  "abi": [
    {
      "inputs": [
        {
          "internalType": "address",
          "name": "_tradeRegistry",
          "type": "address"
        }
      ],
      "stateMutability": "nonpayable",
      "type": "constructor"
    },
    {
      "anonymous": false,
      "inputs": [
        {
          "indexed": true,
          "internalType": "uint256",
          "name": "tradeId",
          "type": "uint256"
        },
        {
          "indexed": false,
          "internalType": "string",
          "name": "ipfsHash",
          "type": "string"
        },
        {
          "indexed": true,
          "internalType": "address",
          "name": "issuedBy",
          "type": "address"
        }
      ],
      "name": "BillOfLadingIssued",
      "type": "event"
    },
    {
      "anonymous": false,
      "inputs": [
        {
          "indexed": true,
          "internalType": "uint256",
          "name": "tradeId",
          "type": "uint256"
        },
        {
          "indexed": true,
          "internalType": "uint8",
          "name": "decision",
          "type": "uint8"
        },
        {
          "indexed": false,
          "internalType": "uint256",
          "name": "taxAmount",
          "type": "uint256"
        },
        {
          "indexed": true,
          "internalType": "address",
          "name": "decidedBy",
          "type": "address"
        }
      ],
      "name": "CustomsDecisionMade",
      "type": "event"
    },
    {
      "anonymous": false,
      "inputs": [
        {
          "indexed": true,
          "internalType": "uint256",
          "name": "tradeId",
          "type": "uint256"
        },
        {
          "indexed": true,
          "internalType": "uint256",
          "name": "taxAmount",
          "type": "uint256"
        },
        {
          "indexed": true,
          "internalType": "address",
          "name": "releasedBy",
          "type": "address"
        }
      ],
      "name": "TaxPaidAndGoodsReleased",
      "type": "event"
    },
    {
      "inputs": [
        {
          "internalType": "uint256",
          "name": "tradeId",
          "type": "uint256"
        }
      ],
      "name": "getBolIpfsHash",
      "outputs": [
        {
          "internalType": "string",
          "name": "",
          "type": "string"
        }
      ],
      "stateMutability": "view",
      "type": "function"
    },
    {
      "inputs": [
        {
          "internalType": "uint256",
          "name": "tradeId",
          "type": "uint256"
        }
      ],
      "name": "getVerification",
      "outputs": [
        {
          "components": [
            {
              "internalType": "string",
              "name": "bolIpfsHash",
              "type": "string"
            },
            {
              "internalType": "string",
              "name": "customsCertIpfsHash",
              "type": "string"
            },
            {
              "internalType": "uint256",
              "name": "taxAmount",
              "type": "uint256"
            },
            {
              "internalType": "bool",
              "name": "bolIssued",
              "type": "bool"
            },
            {
              "internalType": "bool",
              "name": "customsCleared",
              "type": "bool"
            },
            {
              "internalType": "uint8",
              "name": "customsDecision",
              "type": "uint8"
            },
            {
              "internalType": "bool",
              "name": "taxPaid",
              "type": "bool"
            }
          ],
          "internalType": "struct DocumentVerification.VerificationState",
          "name": "",
          "type": "tuple"
        }
      ],
      "stateMutability": "view",
      "type": "function"
    },
    {
      "inputs": [
        {
          "internalType": "uint256",
          "name": "tradeId",
          "type": "uint256"
        },
        {
          "internalType": "string",
          "name": "ipfsHash",
          "type": "string"
        }
      ],
      "name": "issueBillOfLading",
      "outputs": [],
      "stateMutability": "nonpayable",
      "type": "function"
    },
    {
      "inputs": [
        {
          "internalType": "uint256",
          "name": "tradeId",
          "type": "uint256"
        }
      ],
      "name": "payTaxAndRelease",
      "outputs": [],
      "stateMutability": "nonpayable",
      "type": "function"
    },
    {
      "inputs": [],
      "name": "tradeRegistry",
      "outputs": [
        {
          "internalType": "contract TradeRegistry",
          "name": "",
          "type": "address"
        }
      ],
      "stateMutability": "view",
      "type": "function"
    },
    {
      "inputs": [
        {
          "internalType": "uint256",
          "name": "",
          "type": "uint256"
        }
      ],
      "name": "verifications",
      "outputs": [
        {
          "internalType": "string",
          "name": "bolIpfsHash",
          "type": "string"
        },
        {
          "internalType": "string",
          "name": "customsCertIpfsHash",
          "type": "string"
        },
        {
          "internalType": "uint256",
          "name": "taxAmount",
          "type": "uint256"
        },
        {
          "internalType": "bool",
          "name": "bolIssued",
          "type": "bool"
        },
        {
          "internalType": "bool",
          "name": "customsCleared",
          "type": "bool"
        },
        {
          "internalType": "uint8",
          "name": "customsDecision",
          "type": "uint8"
        },
        {
          "internalType": "bool",
          "name": "taxPaid",
          "type": "bool"
        }
      ],
      "stateMutability": "view",
      "type": "function"
    },
    {
      "inputs": [
        {
          "internalType": "uint256",
          "name": "tradeId",
          "type": "uint256"
        },
        {
          "internalType": "uint8",
          "name": "decision",
          "type": "uint8"
        },
        {
          "internalType": "uint256",
          "name": "taxAmount",
          "type": "uint256"
        },
        {
          "internalType": "string",
          "name": "certIpfsHash",
          "type": "string"
        }
      ],
      "name": "verifyAsCustoms",
      "outputs": [],
      "stateMutability": "nonpayable",
      "type": "function"
    }
  ],
  "bytecode": "0x60a0346100b157601f6113e938819003918201601f19168301916001600160401b038311848410176100b6578084926020946040528339810103126100b157516001600160a01b038116908190036100b15760805260405161131c90816100cd8239608051818181609d0152818161031a015281816105a9015281816109fe01528181610a6c01528181610b4401528181610b9801528181610bf201528181610c4601528181610ce50152610d370152f35b600080fd5b634e487b7160e01b600052604160045260246000fdfe6080604052600436101561001257600080fd5b6000803560e01c8063345a83fa1461099f5780633eb3da481461055257806358937cc81461042c5780638dd62219146103ea578063b90b0a1014610349578063dbd97308146103045763ea8324e31461006a57600080fd5b346101d65760203660031901126101d657604051632db25e0560e01b808252600480359083018190526001600160a01b037f000000000000000000000000000000000000000000000000000000000000000081169493602493610220929091838187818b5afa9081156102f9576100f292916101809189916102dc575b50015116331461129a565b60405190815282600482015281818581895afa9182156102d157906101c0929186926102a4575b5050015160158110156102915760090361025957808352826020526040832091600283015492831561021f576003019485549560ff8760181c166101e8576301000100869763ff00ff001916179055604051933390847fb2f3804492a73e4cd995d51a482a4e90a4919f22255ee0441319bdea08733acb8880a4803b156101e4578385604492600883958397633a1b3d3160e01b865260048601528401525af180156101d9576101c65750f35b6101cf90611043565b6101d65780f35b80fd5b6040513d84823e3d90fd5b8480fd5b60405162461bcd60e51b8152602060048201526010818501526f15185e08185b1c9958591e481c185a5960821b6044820152606490fd5b60405162461bcd60e51b81526020600482015260138184015272139bc81d185e081dd85cc8185cdcd95cdcd959606a1b6044820152606490fd5b60405162461bcd60e51b81526020600482015260118184015270151c985919481b9bdd08199b1859d9d959607a1b6044820152606490fd5b634e487b7160e01b845260216004528284fd5b6102c39250803d106102ca575b6102bb8183611089565b810190611171565b3880610119565b503d6102b1565b6040513d87823e3d90fd5b6102f39150863d88116102ca576102bb8183611089565b386100e7565b6040513d89823e3d90fd5b50346101d657806003193601126101d6576040517f00000000000000000000000000000000000000000000000000000000000000006001600160a01b03168152602090f35b50346101d65760203660031901126101d65760406103a59160043581528060205220610374816110ab565b9060ff610383600183016110ab565b6103b3600360028501549401549160405196879660e0885260e0880190610fc9565b908682036020880152610fc9565b92604085015281811615156060850152818160081c1615156080850152818160101c1660a085015260181c16151560c08301520390f35b50346101d65760203660031901126101d657610414604061042892600435815280602052206110ab565b604051918291602083526020830190610fc9565b0390f35b50346101d65760208060031936011261054e5760408260e09360c083516104528161106d565b6060815260608682015282858201528260608201528260808201528260a082015201526004358152808352206040519161048b8361106d565b610494826110ab565b835260ff6104a4600184016110ab565b9180850192835260036002850154946040870195865201549260608601838516151581526105246080880192858760081c161515845261051160a08a0195878960101c1687528760c08c019960181c16151589526040519b8c9b828d5251918c01526101008b0190610fc9565b9051898203601f190160408b0152610fc9565b95516060880152511515608087015251151560a0860152511660c084015251151560e08301520390f35b5080fd5b50346101d65760403660031901126101d65767ffffffffffffffff906024600435813584811161099b5761058a903690600401610f96565b604051632db25e0560e01b808252600482018590526001600160a01b037f00000000000000000000000000000000000000000000000000000000000000008116969492610220929190838188818c5afa9081156109905790610140918b91610973575b50015116330361092f57604051908152856004820152818186818a5afa91821561092457906101c092918992610907575b5050015160158110156108f45760060361089e5781156108655783865260209686885260ff60036040892001541661082c57848752868852604087209083116108195761066b8154611009565b601f81116107d6575b5086601f841160011461074f57978386937f63149911db316f829a231b8a15319e7c3955ae2dc560e0f9a964d69ba0be2dbd93828b9c8c91610744575b508360011b906000198560031b1c19161790555b848a52898352600360408b2001600160ff198254161790558160405193808552840152604083013787604085830101526040813395601f80199101168101030190a3823b1561073f5760448492836007956040519687958694633a1b3d3160e01b865260048601528401525af180156101d9576101c65750f35b505050fd5b9050820135386106b1565b81885288882090601f198516895b8181106107bf5750937f63149911db316f829a231b8a15319e7c3955ae2dc560e0f9a964d69ba0be2dbd938a9b938793848b98106107a5575b5050600183811b0190556106c5565b830135600019600386901b60f8161c191690553880610796565b91928b60018192868901358155019401920161075d565b818852888820601f850160051c8101918a861061080f575b601f0160051c01905b8181106108045750610674565b8881556001016107f7565b90915081906107ee565b634e487b7160e01b875260416004528387fd5b60405162461bcd60e51b81526004810189905260128186015271109bd308185b1c9958591e481a5cdcdd595960721b6044820152606490fd5b60405162461bcd60e51b8152602060048201526012818501527112541194c81a185cda081c995c5d5a5c995960721b6044820152606490fd5b60405162461bcd60e51b8152602060048201526029818501527f5472616465206d75737420626520696e205348495050494e475f41535349474e60448201526845442073746174757360b81b6064820152608490fd5b634e487b7160e01b875260216004528387fd5b61091d9250803d106102ca576102bb8183611089565b388061061e565b6040513d8a823e3d90fd5b60405162461bcd60e51b815260206004820152601e818701527f4f6e6c792061737369676e6564207368697070696e6720636f6d70616e7900006044820152606490fd5b61098a9150853d87116102ca576102bb8183611089565b386105ed565b6040513d8c823e3d90fd5b8380fd5b50346101d65760803660031901126101d65760ff60243516602435036101d65760643567ffffffffffffffff811161054e576109df903690600401610f96565b632db25e0560e01b6080908152600435608452919291610220906024817f00000000000000000000000000000000000000000000000000000000000000006001600160a01b03165afa80156101d9578290610f5e575b6101800151610a4e906001600160a01b0316331461129a565b604051632db25e0560e01b81526004803590820152610220816024817f00000000000000000000000000000000000000000000000000000000000000006001600160a01b03165afa908115610f5357906101c0918491610f32575b5001516015811015610f1e57600703610ee157600435825260208290526040822060038101805462ff0000191660243560101b62ff0000161790559080610db8575b509091506040516044358152339060ff60243516907fcdd6329e1a077a40150be3254c6571018460655bddbafb9c090bb3a7bc538126602060043592a460243560ff16610bd157600301805461ff0019166101001790557f00000000000000000000000000000000000000000000000000000000000000006001600160a01b03163b156101d657604051633a1b3d3160e01b815260048035908201526008602482015281908181604481837f00000000000000000000000000000000000000000000000000000000000000006001600160a01b03165af180156101d9576101c657505080f35b60243560ff16600103610cd55760443515610c7f57604435600291909101557f00000000000000000000000000000000000000000000000000000000000000006001600160a01b03163b156101d657604051633a1b3d3160e01b815260048035908201526009602482015281908181604481837f00000000000000000000000000000000000000000000000000000000000000006001600160a01b03165af180156101d9576101c657505080f35b60405162461bcd60e51b815260206004820152602860248201527f54617820616d6f756e74206d757374206265203e203020666f7220666c616767604482015267656420676f6f647360c01b6064820152608490fd5b5060243560ff16600203610d7b577f00000000000000000000000000000000000000000000000000000000000000006001600160a01b03163b156101d657604051633a1b3d3160e01b81526004803590820152600a60248201528181604481837f00000000000000000000000000000000000000000000000000000000000000006001600160a01b03165af180156101d957610d6f575080f35b610d7890611043565b80f35b60405162461bcd60e51b8152602060048201526015602482015274496e76616c6964206465636973696f6e20636f646560581b6044820152606490fd5b67ffffffffffffffff8111610ecd57610dd46001830154611009565b601f8111610e89575b5082601f8211600114610e2057839482939492610e15575b50508160011b916000199060031b1c19161760018201555b819038610aeb565b013590503880610df5565b601f198216946001840185526020852091855b878110610e71575083600195969710610e57575b505050811b016001820155610e0d565b0135600019600384901b60f8161c19169055388080610e47565b90926020600181928686013581550194019101610e33565b60018301845260208420601f830160051c810160208410610ec6575b601f830160051c82018110610ebb575050610ddd565b858155600101610ea5565b5080610ea5565b634e487b7160e01b83526041600452602483fd5b60405162461bcd60e51b815260206004820152601560248201527411dbdbd91cc81b9bdd081e595d081cda1a5c1c1959605a1b6044820152606490fd5b634e487b7160e01b83526021600452602483fd5b610f4d91506102203d610220116102ca576102bb8183611089565b38610aa9565b6040513d85823e3d90fd5b506102203d61022011610f8f575b610f8881610f7e610a4e936080611089565b6080016080611171565b9050610a35565b503d610f6c565b9181601f84011215610fc45782359167ffffffffffffffff8311610fc45760208381860195010111610fc457565b600080fd5b919082519283825260005b848110610ff5575050826000602080949584010152601f8019910116010190565b602081830181015184830182015201610fd4565b90600182811c92168015611039575b602083101461102357565b634e487b7160e01b600052602260045260246000fd5b91607f1691611018565b67ffffffffffffffff811161105757604052565b634e487b7160e01b600052604160045260246000fd5b60e0810190811067ffffffffffffffff82111761105757604052565b90601f8019910116810190811067ffffffffffffffff82111761105757604052565b906040519182600082546110be81611009565b9081845260209460019160018116908160001461112e57506001146110ef575b5050506110ed92500383611089565b565b600090815285812095935091905b8183106111165750506110ed93508201013880806110de565b855488840185015294850194879450918301916110fd565b925050506110ed94925060ff191682840152151560051b8201013880806110de565b51906001600160a01b0382168203610fc457565b51908115158203610fc457565b80916102209283910312610fc45760405191820182811067ffffffffffffffff82111761105757604052805182526020810151602083015260408101516040830152606081015160608301526080810151608083015260a081015160a08301526111dd60c08201611150565b60c08301526111ee60e08201611150565b60e0830152610100611201818301611150565b90830152610120611213818301611150565b90830152610140611225818301611150565b90830152610160611237818301611150565b90830152610180611249818301611150565b908301526101a061125b818301611150565b908301526101c080820151906015821015610fc4578301526101e0611281818301611164565b90830152611293610200809201611164565b9082015290565b156112a157565b60405162461bcd60e51b815260206004820152601b60248201527f4f6e6c7920437573746f6d20262054617820417574686f7269747900000000006044820152606490fdfea26469706673582212209961cfffe10854d295d78b273cbbf4a371cfa0f3e755793cc440faa5c3bd022564736f6c63430008180033",
  "linkReferences": {},
  "deployedLinkReferences": {}
}