{"contracts/PaymentSettlement.sol":{"PaymentSettlement":{"abi":[{"inputs":[{"internalType":"address","name":"_tradeRegistry","type":"address"}],"stateMutability":"nonpayable","type":"constructor"},{"anonymous":false,"inputs":[{"indexed":true,"internalType":"uint256","name":"tradeId","type":"uint256"},{"indexed":false,"internalType":"uint256","name":"amount","type":"uint256"}],"name":"FundsLocked","type":"event"},{"anonymous":false,"inputs":[{"indexed":true,"internalType":"uint256","name":"tradeId","type":"uint256"},{"indexed":false,"internalType":"address","name":"to","type":"address"},{"indexed":false,"internalType":"uint256","name":"amount","type":"uint256"}],"name":"FundsRefunded","type":"event"},{"anonymous":false,"inputs":[{"indexed":true,"internalType":"uint256","name":"tradeId","type":"uint256"},{"indexed":false,"internalType":"address","name":"to","type":"address"},{"indexed":false,"internalType":"uint256","name":"amount","type":"uint256"}],"name":"InsurancePayout","type":"event"},{"anonymous":false,"inputs":[{"indexed":true,"internalType":"uint256","name":"tradeId","type":"uint256"},{"indexed":false,"internalType":"uint256","name":"amount","type":"uint256"},{"indexed":false,"internalType":"address","name":"authorizedBy","type":"address"}],"name":"PaymentAuthorized","type":"event"},{"anonymous":false,"inputs":[{"indexed":true,"internalType":"uint256","name":"tradeId","type":"uint256"},{"indexed":false,"internalType":"address","name":"confirmedBy","type":"address"}],"name":"SettlementConfirmed","type":"event"},{"anonymous":false,"inputs":[{"indexed":true,"internalType":"uint256","name":"tradeId","type":"uint256"}],"name":"TradeCompleted","type":"event"},{"inputs":[{"internalType":"uint256","name":"_tradeId","type":"uint256"}],"name":"authorizePayment","outputs":[],"stateMutability":"nonpayable","type":"function"},{"inputs":[{"internalType":"uint256","name":"_tradeId","type":"uint256"}],"name":"confirmSettlement","outputs":[],"stateMutability":"nonpayable","type":"function"},{"inputs":[{"internalType":"uint256","name":"_tradeId","type":"uint256"}],"name":"depositEscrow","outputs":[],"stateMutability":"payable","type":"function"},{"inputs":[{"internalType":"uint256","name":"_tradeId","type":"uint256"}],"name":"getSettlement","outputs":[{"components":[{"internalType":"uint256","name":"tradeId","type":"uint256"},{"internalType":"uint256","name":"amount","type":"uint256"},{"internalType":"bool","name":"fundsLocked","type":"bool"},{"internalType":"bool","name":"paymentAuthorized","type":"bool"},{"internalType":"bool","name":"settlementConfirmed","type":"bool"},{"internalType":"bool","name":"refunded","type":"bool"},{"internalType":"uint256","name":"authorizedAt","type":"uint256"},{"internalType":"uint256","name":"confirmedAt","type":"uint256"}],"internalType":"struct PaymentSettlement.Settlement","name":"","type":"tuple"}],"stateMutability":"view","type":"function"},{"inputs":[{"internalType":"uint256","name":"_tradeId","type":"uint256"}],"name":"payoutInsurance","outputs":[],"stateMutability":"nonpayable","type":"function"},{"inputs":[{"internalType":"uint256","name":"_tradeId","type":"uint256"}],"name":"refundImporter","outputs":[],"stateMutability":"nonpayable","type":"function"},{"inputs":[{"internalType":"uint256","name":"","type":"uint256"}],"name":"settlements","outputs":[{"internalType":"uint256","name":"tradeId","type":"uint256"},{"internalType":"uint256","name":"amount","type":"uint256"},{"internalType":"bool","name":"fundsLocked","type":"bool"},{"internalType":"bool","name":"paymentAuthorized","type":"bool"},{"internalType":"bool","name":"settlementConfirmed","type":"bool"},{"internalType":"bool","name":"refunded","type":"bool"},{"internalType":"uint256","name":"authorizedAt","type":"uint256"},{"internalType":"uint256","name":"confirmedAt","type":"uint256"}],"stateMutability":"view","type":"function"},{"inputs":[],"name":"tradeRegistry","outputs":[{"internalType":"contract TradeRegistry","name":"","type":"address"}],"stateMutability":"view","type":"function"}],"evm":{"bytecode":{"linkReferences":{},"object":"60803461007457601f61107738819003918201601f19168301916001600160401b038311848410176100795780849260209460405283398101031261007457516001600160a01b0381169081900361007457600080546001600160a01b031916919091179055604051610fe790816100908239f35b600080fd5b634e487b7160e01b600052604160045260246000fdfe608060408181526004918236101561001657600080fd5b600092833560e01c91826308df7dc814610cf2575081630c842ad314610b4e5781633ecfd08d1461097d5781634c5823801461087857816381a03133146106365781639e924eb5146102e2578163cb991efe146100a7575063dbd973081461007d57600080fd5b346100a357816003193601126100a357905490516001600160a01b039091168152602090f35b5080fd5b91905060203660031901126101ec5782548151632db25e0560e01b80825284358286018190529460249390926001600160a01b03926102009284169183818881865afa908a82156102d757606086949361010e938993916102ba575b500151163314610f5b565b8688518094819382528b898301525afa9182156102b0578892610283575b5050610160810151340361024957610120015160128110156102375782036101fe5790859291858452600160205284842060028101600160ff1982541617905560013491015583541690813b156101fa5760448691858094600589519788968795633a1b3d3160e01b87528601528401525af180156101f0576101d8575b505060207fbedc4e5ac6876307c4b4b5761039aa2ebce89052490a34e15cc655d9142ba0dc9151348152a280f35b6101e190610da3565b6101ec5782386101aa565b8280fd5b83513d84823e3d90fd5b8380fd5b506014606492602085519362461bcd60e51b855284015282015273131bd0c81b9bdd08185c1c1c9bdd9959081e595d60621b6044820152fd5b634e487b7160e01b8752602183528387fd5b845162461bcd60e51b815260208185015260158186015274125b98dbdc9c9958dd08185b5bdd5b9d081cd95b9d605a1b6044820152606490fd5b6102a29250803d106102a9575b61029a8183610db7565b810190610dff565b388061012c565b503d610290565b86513d8a823e3d90fd5b6102d19150863d88116102a95761029a8183610db7565b38610103565b8951903d90823e3d90fd5b8383346100a3576020806003193601126101ec5782548251632db25e0560e01b80825286358288018190526001600160a01b0397909593602493919261020092918a169183818781865afa90811561062c578b916080918c9161060f575b5001511633036105c25782908587518094819382528b888301525afa9182156105b857906101209291899261059b575b50500151601281101561058957600b03610549578486526001845282862096600288019788549860ff8a60081c16156105095760ff8a60101c166104c75762010000899a62ff00009a999a191617905582429101558086541694853b156104c357868089976044885180948193633a1b3d3160e01b9c8d84528a840152600c8b8401525af180156102b05789929189916104aa575b50507fa1d0a1fdd38ed06d2aa307534e95eb980aee48ff8deee42d7babd1f6df8eb865908651338152a2855416803b156104a657869486604492600d82968851998a97889687528601528401525af190811561049d5750610489575b50807f60f91a26281f20fb528663f4da55773c83e2ee8a7a5dddb6d1753749e81dc49b91a280f35b61049290610da3565b6100a3578183610461565b513d84823e3d90fd5b8580fd5b6104b691929350610da3565b6104c3578790878b610405565b8680fd5b855162461bcd60e51b8152808501889052601c818701527f536574746c656d656e7420616c726561647920636f6e6669726d6564000000006044820152606490fd5b6064848887818a519362461bcd60e51b85528401528201527f5061796d656e74206e6f7420617574686f72697a6564206f6e207265636f72646044820152fd5b601a6064928585519362461bcd60e51b85528401528201527f5061796d656e74206e6f742079657420617574686f72697a65640000000000006044820152fd5b50634e487b7160e01b86526021905284fd5b6105b19250803d106102a95761029a8183610db7565b8980610370565b85513d8a823e3d90fd5b855162461bcd60e51b81528085018890526022818701527f4f6e6c79206164766973696e672062616e6b20286578706f727465722062616e6044820152616b2960f01b6064820152608490fd5b6106269150863d88116102a95761029a8183610db7565b8d610340565b87513d8c823e3d90fd5b919050346101ec5760203660031901126101ec5782548151632db25e0560e01b8082528435828601819052946102009360249391926001600160a01b03929183169186818781865afa908a82156102d75760608994936106a2938893916102ba57500151163314610f5b565b8588518094819382528b888301525afa9485156102b0578895610859575b50506101208401516012811015610847576008036108055785875260016020528487206002810180549560ff8760081c166107c357888355610160018051600184015561ff001990961661010017905542600390910155865487929116803b156101ec57869183604492600b89519788968795633a1b3d3160e01b87528601528401525af180156107b957610784575b50907ff506ea28cde1c7e7f1613d8385c5f1dc792cfc6757f3601542d1fee26a905a1d91518151908152336020820152a280f35b936107b17ff506ea28cde1c7e7f1613d8385c5f1dc792cfc6757f3601542d1fee26a905a1d939295610da3565b939091610750565b83513d87823e3d90fd5b875162461bcd60e51b8152602081870152601a818801527f5061796d656e7420616c726561647920617574686f72697a65640000000000006044820152606490fd5b50601d606492602086519362461bcd60e51b85528401528201527f437573746f6d73206d75737420626520636c65617265642066697273740000006044820152fd5b634e487b7160e01b8852602183528388fd5b610870929550803d106102a95761029a8183610db7565b9238806106c0565b919050346101ec5760203660031901126101ec5780836101009460e0835161089f81610d70565b82815282602082015282858201528260608201528260808201528260a08201528260c08201520152833581526001602052208151916108dd83610d70565b81549384845260018301546020850190815260028401549280860160ff851615158152606087019260ff8660081c161515845260e0608089019560ff8860101c161515875260ff60a08b019860181c161515885260038901549860c08b01998a52015498019788528251988952516020890152511515908701525115156060860152511515608085015251151560a08401525160c08301525160e0820152f35b9050346101ec5760203660031901126101ec5782548251632db25e0560e01b8152823581840181905292610200926001600160a01b03929084908290602490829087165afa938415610b44578794610b25575b50506101208301516012811015610b1257601003610ad6578386526001602052848620906002820190815490610a0860ff8316610f1d565b60ff8260181c16610aa0575091600191630100000060609463ff00000019161790550192868454945501858080808686865116828215610a97575bf115610a8d5751935193166001600160a01b031683526020830152907f80b577b4fc190ab86d963549e29f496afd079c5d81a2480d61217d4b5060a28c9080604081015b0390a280f35b84513d87823e3d90fd5b506108fc610a43565b606490602089519162461bcd60e51b8352820152601060248201526f105b1c9958591e481c99599d5b99195960821b6044820152fd5b606490602086519162461bcd60e51b835282015260166024820152754e6f7420696e2072657665727465642073746174757360501b6044820152fd5b634e487b7160e01b875260218252602487fd5b610b3c929450803d106102a95761029a8183610db7565b9138806109d0565b86513d89823e3d90fd5b9050346101ec5760203660031901126101ec5782548251632db25e0560e01b8152823581840181905292610200926001600160a01b03929084908290602490829087165afa938415610b44578794610cd3575b50506101208301516012811015610b1257601103610c9b578386526001602052848620906002820190815490610bd960ff8316610f1d565b60ff8260181c16610c645750916001916301000000889463ff00000019161790550192868454945501858080808686865116828215610c5b575bf115610a8d5751935193166001600160a01b031683526020830152907f32fb06330903205d582db19821ddcb0e33f74a084f9fd8c2d876719b56100e89908060408101610a87565b506108fc610c13565b606490602089519162461bcd60e51b83528201526011602482015270105b1c9958591e481c1c9bd8d95cdcd959607a1b6044820152fd5b606490602086519162461bcd60e51b8352820152601260248201527110db185a5b481b9bdd08185c1c1c9bdd995960721b6044820152fd5b610cea929450803d106102a95761029a8183610db7565b913880610ba1565b929150346101fa5760203660031901126101fa5760ff82610100958335815260016020522091825493600184015460028501549260038601549501549587526020870152828216151590860152818160081c1615156060860152818160101c161515608086015260181c16151560a084015260c083015260e0820152f35b610100810190811067ffffffffffffffff821117610d8d57604052565b634e487b7160e01b600052604160045260246000fd5b67ffffffffffffffff8111610d8d57604052565b90601f8019910116810190811067ffffffffffffffff821117610d8d57604052565b51906001600160a01b0382168203610ded57565b600080fd5b51908115158203610ded57565b80916102009283910312610ded5760405191820182811067ffffffffffffffff821117610d8d5760405280518252610e3960208201610dd9565b6020830152610e4a60408201610dd9565b6040830152610e5b60608201610dd9565b6060830152610e6c60808201610dd9565b6080830152610e7d60a08201610dd9565b60a0830152610e8e60c08201610dd9565b60c0830152610e9f60e08201610dd9565b60e0830152610100610eb2818301610dd9565b9083015261012080820151906012821015610ded578301526101408082015190830152610160808201519083015261018080820151908301526101a080820151908301526101c0610f04818301610df2565b90830152610f166101e0809201610df2565b9082015290565b15610f2457565b60405162461bcd60e51b815260206004820152600f60248201526e139bc8199d5b991cc81b1bd8dad959608a1b6044820152606490fd5b15610f6257565b60405162461bcd60e51b815260206004820152602160248201527f4f6e6c792069737375696e672062616e6b2028696d706f727465722062616e6b6044820152602960f81b6064820152608490fdfea2646970667358221220b1e5ad015a9540c4c6944269578d5c216d0d41ade39543f47de6a2af8e00d5b864736f6c63430008180033","opcodes":"PUSH1 0x80 CALLVALUE PUSH2 0x74 JUMPI PUSH1 0x1F PUSH2 0x1077 CODESIZE DUP2 SWAP1 SUB SWAP2 DUP3 ADD PUSH1 0x1F NOT AND DUP4 ADD SWAP2 PUSH1 0x1 PUSH1 0x1 PUSH1 0x40 SHL SUB DUP4 GT DUP5 DUP5 LT OR PUSH2 0x79 JUMPI DUP1 DUP5 SWAP3 PUSH1 0x20 SWAP5 PUSH1 0x40 MSTORE DUP4 CODECOPY DUP2 ADD SUB SLT PUSH2 0x74 JUMPI MLOAD PUSH1 0x1 PUSH1 0x1 PUSH1 0xA0 SHL SUB DUP2 AND SWAP1 DUP2 SWAP1 SUB PUSH2 0x74 JUMPI PUSH1 0x0 DUP1 SLOAD PUSH1 0x1 PUSH1 0x1 PUSH1 0xA0 SHL SUB NOT AND SWAP2 SWAP1 SWAP2 OR SWAP1 SSTORE PUSH1 0x40 MLOAD PUSH2 0xFE7 SWAP1 DUP2 PUSH2 0x90 DUP3 CODECOPY RETURN JUMPDEST PUSH1 0x0 DUP1 REVERT JUMPDEST PUSH4 0x4E487B71 PUSH1 0xE0 SHL PUSH1 0x0 MSTORE PUSH1 0x41 PUSH1 0x4 MSTORE PUSH1 0x24 PUSH1 0x0 REVERT INVALID PUSH1 0x80 PUSH1 0x40 DUP2 DUP2 MSTORE PUSH1 0x4 SWAP2 DUP3 CALLDATASIZE LT ISZERO PUSH2 0x16 JUMPI PUSH1 0x0 DUP1 REVERT JUMPDEST PUSH1 0x0 SWAP3 DUP4 CALLDATALOAD PUSH1 0xE0 SHR SWAP2 DUP3 PUSH4 0x8DF7DC8 EQ PUSH2 0xCF2 JUMPI POP DUP2 PUSH4 0xC842AD3 EQ PUSH2 0xB4E JUMPI DUP2 PUSH4 0x3ECFD08D EQ PUSH2 0x97D JUMPI DUP2 PUSH4 0x4C582380 EQ PUSH2 0x878 JUMPI DUP2 PUSH4 0x81A03133 EQ PUSH2 0x636 JUMPI DUP2 PUSH4 0x9E924EB5 EQ PUSH2 0x2E2 JUMPI DUP2 PUSH4 0xCB991EFE EQ PUSH2 0xA7 JUMPI POP PUSH4 0xDBD97308 EQ PUSH2 0x7D JUMPI PUSH1 0x0 DUP1 REVERT JUMPDEST CALLVALUE PUSH2 0xA3 JUMPI DUP2 PUSH1 0x3 NOT CALLDATASIZE ADD SLT PUSH2 0xA3 JUMPI SWAP1 SLOAD SWAP1 MLOAD PUSH1 0x1 PUSH1 0x1 PUSH1 0xA0 SHL SUB SWAP1 SWAP2 AND DUP2 MSTORE PUSH1 0x20 SWAP1 RETURN JUMPDEST POP DUP1 REVERT JUMPDEST SWAP2 SWAP1 POP PUSH1 0x20 CALLDATASIZE PUSH1 0x3 NOT ADD SLT PUSH2 0x1EC JUMPI DUP3 SLOAD DUP2 MLOAD PUSH4 0x2DB25E05 PUSH1 0xE0 SHL DUP1 DUP3 MSTORE DUP5 CALLDATALOAD DUP3 DUP7 ADD DUP2 SWAP1 MSTORE SWAP5 PUSH1 0x24 SWAP4 SWAP1 SWAP3 PUSH1 0x1 PUSH1 0x1 PUSH1 0xA0 SHL SUB SWAP3 PUSH2 0x200 SWAP3 DUP5 AND SWAP2 DUP4 DUP2 DUP9 DUP2 DUP7 GAS STATICCALL SWAP1 DUP11 DUP3 ISZERO PUSH2 0x2D7 JUMPI PUSH1 0x60 DUP7 SWAP5 SWAP4 PUSH2 0x10E SWAP4 DUP10 SWAP4 SWAP2 PUSH2 0x2BA JUMPI JUMPDEST POP ADD MLOAD AND CALLER EQ PUSH2 0xF5B JUMP JUMPDEST DUP7 DUP9 MLOAD DUP1 SWAP5 DUP2 SWAP4 DUP3 MSTORE DUP12 DUP10 DUP4 ADD MSTORE GAS STATICCALL SWAP2 DUP3 ISZERO PUSH2 0x2B0 JUMPI DUP9 SWAP3 PUSH2 0x283 JUMPI JUMPDEST POP POP PUSH2 0x160 DUP2 ADD MLOAD CALLVALUE SUB PUSH2 0x249 JUMPI PUSH2 0x120 ADD MLOAD PUSH1 0x12 DUP2 LT ISZERO PUSH2 0x237 JUMPI DUP3 SUB PUSH2 0x1FE JUMPI SWAP1 DUP6 SWAP3 SWAP2 DUP6 DUP5 MSTORE PUSH1 0x1 PUSH1 0x20 MSTORE DUP5 DUP5 KECCAK256 PUSH1 0x2 DUP2 ADD PUSH1 0x1 PUSH1 0xFF NOT DUP3 SLOAD AND OR SWAP1 SSTORE PUSH1 0x1 CALLVALUE SWAP2 ADD SSTORE DUP4 SLOAD AND SWAP1 DUP2 EXTCODESIZE ISZERO PUSH2 0x1FA JUMPI PUSH1 0x44 DUP7 SWAP2 DUP6 DUP1 SWAP5 PUSH1 0x5 DUP10 MLOAD SWAP8 DUP9 SWAP7 DUP8 SWAP6 PUSH4 0x3A1B3D31 PUSH1 0xE0 SHL DUP8 MSTORE DUP7 ADD MSTORE DUP5 ADD MSTORE GAS CALL DUP1 ISZERO PUSH2 0x1F0 JUMPI PUSH2 0x1D8 JUMPI JUMPDEST POP POP PUSH1 0x20 PUSH32 0xBEDC4E5AC6876307C4B4B5761039AA2EBCE89052490A34E15CC655D9142BA0DC SWAP2 MLOAD CALLVALUE DUP2 MSTORE LOG2 DUP1 RETURN JUMPDEST PUSH2 0x1E1 SWAP1 PUSH2 0xDA3 JUMP JUMPDEST PUSH2 0x1EC JUMPI DUP3 CODESIZE PUSH2 0x1AA JUMP JUMPDEST DUP3 DUP1 REVERT JUMPDEST DUP4 MLOAD RETURNDATASIZE DUP5 DUP3 RETURNDATACOPY RETURNDATASIZE SWAP1 REVERT JUMPDEST DUP4 DUP1 REVERT JUMPDEST POP PUSH1 0x14 PUSH1 0x64 SWAP3 PUSH1 0x20 DUP6 MLOAD SWAP4 PUSH3 0x461BCD PUSH1 0xE5 SHL DUP6 MSTORE DUP5 ADD MSTORE DUP3 ADD MSTORE PUSH20 0x131BD0C81B9BDD08185C1C1C9BDD9959081E595D PUSH1 0x62 SHL PUSH1 0x44 DUP3 ADD MSTORE REVERT JUMPDEST PUSH4 0x4E487B71 PUSH1 0xE0 SHL DUP8 MSTORE PUSH1 0x21 DUP4 MSTORE DUP4 DUP8 REVERT JUMPDEST DUP5 MLOAD PUSH3 0x461BCD PUSH1 0xE5 SHL DUP2 MSTORE PUSH1 0x20 DUP2 DUP6 ADD MSTORE PUSH1 0x15 DUP2 DUP7 ADD MSTORE PUSH21 0x125B98DBDC9C9958DD08185B5BDD5B9D081CD95B9D PUSH1 0x5A SHL PUSH1 0x44 DUP3 ADD MSTORE PUSH1 0x64 SWAP1 REVERT JUMPDEST PUSH2 0x2A2 SWAP3 POP DUP1 RETURNDATASIZE LT PUSH2 0x2A9 JUMPI JUMPDEST PUSH2 0x29A DUP2 DUP4 PUSH2 0xDB7 JUMP JUMPDEST DUP2 ADD SWAP1 PUSH2 0xDFF JUMP JUMPDEST CODESIZE DUP1 PUSH2 0x12C JUMP JUMPDEST POP RETURNDATASIZE PUSH2 0x290 JUMP JUMPDEST DUP7 MLOAD RETURNDATASIZE DUP11 DUP3 RETURNDATACOPY RETURNDATASIZE SWAP1 REVERT JUMPDEST PUSH2 0x2D1 SWAP2 POP DUP7 RETURNDATASIZE DUP9 GT PUSH2 0x2A9 JUMPI PUSH2 0x29A DUP2 DUP4 PUSH2 0xDB7 JUMP JUMPDEST CODESIZE PUSH2 0x103 JUMP JUMPDEST DUP10 MLOAD SWAP1 RETURNDATASIZE SWAP1 DUP3 RETURNDATACOPY RETURNDATASIZE SWAP1 REVERT JUMPDEST DUP4 DUP4 CALLVALUE PUSH2 0xA3 JUMPI PUSH1 0x20 DUP1 PUSH1 0x3 NOT CALLDATASIZE ADD SLT PUSH2 0x1EC JUMPI DUP3 SLOAD DUP3 MLOAD PUSH4 0x2DB25E05 PUSH1 0xE0 SHL DUP1 DUP3 MSTORE DUP7 CALLDATALOAD DUP3 DUP9 ADD DUP2 SWAP1 MSTORE PUSH1 0x1 PUSH1 0x1 PUSH1 0xA0 SHL SUB SWAP8 SWAP1 SWAP6 SWAP4 PUSH1 0x24 SWAP4 SWAP2 SWAP3 PUSH2 0x200 SWAP3 SWAP2 DUP11 AND SWAP2 DUP4 DUP2 DUP8 DUP2 DUP7 GAS STATICCALL SWAP1 DUP2 ISZERO PUSH2 0x62C JUMPI DUP12 SWAP2 PUSH1 0x80 SWAP2 DUP13 SWAP2 PUSH2 0x60F JUMPI JUMPDEST POP ADD MLOAD AND CALLER SUB PUSH2 0x5C2 JUMPI DUP3 SWAP1 DUP6 DUP8 MLOAD DUP1 SWAP5 DUP2 SWAP4 DUP3 MSTORE DUP12 DUP9 DUP4 ADD MSTORE GAS STATICCALL SWAP2 DUP3 ISZERO PUSH2 0x5B8 JUMPI SWAP1 PUSH2 0x120 SWAP3 SWAP2 DUP10 SWAP3 PUSH2 0x59B JUMPI JUMPDEST POP POP ADD MLOAD PUSH1 0x12 DUP2 LT ISZERO PUSH2 0x589 JUMPI PUSH1 0xB SUB PUSH2 0x549 JUMPI DUP5 DUP7 MSTORE PUSH1 0x1 DUP5 MSTORE DUP3 DUP7 KECCAK256 SWAP7 PUSH1 0x2 DUP9 ADD SWAP8 DUP9 SLOAD SWAP9 PUSH1 0xFF DUP11 PUSH1 0x8 SHR AND ISZERO PUSH2 0x509 JUMPI PUSH1 0xFF DUP11 PUSH1 0x10 SHR AND PUSH2 0x4C7 JUMPI PUSH3 0x10000 DUP10 SWAP11 PUSH3 0xFF0000 SWAP11 SWAP10 SWAP11 NOT AND OR SWAP1 SSTORE DUP3 TIMESTAMP SWAP2 ADD SSTORE DUP1 DUP7 SLOAD AND SWAP5 DUP6 EXTCODESIZE ISZERO PUSH2 0x4C3 JUMPI DUP7 DUP1 DUP10 SWAP8 PUSH1 0x44 DUP9 MLOAD DUP1 SWAP5 DUP2 SWAP4 PUSH4 0x3A1B3D31 PUSH1 0xE0 SHL SWAP13 DUP14 DUP5 MSTORE DUP11 DUP5 ADD MSTORE PUSH1 0xC DUP12 DUP5 ADD MSTORE GAS CALL DUP1 ISZERO PUSH2 0x2B0 JUMPI DUP10 SWAP3 SWAP2 DUP10 SWAP2 PUSH2 0x4AA JUMPI JUMPDEST POP POP PUSH32 0xA1D0A1FDD38ED06D2AA307534E95EB980AEE48FF8DEEE42D7BABD1F6DF8EB865 SWAP1 DUP7 MLOAD CALLER DUP2 MSTORE LOG2 DUP6 SLOAD AND DUP1 EXTCODESIZE ISZERO PUSH2 0x4A6 JUMPI DUP7 SWAP5 DUP7 PUSH1 0x44 SWAP3 PUSH1 0xD DUP3 SWAP7 DUP9 MLOAD SWAP10 DUP11 SWAP8 DUP9 SWAP7 DUP8 MSTORE DUP7 ADD MSTORE DUP5 ADD MSTORE GAS CALL SWAP1 DUP2 ISZERO PUSH2 0x49D JUMPI POP PUSH2 0x489 JUMPI JUMPDEST POP DUP1 PUSH32 0x60F91A26281F20FB528663F4DA55773C83E2EE8A7A5DDDB6D1753749E81DC49B SWAP2 LOG2 DUP1 RETURN JUMPDEST PUSH2 0x492 SWAP1 PUSH2 0xDA3 JUMP JUMPDEST PUSH2 0xA3 JUMPI DUP2 DUP4 PUSH2 0x461 JUMP JUMPDEST MLOAD RETURNDATASIZE DUP5 DUP3 RETURNDATACOPY RETURNDATASIZE SWAP1 REVERT JUMPDEST DUP6 DUP1 REVERT JUMPDEST PUSH2 0x4B6 SWAP2 SWAP3 SWAP4 POP PUSH2 0xDA3 JUMP JUMPDEST PUSH2 0x4C3 JUMPI DUP8 SWAP1 DUP8 DUP12 PUSH2 0x405 JUMP JUMPDEST DUP7 DUP1 REVERT JUMPDEST DUP6 MLOAD PUSH3 0x461BCD PUSH1 0xE5 SHL DUP2 MSTORE DUP1 DUP6 ADD DUP9 SWAP1 MSTORE PUSH1 0x1C DUP2 DUP8 ADD MSTORE PUSH32 0x536574746C656D656E7420616C726561647920636F6E6669726D656400000000 PUSH1 0x44 DUP3 ADD MSTORE PUSH1 0x64 SWAP1 REVERT JUMPDEST PUSH1 0x64 DUP5 DUP9 DUP8 DUP2 DUP11 MLOAD SWAP4 PUSH3 0x461BCD PUSH1 0xE5 SHL DUP6 MSTORE DUP5 ADD MSTORE DUP3 ADD MSTORE PUSH32 0x5061796D656E74206E6F7420617574686F72697A6564206F6E207265636F7264 PUSH1 0x44 DUP3 ADD MSTORE REVERT JUMPDEST PUSH1 0x1A PUSH1 0x64 SWAP3 DUP6 DUP6 MLOAD SWAP4 PUSH3 0x461BCD PUSH1 0xE5 SHL DUP6 MSTORE DUP5 ADD MSTORE DUP3 ADD MSTORE PUSH32 0x5061796D656E74206E6F742079657420617574686F72697A6564000000000000 PUSH1 0x44 DUP3 ADD MSTORE REVERT JUMPDEST POP PUSH4 0x4E487B71 PUSH1 0xE0 SHL DUP7 MSTORE PUSH1 0x21 SWAP1 MSTORE DUP5 REVERT JUMPDEST PUSH2 0x5B1 SWAP3 POP DUP1 RETURNDATASIZE LT PUSH2 0x2A9 JUMPI PUSH2 0x29A DUP2 DUP4 PUSH2 0xDB7 JUMP JUMPDEST DUP10 DUP1 PUSH2 0x370 JUMP JUMPDEST DUP6 MLOAD RETURNDATASIZE DUP11 DUP3 RETURNDATACOPY RETURNDATASIZE SWAP1 REVERT JUMPDEST DUP6 MLOAD PUSH3 0x461BCD PUSH1 0xE5 SHL DUP2 MSTORE DUP1 DUP6 ADD DUP9 SWAP1 MSTORE PUSH1 0x22 DUP2 DUP8 ADD MSTORE PUSH32 0x4F6E6C79206164766973696E672062616E6B20286578706F727465722062616E PUSH1 0x44 DUP3 ADD MSTORE PUSH2 0x6B29 PUSH1 0xF0 SHL PUSH1 0x64 DUP3 ADD MSTORE PUSH1 0x84 SWAP1 REVERT JUMPDEST PUSH2 0x626 SWAP2 POP DUP7 RETURNDATASIZE DUP9 GT PUSH2 0x2A9 JUMPI PUSH2 0x29A DUP2 DUP4 PUSH2 0xDB7 JUMP JUMPDEST DUP14 PUSH2 0x340 JUMP JUMPDEST DUP8 MLOAD RETURNDATASIZE DUP13 DUP3 RETURNDATACOPY RETURNDATASIZE SWAP1 REVERT JUMPDEST SWAP2 SWAP1 POP CALLVALUE PUSH2 0x1EC JUMPI PUSH1 0x20 CALLDATASIZE PUSH1 0x3 NOT ADD SLT PUSH2 0x1EC JUMPI DUP3 SLOAD DUP2 MLOAD PUSH4 0x2DB25E05 PUSH1 0xE0 SHL DUP1 DUP3 MSTORE DUP5 CALLDATALOAD DUP3 DUP7 ADD DUP2 SWAP1 MSTORE SWAP5 PUSH2 0x200 SWAP4 PUSH1 0x24 SWAP4 SWAP2 SWAP3 PUSH1 0x1 PUSH1 0x1 PUSH1 0xA0 SHL SUB SWAP3 SWAP2 DUP4 AND SWAP2 DUP7 DUP2 DUP8 DUP2 DUP7 GAS STATICCALL SWAP1 DUP11 DUP3 ISZERO PUSH2 0x2D7 JUMPI PUSH1 0x60 DUP10 SWAP5 SWAP4 PUSH2 0x6A2 SWAP4 DUP9 SWAP4 SWAP2 PUSH2 0x2BA JUMPI POP ADD MLOAD AND CALLER EQ PUSH2 0xF5B JUMP JUMPDEST DUP6 DUP9 MLOAD DUP1 SWAP5 DUP2 SWAP4 DUP3 MSTORE DUP12 DUP9 DUP4 ADD MSTORE GAS STATICCALL SWAP5 DUP6 ISZERO PUSH2 0x2B0 JUMPI DUP9 SWAP6 PUSH2 0x859 JUMPI JUMPDEST POP POP PUSH2 0x120 DUP5 ADD MLOAD PUSH1 0x12 DUP2 LT ISZERO PUSH2 0x847 JUMPI PUSH1 0x8 SUB PUSH2 0x805 JUMPI DUP6 DUP8 MSTORE PUSH1 0x1 PUSH1 0x20 MSTORE DUP5 DUP8 KECCAK256 PUSH1 0x2 DUP2 ADD DUP1 SLOAD SWAP6 PUSH1 0xFF DUP8 PUSH1 0x8 SHR AND PUSH2 0x7C3 JUMPI DUP9 DUP4 SSTORE PUSH2 0x160 ADD DUP1 MLOAD PUSH1 0x1 DUP5 ADD SSTORE PUSH2 0xFF00 NOT SWAP1 SWAP7 AND PUSH2 0x100 OR SWAP1 SSTORE TIMESTAMP PUSH1 0x3 SWAP1 SWAP2 ADD SSTORE DUP7 SLOAD DUP8 SWAP3 SWAP2 AND DUP1 EXTCODESIZE ISZERO PUSH2 0x1EC JUMPI DUP7 SWAP2 DUP4 PUSH1 0x44 SWAP3 PUSH1 0xB DUP10 MLOAD SWAP8 DUP9 SWAP7 DUP8 SWAP6 PUSH4 0x3A1B3D31 PUSH1 0xE0 SHL DUP8 MSTORE DUP7 ADD MSTORE DUP5 ADD MSTORE GAS CALL DUP1 ISZERO PUSH2 0x7B9 JUMPI PUSH2 0x784 JUMPI JUMPDEST POP SWAP1 PUSH32 0xF506EA28CDE1C7E7F1613D8385C5F1DC792CFC6757F3601542D1FEE26A905A1D SWAP2 MLOAD DUP2 MLOAD SWAP1 DUP2 MSTORE CALLER PUSH1 0x20 DUP3 ADD MSTORE LOG2 DUP1 RETURN JUMPDEST SWAP4 PUSH2 0x7B1 PUSH32 0xF506EA28CDE1C7E7F1613D8385C5F1DC792CFC6757F3601542D1FEE26A905A1D SWAP4 SWAP3 SWAP6 PUSH2 0xDA3 JUMP JUMPDEST SWAP4 SWAP1 SWAP2 PUSH2 0x750 JUMP JUMPDEST DUP4 MLOAD RETURNDATASIZE DUP8 DUP3 RETURNDATACOPY RETURNDATASIZE SWAP1 REVERT JUMPDEST DUP8 MLOAD PUSH3 0x461BCD PUSH1 0xE5 SHL DUP2 MSTORE PUSH1 0x20 DUP2 DUP8 ADD MSTORE PUSH1 0x1A DUP2 DUP9 ADD MSTORE PUSH32 0x5061796D656E7420616C726561647920617574686F72697A6564000000000000 PUSH1 0x44 DUP3 ADD MSTORE PUSH1 0x64 SWAP1 REVERT JUMPDEST POP PUSH1 0x1D PUSH1 0x64 SWAP3 PUSH1 0x20 DUP7 MLOAD SWAP4 PUSH3 0x461BCD PUSH1 0xE5 SHL DUP6 MSTORE DUP5 ADD MSTORE DUP3 ADD MSTORE PUSH32 0x437573746F6D73206D75737420626520636C6561726564206669727374000000 PUSH1 0x44 DUP3 ADD MSTORE REVERT JUMPDEST PUSH4 0x4E487B71 PUSH1 0xE0 SHL DUP9 MSTORE PUSH1 0x21 DUP4 MSTORE DUP4 DUP9 REVERT JUMPDEST PUSH2 0x870 SWAP3 SWAP6 POP DUP1 RETURNDATASIZE LT PUSH2 0x2A9 JUMPI PUSH2 0x29A DUP2 DUP4 PUSH2 0xDB7 JUMP JUMPDEST SWAP3 CODESIZE DUP1 PUSH2 0x6C0 JUMP JUMPDEST SWAP2 SWAP1 POP CALLVALUE PUSH2 0x1EC JUMPI PUSH1 0x20 CALLDATASIZE PUSH1 0x3 NOT ADD SLT PUSH2 0x1EC JUMPI DUP1 DUP4 PUSH2 0x100 SWAP5 PUSH1 0xE0 DUP4 MLOAD PUSH2 0x89F DUP2 PUSH2 0xD70 JUMP JUMPDEST DUP3 DUP2 MSTORE DUP3 PUSH1 0x20 DUP3 ADD MSTORE DUP3 DUP6 DUP3 ADD MSTORE DUP3 PUSH1 0x60 DUP3 ADD MSTORE DUP3 PUSH1 0x80 DUP3 ADD MSTORE DUP3 PUSH1 0xA0 DUP3 ADD MSTORE DUP3 PUSH1 0xC0 DUP3 ADD MSTORE ADD MSTORE DUP4 CALLDATALOAD DUP2 MSTORE PUSH1 0x1 PUSH1 0x20 MSTORE KECCAK256 DUP2 MLOAD SWAP2 PUSH2 0x8DD DUP4 PUSH2 0xD70 JUMP JUMPDEST DUP2 SLOAD SWAP4 DUP5 DUP5 MSTORE PUSH1 0x1 DUP4 ADD SLOAD PUSH1 0x20 DUP6 ADD SWAP1 DUP2 MSTORE PUSH1 0x2 DUP5 ADD SLOAD SWAP3 DUP1 DUP7 ADD PUSH1 0xFF DUP6 AND ISZERO ISZERO DUP2 MSTORE PUSH1 0x60 DUP8 ADD SWAP3 PUSH1 0xFF DUP7 PUSH1 0x8 SHR AND ISZERO ISZERO DUP5 MSTORE PUSH1 0xE0 PUSH1 0x80 DUP10 ADD SWAP6 PUSH1 0xFF DUP9 PUSH1 0x10 SHR AND ISZERO ISZERO DUP8 MSTORE PUSH1 0xFF PUSH1 0xA0 DUP12 ADD SWAP9 PUSH1 0x18 SHR AND ISZERO ISZERO DUP9 MSTORE PUSH1 0x3 DUP10 ADD SLOAD SWAP9 PUSH1 0xC0 DUP12 ADD SWAP10 DUP11 MSTORE ADD SLOAD SWAP9 ADD SWAP8 DUP9 MSTORE DUP3 MLOAD SWAP9 DUP10 MSTORE MLOAD PUSH1 0x20 DUP10 ADD MSTORE MLOAD ISZERO ISZERO SWAP1 DUP8 ADD MSTORE MLOAD ISZERO ISZERO PUSH1 0x60 DUP7 ADD MSTORE MLOAD ISZERO ISZERO PUSH1 0x80 DUP6 ADD MSTORE MLOAD ISZERO ISZERO PUSH1 0xA0 DUP5 ADD MSTORE MLOAD PUSH1 0xC0 DUP4 ADD MSTORE MLOAD PUSH1 0xE0 DUP3 ADD MSTORE RETURN JUMPDEST SWAP1 POP CALLVALUE PUSH2 0x1EC JUMPI PUSH1 0x20 CALLDATASIZE PUSH1 0x3 NOT ADD SLT PUSH2 0x1EC JUMPI DUP3 SLOAD DUP3 MLOAD PUSH4 0x2DB25E05 PUSH1 0xE0 SHL DUP2 MSTORE DUP3 CALLDATALOAD DUP2 DUP5 ADD DUP2 SWAP1 MSTORE SWAP3 PUSH2 0x200 SWAP3 PUSH1 0x1 PUSH1 0x1 PUSH1 0xA0 SHL SUB SWAP3 SWAP1 DUP5 SWAP1 DUP3 SWAP1 PUSH1 0x24 SWAP1 DUP3 SWAP1 DUP8 AND GAS STATICCALL SWAP4 DUP5 ISZERO PUSH2 0xB44 JUMPI DUP8 SWAP5 PUSH2 0xB25 JUMPI JUMPDEST POP POP PUSH2 0x120 DUP4 ADD MLOAD PUSH1 0x12 DUP2 LT ISZERO PUSH2 0xB12 JUMPI PUSH1 0x10 SUB PUSH2 0xAD6 JUMPI DUP4 DUP7 MSTORE PUSH1 0x1 PUSH1 0x20 MSTORE DUP5 DUP7 KECCAK256 SWAP1 PUSH1 0x2 DUP3 ADD SWAP1 DUP2 SLOAD SWAP1 PUSH2 0xA08 PUSH1 0xFF DUP4 AND PUSH2 0xF1D JUMP JUMPDEST PUSH1 0xFF DUP3 PUSH1 0x18 SHR AND PUSH2 0xAA0 JUMPI POP SWAP2 PUSH1 0x1 SWAP2 PUSH4 0x1000000 PUSH1 0x60 SWAP5 PUSH4 0xFF000000 NOT AND OR SWAP1 SSTORE ADD SWAP3 DUP7 DUP5 SLOAD SWAP5 SSTORE ADD DUP6 DUP1 DUP1 DUP1 DUP7 DUP7 DUP7 MLOAD AND DUP3 DUP3 ISZERO PUSH2 0xA97 JUMPI JUMPDEST CALL ISZERO PUSH2 0xA8D JUMPI MLOAD SWAP4 MLOAD SWAP4 AND PUSH1 0x1 PUSH1 0x1 PUSH1 0xA0 SHL SUB AND DUP4 MSTORE PUSH1 0x20 DUP4 ADD MSTORE SWAP1 PUSH32 0x80B577B4FC190AB86D963549E29F496AFD079C5D81A2480D61217D4B5060A28C SWAP1 DUP1 PUSH1 0x40 DUP2 ADD JUMPDEST SUB SWAP1 LOG2 DUP1 RETURN JUMPDEST DUP5 MLOAD RETURNDATASIZE DUP8 DUP3 RETURNDATACOPY RETURNDATASIZE SWAP1 REVERT JUMPDEST POP PUSH2 0x8FC PUSH2 0xA43 JUMP JUMPDEST PUSH1 0x64 SWAP1 PUSH1 0x20 DUP10 MLOAD SWAP2 PUSH3 0x461BCD PUSH1 0xE5 SHL DUP4 MSTORE DUP3 ADD MSTORE PUSH1 0x10 PUSH1 0x24 DUP3 ADD MSTORE PUSH16 0x105B1C9958591E481C99599D5B991959 PUSH1 0x82 SHL PUSH1 0x44 DUP3 ADD MSTORE REVERT JUMPDEST PUSH1 0x64 SWAP1 PUSH1 0x20 DUP7 MLOAD SWAP2 PUSH3 0x461BCD PUSH1 0xE5 SHL DUP4 MSTORE DUP3 ADD MSTORE PUSH1 0x16 PUSH1 0x24 DUP3 ADD MSTORE PUSH22 0x4E6F7420696E20726576657274656420737461747573 PUSH1 0x50 SHL PUSH1 0x44 DUP3 ADD MSTORE REVERT JUMPDEST PUSH4 0x4E487B71 PUSH1 0xE0 SHL DUP8 MSTORE PUSH1 0x21 DUP3 MSTORE PUSH1 0x24 DUP8 REVERT JUMPDEST PUSH2 0xB3C SWAP3 SWAP5 POP DUP1 RETURNDATASIZE LT PUSH2 0x2A9 JUMPI PUSH2 0x29A DUP2 DUP4 PUSH2 0xDB7 JUMP JUMPDEST SWAP2 CODESIZE DUP1 PUSH2 0x9D0 JUMP JUMPDEST DUP7 MLOAD RETURNDATASIZE DUP10 DUP3 RETURNDATACOPY RETURNDATASIZE SWAP1 REVERT JUMPDEST SWAP1 POP CALLVALUE PUSH2 0x1EC JUMPI PUSH1 0x20 CALLDATASIZE PUSH1 0x3 NOT ADD SLT PUSH2 0x1EC JUMPI DUP3 SLOAD DUP3 MLOAD PUSH4 0x2DB25E05 PUSH1 0xE0 SHL DUP2 MSTORE DUP3 CALLDATALOAD DUP2 DUP5 ADD DUP2 SWAP1 MSTORE SWAP3 PUSH2 0x200 SWAP3 PUSH1 0x1 PUSH1 0x1 PUSH1 0xA0 SHL SUB SWAP3 SWAP1 DUP5 SWAP1 DUP3 SWAP1 PUSH1 0x24 SWAP1 DUP3 SWAP1 DUP8 AND GAS STATICCALL SWAP4 DUP5 ISZERO PUSH2 0xB44 JUMPI DUP8 SWAP5 PUSH2 0xCD3 JUMPI JUMPDEST POP POP PUSH2 0x120 DUP4 ADD MLOAD PUSH1 0x12 DUP2 LT ISZERO PUSH2 0xB12 JUMPI PUSH1 0x11 SUB PUSH2 0xC9B JUMPI DUP4 DUP7 MSTORE PUSH1 0x1 PUSH1 0x20 MSTORE DUP5 DUP7 KECCAK256 SWAP1 PUSH1 0x2 DUP3 ADD SWAP1 DUP2 SLOAD SWAP1 PUSH2 0xBD9 PUSH1 0xFF DUP4 AND PUSH2 0xF1D JUMP JUMPDEST PUSH1 0xFF DUP3 PUSH1 0x18 SHR AND PUSH2 0xC64 JUMPI POP SWAP2 PUSH1 0x1 SWAP2 PUSH4 0x1000000 DUP9 SWAP5 PUSH4 0xFF000000 NOT AND OR SWAP1 SSTORE ADD SWAP3 DUP7 DUP5 SLOAD SWAP5 SSTORE ADD DUP6 DUP1 DUP1 DUP1 DUP7 DUP7 DUP7 MLOAD AND DUP3 DUP3 ISZERO PUSH2 0xC5B JUMPI JUMPDEST CALL ISZERO PUSH2 0xA8D JUMPI MLOAD SWAP4 MLOAD SWAP4 AND PUSH1 0x1 PUSH1 0x1 PUSH1 0xA0 SHL SUB AND DUP4 MSTORE PUSH1 0x20 DUP4 ADD MSTORE SWAP1 PUSH32 0x32FB06330903205D582DB19821DDCB0E33F74A084F9FD8C2D876719B56100E89 SWAP1 DUP1 PUSH1 0x40 DUP2 ADD PUSH2 0xA87 JUMP JUMPDEST POP PUSH2 0x8FC PUSH2 0xC13 JUMP JUMPDEST PUSH1 0x64 SWAP1 PUSH1 0x20 DUP10 MLOAD SWAP2 PUSH3 0x461BCD PUSH1 0xE5 SHL DUP4 MSTORE DUP3 ADD MSTORE PUSH1 0x11 PUSH1 0x24 DUP3 ADD MSTORE PUSH17 0x105B1C9958591E481C1C9BD8D95CDCD959 PUSH1 0x7A SHL PUSH1 0x44 DUP3 ADD MSTORE REVERT JUMPDEST PUSH1 0x64 SWAP1 PUSH1 0x20 DUP7 MLOAD SWAP2 PUSH3 0x461BCD PUSH1 0xE5 SHL DUP4 MSTORE DUP3 ADD MSTORE PUSH1 0x12 PUSH1 0x24 DUP3 ADD MSTORE PUSH18 0x10DB185A5B481B9BDD08185C1C1C9BDD9959 PUSH1 0x72 SHL PUSH1 0x44 DUP3 ADD MSTORE REVERT JUMPDEST PUSH2 0xCEA SWAP3 SWAP5 POP DUP1 RETURNDATASIZE LT PUSH2 0x2A9 JUMPI PUSH2 0x29A DUP2 DUP4 PUSH2 0xDB7 JUMP JUMPDEST SWAP2 CODESIZE DUP1 PUSH2 0xBA1 JUMP JUMPDEST SWAP3 SWAP2 POP CALLVALUE PUSH2 0x1FA JUMPI PUSH1 0x20 CALLDATASIZE PUSH1 0x3 NOT ADD SLT PUSH2 0x1FA JUMPI PUSH1 0xFF DUP3 PUSH2 0x100 SWAP6 DUP4 CALLDATALOAD DUP2 MSTORE PUSH1 0x1 PUSH1 0x20 MSTORE KECCAK256 SWAP2 DUP3 SLOAD SWAP4 PUSH1 0x1 DUP5 ADD SLOAD PUSH1 0x2 DUP6 ADD SLOAD SWAP3 PUSH1 0x3 DUP7 ADD SLOAD SWAP6 ADD SLOAD SWAP6 DUP8 MSTORE PUSH1 0x20 DUP8 ADD MSTORE DUP3 DUP3 AND ISZERO ISZERO SWAP1 DUP7 ADD MSTORE DUP2 DUP2 PUSH1 0x8 SHR AND ISZERO ISZERO PUSH1 0x60 DUP7 ADD MSTORE DUP2 DUP2 PUSH1 0x10 SHR AND ISZERO ISZERO PUSH1 0x80 DUP7 ADD MSTORE PUSH1 0x18 SHR AND ISZERO ISZERO PUSH1 0xA0 DUP5 ADD MSTORE PUSH1 0xC0 DUP4 ADD MSTORE PUSH1 0xE0 DUP3 ADD MSTORE RETURN JUMPDEST PUSH2 0x100 DUP2 ADD SWAP1 DUP2 LT PUSH8 0xFFFFFFFFFFFFFFFF DUP3 GT OR PUSH2 0xD8D JUMPI PUSH1 0x40 MSTORE JUMP JUMPDEST PUSH4 0x4E487B71 PUSH1 0xE0 SHL PUSH1 0x0 MSTORE PUSH1 0x41 PUSH1 0x4 MSTORE PUSH1 0x24 PUSH1 0x0 REVERT JUMPDEST PUSH8 0xFFFFFFFFFFFFFFFF DUP2 GT PUSH2 0xD8D JUMPI PUSH1 0x40 MSTORE JUMP JUMPDEST SWAP1 PUSH1 0x1F DUP1 NOT SWAP2 ADD AND DUP2 ADD SWAP1 DUP2 LT PUSH8 0xFFFFFFFFFFFFFFFF DUP3 GT OR PUSH2 0xD8D JUMPI PUSH1 0x40 MSTORE JUMP JUMPDEST MLOAD SWAP1 PUSH1 0x1 PUSH1 0x1 PUSH1 0xA0 SHL SUB DUP3 AND DUP3 SUB PUSH2 0xDED JUMPI JUMP JUMPDEST PUSH1 0x0 DUP1 REVERT JUMPDEST MLOAD SWAP1 DUP2 ISZERO ISZERO DUP3 SUB PUSH2 0xDED JUMPI JUMP JUMPDEST DUP1 SWAP2 PUSH2 0x200 SWAP3 DUP4 SWAP2 SUB SLT PUSH2 0xDED JUMPI PUSH1 0x40 MLOAD SWAP2 DUP3 ADD DUP3 DUP2 LT PUSH8 0xFFFFFFFFFFFFFFFF DUP3 GT OR PUSH2 0xD8D JUMPI PUSH1 0x40 MSTORE DUP1 MLOAD DUP3 MSTORE PUSH2 0xE39 PUSH1 0x20 DUP3 ADD PUSH2 0xDD9 JUMP JUMPDEST PUSH1 0x20 DUP4 ADD MSTORE PUSH2 0xE4A PUSH1 0x40 DUP3 ADD PUSH2 0xDD9 JUMP JUMPDEST PUSH1 0x40 DUP4 ADD MSTORE PUSH2 0xE5B PUSH1 0x60 DUP3 ADD PUSH2 0xDD9 JUMP JUMPDEST PUSH1 0x60 DUP4 ADD MSTORE PUSH2 0xE6C PUSH1 0x80 DUP3 ADD PUSH2 0xDD9 JUMP JUMPDEST PUSH1 0x80 DUP4 ADD MSTORE PUSH2 0xE7D PUSH1 0xA0 DUP3 ADD PUSH2 0xDD9 JUMP JUMPDEST PUSH1 0xA0 DUP4 ADD MSTORE PUSH2 0xE8E PUSH1 0xC0 DUP3 ADD PUSH2 0xDD9 JUMP JUMPDEST PUSH1 0xC0 DUP4 ADD MSTORE PUSH2 0xE9F PUSH1 0xE0 DUP3 ADD PUSH2 0xDD9 JUMP JUMPDEST PUSH1 0xE0 DUP4 ADD MSTORE PUSH2 0x100 PUSH2 0xEB2 DUP2 DUP4 ADD PUSH2 0xDD9 JUMP JUMPDEST SWAP1 DUP4 ADD MSTORE PUSH2 0x120 DUP1 DUP3 ADD MLOAD SWAP1 PUSH1 0x12 DUP3 LT ISZERO PUSH2 0xDED JUMPI DUP4 ADD MSTORE PUSH2 0x140 DUP1 DUP3 ADD MLOAD SWAP1 DUP4 ADD MSTORE PUSH2 0x160 DUP1 DUP3 ADD MLOAD SWAP1 DUP4 ADD MSTORE PUSH2 0x180 DUP1 DUP3 ADD MLOAD SWAP1 DUP4 ADD MSTORE PUSH2 0x1A0 DUP1 DUP3 ADD MLOAD SWAP1 DUP4 ADD MSTORE PUSH2 0x1C0 PUSH2 0xF04 DUP2 DUP4 ADD PUSH2 0xDF2 JUMP JUMPDEST SWAP1 DUP4 ADD MSTORE PUSH2 0xF16 PUSH2 0x1E0 DUP1 SWAP3 ADD PUSH2 0xDF2 JUMP JUMPDEST SWAP1 DUP3 ADD MSTORE SWAP1 JUMP JUMPDEST ISZERO PUSH2 0xF24 JUMPI JUMP JUMPDEST PUSH1 0x40 MLOAD PUSH3 0x461BCD PUSH1 0xE5 SHL DUP2 MSTORE PUSH1 0x20 PUSH1 0x4 DUP3 ADD MSTORE PUSH1 0xF PUSH1 0x24 DUP3 ADD MSTORE PUSH15 0x139BC8199D5B991CC81B1BD8DAD959 PUSH1 0x8A SHL PUSH1 0x44 DUP3 ADD MSTORE PUSH1 0x64 SWAP1 REVERT JUMPDEST ISZERO PUSH2 0xF62 JUMPI JUMP JUMPDEST PUSH1 0x40 MLOAD PUSH3 0x461BCD PUSH1 0xE5 SHL DUP2 MSTORE PUSH1 0x20 PUSH1 0x4 DUP3 ADD MSTORE PUSH1 0x21 PUSH1 0x24 DUP3 ADD MSTORE PUSH32 0x4F6E6C792069737375696E672062616E6B2028696D706F727465722062616E6B PUSH1 0x44 DUP3 ADD MSTORE PUSH1 0x29 PUSH1 0xF8 SHL PUSH1 0x64 DUP3 ADD MSTORE PUSH1 0x84 SWAP1 REVERT INVALID LOG2 PUSH5 0x6970667358 0x22 SLT KECCAK256 0xB1 0xE5 0xAD ADD GAS SWAP6 BLOCKHASH 0xC4 0xC6 SWAP5 TIMESTAMP PUSH10 0x578D5C216D0D41ADE395 NUMBER DELEGATECALL PUSH30 0xE6A2AF8E00D5B864736F6C63430008180033000000000000000000000000 "},"methodIdentifiers":{"authorizePayment(uint256)":"81a03133","confirmSettlement(uint256)":"9e924eb5","depositEscrow(uint256)":"cb991efe","getSettlement(uint256)":"4c582380","payoutInsurance(uint256)":"0c842ad3","refundImporter(uint256)":"3ecfd08d","settlements(uint256)":"08df7dc8","tradeRegistry()":"dbd97308"}}}}}