{"contracts/TradeRegistry.sol":{"TradeRegistry":{"abi":[{"inputs":[],"stateMutability":"nonpayable","type":"constructor"},{"anonymous":false,"inputs":[{"indexed":true,"internalType":"uint256","name":"tradeId","type":"uint256"},{"indexed":false,"internalType":"address","name":"advisingBank","type":"address"}],"name":"AdvisingBankAssigned","type":"event"},{"anonymous":false,"inputs":[{"indexed":true,"internalType":"address","name":"contractAddress","type":"address"},{"indexed":false,"internalType":"bool","name":"authorized","type":"bool"}],"name":"ContractAuthorized","type":"event"},{"anonymous":false,"inputs":[{"indexed":true,"internalType":"uint256","name":"tradeId","type":"uint256"},{"indexed":false,"internalType":"address","name":"shippingCompany","type":"address"}],"name":"ShippingCompanyAssigned","type":"event"},{"anonymous":false,"inputs":[{"indexed":true,"internalType":"uint256","name":"tradeId","type":"uint256"},{"indexed":false,"internalType":"address","name":"confirmedBy","type":"address"}],"name":"TradeConfirmed","type":"event"},{"anonymous":false,"inputs":[{"indexed":true,"internalType":"uint256","name":"tradeId","type":"uint256"},{"indexed":false,"internalType":"address","name":"importer","type":"address"},{"indexed":false,"internalType":"address","name":"exporter","type":"address"},{"indexed":false,"internalType":"uint256","name":"amount","type":"uint256"}],"name":"TradeCreated","type":"event"},{"anonymous":false,"inputs":[{"indexed":true,"internalType":"uint256","name":"tradeId","type":"uint256"}],"name":"TradeInitiated","type":"event"},{"anonymous":false,"inputs":[{"indexed":true,"internalType":"uint256","name":"tradeId","type":"uint256"},{"indexed":false,"internalType":"enum TradeRegistry.TradeStatus","name":"oldStatus","type":"uint8"},{"indexed":false,"internalType":"enum TradeRegistry.TradeStatus","name":"newStatus","type":"uint8"}],"name":"TradeStatusUpdated","type":"event"},{"inputs":[{"internalType":"uint256","name":"_tradeId","type":"uint256"},{"internalType":"address","name":"_advisingBank","type":"address"}],"name":"assignAdvisingBank","outputs":[],"stateMutability":"nonpayable","type":"function"},{"inputs":[{"internalType":"uint256","name":"_tradeId","type":"uint256"},{"internalType":"address","name":"_shippingCompany","type":"address"}],"name":"assignShippingCompany","outputs":[],"stateMutability":"nonpayable","type":"function"},{"inputs":[{"internalType":"address","name":"","type":"address"}],"name":"authorizedContracts","outputs":[{"internalType":"bool","name":"","type":"bool"}],"stateMutability":"view","type":"function"},{"inputs":[{"internalType":"uint256","name":"_tradeId","type":"uint256"}],"name":"confirmTrade","outputs":[],"stateMutability":"nonpayable","type":"function"},{"inputs":[{"internalType":"address","name":"_exporter","type":"address"},{"internalType":"address","name":"_issuingBank","type":"address"},{"internalType":"address","name":"_advisingBank","type":"address"},{"internalType":"address","name":"_inspector","type":"address"},{"internalType":"address","name":"_customsNode","type":"address"},{"internalType":"address","name":"_insuranceNode","type":"address"},{"internalType":"uint256","name":"_amount","type":"uint256"},{"internalType":"uint256","name":"_shippingDeadline","type":"uint256"},{"internalType":"uint256","name":"_clearanceDeadline","type":"uint256"}],"name":"createTrade","outputs":[{"internalType":"uint256","name":"","type":"uint256"}],"stateMutability":"nonpayable","type":"function"},{"inputs":[{"internalType":"uint256","name":"_tradeId","type":"uint256"}],"name":"getTrade","outputs":[{"components":[{"internalType":"uint256","name":"tradeId","type":"uint256"},{"internalType":"address","name":"importer","type":"address"},{"internalType":"address","name":"exporter","type":"address"},{"internalType":"address","name":"issuingBank","type":"address"},{"internalType":"address","name":"advisingBank","type":"address"},{"internalType":"address","name":"shippingCompany","type":"address"},{"internalType":"address","name":"inspector","type":"address"},{"internalType":"address","name":"customsNode","type":"address"},{"internalType":"address","name":"insuranceNode","type":"address"},{"internalType":"enum TradeRegistry.TradeStatus","name":"status","type":"uint8"},{"internalType":"uint256","name":"createdAt","type":"uint256"},{"internalType":"uint256","name":"amount","type":"uint256"},{"internalType":"uint256","name":"shippingDeadline","type":"uint256"},{"internalType":"uint256","name":"clearanceDeadline","type":"uint256"},{"internalType":"bool","name":"importerConfirmed","type":"bool"},{"internalType":"bool","name":"exporterConfirmed","type":"bool"}],"internalType":"struct TradeRegistry.Trade","name":"","type":"tuple"}],"stateMutability":"view","type":"function"},{"inputs":[],"name":"nextTradeId","outputs":[{"internalType":"uint256","name":"","type":"uint256"}],"stateMutability":"view","type":"function"},{"inputs":[],"name":"owner","outputs":[{"internalType":"address","name":"","type":"address"}],"stateMutability":"view","type":"function"},{"inputs":[{"internalType":"uint256","name":"_tradeId","type":"uint256"}],"name":"raiseDispute","outputs":[],"stateMutability":"nonpayable","type":"function"},{"inputs":[{"internalType":"uint256","name":"_tradeId","type":"uint256"}],"name":"requestLetterOfCredit","outputs":[],"stateMutability":"nonpayable","type":"function"},{"inputs":[{"internalType":"address","name":"_contract","type":"address"},{"internalType":"bool","name":"_authorized","type":"bool"}],"name":"setAuthorizedContract","outputs":[],"stateMutability":"nonpayable","type":"function"},{"inputs":[{"internalType":"uint256","name":"","type":"uint256"}],"name":"trades","outputs":[{"internalType":"uint256","name":"tradeId","type":"uint256"},{"internalType":"address","name":"importer","type":"address"},{"internalType":"address","name":"exporter","type":"address"},{"internalType":"address","name":"issuingBank","type":"address"},{"internalType":"address","name":"advisingBank","type":"address"},{"internalType":"address","name":"shippingCompany","type":"address"},{"internalType":"address","name":"inspector","type":"address"},{"internalType":"address","name":"customsNode","type":"address"},{"internalType":"address","name":"insuranceNode","type":"address"},{"internalType":"enum TradeRegistry.TradeStatus","name":"status","type":"uint8"},{"internalType":"uint256","name":"createdAt","type":"uint256"},{"internalType":"uint256","name":"amount","type":"uint256"},{"internalType":"uint256","name":"shippingDeadline","type":"uint256"},{"internalType":"uint256","name":"clearanceDeadline","type":"uint256"},{"internalType":"bool","name":"importerConfirmed","type":"bool"},{"internalType":"bool","name":"exporterConfirmed","type":"bool"}],"stateMutability":"view","type":"function"},{"inputs":[{"internalType":"uint256","name":"_tradeId","type":"uint256"}],"name":"triggerSLABreachRevert","outputs":[],"stateMutability":"nonpayable","type":"function"},{"inputs":[{"internalType":"uint256","name":"_tradeId","type":"uint256"},{"internalType":"enum TradeRegistry.TradeStatus","name":"_newStatus","type":"uint8"}],"name":"updateStatus","outputs":[],"stateMutability":"nonpayable","type":"function"}],"evm":{"bytecode":{"linkReferences":{},"object":"6080806040523461002857600280546001600160a01b03191633179055611316908161002e8239f35b600080fdfe6080604052600436101561001257600080fd5b60003560e01c80630a09ef38146110db57806314feba5214610fb85780631e6c598e14610ea45780632db25e0514610c3557806338ccdb891461097e5780633a1b3d31146108a5578063813ad083146108875780638da5cb5b1461085e5780639ec0507f146105dc578063a5c1674e14610406578063d19cd4ca1461027d578063d5b9221b1461023e578063d5ddd8901461017a5763f2fa7392146100b657600080fd5b34610175576040366003190112610175576100cf6111c8565b60243590811515808303610175576002546001600160a01b039190821633036101435761013a6020927f3213ab8ec2ed122402f038736b41878b69ae9f61f49a7edd0666bce891d29fc9941694856000526001845260406000209060ff801983541691151516179055565b604051908152a2005b60405162461bcd60e51b815260206004820152600a60248201526927b7363c9037bbb732b960b11b6044820152606490fd5b600080fd5b34610175576040366003190112610175576004356101966111b2565b600082815260208190526040902060028101546001600160a01b039190821633036102095760046020927ff6b6464c10c5a10fce3b6565f729a9efba6c35ed895010e0a1d31d18713dec709416916101ef83151561124b565b0180546001600160a01b03191682179055604051908152a2005b60405162461bcd60e51b815260206004820152600d60248201526c27b7363c9032bc3837b93a32b960991b6044820152606490fd5b34610175576020366003190112610175576001600160a01b0361025f6111c8565b166000526001602052602060ff604060002054166040519015158152f35b3461017557602080600319360112610175576004356000818152808352604090206003810154919290916001600160a01b031633036103ce5760088201805460ff8160a01c169360128510156103b8576005851480156103ae575b1561036957600b01544211156103245760ff60a01b1916600160a41b179055604080516000805160206112c183398151915293919290916010919061031e9084906111de565b820152a2005b60405162461bcd60e51b815260048101849052601960248201527f446561646c696e65206e6f7420796574206272656163686564000000000000006044820152606490fd5b60405162461bcd60e51b815260048101859052601d60248201527f496e76616c69642073746174757320666f7220534c41207265766572740000006044820152606490fd5b50600685146102d8565b634e487b7160e01b600052602160045260246000fd5b6064906040519062461bcd60e51b8252600482015260116024820152704f6e6c792069737375696e672062616e6b60781b6044820152fd5b346101755760208060031936011261017557600435908160005260008152604060002060018060a01b038060018301541633149182156105cb575b82156105ba575b82156105a9575b8215610598575b8215610587575b8215610576575b8215610565575b50501561052d57816000526000815260086040600020019081549160ff8360a01c169260128410156103b857600d84141580610522575b156104dd5760ff60a01b1916600760a11b179055604080516000805160206112c18339815191529391929091600e919061031e9084906111de565b60405162461bcd60e51b815260048101849052601d60248201527f43616e6e6f7420646973707574652066696e69736865642074726164650000006044820152606490fd5b5060108414156104a2565b6064906040519062461bcd60e51b825260048201526011602482015270139bdd0818481c185c9d1a58da5c185b9d607a1b6044820152fd5b60089192500154163314838061046b565b915080600783015416331491610464565b91508060068301541633149161045d565b915080600583015416331491610456565b91508060048301541633149161044f565b915080600383015416331491610448565b915080600283015416331491610441565b346101755760208060031936011261017557600435908160005260008152604060002090600882019160ff9081845460a01c1660128110156103b85761080e576001810154336001600160a01b039182161490819081156107fe575b50156107b9571561075157600d8101805483811661070c5760ff19166001179055600d905b857f4886270d3c681c8373359d1cfafb1a549453e43e452ce59a9eae87f8a23e50be85604051338152a201548180821691826106ff575b505061069c57005b825460ff60a01b198116600160a01b17909355604080516000805160206112c1833981519152949193909260019261031e918591897fc40a4f74d715da2ee96119fbf8d8da1df0f5b79e92c3fd855f1ddc102d51d047600080a260a01c166111de565b60081c1690508186610694565b60405162461bcd60e51b815260048101869052601a60248201527f496d706f7274657220616c726561647920636f6e6669726d65640000000000006044820152606490fd5b600d81018054838160081c166107745761ff001916610100179055600d9061065d565b60405162461bcd60e51b815260048101869052601a60248201527f4578706f7274657220616c726561647920636f6e6669726d65640000000000006044820152606490fd5b60405162461bcd60e51b815260048101859052601960248201527f4f6e6c7920696d706f72746572206f72206578706f72746572000000000000006044820152606490fd5b9050600283015416331487610638565b60405162461bcd60e51b815260048101849052602260248201527f5472616465206e6f7420696e204f464645525f41434345505445442073746174604482015261757360f01b6064820152608490fd5b34610175576000366003190112610175576002546040516001600160a01b039091168152602090f35b34610175576000366003190112610175576020600354604051908152f35b346101755760403660031901126101755760043560243560128110156101755733600052600160205260ff60406000205416801561096a575b156109345760406000805160206112c183398151915291836000526000602052610931600883600020019161091b8160ff855460a01c1694611227565b610927845180946111de565b60208301906111de565ba2005b60405162461bcd60e51b815260206004820152600e60248201526d139bdd08185d5d1a1bdc9a5e995960921b6044820152606490fd5b506002546001600160a01b031633146108de565b3461017557610120366003190112610175576109986111c8565b6109a06111b2565b90604435906001600160a01b0382168203610175576064356001600160a01b0381168103610175576084356001600160a01b03811681036101755760a435916001600160a01b038316830361017557600354946000198614610c1f5760018601600355610a0b611289565b8681523360208083019182526001600160a01b0388811660408086019182529b82166060860190815295821660808601908152600060a0870181815298841660c0880190815299841660e088019081529a841661010088019081526101208801828152426101408a015260c4356101608a015260e4356101808a0152610104356101a08a01526101c089018390526101e089018390528e8352958290529d90208651815594516001860180546001600160a01b0319908116928616929092179055915160028601805484169185169190911790559551600385018054831691841691909117905594516004840180548716918316919091179055945160058301805486169187169190911790559451600682018054851691861691909117905594516007860180548416918516919091179055965160088501805490921692169190911781559051909290919060128310156103b8576020956101e0600d606094610b987f7db1856a9087992b8c7c25a7f1622a9b144ff325953aee6bbb6d38d762c189f6978a99611227565b6101408401516009820155610160840151600a820155610180840151600b8201556101a0840151600c8201550191610be36101c08201511515849060ff801983541691151516179055565b0151815461ff00191690151560081b61ff0016179055604080513381526001600160a01b039092168783015260c43590820152a2604051908152f35b634e487b7160e01b600052601160045260246000fd5b346101755760203660031901126101755760006101e0610c53611289565b8281528260208201528260408201528260608201528260808201528260a08201528260c08201528260e08201528261010082015282610120820152826101408201528261016082015282610180820152826101a0820152826101c0820152015260043560005260006020526040600020610ccb611289565b8154815260018201546001600160a01b0390811660208301526002830154811660408301526003830154811660608301526004830154811660808301526005830154811660a0808401919091526006840154821660c08401526007840154821660e0840152600884015491821661010084015290929060129084901c60ff1610156103b857600d60ff91826102009560a01c166101208501526009810154610140850152600a810154610160850152600b810154610180850152600c8101546101a0850152015481811615156101c084015260081c1615156101e08201526101e0604051918051835260018060a01b03602082015116602084015260018060a01b03604082015116604084015260018060a01b03606082015116606084015260018060a01b03608082015116608084015260018060a01b0360a08201511660a084015260018060a01b0360c08201511660c084015260018060a01b0360e08201511660e084015260018060a01b0361010082015116610100840152610e5a6101208201516101208501906111de565b6101408101516101408401526101608101516101608401526101808101516101808401526101a08101516101a08401526101c081015115156101c0840152015115156101e0820152f35b3461017557602036600319011261017557600480356000908152602081815260409182902080546001820154600283015460038401549684015460058501546006860154600787015460088801546009890154600a8a0154600b8b0154600c8c0154600d909c01548e519b8c526001600160a01b039a8b169d8c019d909d529789169c8a019c909c529b87166060890152938616608088015291851660a08088019190915290851660c087015290841660e08601529281166101008501529296949593949093929091610f80916101208901911c60ff166111de565b6101408601526101608501526101808401526101a083015260ff811615156101c083015260081c60ff1615156101e082015261020090f35b3461017557604036600319011261017557600435610fd46111b2565b816000526000602052604060002060018060a01b0390610ffb8260018301541633146111eb565b60088101805460ff8160a01c169260128410156103b8576005840361109f577f2c66f56eae5b05d816c95cd687f6688b9df61f75e38f75cb9cc3a190358c5b646020889260056040986000805160206112c18339815191529a169161106183151561124b565b0180546001600160a01b031916821790558751908152a260ff60a01b1916600360a11b1790558151906110959082906111de565b60066020820152a2005b60405162461bcd60e51b8152602060048201526014602482015273119d5b991cc81b9bdd081b1bd8dad959081e595d60621b6044820152606490fd5b34610175576020366003190112610175576004358060005260006020526008604060002061111660018060a01b0360018301541633146111eb565b01805460ff8160a01c1660128110156103b8576001811480156111aa575b156111745760ff60a01b19909116600160a11b17909155604080516000805160206112c18339815191529261116a9082906111de565b60026020820152a2005b60405162461bcd60e51b815260206004820152600e60248201526d496e76616c69642073746174757360901b6044820152606490fd5b508015611134565b602435906001600160a01b038216820361017557565b600435906001600160a01b038216820361017557565b9060128210156103b85752565b156111f257565b60405162461bcd60e51b815260206004820152600d60248201526c27b7363c9034b6b837b93a32b960991b6044820152606490fd5b9060128110156103b857815460ff60a01b191660a09190911b60ff60a01b16179055565b1561125257565b60405162461bcd60e51b815260206004820152600f60248201526e496e76616c6964206164647265737360881b6044820152606490fd5b60405190610200820182811067ffffffffffffffff8211176112aa57604052565b634e487b7160e01b600052604160045260246000fdfefcb82c5664d9b8ca92b30878bddea2bb0fc8804c7ac6dc8f781a1cd8b94e8effa264697066735822122065af8df8b9f8f310b5bbb7b5df931fa6c71d14ebe104fd8d95c49f9b6e65582d64736f6c63430008180033","opcodes":"PUSH1 0x80 DUP1 PUSH1 0x40 MSTORE CALLVALUE PUSH2 0x28 JUMPI PUSH1 0x2 DUP1 SLOAD PUSH1 0x1 PUSH1 0x1 PUSH1 0xA0 SHL SUB NOT AND CALLER OR SWAP1 SSTORE PUSH2 0x1316 SWAP1 DUP2 PUSH2 0x2E DUP3 CODECOPY RETURN JUMPDEST PUSH1 0x0 DUP1 REVERT INVALID PUSH1 0x80 PUSH1 0x40 MSTORE PUSH1 0x4 CALLDATASIZE LT ISZERO PUSH2 0x12 JUMPI PUSH1 0x0 DUP1 REVERT JUMPDEST PUSH1 0x0 CALLDATALOAD PUSH1 0xE0 SHR DUP1 PUSH4 0xA09EF38 EQ PUSH2 0x10DB JUMPI DUP1 PUSH4 0x14FEBA52 EQ PUSH2 0xFB8 JUMPI DUP1 PUSH4 0x1E6C598E EQ PUSH2 0xEA4 JUMPI DUP1 PUSH4 0x2DB25E05 EQ PUSH2 0xC35 JUMPI DUP1 PUSH4 0x38CCDB89 EQ PUSH2 0x97E JUMPI DUP1 PUSH4 0x3A1B3D31 EQ PUSH2 0x8A5 JUMPI DUP1 PUSH4 0x813AD083 EQ PUSH2 0x887 JUMPI DUP1 PUSH4 0x8DA5CB5B EQ PUSH2 0x85E JUMPI DUP1 PUSH4 0x9EC0507F EQ PUSH2 0x5DC JUMPI DUP1 PUSH4 0xA5C1674E EQ PUSH2 0x406 JUMPI DUP1 PUSH4 0xD19CD4CA EQ PUSH2 0x27D JUMPI DUP1 PUSH4 0xD5B9221B EQ PUSH2 0x23E JUMPI DUP1 PUSH4 0xD5DDD890 EQ PUSH2 0x17A JUMPI PUSH4 0xF2FA7392 EQ PUSH2 0xB6 JUMPI PUSH1 0x0 DUP1 REVERT JUMPDEST CALLVALUE PUSH2 0x175 JUMPI PUSH1 0x40 CALLDATASIZE PUSH1 0x3 NOT ADD SLT PUSH2 0x175 JUMPI PUSH2 0xCF PUSH2 0x11C8 JUMP JUMPDEST PUSH1 0x24 CALLDATALOAD SWAP1 DUP2 ISZERO ISZERO DUP1 DUP4 SUB PUSH2 0x175 JUMPI PUSH1 0x2 SLOAD PUSH1 0x1 PUSH1 0x1 PUSH1 0xA0 SHL SUB SWAP2 SWAP1 DUP3 AND CALLER SUB PUSH2 0x143 JUMPI PUSH2 0x13A PUSH1 0x20 SWAP3 PUSH32 0x3213AB8EC2ED122402F038736B41878B69AE9F61F49A7EDD0666BCE891D29FC9 SWAP5 AND SWAP5 DUP6 PUSH1 0x0 MSTORE PUSH1 0x1 DUP5 MSTORE PUSH1 0x40 PUSH1 0x0 KECCAK256 SWAP1 PUSH1 0xFF DUP1 NOT DUP4 SLOAD AND SWAP2 ISZERO ISZERO AND OR SWAP1 SSTORE JUMP JUMPDEST PUSH1 0x40 MLOAD SWAP1 DUP2 MSTORE LOG2 STOP JUMPDEST PUSH1 0x40 MLOAD PUSH3 0x461BCD PUSH1 0xE5 SHL DUP2 MSTORE PUSH1 0x20 PUSH1 0x4 DUP3 ADD MSTORE PUSH1 0xA PUSH1 0x24 DUP3 ADD MSTORE PUSH10 0x27B7363C9037BBB732B9 PUSH1 0xB1 SHL PUSH1 0x44 DUP3 ADD MSTORE PUSH1 0x64 SWAP1 REVERT JUMPDEST PUSH1 0x0 DUP1 REVERT JUMPDEST CALLVALUE PUSH2 0x175 JUMPI PUSH1 0x40 CALLDATASIZE PUSH1 0x3 NOT ADD SLT PUSH2 0x175 JUMPI PUSH1 0x4 CALLDATALOAD PUSH2 0x196 PUSH2 0x11B2 JUMP JUMPDEST PUSH1 0x0 DUP3 DUP2 MSTORE PUSH1 0x20 DUP2 SWAP1 MSTORE PUSH1 0x40 SWAP1 KECCAK256 PUSH1 0x2 DUP2 ADD SLOAD PUSH1 0x1 PUSH1 0x1 PUSH1 0xA0 SHL SUB SWAP2 SWAP1 DUP3 AND CALLER SUB PUSH2 0x209 JUMPI PUSH1 0x4 PUSH1 0x20 SWAP3 PUSH32 0xF6B6464C10C5A10FCE3B6565F729A9EFBA6C35ED895010E0A1D31D18713DEC70 SWAP5 AND SWAP2 PUSH2 0x1EF DUP4 ISZERO ISZERO PUSH2 0x124B JUMP JUMPDEST ADD DUP1 SLOAD PUSH1 0x1 PUSH1 0x1 PUSH1 0xA0 SHL SUB NOT AND DUP3 OR SWAP1 SSTORE PUSH1 0x40 MLOAD SWAP1 DUP2 MSTORE LOG2 STOP JUMPDEST PUSH1 0x40 MLOAD PUSH3 0x461BCD PUSH1 0xE5 SHL DUP2 MSTORE PUSH1 0x20 PUSH1 0x4 DUP3 ADD MSTORE PUSH1 0xD PUSH1 0x24 DUP3 ADD MSTORE PUSH13 0x27B7363C9032BC3837B93A32B9 PUSH1 0x99 SHL PUSH1 0x44 DUP3 ADD MSTORE PUSH1 0x64 SWAP1 REVERT JUMPDEST CALLVALUE PUSH2 0x175 JUMPI PUSH1 0x20 CALLDATASIZE PUSH1 0x3 NOT ADD SLT PUSH2 0x175 JUMPI PUSH1 0x1 PUSH1 0x1 PUSH1 0xA0 SHL SUB PUSH2 0x25F PUSH2 0x11C8 JUMP JUMPDEST AND PUSH1 0x0 MSTORE PUSH1 0x1 PUSH1 0x20 MSTORE PUSH1 0x20 PUSH1 0xFF PUSH1 0x40 PUSH1 0x0 KECCAK256 SLOAD AND PUSH1 0x40 MLOAD SWAP1 ISZERO ISZERO DUP2 MSTORE RETURN JUMPDEST CALLVALUE PUSH2 0x175 JUMPI PUSH1 0x20 DUP1 PUSH1 0x3 NOT CALLDATASIZE ADD SLT PUSH2 0x175 JUMPI PUSH1 0x4 CALLDATALOAD PUSH1 0x0 DUP2 DUP2 MSTORE DUP1 DUP4 MSTORE PUSH1 0x40 SWAP1 KECCAK256 PUSH1 0x3 DUP2 ADD SLOAD SWAP2 SWAP3 SWAP1 SWAP2 PUSH1 0x1 PUSH1 0x1 PUSH1 0xA0 SHL SUB AND CALLER SUB PUSH2 0x3CE JUMPI PUSH1 0x8 DUP3 ADD DUP1 SLOAD PUSH1 0xFF DUP2 PUSH1 0xA0 SHR AND SWAP4 PUSH1 0x12 DUP6 LT ISZERO PUSH2 0x3B8 JUMPI PUSH1 0x5 DUP6 EQ DUP1 ISZERO PUSH2 0x3AE JUMPI JUMPDEST ISZERO PUSH2 0x369 JUMPI PUSH1 0xB ADD SLOAD TIMESTAMP GT ISZERO PUSH2 0x324 JUMPI PUSH1 0xFF PUSH1 0xA0 SHL NOT AND PUSH1 0x1 PUSH1 0xA4 SHL OR SWAP1 SSTORE PUSH1 0x40 DUP1 MLOAD PUSH1 0x0 DUP1 MLOAD PUSH1 0x20 PUSH2 0x12C1 DUP4 CODECOPY DUP2 MLOAD SWAP2 MSTORE SWAP4 SWAP2 SWAP3 SWAP1 SWAP2 PUSH1 0x10 SWAP2 SWAP1 PUSH2 0x31E SWAP1 DUP5 SWAP1 PUSH2 0x11DE JUMP JUMPDEST DUP3 ADD MSTORE LOG2 STOP JUMPDEST PUSH1 0x40 MLOAD PUSH3 0x461BCD PUSH1 0xE5 SHL DUP2 MSTORE PUSH1 0x4 DUP2 ADD DUP5 SWAP1 MSTORE PUSH1 0x19 PUSH1 0x24 DUP3 ADD MSTORE PUSH32 0x446561646C696E65206E6F742079657420627265616368656400000000000000 PUSH1 0x44 DUP3 ADD MSTORE PUSH1 0x64 SWAP1 REVERT JUMPDEST PUSH1 0x40 MLOAD PUSH3 0x461BCD PUSH1 0xE5 SHL DUP2 MSTORE PUSH1 0x4 DUP2 ADD DUP6 SWAP1 MSTORE PUSH1 0x1D PUSH1 0x24 DUP3 ADD MSTORE PUSH32 0x496E76616C69642073746174757320666F7220534C4120726576657274000000 PUSH1 0x44 DUP3 ADD MSTORE PUSH1 0x64 SWAP1 REVERT JUMPDEST POP PUSH1 0x6 DUP6 EQ PUSH2 0x2D8 JUMP JUMPDEST PUSH4 0x4E487B71 PUSH1 0xE0 SHL PUSH1 0x0 MSTORE PUSH1 0x21 PUSH1 0x4 MSTORE PUSH1 0x24 PUSH1 0x0 REVERT JUMPDEST PUSH1 0x64 SWAP1 PUSH1 0x40 MLOAD SWAP1 PUSH3 0x461BCD PUSH1 0xE5 SHL DUP3 MSTORE PUSH1 0x4 DUP3 ADD MSTORE PUSH1 0x11 PUSH1 0x24 DUP3 ADD MSTORE PUSH17 0x4F6E6C792069737375696E672062616E6B PUSH1 0x78 SHL PUSH1 0x44 DUP3 ADD MSTORE REVERT JUMPDEST CALLVALUE PUSH2 0x175 JUMPI PUSH1 0x20 DUP1 PUSH1 0x3 NOT CALLDATASIZE ADD SLT PUSH2 0x175 JUMPI PUSH1 0x4 CALLDATALOAD SWAP1 DUP2 PUSH1 0x0 MSTORE PUSH1 0x0 DUP2 MSTORE PUSH1 0x40 PUSH1 0x0 KECCAK256 PUSH1 0x1 DUP1 PUSH1 0xA0 SHL SUB DUP1 PUSH1 0x1 DUP4 ADD SLOAD AND CALLER EQ SWAP2 DUP3 ISZERO PUSH2 0x5CB JUMPI JUMPDEST DUP3 ISZERO PUSH2 0x5BA JUMPI JUMPDEST DUP3 ISZERO PUSH2 0x5A9 JUMPI JUMPDEST DUP3 ISZERO PUSH2 0x598 JUMPI JUMPDEST DUP3 ISZERO PUSH2 0x587 JUMPI JUMPDEST DUP3 ISZERO PUSH2 0x576 JUMPI JUMPDEST DUP3 ISZERO PUSH2 0x565 JUMPI JUMPDEST POP POP ISZERO PUSH2 0x52D JUMPI DUP2 PUSH1 0x0 MSTORE PUSH1 0x0 DUP2 MSTORE PUSH1 0x8 PUSH1 0x40 PUSH1 0x0 KECCAK256 ADD SWAP1 DUP2 SLOAD SWAP2 PUSH1 0xFF DUP4 PUSH1 0xA0 SHR AND SWAP3 PUSH1 0x12 DUP5 LT ISZERO PUSH2 0x3B8 JUMPI PUSH1 0xD DUP5 EQ ISZERO DUP1 PUSH2 0x522 JUMPI JUMPDEST ISZERO PUSH2 0x4DD JUMPI PUSH1 0xFF PUSH1 0xA0 SHL NOT AND PUSH1 0x7 PUSH1 0xA1 SHL OR SWAP1 SSTORE PUSH1 0x40 DUP1 MLOAD PUSH1 0x0 DUP1 MLOAD PUSH1 0x20 PUSH2 0x12C1 DUP4 CODECOPY DUP2 MLOAD SWAP2 MSTORE SWAP4 SWAP2 SWAP3 SWAP1 SWAP2 PUSH1 0xE SWAP2 SWAP1 PUSH2 0x31E SWAP1 DUP5 SWAP1 PUSH2 0x11DE JUMP JUMPDEST PUSH1 0x40 MLOAD PUSH3 0x461BCD PUSH1 0xE5 SHL DUP2 MSTORE PUSH1 0x4 DUP2 ADD DUP5 SWAP1 MSTORE PUSH1 0x1D PUSH1 0x24 DUP3 ADD MSTORE PUSH32 0x43616E6E6F7420646973707574652066696E6973686564207472616465000000 PUSH1 0x44 DUP3 ADD MSTORE PUSH1 0x64 SWAP1 REVERT JUMPDEST POP PUSH1 0x10 DUP5 EQ ISZERO PUSH2 0x4A2 JUMP JUMPDEST PUSH1 0x64 SWAP1 PUSH1 0x40 MLOAD SWAP1 PUSH3 0x461BCD PUSH1 0xE5 SHL DUP3 MSTORE PUSH1 0x4 DUP3 ADD MSTORE PUSH1 0x11 PUSH1 0x24 DUP3 ADD MSTORE PUSH17 0x139BDD0818481C185C9D1A58DA5C185B9D PUSH1 0x7A SHL PUSH1 0x44 DUP3 ADD MSTORE REVERT JUMPDEST PUSH1 0x8 SWAP2 SWAP3 POP ADD SLOAD AND CALLER EQ DUP4 DUP1 PUSH2 0x46B JUMP JUMPDEST SWAP2 POP DUP1 PUSH1 0x7 DUP4 ADD SLOAD AND CALLER EQ SWAP2 PUSH2 0x464 JUMP JUMPDEST SWAP2 POP DUP1 PUSH1 0x6 DUP4 ADD SLOAD AND CALLER EQ SWAP2 PUSH2 0x45D JUMP JUMPDEST SWAP2 POP DUP1 PUSH1 0x5 DUP4 ADD SLOAD AND CALLER EQ SWAP2 PUSH2 0x456 JUMP JUMPDEST SWAP2 POP DUP1 PUSH1 0x4 DUP4 ADD SLOAD AND CALLER EQ SWAP2 PUSH2 0x44F JUMP JUMPDEST SWAP2 POP DUP1 PUSH1 0x3 DUP4 ADD SLOAD AND CALLER EQ SWAP2 PUSH2 0x448 JUMP JUMPDEST SWAP2 POP DUP1 PUSH1 0x2 DUP4 ADD SLOAD AND CALLER EQ SWAP2 PUSH2 0x441 JUMP JUMPDEST CALLVALUE PUSH2 0x175 JUMPI PUSH1 0x20 DUP1 PUSH1 0x3 NOT CALLDATASIZE ADD SLT PUSH2 0x175 JUMPI PUSH1 0x4 CALLDATALOAD SWAP1 DUP2 PUSH1 0x0 MSTORE PUSH1 0x0 DUP2 MSTORE PUSH1 0x40 PUSH1 0x0 KECCAK256 SWAP1 PUSH1 0x8 DUP3 ADD SWAP2 PUSH1 0xFF SWAP1 DUP2 DUP5 SLOAD PUSH1 0xA0 SHR AND PUSH1 0x12 DUP2 LT ISZERO PUSH2 0x3B8 JUMPI PUSH2 0x80E JUMPI PUSH1 0x1 DUP2 ADD SLOAD CALLER PUSH1 0x1 PUSH1 0x1 PUSH1 0xA0 SHL SUB SWAP2 DUP3 AND EQ SWAP1 DUP2 SWAP1 DUP2 ISZERO PUSH2 0x7FE JUMPI JUMPDEST POP ISZERO PUSH2 0x7B9 JUMPI ISZERO PUSH2 0x751 JUMPI PUSH1 0xD DUP2 ADD DUP1 SLOAD DUP4 DUP2 AND PUSH2 0x70C JUMPI PUSH1 0xFF NOT AND PUSH1 0x1 OR SWAP1 SSTORE PUSH1 0xD SWAP1 JUMPDEST DUP6 PUSH32 0x4886270D3C681C8373359D1CFAFB1A549453E43E452CE59A9EAE87F8A23E50BE DUP6 PUSH1 0x40 MLOAD CALLER DUP2 MSTORE LOG2 ADD SLOAD DUP2 DUP1 DUP3 AND SWAP2 DUP3 PUSH2 0x6FF JUMPI JUMPDEST POP POP PUSH2 0x69C JUMPI STOP JUMPDEST DUP3 SLOAD PUSH1 0xFF PUSH1 0xA0 SHL NOT DUP2 AND PUSH1 0x1 PUSH1 0xA0 SHL OR SWAP1 SWAP4 SSTORE PUSH1 0x40 DUP1 MLOAD PUSH1 0x0 DUP1 MLOAD PUSH1 0x20 PUSH2 0x12C1 DUP4 CODECOPY DUP2 MLOAD SWAP2 MSTORE SWAP5 SWAP2 SWAP4 SWAP1 SWAP3 PUSH1 0x1 SWAP3 PUSH2 0x31E SWAP2 DUP6 SWAP2 DUP10 PUSH32 0xC40A4F74D715DA2EE96119FBF8D8DA1DF0F5B79E92C3FD855F1DDC102D51D047 PUSH1 0x0 DUP1 LOG2 PUSH1 0xA0 SHR AND PUSH2 0x11DE JUMP JUMPDEST PUSH1 0x8 SHR AND SWAP1 POP DUP2 DUP7 PUSH2 0x694 JUMP JUMPDEST PUSH1 0x40 MLOAD PUSH3 0x461BCD PUSH1 0xE5 SHL DUP2 MSTORE PUSH1 0x4 DUP2 ADD DUP7 SWAP1 MSTORE PUSH1 0x1A PUSH1 0x24 DUP3 ADD MSTORE PUSH32 0x496D706F7274657220616C726561647920636F6E6669726D6564000000000000 PUSH1 0x44 DUP3 ADD MSTORE PUSH1 0x64 SWAP1 REVERT JUMPDEST PUSH1 0xD DUP2 ADD DUP1 SLOAD DUP4 DUP2 PUSH1 0x8 SHR AND PUSH2 0x774 JUMPI PUSH2 0xFF00 NOT AND PUSH2 0x100 OR SWAP1 SSTORE PUSH1 0xD SWAP1 PUSH2 0x65D JUMP JUMPDEST PUSH1 0x40 MLOAD PUSH3 0x461BCD PUSH1 0xE5 SHL DUP2 MSTORE PUSH1 0x4 DUP2 ADD DUP7 SWAP1 MSTORE PUSH1 0x1A PUSH1 0x24 DUP3 ADD MSTORE PUSH32 0x4578706F7274657220616C726561647920636F6E6669726D6564000000000000 PUSH1 0x44 DUP3 ADD MSTORE PUSH1 0x64 SWAP1 REVERT JUMPDEST PUSH1 0x40 MLOAD PUSH3 0x461BCD PUSH1 0xE5 SHL DUP2 MSTORE PUSH1 0x4 DUP2 ADD DUP6 SWAP1 MSTORE PUSH1 0x19 PUSH1 0x24 DUP3 ADD MSTORE PUSH32 0x4F6E6C7920696D706F72746572206F72206578706F7274657200000000000000 PUSH1 0x44 DUP3 ADD MSTORE PUSH1 0x64 SWAP1 REVERT JUMPDEST SWAP1 POP PUSH1 0x2 DUP4 ADD SLOAD AND CALLER EQ DUP8 PUSH2 0x638 JUMP JUMPDEST PUSH1 0x40 MLOAD PUSH3 0x461BCD PUSH1 0xE5 SHL DUP2 MSTORE PUSH1 0x4 DUP2 ADD DUP5 SWAP1 MSTORE PUSH1 0x22 PUSH1 0x24 DUP3 ADD MSTORE PUSH32 0x5472616465206E6F7420696E204F464645525F41434345505445442073746174 PUSH1 0x44 DUP3 ADD MSTORE PUSH2 0x7573 PUSH1 0xF0 SHL PUSH1 0x64 DUP3 ADD MSTORE PUSH1 0x84 SWAP1 REVERT JUMPDEST CALLVALUE PUSH2 0x175 JUMPI PUSH1 0x0 CALLDATASIZE PUSH1 0x3 NOT ADD SLT PUSH2 0x175 JUMPI PUSH1 0x2 SLOAD PUSH1 0x40 MLOAD PUSH1 0x1 PUSH1 0x1 PUSH1 0xA0 SHL SUB SWAP1 SWAP2 AND DUP2 MSTORE PUSH1 0x20 SWAP1 RETURN JUMPDEST CALLVALUE PUSH2 0x175 JUMPI PUSH1 0x0 CALLDATASIZE PUSH1 0x3 NOT ADD SLT PUSH2 0x175 JUMPI PUSH1 0x20 PUSH1 0x3 SLOAD PUSH1 0x40 MLOAD SWAP1 DUP2 MSTORE RETURN JUMPDEST CALLVALUE PUSH2 0x175 JUMPI PUSH1 0x40 CALLDATASIZE PUSH1 0x3 NOT ADD SLT PUSH2 0x175 JUMPI PUSH1 0x4 CALLDATALOAD PUSH1 0x24 CALLDATALOAD PUSH1 0x12 DUP2 LT ISZERO PUSH2 0x175 JUMPI CALLER PUSH1 0x0 MSTORE PUSH1 0x1 PUSH1 0x20 MSTORE PUSH1 0xFF PUSH1 0x40 PUSH1 0x0 KECCAK256 SLOAD AND DUP1 ISZERO PUSH2 0x96A JUMPI JUMPDEST ISZERO PUSH2 0x934 JUMPI PUSH1 0x40 PUSH1 0x0 DUP1 MLOAD PUSH1 0x20 PUSH2 0x12C1 DUP4 CODECOPY DUP2 MLOAD SWAP2 MSTORE SWAP2 DUP4 PUSH1 0x0 MSTORE PUSH1 0x0 PUSH1 0x20 MSTORE PUSH2 0x931 PUSH1 0x8 DUP4 PUSH1 0x0 KECCAK256 ADD SWAP2 PUSH2 0x91B DUP2 PUSH1 0xFF DUP6 SLOAD PUSH1 0xA0 SHR AND SWAP5 PUSH2 0x1227 JUMP JUMPDEST PUSH2 0x927 DUP5 MLOAD DUP1 SWAP5 PUSH2 0x11DE JUMP JUMPDEST PUSH1 0x20 DUP4 ADD SWAP1 PUSH2 0x11DE JUMP JUMPDEST LOG2 STOP JUMPDEST PUSH1 0x40 MLOAD PUSH3 0x461BCD PUSH1 0xE5 SHL DUP2 MSTORE PUSH1 0x20 PUSH1 0x4 DUP3 ADD MSTORE PUSH1 0xE PUSH1 0x24 DUP3 ADD MSTORE PUSH14 0x139BDD08185D5D1A1BDC9A5E9959 PUSH1 0x92 SHL PUSH1 0x44 DUP3 ADD MSTORE PUSH1 0x64 SWAP1 REVERT JUMPDEST POP PUSH1 0x2 SLOAD PUSH1 0x1 PUSH1 0x1 PUSH1 0xA0 SHL SUB AND CALLER EQ PUSH2 0x8DE JUMP JUMPDEST CALLVALUE PUSH2 0x175 JUMPI PUSH2 0x120 CALLDATASIZE PUSH1 0x3 NOT ADD SLT PUSH2 0x175 JUMPI PUSH2 0x998 PUSH2 0x11C8 JUMP JUMPDEST PUSH2 0x9A0 PUSH2 0x11B2 JUMP JUMPDEST SWAP1 PUSH1 0x44 CALLDATALOAD SWAP1 PUSH1 0x1 PUSH1 0x1 PUSH1 0xA0 SHL SUB DUP3 AND DUP3 SUB PUSH2 0x175 JUMPI PUSH1 0x64 CALLDATALOAD PUSH1 0x1 PUSH1 0x1 PUSH1 0xA0 SHL SUB DUP2 AND DUP2 SUB PUSH2 0x175 JUMPI PUSH1 0x84 CALLDATALOAD PUSH1 0x1 PUSH1 0x1 PUSH1 0xA0 SHL SUB DUP2 AND DUP2 SUB PUSH2 0x175 JUMPI PUSH1 0xA4 CALLDATALOAD SWAP2 PUSH1 0x1 PUSH1 0x1 PUSH1 0xA0 SHL SUB DUP4 AND DUP4 SUB PUSH2 0x175 JUMPI PUSH1 0x3 SLOAD SWAP5 PUSH1 0x0 NOT DUP7 EQ PUSH2 0xC1F JUMPI PUSH1 0x1 DUP7 ADD PUSH1 0x3 SSTORE PUSH2 0xA0B PUSH2 0x1289 JUMP JUMPDEST DUP7 DUP2 MSTORE CALLER PUSH1 0x20 DUP1 DUP4 ADD SWAP2 DUP3 MSTORE PUSH1 0x1 PUSH1 0x1 PUSH1 0xA0 SHL SUB DUP9 DUP2 AND PUSH1 0x40 DUP1 DUP7 ADD SWAP2 DUP3 MSTORE SWAP12 DUP3 AND PUSH1 0x60 DUP7 ADD SWAP1 DUP2 MSTORE SWAP6 DUP3 AND PUSH1 0x80 DUP7 ADD SWAP1 DUP2 MSTORE PUSH1 0x0 PUSH1 0xA0 DUP8 ADD DUP2 DUP2 MSTORE SWAP9 DUP5 AND PUSH1 0xC0 DUP9 ADD SWAP1 DUP2 MSTORE SWAP10 DUP5 AND PUSH1 0xE0 DUP9 ADD SWAP1 DUP2 MSTORE SWAP11 DUP5 AND PUSH2 0x100 DUP9 ADD SWAP1 DUP2 MSTORE PUSH2 0x120 DUP9 ADD DUP3 DUP2 MSTORE TIMESTAMP PUSH2 0x140 DUP11 ADD MSTORE PUSH1 0xC4 CALLDATALOAD PUSH2 0x160 DUP11 ADD MSTORE PUSH1 0xE4 CALLDATALOAD PUSH2 0x180 DUP11 ADD MSTORE PUSH2 0x104 CALLDATALOAD PUSH2 0x1A0 DUP11 ADD MSTORE PUSH2 0x1C0 DUP10 ADD DUP4 SWAP1 MSTORE PUSH2 0x1E0 DUP10 ADD DUP4 SWAP1 MSTORE DUP15 DUP4 MSTORE SWAP6 DUP3 SWAP1 MSTORE SWAP14 SWAP1 KECCAK256 DUP7 MLOAD DUP2 SSTORE SWAP5 MLOAD PUSH1 0x1 DUP7 ADD DUP1 SLOAD PUSH1 0x1 PUSH1 0x1 PUSH1 0xA0 SHL SUB NOT SWAP1 DUP2 AND SWAP3 DUP7 AND SWAP3 SWAP1 SWAP3 OR SWAP1 SSTORE SWAP2 MLOAD PUSH1 0x2 DUP7 ADD DUP1 SLOAD DUP5 AND SWAP2 DUP6 AND SWAP2 SWAP1 SWAP2 OR SWAP1 SSTORE SWAP6 MLOAD PUSH1 0x3 DUP6 ADD DUP1 SLOAD DUP4 AND SWAP2 DUP5 AND SWAP2 SWAP1 SWAP2 OR SWAP1 SSTORE SWAP5 MLOAD PUSH1 0x4 DUP5 ADD DUP1 SLOAD DUP8 AND SWAP2 DUP4 AND SWAP2 SWAP1 SWAP2 OR SWAP1 SSTORE SWAP5 MLOAD PUSH1 0x5 DUP4 ADD DUP1 SLOAD DUP7 AND SWAP2 DUP8 AND SWAP2 SWAP1 SWAP2 OR SWAP1 SSTORE SWAP5 MLOAD PUSH1 0x6 DUP3 ADD DUP1 SLOAD DUP6 AND SWAP2 DUP7 AND SWAP2 SWAP1 SWAP2 OR SWAP1 SSTORE SWAP5 MLOAD PUSH1 0x7 DUP7 ADD DUP1 SLOAD DUP5 AND SWAP2 DUP6 AND SWAP2 SWAP1 SWAP2 OR SWAP1 SSTORE SWAP7 MLOAD PUSH1 0x8 DUP6 ADD DUP1 SLOAD SWAP1 SWAP3 AND SWAP3 AND SWAP2 SWAP1 SWAP2 OR DUP2 SSTORE SWAP1 MLOAD SWAP1 SWAP3 SWAP1 SWAP2 SWAP1 PUSH1 0x12 DUP4 LT ISZERO PUSH2 0x3B8 JUMPI PUSH1 0x20 SWAP6 PUSH2 0x1E0 PUSH1 0xD PUSH1 0x60 SWAP5 PUSH2 0xB98 PUSH32 0x7DB1856A9087992B8C7C25A7F1622A9B144FF325953AEE6BBB6D38D762C189F6 SWAP8 DUP11 SWAP10 PUSH2 0x1227 JUMP JUMPDEST PUSH2 0x140 DUP5 ADD MLOAD PUSH1 0x9 DUP3 ADD SSTORE PUSH2 0x160 DUP5 ADD MLOAD PUSH1 0xA DUP3 ADD SSTORE PUSH2 0x180 DUP5 ADD MLOAD PUSH1 0xB DUP3 ADD SSTORE PUSH2 0x1A0 DUP5 ADD MLOAD PUSH1 0xC DUP3 ADD SSTORE ADD SWAP2 PUSH2 0xBE3 PUSH2 0x1C0 DUP3 ADD MLOAD ISZERO ISZERO DUP5 SWAP1 PUSH1 0xFF DUP1 NOT DUP4 SLOAD AND SWAP2 ISZERO ISZERO AND OR SWAP1 SSTORE JUMP JUMPDEST ADD MLOAD DUP2 SLOAD PUSH2 0xFF00 NOT AND SWAP1 ISZERO ISZERO PUSH1 0x8 SHL PUSH2 0xFF00 AND OR SWAP1 SSTORE PUSH1 0x40 DUP1 MLOAD CALLER DUP2 MSTORE PUSH1 0x1 PUSH1 0x1 PUSH1 0xA0 SHL SUB SWAP1 SWAP3 AND DUP8 DUP4 ADD MSTORE PUSH1 0xC4 CALLDATALOAD SWAP1 DUP3 ADD MSTORE LOG2 PUSH1 0x40 MLOAD SWAP1 DUP2 MSTORE RETURN JUMPDEST PUSH4 0x4E487B71 PUSH1 0xE0 SHL PUSH1 0x0 MSTORE PUSH1 0x11 PUSH1 0x4 MSTORE PUSH1 0x24 PUSH1 0x0 REVERT JUMPDEST CALLVALUE PUSH2 0x175 JUMPI PUSH1 0x20 CALLDATASIZE PUSH1 0x3 NOT ADD SLT PUSH2 0x175 JUMPI PUSH1 0x0 PUSH2 0x1E0 PUSH2 0xC53 PUSH2 0x1289 JUMP JUMPDEST DUP3 DUP2 MSTORE DUP3 PUSH1 0x20 DUP3 ADD MSTORE DUP3 PUSH1 0x40 DUP3 ADD MSTORE DUP3 PUSH1 0x60 DUP3 ADD MSTORE DUP3 PUSH1 0x80 DUP3 ADD MSTORE DUP3 PUSH1 0xA0 DUP3 ADD MSTORE DUP3 PUSH1 0xC0 DUP3 ADD MSTORE DUP3 PUSH1 0xE0 DUP3 ADD MSTORE DUP3 PUSH2 0x100 DUP3 ADD MSTORE DUP3 PUSH2 0x120 DUP3 ADD MSTORE DUP3 PUSH2 0x140 DUP3 ADD MSTORE DUP3 PUSH2 0x160 DUP3 ADD MSTORE DUP3 PUSH2 0x180 DUP3 ADD MSTORE DUP3 PUSH2 0x1A0 DUP3 ADD MSTORE DUP3 PUSH2 0x1C0 DUP3 ADD MSTORE ADD MSTORE PUSH1 0x4 CALLDATALOAD PUSH1 0x0 MSTORE PUSH1 0x0 PUSH1 0x20 MSTORE PUSH1 0x40 PUSH1 0x0 KECCAK256 PUSH2 0xCCB PUSH2 0x1289 JUMP JUMPDEST DUP2 SLOAD DUP2 MSTORE PUSH1 0x1 DUP3 ADD SLOAD PUSH1 0x1 PUSH1 0x1 PUSH1 0xA0 SHL SUB SWAP1 DUP2 AND PUSH1 0x20 DUP4 ADD MSTORE PUSH1 0x2 DUP4 ADD SLOAD DUP2 AND PUSH1 0x40 DUP4 ADD MSTORE PUSH1 0x3 DUP4 ADD SLOAD DUP2 AND PUSH1 0x60 DUP4 ADD MSTORE PUSH1 0x4 DUP4 ADD SLOAD DUP2 AND PUSH1 0x80 DUP4 ADD MSTORE PUSH1 0x5 DUP4 ADD SLOAD DUP2 AND PUSH1 0xA0 DUP1 DUP5 ADD SWAP2 SWAP1 SWAP2 MSTORE PUSH1 0x6 DUP5 ADD SLOAD DUP3 AND PUSH1 0xC0 DUP5 ADD MSTORE PUSH1 0x7 DUP5 ADD SLOAD DUP3 AND PUSH1 0xE0 DUP5 ADD MSTORE PUSH1 0x8 DUP5 ADD SLOAD SWAP2 DUP3 AND PUSH2 0x100 DUP5 ADD MSTORE SWAP1 SWAP3 SWAP1 PUSH1 0x12 SWAP1 DUP5 SWAP1 SHR PUSH1 0xFF AND LT ISZERO PUSH2 0x3B8 JUMPI PUSH1 0xD PUSH1 0xFF SWAP2 DUP3 PUSH2 0x200 SWAP6 PUSH1 0xA0 SHR AND PUSH2 0x120 DUP6 ADD MSTORE PUSH1 0x9 DUP2 ADD SLOAD PUSH2 0x140 DUP6 ADD MSTORE PUSH1 0xA DUP2 ADD SLOAD PUSH2 0x160 DUP6 ADD MSTORE PUSH1 0xB DUP2 ADD SLOAD PUSH2 0x180 DUP6 ADD MSTORE PUSH1 0xC DUP2 ADD SLOAD PUSH2 0x1A0 DUP6 ADD MSTORE ADD SLOAD DUP2 DUP2 AND ISZERO ISZERO PUSH2 0x1C0 DUP5 ADD MSTORE PUSH1 0x8 SHR AND ISZERO ISZERO PUSH2 0x1E0 DUP3 ADD MSTORE PUSH2 0x1E0 PUSH1 0x40 MLOAD SWAP2 DUP1 MLOAD DUP4 MSTORE PUSH1 0x1 DUP1 PUSH1 0xA0 SHL SUB PUSH1 0x20 DUP3 ADD MLOAD AND PUSH1 0x20 DUP5 ADD MSTORE PUSH1 0x1 DUP1 PUSH1 0xA0 SHL SUB PUSH1 0x40 DUP3 ADD MLOAD AND PUSH1 0x40 DUP5 ADD MSTORE PUSH1 0x1 DUP1 PUSH1 0xA0 SHL SUB PUSH1 0x60 DUP3 ADD MLOAD AND PUSH1 0x60 DUP5 ADD MSTORE PUSH1 0x1 DUP1 PUSH1 0xA0 SHL SUB PUSH1 0x80 DUP3 ADD MLOAD AND PUSH1 0x80 DUP5 ADD MSTORE PUSH1 0x1 DUP1 PUSH1 0xA0 SHL SUB PUSH1 0xA0 DUP3 ADD MLOAD AND PUSH1 0xA0 DUP5 ADD MSTORE PUSH1 0x1 DUP1 PUSH1 0xA0 SHL SUB PUSH1 0xC0 DUP3 ADD MLOAD AND PUSH1 0xC0 DUP5 ADD MSTORE PUSH1 0x1 DUP1 PUSH1 0xA0 SHL SUB PUSH1 0xE0 DUP3 ADD MLOAD AND PUSH1 0xE0 DUP5 ADD MSTORE PUSH1 0x1 DUP1 PUSH1 0xA0 SHL SUB PUSH2 0x100 DUP3 ADD MLOAD AND PUSH2 0x100 DUP5 ADD MSTORE PUSH2 0xE5A PUSH2 0x120 DUP3 ADD MLOAD PUSH2 0x120 DUP6 ADD SWAP1 PUSH2 0x11DE JUMP JUMPDEST PUSH2 0x140 DUP2 ADD MLOAD PUSH2 0x140 DUP5 ADD MSTORE PUSH2 0x160 DUP2 ADD MLOAD PUSH2 0x160 DUP5 ADD MSTORE PUSH2 0x180 DUP2 ADD MLOAD PUSH2 0x180 DUP5 ADD MSTORE PUSH2 0x1A0 DUP2 ADD MLOAD PUSH2 0x1A0 DUP5 ADD MSTORE PUSH2 0x1C0 DUP2 ADD MLOAD ISZERO ISZERO PUSH2 0x1C0 DUP5 ADD MSTORE ADD MLOAD ISZERO ISZERO PUSH2 0x1E0 DUP3 ADD MSTORE RETURN JUMPDEST CALLVALUE PUSH2 0x175 JUMPI PUSH1 0x20 CALLDATASIZE PUSH1 0x3 NOT ADD SLT PUSH2 0x175 JUMPI PUSH1 0x4 DUP1 CALLDATALOAD PUSH1 0x0 SWAP1 DUP2 MSTORE PUSH1 0x20 DUP2 DUP2 MSTORE PUSH1 0x40 SWAP2 DUP3 SWAP1 KECCAK256 DUP1 SLOAD PUSH1 0x1 DUP3 ADD SLOAD PUSH1 0x2 DUP4 ADD SLOAD PUSH1 0x3 DUP5 ADD SLOAD SWAP7 DUP5 ADD SLOAD PUSH1 0x5 DUP6 ADD SLOAD PUSH1 0x6 DUP7 ADD SLOAD PUSH1 0x7 DUP8 ADD SLOAD PUSH1 0x8 DUP9 ADD SLOAD PUSH1 0x9 DUP10 ADD SLOAD PUSH1 0xA DUP11 ADD SLOAD PUSH1 0xB DUP12 ADD SLOAD PUSH1 0xC DUP13 ADD SLOAD PUSH1 0xD SWAP1 SWAP13 ADD SLOAD DUP15 MLOAD SWAP12 DUP13 MSTORE PUSH1 0x1 PUSH1 0x1 PUSH1 0xA0 SHL SUB SWAP11 DUP12 AND SWAP14 DUP13 ADD SWAP14 SWAP1 SWAP14 MSTORE SWAP8 DUP10 AND SWAP13 DUP11 ADD SWAP13 SWAP1 SWAP13 MSTORE SWAP12 DUP8 AND PUSH1 0x60 DUP10 ADD MSTORE SWAP4 DUP7 AND PUSH1 0x80 DUP9 ADD MSTORE SWAP2 DUP6 AND PUSH1 0xA0 DUP1 DUP9 ADD SWAP2 SWAP1 SWAP2 MSTORE SWAP1 DUP6 AND PUSH1 0xC0 DUP8 ADD MSTORE SWAP1 DUP5 AND PUSH1 0xE0 DUP7 ADD MSTORE SWAP3 DUP2 AND PUSH2 0x100 DUP6 ADD MSTORE SWAP3 SWAP7 SWAP5 SWAP6 SWAP4 SWAP5 SWAP1 SWAP4 SWAP3 SWAP1 SWAP2 PUSH2 0xF80 SWAP2 PUSH2 0x120 DUP10 ADD SWAP2 SHR PUSH1 0xFF AND PUSH2 0x11DE JUMP JUMPDEST PUSH2 0x140 DUP7 ADD MSTORE PUSH2 0x160 DUP6 ADD MSTORE PUSH2 0x180 DUP5 ADD MSTORE PUSH2 0x1A0 DUP4 ADD MSTORE PUSH1 0xFF DUP2 AND ISZERO ISZERO PUSH2 0x1C0 DUP4 ADD MSTORE PUSH1 0x8 SHR PUSH1 0xFF AND ISZERO ISZERO PUSH2 0x1E0 DUP3 ADD MSTORE PUSH2 0x200 SWAP1 RETURN JUMPDEST CALLVALUE PUSH2 0x175 JUMPI PUSH1 0x40 CALLDATASIZE PUSH1 0x3 NOT ADD SLT PUSH2 0x175 JUMPI PUSH1 0x4 CALLDATALOAD PUSH2 0xFD4 PUSH2 0x11B2 JUMP JUMPDEST DUP2 PUSH1 0x0 MSTORE PUSH1 0x0 PUSH1 0x20 MSTORE PUSH1 0x40 PUSH1 0x0 KECCAK256 PUSH1 0x1 DUP1 PUSH1 0xA0 SHL SUB SWAP1 PUSH2 0xFFB DUP3 PUSH1 0x1 DUP4 ADD SLOAD AND CALLER EQ PUSH2 0x11EB JUMP JUMPDEST PUSH1 0x8 DUP2 ADD DUP1 SLOAD PUSH1 0xFF DUP2 PUSH1 0xA0 SHR AND SWAP3 PUSH1 0x12 DUP5 LT ISZERO PUSH2 0x3B8 JUMPI PUSH1 0x5 DUP5 SUB PUSH2 0x109F JUMPI PUSH32 0x2C66F56EAE5B05D816C95CD687F6688B9DF61F75E38F75CB9CC3A190358C5B64 PUSH1 0x20 DUP9 SWAP3 PUSH1 0x5 PUSH1 0x40 SWAP9 PUSH1 0x0 DUP1 MLOAD PUSH1 0x20 PUSH2 0x12C1 DUP4 CODECOPY DUP2 MLOAD SWAP2 MSTORE SWAP11 AND SWAP2 PUSH2 0x1061 DUP4 ISZERO ISZERO PUSH2 0x124B JUMP JUMPDEST ADD DUP1 SLOAD PUSH1 0x1 PUSH1 0x1 PUSH1 0xA0 SHL SUB NOT AND DUP3 OR SWAP1 SSTORE DUP8 MLOAD SWAP1 DUP2 MSTORE LOG2 PUSH1 0xFF PUSH1 0xA0 SHL NOT AND PUSH1 0x3 PUSH1 0xA1 SHL OR SWAP1 SSTORE DUP2 MLOAD SWAP1 PUSH2 0x1095 SWAP1 DUP3 SWAP1 PUSH2 0x11DE JUMP JUMPDEST PUSH1 0x6 PUSH1 0x20 DUP3 ADD MSTORE LOG2 STOP JUMPDEST PUSH1 0x40 MLOAD PUSH3 0x461BCD PUSH1 0xE5 SHL DUP2 MSTORE PUSH1 0x20 PUSH1 0x4 DUP3 ADD MSTORE PUSH1 0x14 PUSH1 0x24 DUP3 ADD MSTORE PUSH20 0x119D5B991CC81B9BDD081B1BD8DAD959081E595D PUSH1 0x62 SHL PUSH1 0x44 DUP3 ADD MSTORE PUSH1 0x64 SWAP1 REVERT JUMPDEST CALLVALUE PUSH2 0x175 JUMPI PUSH1 0x20 CALLDATASIZE PUSH1 0x3 NOT ADD SLT PUSH2 0x175 JUMPI PUSH1 0x4 CALLDATALOAD DUP1 PUSH1 0x0 MSTORE PUSH1 0x0 PUSH1 0x20 MSTORE PUSH1 0x8 PUSH1 0x40 PUSH1 0x0 KECCAK256 PUSH2 0x1116 PUSH1 0x1 DUP1 PUSH1 0xA0 SHL SUB PUSH1 0x1 DUP4 ADD SLOAD AND CALLER EQ PUSH2 0x11EB JUMP JUMPDEST ADD DUP1 SLOAD PUSH1 0xFF DUP2 PUSH1 0xA0 SHR AND PUSH1 0x12 DUP2 LT ISZERO PUSH2 0x3B8 JUMPI PUSH1 0x1 DUP2 EQ DUP1 ISZERO PUSH2 0x11AA JUMPI JUMPDEST ISZERO PUSH2 0x1174 JUMPI PUSH1 0xFF PUSH1 0xA0 SHL NOT SWAP1 SWAP2 AND PUSH1 0x1 PUSH1 0xA1 SHL OR SWAP1 SWAP2 SSTORE PUSH1 0x40 DUP1 MLOAD PUSH1 0x0 DUP1 MLOAD PUSH1 0x20 PUSH2 0x12C1 DUP4 CODECOPY DUP2 MLOAD SWAP2 MSTORE SWAP3 PUSH2 0x116A SWAP1 DUP3 SWAP1 PUSH2 0x11DE JUMP JUMPDEST PUSH1 0x2 PUSH1 0x20 DUP3 ADD MSTORE LOG2 STOP JUMPDEST PUSH1 0x40 MLOAD PUSH3 0x461BCD PUSH1 0xE5 SHL DUP2 MSTORE PUSH1 0x20 PUSH1 0x4 DUP3 ADD MSTORE PUSH1 0xE PUSH1 0x24 DUP3 ADD MSTORE PUSH14 0x496E76616C696420737461747573 PUSH1 0x90 SHL PUSH1 0x44 DUP3 ADD MSTORE PUSH1 0x64 SWAP1 REVERT JUMPDEST POP DUP1 ISZERO PUSH2 0x1134 JUMP JUMPDEST PUSH1 0x24 CALLDATALOAD SWAP1 PUSH1 0x1 PUSH1 0x1 PUSH1 0xA0 SHL SUB DUP3 AND DUP3 SUB PUSH2 0x175 JUMPI JUMP JUMPDEST PUSH1 0x4 CALLDATALOAD SWAP1 PUSH1 0x1 PUSH1 0x1 PUSH1 0xA0 SHL SUB DUP3 AND DUP3 SUB PUSH2 0x175 JUMPI JUMP JUMPDEST SWAP1 PUSH1 0x12 DUP3 LT ISZERO PUSH2 0x3B8 JUMPI MSTORE JUMP JUMPDEST ISZERO PUSH2 0x11F2 JUMPI JUMP JUMPDEST PUSH1 0x40 MLOAD PUSH3 0x461BCD PUSH1 0xE5 SHL DUP2 MSTORE PUSH1 0x20 PUSH1 0x4 DUP3 ADD MSTORE PUSH1 0xD PUSH1 0x24 DUP3 ADD MSTORE PUSH13 0x27B7363C9034B6B837B93A32B9 PUSH1 0x99 SHL PUSH1 0x44 DUP3 ADD MSTORE PUSH1 0x64 SWAP1 REVERT JUMPDEST SWAP1 PUSH1 0x12 DUP2 LT ISZERO PUSH2 0x3B8 JUMPI DUP2 SLOAD PUSH1 0xFF PUSH1 0xA0 SHL NOT AND PUSH1 0xA0 SWAP2 SWAP1 SWAP2 SHL PUSH1 0xFF PUSH1 0xA0 SHL AND OR SWAP1 SSTORE JUMP JUMPDEST ISZERO PUSH2 0x1252 JUMPI JUMP JUMPDEST PUSH1 0x40 MLOAD PUSH3 0x461BCD PUSH1 0xE5 SHL DUP2 MSTORE PUSH1 0x20 PUSH1 0x4 DUP3 ADD MSTORE PUSH1 0xF PUSH1 0x24 DUP3 ADD MSTORE PUSH15 0x496E76616C69642061646472657373 PUSH1 0x88 SHL PUSH1 0x44 DUP3 ADD MSTORE PUSH1 0x64 SWAP1 REVERT JUMPDEST PUSH1 0x40 MLOAD SWAP1 PUSH2 0x200 DUP3 ADD DUP3 DUP2 LT PUSH8 0xFFFFFFFFFFFFFFFF DUP3 GT OR PUSH2 0x12AA JUMPI PUSH1 0x40 MSTORE JUMP JUMPDEST PUSH4 0x4E487B71 PUSH1 0xE0 SHL PUSH1 0x0 MSTORE PUSH1 0x41 PUSH1 0x4 MSTORE PUSH1 0x24 PUSH1 0x0 REVERT INVALID 0xFC 0xB8 0x2C JUMP PUSH5 0xD9B8CA92B3 ADDMOD PUSH25 0xBDDEA2BB0FC8804C7AC6DC8F781A1CD8B94E8EFFA264697066 PUSH20 0x5822122065AF8DF8B9F8F310B5BBB7B5DF931FA6 0xC7 SAR EQ 0xEB 0xE1 DIV REVERT DUP14 SWAP6 0xC4 SWAP16 SWAP12 PUSH15 0x65582D64736F6C6343000818003300 "},"methodIdentifiers":{"assignAdvisingBank(uint256,address)":"d5ddd890","assignShippingCompany(uint256,address)":"14feba52","authorizedContracts(address)":"d5b9221b","confirmTrade(uint256)":"9ec0507f","createTrade(address,address,address,address,address,address,uint256,uint256,uint256)":"38ccdb89","getTrade(uint256)":"2db25e05","nextTradeId()":"813ad083","owner()":"8da5cb5b","raiseDispute(uint256)":"a5c1674e","requestLetterOfCredit(uint256)":"0a09ef38","setAuthorizedContract(address,bool)":"f2fa7392","trades(uint256)":"1e6c598e","triggerSLABreachRevert(uint256)":"d19cd4ca","updateStatus(uint256,uint8)":"3a1b3d31"}}}}}