{"contracts/LetterOfCredit.sol":{"LetterOfCredit":{"abi":[{"inputs":[{"internalType":"address","name":"_tradeRegistry","type":"address"}],"stateMutability":"nonpayable","type":"constructor"},{"anonymous":false,"inputs":[{"indexed":true,"internalType":"uint256","name":"tradeId","type":"uint256"},{"indexed":false,"internalType":"uint256","name":"amount","type":"uint256"}],"name":"FundsLocked","type":"event"},{"anonymous":false,"inputs":[{"indexed":true,"internalType":"uint256","name":"tradeId","type":"uint256"},{"indexed":false,"internalType":"address","name":"approvedBy","type":"address"}],"name":"LoCApproved","type":"event"},{"anonymous":false,"inputs":[{"indexed":true,"internalType":"uint256","name":"tradeId","type":"uint256"},{"indexed":false,"internalType":"string","name":"ipfsHash","type":"string"},{"indexed":false,"internalType":"address","name":"uploadedBy","type":"address"}],"name":"LoCDocumentUploaded","type":"event"},{"inputs":[{"internalType":"uint256","name":"_tradeId","type":"uint256"}],"name":"approveLoC","outputs":[],"stateMutability":"nonpayable","type":"function"},{"inputs":[{"internalType":"uint256","name":"_tradeId","type":"uint256"}],"name":"getLoC","outputs":[{"components":[{"internalType":"uint256","name":"tradeId","type":"uint256"},{"internalType":"uint256","name":"amount","type":"uint256"},{"internalType":"uint256","name":"expiry","type":"uint256"},{"internalType":"string","name":"locDocIpfsHash","type":"string"},{"internalType":"bool","name":"isUploaded","type":"bool"},{"internalType":"bool","name":"isApproved","type":"bool"},{"internalType":"bool","name":"fundsLocked","type":"bool"}],"internalType":"struct LetterOfCredit.LoC","name":"","type":"tuple"}],"stateMutability":"view","type":"function"},{"inputs":[{"internalType":"uint256","name":"_tradeId","type":"uint256"}],"name":"lockFunds","outputs":[],"stateMutability":"nonpayable","type":"function"},{"inputs":[{"internalType":"uint256","name":"","type":"uint256"}],"name":"locs","outputs":[{"internalType":"uint256","name":"tradeId","type":"uint256"},{"internalType":"uint256","name":"amount","type":"uint256"},{"internalType":"uint256","name":"expiry","type":"uint256"},{"internalType":"string","name":"locDocIpfsHash","type":"string"},{"internalType":"bool","name":"isUploaded","type":"bool"},{"internalType":"bool","name":"isApproved","type":"bool"},{"internalType":"bool","name":"fundsLocked","type":"bool"}],"stateMutability":"view","type":"function"},{"inputs":[],"name":"tradeRegistry","outputs":[{"internalType":"contract TradeRegistry","name":"","type":"address"}],"stateMutability":"view","type":"function"},{"inputs":[{"internalType":"uint256","name":"_tradeId","type":"uint256"},{"internalType":"uint256","name":"_expiry","type":"uint256"},{"internalType":"string","name":"_ipfsHash","type":"string"}],"name":"uploadLocDocument","outputs":[],"stateMutability":"nonpayable","type":"function"}],"evm":{"bytecode":{"linkReferences":{},"object":"60803461007457601f610fd238819003918201601f19168301916001600160401b038311848410176100795780849260209460405283398101031261007457516001600160a01b0381169081900361007457600080546001600160a01b031916919091179055604051610f4290816100908239f35b600080fd5b634e487b7160e01b600052604160045260246000fdfe6080604052600436101561001257600080fd5b6000803560e01c806379f3ca1814610b5c5780638c8f95fb146109045780639522f50b146107f8578063b6d7957c14610364578063d6e4fca1146100885763dbd973081461005f57600080fd5b34610085578060031936011261008557546040516001600160a01b039091168152602090f35b80fd5b503461008557602080600319360112610360578154604051632db25e0560e01b8082526004803590830181905293926024926001600160a01b03926102009284169183818781865afa9081156103555785916080918b91610338575b5001511633036102e9578290856040518094819382528a60048301525afa9081156102de576101209288926102b1575b50500151601281101561029e57600303610263578385526001835260046040862001805460ff81161561021f5760ff8160081c166101e45761ff00191661010017905584548592911690813b156101d557600460448492836040519586948593633a1b3d3160e01b85528b828601528401525af180156101d9576101c1575b50507fca742b7bb2235c20491bfdfc19bc2a8bc509627ad2a24e87b12a79582ab1e13990604051338152a280f35b6101ca90610c25565b6101d5578238610193565b8280fd5b6040513d84823e3d90fd5b60405162461bcd60e51b81526004810186905260148186015273131bd0c8185b1c9958591e48185c1c1c9bdd995960621b6044820152606490fd5b60405162461bcd60e51b8152600481018690526019818601527f4c6f4320646f63756d656e74206e6f742075706c6f61646564000000000000006044820152606490fd5b60405162461bcd60e51b81526004810184905260148184015273131bd0c81b9bdd081e595d081d5c1b1bd859195960621b6044820152606490fd5b634e487b7160e01b865260216004528286fd5b6102d09250803d106102d7575b6102c88183610c6b565b810190610d98565b3880610114565b503d6102be565b6040513d89823e3d90fd5b60405162461bcd60e51b8152600481018790526022818701527f4f6e6c79206164766973696e672062616e6b20286578706f727465722062616e6044820152616b2960f01b6064820152608490fd5b61034f9150863d88116102d7576102c88183610c6b565b386100e4565b6040513d8b823e3d90fd5b5080fd5b50346100855760603660031901126100855760443567ffffffffffffffff8082116101d557366023830112156101d557808260040135116101d5573660248360040135840101116101d5578254604051632db25e0560e01b8082526004803590830152610200926001600160a01b031691908382602481865afa9182156102de5784926104079189916107db575b50606001516001600160a01b03163314610eb6565b602460405180948193825260043560048301525afa9182156107d05785926107b3575b5050610120810151601281101561079f5760020361074c57826004013515610712576101600151906040519161045f83610c4f565b6004358352602083015260243560408301526040519061048d6020601f19601f876004013501160183610c6b565b600484013580835260248501602084013784602085600401358401015260608301918252600160808401528460a08401528460c08401526004358552600160205260408520918351835560208401516001840155604084015160028401555180519182116106fe576105026003840154610beb565b601f81116106ba575b50602090601f831160011461064a57600493929187918361063f575b50508160011b916000199060031b1c19161760038201555b01906080810151151590825460ff62ff000060c061ff0060a0860151151560081b16940151151560101b1693169062ffffff191617171790558160018060a01b03815416803b1561036057818091604460405180948193633a1b3d3160e01b83526004356004840152600360248401525af180156101d95761062b575b50507f31f17bf00d8fa4c943b21b0a17f5f8dbad519fc19035eccd472fd10af44584c66040516040815282600401356040820152826004013560248401606083013783606084600401358301015233602082015260608160043594601f8019916004013501168101030190a280f35b61063490610c25565b6103605781386105bc565b015190503880610527565b906003840187526020872091875b601f19851681106106a2575091839160019360049695601f19811610610689575b505050811b01600382015561053f565b015160001960f88460031b161c19169055388080610679565b91926020600181928685015181550194019201610658565b60038401875260208720601f840160051c8101602085106106f7575b601f830160051c820181106106ec57505061050b565b8881556001016106d6565b50806106d6565b634e487b7160e01b86526041600452602486fd5b60405162461bcd60e51b815260206004820152601260248201527112541194c81a185cda081c995c5d5a5c995960721b6044820152606490fd5b60405162461bcd60e51b815260206004820152602560248201527f5472616465206d75737420626520696e204c4f435f494e495449415445442073604482015264746174757360d81b6064820152608490fd5b634e487b7160e01b85526021600452602485fd5b6107c99250803d106102d7576102c88183610c6b565b388061042a565b6040513d87823e3d90fd5b6107f29150843d86116102d7576102c88183610c6b565b386103f2565b50346100855760209081600319360112610085578060409160c0835161081d81610c4f565b828152828682015282858201526060808201528260808201528260a08201520152600435815260018352206040519061085582610c4f565b80548252600181015490838301918252600281015491604084019283526108e7600461088360038501610c8d565b9360608701948552015492608086019460ff85161515865260a087019360ff8660081c161515855260ff60c089019660101c1615158652604051988998818a5251908901525160408801525160608701525160e06080870152610100860190610d32565b9251151560a085015251151560c084015251151560e08301520390f35b5034610085576020366003190112610085578054604051632db25e0560e01b80825260048035908301819052926001600160a01b0392602492610200928516919083828681865afa918215610b5157866060869461096e938c91610b34575b500151163314610eb6565b846040518094819382528960048301525afa908115610b2957610120928792610b0c575b505001516012811015610af957600403610abe578284526001602052604084209160048301805460ff8160101c16610a835762ff0000191662010000179055845416908490823b15610360576044600591836040519586948593633a1b3d3160e01b85528a60048601528401525af18015610a7857610a3f575b50602060017fbedc4e5ac6876307c4b4b5761039aa2ebce89052490a34e15cc655d9142ba0dc920154604051908152a280f35b60017fbedc4e5ac6876307c4b4b5761039aa2ebce89052490a34e15cc655d9142ba0dc9294610a6f602093610c25565b94925050610a0c565b6040513d86823e3d90fd5b60405162461bcd60e51b81526020600482015260148186015273119d5b991cc8185b1c9958591e481b1bd8dad95960621b6044820152606490fd5b60649060146040519162461bcd60e51b83526020600484015282015273131bd0c81b9bdd08185c1c1c9bdd9959081e595d60621b6044820152fd5b50634e487b7160e01b8452602160045283fd5b610b229250803d106102d7576102c88183610c6b565b3880610992565b6040513d88823e3d90fd5b610b4b9150863d88116102d7576102c88183610c6b565b38610963565b6040513d8a823e3d90fd5b5034610085576020366003190112610085576040906004358152600160205220805460018201549160ff610bc46002830154926004610b9d60038301610c8d565b9101549360405196879687526020870152604086015260e0606086015260e0850190610d32565b9181811615156080850152818160081c16151560a085015260101c16151560c08301520390f35b90600182811c92168015610c1b575b6020831014610c0557565b634e487b7160e01b600052602260045260246000fd5b91607f1691610bfa565b67ffffffffffffffff8111610c3957604052565b634e487b7160e01b600052604160045260246000fd5b60e0810190811067ffffffffffffffff821117610c3957604052565b90601f8019910116810190811067ffffffffffffffff821117610c3957604052565b90604051918260008254610ca081610beb565b90818452602094600191600181169081600014610d105750600114610cd1575b505050610ccf92500383610c6b565b565b600090815285812095935091905b818310610cf8575050610ccf9350820101388080610cc0565b85548884018501529485019487945091830191610cdf565b92505050610ccf94925060ff191682840152151560051b820101388080610cc0565b919082519283825260005b848110610d5e575050826000602080949584010152601f8019910116010190565b602081830181015184830182015201610d3d565b51906001600160a01b0382168203610d8657565b600080fd5b51908115158203610d8657565b80916102009283910312610d865760405191820182811067ffffffffffffffff821117610c395760405280518252610dd260208201610d72565b6020830152610de360408201610d72565b6040830152610df460608201610d72565b6060830152610e0560808201610d72565b6080830152610e1660a08201610d72565b60a0830152610e2760c08201610d72565b60c0830152610e3860e08201610d72565b60e0830152610100610e4b818301610d72565b9083015261012080820151906012821015610d86578301526101408082015190830152610160808201519083015261018080820151908301526101a080820151908301526101c0610e9d818301610d8b565b90830152610eaf6101e0809201610d8b565b9082015290565b15610ebd57565b60405162461bcd60e51b815260206004820152602160248201527f4f6e6c792069737375696e672062616e6b2028696d706f727465722062616e6b6044820152602960f81b6064820152608490fdfea26469706673582212203e45ee76f737f16ff9ae1ace33e3ff3a03bc1f81128f4c94bd178a27815f0a4964736f6c63430008180033","opcodes":"PUSH1 0x80 CALLVALUE PUSH2 0x74 JUMPI PUSH1 0x1F PUSH2 0xFD2 CODESIZE DUP2 SWAP1 SUB SWAP2 DUP3 ADD PUSH1 0x1F NOT AND DUP4 ADD SWAP2 PUSH1 0x1 PUSH1 0x1 PUSH1 0x40 SHL SUB DUP4 GT DUP5 DUP5 LT OR PUSH2 0x79 JUMPI DUP1 DUP5 SWAP3 PUSH1 0x20 SWAP5 PUSH1 0x40 MSTORE DUP4 CODECOPY DUP2 ADD SUB SLT PUSH2 0x74 JUMPI MLOAD PUSH1 0x1 PUSH1 0x1 PUSH1 0xA0 SHL SUB DUP2 AND SWAP1 DUP2 SWAP1 SUB PUSH2 0x74 JUMPI PUSH1 0x0 DUP1 SLOAD PUSH1 0x1 PUSH1 0x1 PUSH1 0xA0 SHL SUB NOT AND SWAP2 SWAP1 SWAP2 OR SWAP1 SSTORE PUSH1 0x40 MLOAD PUSH2 0xF42 SWAP1 DUP2 PUSH2 0x90 DUP3 CODECOPY RETURN JUMPDEST PUSH1 0x0 DUP1 REVERT JUMPDEST PUSH4 0x4E487B71 PUSH1 0xE0 SHL PUSH1 0x0 MSTORE PUSH1 0x41 PUSH1 0x4 MSTORE PUSH1 0x24 PUSH1 0x0 REVERT INVALID PUSH1 0x80 PUSH1 0x40 MSTORE PUSH1 0x4 CALLDATASIZE LT ISZERO PUSH2 0x12 JUMPI PUSH1 0x0 DUP1 REVERT JUMPDEST PUSH1 0x0 DUP1 CALLDATALOAD PUSH1 0xE0 SHR DUP1 PUSH4 0x79F3CA18 EQ PUSH2 0xB5C JUMPI DUP1 PUSH4 0x8C8F95FB EQ PUSH2 0x904 JUMPI DUP1 PUSH4 0x9522F50B EQ PUSH2 0x7F8 JUMPI DUP1 PUSH4 0xB6D7957C EQ PUSH2 0x364 JUMPI DUP1 PUSH4 0xD6E4FCA1 EQ PUSH2 0x88 JUMPI PUSH4 0xDBD97308 EQ PUSH2 0x5F JUMPI PUSH1 0x0 DUP1 REVERT JUMPDEST CALLVALUE PUSH2 0x85 JUMPI DUP1 PUSH1 0x3 NOT CALLDATASIZE ADD SLT PUSH2 0x85 JUMPI SLOAD PUSH1 0x40 MLOAD PUSH1 0x1 PUSH1 0x1 PUSH1 0xA0 SHL SUB SWAP1 SWAP2 AND DUP2 MSTORE PUSH1 0x20 SWAP1 RETURN JUMPDEST DUP1 REVERT JUMPDEST POP CALLVALUE PUSH2 0x85 JUMPI PUSH1 0x20 DUP1 PUSH1 0x3 NOT CALLDATASIZE ADD SLT PUSH2 0x360 JUMPI DUP2 SLOAD PUSH1 0x40 MLOAD PUSH4 0x2DB25E05 PUSH1 0xE0 SHL DUP1 DUP3 MSTORE PUSH1 0x4 DUP1 CALLDATALOAD SWAP1 DUP4 ADD DUP2 SWAP1 MSTORE SWAP4 SWAP3 PUSH1 0x24 SWAP3 PUSH1 0x1 PUSH1 0x1 PUSH1 0xA0 SHL SUB SWAP3 PUSH2 0x200 SWAP3 DUP5 AND SWAP2 DUP4 DUP2 DUP8 DUP2 DUP7 GAS STATICCALL SWAP1 DUP2 ISZERO PUSH2 0x355 JUMPI DUP6 SWAP2 PUSH1 0x80 SWAP2 DUP12 SWAP2 PUSH2 0x338 JUMPI JUMPDEST POP ADD MLOAD AND CALLER SUB PUSH2 0x2E9 JUMPI DUP3 SWAP1 DUP6 PUSH1 0x40 MLOAD DUP1 SWAP5 DUP2 SWAP4 DUP3 MSTORE DUP11 PUSH1 0x4 DUP4 ADD MSTORE GAS STATICCALL SWAP1 DUP2 ISZERO PUSH2 0x2DE JUMPI PUSH2 0x120 SWAP3 DUP9 SWAP3 PUSH2 0x2B1 JUMPI JUMPDEST POP POP ADD MLOAD PUSH1 0x12 DUP2 LT ISZERO PUSH2 0x29E JUMPI PUSH1 0x3 SUB PUSH2 0x263 JUMPI DUP4 DUP6 MSTORE PUSH1 0x1 DUP4 MSTORE PUSH1 0x4 PUSH1 0x40 DUP7 KECCAK256 ADD DUP1 SLOAD PUSH1 0xFF DUP2 AND ISZERO PUSH2 0x21F JUMPI PUSH1 0xFF DUP2 PUSH1 0x8 SHR AND PUSH2 0x1E4 JUMPI PUSH2 0xFF00 NOT AND PUSH2 0x100 OR SWAP1 SSTORE DUP5 SLOAD DUP6 SWAP3 SWAP2 AND SWAP1 DUP2 EXTCODESIZE ISZERO PUSH2 0x1D5 JUMPI PUSH1 0x4 PUSH1 0x44 DUP5 SWAP3 DUP4 PUSH1 0x40 MLOAD SWAP6 DUP7 SWAP5 DUP6 SWAP4 PUSH4 0x3A1B3D31 PUSH1 0xE0 SHL DUP6 MSTORE DUP12 DUP3 DUP7 ADD MSTORE DUP5 ADD MSTORE GAS CALL DUP1 ISZERO PUSH2 0x1D9 JUMPI PUSH2 0x1C1 JUMPI JUMPDEST POP POP PUSH32 0xCA742B7BB2235C20491BFDFC19BC2A8BC509627AD2A24E87B12A79582AB1E139 SWAP1 PUSH1 0x40 MLOAD CALLER DUP2 MSTORE LOG2 DUP1 RETURN JUMPDEST PUSH2 0x1CA SWAP1 PUSH2 0xC25 JUMP JUMPDEST PUSH2 0x1D5 JUMPI DUP3 CODESIZE PUSH2 0x193 JUMP JUMPDEST DUP3 DUP1 REVERT JUMPDEST PUSH1 0x40 MLOAD RETURNDATASIZE DUP5 DUP3 RETURNDATACOPY RETURNDATASIZE SWAP1 REVERT JUMPDEST PUSH1 0x40 MLOAD PUSH3 0x461BCD PUSH1 0xE5 SHL DUP2 MSTORE PUSH1 0x4 DUP2 ADD DUP7 SWAP1 MSTORE PUSH1 0x14 DUP2 DUP7 ADD MSTORE PUSH20 0x131BD0C8185B1C9958591E48185C1C1C9BDD9959 PUSH1 0x62 SHL PUSH1 0x44 DUP3 ADD MSTORE PUSH1 0x64 SWAP1 REVERT JUMPDEST PUSH1 0x40 MLOAD PUSH3 0x461BCD PUSH1 0xE5 SHL DUP2 MSTORE PUSH1 0x4 DUP2 ADD DUP7 SWAP1 MSTORE PUSH1 0x19 DUP2 DUP7 ADD MSTORE PUSH32 0x4C6F4320646F63756D656E74206E6F742075706C6F6164656400000000000000 PUSH1 0x44 DUP3 ADD MSTORE PUSH1 0x64 SWAP1 REVERT JUMPDEST PUSH1 0x40 MLOAD PUSH3 0x461BCD PUSH1 0xE5 SHL DUP2 MSTORE PUSH1 0x4 DUP2 ADD DUP5 SWAP1 MSTORE PUSH1 0x14 DUP2 DUP5 ADD MSTORE PUSH20 0x131BD0C81B9BDD081E595D081D5C1B1BD8591959 PUSH1 0x62 SHL PUSH1 0x44 DUP3 ADD MSTORE PUSH1 0x64 SWAP1 REVERT JUMPDEST PUSH4 0x4E487B71 PUSH1 0xE0 SHL DUP7 MSTORE PUSH1 0x21 PUSH1 0x4 MSTORE DUP3 DUP7 REVERT JUMPDEST PUSH2 0x2D0 SWAP3 POP DUP1 RETURNDATASIZE LT PUSH2 0x2D7 JUMPI JUMPDEST PUSH2 0x2C8 DUP2 DUP4 PUSH2 0xC6B JUMP JUMPDEST DUP2 ADD SWAP1 PUSH2 0xD98 JUMP JUMPDEST CODESIZE DUP1 PUSH2 0x114 JUMP JUMPDEST POP RETURNDATASIZE PUSH2 0x2BE JUMP JUMPDEST PUSH1 0x40 MLOAD RETURNDATASIZE DUP10 DUP3 RETURNDATACOPY RETURNDATASIZE SWAP1 REVERT JUMPDEST PUSH1 0x40 MLOAD PUSH3 0x461BCD PUSH1 0xE5 SHL DUP2 MSTORE PUSH1 0x4 DUP2 ADD DUP8 SWAP1 MSTORE PUSH1 0x22 DUP2 DUP8 ADD MSTORE PUSH32 0x4F6E6C79206164766973696E672062616E6B20286578706F727465722062616E PUSH1 0x44 DUP3 ADD MSTORE PUSH2 0x6B29 PUSH1 0xF0 SHL PUSH1 0x64 DUP3 ADD MSTORE PUSH1 0x84 SWAP1 REVERT JUMPDEST PUSH2 0x34F SWAP2 POP DUP7 RETURNDATASIZE DUP9 GT PUSH2 0x2D7 JUMPI PUSH2 0x2C8 DUP2 DUP4 PUSH2 0xC6B JUMP JUMPDEST CODESIZE PUSH2 0xE4 JUMP JUMPDEST PUSH1 0x40 MLOAD RETURNDATASIZE DUP12 DUP3 RETURNDATACOPY RETURNDATASIZE SWAP1 REVERT JUMPDEST POP DUP1 REVERT JUMPDEST POP CALLVALUE PUSH2 0x85 JUMPI PUSH1 0x60 CALLDATASIZE PUSH1 0x3 NOT ADD SLT PUSH2 0x85 JUMPI PUSH1 0x44 CALLDATALOAD PUSH8 0xFFFFFFFFFFFFFFFF DUP1 DUP3 GT PUSH2 0x1D5 JUMPI CALLDATASIZE PUSH1 0x23 DUP4 ADD SLT ISZERO PUSH2 0x1D5 JUMPI DUP1 DUP3 PUSH1 0x4 ADD CALLDATALOAD GT PUSH2 0x1D5 JUMPI CALLDATASIZE PUSH1 0x24 DUP4 PUSH1 0x4 ADD CALLDATALOAD DUP5 ADD ADD GT PUSH2 0x1D5 JUMPI DUP3 SLOAD PUSH1 0x40 MLOAD PUSH4 0x2DB25E05 PUSH1 0xE0 SHL DUP1 DUP3 MSTORE PUSH1 0x4 DUP1 CALLDATALOAD SWAP1 DUP4 ADD MSTORE PUSH2 0x200 SWAP3 PUSH1 0x1 PUSH1 0x1 PUSH1 0xA0 SHL SUB AND SWAP2 SWAP1 DUP4 DUP3 PUSH1 0x24 DUP2 DUP7 GAS STATICCALL SWAP2 DUP3 ISZERO PUSH2 0x2DE JUMPI DUP5 SWAP3 PUSH2 0x407 SWAP2 DUP10 SWAP2 PUSH2 0x7DB JUMPI JUMPDEST POP PUSH1 0x60 ADD MLOAD PUSH1 0x1 PUSH1 0x1 PUSH1 0xA0 SHL SUB AND CALLER EQ PUSH2 0xEB6 JUMP JUMPDEST PUSH1 0x24 PUSH1 0x40 MLOAD DUP1 SWAP5 DUP2 SWAP4 DUP3 MSTORE PUSH1 0x4 CALLDATALOAD PUSH1 0x4 DUP4 ADD MSTORE GAS STATICCALL SWAP2 DUP3 ISZERO PUSH2 0x7D0 JUMPI DUP6 SWAP3 PUSH2 0x7B3 JUMPI JUMPDEST POP POP PUSH2 0x120 DUP2 ADD MLOAD PUSH1 0x12 DUP2 LT ISZERO PUSH2 0x79F JUMPI PUSH1 0x2 SUB PUSH2 0x74C JUMPI DUP3 PUSH1 0x4 ADD CALLDATALOAD ISZERO PUSH2 0x712 JUMPI PUSH2 0x160 ADD MLOAD SWAP1 PUSH1 0x40 MLOAD SWAP2 PUSH2 0x45F DUP4 PUSH2 0xC4F JUMP JUMPDEST PUSH1 0x4 CALLDATALOAD DUP4 MSTORE PUSH1 0x20 DUP4 ADD MSTORE PUSH1 0x24 CALLDATALOAD PUSH1 0x40 DUP4 ADD MSTORE PUSH1 0x40 MLOAD SWAP1 PUSH2 0x48D PUSH1 0x20 PUSH1 0x1F NOT PUSH1 0x1F DUP8 PUSH1 0x4 ADD CALLDATALOAD ADD AND ADD DUP4 PUSH2 0xC6B JUMP JUMPDEST PUSH1 0x4 DUP5 ADD CALLDATALOAD DUP1 DUP4 MSTORE PUSH1 0x24 DUP6 ADD PUSH1 0x20 DUP5 ADD CALLDATACOPY DUP5 PUSH1 0x20 DUP6 PUSH1 0x4 ADD CALLDATALOAD DUP5 ADD ADD MSTORE PUSH1 0x60 DUP4 ADD SWAP2 DUP3 MSTORE PUSH1 0x1 PUSH1 0x80 DUP5 ADD MSTORE DUP5 PUSH1 0xA0 DUP5 ADD MSTORE DUP5 PUSH1 0xC0 DUP5 ADD MSTORE PUSH1 0x4 CALLDATALOAD DUP6 MSTORE PUSH1 0x1 PUSH1 0x20 MSTORE PUSH1 0x40 DUP6 KECCAK256 SWAP2 DUP4 MLOAD DUP4 SSTORE PUSH1 0x20 DUP5 ADD MLOAD PUSH1 0x1 DUP5 ADD SSTORE PUSH1 0x40 DUP5 ADD MLOAD PUSH1 0x2 DUP5 ADD SSTORE MLOAD DUP1 MLOAD SWAP2 DUP3 GT PUSH2 0x6FE JUMPI PUSH2 0x502 PUSH1 0x3 DUP5 ADD SLOAD PUSH2 0xBEB JUMP JUMPDEST PUSH1 0x1F DUP2 GT PUSH2 0x6BA JUMPI JUMPDEST POP PUSH1 0x20 SWAP1 PUSH1 0x1F DUP4 GT PUSH1 0x1 EQ PUSH2 0x64A JUMPI PUSH1 0x4 SWAP4 SWAP3 SWAP2 DUP8 SWAP2 DUP4 PUSH2 0x63F JUMPI JUMPDEST POP POP DUP2 PUSH1 0x1 SHL SWAP2 PUSH1 0x0 NOT SWAP1 PUSH1 0x3 SHL SHR NOT AND OR PUSH1 0x3 DUP3 ADD SSTORE JUMPDEST ADD SWAP1 PUSH1 0x80 DUP2 ADD MLOAD ISZERO ISZERO SWAP1 DUP3 SLOAD PUSH1 0xFF PUSH3 0xFF0000 PUSH1 0xC0 PUSH2 0xFF00 PUSH1 0xA0 DUP7 ADD MLOAD ISZERO ISZERO PUSH1 0x8 SHL AND SWAP5 ADD MLOAD ISZERO ISZERO PUSH1 0x10 SHL AND SWAP4 AND SWAP1 PUSH3 0xFFFFFF NOT AND OR OR OR SWAP1 SSTORE DUP2 PUSH1 0x1 DUP1 PUSH1 0xA0 SHL SUB DUP2 SLOAD AND DUP1 EXTCODESIZE ISZERO PUSH2 0x360 JUMPI DUP2 DUP1 SWAP2 PUSH1 0x44 PUSH1 0x40 MLOAD DUP1 SWAP5 DUP2 SWAP4 PUSH4 0x3A1B3D31 PUSH1 0xE0 SHL DUP4 MSTORE PUSH1 0x4 CALLDATALOAD PUSH1 0x4 DUP5 ADD MSTORE PUSH1 0x3 PUSH1 0x24 DUP5 ADD MSTORE GAS CALL DUP1 ISZERO PUSH2 0x1D9 JUMPI PUSH2 0x62B JUMPI JUMPDEST POP POP PUSH32 0x31F17BF00D8FA4C943B21B0A17F5F8DBAD519FC19035ECCD472FD10AF44584C6 PUSH1 0x40 MLOAD PUSH1 0x40 DUP2 MSTORE DUP3 PUSH1 0x4 ADD CALLDATALOAD PUSH1 0x40 DUP3 ADD MSTORE DUP3 PUSH1 0x4 ADD CALLDATALOAD PUSH1 0x24 DUP5 ADD PUSH1 0x60 DUP4 ADD CALLDATACOPY DUP4 PUSH1 0x60 DUP5 PUSH1 0x4 ADD CALLDATALOAD DUP4 ADD ADD MSTORE CALLER PUSH1 0x20 DUP3 ADD MSTORE PUSH1 0x60 DUP2 PUSH1 0x4 CALLDATALOAD SWAP5 PUSH1 0x1F DUP1 NOT SWAP2 PUSH1 0x4 ADD CALLDATALOAD ADD AND DUP2 ADD SUB ADD SWAP1 LOG2 DUP1 RETURN JUMPDEST PUSH2 0x634 SWAP1 PUSH2 0xC25 JUMP JUMPDEST PUSH2 0x360 JUMPI DUP2 CODESIZE PUSH2 0x5BC JUMP JUMPDEST ADD MLOAD SWAP1 POP CODESIZE DUP1 PUSH2 0x527 JUMP JUMPDEST SWAP1 PUSH1 0x3 DUP5 ADD DUP8 MSTORE PUSH1 0x20 DUP8 KECCAK256 SWAP2 DUP8 JUMPDEST PUSH1 0x1F NOT DUP6 AND DUP2 LT PUSH2 0x6A2 JUMPI POP SWAP2 DUP4 SWAP2 PUSH1 0x1 SWAP4 PUSH1 0x4 SWAP7 SWAP6 PUSH1 0x1F NOT DUP2 AND LT PUSH2 0x689 JUMPI JUMPDEST POP POP POP DUP2 SHL ADD PUSH1 0x3 DUP3 ADD SSTORE PUSH2 0x53F JUMP JUMPDEST ADD MLOAD PUSH1 0x0 NOT PUSH1 0xF8 DUP5 PUSH1 0x3 SHL AND SHR NOT AND SWAP1 SSTORE CODESIZE DUP1 DUP1 PUSH2 0x679 JUMP JUMPDEST SWAP2 SWAP3 PUSH1 0x20 PUSH1 0x1 DUP2 SWAP3 DUP7 DUP6 ADD MLOAD DUP2 SSTORE ADD SWAP5 ADD SWAP3 ADD PUSH2 0x658 JUMP JUMPDEST PUSH1 0x3 DUP5 ADD DUP8 MSTORE PUSH1 0x20 DUP8 KECCAK256 PUSH1 0x1F DUP5 ADD PUSH1 0x5 SHR DUP2 ADD PUSH1 0x20 DUP6 LT PUSH2 0x6F7 JUMPI JUMPDEST PUSH1 0x1F DUP4 ADD PUSH1 0x5 SHR DUP3 ADD DUP2 LT PUSH2 0x6EC JUMPI POP POP PUSH2 0x50B JUMP JUMPDEST DUP9 DUP2 SSTORE PUSH1 0x1 ADD PUSH2 0x6D6 JUMP JUMPDEST POP DUP1 PUSH2 0x6D6 JUMP JUMPDEST PUSH4 0x4E487B71 PUSH1 0xE0 SHL DUP7 MSTORE PUSH1 0x41 PUSH1 0x4 MSTORE PUSH1 0x24 DUP7 REVERT JUMPDEST PUSH1 0x40 MLOAD PUSH3 0x461BCD PUSH1 0xE5 SHL DUP2 MSTORE PUSH1 0x20 PUSH1 0x4 DUP3 ADD MSTORE PUSH1 0x12 PUSH1 0x24 DUP3 ADD MSTORE PUSH18 0x12541194C81A185CDA081C995C5D5A5C9959 PUSH1 0x72 SHL PUSH1 0x44 DUP3 ADD MSTORE PUSH1 0x64 SWAP1 REVERT JUMPDEST PUSH1 0x40 MLOAD PUSH3 0x461BCD PUSH1 0xE5 SHL DUP2 MSTORE PUSH1 0x20 PUSH1 0x4 DUP3 ADD MSTORE PUSH1 0x25 PUSH1 0x24 DUP3 ADD MSTORE PUSH32 0x5472616465206D75737420626520696E204C4F435F494E495449415445442073 PUSH1 0x44 DUP3 ADD MSTORE PUSH5 0x7461747573 PUSH1 0xD8 SHL PUSH1 0x64 DUP3 ADD MSTORE PUSH1 0x84 SWAP1 REVERT JUMPDEST PUSH4 0x4E487B71 PUSH1 0xE0 SHL DUP6 MSTORE PUSH1 0x21 PUSH1 0x4 MSTORE PUSH1 0x24 DUP6 REVERT JUMPDEST PUSH2 0x7C9 SWAP3 POP DUP1 RETURNDATASIZE LT PUSH2 0x2D7 JUMPI PUSH2 0x2C8 DUP2 DUP4 PUSH2 0xC6B JUMP JUMPDEST CODESIZE DUP1 PUSH2 0x42A JUMP JUMPDEST PUSH1 0x40 MLOAD RETURNDATASIZE DUP8 DUP3 RETURNDATACOPY RETURNDATASIZE SWAP1 REVERT JUMPDEST PUSH2 0x7F2 SWAP2 POP DUP5 RETURNDATASIZE DUP7 GT PUSH2 0x2D7 JUMPI PUSH2 0x2C8 DUP2 DUP4 PUSH2 0xC6B JUMP JUMPDEST CODESIZE PUSH2 0x3F2 JUMP JUMPDEST POP CALLVALUE PUSH2 0x85 JUMPI PUSH1 0x20 SWAP1 DUP2 PUSH1 0x3 NOT CALLDATASIZE ADD SLT PUSH2 0x85 JUMPI DUP1 PUSH1 0x40 SWAP2 PUSH1 0xC0 DUP4 MLOAD PUSH2 0x81D DUP2 PUSH2 0xC4F JUMP JUMPDEST DUP3 DUP2 MSTORE DUP3 DUP7 DUP3 ADD MSTORE DUP3 DUP6 DUP3 ADD MSTORE PUSH1 0x60 DUP1 DUP3 ADD MSTORE DUP3 PUSH1 0x80 DUP3 ADD MSTORE DUP3 PUSH1 0xA0 DUP3 ADD MSTORE ADD MSTORE PUSH1 0x4 CALLDATALOAD DUP2 MSTORE PUSH1 0x1 DUP4 MSTORE KECCAK256 PUSH1 0x40 MLOAD SWAP1 PUSH2 0x855 DUP3 PUSH2 0xC4F JUMP JUMPDEST DUP1 SLOAD DUP3 MSTORE PUSH1 0x1 DUP2 ADD SLOAD SWAP1 DUP4 DUP4 ADD SWAP2 DUP3 MSTORE PUSH1 0x2 DUP2 ADD SLOAD SWAP2 PUSH1 0x40 DUP5 ADD SWAP3 DUP4 MSTORE PUSH2 0x8E7 PUSH1 0x4 PUSH2 0x883 PUSH1 0x3 DUP6 ADD PUSH2 0xC8D JUMP JUMPDEST SWAP4 PUSH1 0x60 DUP8 ADD SWAP5 DUP6 MSTORE ADD SLOAD SWAP3 PUSH1 0x80 DUP7 ADD SWAP5 PUSH1 0xFF DUP6 AND ISZERO ISZERO DUP7 MSTORE PUSH1 0xA0 DUP8 ADD SWAP4 PUSH1 0xFF DUP7 PUSH1 0x8 SHR AND ISZERO ISZERO DUP6 MSTORE PUSH1 0xFF PUSH1 0xC0 DUP10 ADD SWAP7 PUSH1 0x10 SHR AND ISZERO ISZERO DUP7 MSTORE PUSH1 0x40 MLOAD SWAP9 DUP10 SWAP9 DUP2 DUP11 MSTORE MLOAD SWAP1 DUP10 ADD MSTORE MLOAD PUSH1 0x40 DUP9 ADD MSTORE MLOAD PUSH1 0x60 DUP8 ADD MSTORE MLOAD PUSH1 0xE0 PUSH1 0x80 DUP8 ADD MSTORE PUSH2 0x100 DUP7 ADD SWAP1 PUSH2 0xD32 JUMP JUMPDEST SWAP3 MLOAD ISZERO ISZERO PUSH1 0xA0 DUP6 ADD MSTORE MLOAD ISZERO ISZERO PUSH1 0xC0 DUP5 ADD MSTORE MLOAD ISZERO ISZERO PUSH1 0xE0 DUP4 ADD MSTORE SUB SWAP1 RETURN JUMPDEST POP CALLVALUE PUSH2 0x85 JUMPI PUSH1 0x20 CALLDATASIZE PUSH1 0x3 NOT ADD SLT PUSH2 0x85 JUMPI DUP1 SLOAD PUSH1 0x40 MLOAD PUSH4 0x2DB25E05 PUSH1 0xE0 SHL DUP1 DUP3 MSTORE PUSH1 0x4 DUP1 CALLDATALOAD SWAP1 DUP4 ADD DUP2 SWAP1 MSTORE SWAP3 PUSH1 0x1 PUSH1 0x1 PUSH1 0xA0 SHL SUB SWAP3 PUSH1 0x24 SWAP3 PUSH2 0x200 SWAP3 DUP6 AND SWAP2 SWAP1 DUP4 DUP3 DUP7 DUP2 DUP7 GAS STATICCALL SWAP2 DUP3 ISZERO PUSH2 0xB51 JUMPI DUP7 PUSH1 0x60 DUP7 SWAP5 PUSH2 0x96E SWAP4 DUP13 SWAP2 PUSH2 0xB34 JUMPI JUMPDEST POP ADD MLOAD AND CALLER EQ PUSH2 0xEB6 JUMP JUMPDEST DUP5 PUSH1 0x40 MLOAD DUP1 SWAP5 DUP2 SWAP4 DUP3 MSTORE DUP10 PUSH1 0x4 DUP4 ADD MSTORE GAS STATICCALL SWAP1 DUP2 ISZERO PUSH2 0xB29 JUMPI PUSH2 0x120 SWAP3 DUP8 SWAP3 PUSH2 0xB0C JUMPI JUMPDEST POP POP ADD MLOAD PUSH1 0x12 DUP2 LT ISZERO PUSH2 0xAF9 JUMPI PUSH1 0x4 SUB PUSH2 0xABE JUMPI DUP3 DUP5 MSTORE PUSH1 0x1 PUSH1 0x20 MSTORE PUSH1 0x40 DUP5 KECCAK256 SWAP2 PUSH1 0x4 DUP4 ADD DUP1 SLOAD PUSH1 0xFF DUP2 PUSH1 0x10 SHR AND PUSH2 0xA83 JUMPI PUSH3 0xFF0000 NOT AND PUSH3 0x10000 OR SWAP1 SSTORE DUP5 SLOAD AND SWAP1 DUP5 SWAP1 DUP3 EXTCODESIZE ISZERO PUSH2 0x360 JUMPI PUSH1 0x44 PUSH1 0x5 SWAP2 DUP4 PUSH1 0x40 MLOAD SWAP6 DUP7 SWAP5 DUP6 SWAP4 PUSH4 0x3A1B3D31 PUSH1 0xE0 SHL DUP6 MSTORE DUP11 PUSH1 0x4 DUP7 ADD MSTORE DUP5 ADD MSTORE GAS CALL DUP1 ISZERO PUSH2 0xA78 JUMPI PUSH2 0xA3F JUMPI JUMPDEST POP PUSH1 0x20 PUSH1 0x1 PUSH32 0xBEDC4E5AC6876307C4B4B5761039AA2EBCE89052490A34E15CC655D9142BA0DC SWAP3 ADD SLOAD PUSH1 0x40 MLOAD SWAP1 DUP2 MSTORE LOG2 DUP1 RETURN JUMPDEST PUSH1 0x1 PUSH32 0xBEDC4E5AC6876307C4B4B5761039AA2EBCE89052490A34E15CC655D9142BA0DC SWAP3 SWAP5 PUSH2 0xA6F PUSH1 0x20 SWAP4 PUSH2 0xC25 JUMP JUMPDEST SWAP5 SWAP3 POP POP PUSH2 0xA0C JUMP JUMPDEST PUSH1 0x40 MLOAD RETURNDATASIZE DUP7 DUP3 RETURNDATACOPY RETURNDATASIZE SWAP1 REVERT JUMPDEST PUSH1 0x40 MLOAD PUSH3 0x461BCD PUSH1 0xE5 SHL DUP2 MSTORE PUSH1 0x20 PUSH1 0x4 DUP3 ADD MSTORE PUSH1 0x14 DUP2 DUP7 ADD MSTORE PUSH20 0x119D5B991CC8185B1C9958591E481B1BD8DAD959 PUSH1 0x62 SHL PUSH1 0x44 DUP3 ADD MSTORE PUSH1 0x64 SWAP1 REVERT JUMPDEST PUSH1 0x64 SWAP1 PUSH1 0x14 PUSH1 0x40 MLOAD SWAP2 PUSH3 0x461BCD PUSH1 0xE5 SHL DUP4 MSTORE PUSH1 0x20 PUSH1 0x4 DUP5 ADD MSTORE DUP3 ADD MSTORE PUSH20 0x131BD0C81B9BDD08185C1C1C9BDD9959081E595D PUSH1 0x62 SHL PUSH1 0x44 DUP3 ADD MSTORE REVERT JUMPDEST POP PUSH4 0x4E487B71 PUSH1 0xE0 SHL DUP5 MSTORE PUSH1 0x21 PUSH1 0x4 MSTORE DUP4 REVERT JUMPDEST PUSH2 0xB22 SWAP3 POP DUP1 RETURNDATASIZE LT PUSH2 0x2D7 JUMPI PUSH2 0x2C8 DUP2 DUP4 PUSH2 0xC6B JUMP JUMPDEST CODESIZE DUP1 PUSH2 0x992 JUMP JUMPDEST PUSH1 0x40 MLOAD RETURNDATASIZE DUP9 DUP3 RETURNDATACOPY RETURNDATASIZE SWAP1 REVERT JUMPDEST PUSH2 0xB4B SWAP2 POP DUP7 RETURNDATASIZE DUP9 GT PUSH2 0x2D7 JUMPI PUSH2 0x2C8 DUP2 DUP4 PUSH2 0xC6B JUMP JUMPDEST CODESIZE PUSH2 0x963 JUMP JUMPDEST PUSH1 0x40 MLOAD RETURNDATASIZE DUP11 DUP3 RETURNDATACOPY RETURNDATASIZE SWAP1 REVERT JUMPDEST POP CALLVALUE PUSH2 0x85 JUMPI PUSH1 0x20 CALLDATASIZE PUSH1 0x3 NOT ADD SLT PUSH2 0x85 JUMPI PUSH1 0x40 SWAP1 PUSH1 0x4 CALLDATALOAD DUP2 MSTORE PUSH1 0x1 PUSH1 0x20 MSTORE KECCAK256 DUP1 SLOAD PUSH1 0x1 DUP3 ADD SLOAD SWAP2 PUSH1 0xFF PUSH2 0xBC4 PUSH1 0x2 DUP4 ADD SLOAD SWAP3 PUSH1 0x4 PUSH2 0xB9D PUSH1 0x3 DUP4 ADD PUSH2 0xC8D JUMP JUMPDEST SWAP2 ADD SLOAD SWAP4 PUSH1 0x40 MLOAD SWAP7 DUP8 SWAP7 DUP8 MSTORE PUSH1 0x20 DUP8 ADD MSTORE PUSH1 0x40 DUP7 ADD MSTORE PUSH1 0xE0 PUSH1 0x60 DUP7 ADD MSTORE PUSH1 0xE0 DUP6 ADD SWAP1 PUSH2 0xD32 JUMP JUMPDEST SWAP2 DUP2 DUP2 AND ISZERO ISZERO PUSH1 0x80 DUP6 ADD MSTORE DUP2 DUP2 PUSH1 0x8 SHR AND ISZERO ISZERO PUSH1 0xA0 DUP6 ADD MSTORE PUSH1 0x10 SHR AND ISZERO ISZERO PUSH1 0xC0 DUP4 ADD MSTORE SUB SWAP1 RETURN JUMPDEST SWAP1 PUSH1 0x1 DUP3 DUP2 SHR SWAP3 AND DUP1 ISZERO PUSH2 0xC1B JUMPI JUMPDEST PUSH1 0x20 DUP4 LT EQ PUSH2 0xC05 JUMPI JUMP JUMPDEST PUSH4 0x4E487B71 PUSH1 0xE0 SHL PUSH1 0x0 MSTORE PUSH1 0x22 PUSH1 0x4 MSTORE PUSH1 0x24 PUSH1 0x0 REVERT JUMPDEST SWAP2 PUSH1 0x7F AND SWAP2 PUSH2 0xBFA JUMP JUMPDEST PUSH8 0xFFFFFFFFFFFFFFFF DUP2 GT PUSH2 0xC39 JUMPI PUSH1 0x40 MSTORE JUMP JUMPDEST PUSH4 0x4E487B71 PUSH1 0xE0 SHL PUSH1 0x0 MSTORE PUSH1 0x41 PUSH1 0x4 MSTORE PUSH1 0x24 PUSH1 0x0 REVERT JUMPDEST PUSH1 0xE0 DUP2 ADD SWAP1 DUP2 LT PUSH8 0xFFFFFFFFFFFFFFFF DUP3 GT OR PUSH2 0xC39 JUMPI PUSH1 0x40 MSTORE JUMP JUMPDEST SWAP1 PUSH1 0x1F DUP1 NOT SWAP2 ADD AND DUP2 ADD SWAP1 DUP2 LT PUSH8 0xFFFFFFFFFFFFFFFF DUP3 GT OR PUSH2 0xC39 JUMPI PUSH1 0x40 MSTORE JUMP JUMPDEST SWAP1 PUSH1 0x40 MLOAD SWAP2 DUP3 PUSH1 0x0 DUP3 SLOAD PUSH2 0xCA0 DUP2 PUSH2 0xBEB JUMP JUMPDEST SWAP1 DUP2 DUP5 MSTORE PUSH1 0x20 SWAP5 PUSH1 0x1 SWAP2 PUSH1 0x1 DUP2 AND SWAP1 DUP2 PUSH1 0x0 EQ PUSH2 0xD10 JUMPI POP PUSH1 0x1 EQ PUSH2 0xCD1 JUMPI JUMPDEST POP POP POP PUSH2 0xCCF SWAP3 POP SUB DUP4 PUSH2 0xC6B JUMP JUMPDEST JUMP JUMPDEST PUSH1 0x0 SWAP1 DUP2 MSTORE DUP6 DUP2 KECCAK256 SWAP6 SWAP4 POP SWAP2 SWAP1 JUMPDEST DUP2 DUP4 LT PUSH2 0xCF8 JUMPI POP POP PUSH2 0xCCF SWAP4 POP DUP3 ADD ADD CODESIZE DUP1 DUP1 PUSH2 0xCC0 JUMP JUMPDEST DUP6 SLOAD DUP9 DUP5 ADD DUP6 ADD MSTORE SWAP5 DUP6 ADD SWAP5 DUP8 SWAP5 POP SWAP2 DUP4 ADD SWAP2 PUSH2 0xCDF JUMP JUMPDEST SWAP3 POP POP POP PUSH2 0xCCF SWAP5 SWAP3 POP PUSH1 0xFF NOT AND DUP3 DUP5 ADD MSTORE ISZERO ISZERO PUSH1 0x5 SHL DUP3 ADD ADD CODESIZE DUP1 DUP1 PUSH2 0xCC0 JUMP JUMPDEST SWAP2 SWAP1 DUP3 MLOAD SWAP3 DUP4 DUP3 MSTORE PUSH1 0x0 JUMPDEST DUP5 DUP2 LT PUSH2 0xD5E JUMPI POP POP DUP3 PUSH1 0x0 PUSH1 0x20 DUP1 SWAP5 SWAP6 DUP5 ADD ADD MSTORE PUSH1 0x1F DUP1 NOT SWAP2 ADD AND ADD ADD SWAP1 JUMP JUMPDEST PUSH1 0x20 DUP2 DUP4 ADD DUP2 ADD MLOAD DUP5 DUP4 ADD DUP3 ADD MSTORE ADD PUSH2 0xD3D JUMP JUMPDEST MLOAD SWAP1 PUSH1 0x1 PUSH1 0x1 PUSH1 0xA0 SHL SUB DUP3 AND DUP3 SUB PUSH2 0xD86 JUMPI JUMP JUMPDEST PUSH1 0x0 DUP1 REVERT JUMPDEST MLOAD SWAP1 DUP2 ISZERO ISZERO DUP3 SUB PUSH2 0xD86 JUMPI JUMP JUMPDEST DUP1 SWAP2 PUSH2 0x200 SWAP3 DUP4 SWAP2 SUB SLT PUSH2 0xD86 JUMPI PUSH1 0x40 MLOAD SWAP2 DUP3 ADD DUP3 DUP2 LT PUSH8 0xFFFFFFFFFFFFFFFF DUP3 GT OR PUSH2 0xC39 JUMPI PUSH1 0x40 MSTORE DUP1 MLOAD DUP3 MSTORE PUSH2 0xDD2 PUSH1 0x20 DUP3 ADD PUSH2 0xD72 JUMP JUMPDEST PUSH1 0x20 DUP4 ADD MSTORE PUSH2 0xDE3 PUSH1 0x40 DUP3 ADD PUSH2 0xD72 JUMP JUMPDEST PUSH1 0x40 DUP4 ADD MSTORE PUSH2 0xDF4 PUSH1 0x60 DUP3 ADD PUSH2 0xD72 JUMP JUMPDEST PUSH1 0x60 DUP4 ADD MSTORE PUSH2 0xE05 PUSH1 0x80 DUP3 ADD PUSH2 0xD72 JUMP JUMPDEST PUSH1 0x80 DUP4 ADD MSTORE PUSH2 0xE16 PUSH1 0xA0 DUP3 ADD PUSH2 0xD72 JUMP JUMPDEST PUSH1 0xA0 DUP4 ADD MSTORE PUSH2 0xE27 PUSH1 0xC0 DUP3 ADD PUSH2 0xD72 JUMP JUMPDEST PUSH1 0xC0 DUP4 ADD MSTORE PUSH2 0xE38 PUSH1 0xE0 DUP3 ADD PUSH2 0xD72 JUMP JUMPDEST PUSH1 0xE0 DUP4 ADD MSTORE PUSH2 0x100 PUSH2 0xE4B DUP2 DUP4 ADD PUSH2 0xD72 JUMP JUMPDEST SWAP1 DUP4 ADD MSTORE PUSH2 0x120 DUP1 DUP3 ADD MLOAD SWAP1 PUSH1 0x12 DUP3 LT ISZERO PUSH2 0xD86 JUMPI DUP4 ADD MSTORE PUSH2 0x140 DUP1 DUP3 ADD MLOAD SWAP1 DUP4 ADD MSTORE PUSH2 0x160 DUP1 DUP3 ADD MLOAD SWAP1 DUP4 ADD MSTORE PUSH2 0x180 DUP1 DUP3 ADD MLOAD SWAP1 DUP4 ADD MSTORE PUSH2 0x1A0 DUP1 DUP3 ADD MLOAD SWAP1 DUP4 ADD MSTORE PUSH2 0x1C0 PUSH2 0xE9D DUP2 DUP4 ADD PUSH2 0xD8B JUMP JUMPDEST SWAP1 DUP4 ADD MSTORE PUSH2 0xEAF PUSH2 0x1E0 DUP1 SWAP3 ADD PUSH2 0xD8B JUMP JUMPDEST SWAP1 DUP3 ADD MSTORE SWAP1 JUMP JUMPDEST ISZERO PUSH2 0xEBD JUMPI JUMP JUMPDEST PUSH1 0x40 MLOAD PUSH3 0x461BCD PUSH1 0xE5 SHL DUP2 MSTORE PUSH1 0x20 PUSH1 0x4 DUP3 ADD MSTORE PUSH1 0x21 PUSH1 0x24 DUP3 ADD MSTORE PUSH32 0x4F6E6C792069737375696E672062616E6B2028696D706F727465722062616E6B PUSH1 0x44 DUP3 ADD MSTORE PUSH1 0x29 PUSH1 0xF8 SHL PUSH1 0x64 DUP3 ADD MSTORE PUSH1 0x84 SWAP1 REVERT INVALID LOG2 PUSH5 0x6970667358 0x22 SLT KECCAK256 RETURNDATACOPY GASLIMIT 0xEE PUSH23 0xF737F16FF9AE1ACE33E3FF3A03BC1F81128F4C94BD178A 0x27 DUP2 PUSH0 EXP BLOBHASH PUSH5 0x736F6C6343 STOP ADDMOD XOR STOP CALLER "},"methodIdentifiers":{"approveLoC(uint256)":"d6e4fca1","getLoC(uint256)":"9522f50b","lockFunds(uint256)":"8c8f95fb","locs(uint256)":"79f3ca18","tradeRegistry()":"dbd97308","uploadLocDocument(uint256,uint256,string)":"b6d7957c"}}}}}