{"contracts/DocumentVerification.sol":{"DocumentVerification":{"abi":[{"inputs":[{"internalType":"address","name":"_tradeRegistry","type":"address"}],"stateMutability":"nonpayable","type":"constructor"},{"anonymous":false,"inputs":[{"indexed":true,"internalType":"uint256","name":"tradeId","type":"uint256"},{"indexed":false,"internalType":"string","name":"ipfsHash","type":"string"},{"indexed":false,"internalType":"address","name":"issuedBy","type":"address"}],"name":"BillOfLadingIssued","type":"event"},{"anonymous":false,"inputs":[{"indexed":true,"internalType":"uint256","name":"tradeId","type":"uint256"},{"indexed":false,"internalType":"bool","name":"cleared","type":"bool"},{"indexed":false,"internalType":"address","name":"decidedBy","type":"address"}],"name":"CustomsDecision","type":"event"},{"anonymous":false,"inputs":[{"indexed":true,"internalType":"uint256","name":"tradeId","type":"uint256"},{"indexed":false,"internalType":"address","name":"confirmedBy","type":"address"}],"name":"DutyPaymentConfirmed","type":"event"},{"anonymous":false,"inputs":[{"indexed":true,"internalType":"uint256","name":"tradeId","type":"uint256"},{"indexed":false,"internalType":"address","name":"releasedBy","type":"address"}],"name":"GoodsReleasedFromDuty","type":"event"},{"anonymous":false,"inputs":[{"indexed":true,"internalType":"uint256","name":"tradeId","type":"uint256"},{"indexed":false,"internalType":"address","name":"recordedBy","type":"address"}],"name":"TaxReceiptRecorded","type":"event"},{"inputs":[{"internalType":"uint256","name":"_tradeId","type":"uint256"}],"name":"confirmDutyPayment","outputs":[],"stateMutability":"nonpayable","type":"function"},{"inputs":[{"internalType":"uint256","name":"_tradeId","type":"uint256"}],"name":"getBolIpfsHash","outputs":[{"internalType":"string","name":"","type":"string"}],"stateMutability":"view","type":"function"},{"inputs":[{"internalType":"uint256","name":"_tradeId","type":"uint256"}],"name":"getVerification","outputs":[{"components":[{"internalType":"string","name":"bolIpfsHash","type":"string"},{"internalType":"string","name":"customsCertIpfsHash","type":"string"},{"internalType":"bool","name":"bolIssued","type":"bool"},{"internalType":"bool","name":"customsCleared","type":"bool"},{"internalType":"bool","name":"dutyRequired","type":"bool"},{"internalType":"bool","name":"dutyPaid","type":"bool"},{"internalType":"bool","name":"dutyFeeAuthorized","type":"bool"},{"internalType":"bool","name":"receiptRecorded","type":"bool"}],"internalType":"struct DocumentVerification.VerificationState","name":"","type":"tuple"}],"stateMutability":"view","type":"function"},{"inputs":[{"internalType":"uint256","name":"_tradeId","type":"uint256"},{"internalType":"string","name":"_ipfsHash","type":"string"}],"name":"issueBillOfLading","outputs":[],"stateMutability":"nonpayable","type":"function"},{"inputs":[{"internalType":"uint256","name":"_tradeId","type":"uint256"}],"name":"recordTaxReceipt","outputs":[],"stateMutability":"nonpayable","type":"function"},{"inputs":[{"internalType":"uint256","name":"_tradeId","type":"uint256"}],"name":"releaseFromDuty","outputs":[],"stateMutability":"nonpayable","type":"function"},{"inputs":[],"name":"tradeRegistry","outputs":[{"internalType":"contract TradeRegistry","name":"","type":"address"}],"stateMutability":"view","type":"function"},{"inputs":[{"internalType":"uint256","name":"","type":"uint256"}],"name":"verifications","outputs":[{"internalType":"string","name":"bolIpfsHash","type":"string"},{"internalType":"string","name":"customsCertIpfsHash","type":"string"},{"internalType":"bool","name":"bolIssued","type":"bool"},{"internalType":"bool","name":"customsCleared","type":"bool"},{"internalType":"bool","name":"dutyRequired","type":"bool"},{"internalType":"bool","name":"dutyPaid","type":"bool"},{"internalType":"bool","name":"dutyFeeAuthorized","type":"bool"},{"internalType":"bool","name":"receiptRecorded","type":"bool"}],"stateMutability":"view","type":"function"},{"inputs":[{"internalType":"uint256","name":"_tradeId","type":"uint256"},{"internalType":"bool","name":"_cleared","type":"bool"},{"internalType":"string","name":"_certIpfsHash","type":"string"}],"name":"verifyAsCustoms","outputs":[],"stateMutability":"nonpayable","type":"function"}],"evm":{"bytecode":{"linkReferences":{},"object":"60803461007457601f61158438819003918201601f19168301916001600160401b038311848410176100795780849260209460405283398101031261007457516001600160a01b0381169081900361007457600080546001600160a01b0319169190911790556040516114f490816100908239f35b600080fd5b634e487b7160e01b600052604160045260246000fdfe608080604052600436101561001357600080fd5b600090813560e01c9081633896b80c14610f92575080633eb3da4814610b4b57806358937cc814610a065780636e0ede4f146107485780638dd6221914610705578063959aec85146103835780639b8d8a1014610162578063b90b0a10146100ad5763dbd973081461008457600080fd5b346100aa57806003193601126100aa57546040516001600160a01b039091168152602090f35b80fd5b50346100aa5760203660031901126100aa5760406101069160043581526001602052206100d98161129a565b9060026100e86001830161129a565b9101549061011460ff916040519586956101008088528701906111b7565b9085820360208701526111b7565b9181811615156040850152818160081c1615156060850152818160101c1615156080850152818160181c16151560a0850152818160201c16151560c085015260281c16151560e08301520390f35b50346100aa5760203660031901126100aa5760043560018060a01b03808354166040518091632db25e0560e01b82528460048301528160246102009485935afa9081156103785761012092869261034b575b50500151601281101561033757600a6101cd911461147e565b8183526001602052600260408420019081549160ff8360181c16156102f25760ff8360281c161561029157610100859361ff001916179055815416803b1561028257818091604460405180948193633a1b3d3160e01b8352886004840152600860248401525af180156102865761026e575b50507f256a72b45efe5d14bc1b5448dea14f76c8a9902c697c96c1e2862f50d37604c06020604051338152a280f35b61027790611231565b61028257813861023f565b5080fd5b6040513d84823e3d90fd5b60405162461bcd60e51b815260206004820152603360248201527f5461782072656365697074206d757374206265207265636f72646564206265666044820152726f72652072656c656173696e6720676f6f647360681b6064820152608490fd5b60405162461bcd60e51b815260206004820152601960248201527f44757479206e6f74207265636f726465642061732070616964000000000000006044820152606490fd5b634e487b7160e01b84526021600452602484fd5b61036a9250803d10610371575b6103628183611278565b810190611360565b38806101b4565b503d610358565b6040513d87823e3d90fd5b50346100aa5760603660031901126100aa576024351515602435036100aa5767ffffffffffffffff604435818111610701576103c3903690600401611184565b8354604051632db25e0560e01b81526004803590820152919291610200918290829060249082906001600160a01b03165afa9081156106f6576101209287926106d9575b5050015160128110156106c557600703610688576004358452600160205260408420928261055a575b5050506002906024356000146104e95701805461ff001916610100179055805481906001600160a01b0316803b156104e657818091604460405180948193633a1b3d3160e01b83526004356004840152600860248401525af18015610286576104d2575b50505b604051602435151581523360208201527f96752bae5a7241784ea98ffd832f3608db43fd5c35942d102b1a92fdaef13f96604060043592a280f35b6104db90611231565b6100aa578038610494565b50fd5b01805462ff0000191662010000179055805481906001600160a01b0316803b156104e657818091604460405180948193633a1b3d3160e01b83526004356004840152600960248401525af1801561028657610546575b5050610497565b61054f90611231565b6100aa57803861053f565b82116106745761056d60018401546111f7565b601f811161062c575b508390601f83116001146105bc5760029392918591836105b1575b50508160011b916000199060031b1c19161760018201555b903880610430565b013590503880610591565b6001840185526020852091855b601f1985168110610614575091839160019360029695601f198116106105fa575b505050811b0160018201556105a9565b0135600019600384901b60f8161c191690553880806105ea565b909260206001819286860135815501940191016105c9565b60018401855260208520601f840160051c8101916020851061066a575b601f0160051c01905b81811061065f5750610576565b858155600101610652565b9091508190610649565b634e487b7160e01b84526041600452602484fd5b60405162461bcd60e51b815260206004820152601560248201527411dbdbd91cc81b9bdd081e595d081cda1a5c1c1959605a1b6044820152606490fd5b634e487b7160e01b85526021600452602485fd5b6106ef9250803d10610371576103628183611278565b3880610407565b6040513d88823e3d90fd5b8280fd5b50346100aa5760203660031901126100aa57610730604061074492600435815260016020522061129a565b6040519182916020835260208301906111b7565b0390f35b50346100aa57602080600319360112610282578154604051632db25e0560e01b8082526004803590830181905293926024926001600160a01b03926102009284169183818781865afa9081156109fb5785916060918b916109de575b500151163303610990578290856040518094819382528a60048301525afa90811561098557610120928892610968575b5050015160128110156109555760090361091f578385526001835260026040862001805460ff8160101c16156108e35760ff8160181c1661089f5764ffff000000191664010100000017905584548592911690813b1561070157600a60448492836040519586948593633a1b3d3160e01b85528b60048601528401525af180156102865761088b575b50507f37932aba02f25b6bb85bab61365c8a3f049a0ad3b5289ab59c68c4bd30152e1890604051338152a280f35b61089490611231565b61070157823861085d565b60405162461bcd60e51b815260048101869052601d818601527f4475747920616c7265616479207265636f7264656420617320706169640000006044820152606490fd5b60405162461bcd60e51b81526004810186905260158186015274111d5d1e481dd85cc81b9bdd081c995c5d5a5c9959605a1b6044820152606490fd5b60405162461bcd60e51b815260048101849052600f818401526e4e6f2070656e64696e67206475747960881b6044820152606490fd5b634e487b7160e01b865260216004528286fd5b61097e9250803d10610371576103628183611278565b38806107d4565b6040513d89823e3d90fd5b60405162461bcd60e51b8152600481018790526021818701527f4f6e6c792069737375696e672062616e6b2028696d706f727465722062616e6b6044820152602960f81b6064820152608490fd5b6109f59150863d8811610371576103628183611278565b386107a4565b6040513d8b823e3d90fd5b50346100aa5760208060031936011261028257604082610b049360e08351610a2d8161125b565b6060815260608682015282858201528260608201528260808201528260a08201528260c082015201526004358152600183522060405191610a6d8361125b565b610a768261129a565b83526002610a866001840161129a565b92828501938452015460ff60408501938183161515855260608601828460081c16151581526080870190838560101c1615158252610b1760a0890193858760181c161515855260c08a019580888a1c161515875260e08b019760281c16151587526040519a8b9a898c5251610100809a8d01526101208c01906111b7565b90518a8203601f190160408c01526111b7565b965115156060890152511515608088015251151560a087015251151560c086015251151560e0850152511515908301520390f35b50346100aa5760403660031901126100aa5760043567ffffffffffffffff60248035828111610f8e57610b82903690600401611184565b92909160018060a01b038087541660405190632db25e0560e01b8083528860048401526102009283818781865afa908115610f8357859160a0918d91610f66575b500151163303610f22578290856040518094819382528c60048301525afa9081156109fb57610120928a92610f05575b505001516012811015610ef257600603610e9c578415610e6357858752600160209381855260ff600260408b20015416610e2a5787895281855260408920908711610e17579081610c468a9493546111f7565b601f8111610dc9575b508784601f8211600114610d67578591610d5c575b5060001960038a901b1c191688831b1790555b878352808552600260408420019060ff1982541617905581541691823b15610282576044600791836040519586948593633a1b3d3160e01b85528c60048601528401525af180156106f657610d20575b5082917f63149911db316f829a231b8a15319e7c3955ae2dc560e0f9a964d69ba0be2dbd93606092604051948593604085528160408601528585013782820184018890523390830152601f01601f19168101030190a280f35b918360609296610d517f63149911db316f829a231b8a15319e7c3955ae2dc560e0f9a964d69ba0be2dbd9695611231565b969250509192610cc7565b905087013538610c64565b828652878620915089601f198116875b8a828210610daf57505010610d95575b50508188811b019055610c77565b88013560001960038b901b60f8161c191690553880610d87565b8c85013586558f995094870194938401938d935001610d77565b908092939452858a20601f890160051c810191878a10610e0d575b90601f8c96959493920160051c01905b818110610e015750610c4f565b9485558a948301610df4565b9091508190610de4565b634e487b7160e01b895260416004528389fd5b60405162461bcd60e51b81526004810186905260128186015271109bd308185b1c9958591e481a5cdcdd595960721b6044820152606490fd5b60405162461bcd60e51b8152602060048201526012818401527112541194c81a185cda081c995c5d5a5c995960721b6044820152606490fd5b60405162461bcd60e51b8152602060048201526029818401527f5472616465206d75737420626520696e205348495050494e475f41535349474e60448201526845442073746174757360b81b6064820152608490fd5b634e487b7160e01b885260216004528288fd5b610f1b9250803d10610371576103628183611278565b3880610bf3565b60405162461bcd60e51b815260206004820152601e818701527f4f6e6c792061737369676e6564207368697070696e6720636f6d70616e7900006044820152606490fd5b610f7d9150863d8811610371576103628183611278565b38610bc3565b6040513d8d823e3d90fd5b8480fd5b90503461028257602080600319360112610701578254632db25e0560e01b83526004803590840181905292610200918290829060249082906001600160a01b03165afa90811561037857610120928692611167575b50500151601281101561033757600a611000911461147e565b8183526001815260026040842001805460ff8160181c161561110d5760ff81841c16156110b75760ff8160281c166110725765ff00000000001916650100000000001790556040513381527fdde75a4a33c4674911b4659751e101f012ab9c26decb7f75509abd4cf37ae71f9190a280f35b60405162461bcd60e51b815260048101849052601860248201527f5265636569707420616c7265616479207265636f7264656400000000000000006044820152606490fd5b60405162461bcd60e51b815260048101849052602860248201527f4475747920666565206e6f7420617574686f72697a656420627920496d706f726044820152677465722042616e6b60c01b6064820152608490fd5b60405162461bcd60e51b815260048101849052602c60248201527f496d706f727465722042616e6b20686173206e6f7420636f6e6669726d65642060448201526b191d5d1e481c185e5b595b9d60a21b6064820152608490fd5b61117d9250803d10610371576103628183611278565b3880610fe7565b9181601f840112156111b25782359167ffffffffffffffff83116111b257602083818601950101116111b257565b600080fd5b919082519283825260005b8481106111e3575050826000602080949584010152601f8019910116010190565b6020818301810151848301820152016111c2565b90600182811c92168015611227575b602083101461121157565b634e487b7160e01b600052602260045260246000fd5b91607f1691611206565b67ffffffffffffffff811161124557604052565b634e487b7160e01b600052604160045260246000fd5b610100810190811067ffffffffffffffff82111761124557604052565b90601f8019910116810190811067ffffffffffffffff82111761124557604052565b906040519182600082546112ad816111f7565b9081845260209460019160018116908160001461131d57506001146112de575b5050506112dc92500383611278565b565b600090815285812095935091905b8183106113055750506112dc93508201013880806112cd565b855488840185015294850194879450918301916112ec565b925050506112dc94925060ff191682840152151560051b8201013880806112cd565b51906001600160a01b03821682036111b257565b519081151582036111b257565b809161020092839103126111b25760405191820182811067ffffffffffffffff821117611245576040528051825261139a6020820161133f565b60208301526113ab6040820161133f565b60408301526113bc6060820161133f565b60608301526113cd6080820161133f565b60808301526113de60a0820161133f565b60a08301526113ef60c0820161133f565b60c083015261140060e0820161133f565b60e083015261010061141381830161133f565b90830152610120808201519060128210156111b2578301526101408082015190830152610160808201519083015261018080820151908301526101a080820151908301526101c0611465818301611353565b908301526114776101e0809201611353565b9082015290565b1561148557565b60405162461bcd60e51b8152602060048201526011602482015270111d5d1e481b9bdd081c185a59081e595d607a1b6044820152606490fdfea26469706673582212207200f5d9f92d73d88ce108fd94f1395f5ad517c5493c373fa9bfc2d60b0bafb364736f6c63430008180033","opcodes":"PUSH1 0x80 CALLVALUE PUSH2 0x74 JUMPI PUSH1 0x1F PUSH2 0x1584 CODESIZE DUP2 SWAP1 SUB SWAP2 DUP3 ADD PUSH1 0x1F NOT AND DUP4 ADD SWAP2 PUSH1 0x1 PUSH1 0x1 PUSH1 0x40 SHL SUB DUP4 GT DUP5 DUP5 LT OR PUSH2 0x79 JUMPI DUP1 DUP5 SWAP3 PUSH1 0x20 SWAP5 PUSH1 0x40 MSTORE DUP4 CODECOPY DUP2 ADD SUB SLT PUSH2 0x74 JUMPI MLOAD PUSH1 0x1 PUSH1 0x1 PUSH1 0xA0 SHL SUB DUP2 AND SWAP1 DUP2 SWAP1 SUB PUSH2 0x74 JUMPI PUSH1 0x0 DUP1 SLOAD PUSH1 0x1 PUSH1 0x1 PUSH1 0xA0 SHL SUB NOT AND SWAP2 SWAP1 SWAP2 OR SWAP1 SSTORE PUSH1 0x40 MLOAD PUSH2 0x14F4 SWAP1 DUP2 PUSH2 0x90 DUP3 CODECOPY RETURN JUMPDEST PUSH1 0x0 DUP1 REVERT JUMPDEST PUSH4 0x4E487B71 PUSH1 0xE0 SHL PUSH1 0x0 MSTORE PUSH1 0x41 PUSH1 0x4 MSTORE PUSH1 0x24 PUSH1 0x0 REVERT INVALID PUSH1 0x80 DUP1 PUSH1 0x40 MSTORE PUSH1 0x4 CALLDATASIZE LT ISZERO PUSH2 0x13 JUMPI PUSH1 0x0 DUP1 REVERT JUMPDEST PUSH1 0x0 SWAP1 DUP2 CALLDATALOAD PUSH1 0xE0 SHR SWAP1 DUP2 PUSH4 0x3896B80C EQ PUSH2 0xF92 JUMPI POP DUP1 PUSH4 0x3EB3DA48 EQ PUSH2 0xB4B JUMPI DUP1 PUSH4 0x58937CC8 EQ PUSH2 0xA06 JUMPI DUP1 PUSH4 0x6E0EDE4F EQ PUSH2 0x748 JUMPI DUP1 PUSH4 0x8DD62219 EQ PUSH2 0x705 JUMPI DUP1 PUSH4 0x959AEC85 EQ PUSH2 0x383 JUMPI DUP1 PUSH4 0x9B8D8A10 EQ PUSH2 0x162 JUMPI DUP1 PUSH4 0xB90B0A10 EQ PUSH2 0xAD JUMPI PUSH4 0xDBD97308 EQ PUSH2 0x84 JUMPI PUSH1 0x0 DUP1 REVERT JUMPDEST CALLVALUE PUSH2 0xAA JUMPI DUP1 PUSH1 0x3 NOT CALLDATASIZE ADD SLT PUSH2 0xAA JUMPI SLOAD PUSH1 0x40 MLOAD PUSH1 0x1 PUSH1 0x1 PUSH1 0xA0 SHL SUB SWAP1 SWAP2 AND DUP2 MSTORE PUSH1 0x20 SWAP1 RETURN JUMPDEST DUP1 REVERT JUMPDEST POP CALLVALUE PUSH2 0xAA JUMPI PUSH1 0x20 CALLDATASIZE PUSH1 0x3 NOT ADD SLT PUSH2 0xAA JUMPI PUSH1 0x40 PUSH2 0x106 SWAP2 PUSH1 0x4 CALLDATALOAD DUP2 MSTORE PUSH1 0x1 PUSH1 0x20 MSTORE KECCAK256 PUSH2 0xD9 DUP2 PUSH2 0x129A JUMP JUMPDEST SWAP1 PUSH1 0x2 PUSH2 0xE8 PUSH1 0x1 DUP4 ADD PUSH2 0x129A JUMP JUMPDEST SWAP2 ADD SLOAD SWAP1 PUSH2 0x114 PUSH1 0xFF SWAP2 PUSH1 0x40 MLOAD SWAP6 DUP7 SWAP6 PUSH2 0x100 DUP1 DUP9 MSTORE DUP8 ADD SWAP1 PUSH2 0x11B7 JUMP JUMPDEST SWAP1 DUP6 DUP3 SUB PUSH1 0x20 DUP8 ADD MSTORE PUSH2 0x11B7 JUMP JUMPDEST SWAP2 DUP2 DUP2 AND ISZERO ISZERO PUSH1 0x40 DUP6 ADD MSTORE DUP2 DUP2 PUSH1 0x8 SHR AND ISZERO ISZERO PUSH1 0x60 DUP6 ADD MSTORE DUP2 DUP2 PUSH1 0x10 SHR AND ISZERO ISZERO PUSH1 0x80 DUP6 ADD MSTORE DUP2 DUP2 PUSH1 0x18 SHR AND ISZERO ISZERO PUSH1 0xA0 DUP6 ADD MSTORE DUP2 DUP2 PUSH1 0x20 SHR AND ISZERO ISZERO PUSH1 0xC0 DUP6 ADD MSTORE PUSH1 0x28 SHR AND ISZERO ISZERO PUSH1 0xE0 DUP4 ADD MSTORE SUB SWAP1 RETURN JUMPDEST POP CALLVALUE PUSH2 0xAA JUMPI PUSH1 0x20 CALLDATASIZE PUSH1 0x3 NOT ADD SLT PUSH2 0xAA JUMPI PUSH1 0x4 CALLDATALOAD PUSH1 0x1 DUP1 PUSH1 0xA0 SHL SUB DUP1 DUP4 SLOAD AND PUSH1 0x40 MLOAD DUP1 SWAP2 PUSH4 0x2DB25E05 PUSH1 0xE0 SHL DUP3 MSTORE DUP5 PUSH1 0x4 DUP4 ADD MSTORE DUP2 PUSH1 0x24 PUSH2 0x200 SWAP5 DUP6 SWAP4 GAS STATICCALL SWAP1 DUP2 ISZERO PUSH2 0x378 JUMPI PUSH2 0x120 SWAP3 DUP7 SWAP3 PUSH2 0x34B JUMPI JUMPDEST POP POP ADD MLOAD PUSH1 0x12 DUP2 LT ISZERO PUSH2 0x337 JUMPI PUSH1 0xA PUSH2 0x1CD SWAP2 EQ PUSH2 0x147E JUMP JUMPDEST DUP2 DUP4 MSTORE PUSH1 0x1 PUSH1 0x20 MSTORE PUSH1 0x2 PUSH1 0x40 DUP5 KECCAK256 ADD SWAP1 DUP2 SLOAD SWAP2 PUSH1 0xFF DUP4 PUSH1 0x18 SHR AND ISZERO PUSH2 0x2F2 JUMPI PUSH1 0xFF DUP4 PUSH1 0x28 SHR AND ISZERO PUSH2 0x291 JUMPI PUSH2 0x100 DUP6 SWAP4 PUSH2 0xFF00 NOT AND OR SWAP1 SSTORE DUP2 SLOAD AND DUP1 EXTCODESIZE ISZERO PUSH2 0x282 JUMPI DUP2 DUP1 SWAP2 PUSH1 0x44 PUSH1 0x40 MLOAD DUP1 SWAP5 DUP2 SWAP4 PUSH4 0x3A1B3D31 PUSH1 0xE0 SHL DUP4 MSTORE DUP9 PUSH1 0x4 DUP5 ADD MSTORE PUSH1 0x8 PUSH1 0x24 DUP5 ADD MSTORE GAS CALL DUP1 ISZERO PUSH2 0x286 JUMPI PUSH2 0x26E JUMPI JUMPDEST POP POP PUSH32 0x256A72B45EFE5D14BC1B5448DEA14F76C8A9902C697C96C1E2862F50D37604C0 PUSH1 0x20 PUSH1 0x40 MLOAD CALLER DUP2 MSTORE LOG2 DUP1 RETURN JUMPDEST PUSH2 0x277 SWAP1 PUSH2 0x1231 JUMP JUMPDEST PUSH2 0x282 JUMPI DUP2 CODESIZE PUSH2 0x23F JUMP JUMPDEST POP DUP1 REVERT JUMPDEST PUSH1 0x40 MLOAD RETURNDATASIZE DUP5 DUP3 RETURNDATACOPY RETURNDATASIZE SWAP1 REVERT JUMPDEST PUSH1 0x40 MLOAD PUSH3 0x461BCD PUSH1 0xE5 SHL DUP2 MSTORE PUSH1 0x20 PUSH1 0x4 DUP3 ADD MSTORE PUSH1 0x33 PUSH1 0x24 DUP3 ADD MSTORE PUSH32 0x5461782072656365697074206D757374206265207265636F7264656420626566 PUSH1 0x44 DUP3 ADD MSTORE PUSH19 0x6F72652072656C656173696E6720676F6F6473 PUSH1 0x68 SHL PUSH1 0x64 DUP3 ADD MSTORE PUSH1 0x84 SWAP1 REVERT JUMPDEST PUSH1 0x40 MLOAD PUSH3 0x461BCD PUSH1 0xE5 SHL DUP2 MSTORE PUSH1 0x20 PUSH1 0x4 DUP3 ADD MSTORE PUSH1 0x19 PUSH1 0x24 DUP3 ADD MSTORE PUSH32 0x44757479206E6F74207265636F72646564206173207061696400000000000000 PUSH1 0x44 DUP3 ADD MSTORE PUSH1 0x64 SWAP1 REVERT JUMPDEST PUSH4 0x4E487B71 PUSH1 0xE0 SHL DUP5 MSTORE PUSH1 0x21 PUSH1 0x4 MSTORE PUSH1 0x24 DUP5 REVERT JUMPDEST PUSH2 0x36A SWAP3 POP DUP1 RETURNDATASIZE LT PUSH2 0x371 JUMPI JUMPDEST PUSH2 0x362 DUP2 DUP4 PUSH2 0x1278 JUMP JUMPDEST DUP2 ADD SWAP1 PUSH2 0x1360 JUMP JUMPDEST CODESIZE DUP1 PUSH2 0x1B4 JUMP JUMPDEST POP RETURNDATASIZE PUSH2 0x358 JUMP JUMPDEST PUSH1 0x40 MLOAD RETURNDATASIZE DUP8 DUP3 RETURNDATACOPY RETURNDATASIZE SWAP1 REVERT JUMPDEST POP CALLVALUE PUSH2 0xAA JUMPI PUSH1 0x60 CALLDATASIZE PUSH1 0x3 NOT ADD SLT PUSH2 0xAA JUMPI PUSH1 0x24 CALLDATALOAD ISZERO ISZERO PUSH1 0x24 CALLDATALOAD SUB PUSH2 0xAA JUMPI PUSH8 0xFFFFFFFFFFFFFFFF PUSH1 0x44 CALLDATALOAD DUP2 DUP2 GT PUSH2 0x701 JUMPI PUSH2 0x3C3 SWAP1 CALLDATASIZE SWAP1 PUSH1 0x4 ADD PUSH2 0x1184 JUMP JUMPDEST DUP4 SLOAD PUSH1 0x40 MLOAD PUSH4 0x2DB25E05 PUSH1 0xE0 SHL DUP2 MSTORE PUSH1 0x4 DUP1 CALLDATALOAD SWAP1 DUP3 ADD MSTORE SWAP2 SWAP3 SWAP2 PUSH2 0x200 SWAP2 DUP3 SWAP1 DUP3 SWAP1 PUSH1 0x24 SWAP1 DUP3 SWAP1 PUSH1 0x1 PUSH1 0x1 PUSH1 0xA0 SHL SUB AND GAS STATICCALL SWAP1 DUP2 ISZERO PUSH2 0x6F6 JUMPI PUSH2 0x120 SWAP3 DUP8 SWAP3 PUSH2 0x6D9 JUMPI JUMPDEST POP POP ADD MLOAD PUSH1 0x12 DUP2 LT ISZERO PUSH2 0x6C5 JUMPI PUSH1 0x7 SUB PUSH2 0x688 JUMPI PUSH1 0x4 CALLDATALOAD DUP5 MSTORE PUSH1 0x1 PUSH1 0x20 MSTORE PUSH1 0x40 DUP5 KECCAK256 SWAP3 DUP3 PUSH2 0x55A JUMPI JUMPDEST POP POP POP PUSH1 0x2 SWAP1 PUSH1 0x24 CALLDATALOAD PUSH1 0x0 EQ PUSH2 0x4E9 JUMPI ADD DUP1 SLOAD PUSH2 0xFF00 NOT AND PUSH2 0x100 OR SWAP1 SSTORE DUP1 SLOAD DUP2 SWAP1 PUSH1 0x1 PUSH1 0x1 PUSH1 0xA0 SHL SUB AND DUP1 EXTCODESIZE ISZERO PUSH2 0x4E6 JUMPI DUP2 DUP1 SWAP2 PUSH1 0x44 PUSH1 0x40 MLOAD DUP1 SWAP5 DUP2 SWAP4 PUSH4 0x3A1B3D31 PUSH1 0xE0 SHL DUP4 MSTORE PUSH1 0x4 CALLDATALOAD PUSH1 0x4 DUP5 ADD MSTORE PUSH1 0x8 PUSH1 0x24 DUP5 ADD MSTORE GAS CALL DUP1 ISZERO PUSH2 0x286 JUMPI PUSH2 0x4D2 JUMPI JUMPDEST POP POP JUMPDEST PUSH1 0x40 MLOAD PUSH1 0x24 CALLDATALOAD ISZERO ISZERO DUP2 MSTORE CALLER PUSH1 0x20 DUP3 ADD MSTORE PUSH32 0x96752BAE5A7241784EA98FFD832F3608DB43FD5C35942D102B1A92FDAEF13F96 PUSH1 0x40 PUSH1 0x4 CALLDATALOAD SWAP3 LOG2 DUP1 RETURN JUMPDEST PUSH2 0x4DB SWAP1 PUSH2 0x1231 JUMP JUMPDEST PUSH2 0xAA JUMPI DUP1 CODESIZE PUSH2 0x494 JUMP JUMPDEST POP REVERT JUMPDEST ADD DUP1 SLOAD PUSH3 0xFF0000 NOT AND PUSH3 0x10000 OR SWAP1 SSTORE DUP1 SLOAD DUP2 SWAP1 PUSH1 0x1 PUSH1 0x1 PUSH1 0xA0 SHL SUB AND DUP1 EXTCODESIZE ISZERO PUSH2 0x4E6 JUMPI DUP2 DUP1 SWAP2 PUSH1 0x44 PUSH1 0x40 MLOAD DUP1 SWAP5 DUP2 SWAP4 PUSH4 0x3A1B3D31 PUSH1 0xE0 SHL DUP4 MSTORE PUSH1 0x4 CALLDATALOAD PUSH1 0x4 DUP5 ADD MSTORE PUSH1 0x9 PUSH1 0x24 DUP5 ADD MSTORE GAS CALL DUP1 ISZERO PUSH2 0x286 JUMPI PUSH2 0x546 JUMPI JUMPDEST POP POP PUSH2 0x497 JUMP JUMPDEST PUSH2 0x54F SWAP1 PUSH2 0x1231 JUMP JUMPDEST PUSH2 0xAA JUMPI DUP1 CODESIZE PUSH2 0x53F JUMP JUMPDEST DUP3 GT PUSH2 0x674 JUMPI PUSH2 0x56D PUSH1 0x1 DUP5 ADD SLOAD PUSH2 0x11F7 JUMP JUMPDEST PUSH1 0x1F DUP2 GT PUSH2 0x62C JUMPI JUMPDEST POP DUP4 SWAP1 PUSH1 0x1F DUP4 GT PUSH1 0x1 EQ PUSH2 0x5BC JUMPI PUSH1 0x2 SWAP4 SWAP3 SWAP2 DUP6 SWAP2 DUP4 PUSH2 0x5B1 JUMPI JUMPDEST POP POP DUP2 PUSH1 0x1 SHL SWAP2 PUSH1 0x0 NOT SWAP1 PUSH1 0x3 SHL SHR NOT AND OR PUSH1 0x1 DUP3 ADD SSTORE JUMPDEST SWAP1 CODESIZE DUP1 PUSH2 0x430 JUMP JUMPDEST ADD CALLDATALOAD SWAP1 POP CODESIZE DUP1 PUSH2 0x591 JUMP JUMPDEST PUSH1 0x1 DUP5 ADD DUP6 MSTORE PUSH1 0x20 DUP6 KECCAK256 SWAP2 DUP6 JUMPDEST PUSH1 0x1F NOT DUP6 AND DUP2 LT PUSH2 0x614 JUMPI POP SWAP2 DUP4 SWAP2 PUSH1 0x1 SWAP4 PUSH1 0x2 SWAP7 SWAP6 PUSH1 0x1F NOT DUP2 AND LT PUSH2 0x5FA JUMPI JUMPDEST POP POP POP DUP2 SHL ADD PUSH1 0x1 DUP3 ADD SSTORE PUSH2 0x5A9 JUMP JUMPDEST ADD CALLDATALOAD PUSH1 0x0 NOT PUSH1 0x3 DUP5 SWAP1 SHL PUSH1 0xF8 AND SHR NOT AND SWAP1 SSTORE CODESIZE DUP1 DUP1 PUSH2 0x5EA JUMP JUMPDEST SWAP1 SWAP3 PUSH1 0x20 PUSH1 0x1 DUP2 SWAP3 DUP7 DUP7 ADD CALLDATALOAD DUP2 SSTORE ADD SWAP5 ADD SWAP2 ADD PUSH2 0x5C9 JUMP JUMPDEST PUSH1 0x1 DUP5 ADD DUP6 MSTORE PUSH1 0x20 DUP6 KECCAK256 PUSH1 0x1F DUP5 ADD PUSH1 0x5 SHR DUP2 ADD SWAP2 PUSH1 0x20 DUP6 LT PUSH2 0x66A JUMPI JUMPDEST PUSH1 0x1F ADD PUSH1 0x5 SHR ADD SWAP1 JUMPDEST DUP2 DUP2 LT PUSH2 0x65F JUMPI POP PUSH2 0x576 JUMP JUMPDEST DUP6 DUP2 SSTORE PUSH1 0x1 ADD PUSH2 0x652 JUMP JUMPDEST SWAP1 SWAP2 POP DUP2 SWAP1 PUSH2 0x649 JUMP JUMPDEST PUSH4 0x4E487B71 PUSH1 0xE0 SHL DUP5 MSTORE PUSH1 0x41 PUSH1 0x4 MSTORE PUSH1 0x24 DUP5 REVERT JUMPDEST PUSH1 0x40 MLOAD PUSH3 0x461BCD PUSH1 0xE5 SHL DUP2 MSTORE PUSH1 0x20 PUSH1 0x4 DUP3 ADD MSTORE PUSH1 0x15 PUSH1 0x24 DUP3 ADD MSTORE PUSH21 0x11DBDBD91CC81B9BDD081E595D081CDA1A5C1C1959 PUSH1 0x5A SHL PUSH1 0x44 DUP3 ADD MSTORE PUSH1 0x64 SWAP1 REVERT JUMPDEST PUSH4 0x4E487B71 PUSH1 0xE0 SHL DUP6 MSTORE PUSH1 0x21 PUSH1 0x4 MSTORE PUSH1 0x24 DUP6 REVERT JUMPDEST PUSH2 0x6EF SWAP3 POP DUP1 RETURNDATASIZE LT PUSH2 0x371 JUMPI PUSH2 0x362 DUP2 DUP4 PUSH2 0x1278 JUMP JUMPDEST CODESIZE DUP1 PUSH2 0x407 JUMP JUMPDEST PUSH1 0x40 MLOAD RETURNDATASIZE DUP9 DUP3 RETURNDATACOPY RETURNDATASIZE SWAP1 REVERT JUMPDEST DUP3 DUP1 REVERT JUMPDEST POP CALLVALUE PUSH2 0xAA JUMPI PUSH1 0x20 CALLDATASIZE PUSH1 0x3 NOT ADD SLT PUSH2 0xAA JUMPI PUSH2 0x730 PUSH1 0x40 PUSH2 0x744 SWAP3 PUSH1 0x4 CALLDATALOAD DUP2 MSTORE PUSH1 0x1 PUSH1 0x20 MSTORE KECCAK256 PUSH2 0x129A JUMP JUMPDEST PUSH1 0x40 MLOAD SWAP2 DUP3 SWAP2 PUSH1 0x20 DUP4 MSTORE PUSH1 0x20 DUP4 ADD SWAP1 PUSH2 0x11B7 JUMP JUMPDEST SUB SWAP1 RETURN JUMPDEST POP CALLVALUE PUSH2 0xAA JUMPI PUSH1 0x20 DUP1 PUSH1 0x3 NOT CALLDATASIZE ADD SLT PUSH2 0x282 JUMPI DUP2 SLOAD PUSH1 0x40 MLOAD PUSH4 0x2DB25E05 PUSH1 0xE0 SHL DUP1 DUP3 MSTORE PUSH1 0x4 DUP1 CALLDATALOAD SWAP1 DUP4 ADD DUP2 SWAP1 MSTORE SWAP4 SWAP3 PUSH1 0x24 SWAP3 PUSH1 0x1 PUSH1 0x1 PUSH1 0xA0 SHL SUB SWAP3 PUSH2 0x200 SWAP3 DUP5 AND SWAP2 DUP4 DUP2 DUP8 DUP2 DUP7 GAS STATICCALL SWAP1 DUP2 ISZERO PUSH2 0x9FB JUMPI DUP6 SWAP2 PUSH1 0x60 SWAP2 DUP12 SWAP2 PUSH2 0x9DE JUMPI JUMPDEST POP ADD MLOAD AND CALLER SUB PUSH2 0x990 JUMPI DUP3 SWAP1 DUP6 PUSH1 0x40 MLOAD DUP1 SWAP5 DUP2 SWAP4 DUP3 MSTORE DUP11 PUSH1 0x4 DUP4 ADD MSTORE GAS STATICCALL SWAP1 DUP2 ISZERO PUSH2 0x985 JUMPI PUSH2 0x120 SWAP3 DUP9 SWAP3 PUSH2 0x968 JUMPI JUMPDEST POP POP ADD MLOAD PUSH1 0x12 DUP2 LT ISZERO PUSH2 0x955 JUMPI PUSH1 0x9 SUB PUSH2 0x91F JUMPI DUP4 DUP6 MSTORE PUSH1 0x1 DUP4 MSTORE PUSH1 0x2 PUSH1 0x40 DUP7 KECCAK256 ADD DUP1 SLOAD PUSH1 0xFF DUP2 PUSH1 0x10 SHR AND ISZERO PUSH2 0x8E3 JUMPI PUSH1 0xFF DUP2 PUSH1 0x18 SHR AND PUSH2 0x89F JUMPI PUSH5 0xFFFF000000 NOT AND PUSH5 0x101000000 OR SWAP1 SSTORE DUP5 SLOAD DUP6 SWAP3 SWAP2 AND SWAP1 DUP2 EXTCODESIZE ISZERO PUSH2 0x701 JUMPI PUSH1 0xA PUSH1 0x44 DUP5 SWAP3 DUP4 PUSH1 0x40 MLOAD SWAP6 DUP7 SWAP5 DUP6 SWAP4 PUSH4 0x3A1B3D31 PUSH1 0xE0 SHL DUP6 MSTORE DUP12 PUSH1 0x4 DUP7 ADD MSTORE DUP5 ADD MSTORE GAS CALL DUP1 ISZERO PUSH2 0x286 JUMPI PUSH2 0x88B JUMPI JUMPDEST POP POP PUSH32 0x37932ABA02F25B6BB85BAB61365C8A3F049A0AD3B5289AB59C68C4BD30152E18 SWAP1 PUSH1 0x40 MLOAD CALLER DUP2 MSTORE LOG2 DUP1 RETURN JUMPDEST PUSH2 0x894 SWAP1 PUSH2 0x1231 JUMP JUMPDEST PUSH2 0x701 JUMPI DUP3 CODESIZE PUSH2 0x85D JUMP JUMPDEST PUSH1 0x40 MLOAD PUSH3 0x461BCD PUSH1 0xE5 SHL DUP2 MSTORE PUSH1 0x4 DUP2 ADD DUP7 SWAP1 MSTORE PUSH1 0x1D DUP2 DUP7 ADD MSTORE PUSH32 0x4475747920616C7265616479207265636F726465642061732070616964000000 PUSH1 0x44 DUP3 ADD MSTORE PUSH1 0x64 SWAP1 REVERT JUMPDEST PUSH1 0x40 MLOAD PUSH3 0x461BCD PUSH1 0xE5 SHL DUP2 MSTORE PUSH1 0x4 DUP2 ADD DUP7 SWAP1 MSTORE PUSH1 0x15 DUP2 DUP7 ADD MSTORE PUSH21 0x111D5D1E481DD85CC81B9BDD081C995C5D5A5C9959 PUSH1 0x5A SHL PUSH1 0x44 DUP3 ADD MSTORE PUSH1 0x64 SWAP1 REVERT JUMPDEST PUSH1 0x40 MLOAD PUSH3 0x461BCD PUSH1 0xE5 SHL DUP2 MSTORE PUSH1 0x4 DUP2 ADD DUP5 SWAP1 MSTORE PUSH1 0xF DUP2 DUP5 ADD MSTORE PUSH15 0x4E6F2070656E64696E672064757479 PUSH1 0x88 SHL PUSH1 0x44 DUP3 ADD MSTORE PUSH1 0x64 SWAP1 REVERT JUMPDEST PUSH4 0x4E487B71 PUSH1 0xE0 SHL DUP7 MSTORE PUSH1 0x21 PUSH1 0x4 MSTORE DUP3 DUP7 REVERT JUMPDEST PUSH2 0x97E SWAP3 POP DUP1 RETURNDATASIZE LT PUSH2 0x371 JUMPI PUSH2 0x362 DUP2 DUP4 PUSH2 0x1278 JUMP JUMPDEST CODESIZE DUP1 PUSH2 0x7D4 JUMP JUMPDEST PUSH1 0x40 MLOAD RETURNDATASIZE DUP10 DUP3 RETURNDATACOPY RETURNDATASIZE SWAP1 REVERT JUMPDEST PUSH1 0x40 MLOAD PUSH3 0x461BCD PUSH1 0xE5 SHL DUP2 MSTORE PUSH1 0x4 DUP2 ADD DUP8 SWAP1 MSTORE PUSH1 0x21 DUP2 DUP8 ADD MSTORE PUSH32 0x4F6E6C792069737375696E672062616E6B2028696D706F727465722062616E6B PUSH1 0x44 DUP3 ADD MSTORE PUSH1 0x29 PUSH1 0xF8 SHL PUSH1 0x64 DUP3 ADD MSTORE PUSH1 0x84 SWAP1 REVERT JUMPDEST PUSH2 0x9F5 SWAP2 POP DUP7 RETURNDATASIZE DUP9 GT PUSH2 0x371 JUMPI PUSH2 0x362 DUP2 DUP4 PUSH2 0x1278 JUMP JUMPDEST CODESIZE PUSH2 0x7A4 JUMP JUMPDEST PUSH1 0x40 MLOAD RETURNDATASIZE DUP12 DUP3 RETURNDATACOPY RETURNDATASIZE SWAP1 REVERT JUMPDEST POP CALLVALUE PUSH2 0xAA JUMPI PUSH1 0x20 DUP1 PUSH1 0x3 NOT CALLDATASIZE ADD SLT PUSH2 0x282 JUMPI PUSH1 0x40 DUP3 PUSH2 0xB04 SWAP4 PUSH1 0xE0 DUP4 MLOAD PUSH2 0xA2D DUP2 PUSH2 0x125B JUMP JUMPDEST PUSH1 0x60 DUP2 MSTORE PUSH1 0x60 DUP7 DUP3 ADD MSTORE DUP3 DUP6 DUP3 ADD MSTORE DUP3 PUSH1 0x60 DUP3 ADD MSTORE DUP3 PUSH1 0x80 DUP3 ADD MSTORE DUP3 PUSH1 0xA0 DUP3 ADD MSTORE DUP3 PUSH1 0xC0 DUP3 ADD MSTORE ADD MSTORE PUSH1 0x4 CALLDATALOAD DUP2 MSTORE PUSH1 0x1 DUP4 MSTORE KECCAK256 PUSH1 0x40 MLOAD SWAP2 PUSH2 0xA6D DUP4 PUSH2 0x125B JUMP JUMPDEST PUSH2 0xA76 DUP3 PUSH2 0x129A JUMP JUMPDEST DUP4 MSTORE PUSH1 0x2 PUSH2 0xA86 PUSH1 0x1 DUP5 ADD PUSH2 0x129A JUMP JUMPDEST SWAP3 DUP3 DUP6 ADD SWAP4 DUP5 MSTORE ADD SLOAD PUSH1 0xFF PUSH1 0x40 DUP6 ADD SWAP4 DUP2 DUP4 AND ISZERO ISZERO DUP6 MSTORE PUSH1 0x60 DUP7 ADD DUP3 DUP5 PUSH1 0x8 SHR AND ISZERO ISZERO DUP2 MSTORE PUSH1 0x80 DUP8 ADD SWAP1 DUP4 DUP6 PUSH1 0x10 SHR AND ISZERO ISZERO DUP3 MSTORE PUSH2 0xB17 PUSH1 0xA0 DUP10 ADD SWAP4 DUP6 DUP8 PUSH1 0x18 SHR AND ISZERO ISZERO DUP6 MSTORE PUSH1 0xC0 DUP11 ADD SWAP6 DUP1 DUP9 DUP11 SHR AND ISZERO ISZERO DUP8 MSTORE PUSH1 0xE0 DUP12 ADD SWAP8 PUSH1 0x28 SHR AND ISZERO ISZERO DUP8 MSTORE PUSH1 0x40 MLOAD SWAP11 DUP12 SWAP11 DUP10 DUP13 MSTORE MLOAD PUSH2 0x100 DUP1 SWAP11 DUP14 ADD MSTORE PUSH2 0x120 DUP13 ADD SWAP1 PUSH2 0x11B7 JUMP JUMPDEST SWAP1 MLOAD DUP11 DUP3 SUB PUSH1 0x1F NOT ADD PUSH1 0x40 DUP13 ADD MSTORE PUSH2 0x11B7 JUMP JUMPDEST SWAP7 MLOAD ISZERO ISZERO PUSH1 0x60 DUP10 ADD MSTORE MLOAD ISZERO ISZERO PUSH1 0x80 DUP9 ADD MSTORE MLOAD ISZERO ISZERO PUSH1 0xA0 DUP8 ADD MSTORE MLOAD ISZERO ISZERO PUSH1 0xC0 DUP7 ADD MSTORE MLOAD ISZERO ISZERO PUSH1 0xE0 DUP6 ADD MSTORE MLOAD ISZERO ISZERO SWAP1 DUP4 ADD MSTORE SUB SWAP1 RETURN JUMPDEST POP CALLVALUE PUSH2 0xAA JUMPI PUSH1 0x40 CALLDATASIZE PUSH1 0x3 NOT ADD SLT PUSH2 0xAA JUMPI PUSH1 0x4 CALLDATALOAD PUSH8 0xFFFFFFFFFFFFFFFF PUSH1 0x24 DUP1 CALLDATALOAD DUP3 DUP2 GT PUSH2 0xF8E JUMPI PUSH2 0xB82 SWAP1 CALLDATASIZE SWAP1 PUSH1 0x4 ADD PUSH2 0x1184 JUMP JUMPDEST SWAP3 SWAP1 SWAP2 PUSH1 0x1 DUP1 PUSH1 0xA0 SHL SUB DUP1 DUP8 SLOAD AND PUSH1 0x40 MLOAD SWAP1 PUSH4 0x2DB25E05 PUSH1 0xE0 SHL DUP1 DUP4 MSTORE DUP9 PUSH1 0x4 DUP5 ADD MSTORE PUSH2 0x200 SWAP3 DUP4 DUP2 DUP8 DUP2 DUP7 GAS STATICCALL SWAP1 DUP2 ISZERO PUSH2 0xF83 JUMPI DUP6 SWAP2 PUSH1 0xA0 SWAP2 DUP14 SWAP2 PUSH2 0xF66 JUMPI JUMPDEST POP ADD MLOAD AND CALLER SUB PUSH2 0xF22 JUMPI DUP3 SWAP1 DUP6 PUSH1 0x40 MLOAD DUP1 SWAP5 DUP2 SWAP4 DUP3 MSTORE DUP13 PUSH1 0x4 DUP4 ADD MSTORE GAS STATICCALL SWAP1 DUP2 ISZERO PUSH2 0x9FB JUMPI PUSH2 0x120 SWAP3 DUP11 SWAP3 PUSH2 0xF05 JUMPI JUMPDEST POP POP ADD MLOAD PUSH1 0x12 DUP2 LT ISZERO PUSH2 0xEF2 JUMPI PUSH1 0x6 SUB PUSH2 0xE9C JUMPI DUP5 ISZERO PUSH2 0xE63 JUMPI DUP6 DUP8 MSTORE PUSH1 0x1 PUSH1 0x20 SWAP4 DUP2 DUP6 MSTORE PUSH1 0xFF PUSH1 0x2 PUSH1 0x40 DUP12 KECCAK256 ADD SLOAD AND PUSH2 0xE2A JUMPI DUP8 DUP10 MSTORE DUP2 DUP6 MSTORE PUSH1 0x40 DUP10 KECCAK256 SWAP1 DUP8 GT PUSH2 0xE17 JUMPI SWAP1 DUP2 PUSH2 0xC46 DUP11 SWAP5 SWAP4 SLOAD PUSH2 0x11F7 JUMP JUMPDEST PUSH1 0x1F DUP2 GT PUSH2 0xDC9 JUMPI JUMPDEST POP DUP8 DUP5 PUSH1 0x1F DUP3 GT PUSH1 0x1 EQ PUSH2 0xD67 JUMPI DUP6 SWAP2 PUSH2 0xD5C JUMPI JUMPDEST POP PUSH1 0x0 NOT PUSH1 0x3 DUP11 SWAP1 SHL SHR NOT AND DUP9 DUP4 SHL OR SWAP1 SSTORE JUMPDEST DUP8 DUP4 MSTORE DUP1 DUP6 MSTORE PUSH1 0x2 PUSH1 0x40 DUP5 KECCAK256 ADD SWAP1 PUSH1 0xFF NOT DUP3 SLOAD AND OR SWAP1 SSTORE DUP2 SLOAD AND SWAP2 DUP3 EXTCODESIZE ISZERO PUSH2 0x282 JUMPI PUSH1 0x44 PUSH1 0x7 SWAP2 DUP4 PUSH1 0x40 MLOAD SWAP6 DUP7 SWAP5 DUP6 SWAP4 PUSH4 0x3A1B3D31 PUSH1 0xE0 SHL DUP6 MSTORE DUP13 PUSH1 0x4 DUP7 ADD MSTORE DUP5 ADD MSTORE GAS CALL DUP1 ISZERO PUSH2 0x6F6 JUMPI PUSH2 0xD20 JUMPI JUMPDEST POP DUP3 SWAP2 PUSH32 0x63149911DB316F829A231B8A15319E7C3955AE2DC560E0F9A964D69BA0BE2DBD SWAP4 PUSH1 0x60 SWAP3 PUSH1 0x40 MLOAD SWAP5 DUP6 SWAP4 PUSH1 0x40 DUP6 MSTORE DUP2 PUSH1 0x40 DUP7 ADD MSTORE DUP6 DUP6 ADD CALLDATACOPY DUP3 DUP3 ADD DUP5 ADD DUP9 SWAP1 MSTORE CALLER SWAP1 DUP4 ADD MSTORE PUSH1 0x1F ADD PUSH1 0x1F NOT AND DUP2 ADD SUB ADD SWAP1 LOG2 DUP1 RETURN JUMPDEST SWAP2 DUP4 PUSH1 0x60 SWAP3 SWAP7 PUSH2 0xD51 PUSH32 0x63149911DB316F829A231B8A15319E7C3955AE2DC560E0F9A964D69BA0BE2DBD SWAP7 SWAP6 PUSH2 0x1231 JUMP JUMPDEST SWAP7 SWAP3 POP POP SWAP2 SWAP3 PUSH2 0xCC7 JUMP JUMPDEST SWAP1 POP DUP8 ADD CALLDATALOAD CODESIZE PUSH2 0xC64 JUMP JUMPDEST DUP3 DUP7 MSTORE DUP8 DUP7 KECCAK256 SWAP2 POP DUP10 PUSH1 0x1F NOT DUP2 AND DUP8 JUMPDEST DUP11 DUP3 DUP3 LT PUSH2 0xDAF JUMPI POP POP LT PUSH2 0xD95 JUMPI JUMPDEST POP POP DUP2 DUP9 DUP2 SHL ADD SWAP1 SSTORE PUSH2 0xC77 JUMP JUMPDEST DUP9 ADD CALLDATALOAD PUSH1 0x0 NOT PUSH1 0x3 DUP12 SWAP1 SHL PUSH1 0xF8 AND SHR NOT AND SWAP1 SSTORE CODESIZE DUP1 PUSH2 0xD87 JUMP JUMPDEST DUP13 DUP6 ADD CALLDATALOAD DUP7 SSTORE DUP16 SWAP10 POP SWAP5 DUP8 ADD SWAP5 SWAP4 DUP5 ADD SWAP4 DUP14 SWAP4 POP ADD PUSH2 0xD77 JUMP JUMPDEST SWAP1 DUP1 SWAP3 SWAP4 SWAP5 MSTORE DUP6 DUP11 KECCAK256 PUSH1 0x1F DUP10 ADD PUSH1 0x5 SHR DUP2 ADD SWAP2 DUP8 DUP11 LT PUSH2 0xE0D JUMPI JUMPDEST SWAP1 PUSH1 0x1F DUP13 SWAP7 SWAP6 SWAP5 SWAP4 SWAP3 ADD PUSH1 0x5 SHR ADD SWAP1 JUMPDEST DUP2 DUP2 LT PUSH2 0xE01 JUMPI POP PUSH2 0xC4F JUMP JUMPDEST SWAP5 DUP6 SSTORE DUP11 SWAP5 DUP4 ADD PUSH2 0xDF4 JUMP JUMPDEST SWAP1 SWAP2 POP DUP2 SWAP1 PUSH2 0xDE4 JUMP JUMPDEST PUSH4 0x4E487B71 PUSH1 0xE0 SHL DUP10 MSTORE PUSH1 0x41 PUSH1 0x4 MSTORE DUP4 DUP10 REVERT JUMPDEST PUSH1 0x40 MLOAD PUSH3 0x461BCD PUSH1 0xE5 SHL DUP2 MSTORE PUSH1 0x4 DUP2 ADD DUP7 SWAP1 MSTORE PUSH1 0x12 DUP2 DUP7 ADD MSTORE PUSH18 0x109BD308185B1C9958591E481A5CDCDD5959 PUSH1 0x72 SHL PUSH1 0x44 DUP3 ADD MSTORE PUSH1 0x64 SWAP1 REVERT JUMPDEST PUSH1 0x40 MLOAD PUSH3 0x461BCD PUSH1 0xE5 SHL DUP2 MSTORE PUSH1 0x20 PUSH1 0x4 DUP3 ADD MSTORE PUSH1 0x12 DUP2 DUP5 ADD MSTORE PUSH18 0x12541194C81A185CDA081C995C5D5A5C9959 PUSH1 0x72 SHL PUSH1 0x44 DUP3 ADD MSTORE PUSH1 0x64 SWAP1 REVERT JUMPDEST PUSH1 0x40 MLOAD PUSH3 0x461BCD PUSH1 0xE5 SHL DUP2 MSTORE PUSH1 0x20 PUSH1 0x4 DUP3 ADD MSTORE PUSH1 0x29 DUP2 DUP5 ADD MSTORE PUSH32 0x5472616465206D75737420626520696E205348495050494E475F41535349474E PUSH1 0x44 DUP3 ADD MSTORE PUSH9 0x454420737461747573 PUSH1 0xB8 SHL PUSH1 0x64 DUP3 ADD MSTORE PUSH1 0x84 SWAP1 REVERT JUMPDEST PUSH4 0x4E487B71 PUSH1 0xE0 SHL DUP9 MSTORE PUSH1 0x21 PUSH1 0x4 MSTORE DUP3 DUP9 REVERT JUMPDEST PUSH2 0xF1B SWAP3 POP DUP1 RETURNDATASIZE LT PUSH2 0x371 JUMPI PUSH2 0x362 DUP2 DUP4 PUSH2 0x1278 JUMP JUMPDEST CODESIZE DUP1 PUSH2 0xBF3 JUMP JUMPDEST PUSH1 0x40 MLOAD PUSH3 0x461BCD PUSH1 0xE5 SHL DUP2 MSTORE PUSH1 0x20 PUSH1 0x4 DUP3 ADD MSTORE PUSH1 0x1E DUP2 DUP8 ADD MSTORE PUSH32 0x4F6E6C792061737369676E6564207368697070696E6720636F6D70616E790000 PUSH1 0x44 DUP3 ADD MSTORE PUSH1 0x64 SWAP1 REVERT JUMPDEST PUSH2 0xF7D SWAP2 POP DUP7 RETURNDATASIZE DUP9 GT PUSH2 0x371 JUMPI PUSH2 0x362 DUP2 DUP4 PUSH2 0x1278 JUMP JUMPDEST CODESIZE PUSH2 0xBC3 JUMP JUMPDEST PUSH1 0x40 MLOAD RETURNDATASIZE DUP14 DUP3 RETURNDATACOPY RETURNDATASIZE SWAP1 REVERT JUMPDEST DUP5 DUP1 REVERT JUMPDEST SWAP1 POP CALLVALUE PUSH2 0x282 JUMPI PUSH1 0x20 DUP1 PUSH1 0x3 NOT CALLDATASIZE ADD SLT PUSH2 0x701 JUMPI DUP3 SLOAD PUSH4 0x2DB25E05 PUSH1 0xE0 SHL DUP4 MSTORE PUSH1 0x4 DUP1 CALLDATALOAD SWAP1 DUP5 ADD DUP2 SWAP1 MSTORE SWAP3 PUSH2 0x200 SWAP2 DUP3 SWAP1 DUP3 SWAP1 PUSH1 0x24 SWAP1 DUP3 SWAP1 PUSH1 0x1 PUSH1 0x1 PUSH1 0xA0 SHL SUB AND GAS STATICCALL SWAP1 DUP2 ISZERO PUSH2 0x378 JUMPI PUSH2 0x120 SWAP3 DUP7 SWAP3 PUSH2 0x1167 JUMPI JUMPDEST POP POP ADD MLOAD PUSH1 0x12 DUP2 LT ISZERO PUSH2 0x337 JUMPI PUSH1 0xA PUSH2 0x1000 SWAP2 EQ PUSH2 0x147E JUMP JUMPDEST DUP2 DUP4 MSTORE PUSH1 0x1 DUP2 MSTORE PUSH1 0x2 PUSH1 0x40 DUP5 KECCAK256 ADD DUP1 SLOAD PUSH1 0xFF DUP2 PUSH1 0x18 SHR AND ISZERO PUSH2 0x110D JUMPI PUSH1 0xFF DUP2 DUP5 SHR AND ISZERO PUSH2 0x10B7 JUMPI PUSH1 0xFF DUP2 PUSH1 0x28 SHR AND PUSH2 0x1072 JUMPI PUSH6 0xFF0000000000 NOT AND PUSH6 0x10000000000 OR SWAP1 SSTORE PUSH1 0x40 MLOAD CALLER DUP2 MSTORE PUSH32 0xDDE75A4A33C4674911B4659751E101F012AB9C26DECB7F75509ABD4CF37AE71F SWAP2 SWAP1 LOG2 DUP1 RETURN JUMPDEST PUSH1 0x40 MLOAD PUSH3 0x461BCD PUSH1 0xE5 SHL DUP2 MSTORE PUSH1 0x4 DUP2 ADD DUP5 SWAP1 MSTORE PUSH1 0x18 PUSH1 0x24 DUP3 ADD MSTORE PUSH32 0x5265636569707420616C7265616479207265636F726465640000000000000000 PUSH1 0x44 DUP3 ADD MSTORE PUSH1 0x64 SWAP1 REVERT JUMPDEST PUSH1 0x40 MLOAD PUSH3 0x461BCD PUSH1 0xE5 SHL DUP2 MSTORE PUSH1 0x4 DUP2 ADD DUP5 SWAP1 MSTORE PUSH1 0x28 PUSH1 0x24 DUP3 ADD MSTORE PUSH32 0x4475747920666565206E6F7420617574686F72697A656420627920496D706F72 PUSH1 0x44 DUP3 ADD MSTORE PUSH8 0x7465722042616E6B PUSH1 0xC0 SHL PUSH1 0x64 DUP3 ADD MSTORE PUSH1 0x84 SWAP1 REVERT JUMPDEST PUSH1 0x40 MLOAD PUSH3 0x461BCD PUSH1 0xE5 SHL DUP2 MSTORE PUSH1 0x4 DUP2 ADD DUP5 SWAP1 MSTORE PUSH1 0x2C PUSH1 0x24 DUP3 ADD MSTORE PUSH32 0x496D706F727465722042616E6B20686173206E6F7420636F6E6669726D656420 PUSH1 0x44 DUP3 ADD MSTORE PUSH12 0x191D5D1E481C185E5B595B9D PUSH1 0xA2 SHL PUSH1 0x64 DUP3 ADD MSTORE PUSH1 0x84 SWAP1 REVERT JUMPDEST PUSH2 0x117D SWAP3 POP DUP1 RETURNDATASIZE LT PUSH2 0x371 JUMPI PUSH2 0x362 DUP2 DUP4 PUSH2 0x1278 JUMP JUMPDEST CODESIZE DUP1 PUSH2 0xFE7 JUMP JUMPDEST SWAP2 DUP2 PUSH1 0x1F DUP5 ADD SLT ISZERO PUSH2 0x11B2 JUMPI DUP3 CALLDATALOAD SWAP2 PUSH8 0xFFFFFFFFFFFFFFFF DUP4 GT PUSH2 0x11B2 JUMPI PUSH1 0x20 DUP4 DUP2 DUP7 ADD SWAP6 ADD ADD GT PUSH2 0x11B2 JUMPI JUMP JUMPDEST PUSH1 0x0 DUP1 REVERT JUMPDEST SWAP2 SWAP1 DUP3 MLOAD SWAP3 DUP4 DUP3 MSTORE PUSH1 0x0 JUMPDEST DUP5 DUP2 LT PUSH2 0x11E3 JUMPI POP POP DUP3 PUSH1 0x0 PUSH1 0x20 DUP1 SWAP5 SWAP6 DUP5 ADD ADD MSTORE PUSH1 0x1F DUP1 NOT SWAP2 ADD AND ADD ADD SWAP1 JUMP JUMPDEST PUSH1 0x20 DUP2 DUP4 ADD DUP2 ADD MLOAD DUP5 DUP4 ADD DUP3 ADD MSTORE ADD PUSH2 0x11C2 JUMP JUMPDEST SWAP1 PUSH1 0x1 DUP3 DUP2 SHR SWAP3 AND DUP1 ISZERO PUSH2 0x1227 JUMPI JUMPDEST PUSH1 0x20 DUP4 LT EQ PUSH2 0x1211 JUMPI JUMP JUMPDEST PUSH4 0x4E487B71 PUSH1 0xE0 SHL PUSH1 0x0 MSTORE PUSH1 0x22 PUSH1 0x4 MSTORE PUSH1 0x24 PUSH1 0x0 REVERT JUMPDEST SWAP2 PUSH1 0x7F AND SWAP2 PUSH2 0x1206 JUMP JUMPDEST PUSH8 0xFFFFFFFFFFFFFFFF DUP2 GT PUSH2 0x1245 JUMPI PUSH1 0x40 MSTORE JUMP JUMPDEST PUSH4 0x4E487B71 PUSH1 0xE0 SHL PUSH1 0x0 MSTORE PUSH1 0x41 PUSH1 0x4 MSTORE PUSH1 0x24 PUSH1 0x0 REVERT JUMPDEST PUSH2 0x100 DUP2 ADD SWAP1 DUP2 LT PUSH8 0xFFFFFFFFFFFFFFFF DUP3 GT OR PUSH2 0x1245 JUMPI PUSH1 0x40 MSTORE JUMP JUMPDEST SWAP1 PUSH1 0x1F DUP1 NOT SWAP2 ADD AND DUP2 ADD SWAP1 DUP2 LT PUSH8 0xFFFFFFFFFFFFFFFF DUP3 GT OR PUSH2 0x1245 JUMPI PUSH1 0x40 MSTORE JUMP JUMPDEST SWAP1 PUSH1 0x40 MLOAD SWAP2 DUP3 PUSH1 0x0 DUP3 SLOAD PUSH2 0x12AD DUP2 PUSH2 0x11F7 JUMP JUMPDEST SWAP1 DUP2 DUP5 MSTORE PUSH1 0x20 SWAP5 PUSH1 0x1 SWAP2 PUSH1 0x1 DUP2 AND SWAP1 DUP2 PUSH1 0x0 EQ PUSH2 0x131D JUMPI POP PUSH1 0x1 EQ PUSH2 0x12DE JUMPI JUMPDEST POP POP POP PUSH2 0x12DC SWAP3 POP SUB DUP4 PUSH2 0x1278 JUMP JUMPDEST JUMP JUMPDEST PUSH1 0x0 SWAP1 DUP2 MSTORE DUP6 DUP2 KECCAK256 SWAP6 SWAP4 POP SWAP2 SWAP1 JUMPDEST DUP2 DUP4 LT PUSH2 0x1305 JUMPI POP POP PUSH2 0x12DC SWAP4 POP DUP3 ADD ADD CODESIZE DUP1 DUP1 PUSH2 0x12CD JUMP JUMPDEST DUP6 SLOAD DUP9 DUP5 ADD DUP6 ADD MSTORE SWAP5 DUP6 ADD SWAP5 DUP8 SWAP5 POP SWAP2 DUP4 ADD SWAP2 PUSH2 0x12EC JUMP JUMPDEST SWAP3 POP POP POP PUSH2 0x12DC SWAP5 SWAP3 POP PUSH1 0xFF NOT AND DUP3 DUP5 ADD MSTORE ISZERO ISZERO PUSH1 0x5 SHL DUP3 ADD ADD CODESIZE DUP1 DUP1 PUSH2 0x12CD JUMP JUMPDEST MLOAD SWAP1 PUSH1 0x1 PUSH1 0x1 PUSH1 0xA0 SHL SUB DUP3 AND DUP3 SUB PUSH2 0x11B2 JUMPI JUMP JUMPDEST MLOAD SWAP1 DUP2 ISZERO ISZERO DUP3 SUB PUSH2 0x11B2 JUMPI JUMP JUMPDEST DUP1 SWAP2 PUSH2 0x200 SWAP3 DUP4 SWAP2 SUB SLT PUSH2 0x11B2 JUMPI PUSH1 0x40 MLOAD SWAP2 DUP3 ADD DUP3 DUP2 LT PUSH8 0xFFFFFFFFFFFFFFFF DUP3 GT OR PUSH2 0x1245 JUMPI PUSH1 0x40 MSTORE DUP1 MLOAD DUP3 MSTORE PUSH2 0x139A PUSH1 0x20 DUP3 ADD PUSH2 0x133F JUMP JUMPDEST PUSH1 0x20 DUP4 ADD MSTORE PUSH2 0x13AB PUSH1 0x40 DUP3 ADD PUSH2 0x133F JUMP JUMPDEST PUSH1 0x40 DUP4 ADD MSTORE PUSH2 0x13BC PUSH1 0x60 DUP3 ADD PUSH2 0x133F JUMP JUMPDEST PUSH1 0x60 DUP4 ADD MSTORE PUSH2 0x13CD PUSH1 0x80 DUP3 ADD PUSH2 0x133F JUMP JUMPDEST PUSH1 0x80 DUP4 ADD MSTORE PUSH2 0x13DE PUSH1 0xA0 DUP3 ADD PUSH2 0x133F JUMP JUMPDEST PUSH1 0xA0 DUP4 ADD MSTORE PUSH2 0x13EF PUSH1 0xC0 DUP3 ADD PUSH2 0x133F JUMP JUMPDEST PUSH1 0xC0 DUP4 ADD MSTORE PUSH2 0x1400 PUSH1 0xE0 DUP3 ADD PUSH2 0x133F JUMP JUMPDEST PUSH1 0xE0 DUP4 ADD MSTORE PUSH2 0x100 PUSH2 0x1413 DUP2 DUP4 ADD PUSH2 0x133F JUMP JUMPDEST SWAP1 DUP4 ADD MSTORE PUSH2 0x120 DUP1 DUP3 ADD MLOAD SWAP1 PUSH1 0x12 DUP3 LT ISZERO PUSH2 0x11B2 JUMPI DUP4 ADD MSTORE PUSH2 0x140 DUP1 DUP3 ADD MLOAD SWAP1 DUP4 ADD MSTORE PUSH2 0x160 DUP1 DUP3 ADD MLOAD SWAP1 DUP4 ADD MSTORE PUSH2 0x180 DUP1 DUP3 ADD MLOAD SWAP1 DUP4 ADD MSTORE PUSH2 0x1A0 DUP1 DUP3 ADD MLOAD SWAP1 DUP4 ADD MSTORE PUSH2 0x1C0 PUSH2 0x1465 DUP2 DUP4 ADD PUSH2 0x1353 JUMP JUMPDEST SWAP1 DUP4 ADD MSTORE PUSH2 0x1477 PUSH2 0x1E0 DUP1 SWAP3 ADD PUSH2 0x1353 JUMP JUMPDEST SWAP1 DUP3 ADD MSTORE SWAP1 JUMP JUMPDEST ISZERO PUSH2 0x1485 JUMPI JUMP JUMPDEST PUSH1 0x40 MLOAD PUSH3 0x461BCD PUSH1 0xE5 SHL DUP2 MSTORE PUSH1 0x20 PUSH1 0x4 DUP3 ADD MSTORE PUSH1 0x11 PUSH1 0x24 DUP3 ADD MSTORE PUSH17 0x111D5D1E481B9BDD081C185A59081E595D PUSH1 0x7A SHL PUSH1 0x44 DUP3 ADD MSTORE PUSH1 0x64 SWAP1 REVERT INVALID LOG2 PUSH5 0x6970667358 0x22 SLT KECCAK256 PUSH19 0xF5D9F92D73D88CE108FD94F1395F5AD517C5 BLOBHASH EXTCODECOPY CALLDATACOPY EXTCODEHASH 0xA9 0xBF 0xC2 0xD6 SIGNEXTEND SIGNEXTEND 0xAF 0xB3 PUSH5 0x736F6C6343 STOP ADDMOD XOR STOP CALLER "},"methodIdentifiers":{"confirmDutyPayment(uint256)":"6e0ede4f","getBolIpfsHash(uint256)":"8dd62219","getVerification(uint256)":"58937cc8","issueBillOfLading(uint256,string)":"3eb3da48","recordTaxReceipt(uint256)":"3896b80c","releaseFromDuty(uint256)":"9b8d8a10","tradeRegistry()":"dbd97308","verifications(uint256)":"b90b0a10","verifyAsCustoms(uint256,bool,string)":"959aec85"}}}}}