{"contracts/ConsensusDispute.sol":{"ConsensusDispute":{"abi":[{"inputs":[{"internalType":"address","name":"_tradeRegistry","type":"address"}],"stateMutability":"nonpayable","type":"constructor"},{"anonymous":false,"inputs":[{"indexed":true,"internalType":"uint256","name":"tradeId","type":"uint256"},{"indexed":false,"internalType":"enum TradeRegistry.TradeStatus","name":"newStatus","type":"uint8"}],"name":"ConsensusReached","type":"event"},{"anonymous":false,"inputs":[{"indexed":true,"internalType":"uint256","name":"tradeId","type":"uint256"},{"indexed":false,"internalType":"string","name":"evidenceIpfsHash","type":"string"},{"indexed":false,"internalType":"address","name":"raisedBy","type":"address"}],"name":"DisputeRaised","type":"event"},{"anonymous":false,"inputs":[{"indexed":true,"internalType":"uint256","name":"tradeId","type":"uint256"},{"indexed":true,"internalType":"address","name":"voter","type":"address"},{"indexed":false,"internalType":"enum ConsensusDispute.Vote","name":"vote","type":"uint8"},{"indexed":false,"internalType":"uint256","name":"points","type":"uint256"}],"name":"VoteCast","type":"event"},{"inputs":[{"internalType":"uint256","name":"_tradeId","type":"uint256"},{"internalType":"enum ConsensusDispute.Vote","name":"_vote","type":"uint8"}],"name":"castVote","outputs":[],"stateMutability":"nonpayable","type":"function"},{"inputs":[{"internalType":"uint256","name":"","type":"uint256"}],"name":"disputes","outputs":[{"internalType":"uint256","name":"tradeId","type":"uint256"},{"internalType":"string","name":"evidenceIpfsHash","type":"string"},{"internalType":"bool","name":"active","type":"bool"},{"internalType":"uint256","name":"totalRevertPoints","type":"uint256"},{"internalType":"uint256","name":"totalPayoutPoints","type":"uint256"}],"stateMutability":"view","type":"function"},{"inputs":[{"internalType":"uint256","name":"_tradeId","type":"uint256"},{"internalType":"string","name":"_evidenceIpfsHash","type":"string"}],"name":"raiseDispute","outputs":[],"stateMutability":"nonpayable","type":"function"},{"inputs":[],"name":"tradeRegistry","outputs":[{"internalType":"contract TradeRegistry","name":"","type":"address"}],"stateMutability":"view","type":"function"}],"evm":{"bytecode":{"linkReferences":{},"object":"60803461007457601f610c7938819003918201601f19168301916001600160401b038311848410176100795780849260209460405283398101031261007457516001600160a01b0381169081900361007457600080546001600160a01b031916919091179055604051610be990816100908239f35b600080fd5b634e487b7160e01b600052604160045260246000fdfe608060408181526004918236101561001657600080fd5b600092833560e01c918263564a565d146108865750816356781388146104e65781635aef573c1461007b575063dbd973081461005157600080fd5b34610077578160031936011261007757905490516001600160a01b039091168152602090f35b5080fd5b9050346104e257816003193601126104e25780359167ffffffffffffffff91602480358481116104de57366023820112156104de57808301359485116104de57368286830101116104de5786548451632db25e0560e01b81528085018890526001600160a01b039491610200919082908290879082908a165afa9182156104d4578a926104a7575b505060209480868301511633148015610499575b801561048a575b801561047b575b1561043957888a5260019182875260ff6002898d200154166103fe5761012001805160128110156103ec57600d141590816103c4575b5015610382578990898252828752878220928a84558084019361017e85546109c6565b601f8111610333575b5083948b89601f82116001146102ab57869760029596979261029e575b505060001960038e901b1c19168c851b1790555b019060ff1982541617905581541691823b1561007757604489918389519586948593633a1b3d3160e01b8552840152600e898401525af1801561029457610252575b50936060928185937f223ba97c9abddc29a613210e7bdae454e02ce4bbbd1828f87b20631bdd29cf2f97829751978689978852870152018585013782820184018890523390830152601f01601f19168101030190a280f35b92858095937f223ba97c9abddc29a613210e7bdae454e02ce4bbbd1828f87b20631bdd29cf2f979399610286606097610a00565b9993509395509550926101fa565b85513d8a823e3d90fd5b8a010135905089386101a4565b50601f198116968287528a8c8820928d89905b8d8c8310610303575050508060029798999a106102e6575b915050858092501b0190556101b8565b60f86000199160031b161c19918b01013516905538808a8e6102d6565b899b5085989a9c96929799935094819594919401013581550194019201918f9694928e8c918e9a9896949a6102be565b90919293859052888d20601f8c0160051c8101918a8d10610378575b90601f8f96959493920160051c01905b81811061036c5750610187565b9485558d94830161035f565b909150819061034f565b865162461bcd60e51b8152808401879052601d818701527f43616e6e6f7420646973707574652066696e69736865642074726164650000006044820152606490fd5b90505160128110156103da57601014153861015b565b634e487b7160e01b8b5260218452858bfd5b634e487b7160e01b8c5260218552868cfd5b875162461bcd60e51b8152808501889052601681880152754469737075746520616c72656164792061637469766560501b6044820152606490fd5b865162461bcd60e51b8152808401879052601f818701527f4e6f7420617574686f72697a656420746f2072616973652064697370757465006044820152606490fd5b50806060830151163314610125565b508060c083015116331461011e565b508087830151163314610117565b6104c69250803d106104cd575b6104be8183610a2a565b810190610a72565b3880610103565b503d6104b4565b87513d8c823e3d90fd5b8680fd5b8280fd5b83915034610077578260031936011261007757803560249182359481861015610882578285526001916020928084528287209060ff6002830154161561084c57600582019033895281865260ff858a20541661081a5788548551632db25e0560e01b81528581018990526001600160a01b0394916102009190829082908d9082908a165afa918215610810578c926107f3575b50508460c082015116331460001461077357506002925b338b528752858a20805460ff199081168417909155928a908c840361075257600383016105be828254610b90565b90555b875191610740578b9c829c98999a9b9c5289820152897fb83d25c6a5d258561330739951487acb4bd09ba5190b5d32c4f261817d906792893393a36003818101548691116106995750508785528652600285852001908154169055825416803b156104e257859183604492601087519a8b968795633a1b3d3160e01b87528601528401525af193841561068f577f7e662e7f611008beb74cd4814099bfdb702ff12758cd917e0007eadbf546f9f79394610680575b505160108152a280f35b61068990610a00565b85610676565b81513d87823e3d90fd5b600391015410156106b1575b50505050505050505080f35b8785528652600285852001908154169055825416803b156104e257859183604492601187519a8b968795633a1b3d3160e01b87528601528401525af193841561068f577f7e662e7f611008beb74cd4814099bfdb702ff12758cd917e0007eadbf546f9f79394610731575b505160118152a28180808084818080806106a5565b61073a90610a00565b8561071c565b634e487b7160e01b8c52602187528a8cfd5b8b91506001198d016105c15786830161076c828254610b90565b90556105c1565b848060e08301511633149182156107e1575b82156107d0575b50501561079a578192610590565b855162461bcd60e51b81528086018890526011818b0152704e6f74206120766f74696e67206e6f646560781b6044820152606490fd5b60609192500151163314848d61078c565b91508061010083015116331491610785565b6108099250803d106104cd576104be8183610a2a565b8c80610579565b88513d8e823e3d90fd5b845162461bcd60e51b8152808501879052600d818a01526c105b1c9958591e481d9bdd1959609a1b6044820152606490fd5b835162461bcd60e51b8152808401869052601181890152704e6f20616374697665206469737075746560781b6044820152606490fd5b8480fd5b8385346109c357602091826003193601126100775784358252600194600184528183209283549686600186019183908354936108c1856109c6565b948585528a6001821691826000146109a1575050600114610964575b50506108f29250989695939492980387610a2a565b60ff600283015416926003830154920154928151978896875260a0868801528751958660a0890152815b87811061094d57505060c0809850868801015215159085015260608401526080830152601f80199101168101030190f35b808a018201518b820160c001528a9850810161091c565b89925085528185209085915b8583106109885750506108f293508201018a806108dd565b8194848483969596549201015201910189928992610970565b92509350506108f294915060ff191682840152151560051b8201018a806108dd565b80fd5b90600182811c921680156109f6575b60208310146109e057565b634e487b7160e01b600052602260045260246000fd5b91607f16916109d5565b67ffffffffffffffff8111610a1457604052565b634e487b7160e01b600052604160045260246000fd5b90601f8019910116810190811067ffffffffffffffff821117610a1457604052565b51906001600160a01b0382168203610a6057565b600080fd5b51908115158203610a6057565b80916102009283910312610a605760405191820182811067ffffffffffffffff821117610a145760405280518252610aac60208201610a4c565b6020830152610abd60408201610a4c565b6040830152610ace60608201610a4c565b6060830152610adf60808201610a4c565b6080830152610af060a08201610a4c565b60a0830152610b0160c08201610a4c565b60c0830152610b1260e08201610a4c565b60e0830152610100610b25818301610a4c565b9083015261012080820151906012821015610a60578301526101408082015190830152610160808201519083015261018080820151908301526101a080820151908301526101c0610b77818301610a65565b90830152610b896101e0809201610a65565b9082015290565b91908201809211610b9d57565b634e487b7160e01b600052601160045260246000fdfea2646970667358221220d9d887dfe1f68080615c8381fd2f1bf50f83488d9bdf9098744054b356ccda5064736f6c63430008180033","opcodes":"PUSH1 0x80 CALLVALUE PUSH2 0x74 JUMPI PUSH1 0x1F PUSH2 0xC79 CODESIZE DUP2 SWAP1 SUB SWAP2 DUP3 ADD PUSH1 0x1F NOT AND DUP4 ADD SWAP2 PUSH1 0x1 PUSH1 0x1 PUSH1 0x40 SHL SUB DUP4 GT DUP5 DUP5 LT OR PUSH2 0x79 JUMPI DUP1 DUP5 SWAP3 PUSH1 0x20 SWAP5 PUSH1 0x40 MSTORE DUP4 CODECOPY DUP2 ADD SUB SLT PUSH2 0x74 JUMPI MLOAD PUSH1 0x1 PUSH1 0x1 PUSH1 0xA0 SHL SUB DUP2 AND SWAP1 DUP2 SWAP1 SUB PUSH2 0x74 JUMPI PUSH1 0x0 DUP1 SLOAD PUSH1 0x1 PUSH1 0x1 PUSH1 0xA0 SHL SUB NOT AND SWAP2 SWAP1 SWAP2 OR SWAP1 SSTORE PUSH1 0x40 MLOAD PUSH2 0xBE9 SWAP1 DUP2 PUSH2 0x90 DUP3 CODECOPY RETURN JUMPDEST PUSH1 0x0 DUP1 REVERT JUMPDEST PUSH4 0x4E487B71 PUSH1 0xE0 SHL PUSH1 0x0 MSTORE PUSH1 0x41 PUSH1 0x4 MSTORE PUSH1 0x24 PUSH1 0x0 REVERT INVALID PUSH1 0x80 PUSH1 0x40 DUP2 DUP2 MSTORE PUSH1 0x4 SWAP2 DUP3 CALLDATASIZE LT ISZERO PUSH2 0x16 JUMPI PUSH1 0x0 DUP1 REVERT JUMPDEST PUSH1 0x0 SWAP3 DUP4 CALLDATALOAD PUSH1 0xE0 SHR SWAP2 DUP3 PUSH4 0x564A565D EQ PUSH2 0x886 JUMPI POP DUP2 PUSH4 0x56781388 EQ PUSH2 0x4E6 JUMPI DUP2 PUSH4 0x5AEF573C EQ PUSH2 0x7B JUMPI POP PUSH4 0xDBD97308 EQ PUSH2 0x51 JUMPI PUSH1 0x0 DUP1 REVERT JUMPDEST CALLVALUE PUSH2 0x77 JUMPI DUP2 PUSH1 0x3 NOT CALLDATASIZE ADD SLT PUSH2 0x77 JUMPI SWAP1 SLOAD SWAP1 MLOAD PUSH1 0x1 PUSH1 0x1 PUSH1 0xA0 SHL SUB SWAP1 SWAP2 AND DUP2 MSTORE PUSH1 0x20 SWAP1 RETURN JUMPDEST POP DUP1 REVERT JUMPDEST SWAP1 POP CALLVALUE PUSH2 0x4E2 JUMPI DUP2 PUSH1 0x3 NOT CALLDATASIZE ADD SLT PUSH2 0x4E2 JUMPI DUP1 CALLDATALOAD SWAP2 PUSH8 0xFFFFFFFFFFFFFFFF SWAP2 PUSH1 0x24 DUP1 CALLDATALOAD DUP5 DUP2 GT PUSH2 0x4DE JUMPI CALLDATASIZE PUSH1 0x23 DUP3 ADD SLT ISZERO PUSH2 0x4DE JUMPI DUP1 DUP4 ADD CALLDATALOAD SWAP5 DUP6 GT PUSH2 0x4DE JUMPI CALLDATASIZE DUP3 DUP7 DUP4 ADD ADD GT PUSH2 0x4DE JUMPI DUP7 SLOAD DUP5 MLOAD PUSH4 0x2DB25E05 PUSH1 0xE0 SHL DUP2 MSTORE DUP1 DUP6 ADD DUP9 SWAP1 MSTORE PUSH1 0x1 PUSH1 0x1 PUSH1 0xA0 SHL SUB SWAP5 SWAP2 PUSH2 0x200 SWAP2 SWAP1 DUP3 SWAP1 DUP3 SWAP1 DUP8 SWAP1 DUP3 SWAP1 DUP11 AND GAS STATICCALL SWAP2 DUP3 ISZERO PUSH2 0x4D4 JUMPI DUP11 SWAP3 PUSH2 0x4A7 JUMPI JUMPDEST POP POP PUSH1 0x20 SWAP5 DUP1 DUP7 DUP4 ADD MLOAD AND CALLER EQ DUP1 ISZERO PUSH2 0x499 JUMPI JUMPDEST DUP1 ISZERO PUSH2 0x48A JUMPI JUMPDEST DUP1 ISZERO PUSH2 0x47B JUMPI JUMPDEST ISZERO PUSH2 0x439 JUMPI DUP9 DUP11 MSTORE PUSH1 0x1 SWAP2 DUP3 DUP8 MSTORE PUSH1 0xFF PUSH1 0x2 DUP10 DUP14 KECCAK256 ADD SLOAD AND PUSH2 0x3FE JUMPI PUSH2 0x120 ADD DUP1 MLOAD PUSH1 0x12 DUP2 LT ISZERO PUSH2 0x3EC JUMPI PUSH1 0xD EQ ISZERO SWAP1 DUP2 PUSH2 0x3C4 JUMPI JUMPDEST POP ISZERO PUSH2 0x382 JUMPI DUP10 SWAP1 DUP10 DUP3 MSTORE DUP3 DUP8 MSTORE DUP8 DUP3 KECCAK256 SWAP3 DUP11 DUP5 SSTORE DUP1 DUP5 ADD SWAP4 PUSH2 0x17E DUP6 SLOAD PUSH2 0x9C6 JUMP JUMPDEST PUSH1 0x1F DUP2 GT PUSH2 0x333 JUMPI JUMPDEST POP DUP4 SWAP5 DUP12 DUP10 PUSH1 0x1F DUP3 GT PUSH1 0x1 EQ PUSH2 0x2AB JUMPI DUP7 SWAP8 PUSH1 0x2 SWAP6 SWAP7 SWAP8 SWAP3 PUSH2 0x29E JUMPI JUMPDEST POP POP PUSH1 0x0 NOT PUSH1 0x3 DUP15 SWAP1 SHL SHR NOT AND DUP13 DUP6 SHL OR SWAP1 SSTORE JUMPDEST ADD SWAP1 PUSH1 0xFF NOT DUP3 SLOAD AND OR SWAP1 SSTORE DUP2 SLOAD AND SWAP2 DUP3 EXTCODESIZE ISZERO PUSH2 0x77 JUMPI PUSH1 0x44 DUP10 SWAP2 DUP4 DUP10 MLOAD SWAP6 DUP7 SWAP5 DUP6 SWAP4 PUSH4 0x3A1B3D31 PUSH1 0xE0 SHL DUP6 MSTORE DUP5 ADD MSTORE PUSH1 0xE DUP10 DUP5 ADD MSTORE GAS CALL DUP1 ISZERO PUSH2 0x294 JUMPI PUSH2 0x252 JUMPI JUMPDEST POP SWAP4 PUSH1 0x60 SWAP3 DUP2 DUP6 SWAP4 PUSH32 0x223BA97C9ABDDC29A613210E7BDAE454E02CE4BBBD1828F87B20631BDD29CF2F SWAP8 DUP3 SWAP8 MLOAD SWAP8 DUP7 DUP10 SWAP8 DUP9 MSTORE DUP8 ADD MSTORE ADD DUP6 DUP6 ADD CALLDATACOPY DUP3 DUP3 ADD DUP5 ADD DUP9 SWAP1 MSTORE CALLER SWAP1 DUP4 ADD MSTORE PUSH1 0x1F ADD PUSH1 0x1F NOT AND DUP2 ADD SUB ADD SWAP1 LOG2 DUP1 RETURN JUMPDEST SWAP3 DUP6 DUP1 SWAP6 SWAP4 PUSH32 0x223BA97C9ABDDC29A613210E7BDAE454E02CE4BBBD1828F87B20631BDD29CF2F SWAP8 SWAP4 SWAP10 PUSH2 0x286 PUSH1 0x60 SWAP8 PUSH2 0xA00 JUMP JUMPDEST SWAP10 SWAP4 POP SWAP4 SWAP6 POP SWAP6 POP SWAP3 PUSH2 0x1FA JUMP JUMPDEST DUP6 MLOAD RETURNDATASIZE DUP11 DUP3 RETURNDATACOPY RETURNDATASIZE SWAP1 REVERT JUMPDEST DUP11 ADD ADD CALLDATALOAD SWAP1 POP DUP10 CODESIZE PUSH2 0x1A4 JUMP JUMPDEST POP PUSH1 0x1F NOT DUP2 AND SWAP7 DUP3 DUP8 MSTORE DUP11 DUP13 DUP9 KECCAK256 SWAP3 DUP14 DUP10 SWAP1 JUMPDEST DUP14 DUP13 DUP4 LT PUSH2 0x303 JUMPI POP POP POP DUP1 PUSH1 0x2 SWAP8 SWAP9 SWAP10 SWAP11 LT PUSH2 0x2E6 JUMPI JUMPDEST SWAP2 POP POP DUP6 DUP1 SWAP3 POP SHL ADD SWAP1 SSTORE PUSH2 0x1B8 JUMP JUMPDEST PUSH1 0xF8 PUSH1 0x0 NOT SWAP2 PUSH1 0x3 SHL AND SHR NOT SWAP2 DUP12 ADD ADD CALLDATALOAD AND SWAP1 SSTORE CODESIZE DUP1 DUP11 DUP15 PUSH2 0x2D6 JUMP JUMPDEST DUP10 SWAP12 POP DUP6 SWAP9 SWAP11 SWAP13 SWAP7 SWAP3 SWAP8 SWAP10 SWAP4 POP SWAP5 DUP2 SWAP6 SWAP5 SWAP2 SWAP5 ADD ADD CALLDATALOAD DUP2 SSTORE ADD SWAP5 ADD SWAP3 ADD SWAP2 DUP16 SWAP7 SWAP5 SWAP3 DUP15 DUP13 SWAP2 DUP15 SWAP11 SWAP9 SWAP7 SWAP5 SWAP11 PUSH2 0x2BE JUMP JUMPDEST SWAP1 SWAP2 SWAP3 SWAP4 DUP6 SWAP1 MSTORE DUP9 DUP14 KECCAK256 PUSH1 0x1F DUP13 ADD PUSH1 0x5 SHR DUP2 ADD SWAP2 DUP11 DUP14 LT PUSH2 0x378 JUMPI JUMPDEST SWAP1 PUSH1 0x1F DUP16 SWAP7 SWAP6 SWAP5 SWAP4 SWAP3 ADD PUSH1 0x5 SHR ADD SWAP1 JUMPDEST DUP2 DUP2 LT PUSH2 0x36C JUMPI POP PUSH2 0x187 JUMP JUMPDEST SWAP5 DUP6 SSTORE DUP14 SWAP5 DUP4 ADD PUSH2 0x35F JUMP JUMPDEST SWAP1 SWAP2 POP DUP2 SWAP1 PUSH2 0x34F JUMP JUMPDEST DUP7 MLOAD PUSH3 0x461BCD PUSH1 0xE5 SHL DUP2 MSTORE DUP1 DUP5 ADD DUP8 SWAP1 MSTORE PUSH1 0x1D DUP2 DUP8 ADD MSTORE PUSH32 0x43616E6E6F7420646973707574652066696E6973686564207472616465000000 PUSH1 0x44 DUP3 ADD MSTORE PUSH1 0x64 SWAP1 REVERT JUMPDEST SWAP1 POP MLOAD PUSH1 0x12 DUP2 LT ISZERO PUSH2 0x3DA JUMPI PUSH1 0x10 EQ ISZERO CODESIZE PUSH2 0x15B JUMP JUMPDEST PUSH4 0x4E487B71 PUSH1 0xE0 SHL DUP12 MSTORE PUSH1 0x21 DUP5 MSTORE DUP6 DUP12 REVERT JUMPDEST PUSH4 0x4E487B71 PUSH1 0xE0 SHL DUP13 MSTORE PUSH1 0x21 DUP6 MSTORE DUP7 DUP13 REVERT JUMPDEST DUP8 MLOAD PUSH3 0x461BCD PUSH1 0xE5 SHL DUP2 MSTORE DUP1 DUP6 ADD DUP9 SWAP1 MSTORE PUSH1 0x16 DUP2 DUP9 ADD MSTORE PUSH22 0x4469737075746520616C726561647920616374697665 PUSH1 0x50 SHL PUSH1 0x44 DUP3 ADD MSTORE PUSH1 0x64 SWAP1 REVERT JUMPDEST DUP7 MLOAD PUSH3 0x461BCD PUSH1 0xE5 SHL DUP2 MSTORE DUP1 DUP5 ADD DUP8 SWAP1 MSTORE PUSH1 0x1F DUP2 DUP8 ADD MSTORE PUSH32 0x4E6F7420617574686F72697A656420746F207261697365206469737075746500 PUSH1 0x44 DUP3 ADD MSTORE PUSH1 0x64 SWAP1 REVERT JUMPDEST POP DUP1 PUSH1 0x60 DUP4 ADD MLOAD AND CALLER EQ PUSH2 0x125 JUMP JUMPDEST POP DUP1 PUSH1 0xC0 DUP4 ADD MLOAD AND CALLER EQ PUSH2 0x11E JUMP JUMPDEST POP DUP1 DUP8 DUP4 ADD MLOAD AND CALLER EQ PUSH2 0x117 JUMP JUMPDEST PUSH2 0x4C6 SWAP3 POP DUP1 RETURNDATASIZE LT PUSH2 0x4CD JUMPI JUMPDEST PUSH2 0x4BE DUP2 DUP4 PUSH2 0xA2A JUMP JUMPDEST DUP2 ADD SWAP1 PUSH2 0xA72 JUMP JUMPDEST CODESIZE DUP1 PUSH2 0x103 JUMP JUMPDEST POP RETURNDATASIZE PUSH2 0x4B4 JUMP JUMPDEST DUP8 MLOAD RETURNDATASIZE DUP13 DUP3 RETURNDATACOPY RETURNDATASIZE SWAP1 REVERT JUMPDEST DUP7 DUP1 REVERT JUMPDEST DUP3 DUP1 REVERT JUMPDEST DUP4 SWAP2 POP CALLVALUE PUSH2 0x77 JUMPI DUP3 PUSH1 0x3 NOT CALLDATASIZE ADD SLT PUSH2 0x77 JUMPI DUP1 CALLDATALOAD PUSH1 0x24 SWAP2 DUP3 CALLDATALOAD SWAP5 DUP2 DUP7 LT ISZERO PUSH2 0x882 JUMPI DUP3 DUP6 MSTORE PUSH1 0x1 SWAP2 PUSH1 0x20 SWAP3 DUP1 DUP5 MSTORE DUP3 DUP8 KECCAK256 SWAP1 PUSH1 0xFF PUSH1 0x2 DUP4 ADD SLOAD AND ISZERO PUSH2 0x84C JUMPI PUSH1 0x5 DUP3 ADD SWAP1 CALLER DUP10 MSTORE DUP2 DUP7 MSTORE PUSH1 0xFF DUP6 DUP11 KECCAK256 SLOAD AND PUSH2 0x81A JUMPI DUP9 SLOAD DUP6 MLOAD PUSH4 0x2DB25E05 PUSH1 0xE0 SHL DUP2 MSTORE DUP6 DUP2 ADD DUP10 SWAP1 MSTORE PUSH1 0x1 PUSH1 0x1 PUSH1 0xA0 SHL SUB SWAP5 SWAP2 PUSH2 0x200 SWAP2 SWAP1 DUP3 SWAP1 DUP3 SWAP1 DUP14 SWAP1 DUP3 SWAP1 DUP11 AND GAS STATICCALL SWAP2 DUP3 ISZERO PUSH2 0x810 JUMPI DUP13 SWAP3 PUSH2 0x7F3 JUMPI JUMPDEST POP POP DUP5 PUSH1 0xC0 DUP3 ADD MLOAD AND CALLER EQ PUSH1 0x0 EQ PUSH2 0x773 JUMPI POP PUSH1 0x2 SWAP3 JUMPDEST CALLER DUP12 MSTORE DUP8 MSTORE DUP6 DUP11 KECCAK256 DUP1 SLOAD PUSH1 0xFF NOT SWAP1 DUP2 AND DUP5 OR SWAP1 SWAP2 SSTORE SWAP3 DUP11 SWAP1 DUP13 DUP5 SUB PUSH2 0x752 JUMPI PUSH1 0x3 DUP4 ADD PUSH2 0x5BE DUP3 DUP3 SLOAD PUSH2 0xB90 JUMP JUMPDEST SWAP1 SSTORE JUMPDEST DUP8 MLOAD SWAP2 PUSH2 0x740 JUMPI DUP12 SWAP13 DUP3 SWAP13 SWAP9 SWAP10 SWAP11 SWAP12 SWAP13 MSTORE DUP10 DUP3 ADD MSTORE DUP10 PUSH32 0xB83D25C6A5D258561330739951487ACB4BD09BA5190B5D32C4F261817D906792 DUP10 CALLER SWAP4 LOG3 PUSH1 0x3 DUP2 DUP2 ADD SLOAD DUP7 SWAP2 GT PUSH2 0x699 JUMPI POP POP DUP8 DUP6 MSTORE DUP7 MSTORE PUSH1 0x2 DUP6 DUP6 KECCAK256 ADD SWAP1 DUP2 SLOAD AND SWAP1 SSTORE DUP3 SLOAD AND DUP1 EXTCODESIZE ISZERO PUSH2 0x4E2 JUMPI DUP6 SWAP2 DUP4 PUSH1 0x44 SWAP3 PUSH1 0x10 DUP8 MLOAD SWAP11 DUP12 SWAP7 DUP8 SWAP6 PUSH4 0x3A1B3D31 PUSH1 0xE0 SHL DUP8 MSTORE DUP7 ADD MSTORE DUP5 ADD MSTORE GAS CALL SWAP4 DUP5 ISZERO PUSH2 0x68F JUMPI PUSH32 0x7E662E7F611008BEB74CD4814099BFDB702FF12758CD917E0007EADBF546F9F7 SWAP4 SWAP5 PUSH2 0x680 JUMPI JUMPDEST POP MLOAD PUSH1 0x10 DUP2 MSTORE LOG2 DUP1 RETURN JUMPDEST PUSH2 0x689 SWAP1 PUSH2 0xA00 JUMP JUMPDEST DUP6 PUSH2 0x676 JUMP JUMPDEST DUP2 MLOAD RETURNDATASIZE DUP8 DUP3 RETURNDATACOPY RETURNDATASIZE SWAP1 REVERT JUMPDEST PUSH1 0x3 SWAP2 ADD SLOAD LT ISZERO PUSH2 0x6B1 JUMPI JUMPDEST POP POP POP POP POP POP POP POP POP DUP1 RETURN JUMPDEST DUP8 DUP6 MSTORE DUP7 MSTORE PUSH1 0x2 DUP6 DUP6 KECCAK256 ADD SWAP1 DUP2 SLOAD AND SWAP1 SSTORE DUP3 SLOAD AND DUP1 EXTCODESIZE ISZERO PUSH2 0x4E2 JUMPI DUP6 SWAP2 DUP4 PUSH1 0x44 SWAP3 PUSH1 0x11 DUP8 MLOAD SWAP11 DUP12 SWAP7 DUP8 SWAP6 PUSH4 0x3A1B3D31 PUSH1 0xE0 SHL DUP8 MSTORE DUP7 ADD MSTORE DUP5 ADD MSTORE GAS CALL SWAP4 DUP5 ISZERO PUSH2 0x68F JUMPI PUSH32 0x7E662E7F611008BEB74CD4814099BFDB702FF12758CD917E0007EADBF546F9F7 SWAP4 SWAP5 PUSH2 0x731 JUMPI JUMPDEST POP MLOAD PUSH1 0x11 DUP2 MSTORE LOG2 DUP2 DUP1 DUP1 DUP1 DUP5 DUP2 DUP1 DUP1 DUP1 PUSH2 0x6A5 JUMP JUMPDEST PUSH2 0x73A SWAP1 PUSH2 0xA00 JUMP JUMPDEST DUP6 PUSH2 0x71C JUMP JUMPDEST PUSH4 0x4E487B71 PUSH1 0xE0 SHL DUP13 MSTORE PUSH1 0x21 DUP8 MSTORE DUP11 DUP13 REVERT JUMPDEST DUP12 SWAP2 POP PUSH1 0x1 NOT DUP14 ADD PUSH2 0x5C1 JUMPI DUP7 DUP4 ADD PUSH2 0x76C DUP3 DUP3 SLOAD PUSH2 0xB90 JUMP JUMPDEST SWAP1 SSTORE PUSH2 0x5C1 JUMP JUMPDEST DUP5 DUP1 PUSH1 0xE0 DUP4 ADD MLOAD AND CALLER EQ SWAP2 DUP3 ISZERO PUSH2 0x7E1 JUMPI JUMPDEST DUP3 ISZERO PUSH2 0x7D0 JUMPI JUMPDEST POP POP ISZERO PUSH2 0x79A JUMPI DUP2 SWAP3 PUSH2 0x590 JUMP JUMPDEST DUP6 MLOAD PUSH3 0x461BCD PUSH1 0xE5 SHL DUP2 MSTORE DUP1 DUP7 ADD DUP9 SWAP1 MSTORE PUSH1 0x11 DUP2 DUP12 ADD MSTORE PUSH17 0x4E6F74206120766F74696E67206E6F6465 PUSH1 0x78 SHL PUSH1 0x44 DUP3 ADD MSTORE PUSH1 0x64 SWAP1 REVERT JUMPDEST PUSH1 0x60 SWAP2 SWAP3 POP ADD MLOAD AND CALLER EQ DUP5 DUP14 PUSH2 0x78C JUMP JUMPDEST SWAP2 POP DUP1 PUSH2 0x100 DUP4 ADD MLOAD AND CALLER EQ SWAP2 PUSH2 0x785 JUMP JUMPDEST PUSH2 0x809 SWAP3 POP DUP1 RETURNDATASIZE LT PUSH2 0x4CD JUMPI PUSH2 0x4BE DUP2 DUP4 PUSH2 0xA2A JUMP JUMPDEST DUP13 DUP1 PUSH2 0x579 JUMP JUMPDEST DUP9 MLOAD RETURNDATASIZE DUP15 DUP3 RETURNDATACOPY RETURNDATASIZE SWAP1 REVERT JUMPDEST DUP5 MLOAD PUSH3 0x461BCD PUSH1 0xE5 SHL DUP2 MSTORE DUP1 DUP6 ADD DUP8 SWAP1 MSTORE PUSH1 0xD DUP2 DUP11 ADD MSTORE PUSH13 0x105B1C9958591E481D9BDD1959 PUSH1 0x9A SHL PUSH1 0x44 DUP3 ADD MSTORE PUSH1 0x64 SWAP1 REVERT JUMPDEST DUP4 MLOAD PUSH3 0x461BCD PUSH1 0xE5 SHL DUP2 MSTORE DUP1 DUP5 ADD DUP7 SWAP1 MSTORE PUSH1 0x11 DUP2 DUP10 ADD MSTORE PUSH17 0x4E6F206163746976652064697370757465 PUSH1 0x78 SHL PUSH1 0x44 DUP3 ADD MSTORE PUSH1 0x64 SWAP1 REVERT JUMPDEST DUP5 DUP1 REVERT JUMPDEST DUP4 DUP6 CALLVALUE PUSH2 0x9C3 JUMPI PUSH1 0x20 SWAP2 DUP3 PUSH1 0x3 NOT CALLDATASIZE ADD SLT PUSH2 0x77 JUMPI DUP5 CALLDATALOAD DUP3 MSTORE PUSH1 0x1 SWAP5 PUSH1 0x1 DUP5 MSTORE DUP2 DUP4 KECCAK256 SWAP3 DUP4 SLOAD SWAP7 DUP7 PUSH1 0x1 DUP7 ADD SWAP2 DUP4 SWAP1 DUP4 SLOAD SWAP4 PUSH2 0x8C1 DUP6 PUSH2 0x9C6 JUMP JUMPDEST SWAP5 DUP6 DUP6 MSTORE DUP11 PUSH1 0x1 DUP3 AND SWAP2 DUP3 PUSH1 0x0 EQ PUSH2 0x9A1 JUMPI POP POP PUSH1 0x1 EQ PUSH2 0x964 JUMPI JUMPDEST POP POP PUSH2 0x8F2 SWAP3 POP SWAP9 SWAP7 SWAP6 SWAP4 SWAP5 SWAP3 SWAP9 SUB DUP8 PUSH2 0xA2A JUMP JUMPDEST PUSH1 0xFF PUSH1 0x2 DUP4 ADD SLOAD AND SWAP3 PUSH1 0x3 DUP4 ADD SLOAD SWAP3 ADD SLOAD SWAP3 DUP2 MLOAD SWAP8 DUP9 SWAP7 DUP8 MSTORE PUSH1 0xA0 DUP7 DUP9 ADD MSTORE DUP8 MLOAD SWAP6 DUP7 PUSH1 0xA0 DUP10 ADD MSTORE DUP2 JUMPDEST DUP8 DUP2 LT PUSH2 0x94D JUMPI POP POP PUSH1 0xC0 DUP1 SWAP9 POP DUP7 DUP9 ADD ADD MSTORE ISZERO ISZERO SWAP1 DUP6 ADD MSTORE PUSH1 0x60 DUP5 ADD MSTORE PUSH1 0x80 DUP4 ADD MSTORE PUSH1 0x1F DUP1 NOT SWAP2 ADD AND DUP2 ADD SUB ADD SWAP1 RETURN JUMPDEST DUP1 DUP11 ADD DUP3 ADD MLOAD DUP12 DUP3 ADD PUSH1 0xC0 ADD MSTORE DUP11 SWAP9 POP DUP2 ADD PUSH2 0x91C JUMP JUMPDEST DUP10 SWAP3 POP DUP6 MSTORE DUP2 DUP6 KECCAK256 SWAP1 DUP6 SWAP2 JUMPDEST DUP6 DUP4 LT PUSH2 0x988 JUMPI POP POP PUSH2 0x8F2 SWAP4 POP DUP3 ADD ADD DUP11 DUP1 PUSH2 0x8DD JUMP JUMPDEST DUP2 SWAP5 DUP5 DUP5 DUP4 SWAP7 SWAP6 SWAP7 SLOAD SWAP3 ADD ADD MSTORE ADD SWAP2 ADD DUP10 SWAP3 DUP10 SWAP3 PUSH2 0x970 JUMP JUMPDEST SWAP3 POP SWAP4 POP POP PUSH2 0x8F2 SWAP5 SWAP2 POP PUSH1 0xFF NOT AND DUP3 DUP5 ADD MSTORE ISZERO ISZERO PUSH1 0x5 SHL DUP3 ADD ADD DUP11 DUP1 PUSH2 0x8DD JUMP JUMPDEST DUP1 REVERT JUMPDEST SWAP1 PUSH1 0x1 DUP3 DUP2 SHR SWAP3 AND DUP1 ISZERO PUSH2 0x9F6 JUMPI JUMPDEST PUSH1 0x20 DUP4 LT EQ PUSH2 0x9E0 JUMPI JUMP JUMPDEST PUSH4 0x4E487B71 PUSH1 0xE0 SHL PUSH1 0x0 MSTORE PUSH1 0x22 PUSH1 0x4 MSTORE PUSH1 0x24 PUSH1 0x0 REVERT JUMPDEST SWAP2 PUSH1 0x7F AND SWAP2 PUSH2 0x9D5 JUMP JUMPDEST PUSH8 0xFFFFFFFFFFFFFFFF DUP2 GT PUSH2 0xA14 JUMPI PUSH1 0x40 MSTORE JUMP JUMPDEST PUSH4 0x4E487B71 PUSH1 0xE0 SHL PUSH1 0x0 MSTORE PUSH1 0x41 PUSH1 0x4 MSTORE PUSH1 0x24 PUSH1 0x0 REVERT JUMPDEST SWAP1 PUSH1 0x1F DUP1 NOT SWAP2 ADD AND DUP2 ADD SWAP1 DUP2 LT PUSH8 0xFFFFFFFFFFFFFFFF DUP3 GT OR PUSH2 0xA14 JUMPI PUSH1 0x40 MSTORE JUMP JUMPDEST MLOAD SWAP1 PUSH1 0x1 PUSH1 0x1 PUSH1 0xA0 SHL SUB DUP3 AND DUP3 SUB PUSH2 0xA60 JUMPI JUMP JUMPDEST PUSH1 0x0 DUP1 REVERT JUMPDEST MLOAD SWAP1 DUP2 ISZERO ISZERO DUP3 SUB PUSH2 0xA60 JUMPI JUMP JUMPDEST DUP1 SWAP2 PUSH2 0x200 SWAP3 DUP4 SWAP2 SUB SLT PUSH2 0xA60 JUMPI PUSH1 0x40 MLOAD SWAP2 DUP3 ADD DUP3 DUP2 LT PUSH8 0xFFFFFFFFFFFFFFFF DUP3 GT OR PUSH2 0xA14 JUMPI PUSH1 0x40 MSTORE DUP1 MLOAD DUP3 MSTORE PUSH2 0xAAC PUSH1 0x20 DUP3 ADD PUSH2 0xA4C JUMP JUMPDEST PUSH1 0x20 DUP4 ADD MSTORE PUSH2 0xABD PUSH1 0x40 DUP3 ADD PUSH2 0xA4C JUMP JUMPDEST PUSH1 0x40 DUP4 ADD MSTORE PUSH2 0xACE PUSH1 0x60 DUP3 ADD PUSH2 0xA4C JUMP JUMPDEST PUSH1 0x60 DUP4 ADD MSTORE PUSH2 0xADF PUSH1 0x80 DUP3 ADD PUSH2 0xA4C JUMP JUMPDEST PUSH1 0x80 DUP4 ADD MSTORE PUSH2 0xAF0 PUSH1 0xA0 DUP3 ADD PUSH2 0xA4C JUMP JUMPDEST PUSH1 0xA0 DUP4 ADD MSTORE PUSH2 0xB01 PUSH1 0xC0 DUP3 ADD PUSH2 0xA4C JUMP JUMPDEST PUSH1 0xC0 DUP4 ADD MSTORE PUSH2 0xB12 PUSH1 0xE0 DUP3 ADD PUSH2 0xA4C JUMP JUMPDEST PUSH1 0xE0 DUP4 ADD MSTORE PUSH2 0x100 PUSH2 0xB25 DUP2 DUP4 ADD PUSH2 0xA4C JUMP JUMPDEST SWAP1 DUP4 ADD MSTORE PUSH2 0x120 DUP1 DUP3 ADD MLOAD SWAP1 PUSH1 0x12 DUP3 LT ISZERO PUSH2 0xA60 JUMPI DUP4 ADD MSTORE PUSH2 0x140 DUP1 DUP3 ADD MLOAD SWAP1 DUP4 ADD MSTORE PUSH2 0x160 DUP1 DUP3 ADD MLOAD SWAP1 DUP4 ADD MSTORE PUSH2 0x180 DUP1 DUP3 ADD MLOAD SWAP1 DUP4 ADD MSTORE PUSH2 0x1A0 DUP1 DUP3 ADD MLOAD SWAP1 DUP4 ADD MSTORE PUSH2 0x1C0 PUSH2 0xB77 DUP2 DUP4 ADD PUSH2 0xA65 JUMP JUMPDEST SWAP1 DUP4 ADD MSTORE PUSH2 0xB89 PUSH2 0x1E0 DUP1 SWAP3 ADD PUSH2 0xA65 JUMP JUMPDEST SWAP1 DUP3 ADD MSTORE SWAP1 JUMP JUMPDEST SWAP2 SWAP1 DUP3 ADD DUP1 SWAP3 GT PUSH2 0xB9D JUMPI JUMP JUMPDEST PUSH4 0x4E487B71 PUSH1 0xE0 SHL PUSH1 0x0 MSTORE PUSH1 0x11 PUSH1 0x4 MSTORE PUSH1 0x24 PUSH1 0x0 REVERT INVALID LOG2 PUSH5 0x6970667358 0x22 SLT KECCAK256 0xD9 0xD8 DUP8 0xDF 0xE1 0xF6 DUP1 DUP1 PUSH2 0x5C83 DUP2 REVERT 0x2F SHL CREATE2 0xF DUP4 BASEFEE DUP14 SWAP12 0xDF SWAP1 SWAP9 PUSH21 0x4054B356CCDA5064736F6C63430008180033000000 "},"methodIdentifiers":{"castVote(uint256,uint8)":"56781388","disputes(uint256)":"564a565d","raiseDispute(uint256,string)":"5aef573c","tradeRegistry()":"dbd97308"}}}}}