{"contracts/DocumentVerification.sol":{"DocumentVerification":{"abi":[{"inputs":[{"internalType":"address","name":"_tradeRegistry","type":"address"}],"stateMutability":"nonpayable","type":"constructor"},{"anonymous":false,"inputs":[{"indexed":true,"internalType":"uint256","name":"tradeId","type":"uint256"},{"indexed":false,"internalType":"string","name":"ipfsHash","type":"string"},{"indexed":true,"internalType":"address","name":"issuedBy","type":"address"}],"name":"BillOfLadingIssued","type":"event"},{"anonymous":false,"inputs":[{"indexed":true,"internalType":"uint256","name":"tradeId","type":"uint256"},{"indexed":true,"internalType":"uint8","name":"decision","type":"uint8"},{"indexed":false,"internalType":"uint256","name":"taxAmount","type":"uint256"},{"indexed":true,"internalType":"address","name":"decidedBy","type":"address"}],"name":"CustomsDecisionMade","type":"event"},{"anonymous":false,"inputs":[{"indexed":true,"internalType":"uint256","name":"tradeId","type":"uint256"},{"indexed":true,"internalType":"uint256","name":"taxAmount","type":"uint256"},{"indexed":true,"internalType":"address","name":"releasedBy","type":"address"}],"name":"TaxPaidAndGoodsReleased","type":"event"},{"inputs":[{"internalType":"uint256","name":"_tradeId","type":"uint256"}],"name":"getBolIpfsHash","outputs":[{"internalType":"string","name":"","type":"string"}],"stateMutability":"view","type":"function"},{"inputs":[{"internalType":"uint256","name":"_tradeId","type":"uint256"}],"name":"getVerification","outputs":[{"components":[{"internalType":"string","name":"bolIpfsHash","type":"string"},{"internalType":"string","name":"customsCertIpfsHash","type":"string"},{"internalType":"uint256","name":"taxAmount","type":"uint256"},{"internalType":"bool","name":"bolIssued","type":"bool"},{"internalType":"bool","name":"customsCleared","type":"bool"},{"internalType":"uint8","name":"customsDecision","type":"uint8"},{"internalType":"bool","name":"taxPaid","type":"bool"}],"internalType":"struct DocumentVerification.VerificationState","name":"","type":"tuple"}],"stateMutability":"view","type":"function"},{"inputs":[{"internalType":"uint256","name":"_tradeId","type":"uint256"},{"internalType":"string","name":"_ipfsHash","type":"string"}],"name":"issueBillOfLading","outputs":[],"stateMutability":"nonpayable","type":"function"},{"inputs":[{"internalType":"uint256","name":"_tradeId","type":"uint256"}],"name":"payTaxAndRelease","outputs":[],"stateMutability":"nonpayable","type":"function"},{"inputs":[],"name":"tradeRegistry","outputs":[{"internalType":"contract TradeRegistry","name":"","type":"address"}],"stateMutability":"view","type":"function"},{"inputs":[{"internalType":"uint256","name":"","type":"uint256"}],"name":"verifications","outputs":[{"internalType":"string","name":"bolIpfsHash","type":"string"},{"internalType":"string","name":"customsCertIpfsHash","type":"string"},{"internalType":"uint256","name":"taxAmount","type":"uint256"},{"internalType":"bool","name":"bolIssued","type":"bool"},{"internalType":"bool","name":"customsCleared","type":"bool"},{"internalType":"uint8","name":"customsDecision","type":"uint8"},{"internalType":"bool","name":"taxPaid","type":"bool"}],"stateMutability":"view","type":"function"},{"inputs":[{"internalType":"uint256","name":"_tradeId","type":"uint256"},{"internalType":"uint8","name":"_decision","type":"uint8"},{"internalType":"uint256","name":"_taxAmount","type":"uint256"},{"internalType":"string","name":"_certIpfsHash","type":"string"}],"name":"verifyAsCustoms","outputs":[],"stateMutability":"nonpayable","type":"function"}],"evm":{"bytecode":{"linkReferences":{},"object":"60a0346100b157601f6113cc38819003918201601f19168301916001600160401b038311848410176100b6578084926020946040528339810103126100b157516001600160a01b038116908190036100b1576080526040516112ff90816100cd8239608051818181608d0152818161031e015281816105b001528181610a1a01528181610a7301528181610b0901528181610b5701528181610bf601528181610c4301528181610cf60152610d430152f35b600080fd5b634e487b7160e01b600052604160045260246000fdfe608080604052600436101561001357600080fd5b600090813560e01c908163345a83fa146109ac575080633eb3da481461055657806358937cc8146104305780638dd62219146103ee578063b90b0a101461034d578063dbd97308146103085763ea8324e31461006e57600080fd5b346103055760203660031901126103055760043560018060a01b0390817f000000000000000000000000000000000000000000000000000000000000000016604051632db25e0560e01b8082528360048301526102209160249583828881885afa9182156102fa576100f092610180918a916102dd575b50015116331461127d565b60405190815283600482015281818681865afa9081156102d2576101c09287926102a5575b5050015160158110156102925760090361025a57818452836020526040842092600284019384541561022057600301805460ff8160181c166101e95763ff00ff0019166301000100179055849190813b156101da57600860448492836040519586948593633a1b3d3160e01b85528a60048601528401525af180156101de576101c6575b5050339154907fb2f3804492a73e4cd995d51a482a4e90a4919f22255ee0441319bdea08733acb8480a480f35b6101cf90611026565b6101da578238610199565b8280fd5b6040513d84823e3d90fd5b60405162461bcd60e51b8152602060048201526010818501526f15185e08185b1c9958591e481c185a5960821b6044820152606490fd5b60405162461bcd60e51b81526020600482015260138184015272139bc81d185e081dd85cc8185cdcd95cdcd959606a1b6044820152606490fd5b60405162461bcd60e51b81526020600482015260118185015270151c985919481b9bdd08199b1859d9d959607a1b6044820152606490fd5b634e487b7160e01b855260216004528385fd5b6102c49250803d106102cb575b6102bc818361106c565b810190611154565b3880610115565b503d6102b2565b6040513d88823e3d90fd5b6102f49150863d88116102cb576102bc818361106c565b386100e5565b6040513d8a823e3d90fd5b80fd5b50346103055780600319360112610305576040517f00000000000000000000000000000000000000000000000000000000000000006001600160a01b03168152602090f35b50346103055760203660031901126103055760406103a991600435815280602052206103788161108e565b9060ff6103876001830161108e565b6103b7600360028501549401549160405196879660e0885260e0880190610fac565b908682036020880152610fac565b92604085015281811615156060850152818160081c1615156080850152818160101c1660a085015260181c16151560c08301520390f35b503461030557602036600319011261030557610418604061042c926004358152806020522061108e565b604051918291602083526020830190610fac565b0390f35b5034610305576020806003193601126105525760408260e09360c0835161045681611050565b6060815260608682015282858201528260608201528260808201528260a082015201526004358152808352206040519161048f83611050565b6104988261108e565b835260ff6104a86001840161108e565b9180850192835260036002850154946040870195865201549260608601838516151581526105286080880192858760081c161515845261051560a08a0195878960101c1687528760c08c019960181c16151589526040519b8c9b828d5251918c01526101008b0190610fac565b9051898203601f190160408b0152610fac565b95516060880152511515608087015251151560a0860152511660c084015251151560e08301520390f35b5080fd5b50346103055760403660031901126103055767ffffffffffffffff6004356024803583811161075c5761058d903690600401610f79565b604051632db25e0560e01b80825260048201869052919592936001600160a01b037f0000000000000000000000000000000000000000000000000000000000000000811693919261022092919083818681895afa80156109a157610140918c91610984575b5001511633036109405760405190815286600482015281818481875afa908115610935576101c0928a92610918575b505001516015811015610905576006036108af5785156108765784875260209287845260ff600360408a2001541661083d578588528784526040882090871161082a579081610671899354610fec565b601f81116107dd575b508783601f821160011461077857849161076d575b508860011b906000198a60031b1c19161790555b85825281845260408220600301805460ff19166001179055823b1561055257600760448392836040519687948593633a1b3d3160e01b85528c60048601528401525af1918215610760578692610745575b50507f63149911db316f829a231b8a15319e7c3955ae2dc560e0f9a964d69ba0be2dbd928160405193808552840152604083013784604085830101526040813395601f80199101168101030190a380f35b610750919250611026565b61075c578385386106f4565b8480fd5b50604051903d90823e3d90fd5b90508601353861068f565b828552868520915089601f198116865b898282106107c1575050106107a7575b5050600188811b0190556106a3565b87013560001960038b901b60f8161c191690553880610798565b8b85013586558e9850600190950194938401938d935001610788565b9080929352848920601f890160051c810191868a10610820575b90601f8b959493920160051c01905b818110610813575061067a565b9384558993600101610806565b90915081906107f7565b50634e487b7160e01b8752604160045286fd5b60405162461bcd60e51b81526004810185905260128184015271109bd308185b1c9958591e481a5cdcdd595960721b6044820152606490fd5b60649060126040519162461bcd60e51b8352602060048401528201527112541194c81a185cda081c995c5d5a5c995960721b6044820152fd5b60849060296040519162461bcd60e51b8352602060048401528201527f5472616465206d75737420626520696e205348495050494e475f41535349474e60448201526845442073746174757360b81b6064820152fd5b50634e487b7160e01b8752602160045286fd5b61092e9250803d106102cb576102bc818361106c565b3880610621565b6040513d8b823e3d90fd5b60405162461bcd60e51b815260206004820152601e818501527f4f6e6c792061737369676e6564207368697070696e6720636f6d70616e7900006044820152606490fd5b61099b9150853d87116102cb576102bc818361106c565b386105f2565b6040513d8d823e3d90fd5b905034610552576080366003190112610552576024359060ff821682036101da5767ffffffffffffffff9060643582811161075c576109ef903690600401610f79565b632db25e0560e01b808452600480359085015291936001600160a01b039390926102209182816024817f00000000000000000000000000000000000000000000000000000000000000008a165afa8015610935576101808791610a5d938c916102dd5750015116331461127d565b60405190815260043560048201528181602481887f0000000000000000000000000000000000000000000000000000000000000000165afa9081156102fa576101c0928992610f5c575b505001516015811015610f4857600703610f0b5785936004358552846020526040852092600384015462ff00008860101b169062ff0000191617600385015582610dc3575b50505060ff8416610bd457600301805461ff0019166101001790557f000000000000000000000000000000000000000000000000000000000000000081163b1561055257818091604460405180948193633a1b3d3160e01b83526004356004840152600860248401527f0000000000000000000000000000000000000000000000000000000000000000165af180156101de57610bc0575b50505b604051604435815260ff339216907fcdd6329e1a077a40150be3254c6571018460655bddbafb9c090bb3a7bc538126602060043592a480f35b610bc990611026565b610552578138610b84565b915060ff8316600103610ce15760443515610c8b5783916002604435910155807f0000000000000000000000000000000000000000000000000000000000000000163b1561055257818091604460405180948193633a1b3d3160e01b83526004356004840152600960248401527f0000000000000000000000000000000000000000000000000000000000000000165af180156101de57610c77575b5050610b87565b610c8090611026565b610552578138610c70565b60405162461bcd60e51b815260206004820152602860248201527f54617820616d6f756e74206d757374206265203e203020666f7220666c616767604482015267656420676f6f647360c01b6064820152608490fd5b9050600260ff8394931614600014610d8657807f0000000000000000000000000000000000000000000000000000000000000000163b1561055257818091604460405180948193633a1b3d3160e01b83526004356004840152600a60248401527f0000000000000000000000000000000000000000000000000000000000000000165af180156101de57610d77575b5090610b87565b610d8090611026565b38610d70565b60405162461bcd60e51b8152602060048201526015602482015274496e76616c6964206465636973696f6e20636f646560581b6044820152606490fd5b9091809394955011610ef757908291610de160018896950154610fec565b601f8111610ea2575b508490601f8311600114610e2c5785919083610e21575b50508160011b916000199060031b1c19161760018201555b388080610aec565b013590503880610e01565b6001849392969594018552602085209085965b601f1984168810610e87576001949596975083601f19811610610e6d575b505050811b016001820155610e19565b0135600019600384901b60f8161c19169055388080610e5d565b8181013583556020978801978a975060019093019201610e3f565b90919293945060018401875260208720601f840160051c810160208510610ef0575b90889695949392915b601f830160051c82018110610ee3575050610dea565b9687558896600101610ecd565b5080610ec4565b634e487b7160e01b86526041600452602486fd5b60405162461bcd60e51b815260206004820152601560248201527411dbdbd91cc81b9bdd081e595d081cda1a5c1c1959605a1b6044820152606490fd5b634e487b7160e01b87526021600452602487fd5b610f729250803d106102cb576102bc818361106c565b3880610aa7565b9181601f84011215610fa75782359167ffffffffffffffff8311610fa75760208381860195010111610fa757565b600080fd5b919082519283825260005b848110610fd8575050826000602080949584010152601f8019910116010190565b602081830181015184830182015201610fb7565b90600182811c9216801561101c575b602083101461100657565b634e487b7160e01b600052602260045260246000fd5b91607f1691610ffb565b67ffffffffffffffff811161103a57604052565b634e487b7160e01b600052604160045260246000fd5b60e0810190811067ffffffffffffffff82111761103a57604052565b90601f8019910116810190811067ffffffffffffffff82111761103a57604052565b906040519182600082546110a181610fec565b9081845260209460019160018116908160001461111157506001146110d2575b5050506110d09250038361106c565b565b600090815285812095935091905b8183106110f95750506110d093508201013880806110c1565b855488840185015294850194879450918301916110e0565b925050506110d094925060ff191682840152151560051b8201013880806110c1565b51906001600160a01b0382168203610fa757565b51908115158203610fa757565b80916102209283910312610fa75760405191820182811067ffffffffffffffff82111761103a57604052805182526020810151602083015260408101516040830152606081015160608301526080810151608083015260a081015160a08301526111c060c08201611133565b60c08301526111d160e08201611133565b60e08301526101006111e4818301611133565b908301526101206111f6818301611133565b90830152610140611208818301611133565b9083015261016061121a818301611133565b9083015261018061122c818301611133565b908301526101a061123e818301611133565b908301526101c080820151906015821015610fa7578301526101e0611264818301611147565b90830152611276610200809201611147565b9082015290565b1561128457565b60405162461bcd60e51b815260206004820152601b60248201527f4f6e6c7920437573746f6d20262054617820417574686f7269747900000000006044820152606490fdfea2646970667358221220e53f00363bd97b8f92e6457554b4b1188f736dc98c944c9febd8982862fd6b6a64736f6c63430008180033","opcodes":"PUSH1 0xA0 CALLVALUE PUSH2 0xB1 JUMPI PUSH1 0x1F PUSH2 0x13CC CODESIZE DUP2 SWAP1 SUB SWAP2 DUP3 ADD PUSH1 0x1F NOT AND DUP4 ADD SWAP2 PUSH1 0x1 PUSH1 0x1 PUSH1 0x40 SHL SUB DUP4 GT DUP5 DUP5 LT OR PUSH2 0xB6 JUMPI DUP1 DUP5 SWAP3 PUSH1 0x20 SWAP5 PUSH1 0x40 MSTORE DUP4 CODECOPY DUP2 ADD SUB SLT PUSH2 0xB1 JUMPI MLOAD PUSH1 0x1 PUSH1 0x1 PUSH1 0xA0 SHL SUB DUP2 AND SWAP1 DUP2 SWAP1 SUB PUSH2 0xB1 JUMPI PUSH1 0x80 MSTORE PUSH1 0x40 MLOAD PUSH2 0x12FF SWAP1 DUP2 PUSH2 0xCD DUP3 CODECOPY PUSH1 0x80 MLOAD DUP2 DUP2 DUP2 PUSH1 0x8D ADD MSTORE DUP2 DUP2 PUSH2 0x31E ADD MSTORE DUP2 DUP2 PUSH2 0x5B0 ADD MSTORE DUP2 DUP2 PUSH2 0xA1A ADD MSTORE DUP2 DUP2 PUSH2 0xA73 ADD MSTORE DUP2 DUP2 PUSH2 0xB09 ADD MSTORE DUP2 DUP2 PUSH2 0xB57 ADD MSTORE DUP2 DUP2 PUSH2 0xBF6 ADD MSTORE DUP2 DUP2 PUSH2 0xC43 ADD MSTORE DUP2 DUP2 PUSH2 0xCF6 ADD MSTORE PUSH2 0xD43 ADD MSTORE RETURN JUMPDEST PUSH1 0x0 DUP1 REVERT JUMPDEST PUSH4 0x4E487B71 PUSH1 0xE0 SHL PUSH1 0x0 MSTORE PUSH1 0x41 PUSH1 0x4 MSTORE PUSH1 0x24 PUSH1 0x0 REVERT INVALID PUSH1 0x80 DUP1 PUSH1 0x40 MSTORE PUSH1 0x4 CALLDATASIZE LT ISZERO PUSH2 0x13 JUMPI PUSH1 0x0 DUP1 REVERT JUMPDEST PUSH1 0x0 SWAP1 DUP2 CALLDATALOAD PUSH1 0xE0 SHR SWAP1 DUP2 PUSH4 0x345A83FA EQ PUSH2 0x9AC JUMPI POP DUP1 PUSH4 0x3EB3DA48 EQ PUSH2 0x556 JUMPI DUP1 PUSH4 0x58937CC8 EQ PUSH2 0x430 JUMPI DUP1 PUSH4 0x8DD62219 EQ PUSH2 0x3EE JUMPI DUP1 PUSH4 0xB90B0A10 EQ PUSH2 0x34D JUMPI DUP1 PUSH4 0xDBD97308 EQ PUSH2 0x308 JUMPI PUSH4 0xEA8324E3 EQ PUSH2 0x6E JUMPI PUSH1 0x0 DUP1 REVERT JUMPDEST CALLVALUE PUSH2 0x305 JUMPI PUSH1 0x20 CALLDATASIZE PUSH1 0x3 NOT ADD SLT PUSH2 0x305 JUMPI PUSH1 0x4 CALLDATALOAD PUSH1 0x1 DUP1 PUSH1 0xA0 SHL SUB SWAP1 DUP2 PUSH32 0x0 AND PUSH1 0x40 MLOAD PUSH4 0x2DB25E05 PUSH1 0xE0 SHL DUP1 DUP3 MSTORE DUP4 PUSH1 0x4 DUP4 ADD MSTORE PUSH2 0x220 SWAP2 PUSH1 0x24 SWAP6 DUP4 DUP3 DUP9 DUP2 DUP9 GAS STATICCALL SWAP2 DUP3 ISZERO PUSH2 0x2FA JUMPI PUSH2 0xF0 SWAP3 PUSH2 0x180 SWAP2 DUP11 SWAP2 PUSH2 0x2DD JUMPI JUMPDEST POP ADD MLOAD AND CALLER EQ PUSH2 0x127D JUMP JUMPDEST PUSH1 0x40 MLOAD SWAP1 DUP2 MSTORE DUP4 PUSH1 0x4 DUP3 ADD MSTORE DUP2 DUP2 DUP7 DUP2 DUP7 GAS STATICCALL SWAP1 DUP2 ISZERO PUSH2 0x2D2 JUMPI PUSH2 0x1C0 SWAP3 DUP8 SWAP3 PUSH2 0x2A5 JUMPI JUMPDEST POP POP ADD MLOAD PUSH1 0x15 DUP2 LT ISZERO PUSH2 0x292 JUMPI PUSH1 0x9 SUB PUSH2 0x25A JUMPI DUP2 DUP5 MSTORE DUP4 PUSH1 0x20 MSTORE PUSH1 0x40 DUP5 KECCAK256 SWAP3 PUSH1 0x2 DUP5 ADD SWAP4 DUP5 SLOAD ISZERO PUSH2 0x220 JUMPI PUSH1 0x3 ADD DUP1 SLOAD PUSH1 0xFF DUP2 PUSH1 0x18 SHR AND PUSH2 0x1E9 JUMPI PUSH4 0xFF00FF00 NOT AND PUSH4 0x1000100 OR SWAP1 SSTORE DUP5 SWAP2 SWAP1 DUP2 EXTCODESIZE ISZERO PUSH2 0x1DA JUMPI PUSH1 0x8 PUSH1 0x44 DUP5 SWAP3 DUP4 PUSH1 0x40 MLOAD SWAP6 DUP7 SWAP5 DUP6 SWAP4 PUSH4 0x3A1B3D31 PUSH1 0xE0 SHL DUP6 MSTORE DUP11 PUSH1 0x4 DUP7 ADD MSTORE DUP5 ADD MSTORE GAS CALL DUP1 ISZERO PUSH2 0x1DE JUMPI PUSH2 0x1C6 JUMPI JUMPDEST POP POP CALLER SWAP2 SLOAD SWAP1 PUSH32 0xB2F3804492A73E4CD995D51A482A4E90A4919F22255EE0441319BDEA08733ACB DUP5 DUP1 LOG4 DUP1 RETURN JUMPDEST PUSH2 0x1CF SWAP1 PUSH2 0x1026 JUMP JUMPDEST PUSH2 0x1DA JUMPI DUP3 CODESIZE PUSH2 0x199 JUMP JUMPDEST DUP3 DUP1 REVERT JUMPDEST PUSH1 0x40 MLOAD RETURNDATASIZE DUP5 DUP3 RETURNDATACOPY RETURNDATASIZE SWAP1 REVERT JUMPDEST PUSH1 0x40 MLOAD PUSH3 0x461BCD PUSH1 0xE5 SHL DUP2 MSTORE PUSH1 0x20 PUSH1 0x4 DUP3 ADD MSTORE PUSH1 0x10 DUP2 DUP6 ADD MSTORE PUSH16 0x15185E08185B1C9958591E481C185A59 PUSH1 0x82 SHL PUSH1 0x44 DUP3 ADD MSTORE PUSH1 0x64 SWAP1 REVERT JUMPDEST PUSH1 0x40 MLOAD PUSH3 0x461BCD PUSH1 0xE5 SHL DUP2 MSTORE PUSH1 0x20 PUSH1 0x4 DUP3 ADD MSTORE PUSH1 0x13 DUP2 DUP5 ADD MSTORE PUSH19 0x139BC81D185E081DD85CC8185CDCD95CDCD959 PUSH1 0x6A SHL PUSH1 0x44 DUP3 ADD MSTORE PUSH1 0x64 SWAP1 REVERT JUMPDEST PUSH1 0x40 MLOAD PUSH3 0x461BCD PUSH1 0xE5 SHL DUP2 MSTORE PUSH1 0x20 PUSH1 0x4 DUP3 ADD MSTORE PUSH1 0x11 DUP2 DUP6 ADD MSTORE PUSH17 0x151C985919481B9BDD08199B1859D9D959 PUSH1 0x7A SHL PUSH1 0x44 DUP3 ADD MSTORE PUSH1 0x64 SWAP1 REVERT JUMPDEST PUSH4 0x4E487B71 PUSH1 0xE0 SHL DUP6 MSTORE PUSH1 0x21 PUSH1 0x4 MSTORE DUP4 DUP6 REVERT JUMPDEST PUSH2 0x2C4 SWAP3 POP DUP1 RETURNDATASIZE LT PUSH2 0x2CB JUMPI JUMPDEST PUSH2 0x2BC DUP2 DUP4 PUSH2 0x106C JUMP JUMPDEST DUP2 ADD SWAP1 PUSH2 0x1154 JUMP JUMPDEST CODESIZE DUP1 PUSH2 0x115 JUMP JUMPDEST POP RETURNDATASIZE PUSH2 0x2B2 JUMP JUMPDEST PUSH1 0x40 MLOAD RETURNDATASIZE DUP9 DUP3 RETURNDATACOPY RETURNDATASIZE SWAP1 REVERT JUMPDEST PUSH2 0x2F4 SWAP2 POP DUP7 RETURNDATASIZE DUP9 GT PUSH2 0x2CB JUMPI PUSH2 0x2BC DUP2 DUP4 PUSH2 0x106C JUMP JUMPDEST CODESIZE PUSH2 0xE5 JUMP JUMPDEST PUSH1 0x40 MLOAD RETURNDATASIZE DUP11 DUP3 RETURNDATACOPY RETURNDATASIZE SWAP1 REVERT JUMPDEST DUP1 REVERT JUMPDEST POP CALLVALUE PUSH2 0x305 JUMPI DUP1 PUSH1 0x3 NOT CALLDATASIZE ADD SLT PUSH2 0x305 JUMPI PUSH1 0x40 MLOAD PUSH32 0x0 PUSH1 0x1 PUSH1 0x1 PUSH1 0xA0 SHL SUB AND DUP2 MSTORE PUSH1 0x20 SWAP1 RETURN JUMPDEST POP CALLVALUE PUSH2 0x305 JUMPI PUSH1 0x20 CALLDATASIZE PUSH1 0x3 NOT ADD SLT PUSH2 0x305 JUMPI PUSH1 0x40 PUSH2 0x3A9 SWAP2 PUSH1 0x4 CALLDATALOAD DUP2 MSTORE DUP1 PUSH1 0x20 MSTORE KECCAK256 PUSH2 0x378 DUP2 PUSH2 0x108E JUMP JUMPDEST SWAP1 PUSH1 0xFF PUSH2 0x387 PUSH1 0x1 DUP4 ADD PUSH2 0x108E JUMP JUMPDEST PUSH2 0x3B7 PUSH1 0x3 PUSH1 0x2 DUP6 ADD SLOAD SWAP5 ADD SLOAD SWAP2 PUSH1 0x40 MLOAD SWAP7 DUP8 SWAP7 PUSH1 0xE0 DUP9 MSTORE PUSH1 0xE0 DUP9 ADD SWAP1 PUSH2 0xFAC JUMP JUMPDEST SWAP1 DUP7 DUP3 SUB PUSH1 0x20 DUP9 ADD MSTORE PUSH2 0xFAC JUMP JUMPDEST SWAP3 PUSH1 0x40 DUP6 ADD MSTORE DUP2 DUP2 AND ISZERO ISZERO PUSH1 0x60 DUP6 ADD MSTORE DUP2 DUP2 PUSH1 0x8 SHR AND ISZERO ISZERO PUSH1 0x80 DUP6 ADD MSTORE DUP2 DUP2 PUSH1 0x10 SHR AND PUSH1 0xA0 DUP6 ADD MSTORE PUSH1 0x18 SHR AND ISZERO ISZERO PUSH1 0xC0 DUP4 ADD MSTORE SUB SWAP1 RETURN JUMPDEST POP CALLVALUE PUSH2 0x305 JUMPI PUSH1 0x20 CALLDATASIZE PUSH1 0x3 NOT ADD SLT PUSH2 0x305 JUMPI PUSH2 0x418 PUSH1 0x40 PUSH2 0x42C SWAP3 PUSH1 0x4 CALLDATALOAD DUP2 MSTORE DUP1 PUSH1 0x20 MSTORE KECCAK256 PUSH2 0x108E JUMP JUMPDEST PUSH1 0x40 MLOAD SWAP2 DUP3 SWAP2 PUSH1 0x20 DUP4 MSTORE PUSH1 0x20 DUP4 ADD SWAP1 PUSH2 0xFAC JUMP JUMPDEST SUB SWAP1 RETURN JUMPDEST POP CALLVALUE PUSH2 0x305 JUMPI PUSH1 0x20 DUP1 PUSH1 0x3 NOT CALLDATASIZE ADD SLT PUSH2 0x552 JUMPI PUSH1 0x40 DUP3 PUSH1 0xE0 SWAP4 PUSH1 0xC0 DUP4 MLOAD PUSH2 0x456 DUP2 PUSH2 0x1050 JUMP JUMPDEST PUSH1 0x60 DUP2 MSTORE PUSH1 0x60 DUP7 DUP3 ADD MSTORE DUP3 DUP6 DUP3 ADD MSTORE DUP3 PUSH1 0x60 DUP3 ADD MSTORE DUP3 PUSH1 0x80 DUP3 ADD MSTORE DUP3 PUSH1 0xA0 DUP3 ADD MSTORE ADD MSTORE PUSH1 0x4 CALLDATALOAD DUP2 MSTORE DUP1 DUP4 MSTORE KECCAK256 PUSH1 0x40 MLOAD SWAP2 PUSH2 0x48F DUP4 PUSH2 0x1050 JUMP JUMPDEST PUSH2 0x498 DUP3 PUSH2 0x108E JUMP JUMPDEST DUP4 MSTORE PUSH1 0xFF PUSH2 0x4A8 PUSH1 0x1 DUP5 ADD PUSH2 0x108E JUMP JUMPDEST SWAP2 DUP1 DUP6 ADD SWAP3 DUP4 MSTORE PUSH1 0x3 PUSH1 0x2 DUP6 ADD SLOAD SWAP5 PUSH1 0x40 DUP8 ADD SWAP6 DUP7 MSTORE ADD SLOAD SWAP3 PUSH1 0x60 DUP7 ADD DUP4 DUP6 AND ISZERO ISZERO DUP2 MSTORE PUSH2 0x528 PUSH1 0x80 DUP9 ADD SWAP3 DUP6 DUP8 PUSH1 0x8 SHR AND ISZERO ISZERO DUP5 MSTORE PUSH2 0x515 PUSH1 0xA0 DUP11 ADD SWAP6 DUP8 DUP10 PUSH1 0x10 SHR AND DUP8 MSTORE DUP8 PUSH1 0xC0 DUP13 ADD SWAP10 PUSH1 0x18 SHR AND ISZERO ISZERO DUP10 MSTORE PUSH1 0x40 MLOAD SWAP12 DUP13 SWAP12 DUP3 DUP14 MSTORE MLOAD SWAP2 DUP13 ADD MSTORE PUSH2 0x100 DUP12 ADD SWAP1 PUSH2 0xFAC JUMP JUMPDEST SWAP1 MLOAD DUP10 DUP3 SUB PUSH1 0x1F NOT ADD PUSH1 0x40 DUP12 ADD MSTORE PUSH2 0xFAC JUMP JUMPDEST SWAP6 MLOAD PUSH1 0x60 DUP9 ADD MSTORE MLOAD ISZERO ISZERO PUSH1 0x80 DUP8 ADD MSTORE MLOAD ISZERO ISZERO PUSH1 0xA0 DUP7 ADD MSTORE MLOAD AND PUSH1 0xC0 DUP5 ADD MSTORE MLOAD ISZERO ISZERO PUSH1 0xE0 DUP4 ADD MSTORE SUB SWAP1 RETURN JUMPDEST POP DUP1 REVERT JUMPDEST POP CALLVALUE PUSH2 0x305 JUMPI PUSH1 0x40 CALLDATASIZE PUSH1 0x3 NOT ADD SLT PUSH2 0x305 JUMPI PUSH8 0xFFFFFFFFFFFFFFFF PUSH1 0x4 CALLDATALOAD PUSH1 0x24 DUP1 CALLDATALOAD DUP4 DUP2 GT PUSH2 0x75C JUMPI PUSH2 0x58D SWAP1 CALLDATASIZE SWAP1 PUSH1 0x4 ADD PUSH2 0xF79 JUMP JUMPDEST PUSH1 0x40 MLOAD PUSH4 0x2DB25E05 PUSH1 0xE0 SHL DUP1 DUP3 MSTORE PUSH1 0x4 DUP3 ADD DUP7 SWAP1 MSTORE SWAP2 SWAP6 SWAP3 SWAP4 PUSH1 0x1 PUSH1 0x1 PUSH1 0xA0 SHL SUB PUSH32 0x0 DUP2 AND SWAP4 SWAP2 SWAP3 PUSH2 0x220 SWAP3 SWAP2 SWAP1 DUP4 DUP2 DUP7 DUP2 DUP10 GAS STATICCALL DUP1 ISZERO PUSH2 0x9A1 JUMPI PUSH2 0x140 SWAP2 DUP13 SWAP2 PUSH2 0x984 JUMPI JUMPDEST POP ADD MLOAD AND CALLER SUB PUSH2 0x940 JUMPI PUSH1 0x40 MLOAD SWAP1 DUP2 MSTORE DUP7 PUSH1 0x4 DUP3 ADD MSTORE DUP2 DUP2 DUP5 DUP2 DUP8 GAS STATICCALL SWAP1 DUP2 ISZERO PUSH2 0x935 JUMPI PUSH2 0x1C0 SWAP3 DUP11 SWAP3 PUSH2 0x918 JUMPI JUMPDEST POP POP ADD MLOAD PUSH1 0x15 DUP2 LT ISZERO PUSH2 0x905 JUMPI PUSH1 0x6 SUB PUSH2 0x8AF JUMPI DUP6 ISZERO PUSH2 0x876 JUMPI DUP5 DUP8 MSTORE PUSH1 0x20 SWAP3 DUP8 DUP5 MSTORE PUSH1 0xFF PUSH1 0x3 PUSH1 0x40 DUP11 KECCAK256 ADD SLOAD AND PUSH2 0x83D JUMPI DUP6 DUP9 MSTORE DUP8 DUP5 MSTORE PUSH1 0x40 DUP9 KECCAK256 SWAP1 DUP8 GT PUSH2 0x82A JUMPI SWAP1 DUP2 PUSH2 0x671 DUP10 SWAP4 SLOAD PUSH2 0xFEC JUMP JUMPDEST PUSH1 0x1F DUP2 GT PUSH2 0x7DD JUMPI JUMPDEST POP DUP8 DUP4 PUSH1 0x1F DUP3 GT PUSH1 0x1 EQ PUSH2 0x778 JUMPI DUP5 SWAP2 PUSH2 0x76D JUMPI JUMPDEST POP DUP9 PUSH1 0x1 SHL SWAP1 PUSH1 0x0 NOT DUP11 PUSH1 0x3 SHL SHR NOT AND OR SWAP1 SSTORE JUMPDEST DUP6 DUP3 MSTORE DUP2 DUP5 MSTORE PUSH1 0x40 DUP3 KECCAK256 PUSH1 0x3 ADD DUP1 SLOAD PUSH1 0xFF NOT AND PUSH1 0x1 OR SWAP1 SSTORE DUP3 EXTCODESIZE ISZERO PUSH2 0x552 JUMPI PUSH1 0x7 PUSH1 0x44 DUP4 SWAP3 DUP4 PUSH1 0x40 MLOAD SWAP7 DUP8 SWAP5 DUP6 SWAP4 PUSH4 0x3A1B3D31 PUSH1 0xE0 SHL DUP6 MSTORE DUP13 PUSH1 0x4 DUP7 ADD MSTORE DUP5 ADD MSTORE GAS CALL SWAP2 DUP3 ISZERO PUSH2 0x760 JUMPI DUP7 SWAP3 PUSH2 0x745 JUMPI JUMPDEST POP POP PUSH32 0x63149911DB316F829A231B8A15319E7C3955AE2DC560E0F9A964D69BA0BE2DBD SWAP3 DUP2 PUSH1 0x40 MLOAD SWAP4 DUP1 DUP6 MSTORE DUP5 ADD MSTORE PUSH1 0x40 DUP4 ADD CALLDATACOPY DUP5 PUSH1 0x40 DUP6 DUP4 ADD ADD MSTORE PUSH1 0x40 DUP2 CALLER SWAP6 PUSH1 0x1F DUP1 NOT SWAP2 ADD AND DUP2 ADD SUB ADD SWAP1 LOG3 DUP1 RETURN JUMPDEST PUSH2 0x750 SWAP2 SWAP3 POP PUSH2 0x1026 JUMP JUMPDEST PUSH2 0x75C JUMPI DUP4 DUP6 CODESIZE PUSH2 0x6F4 JUMP JUMPDEST DUP5 DUP1 REVERT JUMPDEST POP PUSH1 0x40 MLOAD SWAP1 RETURNDATASIZE SWAP1 DUP3 RETURNDATACOPY RETURNDATASIZE SWAP1 REVERT JUMPDEST SWAP1 POP DUP7 ADD CALLDATALOAD CODESIZE PUSH2 0x68F JUMP JUMPDEST DUP3 DUP6 MSTORE DUP7 DUP6 KECCAK256 SWAP2 POP DUP10 PUSH1 0x1F NOT DUP2 AND DUP7 JUMPDEST DUP10 DUP3 DUP3 LT PUSH2 0x7C1 JUMPI POP POP LT PUSH2 0x7A7 JUMPI JUMPDEST POP POP PUSH1 0x1 DUP9 DUP2 SHL ADD SWAP1 SSTORE PUSH2 0x6A3 JUMP JUMPDEST DUP8 ADD CALLDATALOAD PUSH1 0x0 NOT PUSH1 0x3 DUP12 SWAP1 SHL PUSH1 0xF8 AND SHR NOT AND SWAP1 SSTORE CODESIZE DUP1 PUSH2 0x798 JUMP JUMPDEST DUP12 DUP6 ADD CALLDATALOAD DUP7 SSTORE DUP15 SWAP9 POP PUSH1 0x1 SWAP1 SWAP6 ADD SWAP5 SWAP4 DUP5 ADD SWAP4 DUP14 SWAP4 POP ADD PUSH2 0x788 JUMP JUMPDEST SWAP1 DUP1 SWAP3 SWAP4 MSTORE DUP5 DUP10 KECCAK256 PUSH1 0x1F DUP10 ADD PUSH1 0x5 SHR DUP2 ADD SWAP2 DUP7 DUP11 LT PUSH2 0x820 JUMPI JUMPDEST SWAP1 PUSH1 0x1F DUP12 SWAP6 SWAP5 SWAP4 SWAP3 ADD PUSH1 0x5 SHR ADD SWAP1 JUMPDEST DUP2 DUP2 LT PUSH2 0x813 JUMPI POP PUSH2 0x67A JUMP JUMPDEST SWAP4 DUP5 SSTORE DUP10 SWAP4 PUSH1 0x1 ADD PUSH2 0x806 JUMP JUMPDEST SWAP1 SWAP2 POP DUP2 SWAP1 PUSH2 0x7F7 JUMP JUMPDEST POP PUSH4 0x4E487B71 PUSH1 0xE0 SHL DUP8 MSTORE PUSH1 0x41 PUSH1 0x4 MSTORE DUP7 REVERT JUMPDEST PUSH1 0x40 MLOAD PUSH3 0x461BCD PUSH1 0xE5 SHL DUP2 MSTORE PUSH1 0x4 DUP2 ADD DUP6 SWAP1 MSTORE PUSH1 0x12 DUP2 DUP5 ADD MSTORE PUSH18 0x109BD308185B1C9958591E481A5CDCDD5959 PUSH1 0x72 SHL PUSH1 0x44 DUP3 ADD MSTORE PUSH1 0x64 SWAP1 REVERT JUMPDEST PUSH1 0x64 SWAP1 PUSH1 0x12 PUSH1 0x40 MLOAD SWAP2 PUSH3 0x461BCD PUSH1 0xE5 SHL DUP4 MSTORE PUSH1 0x20 PUSH1 0x4 DUP5 ADD MSTORE DUP3 ADD MSTORE PUSH18 0x12541194C81A185CDA081C995C5D5A5C9959 PUSH1 0x72 SHL PUSH1 0x44 DUP3 ADD MSTORE REVERT JUMPDEST PUSH1 0x84 SWAP1 PUSH1 0x29 PUSH1 0x40 MLOAD SWAP2 PUSH3 0x461BCD PUSH1 0xE5 SHL DUP4 MSTORE PUSH1 0x20 PUSH1 0x4 DUP5 ADD MSTORE DUP3 ADD MSTORE PUSH32 0x5472616465206D75737420626520696E205348495050494E475F41535349474E PUSH1 0x44 DUP3 ADD MSTORE PUSH9 0x454420737461747573 PUSH1 0xB8 SHL PUSH1 0x64 DUP3 ADD MSTORE REVERT JUMPDEST POP PUSH4 0x4E487B71 PUSH1 0xE0 SHL DUP8 MSTORE PUSH1 0x21 PUSH1 0x4 MSTORE DUP7 REVERT JUMPDEST PUSH2 0x92E SWAP3 POP DUP1 RETURNDATASIZE LT PUSH2 0x2CB JUMPI PUSH2 0x2BC DUP2 DUP4 PUSH2 0x106C JUMP JUMPDEST CODESIZE DUP1 PUSH2 0x621 JUMP JUMPDEST PUSH1 0x40 MLOAD RETURNDATASIZE DUP12 DUP3 RETURNDATACOPY RETURNDATASIZE SWAP1 REVERT JUMPDEST PUSH1 0x40 MLOAD PUSH3 0x461BCD PUSH1 0xE5 SHL DUP2 MSTORE PUSH1 0x20 PUSH1 0x4 DUP3 ADD MSTORE PUSH1 0x1E DUP2 DUP6 ADD MSTORE PUSH32 0x4F6E6C792061737369676E6564207368697070696E6720636F6D70616E790000 PUSH1 0x44 DUP3 ADD MSTORE PUSH1 0x64 SWAP1 REVERT JUMPDEST PUSH2 0x99B SWAP2 POP DUP6 RETURNDATASIZE DUP8 GT PUSH2 0x2CB JUMPI PUSH2 0x2BC DUP2 DUP4 PUSH2 0x106C JUMP JUMPDEST CODESIZE PUSH2 0x5F2 JUMP JUMPDEST PUSH1 0x40 MLOAD RETURNDATASIZE DUP14 DUP3 RETURNDATACOPY RETURNDATASIZE SWAP1 REVERT JUMPDEST SWAP1 POP CALLVALUE PUSH2 0x552 JUMPI PUSH1 0x80 CALLDATASIZE PUSH1 0x3 NOT ADD SLT PUSH2 0x552 JUMPI PUSH1 0x24 CALLDATALOAD SWAP1 PUSH1 0xFF DUP3 AND DUP3 SUB PUSH2 0x1DA JUMPI PUSH8 0xFFFFFFFFFFFFFFFF SWAP1 PUSH1 0x64 CALLDATALOAD DUP3 DUP2 GT PUSH2 0x75C JUMPI PUSH2 0x9EF SWAP1 CALLDATASIZE SWAP1 PUSH1 0x4 ADD PUSH2 0xF79 JUMP JUMPDEST PUSH4 0x2DB25E05 PUSH1 0xE0 SHL DUP1 DUP5 MSTORE PUSH1 0x4 DUP1 CALLDATALOAD SWAP1 DUP6 ADD MSTORE SWAP2 SWAP4 PUSH1 0x1 PUSH1 0x1 PUSH1 0xA0 SHL SUB SWAP4 SWAP1 SWAP3 PUSH2 0x220 SWAP2 DUP3 DUP2 PUSH1 0x24 DUP2 PUSH32 0x0 DUP11 AND GAS STATICCALL DUP1 ISZERO PUSH2 0x935 JUMPI PUSH2 0x180 DUP8 SWAP2 PUSH2 0xA5D SWAP4 DUP13 SWAP2 PUSH2 0x2DD JUMPI POP ADD MLOAD AND CALLER EQ PUSH2 0x127D JUMP JUMPDEST PUSH1 0x40 MLOAD SWAP1 DUP2 MSTORE PUSH1 0x4 CALLDATALOAD PUSH1 0x4 DUP3 ADD MSTORE DUP2 DUP2 PUSH1 0x24 DUP2 DUP9 PUSH32 0x0 AND GAS STATICCALL SWAP1 DUP2 ISZERO PUSH2 0x2FA JUMPI PUSH2 0x1C0 SWAP3 DUP10 SWAP3 PUSH2 0xF5C JUMPI JUMPDEST POP POP ADD MLOAD PUSH1 0x15 DUP2 LT ISZERO PUSH2 0xF48 JUMPI PUSH1 0x7 SUB PUSH2 0xF0B JUMPI DUP6 SWAP4 PUSH1 0x4 CALLDATALOAD DUP6 MSTORE DUP5 PUSH1 0x20 MSTORE PUSH1 0x40 DUP6 KECCAK256 SWAP3 PUSH1 0x3 DUP5 ADD SLOAD PUSH3 0xFF0000 DUP9 PUSH1 0x10 SHL AND SWAP1 PUSH3 0xFF0000 NOT AND OR PUSH1 0x3 DUP6 ADD SSTORE DUP3 PUSH2 0xDC3 JUMPI JUMPDEST POP POP POP PUSH1 0xFF DUP5 AND PUSH2 0xBD4 JUMPI PUSH1 0x3 ADD DUP1 SLOAD PUSH2 0xFF00 NOT AND PUSH2 0x100 OR SWAP1 SSTORE PUSH32 0x0 DUP2 AND EXTCODESIZE ISZERO PUSH2 0x552 JUMPI DUP2 DUP1 SWAP2 PUSH1 0x44 PUSH1 0x40 MLOAD DUP1 SWAP5 DUP2 SWAP4 PUSH4 0x3A1B3D31 PUSH1 0xE0 SHL DUP4 MSTORE PUSH1 0x4 CALLDATALOAD PUSH1 0x4 DUP5 ADD MSTORE PUSH1 0x8 PUSH1 0x24 DUP5 ADD MSTORE PUSH32 0x0 AND GAS CALL DUP1 ISZERO PUSH2 0x1DE JUMPI PUSH2 0xBC0 JUMPI JUMPDEST POP POP JUMPDEST PUSH1 0x40 MLOAD PUSH1 0x44 CALLDATALOAD DUP2 MSTORE PUSH1 0xFF CALLER SWAP3 AND SWAP1 PUSH32 0xCDD6329E1A077A40150BE3254C6571018460655BDDBAFB9C090BB3A7BC538126 PUSH1 0x20 PUSH1 0x4 CALLDATALOAD SWAP3 LOG4 DUP1 RETURN JUMPDEST PUSH2 0xBC9 SWAP1 PUSH2 0x1026 JUMP JUMPDEST PUSH2 0x552 JUMPI DUP2 CODESIZE PUSH2 0xB84 JUMP JUMPDEST SWAP2 POP PUSH1 0xFF DUP4 AND PUSH1 0x1 SUB PUSH2 0xCE1 JUMPI PUSH1 0x44 CALLDATALOAD ISZERO PUSH2 0xC8B JUMPI DUP4 SWAP2 PUSH1 0x2 PUSH1 0x44 CALLDATALOAD SWAP2 ADD SSTORE DUP1 PUSH32 0x0 AND EXTCODESIZE ISZERO PUSH2 0x552 JUMPI DUP2 DUP1 SWAP2 PUSH1 0x44 PUSH1 0x40 MLOAD DUP1 SWAP5 DUP2 SWAP4 PUSH4 0x3A1B3D31 PUSH1 0xE0 SHL DUP4 MSTORE PUSH1 0x4 CALLDATALOAD PUSH1 0x4 DUP5 ADD MSTORE PUSH1 0x9 PUSH1 0x24 DUP5 ADD MSTORE PUSH32 0x0 AND GAS CALL DUP1 ISZERO PUSH2 0x1DE JUMPI PUSH2 0xC77 JUMPI JUMPDEST POP POP PUSH2 0xB87 JUMP JUMPDEST PUSH2 0xC80 SWAP1 PUSH2 0x1026 JUMP JUMPDEST PUSH2 0x552 JUMPI DUP2 CODESIZE PUSH2 0xC70 JUMP JUMPDEST PUSH1 0x40 MLOAD PUSH3 0x461BCD PUSH1 0xE5 SHL DUP2 MSTORE PUSH1 0x20 PUSH1 0x4 DUP3 ADD MSTORE PUSH1 0x28 PUSH1 0x24 DUP3 ADD MSTORE PUSH32 0x54617820616D6F756E74206D757374206265203E203020666F7220666C616767 PUSH1 0x44 DUP3 ADD MSTORE PUSH8 0x656420676F6F6473 PUSH1 0xC0 SHL PUSH1 0x64 DUP3 ADD MSTORE PUSH1 0x84 SWAP1 REVERT JUMPDEST SWAP1 POP PUSH1 0x2 PUSH1 0xFF DUP4 SWAP5 SWAP4 AND EQ PUSH1 0x0 EQ PUSH2 0xD86 JUMPI DUP1 PUSH32 0x0 AND EXTCODESIZE ISZERO PUSH2 0x552 JUMPI DUP2 DUP1 SWAP2 PUSH1 0x44 PUSH1 0x40 MLOAD DUP1 SWAP5 DUP2 SWAP4 PUSH4 0x3A1B3D31 PUSH1 0xE0 SHL DUP4 MSTORE PUSH1 0x4 CALLDATALOAD PUSH1 0x4 DUP5 ADD MSTORE PUSH1 0xA PUSH1 0x24 DUP5 ADD MSTORE PUSH32 0x0 AND GAS CALL DUP1 ISZERO PUSH2 0x1DE JUMPI PUSH2 0xD77 JUMPI JUMPDEST POP SWAP1 PUSH2 0xB87 JUMP JUMPDEST PUSH2 0xD80 SWAP1 PUSH2 0x1026 JUMP JUMPDEST CODESIZE PUSH2 0xD70 JUMP JUMPDEST PUSH1 0x40 MLOAD PUSH3 0x461BCD PUSH1 0xE5 SHL DUP2 MSTORE PUSH1 0x20 PUSH1 0x4 DUP3 ADD MSTORE PUSH1 0x15 PUSH1 0x24 DUP3 ADD MSTORE PUSH21 0x496E76616C6964206465636973696F6E20636F6465 PUSH1 0x58 SHL PUSH1 0x44 DUP3 ADD MSTORE PUSH1 0x64 SWAP1 REVERT JUMPDEST SWAP1 SWAP2 DUP1 SWAP4 SWAP5 SWAP6 POP GT PUSH2 0xEF7 JUMPI SWAP1 DUP3 SWAP2 PUSH2 0xDE1 PUSH1 0x1 DUP9 SWAP7 SWAP6 ADD SLOAD PUSH2 0xFEC JUMP JUMPDEST PUSH1 0x1F DUP2 GT PUSH2 0xEA2 JUMPI JUMPDEST POP DUP5 SWAP1 PUSH1 0x1F DUP4 GT PUSH1 0x1 EQ PUSH2 0xE2C JUMPI DUP6 SWAP2 SWAP1 DUP4 PUSH2 0xE21 JUMPI JUMPDEST POP POP DUP2 PUSH1 0x1 SHL SWAP2 PUSH1 0x0 NOT SWAP1 PUSH1 0x3 SHL SHR NOT AND OR PUSH1 0x1 DUP3 ADD SSTORE JUMPDEST CODESIZE DUP1 DUP1 PUSH2 0xAEC JUMP JUMPDEST ADD CALLDATALOAD SWAP1 POP CODESIZE DUP1 PUSH2 0xE01 JUMP JUMPDEST PUSH1 0x1 DUP5 SWAP4 SWAP3 SWAP7 SWAP6 SWAP5 ADD DUP6 MSTORE PUSH1 0x20 DUP6 KECCAK256 SWAP1 DUP6 SWAP7 JUMPDEST PUSH1 0x1F NOT DUP5 AND DUP9 LT PUSH2 0xE87 JUMPI PUSH1 0x1 SWAP5 SWAP6 SWAP7 SWAP8 POP DUP4 PUSH1 0x1F NOT DUP2 AND LT PUSH2 0xE6D JUMPI JUMPDEST POP POP POP DUP2 SHL ADD PUSH1 0x1 DUP3 ADD SSTORE PUSH2 0xE19 JUMP JUMPDEST ADD CALLDATALOAD PUSH1 0x0 NOT PUSH1 0x3 DUP5 SWAP1 SHL PUSH1 0xF8 AND SHR NOT AND SWAP1 SSTORE CODESIZE DUP1 DUP1 PUSH2 0xE5D JUMP JUMPDEST DUP2 DUP2 ADD CALLDATALOAD DUP4 SSTORE PUSH1 0x20 SWAP8 DUP9 ADD SWAP8 DUP11 SWAP8 POP PUSH1 0x1 SWAP1 SWAP4 ADD SWAP3 ADD PUSH2 0xE3F JUMP JUMPDEST SWAP1 SWAP2 SWAP3 SWAP4 SWAP5 POP PUSH1 0x1 DUP5 ADD DUP8 MSTORE PUSH1 0x20 DUP8 KECCAK256 PUSH1 0x1F DUP5 ADD PUSH1 0x5 SHR DUP2 ADD PUSH1 0x20 DUP6 LT PUSH2 0xEF0 JUMPI JUMPDEST SWAP1 DUP9 SWAP7 SWAP6 SWAP5 SWAP4 SWAP3 SWAP2 JUMPDEST PUSH1 0x1F DUP4 ADD PUSH1 0x5 SHR DUP3 ADD DUP2 LT PUSH2 0xEE3 JUMPI POP POP PUSH2 0xDEA JUMP JUMPDEST SWAP7 DUP8 SSTORE DUP9 SWAP7 PUSH1 0x1 ADD PUSH2 0xECD JUMP JUMPDEST POP DUP1 PUSH2 0xEC4 JUMP JUMPDEST PUSH4 0x4E487B71 PUSH1 0xE0 SHL DUP7 MSTORE PUSH1 0x41 PUSH1 0x4 MSTORE PUSH1 0x24 DUP7 REVERT JUMPDEST PUSH1 0x40 MLOAD PUSH3 0x461BCD PUSH1 0xE5 SHL DUP2 MSTORE PUSH1 0x20 PUSH1 0x4 DUP3 ADD MSTORE PUSH1 0x15 PUSH1 0x24 DUP3 ADD MSTORE PUSH21 0x11DBDBD91CC81B9BDD081E595D081CDA1A5C1C1959 PUSH1 0x5A SHL PUSH1 0x44 DUP3 ADD MSTORE PUSH1 0x64 SWAP1 REVERT JUMPDEST PUSH4 0x4E487B71 PUSH1 0xE0 SHL DUP8 MSTORE PUSH1 0x21 PUSH1 0x4 MSTORE PUSH1 0x24 DUP8 REVERT JUMPDEST PUSH2 0xF72 SWAP3 POP DUP1 RETURNDATASIZE LT PUSH2 0x2CB JUMPI PUSH2 0x2BC DUP2 DUP4 PUSH2 0x106C JUMP JUMPDEST CODESIZE DUP1 PUSH2 0xAA7 JUMP JUMPDEST SWAP2 DUP2 PUSH1 0x1F DUP5 ADD SLT ISZERO PUSH2 0xFA7 JUMPI DUP3 CALLDATALOAD SWAP2 PUSH8 0xFFFFFFFFFFFFFFFF DUP4 GT PUSH2 0xFA7 JUMPI PUSH1 0x20 DUP4 DUP2 DUP7 ADD SWAP6 ADD ADD GT PUSH2 0xFA7 JUMPI JUMP JUMPDEST PUSH1 0x0 DUP1 REVERT JUMPDEST SWAP2 SWAP1 DUP3 MLOAD SWAP3 DUP4 DUP3 MSTORE PUSH1 0x0 JUMPDEST DUP5 DUP2 LT PUSH2 0xFD8 JUMPI POP POP DUP3 PUSH1 0x0 PUSH1 0x20 DUP1 SWAP5 SWAP6 DUP5 ADD ADD MSTORE PUSH1 0x1F DUP1 NOT SWAP2 ADD AND ADD ADD SWAP1 JUMP JUMPDEST PUSH1 0x20 DUP2 DUP4 ADD DUP2 ADD MLOAD DUP5 DUP4 ADD DUP3 ADD MSTORE ADD PUSH2 0xFB7 JUMP JUMPDEST SWAP1 PUSH1 0x1 DUP3 DUP2 SHR SWAP3 AND DUP1 ISZERO PUSH2 0x101C JUMPI JUMPDEST PUSH1 0x20 DUP4 LT EQ PUSH2 0x1006 JUMPI JUMP JUMPDEST PUSH4 0x4E487B71 PUSH1 0xE0 SHL PUSH1 0x0 MSTORE PUSH1 0x22 PUSH1 0x4 MSTORE PUSH1 0x24 PUSH1 0x0 REVERT JUMPDEST SWAP2 PUSH1 0x7F AND SWAP2 PUSH2 0xFFB JUMP JUMPDEST PUSH8 0xFFFFFFFFFFFFFFFF DUP2 GT PUSH2 0x103A JUMPI PUSH1 0x40 MSTORE JUMP JUMPDEST PUSH4 0x4E487B71 PUSH1 0xE0 SHL PUSH1 0x0 MSTORE PUSH1 0x41 PUSH1 0x4 MSTORE PUSH1 0x24 PUSH1 0x0 REVERT JUMPDEST PUSH1 0xE0 DUP2 ADD SWAP1 DUP2 LT PUSH8 0xFFFFFFFFFFFFFFFF DUP3 GT OR PUSH2 0x103A JUMPI PUSH1 0x40 MSTORE JUMP JUMPDEST SWAP1 PUSH1 0x1F DUP1 NOT SWAP2 ADD AND DUP2 ADD SWAP1 DUP2 LT PUSH8 0xFFFFFFFFFFFFFFFF DUP3 GT OR PUSH2 0x103A JUMPI PUSH1 0x40 MSTORE JUMP JUMPDEST SWAP1 PUSH1 0x40 MLOAD SWAP2 DUP3 PUSH1 0x0 DUP3 SLOAD PUSH2 0x10A1 DUP2 PUSH2 0xFEC JUMP JUMPDEST SWAP1 DUP2 DUP5 MSTORE PUSH1 0x20 SWAP5 PUSH1 0x1 SWAP2 PUSH1 0x1 DUP2 AND SWAP1 DUP2 PUSH1 0x0 EQ PUSH2 0x1111 JUMPI POP PUSH1 0x1 EQ PUSH2 0x10D2 JUMPI JUMPDEST POP POP POP PUSH2 0x10D0 SWAP3 POP SUB DUP4 PUSH2 0x106C JUMP JUMPDEST JUMP JUMPDEST PUSH1 0x0 SWAP1 DUP2 MSTORE DUP6 DUP2 KECCAK256 SWAP6 SWAP4 POP SWAP2 SWAP1 JUMPDEST DUP2 DUP4 LT PUSH2 0x10F9 JUMPI POP POP PUSH2 0x10D0 SWAP4 POP DUP3 ADD ADD CODESIZE DUP1 DUP1 PUSH2 0x10C1 JUMP JUMPDEST DUP6 SLOAD DUP9 DUP5 ADD DUP6 ADD MSTORE SWAP5 DUP6 ADD SWAP5 DUP8 SWAP5 POP SWAP2 DUP4 ADD SWAP2 PUSH2 0x10E0 JUMP JUMPDEST SWAP3 POP POP POP PUSH2 0x10D0 SWAP5 SWAP3 POP PUSH1 0xFF NOT AND DUP3 DUP5 ADD MSTORE ISZERO ISZERO PUSH1 0x5 SHL DUP3 ADD ADD CODESIZE DUP1 DUP1 PUSH2 0x10C1 JUMP JUMPDEST MLOAD SWAP1 PUSH1 0x1 PUSH1 0x1 PUSH1 0xA0 SHL SUB DUP3 AND DUP3 SUB PUSH2 0xFA7 JUMPI JUMP JUMPDEST MLOAD SWAP1 DUP2 ISZERO ISZERO DUP3 SUB PUSH2 0xFA7 JUMPI JUMP JUMPDEST DUP1 SWAP2 PUSH2 0x220 SWAP3 DUP4 SWAP2 SUB SLT PUSH2 0xFA7 JUMPI PUSH1 0x40 MLOAD SWAP2 DUP3 ADD DUP3 DUP2 LT PUSH8 0xFFFFFFFFFFFFFFFF DUP3 GT OR PUSH2 0x103A JUMPI PUSH1 0x40 MSTORE DUP1 MLOAD DUP3 MSTORE PUSH1 0x20 DUP2 ADD MLOAD PUSH1 0x20 DUP4 ADD MSTORE PUSH1 0x40 DUP2 ADD MLOAD PUSH1 0x40 DUP4 ADD MSTORE PUSH1 0x60 DUP2 ADD MLOAD PUSH1 0x60 DUP4 ADD MSTORE PUSH1 0x80 DUP2 ADD MLOAD PUSH1 0x80 DUP4 ADD MSTORE PUSH1 0xA0 DUP2 ADD MLOAD PUSH1 0xA0 DUP4 ADD MSTORE PUSH2 0x11C0 PUSH1 0xC0 DUP3 ADD PUSH2 0x1133 JUMP JUMPDEST PUSH1 0xC0 DUP4 ADD MSTORE PUSH2 0x11D1 PUSH1 0xE0 DUP3 ADD PUSH2 0x1133 JUMP JUMPDEST PUSH1 0xE0 DUP4 ADD MSTORE PUSH2 0x100 PUSH2 0x11E4 DUP2 DUP4 ADD PUSH2 0x1133 JUMP JUMPDEST SWAP1 DUP4 ADD MSTORE PUSH2 0x120 PUSH2 0x11F6 DUP2 DUP4 ADD PUSH2 0x1133 JUMP JUMPDEST SWAP1 DUP4 ADD MSTORE PUSH2 0x140 PUSH2 0x1208 DUP2 DUP4 ADD PUSH2 0x1133 JUMP JUMPDEST SWAP1 DUP4 ADD MSTORE PUSH2 0x160 PUSH2 0x121A DUP2 DUP4 ADD PUSH2 0x1133 JUMP JUMPDEST SWAP1 DUP4 ADD MSTORE PUSH2 0x180 PUSH2 0x122C DUP2 DUP4 ADD PUSH2 0x1133 JUMP JUMPDEST SWAP1 DUP4 ADD MSTORE PUSH2 0x1A0 PUSH2 0x123E DUP2 DUP4 ADD PUSH2 0x1133 JUMP JUMPDEST SWAP1 DUP4 ADD MSTORE PUSH2 0x1C0 DUP1 DUP3 ADD MLOAD SWAP1 PUSH1 0x15 DUP3 LT ISZERO PUSH2 0xFA7 JUMPI DUP4 ADD MSTORE PUSH2 0x1E0 PUSH2 0x1264 DUP2 DUP4 ADD PUSH2 0x1147 JUMP JUMPDEST SWAP1 DUP4 ADD MSTORE PUSH2 0x1276 PUSH2 0x200 DUP1 SWAP3 ADD PUSH2 0x1147 JUMP JUMPDEST SWAP1 DUP3 ADD MSTORE SWAP1 JUMP JUMPDEST ISZERO PUSH2 0x1284 JUMPI JUMP JUMPDEST PUSH1 0x40 MLOAD PUSH3 0x461BCD PUSH1 0xE5 SHL DUP2 MSTORE PUSH1 0x20 PUSH1 0x4 DUP3 ADD MSTORE PUSH1 0x1B PUSH1 0x24 DUP3 ADD MSTORE PUSH32 0x4F6E6C7920437573746F6D20262054617820417574686F726974790000000000 PUSH1 0x44 DUP3 ADD MSTORE PUSH1 0x64 SWAP1 REVERT INVALID LOG2 PUSH5 0x6970667358 0x22 SLT KECCAK256 0xE5 EXTCODEHASH STOP CALLDATASIZE EXTCODESIZE 0xD9 PUSH28 0x8F92E6457554B4B1188F736DC98C944C9FEBD8982862FD6B6A64736F PUSH13 0x63430008180033000000000000 "},"methodIdentifiers":{"getBolIpfsHash(uint256)":"8dd62219","getVerification(uint256)":"58937cc8","issueBillOfLading(uint256,string)":"3eb3da48","payTaxAndRelease(uint256)":"ea8324e3","tradeRegistry()":"dbd97308","verifications(uint256)":"b90b0a10","verifyAsCustoms(uint256,uint8,uint256,string)":"345a83fa"}}}}}