{"contracts/PaymentSettlement.sol":{"PaymentSettlement":{"abi":[{"inputs":[{"internalType":"address","name":"_tradeRegistry","type":"address"}],"stateMutability":"nonpayable","type":"constructor"},{"anonymous":false,"inputs":[{"indexed":true,"internalType":"uint256","name":"tradeId","type":"uint256"},{"indexed":true,"internalType":"uint256","name":"amount","type":"uint256"}],"name":"FundsLocked","type":"event"},{"anonymous":false,"inputs":[{"indexed":true,"internalType":"uint256","name":"tradeId","type":"uint256"},{"indexed":true,"internalType":"address","name":"to","type":"address"},{"indexed":true,"internalType":"uint256","name":"amount","type":"uint256"}],"name":"FundsRefunded","type":"event"},{"anonymous":false,"inputs":[{"indexed":true,"internalType":"uint256","name":"tradeId","type":"uint256"},{"indexed":true,"internalType":"address","name":"to","type":"address"},{"indexed":true,"internalType":"uint256","name":"amount","type":"uint256"}],"name":"InsurancePayout","type":"event"},{"anonymous":false,"inputs":[{"indexed":true,"internalType":"uint256","name":"tradeId","type":"uint256"},{"indexed":true,"internalType":"uint256","name":"amount","type":"uint256"},{"indexed":true,"internalType":"address","name":"authorizedBy","type":"address"}],"name":"PaymentAuthorized","type":"event"},{"anonymous":false,"inputs":[{"indexed":true,"internalType":"uint256","name":"tradeId","type":"uint256"},{"indexed":true,"internalType":"address","name":"confirmedBy","type":"address"}],"name":"SettlementConfirmed","type":"event"},{"anonymous":false,"inputs":[{"indexed":true,"internalType":"uint256","name":"tradeId","type":"uint256"}],"name":"TradeCompleted","type":"event"},{"inputs":[{"internalType":"uint256","name":"_tradeId","type":"uint256"}],"name":"authorizePayment","outputs":[],"stateMutability":"nonpayable","type":"function"},{"inputs":[{"internalType":"uint256","name":"_tradeId","type":"uint256"}],"name":"confirmSettlement","outputs":[],"stateMutability":"nonpayable","type":"function"},{"inputs":[{"internalType":"uint256","name":"_tradeId","type":"uint256"}],"name":"depositEscrow","outputs":[],"stateMutability":"payable","type":"function"},{"inputs":[{"internalType":"uint256","name":"_tradeId","type":"uint256"}],"name":"getSettlement","outputs":[{"components":[{"internalType":"uint256","name":"tradeId","type":"uint256"},{"internalType":"uint256","name":"amount","type":"uint256"},{"internalType":"bool","name":"fundsLocked","type":"bool"},{"internalType":"bool","name":"paymentAuthorized","type":"bool"},{"internalType":"bool","name":"settlementConfirmed","type":"bool"},{"internalType":"bool","name":"refunded","type":"bool"},{"internalType":"uint256","name":"authorizedAt","type":"uint256"},{"internalType":"uint256","name":"confirmedAt","type":"uint256"}],"internalType":"struct PaymentSettlement.Settlement","name":"","type":"tuple"}],"stateMutability":"view","type":"function"},{"inputs":[{"internalType":"uint256","name":"_tradeId","type":"uint256"}],"name":"payoutInsurance","outputs":[],"stateMutability":"nonpayable","type":"function"},{"inputs":[{"internalType":"uint256","name":"_tradeId","type":"uint256"}],"name":"refundImporter","outputs":[],"stateMutability":"nonpayable","type":"function"},{"inputs":[{"internalType":"uint256","name":"","type":"uint256"}],"name":"settlements","outputs":[{"internalType":"uint256","name":"tradeId","type":"uint256"},{"internalType":"uint256","name":"amount","type":"uint256"},{"internalType":"bool","name":"fundsLocked","type":"bool"},{"internalType":"bool","name":"paymentAuthorized","type":"bool"},{"internalType":"bool","name":"settlementConfirmed","type":"bool"},{"internalType":"bool","name":"refunded","type":"bool"},{"internalType":"uint256","name":"authorizedAt","type":"uint256"},{"internalType":"uint256","name":"confirmedAt","type":"uint256"}],"stateMutability":"view","type":"function"},{"inputs":[],"name":"tradeRegistry","outputs":[{"internalType":"contract TradeRegistry","name":"","type":"address"}],"stateMutability":"view","type":"function"}],"evm":{"bytecode":{"linkReferences":{},"object":"60a03461008d57601f6110fd38819003918201601f19168301916001600160401b038311848410176100925780849260209460405283398101031261008d57516001600160a01b0381169081900361008d5760805260405161105490816100a9823960805181818160920152818160f80152818161033a0152818161069a01528181610a1c0152610bf30152f35b600080fd5b634e487b7160e01b600052604160045260246000fdfe608060408181526004918236101561001657600080fd5b60009260e08435811c92836308df7dc814610d56575082630c842ad314610bb55782633ecfd08d146109de5782634c582380146108d95750816381a031331461065c5781639e924eb514610317578163cb991efe146100c5575063dbd973081461007f57600080fd5b346100c157816003193601126100c157517f00000000000000000000000000000000000000000000000000000000000000006001600160a01b03168152602090f35b5080fd5b90506020366003190112610313578151632db25e0560e01b80825282358383018190529360249390926001600160a01b037f00000000000000000000000000000000000000000000000000000000000000008116936102209290919083818981895afa9081156103095761014a9291610100918c916102ec575b500151163314610fc8565b8451908152868382015281818781875afa9182156102e25788926102b5575b50506020810151340361027b576101c0015160158110156102695781036102305790859392918585528460205282852060028101600160ff19825416179055600134910155813b1561022c5760448691868094600587519889968795633a1b3d3160e01b87528601528401525af1908115610223575061020f575b505034907fbedc4e5ac6876307c4b4b5761039aa2ebce89052490a34e15cc655d9142ba0dc8380a380f35b61021890610e05565b6100c15781386101e4565b513d84823e3d90fd5b8480fd5b606490601485602086519362461bcd60e51b855284015282015273131bd0c81b9bdd08185c1c1c9bdd9959081e595d60621b6044820152fd5b634e487b7160e01b8752602182528487fd5b835162461bcd60e51b815260208184015260158187015274125b98dbdc9c9958dd08185b5bdd5b9d081cd95b9d605a1b6044820152606490fd5b6102d49250803d106102db575b6102cc8183610e19565b810190610e61565b3880610169565b503d6102c2565b85513d8a823e3d90fd5b6103039150863d88116102db576102cc8183610e19565b3861013f565b87513d8c823e3d90fd5b8280fd5b8383346100c157602092836003193601126103135780359160018060a01b0391827f000000000000000000000000000000000000000000000000000000000000000016825193632db25e0560e01b80865286848701526102209160249683818981885afa9081156103095790610120918b9161063f575b5001511633036105f2578451908152868482015281818781865afa9182156102e257906101c0929189926105d5575b5050015160158110156105c357600d03610582578486528587528286206002810180549860ff8a60081c16156105425760ff8a60101c16610501575062010000889962ff000099989919161790558242910155803b1561022c578251633a1b3d3160e01b808252838201889052600e868301529290868160448183875af180156104f7579087916104df575b505083519433887fa1d0a1fdd38ed06d2aa307534e95eb980aee48ff8deee42d7babd1f6df8eb8658980a3823b156104db57868693600f85938b604496859987528601528401525af190811561022357506104c7575b50807f60f91a26281f20fb528663f4da55773c83e2ee8a7a5dddb6d1753749e81dc49b91a280f35b6104d090610e05565b6100c157818361049f565b8680fd5b6104e890610e05565b6104f3578589610449565b8580fd5b85513d89823e3d90fd5b84601c8860649389519362461bcd60e51b85528401528201527f536574746c656d656e7420616c726561647920636f6e6669726d6564000000006044820152fd5b84818860649389519362461bcd60e51b85528401528201527f5061796d656e74206e6f7420617574686f72697a6564206f6e207265636f72646044820152fd5b50601a8387606494519362461bcd60e51b85528401528201527f5061796d656e74206e6f742079657420617574686f72697a65640000000000006044820152fd5b634e487b7160e01b8752602183528487fd5b6105eb9250803d106102db576102cc8183610e19565b89806103bd565b845162461bcd60e51b81528085018a90526022818801527f4f6e6c79206164766973696e672062616e6b20286578706f727465722062616e6044820152616b2960f01b6064820152608490fd5b6106569150853d87116102db576102cc8183610e19565b8c61038e565b91905034610313576020366003190112610313578051632db25e0560e01b808252833584830181905261022094909360249390926001600160a01b037f0000000000000000000000000000000000000000000000000000000000000000811692919088838881875afa9283156108cf578a936108ac575b506106e79061010080940151163314610fc8565b8451908152868482015287818781865afa9788156108a2578998610883575b50506101c0870151601581101561087157600c0361081c578588528760205283882090600282019081549860ff8a60081c166107da578884556020018051600185015561ff001990991617905542600390910155869190803b1561031357859183604492600d87519889968795633a1b3d3160e01b87528601528401525af19081156107d157506107be575b50339151907ff506ea28cde1c7e7f1613d8385c5f1dc792cfc6757f3601542d1fee26a905a1d8480a480f35b6107ca90939193610e05565b9138610792565b513d86823e3d90fd5b865162461bcd60e51b8152602081880152601a818a01527f5061796d656e7420616c726561647920617574686f72697a65640000000000006044820152606490fd5b835162461bcd60e51b8152602081850152602a818701527f496d706f72746572206d75737420636f6e6669726d20676f6f647320726563656044820152691a5d995908199a5c9cdd60b21b6064820152608490fd5b634e487b7160e01b8952602184528589fd5b61089a929850803d106102db576102cc8183610e19565b953880610706565b85513d8b823e3d90fd5b6106e79193506108c8908a3d8c116102db576102cc8183610e19565b92906106d3565b86513d8c823e3d90fd5b915091346109da5760203660031901126109da578084610100958483516108ff81610dd2565b82815282602082015282858201528260608201528260808201528260a08201528260c0820152015284358152806020522081519161093c83610dd2565b81549485845260018301546020850190815260028401549280860160ff851615158152606087019260ff8660081c161515845288608089019560ff8860101c161515875260ff60a08b019860181c161515885260038901549860c08b01998a52015498019788528251998a525160208a0152511515908801525115156060870152511515608086015251151560a08501525160c08401525190820152f35b8380fd5b50905034610313576020366003190112610313578151632db25e0560e01b8152813581830181905291610220916001600160a01b03919083816024817f000000000000000000000000000000000000000000000000000000000000000087165afa938415610bab578794610b8c575b50506101c08301516015811015610b7957601203610b3d5783865285602052848620906002820190815490610a8460ff8316610f8a565b60ff8260181c16610b075750879695879586956101006001889788976301000000899863ff0000001916179055019283549586945501511680927f80b577b4fc190ab86d963549e29f496afd079c5d81a2480d61217d4b5060a28c8680a4828215610afe575bf115610af4575080f35b51903d90823e3d90fd5b506108fc610aea565b606490602089519162461bcd60e51b8352820152601060248201526f105b1c9958591e481c99599d5b99195960821b6044820152fd5b606490602086519162461bcd60e51b835282015260166024820152754e6f7420696e2072657665727465642073746174757360501b6044820152fd5b634e487b7160e01b875260218252602487fd5b610ba3929450803d106102db576102cc8183610e19565b913880610a4d565b86513d89823e3d90fd5b84848334610313576020366003190112610313578151632db25e0560e01b815281358183018190526001600160a01b039590926102209283816024817f00000000000000000000000000000000000000000000000000000000000000008c165afa938415610bab578794610d37575b50506101c08301516015811015610b7957601403610cff5783865285602052848620906002820190815490610c5b60ff8316610f8a565b60ff8260181c16610cc8575087969587958a87966001889788976301000000899863ff0000001916179055019283549586945501511680927f32fb06330903205d582db19821ddcb0e33f74a084f9fd8c2d876719b56100e898680a4828215610afe57f115610af4575080f35b606490602089519162461bcd60e51b83528201526011602482015270105b1c9958591e481c1c9bd8d95cdcd959607a1b6044820152fd5b606490602086519162461bcd60e51b8352820152601260248201527110db185a5b481b9bdd08185c1c1c9bdd995960721b6044820152fd5b610d4e929450803d106102db576102cc8183610e19565b918780610c24565b939250903461022c57602036600319011261022c5760ff836101009683358152806020522091825494600184015460028501549260038601549501549688526020880152828216151590870152818160081c1615156060870152818160101c161515608087015260181c16151560a085015260c0840152820152f35b610100810190811067ffffffffffffffff821117610def57604052565b634e487b7160e01b600052604160045260246000fd5b67ffffffffffffffff8111610def57604052565b90601f8019910116810190811067ffffffffffffffff821117610def57604052565b51906001600160a01b0382168203610e4f57565b600080fd5b51908115158203610e4f57565b80916102209283910312610e4f5760405191820182811067ffffffffffffffff821117610def57604052805182526020810151602083015260408101516040830152606081015160608301526080810151608083015260a081015160a0830152610ecd60c08201610e3b565b60c0830152610ede60e08201610e3b565b60e0830152610100610ef1818301610e3b565b90830152610120610f03818301610e3b565b90830152610140610f15818301610e3b565b90830152610160610f27818301610e3b565b90830152610180610f39818301610e3b565b908301526101a0610f4b818301610e3b565b908301526101c080820151906015821015610e4f578301526101e0610f71818301610e54565b90830152610f83610200809201610e54565b9082015290565b15610f9157565b60405162461bcd60e51b815260206004820152600f60248201526e139bc8199d5b991cc81b1bd8dad959608a1b6044820152606490fd5b15610fcf57565b60405162461bcd60e51b815260206004820152602160248201527f4f6e6c792069737375696e672062616e6b2028696d706f727465722062616e6b6044820152602960f81b6064820152608490fdfea2646970667358221220760925debe6f0fd862cb0be54ea86237f5a6e64f786c90ed9673d3cb10f4bdfa64736f6c63430008180033","opcodes":"PUSH1 0xA0 CALLVALUE PUSH2 0x8D JUMPI PUSH1 0x1F PUSH2 0x10FD CODESIZE DUP2 SWAP1 SUB SWAP2 DUP3 ADD PUSH1 0x1F NOT AND DUP4 ADD SWAP2 PUSH1 0x1 PUSH1 0x1 PUSH1 0x40 SHL SUB DUP4 GT DUP5 DUP5 LT OR PUSH2 0x92 JUMPI DUP1 DUP5 SWAP3 PUSH1 0x20 SWAP5 PUSH1 0x40 MSTORE DUP4 CODECOPY DUP2 ADD SUB SLT PUSH2 0x8D JUMPI MLOAD PUSH1 0x1 PUSH1 0x1 PUSH1 0xA0 SHL SUB DUP2 AND SWAP1 DUP2 SWAP1 SUB PUSH2 0x8D JUMPI PUSH1 0x80 MSTORE PUSH1 0x40 MLOAD PUSH2 0x1054 SWAP1 DUP2 PUSH2 0xA9 DUP3 CODECOPY PUSH1 0x80 MLOAD DUP2 DUP2 DUP2 PUSH1 0x92 ADD MSTORE DUP2 DUP2 PUSH1 0xF8 ADD MSTORE DUP2 DUP2 PUSH2 0x33A ADD MSTORE DUP2 DUP2 PUSH2 0x69A ADD MSTORE DUP2 DUP2 PUSH2 0xA1C ADD MSTORE PUSH2 0xBF3 ADD MSTORE RETURN JUMPDEST PUSH1 0x0 DUP1 REVERT JUMPDEST PUSH4 0x4E487B71 PUSH1 0xE0 SHL PUSH1 0x0 MSTORE PUSH1 0x41 PUSH1 0x4 MSTORE PUSH1 0x24 PUSH1 0x0 REVERT INVALID PUSH1 0x80 PUSH1 0x40 DUP2 DUP2 MSTORE PUSH1 0x4 SWAP2 DUP3 CALLDATASIZE LT ISZERO PUSH2 0x16 JUMPI PUSH1 0x0 DUP1 REVERT JUMPDEST PUSH1 0x0 SWAP3 PUSH1 0xE0 DUP5 CALLDATALOAD DUP2 SHR SWAP3 DUP4 PUSH4 0x8DF7DC8 EQ PUSH2 0xD56 JUMPI POP DUP3 PUSH4 0xC842AD3 EQ PUSH2 0xBB5 JUMPI DUP3 PUSH4 0x3ECFD08D EQ PUSH2 0x9DE JUMPI DUP3 PUSH4 0x4C582380 EQ PUSH2 0x8D9 JUMPI POP DUP2 PUSH4 0x81A03133 EQ PUSH2 0x65C JUMPI DUP2 PUSH4 0x9E924EB5 EQ PUSH2 0x317 JUMPI DUP2 PUSH4 0xCB991EFE EQ PUSH2 0xC5 JUMPI POP PUSH4 0xDBD97308 EQ PUSH2 0x7F JUMPI PUSH1 0x0 DUP1 REVERT JUMPDEST CALLVALUE PUSH2 0xC1 JUMPI DUP2 PUSH1 0x3 NOT CALLDATASIZE ADD SLT PUSH2 0xC1 JUMPI MLOAD PUSH32 0x0 PUSH1 0x1 PUSH1 0x1 PUSH1 0xA0 SHL SUB AND DUP2 MSTORE PUSH1 0x20 SWAP1 RETURN JUMPDEST POP DUP1 REVERT JUMPDEST SWAP1 POP PUSH1 0x20 CALLDATASIZE PUSH1 0x3 NOT ADD SLT PUSH2 0x313 JUMPI DUP2 MLOAD PUSH4 0x2DB25E05 PUSH1 0xE0 SHL DUP1 DUP3 MSTORE DUP3 CALLDATALOAD DUP4 DUP4 ADD DUP2 SWAP1 MSTORE SWAP4 PUSH1 0x24 SWAP4 SWAP1 SWAP3 PUSH1 0x1 PUSH1 0x1 PUSH1 0xA0 SHL SUB PUSH32 0x0 DUP2 AND SWAP4 PUSH2 0x220 SWAP3 SWAP1 SWAP2 SWAP1 DUP4 DUP2 DUP10 DUP2 DUP10 GAS STATICCALL SWAP1 DUP2 ISZERO PUSH2 0x309 JUMPI PUSH2 0x14A SWAP3 SWAP2 PUSH2 0x100 SWAP2 DUP13 SWAP2 PUSH2 0x2EC JUMPI JUMPDEST POP ADD MLOAD AND CALLER EQ PUSH2 0xFC8 JUMP JUMPDEST DUP5 MLOAD SWAP1 DUP2 MSTORE DUP7 DUP4 DUP3 ADD MSTORE DUP2 DUP2 DUP8 DUP2 DUP8 GAS STATICCALL SWAP2 DUP3 ISZERO PUSH2 0x2E2 JUMPI DUP9 SWAP3 PUSH2 0x2B5 JUMPI JUMPDEST POP POP PUSH1 0x20 DUP2 ADD MLOAD CALLVALUE SUB PUSH2 0x27B JUMPI PUSH2 0x1C0 ADD MLOAD PUSH1 0x15 DUP2 LT ISZERO PUSH2 0x269 JUMPI DUP2 SUB PUSH2 0x230 JUMPI SWAP1 DUP6 SWAP4 SWAP3 SWAP2 DUP6 DUP6 MSTORE DUP5 PUSH1 0x20 MSTORE DUP3 DUP6 KECCAK256 PUSH1 0x2 DUP2 ADD PUSH1 0x1 PUSH1 0xFF NOT DUP3 SLOAD AND OR SWAP1 SSTORE PUSH1 0x1 CALLVALUE SWAP2 ADD SSTORE DUP2 EXTCODESIZE ISZERO PUSH2 0x22C JUMPI PUSH1 0x44 DUP7 SWAP2 DUP7 DUP1 SWAP5 PUSH1 0x5 DUP8 MLOAD SWAP9 DUP10 SWAP7 DUP8 SWAP6 PUSH4 0x3A1B3D31 PUSH1 0xE0 SHL DUP8 MSTORE DUP7 ADD MSTORE DUP5 ADD MSTORE GAS CALL SWAP1 DUP2 ISZERO PUSH2 0x223 JUMPI POP PUSH2 0x20F JUMPI JUMPDEST POP POP CALLVALUE SWAP1 PUSH32 0xBEDC4E5AC6876307C4B4B5761039AA2EBCE89052490A34E15CC655D9142BA0DC DUP4 DUP1 LOG3 DUP1 RETURN JUMPDEST PUSH2 0x218 SWAP1 PUSH2 0xE05 JUMP JUMPDEST PUSH2 0xC1 JUMPI DUP2 CODESIZE PUSH2 0x1E4 JUMP JUMPDEST MLOAD RETURNDATASIZE DUP5 DUP3 RETURNDATACOPY RETURNDATASIZE SWAP1 REVERT JUMPDEST DUP5 DUP1 REVERT JUMPDEST PUSH1 0x64 SWAP1 PUSH1 0x14 DUP6 PUSH1 0x20 DUP7 MLOAD SWAP4 PUSH3 0x461BCD PUSH1 0xE5 SHL DUP6 MSTORE DUP5 ADD MSTORE DUP3 ADD MSTORE PUSH20 0x131BD0C81B9BDD08185C1C1C9BDD9959081E595D PUSH1 0x62 SHL PUSH1 0x44 DUP3 ADD MSTORE REVERT JUMPDEST PUSH4 0x4E487B71 PUSH1 0xE0 SHL DUP8 MSTORE PUSH1 0x21 DUP3 MSTORE DUP5 DUP8 REVERT JUMPDEST DUP4 MLOAD PUSH3 0x461BCD PUSH1 0xE5 SHL DUP2 MSTORE PUSH1 0x20 DUP2 DUP5 ADD MSTORE PUSH1 0x15 DUP2 DUP8 ADD MSTORE PUSH21 0x125B98DBDC9C9958DD08185B5BDD5B9D081CD95B9D PUSH1 0x5A SHL PUSH1 0x44 DUP3 ADD MSTORE PUSH1 0x64 SWAP1 REVERT JUMPDEST PUSH2 0x2D4 SWAP3 POP DUP1 RETURNDATASIZE LT PUSH2 0x2DB JUMPI JUMPDEST PUSH2 0x2CC DUP2 DUP4 PUSH2 0xE19 JUMP JUMPDEST DUP2 ADD SWAP1 PUSH2 0xE61 JUMP JUMPDEST CODESIZE DUP1 PUSH2 0x169 JUMP JUMPDEST POP RETURNDATASIZE PUSH2 0x2C2 JUMP JUMPDEST DUP6 MLOAD RETURNDATASIZE DUP11 DUP3 RETURNDATACOPY RETURNDATASIZE SWAP1 REVERT JUMPDEST PUSH2 0x303 SWAP2 POP DUP7 RETURNDATASIZE DUP9 GT PUSH2 0x2DB JUMPI PUSH2 0x2CC DUP2 DUP4 PUSH2 0xE19 JUMP JUMPDEST CODESIZE PUSH2 0x13F JUMP JUMPDEST DUP8 MLOAD RETURNDATASIZE DUP13 DUP3 RETURNDATACOPY RETURNDATASIZE SWAP1 REVERT JUMPDEST DUP3 DUP1 REVERT JUMPDEST DUP4 DUP4 CALLVALUE PUSH2 0xC1 JUMPI PUSH1 0x20 SWAP3 DUP4 PUSH1 0x3 NOT CALLDATASIZE ADD SLT PUSH2 0x313 JUMPI DUP1 CALLDATALOAD SWAP2 PUSH1 0x1 DUP1 PUSH1 0xA0 SHL SUB SWAP2 DUP3 PUSH32 0x0 AND DUP3 MLOAD SWAP4 PUSH4 0x2DB25E05 PUSH1 0xE0 SHL DUP1 DUP7 MSTORE DUP7 DUP5 DUP8 ADD MSTORE PUSH2 0x220 SWAP2 PUSH1 0x24 SWAP7 DUP4 DUP2 DUP10 DUP2 DUP9 GAS STATICCALL SWAP1 DUP2 ISZERO PUSH2 0x309 JUMPI SWAP1 PUSH2 0x120 SWAP2 DUP12 SWAP2 PUSH2 0x63F JUMPI JUMPDEST POP ADD MLOAD AND CALLER SUB PUSH2 0x5F2 JUMPI DUP5 MLOAD SWAP1 DUP2 MSTORE DUP7 DUP5 DUP3 ADD MSTORE DUP2 DUP2 DUP8 DUP2 DUP7 GAS STATICCALL SWAP2 DUP3 ISZERO PUSH2 0x2E2 JUMPI SWAP1 PUSH2 0x1C0 SWAP3 SWAP2 DUP10 SWAP3 PUSH2 0x5D5 JUMPI JUMPDEST POP POP ADD MLOAD PUSH1 0x15 DUP2 LT ISZERO PUSH2 0x5C3 JUMPI PUSH1 0xD SUB PUSH2 0x582 JUMPI DUP5 DUP7 MSTORE DUP6 DUP8 MSTORE DUP3 DUP7 KECCAK256 PUSH1 0x2 DUP2 ADD DUP1 SLOAD SWAP9 PUSH1 0xFF DUP11 PUSH1 0x8 SHR AND ISZERO PUSH2 0x542 JUMPI PUSH1 0xFF DUP11 PUSH1 0x10 SHR AND PUSH2 0x501 JUMPI POP PUSH3 0x10000 DUP9 SWAP10 PUSH3 0xFF0000 SWAP10 SWAP9 SWAP10 NOT AND OR SWAP1 SSTORE DUP3 TIMESTAMP SWAP2 ADD SSTORE DUP1 EXTCODESIZE ISZERO PUSH2 0x22C JUMPI DUP3 MLOAD PUSH4 0x3A1B3D31 PUSH1 0xE0 SHL DUP1 DUP3 MSTORE DUP4 DUP3 ADD DUP9 SWAP1 MSTORE PUSH1 0xE DUP7 DUP4 ADD MSTORE SWAP3 SWAP1 DUP7 DUP2 PUSH1 0x44 DUP2 DUP4 DUP8 GAS CALL DUP1 ISZERO PUSH2 0x4F7 JUMPI SWAP1 DUP8 SWAP2 PUSH2 0x4DF JUMPI JUMPDEST POP POP DUP4 MLOAD SWAP5 CALLER DUP9 PUSH32 0xA1D0A1FDD38ED06D2AA307534E95EB980AEE48FF8DEEE42D7BABD1F6DF8EB865 DUP10 DUP1 LOG3 DUP3 EXTCODESIZE ISZERO PUSH2 0x4DB JUMPI DUP7 DUP7 SWAP4 PUSH1 0xF DUP6 SWAP4 DUP12 PUSH1 0x44 SWAP7 DUP6 SWAP10 DUP8 MSTORE DUP7 ADD MSTORE DUP5 ADD MSTORE GAS CALL SWAP1 DUP2 ISZERO PUSH2 0x223 JUMPI POP PUSH2 0x4C7 JUMPI JUMPDEST POP DUP1 PUSH32 0x60F91A26281F20FB528663F4DA55773C83E2EE8A7A5DDDB6D1753749E81DC49B SWAP2 LOG2 DUP1 RETURN JUMPDEST PUSH2 0x4D0 SWAP1 PUSH2 0xE05 JUMP JUMPDEST PUSH2 0xC1 JUMPI DUP2 DUP4 PUSH2 0x49F JUMP JUMPDEST DUP7 DUP1 REVERT JUMPDEST PUSH2 0x4E8 SWAP1 PUSH2 0xE05 JUMP JUMPDEST PUSH2 0x4F3 JUMPI DUP6 DUP10 PUSH2 0x449 JUMP JUMPDEST DUP6 DUP1 REVERT JUMPDEST DUP6 MLOAD RETURNDATASIZE DUP10 DUP3 RETURNDATACOPY RETURNDATASIZE SWAP1 REVERT JUMPDEST DUP5 PUSH1 0x1C DUP9 PUSH1 0x64 SWAP4 DUP10 MLOAD SWAP4 PUSH3 0x461BCD PUSH1 0xE5 SHL DUP6 MSTORE DUP5 ADD MSTORE DUP3 ADD MSTORE PUSH32 0x536574746C656D656E7420616C726561647920636F6E6669726D656400000000 PUSH1 0x44 DUP3 ADD MSTORE REVERT JUMPDEST DUP5 DUP2 DUP9 PUSH1 0x64 SWAP4 DUP10 MLOAD SWAP4 PUSH3 0x461BCD PUSH1 0xE5 SHL DUP6 MSTORE DUP5 ADD MSTORE DUP3 ADD MSTORE PUSH32 0x5061796D656E74206E6F7420617574686F72697A6564206F6E207265636F7264 PUSH1 0x44 DUP3 ADD MSTORE REVERT JUMPDEST POP PUSH1 0x1A DUP4 DUP8 PUSH1 0x64 SWAP5 MLOAD SWAP4 PUSH3 0x461BCD PUSH1 0xE5 SHL DUP6 MSTORE DUP5 ADD MSTORE DUP3 ADD MSTORE PUSH32 0x5061796D656E74206E6F742079657420617574686F72697A6564000000000000 PUSH1 0x44 DUP3 ADD MSTORE REVERT JUMPDEST PUSH4 0x4E487B71 PUSH1 0xE0 SHL DUP8 MSTORE PUSH1 0x21 DUP4 MSTORE DUP5 DUP8 REVERT JUMPDEST PUSH2 0x5EB SWAP3 POP DUP1 RETURNDATASIZE LT PUSH2 0x2DB JUMPI PUSH2 0x2CC DUP2 DUP4 PUSH2 0xE19 JUMP JUMPDEST DUP10 DUP1 PUSH2 0x3BD JUMP JUMPDEST DUP5 MLOAD PUSH3 0x461BCD PUSH1 0xE5 SHL DUP2 MSTORE DUP1 DUP6 ADD DUP11 SWAP1 MSTORE PUSH1 0x22 DUP2 DUP9 ADD MSTORE PUSH32 0x4F6E6C79206164766973696E672062616E6B20286578706F727465722062616E PUSH1 0x44 DUP3 ADD MSTORE PUSH2 0x6B29 PUSH1 0xF0 SHL PUSH1 0x64 DUP3 ADD MSTORE PUSH1 0x84 SWAP1 REVERT JUMPDEST PUSH2 0x656 SWAP2 POP DUP6 RETURNDATASIZE DUP8 GT PUSH2 0x2DB JUMPI PUSH2 0x2CC DUP2 DUP4 PUSH2 0xE19 JUMP JUMPDEST DUP13 PUSH2 0x38E JUMP JUMPDEST SWAP2 SWAP1 POP CALLVALUE PUSH2 0x313 JUMPI PUSH1 0x20 CALLDATASIZE PUSH1 0x3 NOT ADD SLT PUSH2 0x313 JUMPI DUP1 MLOAD PUSH4 0x2DB25E05 PUSH1 0xE0 SHL DUP1 DUP3 MSTORE DUP4 CALLDATALOAD DUP5 DUP4 ADD DUP2 SWAP1 MSTORE PUSH2 0x220 SWAP5 SWAP1 SWAP4 PUSH1 0x24 SWAP4 SWAP1 SWAP3 PUSH1 0x1 PUSH1 0x1 PUSH1 0xA0 SHL SUB PUSH32 0x0 DUP2 AND SWAP3 SWAP2 SWAP1 DUP9 DUP4 DUP9 DUP2 DUP8 GAS STATICCALL SWAP3 DUP4 ISZERO PUSH2 0x8CF JUMPI DUP11 SWAP4 PUSH2 0x8AC JUMPI JUMPDEST POP PUSH2 0x6E7 SWAP1 PUSH2 0x100 DUP1 SWAP5 ADD MLOAD AND CALLER EQ PUSH2 0xFC8 JUMP JUMPDEST DUP5 MLOAD SWAP1 DUP2 MSTORE DUP7 DUP5 DUP3 ADD MSTORE DUP8 DUP2 DUP8 DUP2 DUP7 GAS STATICCALL SWAP8 DUP9 ISZERO PUSH2 0x8A2 JUMPI DUP10 SWAP9 PUSH2 0x883 JUMPI JUMPDEST POP POP PUSH2 0x1C0 DUP8 ADD MLOAD PUSH1 0x15 DUP2 LT ISZERO PUSH2 0x871 JUMPI PUSH1 0xC SUB PUSH2 0x81C JUMPI DUP6 DUP9 MSTORE DUP8 PUSH1 0x20 MSTORE DUP4 DUP9 KECCAK256 SWAP1 PUSH1 0x2 DUP3 ADD SWAP1 DUP2 SLOAD SWAP9 PUSH1 0xFF DUP11 PUSH1 0x8 SHR AND PUSH2 0x7DA JUMPI DUP9 DUP5 SSTORE PUSH1 0x20 ADD DUP1 MLOAD PUSH1 0x1 DUP6 ADD SSTORE PUSH2 0xFF00 NOT SWAP1 SWAP10 AND OR SWAP1 SSTORE TIMESTAMP PUSH1 0x3 SWAP1 SWAP2 ADD SSTORE DUP7 SWAP2 SWAP1 DUP1 EXTCODESIZE ISZERO PUSH2 0x313 JUMPI DUP6 SWAP2 DUP4 PUSH1 0x44 SWAP3 PUSH1 0xD DUP8 MLOAD SWAP9 DUP10 SWAP7 DUP8 SWAP6 PUSH4 0x3A1B3D31 PUSH1 0xE0 SHL DUP8 MSTORE DUP7 ADD MSTORE DUP5 ADD MSTORE GAS CALL SWAP1 DUP2 ISZERO PUSH2 0x7D1 JUMPI POP PUSH2 0x7BE JUMPI JUMPDEST POP CALLER SWAP2 MLOAD SWAP1 PUSH32 0xF506EA28CDE1C7E7F1613D8385C5F1DC792CFC6757F3601542D1FEE26A905A1D DUP5 DUP1 LOG4 DUP1 RETURN JUMPDEST PUSH2 0x7CA SWAP1 SWAP4 SWAP2 SWAP4 PUSH2 0xE05 JUMP JUMPDEST SWAP2 CODESIZE PUSH2 0x792 JUMP JUMPDEST MLOAD RETURNDATASIZE DUP7 DUP3 RETURNDATACOPY RETURNDATASIZE SWAP1 REVERT JUMPDEST DUP7 MLOAD PUSH3 0x461BCD PUSH1 0xE5 SHL DUP2 MSTORE PUSH1 0x20 DUP2 DUP9 ADD MSTORE PUSH1 0x1A DUP2 DUP11 ADD MSTORE PUSH32 0x5061796D656E7420616C726561647920617574686F72697A6564000000000000 PUSH1 0x44 DUP3 ADD MSTORE PUSH1 0x64 SWAP1 REVERT JUMPDEST DUP4 MLOAD PUSH3 0x461BCD PUSH1 0xE5 SHL DUP2 MSTORE PUSH1 0x20 DUP2 DUP6 ADD MSTORE PUSH1 0x2A DUP2 DUP8 ADD MSTORE PUSH32 0x496D706F72746572206D75737420636F6E6669726D20676F6F64732072656365 PUSH1 0x44 DUP3 ADD MSTORE PUSH10 0x1A5D995908199A5C9CDD PUSH1 0xB2 SHL PUSH1 0x64 DUP3 ADD MSTORE PUSH1 0x84 SWAP1 REVERT JUMPDEST PUSH4 0x4E487B71 PUSH1 0xE0 SHL DUP10 MSTORE PUSH1 0x21 DUP5 MSTORE DUP6 DUP10 REVERT JUMPDEST PUSH2 0x89A SWAP3 SWAP9 POP DUP1 RETURNDATASIZE LT PUSH2 0x2DB JUMPI PUSH2 0x2CC DUP2 DUP4 PUSH2 0xE19 JUMP JUMPDEST SWAP6 CODESIZE DUP1 PUSH2 0x706 JUMP JUMPDEST DUP6 MLOAD RETURNDATASIZE DUP12 DUP3 RETURNDATACOPY RETURNDATASIZE SWAP1 REVERT JUMPDEST PUSH2 0x6E7 SWAP2 SWAP4 POP PUSH2 0x8C8 SWAP1 DUP11 RETURNDATASIZE DUP13 GT PUSH2 0x2DB JUMPI PUSH2 0x2CC DUP2 DUP4 PUSH2 0xE19 JUMP JUMPDEST SWAP3 SWAP1 PUSH2 0x6D3 JUMP JUMPDEST DUP7 MLOAD RETURNDATASIZE DUP13 DUP3 RETURNDATACOPY RETURNDATASIZE SWAP1 REVERT JUMPDEST SWAP2 POP SWAP2 CALLVALUE PUSH2 0x9DA JUMPI PUSH1 0x20 CALLDATASIZE PUSH1 0x3 NOT ADD SLT PUSH2 0x9DA JUMPI DUP1 DUP5 PUSH2 0x100 SWAP6 DUP5 DUP4 MLOAD PUSH2 0x8FF DUP2 PUSH2 0xDD2 JUMP JUMPDEST DUP3 DUP2 MSTORE DUP3 PUSH1 0x20 DUP3 ADD MSTORE DUP3 DUP6 DUP3 ADD MSTORE DUP3 PUSH1 0x60 DUP3 ADD MSTORE DUP3 PUSH1 0x80 DUP3 ADD MSTORE DUP3 PUSH1 0xA0 DUP3 ADD MSTORE DUP3 PUSH1 0xC0 DUP3 ADD MSTORE ADD MSTORE DUP5 CALLDATALOAD DUP2 MSTORE DUP1 PUSH1 0x20 MSTORE KECCAK256 DUP2 MLOAD SWAP2 PUSH2 0x93C DUP4 PUSH2 0xDD2 JUMP JUMPDEST DUP2 SLOAD SWAP5 DUP6 DUP5 MSTORE PUSH1 0x1 DUP4 ADD SLOAD PUSH1 0x20 DUP6 ADD SWAP1 DUP2 MSTORE PUSH1 0x2 DUP5 ADD SLOAD SWAP3 DUP1 DUP7 ADD PUSH1 0xFF DUP6 AND ISZERO ISZERO DUP2 MSTORE PUSH1 0x60 DUP8 ADD SWAP3 PUSH1 0xFF DUP7 PUSH1 0x8 SHR AND ISZERO ISZERO DUP5 MSTORE DUP9 PUSH1 0x80 DUP10 ADD SWAP6 PUSH1 0xFF DUP9 PUSH1 0x10 SHR AND ISZERO ISZERO DUP8 MSTORE PUSH1 0xFF PUSH1 0xA0 DUP12 ADD SWAP9 PUSH1 0x18 SHR AND ISZERO ISZERO DUP9 MSTORE PUSH1 0x3 DUP10 ADD SLOAD SWAP9 PUSH1 0xC0 DUP12 ADD SWAP10 DUP11 MSTORE ADD SLOAD SWAP9 ADD SWAP8 DUP9 MSTORE DUP3 MLOAD SWAP10 DUP11 MSTORE MLOAD PUSH1 0x20 DUP11 ADD MSTORE MLOAD ISZERO ISZERO SWAP1 DUP9 ADD MSTORE MLOAD ISZERO ISZERO PUSH1 0x60 DUP8 ADD MSTORE MLOAD ISZERO ISZERO PUSH1 0x80 DUP7 ADD MSTORE MLOAD ISZERO ISZERO PUSH1 0xA0 DUP6 ADD MSTORE MLOAD PUSH1 0xC0 DUP5 ADD MSTORE MLOAD SWAP1 DUP3 ADD MSTORE RETURN JUMPDEST DUP4 DUP1 REVERT JUMPDEST POP SWAP1 POP CALLVALUE PUSH2 0x313 JUMPI PUSH1 0x20 CALLDATASIZE PUSH1 0x3 NOT ADD SLT PUSH2 0x313 JUMPI DUP2 MLOAD PUSH4 0x2DB25E05 PUSH1 0xE0 SHL DUP2 MSTORE DUP2 CALLDATALOAD DUP2 DUP4 ADD DUP2 SWAP1 MSTORE SWAP2 PUSH2 0x220 SWAP2 PUSH1 0x1 PUSH1 0x1 PUSH1 0xA0 SHL SUB SWAP2 SWAP1 DUP4 DUP2 PUSH1 0x24 DUP2 PUSH32 0x0 DUP8 AND GAS STATICCALL SWAP4 DUP5 ISZERO PUSH2 0xBAB JUMPI DUP8 SWAP5 PUSH2 0xB8C JUMPI JUMPDEST POP POP PUSH2 0x1C0 DUP4 ADD MLOAD PUSH1 0x15 DUP2 LT ISZERO PUSH2 0xB79 JUMPI PUSH1 0x12 SUB PUSH2 0xB3D JUMPI DUP4 DUP7 MSTORE DUP6 PUSH1 0x20 MSTORE DUP5 DUP7 KECCAK256 SWAP1 PUSH1 0x2 DUP3 ADD SWAP1 DUP2 SLOAD SWAP1 PUSH2 0xA84 PUSH1 0xFF DUP4 AND PUSH2 0xF8A JUMP JUMPDEST PUSH1 0xFF DUP3 PUSH1 0x18 SHR AND PUSH2 0xB07 JUMPI POP DUP8 SWAP7 SWAP6 DUP8 SWAP6 DUP7 SWAP6 PUSH2 0x100 PUSH1 0x1 DUP9 SWAP8 DUP9 SWAP8 PUSH4 0x1000000 DUP10 SWAP9 PUSH4 0xFF000000 NOT AND OR SWAP1 SSTORE ADD SWAP3 DUP4 SLOAD SWAP6 DUP7 SWAP5 SSTORE ADD MLOAD AND DUP1 SWAP3 PUSH32 0x80B577B4FC190AB86D963549E29F496AFD079C5D81A2480D61217D4B5060A28C DUP7 DUP1 LOG4 DUP3 DUP3 ISZERO PUSH2 0xAFE JUMPI JUMPDEST CALL ISZERO PUSH2 0xAF4 JUMPI POP DUP1 RETURN JUMPDEST MLOAD SWAP1 RETURNDATASIZE SWAP1 DUP3 RETURNDATACOPY RETURNDATASIZE SWAP1 REVERT JUMPDEST POP PUSH2 0x8FC PUSH2 0xAEA JUMP JUMPDEST PUSH1 0x64 SWAP1 PUSH1 0x20 DUP10 MLOAD SWAP2 PUSH3 0x461BCD PUSH1 0xE5 SHL DUP4 MSTORE DUP3 ADD MSTORE PUSH1 0x10 PUSH1 0x24 DUP3 ADD MSTORE PUSH16 0x105B1C9958591E481C99599D5B991959 PUSH1 0x82 SHL PUSH1 0x44 DUP3 ADD MSTORE REVERT JUMPDEST PUSH1 0x64 SWAP1 PUSH1 0x20 DUP7 MLOAD SWAP2 PUSH3 0x461BCD PUSH1 0xE5 SHL DUP4 MSTORE DUP3 ADD MSTORE PUSH1 0x16 PUSH1 0x24 DUP3 ADD MSTORE PUSH22 0x4E6F7420696E20726576657274656420737461747573 PUSH1 0x50 SHL PUSH1 0x44 DUP3 ADD MSTORE REVERT JUMPDEST PUSH4 0x4E487B71 PUSH1 0xE0 SHL DUP8 MSTORE PUSH1 0x21 DUP3 MSTORE PUSH1 0x24 DUP8 REVERT JUMPDEST PUSH2 0xBA3 SWAP3 SWAP5 POP DUP1 RETURNDATASIZE LT PUSH2 0x2DB JUMPI PUSH2 0x2CC DUP2 DUP4 PUSH2 0xE19 JUMP JUMPDEST SWAP2 CODESIZE DUP1 PUSH2 0xA4D JUMP JUMPDEST DUP7 MLOAD RETURNDATASIZE DUP10 DUP3 RETURNDATACOPY RETURNDATASIZE SWAP1 REVERT JUMPDEST DUP5 DUP5 DUP4 CALLVALUE PUSH2 0x313 JUMPI PUSH1 0x20 CALLDATASIZE PUSH1 0x3 NOT ADD SLT PUSH2 0x313 JUMPI DUP2 MLOAD PUSH4 0x2DB25E05 PUSH1 0xE0 SHL DUP2 MSTORE DUP2 CALLDATALOAD DUP2 DUP4 ADD DUP2 SWAP1 MSTORE PUSH1 0x1 PUSH1 0x1 PUSH1 0xA0 SHL SUB SWAP6 SWAP1 SWAP3 PUSH2 0x220 SWAP3 DUP4 DUP2 PUSH1 0x24 DUP2 PUSH32 0x0 DUP13 AND GAS STATICCALL SWAP4 DUP5 ISZERO PUSH2 0xBAB JUMPI DUP8 SWAP5 PUSH2 0xD37 JUMPI JUMPDEST POP POP PUSH2 0x1C0 DUP4 ADD MLOAD PUSH1 0x15 DUP2 LT ISZERO PUSH2 0xB79 JUMPI PUSH1 0x14 SUB PUSH2 0xCFF JUMPI DUP4 DUP7 MSTORE DUP6 PUSH1 0x20 MSTORE DUP5 DUP7 KECCAK256 SWAP1 PUSH1 0x2 DUP3 ADD SWAP1 DUP2 SLOAD SWAP1 PUSH2 0xC5B PUSH1 0xFF DUP4 AND PUSH2 0xF8A JUMP JUMPDEST PUSH1 0xFF DUP3 PUSH1 0x18 SHR AND PUSH2 0xCC8 JUMPI POP DUP8 SWAP7 SWAP6 DUP8 SWAP6 DUP11 DUP8 SWAP7 PUSH1 0x1 DUP9 SWAP8 DUP9 SWAP8 PUSH4 0x1000000 DUP10 SWAP9 PUSH4 0xFF000000 NOT AND OR SWAP1 SSTORE ADD SWAP3 DUP4 SLOAD SWAP6 DUP7 SWAP5 SSTORE ADD MLOAD AND DUP1 SWAP3 PUSH32 0x32FB06330903205D582DB19821DDCB0E33F74A084F9FD8C2D876719B56100E89 DUP7 DUP1 LOG4 DUP3 DUP3 ISZERO PUSH2 0xAFE JUMPI CALL ISZERO PUSH2 0xAF4 JUMPI POP DUP1 RETURN JUMPDEST PUSH1 0x64 SWAP1 PUSH1 0x20 DUP10 MLOAD SWAP2 PUSH3 0x461BCD PUSH1 0xE5 SHL DUP4 MSTORE DUP3 ADD MSTORE PUSH1 0x11 PUSH1 0x24 DUP3 ADD MSTORE PUSH17 0x105B1C9958591E481C1C9BD8D95CDCD959 PUSH1 0x7A SHL PUSH1 0x44 DUP3 ADD MSTORE REVERT JUMPDEST PUSH1 0x64 SWAP1 PUSH1 0x20 DUP7 MLOAD SWAP2 PUSH3 0x461BCD PUSH1 0xE5 SHL DUP4 MSTORE DUP3 ADD MSTORE PUSH1 0x12 PUSH1 0x24 DUP3 ADD MSTORE PUSH18 0x10DB185A5B481B9BDD08185C1C1C9BDD9959 PUSH1 0x72 SHL PUSH1 0x44 DUP3 ADD MSTORE REVERT JUMPDEST PUSH2 0xD4E SWAP3 SWAP5 POP DUP1 RETURNDATASIZE LT PUSH2 0x2DB JUMPI PUSH2 0x2CC DUP2 DUP4 PUSH2 0xE19 JUMP JUMPDEST SWAP2 DUP8 DUP1 PUSH2 0xC24 JUMP JUMPDEST SWAP4 SWAP3 POP SWAP1 CALLVALUE PUSH2 0x22C JUMPI PUSH1 0x20 CALLDATASIZE PUSH1 0x3 NOT ADD SLT PUSH2 0x22C JUMPI PUSH1 0xFF DUP4 PUSH2 0x100 SWAP7 DUP4 CALLDATALOAD DUP2 MSTORE DUP1 PUSH1 0x20 MSTORE KECCAK256 SWAP2 DUP3 SLOAD SWAP5 PUSH1 0x1 DUP5 ADD SLOAD PUSH1 0x2 DUP6 ADD SLOAD SWAP3 PUSH1 0x3 DUP7 ADD SLOAD SWAP6 ADD SLOAD SWAP7 DUP9 MSTORE PUSH1 0x20 DUP9 ADD MSTORE DUP3 DUP3 AND ISZERO ISZERO SWAP1 DUP8 ADD MSTORE DUP2 DUP2 PUSH1 0x8 SHR AND ISZERO ISZERO PUSH1 0x60 DUP8 ADD MSTORE DUP2 DUP2 PUSH1 0x10 SHR AND ISZERO ISZERO PUSH1 0x80 DUP8 ADD MSTORE PUSH1 0x18 SHR AND ISZERO ISZERO PUSH1 0xA0 DUP6 ADD MSTORE PUSH1 0xC0 DUP5 ADD MSTORE DUP3 ADD MSTORE RETURN JUMPDEST PUSH2 0x100 DUP2 ADD SWAP1 DUP2 LT PUSH8 0xFFFFFFFFFFFFFFFF DUP3 GT OR PUSH2 0xDEF JUMPI PUSH1 0x40 MSTORE JUMP JUMPDEST PUSH4 0x4E487B71 PUSH1 0xE0 SHL PUSH1 0x0 MSTORE PUSH1 0x41 PUSH1 0x4 MSTORE PUSH1 0x24 PUSH1 0x0 REVERT JUMPDEST PUSH8 0xFFFFFFFFFFFFFFFF DUP2 GT PUSH2 0xDEF JUMPI PUSH1 0x40 MSTORE JUMP JUMPDEST SWAP1 PUSH1 0x1F DUP1 NOT SWAP2 ADD AND DUP2 ADD SWAP1 DUP2 LT PUSH8 0xFFFFFFFFFFFFFFFF DUP3 GT OR PUSH2 0xDEF JUMPI PUSH1 0x40 MSTORE JUMP JUMPDEST MLOAD SWAP1 PUSH1 0x1 PUSH1 0x1 PUSH1 0xA0 SHL SUB DUP3 AND DUP3 SUB PUSH2 0xE4F JUMPI JUMP JUMPDEST PUSH1 0x0 DUP1 REVERT JUMPDEST MLOAD SWAP1 DUP2 ISZERO ISZERO DUP3 SUB PUSH2 0xE4F JUMPI JUMP JUMPDEST DUP1 SWAP2 PUSH2 0x220 SWAP3 DUP4 SWAP2 SUB SLT PUSH2 0xE4F JUMPI PUSH1 0x40 MLOAD SWAP2 DUP3 ADD DUP3 DUP2 LT PUSH8 0xFFFFFFFFFFFFFFFF DUP3 GT OR PUSH2 0xDEF JUMPI PUSH1 0x40 MSTORE DUP1 MLOAD DUP3 MSTORE PUSH1 0x20 DUP2 ADD MLOAD PUSH1 0x20 DUP4 ADD MSTORE PUSH1 0x40 DUP2 ADD MLOAD PUSH1 0x40 DUP4 ADD MSTORE PUSH1 0x60 DUP2 ADD MLOAD PUSH1 0x60 DUP4 ADD MSTORE PUSH1 0x80 DUP2 ADD MLOAD PUSH1 0x80 DUP4 ADD MSTORE PUSH1 0xA0 DUP2 ADD MLOAD PUSH1 0xA0 DUP4 ADD MSTORE PUSH2 0xECD PUSH1 0xC0 DUP3 ADD PUSH2 0xE3B JUMP JUMPDEST PUSH1 0xC0 DUP4 ADD MSTORE PUSH2 0xEDE PUSH1 0xE0 DUP3 ADD PUSH2 0xE3B JUMP JUMPDEST PUSH1 0xE0 DUP4 ADD MSTORE PUSH2 0x100 PUSH2 0xEF1 DUP2 DUP4 ADD PUSH2 0xE3B JUMP JUMPDEST SWAP1 DUP4 ADD MSTORE PUSH2 0x120 PUSH2 0xF03 DUP2 DUP4 ADD PUSH2 0xE3B JUMP JUMPDEST SWAP1 DUP4 ADD MSTORE PUSH2 0x140 PUSH2 0xF15 DUP2 DUP4 ADD PUSH2 0xE3B JUMP JUMPDEST SWAP1 DUP4 ADD MSTORE PUSH2 0x160 PUSH2 0xF27 DUP2 DUP4 ADD PUSH2 0xE3B JUMP JUMPDEST SWAP1 DUP4 ADD MSTORE PUSH2 0x180 PUSH2 0xF39 DUP2 DUP4 ADD PUSH2 0xE3B JUMP JUMPDEST SWAP1 DUP4 ADD MSTORE PUSH2 0x1A0 PUSH2 0xF4B DUP2 DUP4 ADD PUSH2 0xE3B JUMP JUMPDEST SWAP1 DUP4 ADD MSTORE PUSH2 0x1C0 DUP1 DUP3 ADD MLOAD SWAP1 PUSH1 0x15 DUP3 LT ISZERO PUSH2 0xE4F JUMPI DUP4 ADD MSTORE PUSH2 0x1E0 PUSH2 0xF71 DUP2 DUP4 ADD PUSH2 0xE54 JUMP JUMPDEST SWAP1 DUP4 ADD MSTORE PUSH2 0xF83 PUSH2 0x200 DUP1 SWAP3 ADD PUSH2 0xE54 JUMP JUMPDEST SWAP1 DUP3 ADD MSTORE SWAP1 JUMP JUMPDEST ISZERO PUSH2 0xF91 JUMPI JUMP JUMPDEST PUSH1 0x40 MLOAD PUSH3 0x461BCD PUSH1 0xE5 SHL DUP2 MSTORE PUSH1 0x20 PUSH1 0x4 DUP3 ADD MSTORE PUSH1 0xF PUSH1 0x24 DUP3 ADD MSTORE PUSH15 0x139BC8199D5B991CC81B1BD8DAD959 PUSH1 0x8A SHL PUSH1 0x44 DUP3 ADD MSTORE PUSH1 0x64 SWAP1 REVERT JUMPDEST ISZERO PUSH2 0xFCF JUMPI JUMP JUMPDEST PUSH1 0x40 MLOAD PUSH3 0x461BCD PUSH1 0xE5 SHL DUP2 MSTORE PUSH1 0x20 PUSH1 0x4 DUP3 ADD MSTORE PUSH1 0x21 PUSH1 0x24 DUP3 ADD MSTORE PUSH32 0x4F6E6C792069737375696E672062616E6B2028696D706F727465722062616E6B PUSH1 0x44 DUP3 ADD MSTORE PUSH1 0x29 PUSH1 0xF8 SHL PUSH1 0x64 DUP3 ADD MSTORE PUSH1 0x84 SWAP1 REVERT INVALID LOG2 PUSH5 0x6970667358 0x22 SLT KECCAK256 PUSH23 0x925DEBE6F0FD862CB0BE54EA86237F5A6E64F786C90ED SWAP7 PUSH20 0xD3CB10F4BDFA64736F6C63430008180033000000 "},"methodIdentifiers":{"authorizePayment(uint256)":"81a03133","confirmSettlement(uint256)":"9e924eb5","depositEscrow(uint256)":"cb991efe","getSettlement(uint256)":"4c582380","payoutInsurance(uint256)":"0c842ad3","refundImporter(uint256)":"3ecfd08d","settlements(uint256)":"08df7dc8","tradeRegistry()":"dbd97308"}}}}}