{"contracts/ConsensusDispute.sol":{"ConsensusDispute":{"abi":[{"inputs":[{"internalType":"address","name":"_tradeRegistry","type":"address"}],"stateMutability":"nonpayable","type":"constructor"},{"anonymous":false,"inputs":[{"indexed":true,"internalType":"uint256","name":"tradeId","type":"uint256"},{"indexed":true,"internalType":"uint256","name":"votingDeadline","type":"uint256"},{"indexed":true,"internalType":"address","name":"activatedBy","type":"address"}],"name":"DisputeActivated","type":"event"},{"anonymous":false,"inputs":[{"indexed":true,"internalType":"uint256","name":"tradeId","type":"uint256"},{"indexed":false,"internalType":"bool","name":"decision","type":"bool"},{"indexed":false,"internalType":"enum ConsensusDispute.CargoStatus","name":"cargoStatus","type":"uint8"}],"name":"InspectorDecisionSubmitted","type":"event"},{"anonymous":false,"inputs":[{"indexed":true,"internalType":"uint256","name":"tradeId","type":"uint256"}],"name":"SLABreachTriggered","type":"event"},{"anonymous":false,"inputs":[{"indexed":true,"internalType":"uint256","name":"tradeId","type":"uint256"},{"indexed":true,"internalType":"address","name":"voter","type":"address"},{"indexed":false,"internalType":"enum ConsensusDispute.Vote","name":"vote","type":"uint8"}],"name":"VoteCast","type":"event"},{"anonymous":false,"inputs":[{"indexed":true,"internalType":"uint256","name":"tradeId","type":"uint256"},{"indexed":false,"internalType":"uint256","name":"revertVotes","type":"uint256"},{"indexed":false,"internalType":"uint256","name":"noRevertVotes","type":"uint256"},{"indexed":false,"internalType":"enum TradeRegistry.TradeStatus","name":"outcome","type":"uint8"}],"name":"VotingFinalized","type":"event"},{"inputs":[],"name":"VOTE_THRESHOLD","outputs":[{"internalType":"uint256","name":"","type":"uint256"}],"stateMutability":"view","type":"function"},{"inputs":[],"name":"VOTING_DURATION","outputs":[{"internalType":"uint256","name":"","type":"uint256"}],"stateMutability":"view","type":"function"},{"inputs":[{"internalType":"uint256","name":"_tradeId","type":"uint256"},{"internalType":"string","name":"_evidenceIpfsHash","type":"string"}],"name":"activateVoting","outputs":[],"stateMutability":"nonpayable","type":"function"},{"inputs":[{"internalType":"uint256","name":"_tradeId","type":"uint256"},{"internalType":"enum ConsensusDispute.Vote","name":"_vote","type":"uint8"}],"name":"castVote","outputs":[],"stateMutability":"nonpayable","type":"function"},{"inputs":[{"internalType":"uint256","name":"","type":"uint256"}],"name":"disputes","outputs":[{"internalType":"uint256","name":"tradeId","type":"uint256"},{"internalType":"string","name":"evidenceIpfsHash","type":"string"},{"internalType":"bool","name":"active","type":"bool"},{"internalType":"bool","name":"finalized","type":"bool"},{"internalType":"uint256","name":"votingDeadline","type":"uint256"},{"internalType":"uint256","name":"totalRevertVotes","type":"uint256"},{"internalType":"uint256","name":"totalNoRevertVotes","type":"uint256"},{"internalType":"uint256","name":"totalVotesCast","type":"uint256"}],"stateMutability":"view","type":"function"},{"inputs":[{"internalType":"uint256","name":"_tradeId","type":"uint256"}],"name":"finalizeVoting","outputs":[],"stateMutability":"nonpayable","type":"function"},{"inputs":[{"internalType":"uint256","name":"_tradeId","type":"uint256"}],"name":"getInspectorDecision","outputs":[{"internalType":"bool","name":"submitted","type":"bool"},{"internalType":"bool","name":"decision","type":"bool"},{"internalType":"enum ConsensusDispute.CargoStatus","name":"cargoStatus","type":"uint8"},{"internalType":"string","name":"notes","type":"string"}],"stateMutability":"view","type":"function"},{"inputs":[{"internalType":"uint256","name":"_tradeId","type":"uint256"}],"name":"getVotingSummary","outputs":[{"internalType":"bool","name":"active","type":"bool"},{"internalType":"bool","name":"finalized","type":"bool"},{"internalType":"uint256","name":"votingDeadline","type":"uint256"},{"internalType":"uint256","name":"revertVotes","type":"uint256"},{"internalType":"uint256","name":"noRevertVotes","type":"uint256"},{"internalType":"uint256","name":"totalVotesCast","type":"uint256"}],"stateMutability":"view","type":"function"},{"inputs":[{"internalType":"uint256","name":"","type":"uint256"}],"name":"inspectorDecisions","outputs":[{"internalType":"bool","name":"submitted","type":"bool"},{"internalType":"bool","name":"decision","type":"bool"},{"internalType":"enum ConsensusDispute.CargoStatus","name":"cargoStatus","type":"uint8"},{"internalType":"string","name":"notes","type":"string"}],"stateMutability":"view","type":"function"},{"inputs":[{"internalType":"uint256","name":"_tradeId","type":"uint256"},{"internalType":"bool","name":"_decision","type":"bool"},{"internalType":"enum ConsensusDispute.CargoStatus","name":"_cargoStatus","type":"uint8"},{"internalType":"string","name":"_notes","type":"string"}],"name":"submitInspectorDecision","outputs":[],"stateMutability":"nonpayable","type":"function"},{"inputs":[],"name":"tradeRegistry","outputs":[{"internalType":"contract TradeRegistry","name":"","type":"address"}],"stateMutability":"view","type":"function"},{"inputs":[{"internalType":"uint256","name":"_tradeId","type":"uint256"}],"name":"triggerVotingSLABreach","outputs":[],"stateMutability":"nonpayable","type":"function"}],"evm":{"bytecode":{"linkReferences":{},"object":"60a03461008757601f61158d38819003918201601f19168301916001600160401b0383118484101761008c5780849260209460405283398101031261008757516001600160a01b03811690819003610087576080526040516114ea90816100a3823960805181818160ba015281816101420152818161078c01528181610af001526113bd0152f35b600080fd5b634e487b7160e01b600052604160045260246000fdfe6040608081526004908136101561001557600080fd5b600091823560e01c9081631cf9f47d146105c657816329046cc514610ece5781634944483114610e41578163564a565d14610da85781635678138814610a4b5781635f9a71fe14610711578163a0ef4d0e146106f4578163a438d208146106d6578163aefa8eaa14610617578163b92b23a3146105c6578163cdbceb25146100ed575063dbd97308146100a757600080fd5b346100e957816003193601126100e957517f00000000000000000000000000000000000000000000000000000000000000006001600160a01b03168152602090f35b5080fd5b90503461031a578160031936011261031a5780359160249081359267ffffffffffffffff9384811161034e5761012690369083016110f3565b8351632db25e0560e01b81528381018890526001600160a01b037f0000000000000000000000000000000000000000000000000000000000000000811694939291610220919082818a818a5afa9283156105bc578c9361058d575b50506101c0820151601581101561057b57600a0361052a57908a918a835260ff600289602095808752200154166104f0578060c08301511633149182156104df575b82156104cd575b82156104bb575b82156104a9575b8215610497575b8215610485575b505015610444576201518042019788421161043257898b528a8252868b20928a8455600192838501928211610420579082918d6102268d97969554610fc8565b90601f82116103c6575b80915091601f841160011461035d5750906003969783610352575b505060001982871b1c191690831b1790555b600282019060ff198254161790550155813b1561034e578251633a1b3d3160e01b8152818101879052600b85820152878160448183875af180156103445761032b575b509086939291813b156103275760448791868094898751988996879563eaf4c3bb60e01b87528601528401525af190811561031e5750610306575b505033917f2dbd83ca5c9bb71f73c65204e8361ca7d41fb2fde537130e903e03d69177edc48480a480f35b61030f90611002565b61031a5782386102db565b8280fd5b513d84823e3d90fd5b8480fd5b61033a90979194939297611002565b95909192386102a0565b84513d8a823e3d90fd5b8680fd5b01359050388061024b565b84825280822093989291601f198a16915b8282106103ac57505091859391896003999a9410610394575b505050811b01905561025d565b013560001983891b60f8161c19169055388080610387565b8484013586558f995094870194928301929081019061036e565b8483949596979850819392935220601f840160051c810191838510610416575b8f9091601f8f999897969594930160051c0191905b828210610409579050610230565b81558d975085018f6103fb565b90915081906103e6565b634e487b7160e01b8d5260418752898dfd5b634e487b7160e01b8b5260118552878bfd5b8360178860649389519362461bcd60e51b85528401528201527f4e6f742061207472616465207061727469636970616e740000000000000000006044820152fd5b610120919250015116331438806101e6565b915080610100830151163314916101df565b9150806101a0830151163314916101d8565b915080610180830151163314916101d1565b915080610160830151163314916101ca565b91508060e0830151163314916101c3565b875162461bcd60e51b81528087018490526015818b015274566f74696e6720616c72656164792061637469766560581b6044820152606490fd5b865162461bcd60e51b81526020818701526026818a01527f5472616465206d75737420626520696e20454e5452595f52454a45435445442060448201526573746174757360d01b6064820152608490fd5b634e487b7160e01b8c5260218652888cfd5b6105ad929350803d106105b5575b6105a5818361102c565b810190611213565b903880610181565b503d61059b565b88513d8e823e3d90fd5b90503461031a57602036600319011261031a579181923581526001602052206106136105f660018354930161104e565b9251928260ff859460101c169060ff808260081c16911685610f95565b0390f35b90503461031a57602036600319011261031a5780359182845283602052600381852061065860ff600283015461064e828216611126565b60081c1615611166565b0154421115610693578361069084807ffec6c4317fb3ca3b10e4c4fb07a703400312db0d97a77b485bf5815bb95ce53a8480a261136e565b80f35b906020606492519162461bcd60e51b8352820152601c60248201527f566f74696e6720646561646c696e65206e6f74206272656163686564000000006044820152fd5b5050346100e957816003193601126100e95760209051620151808152f35b9190503461031a578260031936011261031a576020925051908152f35b8383346100e95760803660031901126100e957823590602480359081151580920361032757604435906003821015610a475767ffffffffffffffff606435818111610a43576107639036908a016110f3565b8651632db25e0560e01b8152808b01899052909991906001600160a01b039061022090818188817f000000000000000000000000000000000000000000000000000000000000000087165afa918215610a39579061016092918d92610a1c575b505001511633036109e9578789526020938985526107f860ff60028a8d2001546107ee828216611126565b60081c16156111a6565b888a52600192838652888b20805460ff811661099c579085809261081b8b610f35565b62ff00008b60101b169062ffffff191661ff008d60081b16171717815501948c1161098b57505061084c8354610fc8565b601f8111610945575b508890601f8b116001146108c55799809281928b9c7f8814a2bc92aacb0c56f32882f151c2de15311c26abd002c40cb3aace6751c4139b9c946108ba575b50501b916000199060031b1c19161790555b83519283526108b382610f35565b820152a280f35b013592508c80610893565b9990601f1982169a848b52858b20918b5b8d81106109305750837f8814a2bc92aacb0c56f32882f151c2de15311c26abd002c40cb3aace6751c4139b9c9d10610916575b505050811b0190556108a5565b0135600019600384901b60f8161c191690558a8080610909565b828201358455928501929087019087016108d6565b838a52848a20601f8c0160051c810191868d10610981575b601f0160051c019083905b828110610976575050610855565b8b8155018390610968565b909150819061095d565b634e487b7160e01b8b526041905289fd5b608483858a8e519262461bcd60e51b8452830152808201527f496e73706563746f72206465636973696f6e20616c7265616479207375626d696044820152631d1d195960e21b6064820152fd5b865162461bcd60e51b8152602081840152600e818601526d27b7363c9024b739b832b1ba37b960911b6044820152606490fd5b610a329250803d106105b5576105a5818361102c565b8d806107c3565b8a513d8e823e3d90fd5b8780fd5b8580fd5b9190503461031a578060031936011261031a5781359160249182356003811015610a4757848652602086815282872092610a9060ff60028601546107ee828216611126565b60038401544211610d52576007840133895280835260ff828a205416610d2057610ab984610f35565b6001841496878015610d0d575b15610cdd578251632db25e0560e01b81528781018a9052610220906001600160a01b0390828185817f000000000000000000000000000000000000000000000000000000000000000086165afa928315610cd3578d93610cb4575b50508060c0830151163314918215610ca3575b8215610c91575b8215610c7f575b8215610c6d575b8215610c5b575b8215610c49575b505015610c1457508594939288927feba4866100b822f0f391e610e7edfab790b9e8766c0012733c26b2f1858e8dd792338c528252808b20600160ff198254161790556006860198610ba98a5461133c565b8a55610bb486610f35565b15610bff57868601610bc6815461133c565b90555b5193610bd481610f35565b84523393a3015410610bea57506106909061136e565b54600714610bf6575080f35b6106909061136e565b60058601610c0d815461133c565b9055610bc9565b8660116064928686519362461bcd60e51b8552840152820152704e6f74206120766f74696e67206e6f646560781b6044820152fd5b61012091925001511633143880610b57565b91508061010083015116331491610b50565b9150806101a083015116331491610b49565b91508061018083015116331491610b42565b91508061016083015116331491610b3b565b91508060e083015116331491610b34565b610ccb929350803d106105b5576105a5818361102c565b903880610b21565b86513d8f823e3d90fd5b86600c6064928686519362461bcd60e51b85528401528201526b496e76616c696420766f746560a01b6044820152fd5b50610d1785610f35565b60028514610ac6565b815162461bcd60e51b8152808701849052600d818901526c105b1c9958591e481d9bdd1959609a1b6044820152606490fd5b5162461bcd60e51b815280850191909152602b818601527f566f74696e6720706572696f642065787069726564202d2063616c6c2066696e60448201526a616c697a65566f74696e6760a81b6064820152608490fd5b90508234610e3e576020366003190112610e3e57829082358152806020522091825491610dd76001850161104e565b936002810154916003820154908201549060ff6006600585015494015494610e118751998a99610100908b528060208c01528a0190610f55565b9682821615159089015260081c1615156060870152608086015260a085015260c084015260e08301520390f35b80fd5b90503461031a57602036600319011261031a57803591828452836020526003818520610e7860ff600283015461064e828216611126565b0154421115610e8b57836106908461136e565b906020606492519162461bcd60e51b8352820152601d60248201527f566f74696e6720706572696f64206e6f742079657420657870697265640000006044820152fd5b9190503461031a57602036600319011261031a578060c09383358152806020522060028101549260038201549082015490600660058401549301549360ff8151968181161515885260081c16151560208701528501526060840152608083015260a0820152f35b60031115610f3f57565b634e487b7160e01b600052602160045260246000fd5b919082519283825260005b848110610f81575050826000602080949584010152601f8019910116010190565b602081830181015184830182015201610f60565b9092608092610fc595941515835215156020830152610fb381610f35565b60408201528160608201520190610f55565b90565b90600182811c92168015610ff8575b6020831014610fe257565b634e487b7160e01b600052602260045260246000fd5b91607f1691610fd7565b67ffffffffffffffff811161101657604052565b634e487b7160e01b600052604160045260246000fd5b90601f8019910116810190811067ffffffffffffffff82111761101657604052565b9060405191826000825461106181610fc8565b908184526020946001916001811690816000146110d15750600114611092575b5050506110909250038361102c565b565b600090815285812095935091905b8183106110b95750506110909350820101388080611081565b855488840185015294850194879450918301916110a0565b9250505061109094925060ff191682840152151560051b820101388080611081565b9181601f840112156111215782359167ffffffffffffffff8311611121576020838186019501011161112157565b600080fd5b1561112d57565b60405162461bcd60e51b81526020600482015260116024820152704e6f20616374697665206469737075746560781b6044820152606490fd5b1561116d57565b60405162461bcd60e51b8152602060048201526011602482015270105b1c9958591e48199a5b985b1a5e9959607a1b6044820152606490fd5b156111ad57565b60405162461bcd60e51b815260206004820152601860248201527f566f74696e6720616c72656164792066696e616c697a656400000000000000006044820152606490fd5b51906001600160a01b038216820361112157565b5190811515820361112157565b809161022092839103126111215760405191820182811067ffffffffffffffff82111761101657604052805182526020810151602083015260408101516040830152606081015160608301526080810151608083015260a081015160a083015261127f60c082016111f2565b60c083015261129060e082016111f2565b60e08301526101006112a38183016111f2565b908301526101206112b58183016111f2565b908301526101406112c78183016111f2565b908301526101606112d98183016111f2565b908301526101806112eb8183016111f2565b908301526101a06112fd8183016111f2565b908301526101c080820151906015821015611121578301526101e0611323818301611206565b90830152611335610200809201611206565b9082015290565b600019811461134b5760010190565b634e487b7160e01b600052601160045260246000fd5b906015821015610f3f5752565b600081815280602052604090818120916002830161010061ffff1982541617905560016020528082205460ff8116908161149a575b50600484019060048254101560001461148557506012925b7f00000000000000000000000000000000000000000000000000000000000000006001600160a01b0316803b156100e9578180916044865180958193633a1b3d3160e01b83528c6004840152611414602484018c611361565b5af190811561147a575092600561146893606096937f610b72da639bf7d46039976ca9e5779bc1c162f91b825ebb2a720ebda7cdd67e989661146b575b505494015481519485526020850152830190611361565ba2565b61147490611002565b38611451565b8451903d90823e3d90fd5b15611492576014926113bb565b6013926113bb565b6001915060101c60ff166114ad81610f35565b14386113a356fea2646970667358221220c486f43be5bee9fe5f31e16a1b8a0f87e2d593506db81be5b613be4573825b7c64736f6c63430008180033","opcodes":"PUSH1 0xA0 CALLVALUE PUSH2 0x87 JUMPI PUSH1 0x1F PUSH2 0x158D CODESIZE DUP2 SWAP1 SUB SWAP2 DUP3 ADD PUSH1 0x1F NOT AND DUP4 ADD SWAP2 PUSH1 0x1 PUSH1 0x1 PUSH1 0x40 SHL SUB DUP4 GT DUP5 DUP5 LT OR PUSH2 0x8C JUMPI DUP1 DUP5 SWAP3 PUSH1 0x20 SWAP5 PUSH1 0x40 MSTORE DUP4 CODECOPY DUP2 ADD SUB SLT PUSH2 0x87 JUMPI MLOAD PUSH1 0x1 PUSH1 0x1 PUSH1 0xA0 SHL SUB DUP2 AND SWAP1 DUP2 SWAP1 SUB PUSH2 0x87 JUMPI PUSH1 0x80 MSTORE PUSH1 0x40 MLOAD PUSH2 0x14EA SWAP1 DUP2 PUSH2 0xA3 DUP3 CODECOPY PUSH1 0x80 MLOAD DUP2 DUP2 DUP2 PUSH1 0xBA ADD MSTORE DUP2 DUP2 PUSH2 0x142 ADD MSTORE DUP2 DUP2 PUSH2 0x78C ADD MSTORE DUP2 DUP2 PUSH2 0xAF0 ADD MSTORE PUSH2 0x13BD ADD MSTORE RETURN JUMPDEST PUSH1 0x0 DUP1 REVERT JUMPDEST PUSH4 0x4E487B71 PUSH1 0xE0 SHL PUSH1 0x0 MSTORE PUSH1 0x41 PUSH1 0x4 MSTORE PUSH1 0x24 PUSH1 0x0 REVERT INVALID PUSH1 0x40 PUSH1 0x80 DUP2 MSTORE PUSH1 0x4 SWAP1 DUP2 CALLDATASIZE LT ISZERO PUSH2 0x15 JUMPI PUSH1 0x0 DUP1 REVERT JUMPDEST PUSH1 0x0 SWAP2 DUP3 CALLDATALOAD PUSH1 0xE0 SHR SWAP1 DUP2 PUSH4 0x1CF9F47D EQ PUSH2 0x5C6 JUMPI DUP2 PUSH4 0x29046CC5 EQ PUSH2 0xECE JUMPI DUP2 PUSH4 0x49444831 EQ PUSH2 0xE41 JUMPI DUP2 PUSH4 0x564A565D EQ PUSH2 0xDA8 JUMPI DUP2 PUSH4 0x56781388 EQ PUSH2 0xA4B JUMPI DUP2 PUSH4 0x5F9A71FE EQ PUSH2 0x711 JUMPI DUP2 PUSH4 0xA0EF4D0E EQ PUSH2 0x6F4 JUMPI DUP2 PUSH4 0xA438D208 EQ PUSH2 0x6D6 JUMPI DUP2 PUSH4 0xAEFA8EAA EQ PUSH2 0x617 JUMPI DUP2 PUSH4 0xB92B23A3 EQ PUSH2 0x5C6 JUMPI DUP2 PUSH4 0xCDBCEB25 EQ PUSH2 0xED JUMPI POP PUSH4 0xDBD97308 EQ PUSH2 0xA7 JUMPI PUSH1 0x0 DUP1 REVERT JUMPDEST CALLVALUE PUSH2 0xE9 JUMPI DUP2 PUSH1 0x3 NOT CALLDATASIZE ADD SLT PUSH2 0xE9 JUMPI MLOAD PUSH32 0x0 PUSH1 0x1 PUSH1 0x1 PUSH1 0xA0 SHL SUB AND DUP2 MSTORE PUSH1 0x20 SWAP1 RETURN JUMPDEST POP DUP1 REVERT JUMPDEST SWAP1 POP CALLVALUE PUSH2 0x31A JUMPI DUP2 PUSH1 0x3 NOT CALLDATASIZE ADD SLT PUSH2 0x31A JUMPI DUP1 CALLDATALOAD SWAP2 PUSH1 0x24 SWAP1 DUP2 CALLDATALOAD SWAP3 PUSH8 0xFFFFFFFFFFFFFFFF SWAP4 DUP5 DUP2 GT PUSH2 0x34E JUMPI PUSH2 0x126 SWAP1 CALLDATASIZE SWAP1 DUP4 ADD PUSH2 0x10F3 JUMP JUMPDEST DUP4 MLOAD PUSH4 0x2DB25E05 PUSH1 0xE0 SHL DUP2 MSTORE DUP4 DUP2 ADD DUP9 SWAP1 MSTORE PUSH1 0x1 PUSH1 0x1 PUSH1 0xA0 SHL SUB PUSH32 0x0 DUP2 AND SWAP5 SWAP4 SWAP3 SWAP2 PUSH2 0x220 SWAP2 SWAP1 DUP3 DUP2 DUP11 DUP2 DUP11 GAS STATICCALL SWAP3 DUP4 ISZERO PUSH2 0x5BC JUMPI DUP13 SWAP4 PUSH2 0x58D JUMPI JUMPDEST POP POP PUSH2 0x1C0 DUP3 ADD MLOAD PUSH1 0x15 DUP2 LT ISZERO PUSH2 0x57B JUMPI PUSH1 0xA SUB PUSH2 0x52A JUMPI SWAP1 DUP11 SWAP2 DUP11 DUP4 MSTORE PUSH1 0xFF PUSH1 0x2 DUP10 PUSH1 0x20 SWAP6 DUP1 DUP8 MSTORE KECCAK256 ADD SLOAD AND PUSH2 0x4F0 JUMPI DUP1 PUSH1 0xC0 DUP4 ADD MLOAD AND CALLER EQ SWAP2 DUP3 ISZERO PUSH2 0x4DF JUMPI JUMPDEST DUP3 ISZERO PUSH2 0x4CD JUMPI JUMPDEST DUP3 ISZERO PUSH2 0x4BB JUMPI JUMPDEST DUP3 ISZERO PUSH2 0x4A9 JUMPI JUMPDEST DUP3 ISZERO PUSH2 0x497 JUMPI JUMPDEST DUP3 ISZERO PUSH2 0x485 JUMPI JUMPDEST POP POP ISZERO PUSH2 0x444 JUMPI PUSH3 0x15180 TIMESTAMP ADD SWAP8 DUP9 TIMESTAMP GT PUSH2 0x432 JUMPI DUP10 DUP12 MSTORE DUP11 DUP3 MSTORE DUP7 DUP12 KECCAK256 SWAP3 DUP11 DUP5 SSTORE PUSH1 0x1 SWAP3 DUP4 DUP6 ADD SWAP3 DUP3 GT PUSH2 0x420 JUMPI SWAP1 DUP3 SWAP2 DUP14 PUSH2 0x226 DUP14 SWAP8 SWAP7 SWAP6 SLOAD PUSH2 0xFC8 JUMP JUMPDEST SWAP1 PUSH1 0x1F DUP3 GT PUSH2 0x3C6 JUMPI JUMPDEST DUP1 SWAP2 POP SWAP2 PUSH1 0x1F DUP5 GT PUSH1 0x1 EQ PUSH2 0x35D JUMPI POP SWAP1 PUSH1 0x3 SWAP7 SWAP8 DUP4 PUSH2 0x352 JUMPI JUMPDEST POP POP PUSH1 0x0 NOT DUP3 DUP8 SHL SHR NOT AND SWAP1 DUP4 SHL OR SWAP1 SSTORE JUMPDEST PUSH1 0x2 DUP3 ADD SWAP1 PUSH1 0xFF NOT DUP3 SLOAD AND OR SWAP1 SSTORE ADD SSTORE DUP2 EXTCODESIZE ISZERO PUSH2 0x34E JUMPI DUP3 MLOAD PUSH4 0x3A1B3D31 PUSH1 0xE0 SHL DUP2 MSTORE DUP2 DUP2 ADD DUP8 SWAP1 MSTORE PUSH1 0xB DUP6 DUP3 ADD MSTORE DUP8 DUP2 PUSH1 0x44 DUP2 DUP4 DUP8 GAS CALL DUP1 ISZERO PUSH2 0x344 JUMPI PUSH2 0x32B JUMPI JUMPDEST POP SWAP1 DUP7 SWAP4 SWAP3 SWAP2 DUP2 EXTCODESIZE ISZERO PUSH2 0x327 JUMPI PUSH1 0x44 DUP8 SWAP2 DUP7 DUP1 SWAP5 DUP10 DUP8 MLOAD SWAP9 DUP10 SWAP7 DUP8 SWAP6 PUSH4 0xEAF4C3BB PUSH1 0xE0 SHL DUP8 MSTORE DUP7 ADD MSTORE DUP5 ADD MSTORE GAS CALL SWAP1 DUP2 ISZERO PUSH2 0x31E JUMPI POP PUSH2 0x306 JUMPI JUMPDEST POP POP CALLER SWAP2 PUSH32 0x2DBD83CA5C9BB71F73C65204E8361CA7D41FB2FDE537130E903E03D69177EDC4 DUP5 DUP1 LOG4 DUP1 RETURN JUMPDEST PUSH2 0x30F SWAP1 PUSH2 0x1002 JUMP JUMPDEST PUSH2 0x31A JUMPI DUP3 CODESIZE PUSH2 0x2DB JUMP JUMPDEST DUP3 DUP1 REVERT JUMPDEST MLOAD RETURNDATASIZE DUP5 DUP3 RETURNDATACOPY RETURNDATASIZE SWAP1 REVERT JUMPDEST DUP5 DUP1 REVERT JUMPDEST PUSH2 0x33A SWAP1 SWAP8 SWAP2 SWAP5 SWAP4 SWAP3 SWAP8 PUSH2 0x1002 JUMP JUMPDEST SWAP6 SWAP1 SWAP2 SWAP3 CODESIZE PUSH2 0x2A0 JUMP JUMPDEST DUP5 MLOAD RETURNDATASIZE DUP11 DUP3 RETURNDATACOPY RETURNDATASIZE SWAP1 REVERT JUMPDEST DUP7 DUP1 REVERT JUMPDEST ADD CALLDATALOAD SWAP1 POP CODESIZE DUP1 PUSH2 0x24B JUMP JUMPDEST DUP5 DUP3 MSTORE DUP1 DUP3 KECCAK256 SWAP4 SWAP9 SWAP3 SWAP2 PUSH1 0x1F NOT DUP11 AND SWAP2 JUMPDEST DUP3 DUP3 LT PUSH2 0x3AC JUMPI POP POP SWAP2 DUP6 SWAP4 SWAP2 DUP10 PUSH1 0x3 SWAP10 SWAP11 SWAP5 LT PUSH2 0x394 JUMPI JUMPDEST POP POP POP DUP2 SHL ADD SWAP1 SSTORE PUSH2 0x25D JUMP JUMPDEST ADD CALLDATALOAD PUSH1 0x0 NOT DUP4 DUP10 SHL PUSH1 0xF8 AND SHR NOT AND SWAP1 SSTORE CODESIZE DUP1 DUP1 PUSH2 0x387 JUMP JUMPDEST DUP5 DUP5 ADD CALLDATALOAD DUP7 SSTORE DUP16 SWAP10 POP SWAP5 DUP8 ADD SWAP5 SWAP3 DUP4 ADD SWAP3 SWAP1 DUP2 ADD SWAP1 PUSH2 0x36E JUMP JUMPDEST DUP5 DUP4 SWAP5 SWAP6 SWAP7 SWAP8 SWAP9 POP DUP2 SWAP4 SWAP3 SWAP4 MSTORE KECCAK256 PUSH1 0x1F DUP5 ADD PUSH1 0x5 SHR DUP2 ADD SWAP2 DUP4 DUP6 LT PUSH2 0x416 JUMPI JUMPDEST DUP16 SWAP1 SWAP2 PUSH1 0x1F DUP16 SWAP10 SWAP9 SWAP8 SWAP7 SWAP6 SWAP5 SWAP4 ADD PUSH1 0x5 SHR ADD SWAP2 SWAP1 JUMPDEST DUP3 DUP3 LT PUSH2 0x409 JUMPI SWAP1 POP PUSH2 0x230 JUMP JUMPDEST DUP2 SSTORE DUP14 SWAP8 POP DUP6 ADD DUP16 PUSH2 0x3FB JUMP JUMPDEST SWAP1 SWAP2 POP DUP2 SWAP1 PUSH2 0x3E6 JUMP JUMPDEST PUSH4 0x4E487B71 PUSH1 0xE0 SHL DUP14 MSTORE PUSH1 0x41 DUP8 MSTORE DUP10 DUP14 REVERT JUMPDEST PUSH4 0x4E487B71 PUSH1 0xE0 SHL DUP12 MSTORE PUSH1 0x11 DUP6 MSTORE DUP8 DUP12 REVERT JUMPDEST DUP4 PUSH1 0x17 DUP9 PUSH1 0x64 SWAP4 DUP10 MLOAD SWAP4 PUSH3 0x461BCD PUSH1 0xE5 SHL DUP6 MSTORE DUP5 ADD MSTORE DUP3 ADD MSTORE PUSH32 0x4E6F742061207472616465207061727469636970616E74000000000000000000 PUSH1 0x44 DUP3 ADD MSTORE REVERT JUMPDEST PUSH2 0x120 SWAP2 SWAP3 POP ADD MLOAD AND CALLER EQ CODESIZE DUP1 PUSH2 0x1E6 JUMP JUMPDEST SWAP2 POP DUP1 PUSH2 0x100 DUP4 ADD MLOAD AND CALLER EQ SWAP2 PUSH2 0x1DF JUMP JUMPDEST SWAP2 POP DUP1 PUSH2 0x1A0 DUP4 ADD MLOAD AND CALLER EQ SWAP2 PUSH2 0x1D8 JUMP JUMPDEST SWAP2 POP DUP1 PUSH2 0x180 DUP4 ADD MLOAD AND CALLER EQ SWAP2 PUSH2 0x1D1 JUMP JUMPDEST SWAP2 POP DUP1 PUSH2 0x160 DUP4 ADD MLOAD AND CALLER EQ SWAP2 PUSH2 0x1CA JUMP JUMPDEST SWAP2 POP DUP1 PUSH1 0xE0 DUP4 ADD MLOAD AND CALLER EQ SWAP2 PUSH2 0x1C3 JUMP JUMPDEST DUP8 MLOAD PUSH3 0x461BCD PUSH1 0xE5 SHL DUP2 MSTORE DUP1 DUP8 ADD DUP5 SWAP1 MSTORE PUSH1 0x15 DUP2 DUP12 ADD MSTORE PUSH21 0x566F74696E6720616C726561647920616374697665 PUSH1 0x58 SHL PUSH1 0x44 DUP3 ADD MSTORE PUSH1 0x64 SWAP1 REVERT JUMPDEST DUP7 MLOAD PUSH3 0x461BCD PUSH1 0xE5 SHL DUP2 MSTORE PUSH1 0x20 DUP2 DUP8 ADD MSTORE PUSH1 0x26 DUP2 DUP11 ADD MSTORE PUSH32 0x5472616465206D75737420626520696E20454E5452595F52454A454354454420 PUSH1 0x44 DUP3 ADD MSTORE PUSH6 0x737461747573 PUSH1 0xD0 SHL PUSH1 0x64 DUP3 ADD MSTORE PUSH1 0x84 SWAP1 REVERT JUMPDEST PUSH4 0x4E487B71 PUSH1 0xE0 SHL DUP13 MSTORE PUSH1 0x21 DUP7 MSTORE DUP9 DUP13 REVERT JUMPDEST PUSH2 0x5AD SWAP3 SWAP4 POP DUP1 RETURNDATASIZE LT PUSH2 0x5B5 JUMPI JUMPDEST PUSH2 0x5A5 DUP2 DUP4 PUSH2 0x102C JUMP JUMPDEST DUP2 ADD SWAP1 PUSH2 0x1213 JUMP JUMPDEST SWAP1 CODESIZE DUP1 PUSH2 0x181 JUMP JUMPDEST POP RETURNDATASIZE PUSH2 0x59B JUMP JUMPDEST DUP9 MLOAD RETURNDATASIZE DUP15 DUP3 RETURNDATACOPY RETURNDATASIZE SWAP1 REVERT JUMPDEST SWAP1 POP CALLVALUE PUSH2 0x31A JUMPI PUSH1 0x20 CALLDATASIZE PUSH1 0x3 NOT ADD SLT PUSH2 0x31A JUMPI SWAP2 DUP2 SWAP3 CALLDATALOAD DUP2 MSTORE PUSH1 0x1 PUSH1 0x20 MSTORE KECCAK256 PUSH2 0x613 PUSH2 0x5F6 PUSH1 0x1 DUP4 SLOAD SWAP4 ADD PUSH2 0x104E JUMP JUMPDEST SWAP3 MLOAD SWAP3 DUP3 PUSH1 0xFF DUP6 SWAP5 PUSH1 0x10 SHR AND SWAP1 PUSH1 0xFF DUP1 DUP3 PUSH1 0x8 SHR AND SWAP2 AND DUP6 PUSH2 0xF95 JUMP JUMPDEST SUB SWAP1 RETURN JUMPDEST SWAP1 POP CALLVALUE PUSH2 0x31A JUMPI PUSH1 0x20 CALLDATASIZE PUSH1 0x3 NOT ADD SLT PUSH2 0x31A JUMPI DUP1 CALLDATALOAD SWAP2 DUP3 DUP5 MSTORE DUP4 PUSH1 0x20 MSTORE PUSH1 0x3 DUP2 DUP6 KECCAK256 PUSH2 0x658 PUSH1 0xFF PUSH1 0x2 DUP4 ADD SLOAD PUSH2 0x64E DUP3 DUP3 AND PUSH2 0x1126 JUMP JUMPDEST PUSH1 0x8 SHR AND ISZERO PUSH2 0x1166 JUMP JUMPDEST ADD SLOAD TIMESTAMP GT ISZERO PUSH2 0x693 JUMPI DUP4 PUSH2 0x690 DUP5 DUP1 PUSH32 0xFEC6C4317FB3CA3B10E4C4FB07A703400312DB0D97A77B485BF5815BB95CE53A DUP5 DUP1 LOG2 PUSH2 0x136E JUMP JUMPDEST DUP1 RETURN JUMPDEST SWAP1 PUSH1 0x20 PUSH1 0x64 SWAP3 MLOAD SWAP2 PUSH3 0x461BCD PUSH1 0xE5 SHL DUP4 MSTORE DUP3 ADD MSTORE PUSH1 0x1C PUSH1 0x24 DUP3 ADD MSTORE PUSH32 0x566F74696E6720646561646C696E65206E6F7420627265616368656400000000 PUSH1 0x44 DUP3 ADD MSTORE REVERT JUMPDEST POP POP CALLVALUE PUSH2 0xE9 JUMPI DUP2 PUSH1 0x3 NOT CALLDATASIZE ADD SLT PUSH2 0xE9 JUMPI PUSH1 0x20 SWAP1 MLOAD PUSH3 0x15180 DUP2 MSTORE RETURN JUMPDEST SWAP2 SWAP1 POP CALLVALUE PUSH2 0x31A JUMPI DUP3 PUSH1 0x3 NOT CALLDATASIZE ADD SLT PUSH2 0x31A JUMPI PUSH1 0x20 SWAP3 POP MLOAD SWAP1 DUP2 MSTORE RETURN JUMPDEST DUP4 DUP4 CALLVALUE PUSH2 0xE9 JUMPI PUSH1 0x80 CALLDATASIZE PUSH1 0x3 NOT ADD SLT PUSH2 0xE9 JUMPI DUP3 CALLDATALOAD SWAP1 PUSH1 0x24 DUP1 CALLDATALOAD SWAP1 DUP2 ISZERO ISZERO DUP1 SWAP3 SUB PUSH2 0x327 JUMPI PUSH1 0x44 CALLDATALOAD SWAP1 PUSH1 0x3 DUP3 LT ISZERO PUSH2 0xA47 JUMPI PUSH8 0xFFFFFFFFFFFFFFFF PUSH1 0x64 CALLDATALOAD DUP2 DUP2 GT PUSH2 0xA43 JUMPI PUSH2 0x763 SWAP1 CALLDATASIZE SWAP1 DUP11 ADD PUSH2 0x10F3 JUMP JUMPDEST DUP7 MLOAD PUSH4 0x2DB25E05 PUSH1 0xE0 SHL DUP2 MSTORE DUP1 DUP12 ADD DUP10 SWAP1 MSTORE SWAP1 SWAP10 SWAP2 SWAP1 PUSH1 0x1 PUSH1 0x1 PUSH1 0xA0 SHL SUB SWAP1 PUSH2 0x220 SWAP1 DUP2 DUP2 DUP9 DUP2 PUSH32 0x0 DUP8 AND GAS STATICCALL SWAP2 DUP3 ISZERO PUSH2 0xA39 JUMPI SWAP1 PUSH2 0x160 SWAP3 SWAP2 DUP14 SWAP3 PUSH2 0xA1C JUMPI JUMPDEST POP POP ADD MLOAD AND CALLER SUB PUSH2 0x9E9 JUMPI DUP8 DUP10 MSTORE PUSH1 0x20 SWAP4 DUP10 DUP6 MSTORE PUSH2 0x7F8 PUSH1 0xFF PUSH1 0x2 DUP11 DUP14 KECCAK256 ADD SLOAD PUSH2 0x7EE DUP3 DUP3 AND PUSH2 0x1126 JUMP JUMPDEST PUSH1 0x8 SHR AND ISZERO PUSH2 0x11A6 JUMP JUMPDEST DUP9 DUP11 MSTORE PUSH1 0x1 SWAP3 DUP4 DUP7 MSTORE DUP9 DUP12 KECCAK256 DUP1 SLOAD PUSH1 0xFF DUP2 AND PUSH2 0x99C JUMPI SWAP1 DUP6 DUP1 SWAP3 PUSH2 0x81B DUP12 PUSH2 0xF35 JUMP JUMPDEST PUSH3 0xFF0000 DUP12 PUSH1 0x10 SHL AND SWAP1 PUSH3 0xFFFFFF NOT AND PUSH2 0xFF00 DUP14 PUSH1 0x8 SHL AND OR OR OR DUP2 SSTORE ADD SWAP5 DUP13 GT PUSH2 0x98B JUMPI POP POP PUSH2 0x84C DUP4 SLOAD PUSH2 0xFC8 JUMP JUMPDEST PUSH1 0x1F DUP2 GT PUSH2 0x945 JUMPI JUMPDEST POP DUP9 SWAP1 PUSH1 0x1F DUP12 GT PUSH1 0x1 EQ PUSH2 0x8C5 JUMPI SWAP10 DUP1 SWAP3 DUP2 SWAP3 DUP12 SWAP13 PUSH32 0x8814A2BC92AACB0C56F32882F151C2DE15311C26ABD002C40CB3AACE6751C413 SWAP12 SWAP13 SWAP5 PUSH2 0x8BA JUMPI JUMPDEST POP POP SHL SWAP2 PUSH1 0x0 NOT SWAP1 PUSH1 0x3 SHL SHR NOT AND OR SWAP1 SSTORE JUMPDEST DUP4 MLOAD SWAP3 DUP4 MSTORE PUSH2 0x8B3 DUP3 PUSH2 0xF35 JUMP JUMPDEST DUP3 ADD MSTORE LOG2 DUP1 RETURN JUMPDEST ADD CALLDATALOAD SWAP3 POP DUP13 DUP1 PUSH2 0x893 JUMP JUMPDEST SWAP10 SWAP1 PUSH1 0x1F NOT DUP3 AND SWAP11 DUP5 DUP12 MSTORE DUP6 DUP12 KECCAK256 SWAP2 DUP12 JUMPDEST DUP14 DUP2 LT PUSH2 0x930 JUMPI POP DUP4 PUSH32 0x8814A2BC92AACB0C56F32882F151C2DE15311C26ABD002C40CB3AACE6751C413 SWAP12 SWAP13 SWAP14 LT PUSH2 0x916 JUMPI JUMPDEST POP POP POP DUP2 SHL ADD SWAP1 SSTORE PUSH2 0x8A5 JUMP JUMPDEST ADD CALLDATALOAD PUSH1 0x0 NOT PUSH1 0x3 DUP5 SWAP1 SHL PUSH1 0xF8 AND SHR NOT AND SWAP1 SSTORE DUP11 DUP1 DUP1 PUSH2 0x909 JUMP JUMPDEST DUP3 DUP3 ADD CALLDATALOAD DUP5 SSTORE SWAP3 DUP6 ADD SWAP3 SWAP1 DUP8 ADD SWAP1 DUP8 ADD PUSH2 0x8D6 JUMP JUMPDEST DUP4 DUP11 MSTORE DUP5 DUP11 KECCAK256 PUSH1 0x1F DUP13 ADD PUSH1 0x5 SHR DUP2 ADD SWAP2 DUP7 DUP14 LT PUSH2 0x981 JUMPI JUMPDEST PUSH1 0x1F ADD PUSH1 0x5 SHR ADD SWAP1 DUP4 SWAP1 JUMPDEST DUP3 DUP2 LT PUSH2 0x976 JUMPI POP POP PUSH2 0x855 JUMP JUMPDEST DUP12 DUP2 SSTORE ADD DUP4 SWAP1 PUSH2 0x968 JUMP JUMPDEST SWAP1 SWAP2 POP DUP2 SWAP1 PUSH2 0x95D JUMP JUMPDEST PUSH4 0x4E487B71 PUSH1 0xE0 SHL DUP12 MSTORE PUSH1 0x41 SWAP1 MSTORE DUP10 REVERT JUMPDEST PUSH1 0x84 DUP4 DUP6 DUP11 DUP15 MLOAD SWAP3 PUSH3 0x461BCD PUSH1 0xE5 SHL DUP5 MSTORE DUP4 ADD MSTORE DUP1 DUP3 ADD MSTORE PUSH32 0x496E73706563746F72206465636973696F6E20616C7265616479207375626D69 PUSH1 0x44 DUP3 ADD MSTORE PUSH4 0x1D1D1959 PUSH1 0xE2 SHL PUSH1 0x64 DUP3 ADD MSTORE REVERT JUMPDEST DUP7 MLOAD PUSH3 0x461BCD PUSH1 0xE5 SHL DUP2 MSTORE PUSH1 0x20 DUP2 DUP5 ADD MSTORE PUSH1 0xE DUP2 DUP7 ADD MSTORE PUSH14 0x27B7363C9024B739B832B1BA37B9 PUSH1 0x91 SHL PUSH1 0x44 DUP3 ADD MSTORE PUSH1 0x64 SWAP1 REVERT JUMPDEST PUSH2 0xA32 SWAP3 POP DUP1 RETURNDATASIZE LT PUSH2 0x5B5 JUMPI PUSH2 0x5A5 DUP2 DUP4 PUSH2 0x102C JUMP JUMPDEST DUP14 DUP1 PUSH2 0x7C3 JUMP JUMPDEST DUP11 MLOAD RETURNDATASIZE DUP15 DUP3 RETURNDATACOPY RETURNDATASIZE SWAP1 REVERT JUMPDEST DUP8 DUP1 REVERT JUMPDEST DUP6 DUP1 REVERT JUMPDEST SWAP2 SWAP1 POP CALLVALUE PUSH2 0x31A JUMPI DUP1 PUSH1 0x3 NOT CALLDATASIZE ADD SLT PUSH2 0x31A JUMPI DUP2 CALLDATALOAD SWAP2 PUSH1 0x24 SWAP2 DUP3 CALLDATALOAD PUSH1 0x3 DUP2 LT ISZERO PUSH2 0xA47 JUMPI DUP5 DUP7 MSTORE PUSH1 0x20 DUP7 DUP2 MSTORE DUP3 DUP8 KECCAK256 SWAP3 PUSH2 0xA90 PUSH1 0xFF PUSH1 0x2 DUP7 ADD SLOAD PUSH2 0x7EE DUP3 DUP3 AND PUSH2 0x1126 JUMP JUMPDEST PUSH1 0x3 DUP5 ADD SLOAD TIMESTAMP GT PUSH2 0xD52 JUMPI PUSH1 0x7 DUP5 ADD CALLER DUP10 MSTORE DUP1 DUP4 MSTORE PUSH1 0xFF DUP3 DUP11 KECCAK256 SLOAD AND PUSH2 0xD20 JUMPI PUSH2 0xAB9 DUP5 PUSH2 0xF35 JUMP JUMPDEST PUSH1 0x1 DUP5 EQ SWAP7 DUP8 DUP1 ISZERO PUSH2 0xD0D JUMPI JUMPDEST ISZERO PUSH2 0xCDD JUMPI DUP3 MLOAD PUSH4 0x2DB25E05 PUSH1 0xE0 SHL DUP2 MSTORE DUP8 DUP2 ADD DUP11 SWAP1 MSTORE PUSH2 0x220 SWAP1 PUSH1 0x1 PUSH1 0x1 PUSH1 0xA0 SHL SUB SWAP1 DUP3 DUP2 DUP6 DUP2 PUSH32 0x0 DUP7 AND GAS STATICCALL SWAP3 DUP4 ISZERO PUSH2 0xCD3 JUMPI DUP14 SWAP4 PUSH2 0xCB4 JUMPI JUMPDEST POP POP DUP1 PUSH1 0xC0 DUP4 ADD MLOAD AND CALLER EQ SWAP2 DUP3 ISZERO PUSH2 0xCA3 JUMPI JUMPDEST DUP3 ISZERO PUSH2 0xC91 JUMPI JUMPDEST DUP3 ISZERO PUSH2 0xC7F JUMPI JUMPDEST DUP3 ISZERO PUSH2 0xC6D JUMPI JUMPDEST DUP3 ISZERO PUSH2 0xC5B JUMPI JUMPDEST DUP3 ISZERO PUSH2 0xC49 JUMPI JUMPDEST POP POP ISZERO PUSH2 0xC14 JUMPI POP DUP6 SWAP5 SWAP4 SWAP3 DUP9 SWAP3 PUSH32 0xEBA4866100B822F0F391E610E7EDFAB790B9E8766C0012733C26B2F1858E8DD7 SWAP3 CALLER DUP13 MSTORE DUP3 MSTORE DUP1 DUP12 KECCAK256 PUSH1 0x1 PUSH1 0xFF NOT DUP3 SLOAD AND OR SWAP1 SSTORE PUSH1 0x6 DUP7 ADD SWAP9 PUSH2 0xBA9 DUP11 SLOAD PUSH2 0x133C JUMP JUMPDEST DUP11 SSTORE PUSH2 0xBB4 DUP7 PUSH2 0xF35 JUMP JUMPDEST ISZERO PUSH2 0xBFF JUMPI DUP7 DUP7 ADD PUSH2 0xBC6 DUP2 SLOAD PUSH2 0x133C JUMP JUMPDEST SWAP1 SSTORE JUMPDEST MLOAD SWAP4 PUSH2 0xBD4 DUP2 PUSH2 0xF35 JUMP JUMPDEST DUP5 MSTORE CALLER SWAP4 LOG3 ADD SLOAD LT PUSH2 0xBEA JUMPI POP PUSH2 0x690 SWAP1 PUSH2 0x136E JUMP JUMPDEST SLOAD PUSH1 0x7 EQ PUSH2 0xBF6 JUMPI POP DUP1 RETURN JUMPDEST PUSH2 0x690 SWAP1 PUSH2 0x136E JUMP JUMPDEST PUSH1 0x5 DUP7 ADD PUSH2 0xC0D DUP2 SLOAD PUSH2 0x133C JUMP JUMPDEST SWAP1 SSTORE PUSH2 0xBC9 JUMP JUMPDEST DUP7 PUSH1 0x11 PUSH1 0x64 SWAP3 DUP7 DUP7 MLOAD SWAP4 PUSH3 0x461BCD PUSH1 0xE5 SHL DUP6 MSTORE DUP5 ADD MSTORE DUP3 ADD MSTORE PUSH17 0x4E6F74206120766F74696E67206E6F6465 PUSH1 0x78 SHL PUSH1 0x44 DUP3 ADD MSTORE REVERT JUMPDEST PUSH2 0x120 SWAP2 SWAP3 POP ADD MLOAD AND CALLER EQ CODESIZE DUP1 PUSH2 0xB57 JUMP JUMPDEST SWAP2 POP DUP1 PUSH2 0x100 DUP4 ADD MLOAD AND CALLER EQ SWAP2 PUSH2 0xB50 JUMP JUMPDEST SWAP2 POP DUP1 PUSH2 0x1A0 DUP4 ADD MLOAD AND CALLER EQ SWAP2 PUSH2 0xB49 JUMP JUMPDEST SWAP2 POP DUP1 PUSH2 0x180 DUP4 ADD MLOAD AND CALLER EQ SWAP2 PUSH2 0xB42 JUMP JUMPDEST SWAP2 POP DUP1 PUSH2 0x160 DUP4 ADD MLOAD AND CALLER EQ SWAP2 PUSH2 0xB3B JUMP JUMPDEST SWAP2 POP DUP1 PUSH1 0xE0 DUP4 ADD MLOAD AND CALLER EQ SWAP2 PUSH2 0xB34 JUMP JUMPDEST PUSH2 0xCCB SWAP3 SWAP4 POP DUP1 RETURNDATASIZE LT PUSH2 0x5B5 JUMPI PUSH2 0x5A5 DUP2 DUP4 PUSH2 0x102C JUMP JUMPDEST SWAP1 CODESIZE DUP1 PUSH2 0xB21 JUMP JUMPDEST DUP7 MLOAD RETURNDATASIZE DUP16 DUP3 RETURNDATACOPY RETURNDATASIZE SWAP1 REVERT JUMPDEST DUP7 PUSH1 0xC PUSH1 0x64 SWAP3 DUP7 DUP7 MLOAD SWAP4 PUSH3 0x461BCD PUSH1 0xE5 SHL DUP6 MSTORE DUP5 ADD MSTORE DUP3 ADD MSTORE PUSH12 0x496E76616C696420766F7465 PUSH1 0xA0 SHL PUSH1 0x44 DUP3 ADD MSTORE REVERT JUMPDEST POP PUSH2 0xD17 DUP6 PUSH2 0xF35 JUMP JUMPDEST PUSH1 0x2 DUP6 EQ PUSH2 0xAC6 JUMP JUMPDEST DUP2 MLOAD PUSH3 0x461BCD PUSH1 0xE5 SHL DUP2 MSTORE DUP1 DUP8 ADD DUP5 SWAP1 MSTORE PUSH1 0xD DUP2 DUP10 ADD MSTORE PUSH13 0x105B1C9958591E481D9BDD1959 PUSH1 0x9A SHL PUSH1 0x44 DUP3 ADD MSTORE PUSH1 0x64 SWAP1 REVERT JUMPDEST MLOAD PUSH3 0x461BCD PUSH1 0xE5 SHL DUP2 MSTORE DUP1 DUP6 ADD SWAP2 SWAP1 SWAP2 MSTORE PUSH1 0x2B DUP2 DUP7 ADD MSTORE PUSH32 0x566F74696E6720706572696F642065787069726564202D2063616C6C2066696E PUSH1 0x44 DUP3 ADD MSTORE PUSH11 0x616C697A65566F74696E67 PUSH1 0xA8 SHL PUSH1 0x64 DUP3 ADD MSTORE PUSH1 0x84 SWAP1 REVERT JUMPDEST SWAP1 POP DUP3 CALLVALUE PUSH2 0xE3E JUMPI PUSH1 0x20 CALLDATASIZE PUSH1 0x3 NOT ADD SLT PUSH2 0xE3E JUMPI DUP3 SWAP1 DUP3 CALLDATALOAD DUP2 MSTORE DUP1 PUSH1 0x20 MSTORE KECCAK256 SWAP2 DUP3 SLOAD SWAP2 PUSH2 0xDD7 PUSH1 0x1 DUP6 ADD PUSH2 0x104E JUMP JUMPDEST SWAP4 PUSH1 0x2 DUP2 ADD SLOAD SWAP2 PUSH1 0x3 DUP3 ADD SLOAD SWAP1 DUP3 ADD SLOAD SWAP1 PUSH1 0xFF PUSH1 0x6 PUSH1 0x5 DUP6 ADD SLOAD SWAP5 ADD SLOAD SWAP5 PUSH2 0xE11 DUP8 MLOAD SWAP10 DUP11 SWAP10 PUSH2 0x100 SWAP1 DUP12 MSTORE DUP1 PUSH1 0x20 DUP13 ADD MSTORE DUP11 ADD SWAP1 PUSH2 0xF55 JUMP JUMPDEST SWAP7 DUP3 DUP3 AND ISZERO ISZERO SWAP1 DUP10 ADD MSTORE PUSH1 0x8 SHR AND ISZERO ISZERO PUSH1 0x60 DUP8 ADD MSTORE PUSH1 0x80 DUP7 ADD MSTORE PUSH1 0xA0 DUP6 ADD MSTORE PUSH1 0xC0 DUP5 ADD MSTORE PUSH1 0xE0 DUP4 ADD MSTORE SUB SWAP1 RETURN JUMPDEST DUP1 REVERT JUMPDEST SWAP1 POP CALLVALUE PUSH2 0x31A JUMPI PUSH1 0x20 CALLDATASIZE PUSH1 0x3 NOT ADD SLT PUSH2 0x31A JUMPI DUP1 CALLDATALOAD SWAP2 DUP3 DUP5 MSTORE DUP4 PUSH1 0x20 MSTORE PUSH1 0x3 DUP2 DUP6 KECCAK256 PUSH2 0xE78 PUSH1 0xFF PUSH1 0x2 DUP4 ADD SLOAD PUSH2 0x64E DUP3 DUP3 AND PUSH2 0x1126 JUMP JUMPDEST ADD SLOAD TIMESTAMP GT ISZERO PUSH2 0xE8B JUMPI DUP4 PUSH2 0x690 DUP5 PUSH2 0x136E JUMP JUMPDEST SWAP1 PUSH1 0x20 PUSH1 0x64 SWAP3 MLOAD SWAP2 PUSH3 0x461BCD PUSH1 0xE5 SHL DUP4 MSTORE DUP3 ADD MSTORE PUSH1 0x1D PUSH1 0x24 DUP3 ADD MSTORE PUSH32 0x566F74696E6720706572696F64206E6F74207965742065787069726564000000 PUSH1 0x44 DUP3 ADD MSTORE REVERT JUMPDEST SWAP2 SWAP1 POP CALLVALUE PUSH2 0x31A JUMPI PUSH1 0x20 CALLDATASIZE PUSH1 0x3 NOT ADD SLT PUSH2 0x31A JUMPI DUP1 PUSH1 0xC0 SWAP4 DUP4 CALLDATALOAD DUP2 MSTORE DUP1 PUSH1 0x20 MSTORE KECCAK256 PUSH1 0x2 DUP2 ADD SLOAD SWAP3 PUSH1 0x3 DUP3 ADD SLOAD SWAP1 DUP3 ADD SLOAD SWAP1 PUSH1 0x6 PUSH1 0x5 DUP5 ADD SLOAD SWAP4 ADD SLOAD SWAP4 PUSH1 0xFF DUP2 MLOAD SWAP7 DUP2 DUP2 AND ISZERO ISZERO DUP9 MSTORE PUSH1 0x8 SHR AND ISZERO ISZERO PUSH1 0x20 DUP8 ADD MSTORE DUP6 ADD MSTORE PUSH1 0x60 DUP5 ADD MSTORE PUSH1 0x80 DUP4 ADD MSTORE PUSH1 0xA0 DUP3 ADD MSTORE RETURN JUMPDEST PUSH1 0x3 GT ISZERO PUSH2 0xF3F JUMPI JUMP JUMPDEST PUSH4 0x4E487B71 PUSH1 0xE0 SHL PUSH1 0x0 MSTORE PUSH1 0x21 PUSH1 0x4 MSTORE PUSH1 0x24 PUSH1 0x0 REVERT JUMPDEST SWAP2 SWAP1 DUP3 MLOAD SWAP3 DUP4 DUP3 MSTORE PUSH1 0x0 JUMPDEST DUP5 DUP2 LT PUSH2 0xF81 JUMPI POP POP DUP3 PUSH1 0x0 PUSH1 0x20 DUP1 SWAP5 SWAP6 DUP5 ADD ADD MSTORE PUSH1 0x1F DUP1 NOT SWAP2 ADD AND ADD ADD SWAP1 JUMP JUMPDEST PUSH1 0x20 DUP2 DUP4 ADD DUP2 ADD MLOAD DUP5 DUP4 ADD DUP3 ADD MSTORE ADD PUSH2 0xF60 JUMP JUMPDEST SWAP1 SWAP3 PUSH1 0x80 SWAP3 PUSH2 0xFC5 SWAP6 SWAP5 ISZERO ISZERO DUP4 MSTORE ISZERO ISZERO PUSH1 0x20 DUP4 ADD MSTORE PUSH2 0xFB3 DUP2 PUSH2 0xF35 JUMP JUMPDEST PUSH1 0x40 DUP3 ADD MSTORE DUP2 PUSH1 0x60 DUP3 ADD MSTORE ADD SWAP1 PUSH2 0xF55 JUMP JUMPDEST SWAP1 JUMP JUMPDEST SWAP1 PUSH1 0x1 DUP3 DUP2 SHR SWAP3 AND DUP1 ISZERO PUSH2 0xFF8 JUMPI JUMPDEST PUSH1 0x20 DUP4 LT EQ PUSH2 0xFE2 JUMPI JUMP JUMPDEST PUSH4 0x4E487B71 PUSH1 0xE0 SHL PUSH1 0x0 MSTORE PUSH1 0x22 PUSH1 0x4 MSTORE PUSH1 0x24 PUSH1 0x0 REVERT JUMPDEST SWAP2 PUSH1 0x7F AND SWAP2 PUSH2 0xFD7 JUMP JUMPDEST PUSH8 0xFFFFFFFFFFFFFFFF DUP2 GT PUSH2 0x1016 JUMPI PUSH1 0x40 MSTORE JUMP JUMPDEST PUSH4 0x4E487B71 PUSH1 0xE0 SHL PUSH1 0x0 MSTORE PUSH1 0x41 PUSH1 0x4 MSTORE PUSH1 0x24 PUSH1 0x0 REVERT JUMPDEST SWAP1 PUSH1 0x1F DUP1 NOT SWAP2 ADD AND DUP2 ADD SWAP1 DUP2 LT PUSH8 0xFFFFFFFFFFFFFFFF DUP3 GT OR PUSH2 0x1016 JUMPI PUSH1 0x40 MSTORE JUMP JUMPDEST SWAP1 PUSH1 0x40 MLOAD SWAP2 DUP3 PUSH1 0x0 DUP3 SLOAD PUSH2 0x1061 DUP2 PUSH2 0xFC8 JUMP JUMPDEST SWAP1 DUP2 DUP5 MSTORE PUSH1 0x20 SWAP5 PUSH1 0x1 SWAP2 PUSH1 0x1 DUP2 AND SWAP1 DUP2 PUSH1 0x0 EQ PUSH2 0x10D1 JUMPI POP PUSH1 0x1 EQ PUSH2 0x1092 JUMPI JUMPDEST POP POP POP PUSH2 0x1090 SWAP3 POP SUB DUP4 PUSH2 0x102C JUMP JUMPDEST JUMP JUMPDEST PUSH1 0x0 SWAP1 DUP2 MSTORE DUP6 DUP2 KECCAK256 SWAP6 SWAP4 POP SWAP2 SWAP1 JUMPDEST DUP2 DUP4 LT PUSH2 0x10B9 JUMPI POP POP PUSH2 0x1090 SWAP4 POP DUP3 ADD ADD CODESIZE DUP1 DUP1 PUSH2 0x1081 JUMP JUMPDEST DUP6 SLOAD DUP9 DUP5 ADD DUP6 ADD MSTORE SWAP5 DUP6 ADD SWAP5 DUP8 SWAP5 POP SWAP2 DUP4 ADD SWAP2 PUSH2 0x10A0 JUMP JUMPDEST SWAP3 POP POP POP PUSH2 0x1090 SWAP5 SWAP3 POP PUSH1 0xFF NOT AND DUP3 DUP5 ADD MSTORE ISZERO ISZERO PUSH1 0x5 SHL DUP3 ADD ADD CODESIZE DUP1 DUP1 PUSH2 0x1081 JUMP JUMPDEST SWAP2 DUP2 PUSH1 0x1F DUP5 ADD SLT ISZERO PUSH2 0x1121 JUMPI DUP3 CALLDATALOAD SWAP2 PUSH8 0xFFFFFFFFFFFFFFFF DUP4 GT PUSH2 0x1121 JUMPI PUSH1 0x20 DUP4 DUP2 DUP7 ADD SWAP6 ADD ADD GT PUSH2 0x1121 JUMPI JUMP JUMPDEST PUSH1 0x0 DUP1 REVERT JUMPDEST ISZERO PUSH2 0x112D JUMPI JUMP JUMPDEST PUSH1 0x40 MLOAD PUSH3 0x461BCD PUSH1 0xE5 SHL DUP2 MSTORE PUSH1 0x20 PUSH1 0x4 DUP3 ADD MSTORE PUSH1 0x11 PUSH1 0x24 DUP3 ADD MSTORE PUSH17 0x4E6F206163746976652064697370757465 PUSH1 0x78 SHL PUSH1 0x44 DUP3 ADD MSTORE PUSH1 0x64 SWAP1 REVERT JUMPDEST ISZERO PUSH2 0x116D JUMPI JUMP JUMPDEST PUSH1 0x40 MLOAD PUSH3 0x461BCD PUSH1 0xE5 SHL DUP2 MSTORE PUSH1 0x20 PUSH1 0x4 DUP3 ADD MSTORE PUSH1 0x11 PUSH1 0x24 DUP3 ADD MSTORE PUSH17 0x105B1C9958591E48199A5B985B1A5E9959 PUSH1 0x7A SHL PUSH1 0x44 DUP3 ADD MSTORE PUSH1 0x64 SWAP1 REVERT JUMPDEST ISZERO PUSH2 0x11AD JUMPI JUMP JUMPDEST PUSH1 0x40 MLOAD PUSH3 0x461BCD PUSH1 0xE5 SHL DUP2 MSTORE PUSH1 0x20 PUSH1 0x4 DUP3 ADD MSTORE PUSH1 0x18 PUSH1 0x24 DUP3 ADD MSTORE PUSH32 0x566F74696E6720616C72656164792066696E616C697A65640000000000000000 PUSH1 0x44 DUP3 ADD MSTORE PUSH1 0x64 SWAP1 REVERT JUMPDEST MLOAD SWAP1 PUSH1 0x1 PUSH1 0x1 PUSH1 0xA0 SHL SUB DUP3 AND DUP3 SUB PUSH2 0x1121 JUMPI JUMP JUMPDEST MLOAD SWAP1 DUP2 ISZERO ISZERO DUP3 SUB PUSH2 0x1121 JUMPI JUMP JUMPDEST DUP1 SWAP2 PUSH2 0x220 SWAP3 DUP4 SWAP2 SUB SLT PUSH2 0x1121 JUMPI PUSH1 0x40 MLOAD SWAP2 DUP3 ADD DUP3 DUP2 LT PUSH8 0xFFFFFFFFFFFFFFFF DUP3 GT OR PUSH2 0x1016 JUMPI PUSH1 0x40 MSTORE DUP1 MLOAD DUP3 MSTORE PUSH1 0x20 DUP2 ADD MLOAD PUSH1 0x20 DUP4 ADD MSTORE PUSH1 0x40 DUP2 ADD MLOAD PUSH1 0x40 DUP4 ADD MSTORE PUSH1 0x60 DUP2 ADD MLOAD PUSH1 0x60 DUP4 ADD MSTORE PUSH1 0x80 DUP2 ADD MLOAD PUSH1 0x80 DUP4 ADD MSTORE PUSH1 0xA0 DUP2 ADD MLOAD PUSH1 0xA0 DUP4 ADD MSTORE PUSH2 0x127F PUSH1 0xC0 DUP3 ADD PUSH2 0x11F2 JUMP JUMPDEST PUSH1 0xC0 DUP4 ADD MSTORE PUSH2 0x1290 PUSH1 0xE0 DUP3 ADD PUSH2 0x11F2 JUMP JUMPDEST PUSH1 0xE0 DUP4 ADD MSTORE PUSH2 0x100 PUSH2 0x12A3 DUP2 DUP4 ADD PUSH2 0x11F2 JUMP JUMPDEST SWAP1 DUP4 ADD MSTORE PUSH2 0x120 PUSH2 0x12B5 DUP2 DUP4 ADD PUSH2 0x11F2 JUMP JUMPDEST SWAP1 DUP4 ADD MSTORE PUSH2 0x140 PUSH2 0x12C7 DUP2 DUP4 ADD PUSH2 0x11F2 JUMP JUMPDEST SWAP1 DUP4 ADD MSTORE PUSH2 0x160 PUSH2 0x12D9 DUP2 DUP4 ADD PUSH2 0x11F2 JUMP JUMPDEST SWAP1 DUP4 ADD MSTORE PUSH2 0x180 PUSH2 0x12EB DUP2 DUP4 ADD PUSH2 0x11F2 JUMP JUMPDEST SWAP1 DUP4 ADD MSTORE PUSH2 0x1A0 PUSH2 0x12FD DUP2 DUP4 ADD PUSH2 0x11F2 JUMP JUMPDEST SWAP1 DUP4 ADD MSTORE PUSH2 0x1C0 DUP1 DUP3 ADD MLOAD SWAP1 PUSH1 0x15 DUP3 LT ISZERO PUSH2 0x1121 JUMPI DUP4 ADD MSTORE PUSH2 0x1E0 PUSH2 0x1323 DUP2 DUP4 ADD PUSH2 0x1206 JUMP JUMPDEST SWAP1 DUP4 ADD MSTORE PUSH2 0x1335 PUSH2 0x200 DUP1 SWAP3 ADD PUSH2 0x1206 JUMP JUMPDEST SWAP1 DUP3 ADD MSTORE SWAP1 JUMP JUMPDEST PUSH1 0x0 NOT DUP2 EQ PUSH2 0x134B JUMPI PUSH1 0x1 ADD SWAP1 JUMP JUMPDEST PUSH4 0x4E487B71 PUSH1 0xE0 SHL PUSH1 0x0 MSTORE PUSH1 0x11 PUSH1 0x4 MSTORE PUSH1 0x24 PUSH1 0x0 REVERT JUMPDEST SWAP1 PUSH1 0x15 DUP3 LT ISZERO PUSH2 0xF3F JUMPI MSTORE JUMP JUMPDEST PUSH1 0x0 DUP2 DUP2 MSTORE DUP1 PUSH1 0x20 MSTORE PUSH1 0x40 SWAP1 DUP2 DUP2 KECCAK256 SWAP2 PUSH1 0x2 DUP4 ADD PUSH2 0x100 PUSH2 0xFFFF NOT DUP3 SLOAD AND OR SWAP1 SSTORE PUSH1 0x1 PUSH1 0x20 MSTORE DUP1 DUP3 KECCAK256 SLOAD PUSH1 0xFF DUP2 AND SWAP1 DUP2 PUSH2 0x149A JUMPI JUMPDEST POP PUSH1 0x4 DUP5 ADD SWAP1 PUSH1 0x4 DUP3 SLOAD LT ISZERO PUSH1 0x0 EQ PUSH2 0x1485 JUMPI POP PUSH1 0x12 SWAP3 JUMPDEST PUSH32 0x0 PUSH1 0x1 PUSH1 0x1 PUSH1 0xA0 SHL SUB AND DUP1 EXTCODESIZE ISZERO PUSH2 0xE9 JUMPI DUP2 DUP1 SWAP2 PUSH1 0x44 DUP7 MLOAD DUP1 SWAP6 DUP2 SWAP4 PUSH4 0x3A1B3D31 PUSH1 0xE0 SHL DUP4 MSTORE DUP13 PUSH1 0x4 DUP5 ADD MSTORE PUSH2 0x1414 PUSH1 0x24 DUP5 ADD DUP13 PUSH2 0x1361 JUMP JUMPDEST GAS CALL SWAP1 DUP2 ISZERO PUSH2 0x147A JUMPI POP SWAP3 PUSH1 0x5 PUSH2 0x1468 SWAP4 PUSH1 0x60 SWAP7 SWAP4 PUSH32 0x610B72DA639BF7D46039976CA9E5779BC1C162F91B825EBB2A720EBDA7CDD67E SWAP9 SWAP7 PUSH2 0x146B JUMPI JUMPDEST POP SLOAD SWAP5 ADD SLOAD DUP2 MLOAD SWAP5 DUP6 MSTORE PUSH1 0x20 DUP6 ADD MSTORE DUP4 ADD SWAP1 PUSH2 0x1361 JUMP JUMPDEST LOG2 JUMP JUMPDEST PUSH2 0x1474 SWAP1 PUSH2 0x1002 JUMP JUMPDEST CODESIZE PUSH2 0x1451 JUMP JUMPDEST DUP5 MLOAD SWAP1 RETURNDATASIZE SWAP1 DUP3 RETURNDATACOPY RETURNDATASIZE SWAP1 REVERT JUMPDEST ISZERO PUSH2 0x1492 JUMPI PUSH1 0x14 SWAP3 PUSH2 0x13BB JUMP JUMPDEST PUSH1 0x13 SWAP3 PUSH2 0x13BB JUMP JUMPDEST PUSH1 0x1 SWAP2 POP PUSH1 0x10 SHR PUSH1 0xFF AND PUSH2 0x14AD DUP2 PUSH2 0xF35 JUMP JUMPDEST EQ CODESIZE PUSH2 0x13A3 JUMP INVALID LOG2 PUSH5 0x6970667358 0x22 SLT KECCAK256 0xC4 DUP7 DELEGATECALL EXTCODESIZE 0xE5 0xBE 0xE9 INVALID PUSH0 BALANCE 0xE1 PUSH11 0x1B8A0F87E2D593506DB81B 0xE5 0xB6 SGT 0xBE GASLIMIT PUSH20 0x825B7C64736F6C63430008180033000000000000 "},"methodIdentifiers":{"VOTE_THRESHOLD()":"a0ef4d0e","VOTING_DURATION()":"a438d208","activateVoting(uint256,string)":"cdbceb25","castVote(uint256,uint8)":"56781388","disputes(uint256)":"564a565d","finalizeVoting(uint256)":"49444831","getInspectorDecision(uint256)":"1cf9f47d","getVotingSummary(uint256)":"29046cc5","inspectorDecisions(uint256)":"b92b23a3","submitInspectorDecision(uint256,bool,uint8,string)":"5f9a71fe","tradeRegistry()":"dbd97308","triggerVotingSLABreach(uint256)":"aefa8eaa"}}}}}