{"contracts/DocumentVerification.sol":{"DocumentVerification":{"abi":[{"inputs":[{"internalType":"address","name":"_tradeRegistry","type":"address"}],"stateMutability":"nonpayable","type":"constructor"},{"anonymous":false,"inputs":[{"indexed":true,"internalType":"uint256","name":"tradeId","type":"uint256"},{"indexed":false,"internalType":"string","name":"ipfsHash","type":"string"},{"indexed":true,"internalType":"address","name":"issuedBy","type":"address"}],"name":"BillOfLadingIssued","type":"event"},{"anonymous":false,"inputs":[{"indexed":true,"internalType":"uint256","name":"tradeId","type":"uint256"},{"indexed":true,"internalType":"uint8","name":"decision","type":"uint8"},{"indexed":false,"internalType":"uint256","name":"taxAmount","type":"uint256"},{"indexed":true,"internalType":"address","name":"decidedBy","type":"address"}],"name":"CustomsDecisionMade","type":"event"},{"anonymous":false,"inputs":[{"indexed":true,"internalType":"uint256","name":"tradeId","type":"uint256"},{"indexed":true,"internalType":"uint256","name":"taxAmount","type":"uint256"},{"indexed":true,"internalType":"address","name":"releasedBy","type":"address"}],"name":"TaxPaidAndGoodsReleased","type":"event"},{"inputs":[{"internalType":"uint256","name":"tradeId","type":"uint256"}],"name":"getBolIpfsHash","outputs":[{"internalType":"string","name":"","type":"string"}],"stateMutability":"view","type":"function"},{"inputs":[{"internalType":"uint256","name":"tradeId","type":"uint256"}],"name":"getVerification","outputs":[{"components":[{"internalType":"string","name":"bolIpfsHash","type":"string"},{"internalType":"string","name":"customsCertIpfsHash","type":"string"},{"internalType":"uint256","name":"taxAmount","type":"uint256"},{"internalType":"bool","name":"bolIssued","type":"bool"},{"internalType":"bool","name":"customsCleared","type":"bool"},{"internalType":"uint8","name":"customsDecision","type":"uint8"},{"internalType":"bool","name":"taxPaid","type":"bool"}],"internalType":"struct DocumentVerification.VerificationState","name":"","type":"tuple"}],"stateMutability":"view","type":"function"},{"inputs":[{"internalType":"uint256","name":"tradeId","type":"uint256"},{"internalType":"string","name":"ipfsHash","type":"string"}],"name":"issueBillOfLading","outputs":[],"stateMutability":"nonpayable","type":"function"},{"inputs":[{"internalType":"uint256","name":"tradeId","type":"uint256"}],"name":"payTaxAndRelease","outputs":[],"stateMutability":"nonpayable","type":"function"},{"inputs":[],"name":"tradeRegistry","outputs":[{"internalType":"contract TradeRegistry","name":"","type":"address"}],"stateMutability":"view","type":"function"},{"inputs":[{"internalType":"uint256","name":"","type":"uint256"}],"name":"verifications","outputs":[{"internalType":"string","name":"bolIpfsHash","type":"string"},{"internalType":"string","name":"customsCertIpfsHash","type":"string"},{"internalType":"uint256","name":"taxAmount","type":"uint256"},{"internalType":"bool","name":"bolIssued","type":"bool"},{"internalType":"bool","name":"customsCleared","type":"bool"},{"internalType":"uint8","name":"customsDecision","type":"uint8"},{"internalType":"bool","name":"taxPaid","type":"bool"}],"stateMutability":"view","type":"function"},{"inputs":[{"internalType":"uint256","name":"tradeId","type":"uint256"},{"internalType":"uint8","name":"decision","type":"uint8"},{"internalType":"uint256","name":"taxAmount","type":"uint256"},{"internalType":"string","name":"certIpfsHash","type":"string"}],"name":"verifyAsCustoms","outputs":[],"stateMutability":"nonpayable","type":"function"}],"evm":{"bytecode":{"linkReferences":{},"object":"60a0346100b157601f6113e938819003918201601f19168301916001600160401b038311848410176100b6578084926020946040528339810103126100b157516001600160a01b038116908190036100b15760805260405161131c90816100cd8239608051818181609d0152818161031a015281816105a9015281816109fe01528181610a6c01528181610b4401528181610b9801528181610bf201528181610c4601528181610ce50152610d370152f35b600080fd5b634e487b7160e01b600052604160045260246000fdfe6080604052600436101561001257600080fd5b6000803560e01c8063345a83fa1461099f5780633eb3da481461055257806358937cc81461042c5780638dd62219146103ea578063b90b0a1014610349578063dbd97308146103045763ea8324e31461006a57600080fd5b346101d65760203660031901126101d657604051632db25e0560e01b808252600480359083018190526001600160a01b037f000000000000000000000000000000000000000000000000000000000000000081169493602493610220929091838187818b5afa9081156102f9576100f292916101809189916102dc575b50015116331461129a565b60405190815282600482015281818581895afa9182156102d157906101c0929186926102a4575b5050015160158110156102915760090361025957808352826020526040832091600283015492831561021f576003019485549560ff8760181c166101e8576301000100869763ff00ff001916179055604051933390847fb2f3804492a73e4cd995d51a482a4e90a4919f22255ee0441319bdea08733acb8880a4803b156101e4578385604492600883958397633a1b3d3160e01b865260048601528401525af180156101d9576101c65750f35b6101cf90611043565b6101d65780f35b80fd5b6040513d84823e3d90fd5b8480fd5b60405162461bcd60e51b8152602060048201526010818501526f15185e08185b1c9958591e481c185a5960821b6044820152606490fd5b60405162461bcd60e51b81526020600482015260138184015272139bc81d185e081dd85cc8185cdcd95cdcd959606a1b6044820152606490fd5b60405162461bcd60e51b81526020600482015260118184015270151c985919481b9bdd08199b1859d9d959607a1b6044820152606490fd5b634e487b7160e01b845260216004528284fd5b6102c39250803d106102ca575b6102bb8183611089565b810190611171565b3880610119565b503d6102b1565b6040513d87823e3d90fd5b6102f39150863d88116102ca576102bb8183611089565b386100e7565b6040513d89823e3d90fd5b50346101d657806003193601126101d6576040517f00000000000000000000000000000000000000000000000000000000000000006001600160a01b03168152602090f35b50346101d65760203660031901126101d65760406103a59160043581528060205220610374816110ab565b9060ff610383600183016110ab565b6103b3600360028501549401549160405196879660e0885260e0880190610fc9565b908682036020880152610fc9565b92604085015281811615156060850152818160081c1615156080850152818160101c1660a085015260181c16151560c08301520390f35b50346101d65760203660031901126101d657610414604061042892600435815280602052206110ab565b604051918291602083526020830190610fc9565b0390f35b50346101d65760208060031936011261054e5760408260e09360c083516104528161106d565b6060815260608682015282858201528260608201528260808201528260a082015201526004358152808352206040519161048b8361106d565b610494826110ab565b835260ff6104a4600184016110ab565b9180850192835260036002850154946040870195865201549260608601838516151581526105246080880192858760081c161515845261051160a08a0195878960101c1687528760c08c019960181c16151589526040519b8c9b828d5251918c01526101008b0190610fc9565b9051898203601f190160408b0152610fc9565b95516060880152511515608087015251151560a0860152511660c084015251151560e08301520390f35b5080fd5b50346101d65760403660031901126101d65767ffffffffffffffff906024600435813584811161099b5761058a903690600401610f96565b604051632db25e0560e01b808252600482018590526001600160a01b037f00000000000000000000000000000000000000000000000000000000000000008116969492610220929190838188818c5afa9081156109905790610140918b91610973575b50015116330361092f57604051908152856004820152818186818a5afa91821561092457906101c092918992610907575b5050015160158110156108f45760060361089e5781156108655783865260209686885260ff60036040892001541661082c57848752868852604087209083116108195761066b8154611009565b601f81116107d6575b5086601f841160011461074f57978386937f63149911db316f829a231b8a15319e7c3955ae2dc560e0f9a964d69ba0be2dbd93828b9c8c91610744575b508360011b906000198560031b1c19161790555b848a52898352600360408b2001600160ff198254161790558160405193808552840152604083013787604085830101526040813395601f80199101168101030190a3823b1561073f5760448492836007956040519687958694633a1b3d3160e01b865260048601528401525af180156101d9576101c65750f35b505050fd5b9050820135386106b1565b81885288882090601f198516895b8181106107bf5750937f63149911db316f829a231b8a15319e7c3955ae2dc560e0f9a964d69ba0be2dbd938a9b938793848b98106107a5575b5050600183811b0190556106c5565b830135600019600386901b60f8161c191690553880610796565b91928b60018192868901358155019401920161075d565b818852888820601f850160051c8101918a861061080f575b601f0160051c01905b8181106108045750610674565b8881556001016107f7565b90915081906107ee565b634e487b7160e01b875260416004528387fd5b60405162461bcd60e51b81526004810189905260128186015271109bd308185b1c9958591e481a5cdcdd595960721b6044820152606490fd5b60405162461bcd60e51b8152602060048201526012818501527112541194c81a185cda081c995c5d5a5c995960721b6044820152606490fd5b60405162461bcd60e51b8152602060048201526029818501527f5472616465206d75737420626520696e205348495050494e475f41535349474e60448201526845442073746174757360b81b6064820152608490fd5b634e487b7160e01b875260216004528387fd5b61091d9250803d106102ca576102bb8183611089565b388061061e565b6040513d8a823e3d90fd5b60405162461bcd60e51b815260206004820152601e818701527f4f6e6c792061737369676e6564207368697070696e6720636f6d70616e7900006044820152606490fd5b61098a9150853d87116102ca576102bb8183611089565b386105ed565b6040513d8c823e3d90fd5b8380fd5b50346101d65760803660031901126101d65760ff60243516602435036101d65760643567ffffffffffffffff811161054e576109df903690600401610f96565b632db25e0560e01b6080908152600435608452919291610220906024817f00000000000000000000000000000000000000000000000000000000000000006001600160a01b03165afa80156101d9578290610f5e575b6101800151610a4e906001600160a01b0316331461129a565b604051632db25e0560e01b81526004803590820152610220816024817f00000000000000000000000000000000000000000000000000000000000000006001600160a01b03165afa908115610f5357906101c0918491610f32575b5001516015811015610f1e57600703610ee157600435825260208290526040822060038101805462ff0000191660243560101b62ff0000161790559080610db8575b509091506040516044358152339060ff60243516907fcdd6329e1a077a40150be3254c6571018460655bddbafb9c090bb3a7bc538126602060043592a460243560ff16610bd157600301805461ff0019166101001790557f00000000000000000000000000000000000000000000000000000000000000006001600160a01b03163b156101d657604051633a1b3d3160e01b815260048035908201526008602482015281908181604481837f00000000000000000000000000000000000000000000000000000000000000006001600160a01b03165af180156101d9576101c657505080f35b60243560ff16600103610cd55760443515610c7f57604435600291909101557f00000000000000000000000000000000000000000000000000000000000000006001600160a01b03163b156101d657604051633a1b3d3160e01b815260048035908201526009602482015281908181604481837f00000000000000000000000000000000000000000000000000000000000000006001600160a01b03165af180156101d9576101c657505080f35b60405162461bcd60e51b815260206004820152602860248201527f54617820616d6f756e74206d757374206265203e203020666f7220666c616767604482015267656420676f6f647360c01b6064820152608490fd5b5060243560ff16600203610d7b577f00000000000000000000000000000000000000000000000000000000000000006001600160a01b03163b156101d657604051633a1b3d3160e01b81526004803590820152600a60248201528181604481837f00000000000000000000000000000000000000000000000000000000000000006001600160a01b03165af180156101d957610d6f575080f35b610d7890611043565b80f35b60405162461bcd60e51b8152602060048201526015602482015274496e76616c6964206465636973696f6e20636f646560581b6044820152606490fd5b67ffffffffffffffff8111610ecd57610dd46001830154611009565b601f8111610e89575b5082601f8211600114610e2057839482939492610e15575b50508160011b916000199060031b1c19161760018201555b819038610aeb565b013590503880610df5565b601f198216946001840185526020852091855b878110610e71575083600195969710610e57575b505050811b016001820155610e0d565b0135600019600384901b60f8161c19169055388080610e47565b90926020600181928686013581550194019101610e33565b60018301845260208420601f830160051c810160208410610ec6575b601f830160051c82018110610ebb575050610ddd565b858155600101610ea5565b5080610ea5565b634e487b7160e01b83526041600452602483fd5b60405162461bcd60e51b815260206004820152601560248201527411dbdbd91cc81b9bdd081e595d081cda1a5c1c1959605a1b6044820152606490fd5b634e487b7160e01b83526021600452602483fd5b610f4d91506102203d610220116102ca576102bb8183611089565b38610aa9565b6040513d85823e3d90fd5b506102203d61022011610f8f575b610f8881610f7e610a4e936080611089565b6080016080611171565b9050610a35565b503d610f6c565b9181601f84011215610fc45782359167ffffffffffffffff8311610fc45760208381860195010111610fc457565b600080fd5b919082519283825260005b848110610ff5575050826000602080949584010152601f8019910116010190565b602081830181015184830182015201610fd4565b90600182811c92168015611039575b602083101461102357565b634e487b7160e01b600052602260045260246000fd5b91607f1691611018565b67ffffffffffffffff811161105757604052565b634e487b7160e01b600052604160045260246000fd5b60e0810190811067ffffffffffffffff82111761105757604052565b90601f8019910116810190811067ffffffffffffffff82111761105757604052565b906040519182600082546110be81611009565b9081845260209460019160018116908160001461112e57506001146110ef575b5050506110ed92500383611089565b565b600090815285812095935091905b8183106111165750506110ed93508201013880806110de565b855488840185015294850194879450918301916110fd565b925050506110ed94925060ff191682840152151560051b8201013880806110de565b51906001600160a01b0382168203610fc457565b51908115158203610fc457565b80916102209283910312610fc45760405191820182811067ffffffffffffffff82111761105757604052805182526020810151602083015260408101516040830152606081015160608301526080810151608083015260a081015160a08301526111dd60c08201611150565b60c08301526111ee60e08201611150565b60e0830152610100611201818301611150565b90830152610120611213818301611150565b90830152610140611225818301611150565b90830152610160611237818301611150565b90830152610180611249818301611150565b908301526101a061125b818301611150565b908301526101c080820151906015821015610fc4578301526101e0611281818301611164565b90830152611293610200809201611164565b9082015290565b156112a157565b60405162461bcd60e51b815260206004820152601b60248201527f4f6e6c7920437573746f6d20262054617820417574686f7269747900000000006044820152606490fdfea2646970667358221220855da503a0d786b84d6a9b3350476a2114a03723a180dca6ffc3483950e2a86564736f6c63430008180033","opcodes":"PUSH1 0xA0 CALLVALUE PUSH2 0xB1 JUMPI PUSH1 0x1F PUSH2 0x13E9 CODESIZE DUP2 SWAP1 SUB SWAP2 DUP3 ADD PUSH1 0x1F NOT AND DUP4 ADD SWAP2 PUSH1 0x1 PUSH1 0x1 PUSH1 0x40 SHL SUB DUP4 GT DUP5 DUP5 LT OR PUSH2 0xB6 JUMPI DUP1 DUP5 SWAP3 PUSH1 0x20 SWAP5 PUSH1 0x40 MSTORE DUP4 CODECOPY DUP2 ADD SUB SLT PUSH2 0xB1 JUMPI MLOAD PUSH1 0x1 PUSH1 0x1 PUSH1 0xA0 SHL SUB DUP2 AND SWAP1 DUP2 SWAP1 SUB PUSH2 0xB1 JUMPI PUSH1 0x80 MSTORE PUSH1 0x40 MLOAD PUSH2 0x131C SWAP1 DUP2 PUSH2 0xCD DUP3 CODECOPY PUSH1 0x80 MLOAD DUP2 DUP2 DUP2 PUSH1 0x9D ADD MSTORE DUP2 DUP2 PUSH2 0x31A ADD MSTORE DUP2 DUP2 PUSH2 0x5A9 ADD MSTORE DUP2 DUP2 PUSH2 0x9FE ADD MSTORE DUP2 DUP2 PUSH2 0xA6C ADD MSTORE DUP2 DUP2 PUSH2 0xB44 ADD MSTORE DUP2 DUP2 PUSH2 0xB98 ADD MSTORE DUP2 DUP2 PUSH2 0xBF2 ADD MSTORE DUP2 DUP2 PUSH2 0xC46 ADD MSTORE DUP2 DUP2 PUSH2 0xCE5 ADD MSTORE PUSH2 0xD37 ADD MSTORE RETURN JUMPDEST PUSH1 0x0 DUP1 REVERT JUMPDEST PUSH4 0x4E487B71 PUSH1 0xE0 SHL PUSH1 0x0 MSTORE PUSH1 0x41 PUSH1 0x4 MSTORE PUSH1 0x24 PUSH1 0x0 REVERT INVALID PUSH1 0x80 PUSH1 0x40 MSTORE PUSH1 0x4 CALLDATASIZE LT ISZERO PUSH2 0x12 JUMPI PUSH1 0x0 DUP1 REVERT JUMPDEST PUSH1 0x0 DUP1 CALLDATALOAD PUSH1 0xE0 SHR DUP1 PUSH4 0x345A83FA EQ PUSH2 0x99F JUMPI DUP1 PUSH4 0x3EB3DA48 EQ PUSH2 0x552 JUMPI DUP1 PUSH4 0x58937CC8 EQ PUSH2 0x42C JUMPI DUP1 PUSH4 0x8DD62219 EQ PUSH2 0x3EA JUMPI DUP1 PUSH4 0xB90B0A10 EQ PUSH2 0x349 JUMPI DUP1 PUSH4 0xDBD97308 EQ PUSH2 0x304 JUMPI PUSH4 0xEA8324E3 EQ PUSH2 0x6A JUMPI PUSH1 0x0 DUP1 REVERT JUMPDEST CALLVALUE PUSH2 0x1D6 JUMPI PUSH1 0x20 CALLDATASIZE PUSH1 0x3 NOT ADD SLT PUSH2 0x1D6 JUMPI PUSH1 0x40 MLOAD PUSH4 0x2DB25E05 PUSH1 0xE0 SHL DUP1 DUP3 MSTORE PUSH1 0x4 DUP1 CALLDATALOAD SWAP1 DUP4 ADD DUP2 SWAP1 MSTORE PUSH1 0x1 PUSH1 0x1 PUSH1 0xA0 SHL SUB PUSH32 0x0 DUP2 AND SWAP5 SWAP4 PUSH1 0x24 SWAP4 PUSH2 0x220 SWAP3 SWAP1 SWAP2 DUP4 DUP2 DUP8 DUP2 DUP12 GAS STATICCALL SWAP1 DUP2 ISZERO PUSH2 0x2F9 JUMPI PUSH2 0xF2 SWAP3 SWAP2 PUSH2 0x180 SWAP2 DUP10 SWAP2 PUSH2 0x2DC JUMPI JUMPDEST POP ADD MLOAD AND CALLER EQ PUSH2 0x129A JUMP JUMPDEST PUSH1 0x40 MLOAD SWAP1 DUP2 MSTORE DUP3 PUSH1 0x4 DUP3 ADD MSTORE DUP2 DUP2 DUP6 DUP2 DUP10 GAS STATICCALL SWAP2 DUP3 ISZERO PUSH2 0x2D1 JUMPI SWAP1 PUSH2 0x1C0 SWAP3 SWAP2 DUP7 SWAP3 PUSH2 0x2A4 JUMPI JUMPDEST POP POP ADD MLOAD PUSH1 0x15 DUP2 LT ISZERO PUSH2 0x291 JUMPI PUSH1 0x9 SUB PUSH2 0x259 JUMPI DUP1 DUP4 MSTORE DUP3 PUSH1 0x20 MSTORE PUSH1 0x40 DUP4 KECCAK256 SWAP2 PUSH1 0x2 DUP4 ADD SLOAD SWAP3 DUP4 ISZERO PUSH2 0x21F JUMPI PUSH1 0x3 ADD SWAP5 DUP6 SLOAD SWAP6 PUSH1 0xFF DUP8 PUSH1 0x18 SHR AND PUSH2 0x1E8 JUMPI PUSH4 0x1000100 DUP7 SWAP8 PUSH4 0xFF00FF00 NOT AND OR SWAP1 SSTORE PUSH1 0x40 MLOAD SWAP4 CALLER SWAP1 DUP5 PUSH32 0xB2F3804492A73E4CD995D51A482A4E90A4919F22255EE0441319BDEA08733ACB DUP9 DUP1 LOG4 DUP1 EXTCODESIZE ISZERO PUSH2 0x1E4 JUMPI DUP4 DUP6 PUSH1 0x44 SWAP3 PUSH1 0x8 DUP4 SWAP6 DUP4 SWAP8 PUSH4 0x3A1B3D31 PUSH1 0xE0 SHL DUP7 MSTORE PUSH1 0x4 DUP7 ADD MSTORE DUP5 ADD MSTORE GAS CALL DUP1 ISZERO PUSH2 0x1D9 JUMPI PUSH2 0x1C6 JUMPI POP RETURN JUMPDEST PUSH2 0x1CF SWAP1 PUSH2 0x1043 JUMP JUMPDEST PUSH2 0x1D6 JUMPI DUP1 RETURN JUMPDEST DUP1 REVERT JUMPDEST PUSH1 0x40 MLOAD RETURNDATASIZE DUP5 DUP3 RETURNDATACOPY RETURNDATASIZE SWAP1 REVERT JUMPDEST DUP5 DUP1 REVERT JUMPDEST PUSH1 0x40 MLOAD PUSH3 0x461BCD PUSH1 0xE5 SHL DUP2 MSTORE PUSH1 0x20 PUSH1 0x4 DUP3 ADD MSTORE PUSH1 0x10 DUP2 DUP6 ADD MSTORE PUSH16 0x15185E08185B1C9958591E481C185A59 PUSH1 0x82 SHL PUSH1 0x44 DUP3 ADD MSTORE PUSH1 0x64 SWAP1 REVERT JUMPDEST PUSH1 0x40 MLOAD PUSH3 0x461BCD PUSH1 0xE5 SHL DUP2 MSTORE PUSH1 0x20 PUSH1 0x4 DUP3 ADD MSTORE PUSH1 0x13 DUP2 DUP5 ADD MSTORE PUSH19 0x139BC81D185E081DD85CC8185CDCD95CDCD959 PUSH1 0x6A SHL PUSH1 0x44 DUP3 ADD MSTORE PUSH1 0x64 SWAP1 REVERT JUMPDEST PUSH1 0x40 MLOAD PUSH3 0x461BCD PUSH1 0xE5 SHL DUP2 MSTORE PUSH1 0x20 PUSH1 0x4 DUP3 ADD MSTORE PUSH1 0x11 DUP2 DUP5 ADD MSTORE PUSH17 0x151C985919481B9BDD08199B1859D9D959 PUSH1 0x7A SHL PUSH1 0x44 DUP3 ADD MSTORE PUSH1 0x64 SWAP1 REVERT JUMPDEST PUSH4 0x4E487B71 PUSH1 0xE0 SHL DUP5 MSTORE PUSH1 0x21 PUSH1 0x4 MSTORE DUP3 DUP5 REVERT JUMPDEST PUSH2 0x2C3 SWAP3 POP DUP1 RETURNDATASIZE LT PUSH2 0x2CA JUMPI JUMPDEST PUSH2 0x2BB DUP2 DUP4 PUSH2 0x1089 JUMP JUMPDEST DUP2 ADD SWAP1 PUSH2 0x1171 JUMP JUMPDEST CODESIZE DUP1 PUSH2 0x119 JUMP JUMPDEST POP RETURNDATASIZE PUSH2 0x2B1 JUMP JUMPDEST PUSH1 0x40 MLOAD RETURNDATASIZE DUP8 DUP3 RETURNDATACOPY RETURNDATASIZE SWAP1 REVERT JUMPDEST PUSH2 0x2F3 SWAP2 POP DUP7 RETURNDATASIZE DUP9 GT PUSH2 0x2CA JUMPI PUSH2 0x2BB DUP2 DUP4 PUSH2 0x1089 JUMP JUMPDEST CODESIZE PUSH2 0xE7 JUMP JUMPDEST PUSH1 0x40 MLOAD RETURNDATASIZE DUP10 DUP3 RETURNDATACOPY RETURNDATASIZE SWAP1 REVERT JUMPDEST POP CALLVALUE PUSH2 0x1D6 JUMPI DUP1 PUSH1 0x3 NOT CALLDATASIZE ADD SLT PUSH2 0x1D6 JUMPI PUSH1 0x40 MLOAD PUSH32 0x0 PUSH1 0x1 PUSH1 0x1 PUSH1 0xA0 SHL SUB AND DUP2 MSTORE PUSH1 0x20 SWAP1 RETURN JUMPDEST POP CALLVALUE PUSH2 0x1D6 JUMPI PUSH1 0x20 CALLDATASIZE PUSH1 0x3 NOT ADD SLT PUSH2 0x1D6 JUMPI PUSH1 0x40 PUSH2 0x3A5 SWAP2 PUSH1 0x4 CALLDATALOAD DUP2 MSTORE DUP1 PUSH1 0x20 MSTORE KECCAK256 PUSH2 0x374 DUP2 PUSH2 0x10AB JUMP JUMPDEST SWAP1 PUSH1 0xFF PUSH2 0x383 PUSH1 0x1 DUP4 ADD PUSH2 0x10AB JUMP JUMPDEST PUSH2 0x3B3 PUSH1 0x3 PUSH1 0x2 DUP6 ADD SLOAD SWAP5 ADD SLOAD SWAP2 PUSH1 0x40 MLOAD SWAP7 DUP8 SWAP7 PUSH1 0xE0 DUP9 MSTORE PUSH1 0xE0 DUP9 ADD SWAP1 PUSH2 0xFC9 JUMP JUMPDEST SWAP1 DUP7 DUP3 SUB PUSH1 0x20 DUP9 ADD MSTORE PUSH2 0xFC9 JUMP JUMPDEST SWAP3 PUSH1 0x40 DUP6 ADD MSTORE DUP2 DUP2 AND ISZERO ISZERO PUSH1 0x60 DUP6 ADD MSTORE DUP2 DUP2 PUSH1 0x8 SHR AND ISZERO ISZERO PUSH1 0x80 DUP6 ADD MSTORE DUP2 DUP2 PUSH1 0x10 SHR AND PUSH1 0xA0 DUP6 ADD MSTORE PUSH1 0x18 SHR AND ISZERO ISZERO PUSH1 0xC0 DUP4 ADD MSTORE SUB SWAP1 RETURN JUMPDEST POP CALLVALUE PUSH2 0x1D6 JUMPI PUSH1 0x20 CALLDATASIZE PUSH1 0x3 NOT ADD SLT PUSH2 0x1D6 JUMPI PUSH2 0x414 PUSH1 0x40 PUSH2 0x428 SWAP3 PUSH1 0x4 CALLDATALOAD DUP2 MSTORE DUP1 PUSH1 0x20 MSTORE KECCAK256 PUSH2 0x10AB JUMP JUMPDEST PUSH1 0x40 MLOAD SWAP2 DUP3 SWAP2 PUSH1 0x20 DUP4 MSTORE PUSH1 0x20 DUP4 ADD SWAP1 PUSH2 0xFC9 JUMP JUMPDEST SUB SWAP1 RETURN JUMPDEST POP CALLVALUE PUSH2 0x1D6 JUMPI PUSH1 0x20 DUP1 PUSH1 0x3 NOT CALLDATASIZE ADD SLT PUSH2 0x54E JUMPI PUSH1 0x40 DUP3 PUSH1 0xE0 SWAP4 PUSH1 0xC0 DUP4 MLOAD PUSH2 0x452 DUP2 PUSH2 0x106D JUMP JUMPDEST PUSH1 0x60 DUP2 MSTORE PUSH1 0x60 DUP7 DUP3 ADD MSTORE DUP3 DUP6 DUP3 ADD MSTORE DUP3 PUSH1 0x60 DUP3 ADD MSTORE DUP3 PUSH1 0x80 DUP3 ADD MSTORE DUP3 PUSH1 0xA0 DUP3 ADD MSTORE ADD MSTORE PUSH1 0x4 CALLDATALOAD DUP2 MSTORE DUP1 DUP4 MSTORE KECCAK256 PUSH1 0x40 MLOAD SWAP2 PUSH2 0x48B DUP4 PUSH2 0x106D JUMP JUMPDEST PUSH2 0x494 DUP3 PUSH2 0x10AB JUMP JUMPDEST DUP4 MSTORE PUSH1 0xFF PUSH2 0x4A4 PUSH1 0x1 DUP5 ADD PUSH2 0x10AB JUMP JUMPDEST SWAP2 DUP1 DUP6 ADD SWAP3 DUP4 MSTORE PUSH1 0x3 PUSH1 0x2 DUP6 ADD SLOAD SWAP5 PUSH1 0x40 DUP8 ADD SWAP6 DUP7 MSTORE ADD SLOAD SWAP3 PUSH1 0x60 DUP7 ADD DUP4 DUP6 AND ISZERO ISZERO DUP2 MSTORE PUSH2 0x524 PUSH1 0x80 DUP9 ADD SWAP3 DUP6 DUP8 PUSH1 0x8 SHR AND ISZERO ISZERO DUP5 MSTORE PUSH2 0x511 PUSH1 0xA0 DUP11 ADD SWAP6 DUP8 DUP10 PUSH1 0x10 SHR AND DUP8 MSTORE DUP8 PUSH1 0xC0 DUP13 ADD SWAP10 PUSH1 0x18 SHR AND ISZERO ISZERO DUP10 MSTORE PUSH1 0x40 MLOAD SWAP12 DUP13 SWAP12 DUP3 DUP14 MSTORE MLOAD SWAP2 DUP13 ADD MSTORE PUSH2 0x100 DUP12 ADD SWAP1 PUSH2 0xFC9 JUMP JUMPDEST SWAP1 MLOAD DUP10 DUP3 SUB PUSH1 0x1F NOT ADD PUSH1 0x40 DUP12 ADD MSTORE PUSH2 0xFC9 JUMP JUMPDEST SWAP6 MLOAD PUSH1 0x60 DUP9 ADD MSTORE MLOAD ISZERO ISZERO PUSH1 0x80 DUP8 ADD MSTORE MLOAD ISZERO ISZERO PUSH1 0xA0 DUP7 ADD MSTORE MLOAD AND PUSH1 0xC0 DUP5 ADD MSTORE MLOAD ISZERO ISZERO PUSH1 0xE0 DUP4 ADD MSTORE SUB SWAP1 RETURN JUMPDEST POP DUP1 REVERT JUMPDEST POP CALLVALUE PUSH2 0x1D6 JUMPI PUSH1 0x40 CALLDATASIZE PUSH1 0x3 NOT ADD SLT PUSH2 0x1D6 JUMPI PUSH8 0xFFFFFFFFFFFFFFFF SWAP1 PUSH1 0x24 PUSH1 0x4 CALLDATALOAD DUP2 CALLDATALOAD DUP5 DUP2 GT PUSH2 0x99B JUMPI PUSH2 0x58A SWAP1 CALLDATASIZE SWAP1 PUSH1 0x4 ADD PUSH2 0xF96 JUMP JUMPDEST PUSH1 0x40 MLOAD PUSH4 0x2DB25E05 PUSH1 0xE0 SHL DUP1 DUP3 MSTORE PUSH1 0x4 DUP3 ADD DUP6 SWAP1 MSTORE PUSH1 0x1 PUSH1 0x1 PUSH1 0xA0 SHL SUB PUSH32 0x0 DUP2 AND SWAP7 SWAP5 SWAP3 PUSH2 0x220 SWAP3 SWAP2 SWAP1 DUP4 DUP2 DUP9 DUP2 DUP13 GAS STATICCALL SWAP1 DUP2 ISZERO PUSH2 0x990 JUMPI SWAP1 PUSH2 0x140 SWAP2 DUP12 SWAP2 PUSH2 0x973 JUMPI JUMPDEST POP ADD MLOAD AND CALLER SUB PUSH2 0x92F JUMPI PUSH1 0x40 MLOAD SWAP1 DUP2 MSTORE DUP6 PUSH1 0x4 DUP3 ADD MSTORE DUP2 DUP2 DUP7 DUP2 DUP11 GAS STATICCALL SWAP2 DUP3 ISZERO PUSH2 0x924 JUMPI SWAP1 PUSH2 0x1C0 SWAP3 SWAP2 DUP10 SWAP3 PUSH2 0x907 JUMPI JUMPDEST POP POP ADD MLOAD PUSH1 0x15 DUP2 LT ISZERO PUSH2 0x8F4 JUMPI PUSH1 0x6 SUB PUSH2 0x89E JUMPI DUP2 ISZERO PUSH2 0x865 JUMPI DUP4 DUP7 MSTORE PUSH1 0x20 SWAP7 DUP7 DUP9 MSTORE PUSH1 0xFF PUSH1 0x3 PUSH1 0x40 DUP10 KECCAK256 ADD SLOAD AND PUSH2 0x82C JUMPI DUP5 DUP8 MSTORE DUP7 DUP9 MSTORE PUSH1 0x40 DUP8 KECCAK256 SWAP1 DUP4 GT PUSH2 0x819 JUMPI PUSH2 0x66B DUP2 SLOAD PUSH2 0x1009 JUMP JUMPDEST PUSH1 0x1F DUP2 GT PUSH2 0x7D6 JUMPI JUMPDEST POP DUP7 PUSH1 0x1F DUP5 GT PUSH1 0x1 EQ PUSH2 0x74F JUMPI SWAP8 DUP4 DUP7 SWAP4 PUSH32 0x63149911DB316F829A231B8A15319E7C3955AE2DC560E0F9A964D69BA0BE2DBD SWAP4 DUP3 DUP12 SWAP13 DUP13 SWAP2 PUSH2 0x744 JUMPI JUMPDEST POP DUP4 PUSH1 0x1 SHL SWAP1 PUSH1 0x0 NOT DUP6 PUSH1 0x3 SHL SHR NOT AND OR SWAP1 SSTORE JUMPDEST DUP5 DUP11 MSTORE DUP10 DUP4 MSTORE PUSH1 0x3 PUSH1 0x40 DUP12 KECCAK256 ADD PUSH1 0x1 PUSH1 0xFF NOT DUP3 SLOAD AND OR SWAP1 SSTORE DUP2 PUSH1 0x40 MLOAD SWAP4 DUP1 DUP6 MSTORE DUP5 ADD MSTORE PUSH1 0x40 DUP4 ADD CALLDATACOPY DUP8 PUSH1 0x40 DUP6 DUP4 ADD ADD MSTORE PUSH1 0x40 DUP2 CALLER SWAP6 PUSH1 0x1F DUP1 NOT SWAP2 ADD AND DUP2 ADD SUB ADD SWAP1 LOG3 DUP3 EXTCODESIZE ISZERO PUSH2 0x73F JUMPI PUSH1 0x44 DUP5 SWAP3 DUP4 PUSH1 0x7 SWAP6 PUSH1 0x40 MLOAD SWAP7 DUP8 SWAP6 DUP7 SWAP5 PUSH4 0x3A1B3D31 PUSH1 0xE0 SHL DUP7 MSTORE PUSH1 0x4 DUP7 ADD MSTORE DUP5 ADD MSTORE GAS CALL DUP1 ISZERO PUSH2 0x1D9 JUMPI PUSH2 0x1C6 JUMPI POP RETURN JUMPDEST POP POP POP REVERT JUMPDEST SWAP1 POP DUP3 ADD CALLDATALOAD CODESIZE PUSH2 0x6B1 JUMP JUMPDEST DUP2 DUP9 MSTORE DUP9 DUP9 KECCAK256 SWAP1 PUSH1 0x1F NOT DUP6 AND DUP10 JUMPDEST DUP2 DUP2 LT PUSH2 0x7BF JUMPI POP SWAP4 PUSH32 0x63149911DB316F829A231B8A15319E7C3955AE2DC560E0F9A964D69BA0BE2DBD SWAP4 DUP11 SWAP12 SWAP4 DUP8 SWAP4 DUP5 DUP12 SWAP9 LT PUSH2 0x7A5 JUMPI JUMPDEST POP POP PUSH1 0x1 DUP4 DUP2 SHL ADD SWAP1 SSTORE PUSH2 0x6C5 JUMP JUMPDEST DUP4 ADD CALLDATALOAD PUSH1 0x0 NOT PUSH1 0x3 DUP7 SWAP1 SHL PUSH1 0xF8 AND SHR NOT AND SWAP1 SSTORE CODESIZE DUP1 PUSH2 0x796 JUMP JUMPDEST SWAP2 SWAP3 DUP12 PUSH1 0x1 DUP2 SWAP3 DUP7 DUP10 ADD CALLDATALOAD DUP2 SSTORE ADD SWAP5 ADD SWAP3 ADD PUSH2 0x75D JUMP JUMPDEST DUP2 DUP9 MSTORE DUP9 DUP9 KECCAK256 PUSH1 0x1F DUP6 ADD PUSH1 0x5 SHR DUP2 ADD SWAP2 DUP11 DUP7 LT PUSH2 0x80F JUMPI JUMPDEST PUSH1 0x1F ADD PUSH1 0x5 SHR ADD SWAP1 JUMPDEST DUP2 DUP2 LT PUSH2 0x804 JUMPI POP PUSH2 0x674 JUMP JUMPDEST DUP9 DUP2 SSTORE PUSH1 0x1 ADD PUSH2 0x7F7 JUMP JUMPDEST SWAP1 SWAP2 POP DUP2 SWAP1 PUSH2 0x7EE JUMP JUMPDEST PUSH4 0x4E487B71 PUSH1 0xE0 SHL DUP8 MSTORE PUSH1 0x41 PUSH1 0x4 MSTORE DUP4 DUP8 REVERT JUMPDEST PUSH1 0x40 MLOAD PUSH3 0x461BCD PUSH1 0xE5 SHL DUP2 MSTORE PUSH1 0x4 DUP2 ADD DUP10 SWAP1 MSTORE PUSH1 0x12 DUP2 DUP7 ADD MSTORE PUSH18 0x109BD308185B1C9958591E481A5CDCDD5959 PUSH1 0x72 SHL PUSH1 0x44 DUP3 ADD MSTORE PUSH1 0x64 SWAP1 REVERT JUMPDEST PUSH1 0x40 MLOAD PUSH3 0x461BCD PUSH1 0xE5 SHL DUP2 MSTORE PUSH1 0x20 PUSH1 0x4 DUP3 ADD MSTORE PUSH1 0x12 DUP2 DUP6 ADD MSTORE PUSH18 0x12541194C81A185CDA081C995C5D5A5C9959 PUSH1 0x72 SHL PUSH1 0x44 DUP3 ADD MSTORE PUSH1 0x64 SWAP1 REVERT JUMPDEST PUSH1 0x40 MLOAD PUSH3 0x461BCD PUSH1 0xE5 SHL DUP2 MSTORE PUSH1 0x20 PUSH1 0x4 DUP3 ADD MSTORE PUSH1 0x29 DUP2 DUP6 ADD MSTORE PUSH32 0x5472616465206D75737420626520696E205348495050494E475F41535349474E PUSH1 0x44 DUP3 ADD MSTORE PUSH9 0x454420737461747573 PUSH1 0xB8 SHL PUSH1 0x64 DUP3 ADD MSTORE PUSH1 0x84 SWAP1 REVERT JUMPDEST PUSH4 0x4E487B71 PUSH1 0xE0 SHL DUP8 MSTORE PUSH1 0x21 PUSH1 0x4 MSTORE DUP4 DUP8 REVERT JUMPDEST PUSH2 0x91D SWAP3 POP DUP1 RETURNDATASIZE LT PUSH2 0x2CA JUMPI PUSH2 0x2BB DUP2 DUP4 PUSH2 0x1089 JUMP JUMPDEST CODESIZE DUP1 PUSH2 0x61E JUMP JUMPDEST PUSH1 0x40 MLOAD RETURNDATASIZE DUP11 DUP3 RETURNDATACOPY RETURNDATASIZE SWAP1 REVERT JUMPDEST PUSH1 0x40 MLOAD PUSH3 0x461BCD PUSH1 0xE5 SHL DUP2 MSTORE PUSH1 0x20 PUSH1 0x4 DUP3 ADD MSTORE PUSH1 0x1E DUP2 DUP8 ADD MSTORE PUSH32 0x4F6E6C792061737369676E6564207368697070696E6720636F6D70616E790000 PUSH1 0x44 DUP3 ADD MSTORE PUSH1 0x64 SWAP1 REVERT JUMPDEST PUSH2 0x98A SWAP2 POP DUP6 RETURNDATASIZE DUP8 GT PUSH2 0x2CA JUMPI PUSH2 0x2BB DUP2 DUP4 PUSH2 0x1089 JUMP JUMPDEST CODESIZE PUSH2 0x5ED JUMP JUMPDEST PUSH1 0x40 MLOAD RETURNDATASIZE DUP13 DUP3 RETURNDATACOPY RETURNDATASIZE SWAP1 REVERT JUMPDEST DUP4 DUP1 REVERT JUMPDEST POP CALLVALUE PUSH2 0x1D6 JUMPI PUSH1 0x80 CALLDATASIZE PUSH1 0x3 NOT ADD SLT PUSH2 0x1D6 JUMPI PUSH1 0xFF PUSH1 0x24 CALLDATALOAD AND PUSH1 0x24 CALLDATALOAD SUB PUSH2 0x1D6 JUMPI PUSH1 0x64 CALLDATALOAD PUSH8 0xFFFFFFFFFFFFFFFF DUP2 GT PUSH2 0x54E JUMPI PUSH2 0x9DF SWAP1 CALLDATASIZE SWAP1 PUSH1 0x4 ADD PUSH2 0xF96 JUMP JUMPDEST PUSH4 0x2DB25E05 PUSH1 0xE0 SHL PUSH1 0x80 SWAP1 DUP2 MSTORE PUSH1 0x4 CALLDATALOAD PUSH1 0x84 MSTORE SWAP2 SWAP3 SWAP2 PUSH2 0x220 SWAP1 PUSH1 0x24 DUP2 PUSH32 0x0 PUSH1 0x1 PUSH1 0x1 PUSH1 0xA0 SHL SUB AND GAS STATICCALL DUP1 ISZERO PUSH2 0x1D9 JUMPI DUP3 SWAP1 PUSH2 0xF5E JUMPI JUMPDEST PUSH2 0x180 ADD MLOAD PUSH2 0xA4E SWAP1 PUSH1 0x1 PUSH1 0x1 PUSH1 0xA0 SHL SUB AND CALLER EQ PUSH2 0x129A JUMP JUMPDEST PUSH1 0x40 MLOAD PUSH4 0x2DB25E05 PUSH1 0xE0 SHL DUP2 MSTORE PUSH1 0x4 DUP1 CALLDATALOAD SWAP1 DUP3 ADD MSTORE PUSH2 0x220 DUP2 PUSH1 0x24 DUP2 PUSH32 0x0 PUSH1 0x1 PUSH1 0x1 PUSH1 0xA0 SHL SUB AND GAS STATICCALL SWAP1 DUP2 ISZERO PUSH2 0xF53 JUMPI SWAP1 PUSH2 0x1C0 SWAP2 DUP5 SWAP2 PUSH2 0xF32 JUMPI JUMPDEST POP ADD MLOAD PUSH1 0x15 DUP2 LT ISZERO PUSH2 0xF1E JUMPI PUSH1 0x7 SUB PUSH2 0xEE1 JUMPI PUSH1 0x4 CALLDATALOAD DUP3 MSTORE PUSH1 0x20 DUP3 SWAP1 MSTORE PUSH1 0x40 DUP3 KECCAK256 PUSH1 0x3 DUP2 ADD DUP1 SLOAD PUSH3 0xFF0000 NOT AND PUSH1 0x24 CALLDATALOAD PUSH1 0x10 SHL PUSH3 0xFF0000 AND OR SWAP1 SSTORE SWAP1 DUP1 PUSH2 0xDB8 JUMPI JUMPDEST POP SWAP1 SWAP2 POP PUSH1 0x40 MLOAD PUSH1 0x44 CALLDATALOAD DUP2 MSTORE CALLER SWAP1 PUSH1 0xFF PUSH1 0x24 CALLDATALOAD AND SWAP1 PUSH32 0xCDD6329E1A077A40150BE3254C6571018460655BDDBAFB9C090BB3A7BC538126 PUSH1 0x20 PUSH1 0x4 CALLDATALOAD SWAP3 LOG4 PUSH1 0x24 CALLDATALOAD PUSH1 0xFF AND PUSH2 0xBD1 JUMPI PUSH1 0x3 ADD DUP1 SLOAD PUSH2 0xFF00 NOT AND PUSH2 0x100 OR SWAP1 SSTORE PUSH32 0x0 PUSH1 0x1 PUSH1 0x1 PUSH1 0xA0 SHL SUB AND EXTCODESIZE ISZERO PUSH2 0x1D6 JUMPI PUSH1 0x40 MLOAD PUSH4 0x3A1B3D31 PUSH1 0xE0 SHL DUP2 MSTORE PUSH1 0x4 DUP1 CALLDATALOAD SWAP1 DUP3 ADD MSTORE PUSH1 0x8 PUSH1 0x24 DUP3 ADD MSTORE DUP2 SWAP1 DUP2 DUP2 PUSH1 0x44 DUP2 DUP4 PUSH32 0x0 PUSH1 0x1 PUSH1 0x1 PUSH1 0xA0 SHL SUB AND GAS CALL DUP1 ISZERO PUSH2 0x1D9 JUMPI PUSH2 0x1C6 JUMPI POP POP DUP1 RETURN JUMPDEST PUSH1 0x24 CALLDATALOAD PUSH1 0xFF AND PUSH1 0x1 SUB PUSH2 0xCD5 JUMPI PUSH1 0x44 CALLDATALOAD ISZERO PUSH2 0xC7F JUMPI PUSH1 0x44 CALLDATALOAD PUSH1 0x2 SWAP2 SWAP1 SWAP2 ADD SSTORE PUSH32 0x0 PUSH1 0x1 PUSH1 0x1 PUSH1 0xA0 SHL SUB AND EXTCODESIZE ISZERO PUSH2 0x1D6 JUMPI PUSH1 0x40 MLOAD PUSH4 0x3A1B3D31 PUSH1 0xE0 SHL DUP2 MSTORE PUSH1 0x4 DUP1 CALLDATALOAD SWAP1 DUP3 ADD MSTORE PUSH1 0x9 PUSH1 0x24 DUP3 ADD MSTORE DUP2 SWAP1 DUP2 DUP2 PUSH1 0x44 DUP2 DUP4 PUSH32 0x0 PUSH1 0x1 PUSH1 0x1 PUSH1 0xA0 SHL SUB AND GAS CALL DUP1 ISZERO PUSH2 0x1D9 JUMPI PUSH2 0x1C6 JUMPI POP POP DUP1 RETURN JUMPDEST PUSH1 0x40 MLOAD PUSH3 0x461BCD PUSH1 0xE5 SHL DUP2 MSTORE PUSH1 0x20 PUSH1 0x4 DUP3 ADD MSTORE PUSH1 0x28 PUSH1 0x24 DUP3 ADD MSTORE PUSH32 0x54617820616D6F756E74206D757374206265203E203020666F7220666C616767 PUSH1 0x44 DUP3 ADD MSTORE PUSH8 0x656420676F6F6473 PUSH1 0xC0 SHL PUSH1 0x64 DUP3 ADD MSTORE PUSH1 0x84 SWAP1 REVERT JUMPDEST POP PUSH1 0x24 CALLDATALOAD PUSH1 0xFF AND PUSH1 0x2 SUB PUSH2 0xD7B JUMPI PUSH32 0x0 PUSH1 0x1 PUSH1 0x1 PUSH1 0xA0 SHL SUB AND EXTCODESIZE ISZERO PUSH2 0x1D6 JUMPI PUSH1 0x40 MLOAD PUSH4 0x3A1B3D31 PUSH1 0xE0 SHL DUP2 MSTORE PUSH1 0x4 DUP1 CALLDATALOAD SWAP1 DUP3 ADD MSTORE PUSH1 0xA PUSH1 0x24 DUP3 ADD MSTORE DUP2 DUP2 PUSH1 0x44 DUP2 DUP4 PUSH32 0x0 PUSH1 0x1 PUSH1 0x1 PUSH1 0xA0 SHL SUB AND GAS CALL DUP1 ISZERO PUSH2 0x1D9 JUMPI PUSH2 0xD6F JUMPI POP DUP1 RETURN JUMPDEST PUSH2 0xD78 SWAP1 PUSH2 0x1043 JUMP JUMPDEST DUP1 RETURN JUMPDEST PUSH1 0x40 MLOAD PUSH3 0x461BCD PUSH1 0xE5 SHL DUP2 MSTORE PUSH1 0x20 PUSH1 0x4 DUP3 ADD MSTORE PUSH1 0x15 PUSH1 0x24 DUP3 ADD MSTORE PUSH21 0x496E76616C6964206465636973696F6E20636F6465 PUSH1 0x58 SHL PUSH1 0x44 DUP3 ADD MSTORE PUSH1 0x64 SWAP1 REVERT JUMPDEST PUSH8 0xFFFFFFFFFFFFFFFF DUP2 GT PUSH2 0xECD JUMPI PUSH2 0xDD4 PUSH1 0x1 DUP4 ADD SLOAD PUSH2 0x1009 JUMP JUMPDEST PUSH1 0x1F DUP2 GT PUSH2 0xE89 JUMPI JUMPDEST POP DUP3 PUSH1 0x1F DUP3 GT PUSH1 0x1 EQ PUSH2 0xE20 JUMPI DUP4 SWAP5 DUP3 SWAP4 SWAP5 SWAP3 PUSH2 0xE15 JUMPI JUMPDEST POP POP DUP2 PUSH1 0x1 SHL SWAP2 PUSH1 0x0 NOT SWAP1 PUSH1 0x3 SHL SHR NOT AND OR PUSH1 0x1 DUP3 ADD SSTORE JUMPDEST DUP2 SWAP1 CODESIZE PUSH2 0xAEB JUMP JUMPDEST ADD CALLDATALOAD SWAP1 POP CODESIZE DUP1 PUSH2 0xDF5 JUMP JUMPDEST PUSH1 0x1F NOT DUP3 AND SWAP5 PUSH1 0x1 DUP5 ADD DUP6 MSTORE PUSH1 0x20 DUP6 KECCAK256 SWAP2 DUP6 JUMPDEST DUP8 DUP2 LT PUSH2 0xE71 JUMPI POP DUP4 PUSH1 0x1 SWAP6 SWAP7 SWAP8 LT PUSH2 0xE57 JUMPI JUMPDEST POP POP POP DUP2 SHL ADD PUSH1 0x1 DUP3 ADD SSTORE PUSH2 0xE0D JUMP JUMPDEST ADD CALLDATALOAD PUSH1 0x0 NOT PUSH1 0x3 DUP5 SWAP1 SHL PUSH1 0xF8 AND SHR NOT AND SWAP1 SSTORE CODESIZE DUP1 DUP1 PUSH2 0xE47 JUMP JUMPDEST SWAP1 SWAP3 PUSH1 0x20 PUSH1 0x1 DUP2 SWAP3 DUP7 DUP7 ADD CALLDATALOAD DUP2 SSTORE ADD SWAP5 ADD SWAP2 ADD PUSH2 0xE33 JUMP JUMPDEST PUSH1 0x1 DUP4 ADD DUP5 MSTORE PUSH1 0x20 DUP5 KECCAK256 PUSH1 0x1F DUP4 ADD PUSH1 0x5 SHR DUP2 ADD PUSH1 0x20 DUP5 LT PUSH2 0xEC6 JUMPI JUMPDEST PUSH1 0x1F DUP4 ADD PUSH1 0x5 SHR DUP3 ADD DUP2 LT PUSH2 0xEBB JUMPI POP POP PUSH2 0xDDD JUMP JUMPDEST DUP6 DUP2 SSTORE PUSH1 0x1 ADD PUSH2 0xEA5 JUMP JUMPDEST POP DUP1 PUSH2 0xEA5 JUMP JUMPDEST PUSH4 0x4E487B71 PUSH1 0xE0 SHL DUP4 MSTORE PUSH1 0x41 PUSH1 0x4 MSTORE PUSH1 0x24 DUP4 REVERT JUMPDEST PUSH1 0x40 MLOAD PUSH3 0x461BCD PUSH1 0xE5 SHL DUP2 MSTORE PUSH1 0x20 PUSH1 0x4 DUP3 ADD MSTORE PUSH1 0x15 PUSH1 0x24 DUP3 ADD MSTORE PUSH21 0x11DBDBD91CC81B9BDD081E595D081CDA1A5C1C1959 PUSH1 0x5A SHL PUSH1 0x44 DUP3 ADD MSTORE PUSH1 0x64 SWAP1 REVERT JUMPDEST PUSH4 0x4E487B71 PUSH1 0xE0 SHL DUP4 MSTORE PUSH1 0x21 PUSH1 0x4 MSTORE PUSH1 0x24 DUP4 REVERT JUMPDEST PUSH2 0xF4D SWAP2 POP PUSH2 0x220 RETURNDATASIZE PUSH2 0x220 GT PUSH2 0x2CA JUMPI PUSH2 0x2BB DUP2 DUP4 PUSH2 0x1089 JUMP JUMPDEST CODESIZE PUSH2 0xAA9 JUMP JUMPDEST PUSH1 0x40 MLOAD RETURNDATASIZE DUP6 DUP3 RETURNDATACOPY RETURNDATASIZE SWAP1 REVERT JUMPDEST POP PUSH2 0x220 RETURNDATASIZE PUSH2 0x220 GT PUSH2 0xF8F JUMPI JUMPDEST PUSH2 0xF88 DUP2 PUSH2 0xF7E PUSH2 0xA4E SWAP4 PUSH1 0x80 PUSH2 0x1089 JUMP JUMPDEST PUSH1 0x80 ADD PUSH1 0x80 PUSH2 0x1171 JUMP JUMPDEST SWAP1 POP PUSH2 0xA35 JUMP JUMPDEST POP RETURNDATASIZE PUSH2 0xF6C JUMP JUMPDEST SWAP2 DUP2 PUSH1 0x1F DUP5 ADD SLT ISZERO PUSH2 0xFC4 JUMPI DUP3 CALLDATALOAD SWAP2 PUSH8 0xFFFFFFFFFFFFFFFF DUP4 GT PUSH2 0xFC4 JUMPI PUSH1 0x20 DUP4 DUP2 DUP7 ADD SWAP6 ADD ADD GT PUSH2 0xFC4 JUMPI JUMP JUMPDEST PUSH1 0x0 DUP1 REVERT JUMPDEST SWAP2 SWAP1 DUP3 MLOAD SWAP3 DUP4 DUP3 MSTORE PUSH1 0x0 JUMPDEST DUP5 DUP2 LT PUSH2 0xFF5 JUMPI POP POP DUP3 PUSH1 0x0 PUSH1 0x20 DUP1 SWAP5 SWAP6 DUP5 ADD ADD MSTORE PUSH1 0x1F DUP1 NOT SWAP2 ADD AND ADD ADD SWAP1 JUMP JUMPDEST PUSH1 0x20 DUP2 DUP4 ADD DUP2 ADD MLOAD DUP5 DUP4 ADD DUP3 ADD MSTORE ADD PUSH2 0xFD4 JUMP JUMPDEST SWAP1 PUSH1 0x1 DUP3 DUP2 SHR SWAP3 AND DUP1 ISZERO PUSH2 0x1039 JUMPI JUMPDEST PUSH1 0x20 DUP4 LT EQ PUSH2 0x1023 JUMPI JUMP JUMPDEST PUSH4 0x4E487B71 PUSH1 0xE0 SHL PUSH1 0x0 MSTORE PUSH1 0x22 PUSH1 0x4 MSTORE PUSH1 0x24 PUSH1 0x0 REVERT JUMPDEST SWAP2 PUSH1 0x7F AND SWAP2 PUSH2 0x1018 JUMP JUMPDEST PUSH8 0xFFFFFFFFFFFFFFFF DUP2 GT PUSH2 0x1057 JUMPI PUSH1 0x40 MSTORE JUMP JUMPDEST PUSH4 0x4E487B71 PUSH1 0xE0 SHL PUSH1 0x0 MSTORE PUSH1 0x41 PUSH1 0x4 MSTORE PUSH1 0x24 PUSH1 0x0 REVERT JUMPDEST PUSH1 0xE0 DUP2 ADD SWAP1 DUP2 LT PUSH8 0xFFFFFFFFFFFFFFFF DUP3 GT OR PUSH2 0x1057 JUMPI PUSH1 0x40 MSTORE JUMP JUMPDEST SWAP1 PUSH1 0x1F DUP1 NOT SWAP2 ADD AND DUP2 ADD SWAP1 DUP2 LT PUSH8 0xFFFFFFFFFFFFFFFF DUP3 GT OR PUSH2 0x1057 JUMPI PUSH1 0x40 MSTORE JUMP JUMPDEST SWAP1 PUSH1 0x40 MLOAD SWAP2 DUP3 PUSH1 0x0 DUP3 SLOAD PUSH2 0x10BE DUP2 PUSH2 0x1009 JUMP JUMPDEST SWAP1 DUP2 DUP5 MSTORE PUSH1 0x20 SWAP5 PUSH1 0x1 SWAP2 PUSH1 0x1 DUP2 AND SWAP1 DUP2 PUSH1 0x0 EQ PUSH2 0x112E JUMPI POP PUSH1 0x1 EQ PUSH2 0x10EF JUMPI JUMPDEST POP POP POP PUSH2 0x10ED SWAP3 POP SUB DUP4 PUSH2 0x1089 JUMP JUMPDEST JUMP JUMPDEST PUSH1 0x0 SWAP1 DUP2 MSTORE DUP6 DUP2 KECCAK256 SWAP6 SWAP4 POP SWAP2 SWAP1 JUMPDEST DUP2 DUP4 LT PUSH2 0x1116 JUMPI POP POP PUSH2 0x10ED SWAP4 POP DUP3 ADD ADD CODESIZE DUP1 DUP1 PUSH2 0x10DE JUMP JUMPDEST DUP6 SLOAD DUP9 DUP5 ADD DUP6 ADD MSTORE SWAP5 DUP6 ADD SWAP5 DUP8 SWAP5 POP SWAP2 DUP4 ADD SWAP2 PUSH2 0x10FD JUMP JUMPDEST SWAP3 POP POP POP PUSH2 0x10ED SWAP5 SWAP3 POP PUSH1 0xFF NOT AND DUP3 DUP5 ADD MSTORE ISZERO ISZERO PUSH1 0x5 SHL DUP3 ADD ADD CODESIZE DUP1 DUP1 PUSH2 0x10DE JUMP JUMPDEST MLOAD SWAP1 PUSH1 0x1 PUSH1 0x1 PUSH1 0xA0 SHL SUB DUP3 AND DUP3 SUB PUSH2 0xFC4 JUMPI JUMP JUMPDEST MLOAD SWAP1 DUP2 ISZERO ISZERO DUP3 SUB PUSH2 0xFC4 JUMPI JUMP JUMPDEST DUP1 SWAP2 PUSH2 0x220 SWAP3 DUP4 SWAP2 SUB SLT PUSH2 0xFC4 JUMPI PUSH1 0x40 MLOAD SWAP2 DUP3 ADD DUP3 DUP2 LT PUSH8 0xFFFFFFFFFFFFFFFF DUP3 GT OR PUSH2 0x1057 JUMPI PUSH1 0x40 MSTORE DUP1 MLOAD DUP3 MSTORE PUSH1 0x20 DUP2 ADD MLOAD PUSH1 0x20 DUP4 ADD MSTORE PUSH1 0x40 DUP2 ADD MLOAD PUSH1 0x40 DUP4 ADD MSTORE PUSH1 0x60 DUP2 ADD MLOAD PUSH1 0x60 DUP4 ADD MSTORE PUSH1 0x80 DUP2 ADD MLOAD PUSH1 0x80 DUP4 ADD MSTORE PUSH1 0xA0 DUP2 ADD MLOAD PUSH1 0xA0 DUP4 ADD MSTORE PUSH2 0x11DD PUSH1 0xC0 DUP3 ADD PUSH2 0x1150 JUMP JUMPDEST PUSH1 0xC0 DUP4 ADD MSTORE PUSH2 0x11EE PUSH1 0xE0 DUP3 ADD PUSH2 0x1150 JUMP JUMPDEST PUSH1 0xE0 DUP4 ADD MSTORE PUSH2 0x100 PUSH2 0x1201 DUP2 DUP4 ADD PUSH2 0x1150 JUMP JUMPDEST SWAP1 DUP4 ADD MSTORE PUSH2 0x120 PUSH2 0x1213 DUP2 DUP4 ADD PUSH2 0x1150 JUMP JUMPDEST SWAP1 DUP4 ADD MSTORE PUSH2 0x140 PUSH2 0x1225 DUP2 DUP4 ADD PUSH2 0x1150 JUMP JUMPDEST SWAP1 DUP4 ADD MSTORE PUSH2 0x160 PUSH2 0x1237 DUP2 DUP4 ADD PUSH2 0x1150 JUMP JUMPDEST SWAP1 DUP4 ADD MSTORE PUSH2 0x180 PUSH2 0x1249 DUP2 DUP4 ADD PUSH2 0x1150 JUMP JUMPDEST SWAP1 DUP4 ADD MSTORE PUSH2 0x1A0 PUSH2 0x125B DUP2 DUP4 ADD PUSH2 0x1150 JUMP JUMPDEST SWAP1 DUP4 ADD MSTORE PUSH2 0x1C0 DUP1 DUP3 ADD MLOAD SWAP1 PUSH1 0x15 DUP3 LT ISZERO PUSH2 0xFC4 JUMPI DUP4 ADD MSTORE PUSH2 0x1E0 PUSH2 0x1281 DUP2 DUP4 ADD PUSH2 0x1164 JUMP JUMPDEST SWAP1 DUP4 ADD MSTORE PUSH2 0x1293 PUSH2 0x200 DUP1 SWAP3 ADD PUSH2 0x1164 JUMP JUMPDEST SWAP1 DUP3 ADD MSTORE SWAP1 JUMP JUMPDEST ISZERO PUSH2 0x12A1 JUMPI JUMP JUMPDEST PUSH1 0x40 MLOAD PUSH3 0x461BCD PUSH1 0xE5 SHL DUP2 MSTORE PUSH1 0x20 PUSH1 0x4 DUP3 ADD MSTORE PUSH1 0x1B PUSH1 0x24 DUP3 ADD MSTORE PUSH32 0x4F6E6C7920437573746F6D20262054617820417574686F726974790000000000 PUSH1 0x44 DUP3 ADD MSTORE PUSH1 0x64 SWAP1 REVERT INVALID LOG2 PUSH5 0x6970667358 0x22 SLT KECCAK256 DUP6 TSTORE 0xA5 SUB LOG0 0xD7 DUP7 0xB8 0x4D PUSH11 0x9B3350476A2114A03723A1 DUP1 0xDC 0xA6 SELFDESTRUCT 0xC3 BASEFEE CODECOPY POP 0xE2 0xA8 PUSH6 0x64736F6C6343 STOP ADDMOD XOR STOP CALLER "},"methodIdentifiers":{"getBolIpfsHash(uint256)":"8dd62219","getVerification(uint256)":"58937cc8","issueBillOfLading(uint256,string)":"3eb3da48","payTaxAndRelease(uint256)":"ea8324e3","tradeRegistry()":"dbd97308","verifications(uint256)":"b90b0a10","verifyAsCustoms(uint256,uint8,uint256,string)":"345a83fa"}}}}}