{"contracts/TradeRegistry.sol":{"TradeRegistry":{"abi":[{"inputs":[],"stateMutability":"nonpayable","type":"constructor"},{"anonymous":false,"inputs":[{"indexed":true,"internalType":"uint256","name":"tradeId","type":"uint256"},{"indexed":true,"internalType":"address","name":"advisingBank","type":"address"}],"name":"AdvisingBankAssigned","type":"event"},{"anonymous":false,"inputs":[{"indexed":true,"internalType":"address","name":"contractAddress","type":"address"},{"indexed":true,"internalType":"bool","name":"authorized","type":"bool"}],"name":"ContractAuthorized","type":"event"},{"anonymous":false,"inputs":[{"indexed":true,"internalType":"uint256","name":"tradeId","type":"uint256"},{"indexed":true,"internalType":"address","name":"shippingCompany","type":"address"}],"name":"ShippingCompanyAssigned","type":"event"},{"anonymous":false,"inputs":[{"indexed":true,"internalType":"uint256","name":"tradeId","type":"uint256"},{"indexed":true,"internalType":"address","name":"confirmedBy","type":"address"}],"name":"TradeConfirmed","type":"event"},{"anonymous":false,"inputs":[{"indexed":true,"internalType":"uint256","name":"tradeId","type":"uint256"},{"indexed":true,"internalType":"address","name":"importer","type":"address"},{"indexed":true,"internalType":"address","name":"exporter","type":"address"},{"indexed":false,"internalType":"uint256","name":"amount","type":"uint256"}],"name":"TradeCreated","type":"event"},{"anonymous":false,"inputs":[{"indexed":true,"internalType":"uint256","name":"tradeId","type":"uint256"}],"name":"TradeInitiated","type":"event"},{"anonymous":false,"inputs":[{"indexed":true,"internalType":"uint256","name":"tradeId","type":"uint256"},{"indexed":false,"internalType":"enum TradeRegistry.TradeStatus","name":"oldStatus","type":"uint8"},{"indexed":false,"internalType":"enum TradeRegistry.TradeStatus","name":"newStatus","type":"uint8"}],"name":"TradeStatusUpdated","type":"event"},{"anonymous":false,"inputs":[{"indexed":true,"internalType":"uint256","name":"tradeId","type":"uint256"},{"indexed":true,"internalType":"uint256","name":"deadline","type":"uint256"}],"name":"VotingDeadlineSet","type":"event"},{"inputs":[{"internalType":"uint256","name":"tradeId","type":"uint256"},{"internalType":"address","name":"advisingBank","type":"address"}],"name":"assignAdvisingBank","outputs":[],"stateMutability":"nonpayable","type":"function"},{"inputs":[{"internalType":"uint256","name":"tradeId","type":"uint256"},{"internalType":"address","name":"shippingCompany","type":"address"}],"name":"assignShippingCompany","outputs":[],"stateMutability":"nonpayable","type":"function"},{"inputs":[{"internalType":"address","name":"","type":"address"}],"name":"authorizedContracts","outputs":[{"internalType":"bool","name":"","type":"bool"}],"stateMutability":"view","type":"function"},{"inputs":[{"internalType":"uint256","name":"tradeId","type":"uint256"}],"name":"confirmGoodsReceived","outputs":[],"stateMutability":"nonpayable","type":"function"},{"inputs":[{"internalType":"uint256","name":"tradeId","type":"uint256"}],"name":"confirmTrade","outputs":[],"stateMutability":"nonpayable","type":"function"},{"inputs":[{"internalType":"address","name":"exporter","type":"address"},{"internalType":"address","name":"issuingBank","type":"address"},{"internalType":"address","name":"advisingBank","type":"address"},{"internalType":"address","name":"inspector","type":"address"},{"internalType":"address","name":"customsAuthority","type":"address"},{"internalType":"address","name":"insuranceNode","type":"address"},{"internalType":"uint256","name":"amount","type":"uint256"},{"internalType":"uint256","name":"shippingDeadline","type":"uint256"},{"internalType":"uint256","name":"clearanceDeadline","type":"uint256"}],"name":"createTrade","outputs":[{"internalType":"uint256","name":"","type":"uint256"}],"stateMutability":"nonpayable","type":"function"},{"inputs":[{"internalType":"uint256","name":"tradeId","type":"uint256"}],"name":"getTrade","outputs":[{"components":[{"internalType":"uint256","name":"tradeId","type":"uint256"},{"internalType":"uint256","name":"amount","type":"uint256"},{"internalType":"uint256","name":"createdAt","type":"uint256"},{"internalType":"uint256","name":"shippingDeadline","type":"uint256"},{"internalType":"uint256","name":"clearanceDeadline","type":"uint256"},{"internalType":"uint256","name":"votingDeadline","type":"uint256"},{"internalType":"address","name":"importer","type":"address"},{"internalType":"address","name":"exporter","type":"address"},{"internalType":"address","name":"issuingBank","type":"address"},{"internalType":"address","name":"advisingBank","type":"address"},{"internalType":"address","name":"shippingCompany","type":"address"},{"internalType":"address","name":"inspector","type":"address"},{"internalType":"address","name":"customsAuthority","type":"address"},{"internalType":"address","name":"insuranceNode","type":"address"},{"internalType":"enum TradeRegistry.TradeStatus","name":"status","type":"uint8"},{"internalType":"bool","name":"importerConfirmed","type":"bool"},{"internalType":"bool","name":"exporterConfirmed","type":"bool"}],"internalType":"struct TradeRegistry.Trade","name":"","type":"tuple"}],"stateMutability":"view","type":"function"},{"inputs":[],"name":"nextTradeId","outputs":[{"internalType":"uint256","name":"","type":"uint256"}],"stateMutability":"view","type":"function"},{"inputs":[],"name":"owner","outputs":[{"internalType":"address","name":"","type":"address"}],"stateMutability":"view","type":"function"},{"inputs":[{"internalType":"uint256","name":"tradeId","type":"uint256"}],"name":"raiseDispute","outputs":[],"stateMutability":"nonpayable","type":"function"},{"inputs":[{"internalType":"uint256","name":"tradeId","type":"uint256"}],"name":"requestLetterOfCredit","outputs":[],"stateMutability":"nonpayable","type":"function"},{"inputs":[{"internalType":"address","name":"contractAddress","type":"address"},{"internalType":"bool","name":"authorized","type":"bool"}],"name":"setAuthorizedContract","outputs":[],"stateMutability":"nonpayable","type":"function"},{"inputs":[{"internalType":"uint256","name":"tradeId","type":"uint256"},{"internalType":"uint256","name":"deadline","type":"uint256"}],"name":"setVotingDeadline","outputs":[],"stateMutability":"nonpayable","type":"function"},{"inputs":[{"internalType":"uint256","name":"","type":"uint256"}],"name":"trades","outputs":[{"internalType":"uint256","name":"tradeId","type":"uint256"},{"internalType":"uint256","name":"amount","type":"uint256"},{"internalType":"uint256","name":"createdAt","type":"uint256"},{"internalType":"uint256","name":"shippingDeadline","type":"uint256"},{"internalType":"uint256","name":"clearanceDeadline","type":"uint256"},{"internalType":"uint256","name":"votingDeadline","type":"uint256"},{"internalType":"address","name":"importer","type":"address"},{"internalType":"address","name":"exporter","type":"address"},{"internalType":"address","name":"issuingBank","type":"address"},{"internalType":"address","name":"advisingBank","type":"address"},{"internalType":"address","name":"shippingCompany","type":"address"},{"internalType":"address","name":"inspector","type":"address"},{"internalType":"address","name":"customsAuthority","type":"address"},{"internalType":"address","name":"insuranceNode","type":"address"},{"internalType":"enum TradeRegistry.TradeStatus","name":"status","type":"uint8"},{"internalType":"bool","name":"importerConfirmed","type":"bool"},{"internalType":"bool","name":"exporterConfirmed","type":"bool"}],"stateMutability":"view","type":"function"},{"inputs":[{"internalType":"uint256","name":"tradeId","type":"uint256"}],"name":"triggerClearanceSLABreachRevert","outputs":[],"stateMutability":"nonpayable","type":"function"},{"inputs":[{"internalType":"uint256","name":"tradeId","type":"uint256"}],"name":"triggerSLABreachRevert","outputs":[],"stateMutability":"nonpayable","type":"function"},{"inputs":[{"internalType":"uint256","name":"tradeId","type":"uint256"},{"internalType":"enum TradeRegistry.TradeStatus","name":"newStatus","type":"uint8"}],"name":"updateStatus","outputs":[],"stateMutability":"nonpayable","type":"function"}],"evm":{"bytecode":{"linkReferences":{},"object":"60a0806040523461003857336080526116bb908161003e82396080518181816101090152818161022201528181610aa60152610b890152f35b600080fdfe6080604052600436101561001257600080fd5b60003560e01c80630a09ef381461144357806314feba52146113255780631e6c598e1461120a5780632db25e0514610f7d578063388c106214610eb157806338ccdb8914610bb75780633a1b3d3114610af3578063813ad08314610ad55780638da5cb5b14610a905780639ec0507f14610819578063a5c1674e14610643578063d16cc3a9146104d5578063d19cd4ca1461034c578063d5b9221b1461030d578063d5ddd89014610250578063eaf4c3bb146101aa5763f2fa7392146100d757600080fd5b346101a55760403660031901126101a5576100f0611530565b602435908115158092036101a5576001600160a01b03907f0000000000000000000000000000000000000000000000000000000000000000821633036101735716806000526001602052604060002060ff1981541660ff84161790557f3213ab8ec2ed122402f038736b41878b69ae9f61f49a7edd0666bce891d29fc9600080a3005b60405162461bcd60e51b815260206004820152600a60248201526927b7363c9037bbb732b960b11b6044820152606490fd5b600080fd5b346101a55760403660031901126101a5576004356024359033600052600160205260ff60406000205416801561021e575b6101e490611628565b806000526000602052816005604060002001557f679e547a135eb81b5aeb690cff99f977414bf222f65b8f36e301aa1ec3d89f4e600080a3005b50337f00000000000000000000000000000000000000000000000000000000000000006001600160a01b0316146101db565b346101a55760403660031901126101a55760043561026c61151a565b9080600052600060205260406000209160018060a01b038060078501541633036102d85760099116926102a08415156115b3565b0180546001600160a01b031916831790557ff6b6464c10c5a10fce3b6565f729a9efba6c35ed895010e0a1d31d18713dec70600080a3005b60405162461bcd60e51b815260206004820152600d60248201526c27b7363c9032bc3837b93a32b960991b6044820152606490fd5b346101a55760203660031901126101a5576001600160a01b0361032e611530565b166000526001602052602060ff604060002054166040519015158152f35b346101a5576020806003193601126101a5576004356000818152808352604090206008810154919290916001600160a01b0316330361049d57600d8201805460ff8160a01c169360158510156104875760058514801561047d575b1561043857600301544211156103f35760ff60a01b1916600960a11b179055604080516000805160206116668339815191529391929091601291906103ed908490611546565b820152a2005b60405162461bcd60e51b815260048101849052601960248201527f446561646c696e65206e6f7420796574206272656163686564000000000000006044820152606490fd5b60405162461bcd60e51b815260048101859052601d60248201527f496e76616c69642073746174757320666f7220534c41207265766572740000006044820152606490fd5b50600685146103a7565b634e487b7160e01b600052602160045260246000fd5b6064906040519062461bcd60e51b8252600482015260116024820152704f6e6c792069737375696e672062616e6b60781b6044820152fd5b346101a55760203660031901126101a557600435806000526000602052604060002061051860018060a01b03806008840154163314908115610633575b50611628565b600d81019081549060ff8260a01c1690601582101561048757600782148015610629575b156105d857600401544211156105875760ff60a01b19909116600960a11b17909155604080516000805160206116668339815191529261057d908290611546565b60126020820152a2005b60405162461bcd60e51b815260206004820152602360248201527f436c656172616e636520646561646c696e65206e6f74207965742062726561636044820152621a195960ea1b6064820152608490fd5b60405162461bcd60e51b815260206004820152602360248201527f496e76616c69642073746174757320666f7220636c656172616e636520726576604482015262195c9d60ea1b6064820152608490fd5b506009821461053c565b9050600683015416331484610512565b346101a5576020806003193601126101a557600435908160005260008152604060002060018060a01b03806006830154163314918215610808575b82156107f7575b82156107e6575b82156107d5575b82156107c4575b82156107b3575b82156107a2575b50501561076a578160005260008152600d6040600020019081549160ff8360a01c1692601584101561048757600f8414158061075f575b1561071a5760ff60a01b1916600160a41b179055604080516000805160206116668339815191529391929091601091906103ed908490611546565b60405162461bcd60e51b815260048101849052601d60248201527f43616e6e6f7420646973707574652066696e69736865642074726164650000006044820152606490fd5b5060128414156106df565b6064906040519062461bcd60e51b825260048201526011602482015270139bdd0818481c185c9d1a58da5c185b9d607a1b6044820152fd5b600d919250015416331483806106a8565b915080600c830154163314916106a1565b915080600b8301541633149161069a565b915080600a83015416331491610693565b91508060098301541633149161068c565b915080600883015416331491610685565b91508060078301541633149161067e565b346101a5576020806003193601126101a5576004359081600052600081526040600020600d810190815460ff91828260a01c16601581101561048757610a40576006810154336001600160a01b0391821614918291908215610a2f575b5050156109ea571561098757508154818160a81c166109425760ff60a81b1916600160a81b1782555b33847f4886270d3c681c8373359d1cfafb1a549453e43e452ce59a9eae87f8a23e50be600080a38154818160a81c1680610936575b6108da57005b600080516020611666833981519152936103ed6001926040958460a01b60ff60a01b1983161790558551948591897fc40a4f74d715da2ee96119fbf8d8da1df0f5b79e92c3fd855f1ddc102d51d047600080a260a01c16611546565b50818160b01c166108d4565b60405162461bcd60e51b815260048101859052601a60248201527f496d706f7274657220616c726561647920636f6e6669726d65640000000000006044820152606490fd5b818160b01c166109a55760ff60b01b1916600160b01b17825561089f565b60405162461bcd60e51b815260048101859052601a60248201527f4578706f7274657220616c726561647920636f6e6669726d65640000000000006044820152606490fd5b60405162461bcd60e51b815260048101869052601960248201527f4f6e6c7920696d706f72746572206f72206578706f72746572000000000000006044820152606490fd5b600791925001541633148780610876565b60405162461bcd60e51b815260048101869052602260248201527f5472616465206e6f7420696e204f464645525f41434345505445442073746174604482015261757360f01b6064820152608490fd5b346101a55760003660031901126101a5576040517f00000000000000000000000000000000000000000000000000000000000000006001600160a01b03168152602090f35b346101a55760003660031901126101a5576020600254604051908152f35b346101a55760403660031901126101a55760043560243560158110156101a55760406000805160206116668339815191529133600052600160205260ff8260002054168015610b85575b610b4690611628565b836000526000602052610b82600d836000200191610b6c8160ff855460a01c169461158f565b610b7884518094611546565b6020830190611546565ba2005b50337f00000000000000000000000000000000000000000000000000000000000000006001600160a01b031614610b3d565b346101a5576101203660031901126101a557610bd1611530565b610bd961151a565b90604435906001600160a01b03821682036101a5576064356001600160a01b03811681036101a5576084356001600160a01b03811681036101a55760a435916001600160a01b03831683036101a557600254946000198614610e9b5760018601600255610c446115f1565b9686885260c435602089015242604089015260e4356060890152610104356080890152600060a08901523360c089015260018060a01b03861660e089015260018060a01b031661010088015260018060a01b0316610120870152600061014087015260018060a01b031661016086015260018060a01b031661018085015260018060a01b03166101a084015260006101c084015260006101e084015260006102008401528160005260006020526040600020835181556020840151600182015560408401516002820155606084015160038201556080840151600482015560a08401516005820155600d600682019160018060a01b0360c087015116926bffffffffffffffffffffffff60a01b93848254161790556007810160018060a01b0360e088015116848254161790556008810160018060a01b0361010088015116848254161790556009810160018060a01b036101208801511684825416179055600a810160018060a01b036101408801511684825416179055600b810160018060a01b036101608801511684825416179055600c810160018060a01b036101808801511684825416179055019060018060a01b036101a086015116908254161781556101c084015193601585101561048757610e216020958361158f565b6101e081015182546102009092015161ffff60a81b1990921690151560a81b60ff60a81b161790151560b01b60ff60b01b1617905560405160c43581526001600160a01b0390911690339083907f7db1856a9087992b8c7c25a7f1622a9b144ff325953aee6bbb6d38d762c189f6908690a4604051908152f35b634e487b7160e01b600052601160045260246000fd5b346101a55760203660031901126101a557600435806000526000602052600d6040600020610eec60018060a01b036006830154163314611553565b01805460ff8160a01c1660158110156104875760088103610f425760ff60a01b19909116600360a21b179091556040805160008051602061166683398151915292610f38908290611546565b600c6020820152a2005b60405162461bcd60e51b815260206004820152601360248201527210dd5cdd1bdb5cc81b9bdd0818db19585c9959606a1b6044820152606490fd5b346101a55760203660031901126101a5576000610200610f9b6115f1565b8281528260208201528260408201528260608201528260808201528260a08201528260c08201528260e08201528261010082015282610120820152826101408201528261016082015282610180820152826101a0820152826101c0820152826101e0820152015260043560005260006020526040600020600d61101c6115f1565b8254815260018301546020820152600283015460408201526003830154606082015260048301546080820152600583015460a08083019190915260068401546001600160a01b0390811660c08401526007850154811660e08401526008850154811661010084015260098501548116610120840152600a8501548116610140840152600b8501548116610160840152600c850154811661018084015292909301549182166101a0820152909160159083901c60ff1610156104875760ff82816102209460a01c166101c0840152818160a81c1615156101e084015260b01c16151561020082015261020060405191805183526020810151602084015260408101516040840152606081015160608401526080810151608084015260a081015160a084015260018060a01b0360c08201511660c084015260018060a01b0360e08201511660e084015260018060a01b036101008201511661010084015260018060a01b036101208201511661012084015260018060a01b036101408201511661014084015260018060a01b036101608201511661016084015260018060a01b036101808201511661018084015260018060a01b036101a0820151166101a08401526111f06101c08201516101c0850190611546565b6101e081015115156101e084015201511515610200820152f35b346101a55760203660031901126101a557600480356000908152602081815260409182902080546001820154600283015460038401549684015460058501546006860154600787015460088801546009890154600a8a0154600b8b0154600c8c0154600d909c01548e519b8c529c8b01999099529b890196909652606088019b909b52608087019390935260a0808701929092526001600160a01b0390811660c087015291821660e086015297811661010085015290811661012084015294851661014083015284166101608201529083166101808201529181166101a08301529091611302906101c084019083901c60ff16611546565b8060a81c60ff1615156101e083015260b01c60ff16151561020082015261022090f35b346101a55760403660031901126101a55760043561134161151a565b816000526000602052604060002060018060a01b0390611368826006830154163314611553565b600d8101805460ff8160a01c16926015841015610487576005840361140757600a6040956000805160206116668339815191529716916113a98315156115b3565b0180546001600160a01b03191682179055867f2c66f56eae5b05d816c95cd687f6688b9df61f75e38f75cb9cc3a190358c5b64600080a360ff60a01b1916600360a11b1790558151906113fd908290611546565b60066020820152a2005b60405162461bcd60e51b8152602060048201526014602482015273119d5b991cc81b9bdd081b1bd8dad959081e595d60621b6044820152606490fd5b346101a55760203660031901126101a557600435806000526000602052600d604060002061147e60018060a01b036006830154163314611553565b01805460ff8160a01c16601581101561048757600181148015611512575b156114dc5760ff60a01b19909116600160a11b1790915560408051600080516020611666833981519152926114d2908290611546565b60026020820152a2005b60405162461bcd60e51b815260206004820152600e60248201526d496e76616c69642073746174757360901b6044820152606490fd5b50801561149c565b602435906001600160a01b03821682036101a557565b600435906001600160a01b03821682036101a557565b9060158210156104875752565b1561155a57565b60405162461bcd60e51b815260206004820152600d60248201526c27b7363c9034b6b837b93a32b960991b6044820152606490fd5b90601581101561048757815460ff60a01b191660a09190911b60ff60a01b16179055565b156115ba57565b60405162461bcd60e51b815260206004820152600f60248201526e496e76616c6964206164647265737360881b6044820152606490fd5b60405190610220820182811067ffffffffffffffff82111761161257604052565b634e487b7160e01b600052604160045260246000fd5b1561162f57565b60405162461bcd60e51b815260206004820152600e60248201526d139bdd08185d5d1a1bdc9a5e995960921b6044820152606490fdfefcb82c5664d9b8ca92b30878bddea2bb0fc8804c7ac6dc8f781a1cd8b94e8effa2646970667358221220cc5d7cc01602ef8dc117c63f0db5d4da895992f8b52fe6aa1292ec4bf95856b864736f6c63430008180033","opcodes":"PUSH1 0xA0 DUP1 PUSH1 0x40 MSTORE CALLVALUE PUSH2 0x38 JUMPI CALLER PUSH1 0x80 MSTORE PUSH2 0x16BB SWAP1 DUP2 PUSH2 0x3E DUP3 CODECOPY PUSH1 0x80 MLOAD DUP2 DUP2 DUP2 PUSH2 0x109 ADD MSTORE DUP2 DUP2 PUSH2 0x222 ADD MSTORE DUP2 DUP2 PUSH2 0xAA6 ADD MSTORE PUSH2 0xB89 ADD MSTORE RETURN JUMPDEST PUSH1 0x0 DUP1 REVERT INVALID PUSH1 0x80 PUSH1 0x40 MSTORE PUSH1 0x4 CALLDATASIZE LT ISZERO PUSH2 0x12 JUMPI PUSH1 0x0 DUP1 REVERT JUMPDEST PUSH1 0x0 CALLDATALOAD PUSH1 0xE0 SHR DUP1 PUSH4 0xA09EF38 EQ PUSH2 0x1443 JUMPI DUP1 PUSH4 0x14FEBA52 EQ PUSH2 0x1325 JUMPI DUP1 PUSH4 0x1E6C598E EQ PUSH2 0x120A JUMPI DUP1 PUSH4 0x2DB25E05 EQ PUSH2 0xF7D JUMPI DUP1 PUSH4 0x388C1062 EQ PUSH2 0xEB1 JUMPI DUP1 PUSH4 0x38CCDB89 EQ PUSH2 0xBB7 JUMPI DUP1 PUSH4 0x3A1B3D31 EQ PUSH2 0xAF3 JUMPI DUP1 PUSH4 0x813AD083 EQ PUSH2 0xAD5 JUMPI DUP1 PUSH4 0x8DA5CB5B EQ PUSH2 0xA90 JUMPI DUP1 PUSH4 0x9EC0507F EQ PUSH2 0x819 JUMPI DUP1 PUSH4 0xA5C1674E EQ PUSH2 0x643 JUMPI DUP1 PUSH4 0xD16CC3A9 EQ PUSH2 0x4D5 JUMPI DUP1 PUSH4 0xD19CD4CA EQ PUSH2 0x34C JUMPI DUP1 PUSH4 0xD5B9221B EQ PUSH2 0x30D JUMPI DUP1 PUSH4 0xD5DDD890 EQ PUSH2 0x250 JUMPI DUP1 PUSH4 0xEAF4C3BB EQ PUSH2 0x1AA JUMPI PUSH4 0xF2FA7392 EQ PUSH2 0xD7 JUMPI PUSH1 0x0 DUP1 REVERT JUMPDEST CALLVALUE PUSH2 0x1A5 JUMPI PUSH1 0x40 CALLDATASIZE PUSH1 0x3 NOT ADD SLT PUSH2 0x1A5 JUMPI PUSH2 0xF0 PUSH2 0x1530 JUMP JUMPDEST PUSH1 0x24 CALLDATALOAD SWAP1 DUP2 ISZERO ISZERO DUP1 SWAP3 SUB PUSH2 0x1A5 JUMPI PUSH1 0x1 PUSH1 0x1 PUSH1 0xA0 SHL SUB SWAP1 PUSH32 0x0 DUP3 AND CALLER SUB PUSH2 0x173 JUMPI AND DUP1 PUSH1 0x0 MSTORE PUSH1 0x1 PUSH1 0x20 MSTORE PUSH1 0x40 PUSH1 0x0 KECCAK256 PUSH1 0xFF NOT DUP2 SLOAD AND PUSH1 0xFF DUP5 AND OR SWAP1 SSTORE PUSH32 0x3213AB8EC2ED122402F038736B41878B69AE9F61F49A7EDD0666BCE891D29FC9 PUSH1 0x0 DUP1 LOG3 STOP JUMPDEST PUSH1 0x40 MLOAD PUSH3 0x461BCD PUSH1 0xE5 SHL DUP2 MSTORE PUSH1 0x20 PUSH1 0x4 DUP3 ADD MSTORE PUSH1 0xA PUSH1 0x24 DUP3 ADD MSTORE PUSH10 0x27B7363C9037BBB732B9 PUSH1 0xB1 SHL PUSH1 0x44 DUP3 ADD MSTORE PUSH1 0x64 SWAP1 REVERT JUMPDEST PUSH1 0x0 DUP1 REVERT JUMPDEST CALLVALUE PUSH2 0x1A5 JUMPI PUSH1 0x40 CALLDATASIZE PUSH1 0x3 NOT ADD SLT PUSH2 0x1A5 JUMPI PUSH1 0x4 CALLDATALOAD PUSH1 0x24 CALLDATALOAD SWAP1 CALLER PUSH1 0x0 MSTORE PUSH1 0x1 PUSH1 0x20 MSTORE PUSH1 0xFF PUSH1 0x40 PUSH1 0x0 KECCAK256 SLOAD AND DUP1 ISZERO PUSH2 0x21E JUMPI JUMPDEST PUSH2 0x1E4 SWAP1 PUSH2 0x1628 JUMP JUMPDEST DUP1 PUSH1 0x0 MSTORE PUSH1 0x0 PUSH1 0x20 MSTORE DUP2 PUSH1 0x5 PUSH1 0x40 PUSH1 0x0 KECCAK256 ADD SSTORE PUSH32 0x679E547A135EB81B5AEB690CFF99F977414BF222F65B8F36E301AA1EC3D89F4E PUSH1 0x0 DUP1 LOG3 STOP JUMPDEST POP CALLER PUSH32 0x0 PUSH1 0x1 PUSH1 0x1 PUSH1 0xA0 SHL SUB AND EQ PUSH2 0x1DB JUMP JUMPDEST CALLVALUE PUSH2 0x1A5 JUMPI PUSH1 0x40 CALLDATASIZE PUSH1 0x3 NOT ADD SLT PUSH2 0x1A5 JUMPI PUSH1 0x4 CALLDATALOAD PUSH2 0x26C PUSH2 0x151A JUMP JUMPDEST SWAP1 DUP1 PUSH1 0x0 MSTORE PUSH1 0x0 PUSH1 0x20 MSTORE PUSH1 0x40 PUSH1 0x0 KECCAK256 SWAP2 PUSH1 0x1 DUP1 PUSH1 0xA0 SHL SUB DUP1 PUSH1 0x7 DUP6 ADD SLOAD AND CALLER SUB PUSH2 0x2D8 JUMPI PUSH1 0x9 SWAP2 AND SWAP3 PUSH2 0x2A0 DUP5 ISZERO ISZERO PUSH2 0x15B3 JUMP JUMPDEST ADD DUP1 SLOAD PUSH1 0x1 PUSH1 0x1 PUSH1 0xA0 SHL SUB NOT AND DUP4 OR SWAP1 SSTORE PUSH32 0xF6B6464C10C5A10FCE3B6565F729A9EFBA6C35ED895010E0A1D31D18713DEC70 PUSH1 0x0 DUP1 LOG3 STOP JUMPDEST PUSH1 0x40 MLOAD PUSH3 0x461BCD PUSH1 0xE5 SHL DUP2 MSTORE PUSH1 0x20 PUSH1 0x4 DUP3 ADD MSTORE PUSH1 0xD PUSH1 0x24 DUP3 ADD MSTORE PUSH13 0x27B7363C9032BC3837B93A32B9 PUSH1 0x99 SHL PUSH1 0x44 DUP3 ADD MSTORE PUSH1 0x64 SWAP1 REVERT JUMPDEST CALLVALUE PUSH2 0x1A5 JUMPI PUSH1 0x20 CALLDATASIZE PUSH1 0x3 NOT ADD SLT PUSH2 0x1A5 JUMPI PUSH1 0x1 PUSH1 0x1 PUSH1 0xA0 SHL SUB PUSH2 0x32E PUSH2 0x1530 JUMP JUMPDEST AND PUSH1 0x0 MSTORE PUSH1 0x1 PUSH1 0x20 MSTORE PUSH1 0x20 PUSH1 0xFF PUSH1 0x40 PUSH1 0x0 KECCAK256 SLOAD AND PUSH1 0x40 MLOAD SWAP1 ISZERO ISZERO DUP2 MSTORE RETURN JUMPDEST CALLVALUE PUSH2 0x1A5 JUMPI PUSH1 0x20 DUP1 PUSH1 0x3 NOT CALLDATASIZE ADD SLT PUSH2 0x1A5 JUMPI PUSH1 0x4 CALLDATALOAD PUSH1 0x0 DUP2 DUP2 MSTORE DUP1 DUP4 MSTORE PUSH1 0x40 SWAP1 KECCAK256 PUSH1 0x8 DUP2 ADD SLOAD SWAP2 SWAP3 SWAP1 SWAP2 PUSH1 0x1 PUSH1 0x1 PUSH1 0xA0 SHL SUB AND CALLER SUB PUSH2 0x49D JUMPI PUSH1 0xD DUP3 ADD DUP1 SLOAD PUSH1 0xFF DUP2 PUSH1 0xA0 SHR AND SWAP4 PUSH1 0x15 DUP6 LT ISZERO PUSH2 0x487 JUMPI PUSH1 0x5 DUP6 EQ DUP1 ISZERO PUSH2 0x47D JUMPI JUMPDEST ISZERO PUSH2 0x438 JUMPI PUSH1 0x3 ADD SLOAD TIMESTAMP GT ISZERO PUSH2 0x3F3 JUMPI PUSH1 0xFF PUSH1 0xA0 SHL NOT AND PUSH1 0x9 PUSH1 0xA1 SHL OR SWAP1 SSTORE PUSH1 0x40 DUP1 MLOAD PUSH1 0x0 DUP1 MLOAD PUSH1 0x20 PUSH2 0x1666 DUP4 CODECOPY DUP2 MLOAD SWAP2 MSTORE SWAP4 SWAP2 SWAP3 SWAP1 SWAP2 PUSH1 0x12 SWAP2 SWAP1 PUSH2 0x3ED SWAP1 DUP5 SWAP1 PUSH2 0x1546 JUMP JUMPDEST DUP3 ADD MSTORE LOG2 STOP JUMPDEST PUSH1 0x40 MLOAD PUSH3 0x461BCD PUSH1 0xE5 SHL DUP2 MSTORE PUSH1 0x4 DUP2 ADD DUP5 SWAP1 MSTORE PUSH1 0x19 PUSH1 0x24 DUP3 ADD MSTORE PUSH32 0x446561646C696E65206E6F742079657420627265616368656400000000000000 PUSH1 0x44 DUP3 ADD MSTORE PUSH1 0x64 SWAP1 REVERT JUMPDEST PUSH1 0x40 MLOAD PUSH3 0x461BCD PUSH1 0xE5 SHL DUP2 MSTORE PUSH1 0x4 DUP2 ADD DUP6 SWAP1 MSTORE PUSH1 0x1D PUSH1 0x24 DUP3 ADD MSTORE PUSH32 0x496E76616C69642073746174757320666F7220534C4120726576657274000000 PUSH1 0x44 DUP3 ADD MSTORE PUSH1 0x64 SWAP1 REVERT JUMPDEST POP PUSH1 0x6 DUP6 EQ PUSH2 0x3A7 JUMP JUMPDEST PUSH4 0x4E487B71 PUSH1 0xE0 SHL PUSH1 0x0 MSTORE PUSH1 0x21 PUSH1 0x4 MSTORE PUSH1 0x24 PUSH1 0x0 REVERT JUMPDEST PUSH1 0x64 SWAP1 PUSH1 0x40 MLOAD SWAP1 PUSH3 0x461BCD PUSH1 0xE5 SHL DUP3 MSTORE PUSH1 0x4 DUP3 ADD MSTORE PUSH1 0x11 PUSH1 0x24 DUP3 ADD MSTORE PUSH17 0x4F6E6C792069737375696E672062616E6B PUSH1 0x78 SHL PUSH1 0x44 DUP3 ADD MSTORE REVERT JUMPDEST CALLVALUE PUSH2 0x1A5 JUMPI PUSH1 0x20 CALLDATASIZE PUSH1 0x3 NOT ADD SLT PUSH2 0x1A5 JUMPI PUSH1 0x4 CALLDATALOAD DUP1 PUSH1 0x0 MSTORE PUSH1 0x0 PUSH1 0x20 MSTORE PUSH1 0x40 PUSH1 0x0 KECCAK256 PUSH2 0x518 PUSH1 0x1 DUP1 PUSH1 0xA0 SHL SUB DUP1 PUSH1 0x8 DUP5 ADD SLOAD AND CALLER EQ SWAP1 DUP2 ISZERO PUSH2 0x633 JUMPI JUMPDEST POP PUSH2 0x1628 JUMP JUMPDEST PUSH1 0xD DUP2 ADD SWAP1 DUP2 SLOAD SWAP1 PUSH1 0xFF DUP3 PUSH1 0xA0 SHR AND SWAP1 PUSH1 0x15 DUP3 LT ISZERO PUSH2 0x487 JUMPI PUSH1 0x7 DUP3 EQ DUP1 ISZERO PUSH2 0x629 JUMPI JUMPDEST ISZERO PUSH2 0x5D8 JUMPI PUSH1 0x4 ADD SLOAD TIMESTAMP GT ISZERO PUSH2 0x587 JUMPI PUSH1 0xFF PUSH1 0xA0 SHL NOT SWAP1 SWAP2 AND PUSH1 0x9 PUSH1 0xA1 SHL OR SWAP1 SWAP2 SSTORE PUSH1 0x40 DUP1 MLOAD PUSH1 0x0 DUP1 MLOAD PUSH1 0x20 PUSH2 0x1666 DUP4 CODECOPY DUP2 MLOAD SWAP2 MSTORE SWAP3 PUSH2 0x57D SWAP1 DUP3 SWAP1 PUSH2 0x1546 JUMP JUMPDEST PUSH1 0x12 PUSH1 0x20 DUP3 ADD MSTORE LOG2 STOP JUMPDEST PUSH1 0x40 MLOAD PUSH3 0x461BCD PUSH1 0xE5 SHL DUP2 MSTORE PUSH1 0x20 PUSH1 0x4 DUP3 ADD MSTORE PUSH1 0x23 PUSH1 0x24 DUP3 ADD MSTORE PUSH32 0x436C656172616E636520646561646C696E65206E6F7420796574206272656163 PUSH1 0x44 DUP3 ADD MSTORE PUSH3 0x1A1959 PUSH1 0xEA SHL PUSH1 0x64 DUP3 ADD MSTORE PUSH1 0x84 SWAP1 REVERT JUMPDEST PUSH1 0x40 MLOAD PUSH3 0x461BCD PUSH1 0xE5 SHL DUP2 MSTORE PUSH1 0x20 PUSH1 0x4 DUP3 ADD MSTORE PUSH1 0x23 PUSH1 0x24 DUP3 ADD MSTORE PUSH32 0x496E76616C69642073746174757320666F7220636C656172616E636520726576 PUSH1 0x44 DUP3 ADD MSTORE PUSH3 0x195C9D PUSH1 0xEA SHL PUSH1 0x64 DUP3 ADD MSTORE PUSH1 0x84 SWAP1 REVERT JUMPDEST POP PUSH1 0x9 DUP3 EQ PUSH2 0x53C JUMP JUMPDEST SWAP1 POP PUSH1 0x6 DUP4 ADD SLOAD AND CALLER EQ DUP5 PUSH2 0x512 JUMP JUMPDEST CALLVALUE PUSH2 0x1A5 JUMPI PUSH1 0x20 DUP1 PUSH1 0x3 NOT CALLDATASIZE ADD SLT PUSH2 0x1A5 JUMPI PUSH1 0x4 CALLDATALOAD SWAP1 DUP2 PUSH1 0x0 MSTORE PUSH1 0x0 DUP2 MSTORE PUSH1 0x40 PUSH1 0x0 KECCAK256 PUSH1 0x1 DUP1 PUSH1 0xA0 SHL SUB DUP1 PUSH1 0x6 DUP4 ADD SLOAD AND CALLER EQ SWAP2 DUP3 ISZERO PUSH2 0x808 JUMPI JUMPDEST DUP3 ISZERO PUSH2 0x7F7 JUMPI JUMPDEST DUP3 ISZERO PUSH2 0x7E6 JUMPI JUMPDEST DUP3 ISZERO PUSH2 0x7D5 JUMPI JUMPDEST DUP3 ISZERO PUSH2 0x7C4 JUMPI JUMPDEST DUP3 ISZERO PUSH2 0x7B3 JUMPI JUMPDEST DUP3 ISZERO PUSH2 0x7A2 JUMPI JUMPDEST POP POP ISZERO PUSH2 0x76A JUMPI DUP2 PUSH1 0x0 MSTORE PUSH1 0x0 DUP2 MSTORE PUSH1 0xD PUSH1 0x40 PUSH1 0x0 KECCAK256 ADD SWAP1 DUP2 SLOAD SWAP2 PUSH1 0xFF DUP4 PUSH1 0xA0 SHR AND SWAP3 PUSH1 0x15 DUP5 LT ISZERO PUSH2 0x487 JUMPI PUSH1 0xF DUP5 EQ ISZERO DUP1 PUSH2 0x75F JUMPI JUMPDEST ISZERO PUSH2 0x71A JUMPI PUSH1 0xFF PUSH1 0xA0 SHL NOT AND PUSH1 0x1 PUSH1 0xA4 SHL OR SWAP1 SSTORE PUSH1 0x40 DUP1 MLOAD PUSH1 0x0 DUP1 MLOAD PUSH1 0x20 PUSH2 0x1666 DUP4 CODECOPY DUP2 MLOAD SWAP2 MSTORE SWAP4 SWAP2 SWAP3 SWAP1 SWAP2 PUSH1 0x10 SWAP2 SWAP1 PUSH2 0x3ED SWAP1 DUP5 SWAP1 PUSH2 0x1546 JUMP JUMPDEST PUSH1 0x40 MLOAD PUSH3 0x461BCD PUSH1 0xE5 SHL DUP2 MSTORE PUSH1 0x4 DUP2 ADD DUP5 SWAP1 MSTORE PUSH1 0x1D PUSH1 0x24 DUP3 ADD MSTORE PUSH32 0x43616E6E6F7420646973707574652066696E6973686564207472616465000000 PUSH1 0x44 DUP3 ADD MSTORE PUSH1 0x64 SWAP1 REVERT JUMPDEST POP PUSH1 0x12 DUP5 EQ ISZERO PUSH2 0x6DF JUMP JUMPDEST PUSH1 0x64 SWAP1 PUSH1 0x40 MLOAD SWAP1 PUSH3 0x461BCD PUSH1 0xE5 SHL DUP3 MSTORE PUSH1 0x4 DUP3 ADD MSTORE PUSH1 0x11 PUSH1 0x24 DUP3 ADD MSTORE PUSH17 0x139BDD0818481C185C9D1A58DA5C185B9D PUSH1 0x7A SHL PUSH1 0x44 DUP3 ADD MSTORE REVERT JUMPDEST PUSH1 0xD SWAP2 SWAP3 POP ADD SLOAD AND CALLER EQ DUP4 DUP1 PUSH2 0x6A8 JUMP JUMPDEST SWAP2 POP DUP1 PUSH1 0xC DUP4 ADD SLOAD AND CALLER EQ SWAP2 PUSH2 0x6A1 JUMP JUMPDEST SWAP2 POP DUP1 PUSH1 0xB DUP4 ADD SLOAD AND CALLER EQ SWAP2 PUSH2 0x69A JUMP JUMPDEST SWAP2 POP DUP1 PUSH1 0xA DUP4 ADD SLOAD AND CALLER EQ SWAP2 PUSH2 0x693 JUMP JUMPDEST SWAP2 POP DUP1 PUSH1 0x9 DUP4 ADD SLOAD AND CALLER EQ SWAP2 PUSH2 0x68C JUMP JUMPDEST SWAP2 POP DUP1 PUSH1 0x8 DUP4 ADD SLOAD AND CALLER EQ SWAP2 PUSH2 0x685 JUMP JUMPDEST SWAP2 POP DUP1 PUSH1 0x7 DUP4 ADD SLOAD AND CALLER EQ SWAP2 PUSH2 0x67E JUMP JUMPDEST CALLVALUE PUSH2 0x1A5 JUMPI PUSH1 0x20 DUP1 PUSH1 0x3 NOT CALLDATASIZE ADD SLT PUSH2 0x1A5 JUMPI PUSH1 0x4 CALLDATALOAD SWAP1 DUP2 PUSH1 0x0 MSTORE PUSH1 0x0 DUP2 MSTORE PUSH1 0x40 PUSH1 0x0 KECCAK256 PUSH1 0xD DUP2 ADD SWAP1 DUP2 SLOAD PUSH1 0xFF SWAP2 DUP3 DUP3 PUSH1 0xA0 SHR AND PUSH1 0x15 DUP2 LT ISZERO PUSH2 0x487 JUMPI PUSH2 0xA40 JUMPI PUSH1 0x6 DUP2 ADD SLOAD CALLER PUSH1 0x1 PUSH1 0x1 PUSH1 0xA0 SHL SUB SWAP2 DUP3 AND EQ SWAP2 DUP3 SWAP2 SWAP1 DUP3 ISZERO PUSH2 0xA2F JUMPI JUMPDEST POP POP ISZERO PUSH2 0x9EA JUMPI ISZERO PUSH2 0x987 JUMPI POP DUP2 SLOAD DUP2 DUP2 PUSH1 0xA8 SHR AND PUSH2 0x942 JUMPI PUSH1 0xFF PUSH1 0xA8 SHL NOT AND PUSH1 0x1 PUSH1 0xA8 SHL OR DUP3 SSTORE JUMPDEST CALLER DUP5 PUSH32 0x4886270D3C681C8373359D1CFAFB1A549453E43E452CE59A9EAE87F8A23E50BE PUSH1 0x0 DUP1 LOG3 DUP2 SLOAD DUP2 DUP2 PUSH1 0xA8 SHR AND DUP1 PUSH2 0x936 JUMPI JUMPDEST PUSH2 0x8DA JUMPI STOP JUMPDEST PUSH1 0x0 DUP1 MLOAD PUSH1 0x20 PUSH2 0x1666 DUP4 CODECOPY DUP2 MLOAD SWAP2 MSTORE SWAP4 PUSH2 0x3ED PUSH1 0x1 SWAP3 PUSH1 0x40 SWAP6 DUP5 PUSH1 0xA0 SHL PUSH1 0xFF PUSH1 0xA0 SHL NOT DUP4 AND OR SWAP1 SSTORE DUP6 MLOAD SWAP5 DUP6 SWAP2 DUP10 PUSH32 0xC40A4F74D715DA2EE96119FBF8D8DA1DF0F5B79E92C3FD855F1DDC102D51D047 PUSH1 0x0 DUP1 LOG2 PUSH1 0xA0 SHR AND PUSH2 0x1546 JUMP JUMPDEST POP DUP2 DUP2 PUSH1 0xB0 SHR AND PUSH2 0x8D4 JUMP JUMPDEST PUSH1 0x40 MLOAD PUSH3 0x461BCD PUSH1 0xE5 SHL DUP2 MSTORE PUSH1 0x4 DUP2 ADD DUP6 SWAP1 MSTORE PUSH1 0x1A PUSH1 0x24 DUP3 ADD MSTORE PUSH32 0x496D706F7274657220616C726561647920636F6E6669726D6564000000000000 PUSH1 0x44 DUP3 ADD MSTORE PUSH1 0x64 SWAP1 REVERT JUMPDEST DUP2 DUP2 PUSH1 0xB0 SHR AND PUSH2 0x9A5 JUMPI PUSH1 0xFF PUSH1 0xB0 SHL NOT AND PUSH1 0x1 PUSH1 0xB0 SHL OR DUP3 SSTORE PUSH2 0x89F JUMP JUMPDEST PUSH1 0x40 MLOAD PUSH3 0x461BCD PUSH1 0xE5 SHL DUP2 MSTORE PUSH1 0x4 DUP2 ADD DUP6 SWAP1 MSTORE PUSH1 0x1A PUSH1 0x24 DUP3 ADD MSTORE PUSH32 0x4578706F7274657220616C726561647920636F6E6669726D6564000000000000 PUSH1 0x44 DUP3 ADD MSTORE PUSH1 0x64 SWAP1 REVERT JUMPDEST PUSH1 0x40 MLOAD PUSH3 0x461BCD PUSH1 0xE5 SHL DUP2 MSTORE PUSH1 0x4 DUP2 ADD DUP7 SWAP1 MSTORE PUSH1 0x19 PUSH1 0x24 DUP3 ADD MSTORE PUSH32 0x4F6E6C7920696D706F72746572206F72206578706F7274657200000000000000 PUSH1 0x44 DUP3 ADD MSTORE PUSH1 0x64 SWAP1 REVERT JUMPDEST PUSH1 0x7 SWAP2 SWAP3 POP ADD SLOAD AND CALLER EQ DUP8 DUP1 PUSH2 0x876 JUMP JUMPDEST PUSH1 0x40 MLOAD PUSH3 0x461BCD PUSH1 0xE5 SHL DUP2 MSTORE PUSH1 0x4 DUP2 ADD DUP7 SWAP1 MSTORE PUSH1 0x22 PUSH1 0x24 DUP3 ADD MSTORE PUSH32 0x5472616465206E6F7420696E204F464645525F41434345505445442073746174 PUSH1 0x44 DUP3 ADD MSTORE PUSH2 0x7573 PUSH1 0xF0 SHL PUSH1 0x64 DUP3 ADD MSTORE PUSH1 0x84 SWAP1 REVERT JUMPDEST CALLVALUE PUSH2 0x1A5 JUMPI PUSH1 0x0 CALLDATASIZE PUSH1 0x3 NOT ADD SLT PUSH2 0x1A5 JUMPI PUSH1 0x40 MLOAD PUSH32 0x0 PUSH1 0x1 PUSH1 0x1 PUSH1 0xA0 SHL SUB AND DUP2 MSTORE PUSH1 0x20 SWAP1 RETURN JUMPDEST CALLVALUE PUSH2 0x1A5 JUMPI PUSH1 0x0 CALLDATASIZE PUSH1 0x3 NOT ADD SLT PUSH2 0x1A5 JUMPI PUSH1 0x20 PUSH1 0x2 SLOAD PUSH1 0x40 MLOAD SWAP1 DUP2 MSTORE RETURN JUMPDEST CALLVALUE PUSH2 0x1A5 JUMPI PUSH1 0x40 CALLDATASIZE PUSH1 0x3 NOT ADD SLT PUSH2 0x1A5 JUMPI PUSH1 0x4 CALLDATALOAD PUSH1 0x24 CALLDATALOAD PUSH1 0x15 DUP2 LT ISZERO PUSH2 0x1A5 JUMPI PUSH1 0x40 PUSH1 0x0 DUP1 MLOAD PUSH1 0x20 PUSH2 0x1666 DUP4 CODECOPY DUP2 MLOAD SWAP2 MSTORE SWAP2 CALLER PUSH1 0x0 MSTORE PUSH1 0x1 PUSH1 0x20 MSTORE PUSH1 0xFF DUP3 PUSH1 0x0 KECCAK256 SLOAD AND DUP1 ISZERO PUSH2 0xB85 JUMPI JUMPDEST PUSH2 0xB46 SWAP1 PUSH2 0x1628 JUMP JUMPDEST DUP4 PUSH1 0x0 MSTORE PUSH1 0x0 PUSH1 0x20 MSTORE PUSH2 0xB82 PUSH1 0xD DUP4 PUSH1 0x0 KECCAK256 ADD SWAP2 PUSH2 0xB6C DUP2 PUSH1 0xFF DUP6 SLOAD PUSH1 0xA0 SHR AND SWAP5 PUSH2 0x158F JUMP JUMPDEST PUSH2 0xB78 DUP5 MLOAD DUP1 SWAP5 PUSH2 0x1546 JUMP JUMPDEST PUSH1 0x20 DUP4 ADD SWAP1 PUSH2 0x1546 JUMP JUMPDEST LOG2 STOP JUMPDEST POP CALLER PUSH32 0x0 PUSH1 0x1 PUSH1 0x1 PUSH1 0xA0 SHL SUB AND EQ PUSH2 0xB3D JUMP JUMPDEST CALLVALUE PUSH2 0x1A5 JUMPI PUSH2 0x120 CALLDATASIZE PUSH1 0x3 NOT ADD SLT PUSH2 0x1A5 JUMPI PUSH2 0xBD1 PUSH2 0x1530 JUMP JUMPDEST PUSH2 0xBD9 PUSH2 0x151A JUMP JUMPDEST SWAP1 PUSH1 0x44 CALLDATALOAD SWAP1 PUSH1 0x1 PUSH1 0x1 PUSH1 0xA0 SHL SUB DUP3 AND DUP3 SUB PUSH2 0x1A5 JUMPI PUSH1 0x64 CALLDATALOAD PUSH1 0x1 PUSH1 0x1 PUSH1 0xA0 SHL SUB DUP2 AND DUP2 SUB PUSH2 0x1A5 JUMPI PUSH1 0x84 CALLDATALOAD PUSH1 0x1 PUSH1 0x1 PUSH1 0xA0 SHL SUB DUP2 AND DUP2 SUB PUSH2 0x1A5 JUMPI PUSH1 0xA4 CALLDATALOAD SWAP2 PUSH1 0x1 PUSH1 0x1 PUSH1 0xA0 SHL SUB DUP4 AND DUP4 SUB PUSH2 0x1A5 JUMPI PUSH1 0x2 SLOAD SWAP5 PUSH1 0x0 NOT DUP7 EQ PUSH2 0xE9B JUMPI PUSH1 0x1 DUP7 ADD PUSH1 0x2 SSTORE PUSH2 0xC44 PUSH2 0x15F1 JUMP JUMPDEST SWAP7 DUP7 DUP9 MSTORE PUSH1 0xC4 CALLDATALOAD PUSH1 0x20 DUP10 ADD MSTORE TIMESTAMP PUSH1 0x40 DUP10 ADD MSTORE PUSH1 0xE4 CALLDATALOAD PUSH1 0x60 DUP10 ADD MSTORE PUSH2 0x104 CALLDATALOAD PUSH1 0x80 DUP10 ADD MSTORE PUSH1 0x0 PUSH1 0xA0 DUP10 ADD MSTORE CALLER PUSH1 0xC0 DUP10 ADD MSTORE PUSH1 0x1 DUP1 PUSH1 0xA0 SHL SUB DUP7 AND PUSH1 0xE0 DUP10 ADD MSTORE PUSH1 0x1 DUP1 PUSH1 0xA0 SHL SUB AND PUSH2 0x100 DUP9 ADD MSTORE PUSH1 0x1 DUP1 PUSH1 0xA0 SHL SUB AND PUSH2 0x120 DUP8 ADD MSTORE PUSH1 0x0 PUSH2 0x140 DUP8 ADD MSTORE PUSH1 0x1 DUP1 PUSH1 0xA0 SHL SUB AND PUSH2 0x160 DUP7 ADD MSTORE PUSH1 0x1 DUP1 PUSH1 0xA0 SHL SUB AND PUSH2 0x180 DUP6 ADD MSTORE PUSH1 0x1 DUP1 PUSH1 0xA0 SHL SUB AND PUSH2 0x1A0 DUP5 ADD MSTORE PUSH1 0x0 PUSH2 0x1C0 DUP5 ADD MSTORE PUSH1 0x0 PUSH2 0x1E0 DUP5 ADD MSTORE PUSH1 0x0 PUSH2 0x200 DUP5 ADD MSTORE DUP2 PUSH1 0x0 MSTORE PUSH1 0x0 PUSH1 0x20 MSTORE PUSH1 0x40 PUSH1 0x0 KECCAK256 DUP4 MLOAD DUP2 SSTORE PUSH1 0x20 DUP5 ADD MLOAD PUSH1 0x1 DUP3 ADD SSTORE PUSH1 0x40 DUP5 ADD MLOAD PUSH1 0x2 DUP3 ADD SSTORE PUSH1 0x60 DUP5 ADD MLOAD PUSH1 0x3 DUP3 ADD SSTORE PUSH1 0x80 DUP5 ADD MLOAD PUSH1 0x4 DUP3 ADD SSTORE PUSH1 0xA0 DUP5 ADD MLOAD PUSH1 0x5 DUP3 ADD SSTORE PUSH1 0xD PUSH1 0x6 DUP3 ADD SWAP2 PUSH1 0x1 DUP1 PUSH1 0xA0 SHL SUB PUSH1 0xC0 DUP8 ADD MLOAD AND SWAP3 PUSH12 0xFFFFFFFFFFFFFFFFFFFFFFFF PUSH1 0xA0 SHL SWAP4 DUP5 DUP3 SLOAD AND OR SWAP1 SSTORE PUSH1 0x7 DUP2 ADD PUSH1 0x1 DUP1 PUSH1 0xA0 SHL SUB PUSH1 0xE0 DUP9 ADD MLOAD AND DUP5 DUP3 SLOAD AND OR SWAP1 SSTORE PUSH1 0x8 DUP2 ADD PUSH1 0x1 DUP1 PUSH1 0xA0 SHL SUB PUSH2 0x100 DUP9 ADD MLOAD AND DUP5 DUP3 SLOAD AND OR SWAP1 SSTORE PUSH1 0x9 DUP2 ADD PUSH1 0x1 DUP1 PUSH1 0xA0 SHL SUB PUSH2 0x120 DUP9 ADD MLOAD AND DUP5 DUP3 SLOAD AND OR SWAP1 SSTORE PUSH1 0xA DUP2 ADD PUSH1 0x1 DUP1 PUSH1 0xA0 SHL SUB PUSH2 0x140 DUP9 ADD MLOAD AND DUP5 DUP3 SLOAD AND OR SWAP1 SSTORE PUSH1 0xB DUP2 ADD PUSH1 0x1 DUP1 PUSH1 0xA0 SHL SUB PUSH2 0x160 DUP9 ADD MLOAD AND DUP5 DUP3 SLOAD AND OR SWAP1 SSTORE PUSH1 0xC DUP2 ADD PUSH1 0x1 DUP1 PUSH1 0xA0 SHL SUB PUSH2 0x180 DUP9 ADD MLOAD AND DUP5 DUP3 SLOAD AND OR SWAP1 SSTORE ADD SWAP1 PUSH1 0x1 DUP1 PUSH1 0xA0 SHL SUB PUSH2 0x1A0 DUP7 ADD MLOAD AND SWAP1 DUP3 SLOAD AND OR DUP2 SSTORE PUSH2 0x1C0 DUP5 ADD MLOAD SWAP4 PUSH1 0x15 DUP6 LT ISZERO PUSH2 0x487 JUMPI PUSH2 0xE21 PUSH1 0x20 SWAP6 DUP4 PUSH2 0x158F JUMP JUMPDEST PUSH2 0x1E0 DUP2 ADD MLOAD DUP3 SLOAD PUSH2 0x200 SWAP1 SWAP3 ADD MLOAD PUSH2 0xFFFF PUSH1 0xA8 SHL NOT SWAP1 SWAP3 AND SWAP1 ISZERO ISZERO PUSH1 0xA8 SHL PUSH1 0xFF PUSH1 0xA8 SHL AND OR SWAP1 ISZERO ISZERO PUSH1 0xB0 SHL PUSH1 0xFF PUSH1 0xB0 SHL AND OR SWAP1 SSTORE PUSH1 0x40 MLOAD PUSH1 0xC4 CALLDATALOAD DUP2 MSTORE PUSH1 0x1 PUSH1 0x1 PUSH1 0xA0 SHL SUB SWAP1 SWAP2 AND SWAP1 CALLER SWAP1 DUP4 SWAP1 PUSH32 0x7DB1856A9087992B8C7C25A7F1622A9B144FF325953AEE6BBB6D38D762C189F6 SWAP1 DUP7 SWAP1 LOG4 PUSH1 0x40 MLOAD SWAP1 DUP2 MSTORE RETURN JUMPDEST PUSH4 0x4E487B71 PUSH1 0xE0 SHL PUSH1 0x0 MSTORE PUSH1 0x11 PUSH1 0x4 MSTORE PUSH1 0x24 PUSH1 0x0 REVERT JUMPDEST CALLVALUE PUSH2 0x1A5 JUMPI PUSH1 0x20 CALLDATASIZE PUSH1 0x3 NOT ADD SLT PUSH2 0x1A5 JUMPI PUSH1 0x4 CALLDATALOAD DUP1 PUSH1 0x0 MSTORE PUSH1 0x0 PUSH1 0x20 MSTORE PUSH1 0xD PUSH1 0x40 PUSH1 0x0 KECCAK256 PUSH2 0xEEC PUSH1 0x1 DUP1 PUSH1 0xA0 SHL SUB PUSH1 0x6 DUP4 ADD SLOAD AND CALLER EQ PUSH2 0x1553 JUMP JUMPDEST ADD DUP1 SLOAD PUSH1 0xFF DUP2 PUSH1 0xA0 SHR AND PUSH1 0x15 DUP2 LT ISZERO PUSH2 0x487 JUMPI PUSH1 0x8 DUP2 SUB PUSH2 0xF42 JUMPI PUSH1 0xFF PUSH1 0xA0 SHL NOT SWAP1 SWAP2 AND PUSH1 0x3 PUSH1 0xA2 SHL OR SWAP1 SWAP2 SSTORE PUSH1 0x40 DUP1 MLOAD PUSH1 0x0 DUP1 MLOAD PUSH1 0x20 PUSH2 0x1666 DUP4 CODECOPY DUP2 MLOAD SWAP2 MSTORE SWAP3 PUSH2 0xF38 SWAP1 DUP3 SWAP1 PUSH2 0x1546 JUMP JUMPDEST PUSH1 0xC PUSH1 0x20 DUP3 ADD MSTORE LOG2 STOP JUMPDEST PUSH1 0x40 MLOAD PUSH3 0x461BCD PUSH1 0xE5 SHL DUP2 MSTORE PUSH1 0x20 PUSH1 0x4 DUP3 ADD MSTORE PUSH1 0x13 PUSH1 0x24 DUP3 ADD MSTORE PUSH19 0x10DD5CDD1BDB5CC81B9BDD0818DB19585C9959 PUSH1 0x6A SHL PUSH1 0x44 DUP3 ADD MSTORE PUSH1 0x64 SWAP1 REVERT JUMPDEST CALLVALUE PUSH2 0x1A5 JUMPI PUSH1 0x20 CALLDATASIZE PUSH1 0x3 NOT ADD SLT PUSH2 0x1A5 JUMPI PUSH1 0x0 PUSH2 0x200 PUSH2 0xF9B PUSH2 0x15F1 JUMP JUMPDEST DUP3 DUP2 MSTORE DUP3 PUSH1 0x20 DUP3 ADD MSTORE DUP3 PUSH1 0x40 DUP3 ADD MSTORE DUP3 PUSH1 0x60 DUP3 ADD MSTORE DUP3 PUSH1 0x80 DUP3 ADD MSTORE DUP3 PUSH1 0xA0 DUP3 ADD MSTORE DUP3 PUSH1 0xC0 DUP3 ADD MSTORE DUP3 PUSH1 0xE0 DUP3 ADD MSTORE DUP3 PUSH2 0x100 DUP3 ADD MSTORE DUP3 PUSH2 0x120 DUP3 ADD MSTORE DUP3 PUSH2 0x140 DUP3 ADD MSTORE DUP3 PUSH2 0x160 DUP3 ADD MSTORE DUP3 PUSH2 0x180 DUP3 ADD MSTORE DUP3 PUSH2 0x1A0 DUP3 ADD MSTORE DUP3 PUSH2 0x1C0 DUP3 ADD MSTORE DUP3 PUSH2 0x1E0 DUP3 ADD MSTORE ADD MSTORE PUSH1 0x4 CALLDATALOAD PUSH1 0x0 MSTORE PUSH1 0x0 PUSH1 0x20 MSTORE PUSH1 0x40 PUSH1 0x0 KECCAK256 PUSH1 0xD PUSH2 0x101C PUSH2 0x15F1 JUMP JUMPDEST DUP3 SLOAD DUP2 MSTORE PUSH1 0x1 DUP4 ADD SLOAD PUSH1 0x20 DUP3 ADD MSTORE PUSH1 0x2 DUP4 ADD SLOAD PUSH1 0x40 DUP3 ADD MSTORE PUSH1 0x3 DUP4 ADD SLOAD PUSH1 0x60 DUP3 ADD MSTORE PUSH1 0x4 DUP4 ADD SLOAD PUSH1 0x80 DUP3 ADD MSTORE PUSH1 0x5 DUP4 ADD SLOAD PUSH1 0xA0 DUP1 DUP4 ADD SWAP2 SWAP1 SWAP2 MSTORE PUSH1 0x6 DUP5 ADD SLOAD PUSH1 0x1 PUSH1 0x1 PUSH1 0xA0 SHL SUB SWAP1 DUP2 AND PUSH1 0xC0 DUP5 ADD MSTORE PUSH1 0x7 DUP6 ADD SLOAD DUP2 AND PUSH1 0xE0 DUP5 ADD MSTORE PUSH1 0x8 DUP6 ADD SLOAD DUP2 AND PUSH2 0x100 DUP5 ADD MSTORE PUSH1 0x9 DUP6 ADD SLOAD DUP2 AND PUSH2 0x120 DUP5 ADD MSTORE PUSH1 0xA DUP6 ADD SLOAD DUP2 AND PUSH2 0x140 DUP5 ADD MSTORE PUSH1 0xB DUP6 ADD SLOAD DUP2 AND PUSH2 0x160 DUP5 ADD MSTORE PUSH1 0xC DUP6 ADD SLOAD DUP2 AND PUSH2 0x180 DUP5 ADD MSTORE SWAP3 SWAP1 SWAP4 ADD SLOAD SWAP2 DUP3 AND PUSH2 0x1A0 DUP3 ADD MSTORE SWAP1 SWAP2 PUSH1 0x15 SWAP1 DUP4 SWAP1 SHR PUSH1 0xFF AND LT ISZERO PUSH2 0x487 JUMPI PUSH1 0xFF DUP3 DUP2 PUSH2 0x220 SWAP5 PUSH1 0xA0 SHR AND PUSH2 0x1C0 DUP5 ADD MSTORE DUP2 DUP2 PUSH1 0xA8 SHR AND ISZERO ISZERO PUSH2 0x1E0 DUP5 ADD MSTORE PUSH1 0xB0 SHR AND ISZERO ISZERO PUSH2 0x200 DUP3 ADD MSTORE PUSH2 0x200 PUSH1 0x40 MLOAD SWAP2 DUP1 MLOAD DUP4 MSTORE PUSH1 0x20 DUP2 ADD MLOAD PUSH1 0x20 DUP5 ADD MSTORE PUSH1 0x40 DUP2 ADD MLOAD PUSH1 0x40 DUP5 ADD MSTORE PUSH1 0x60 DUP2 ADD MLOAD PUSH1 0x60 DUP5 ADD MSTORE PUSH1 0x80 DUP2 ADD MLOAD PUSH1 0x80 DUP5 ADD MSTORE PUSH1 0xA0 DUP2 ADD MLOAD PUSH1 0xA0 DUP5 ADD MSTORE PUSH1 0x1 DUP1 PUSH1 0xA0 SHL SUB PUSH1 0xC0 DUP3 ADD MLOAD AND PUSH1 0xC0 DUP5 ADD MSTORE PUSH1 0x1 DUP1 PUSH1 0xA0 SHL SUB PUSH1 0xE0 DUP3 ADD MLOAD AND PUSH1 0xE0 DUP5 ADD MSTORE PUSH1 0x1 DUP1 PUSH1 0xA0 SHL SUB PUSH2 0x100 DUP3 ADD MLOAD AND PUSH2 0x100 DUP5 ADD MSTORE PUSH1 0x1 DUP1 PUSH1 0xA0 SHL SUB PUSH2 0x120 DUP3 ADD MLOAD AND PUSH2 0x120 DUP5 ADD MSTORE PUSH1 0x1 DUP1 PUSH1 0xA0 SHL SUB PUSH2 0x140 DUP3 ADD MLOAD AND PUSH2 0x140 DUP5 ADD MSTORE PUSH1 0x1 DUP1 PUSH1 0xA0 SHL SUB PUSH2 0x160 DUP3 ADD MLOAD AND PUSH2 0x160 DUP5 ADD MSTORE PUSH1 0x1 DUP1 PUSH1 0xA0 SHL SUB PUSH2 0x180 DUP3 ADD MLOAD AND PUSH2 0x180 DUP5 ADD MSTORE PUSH1 0x1 DUP1 PUSH1 0xA0 SHL SUB PUSH2 0x1A0 DUP3 ADD MLOAD AND PUSH2 0x1A0 DUP5 ADD MSTORE PUSH2 0x11F0 PUSH2 0x1C0 DUP3 ADD MLOAD PUSH2 0x1C0 DUP6 ADD SWAP1 PUSH2 0x1546 JUMP JUMPDEST PUSH2 0x1E0 DUP2 ADD MLOAD ISZERO ISZERO PUSH2 0x1E0 DUP5 ADD MSTORE ADD MLOAD ISZERO ISZERO PUSH2 0x200 DUP3 ADD MSTORE RETURN JUMPDEST CALLVALUE PUSH2 0x1A5 JUMPI PUSH1 0x20 CALLDATASIZE PUSH1 0x3 NOT ADD SLT PUSH2 0x1A5 JUMPI PUSH1 0x4 DUP1 CALLDATALOAD PUSH1 0x0 SWAP1 DUP2 MSTORE PUSH1 0x20 DUP2 DUP2 MSTORE PUSH1 0x40 SWAP2 DUP3 SWAP1 KECCAK256 DUP1 SLOAD PUSH1 0x1 DUP3 ADD SLOAD PUSH1 0x2 DUP4 ADD SLOAD PUSH1 0x3 DUP5 ADD SLOAD SWAP7 DUP5 ADD SLOAD PUSH1 0x5 DUP6 ADD SLOAD PUSH1 0x6 DUP7 ADD SLOAD PUSH1 0x7 DUP8 ADD SLOAD PUSH1 0x8 DUP9 ADD SLOAD PUSH1 0x9 DUP10 ADD SLOAD PUSH1 0xA DUP11 ADD SLOAD PUSH1 0xB DUP12 ADD SLOAD PUSH1 0xC DUP13 ADD SLOAD PUSH1 0xD SWAP1 SWAP13 ADD SLOAD DUP15 MLOAD SWAP12 DUP13 MSTORE SWAP13 DUP12 ADD SWAP10 SWAP1 SWAP10 MSTORE SWAP12 DUP10 ADD SWAP7 SWAP1 SWAP7 MSTORE PUSH1 0x60 DUP9 ADD SWAP12 SWAP1 SWAP12 MSTORE PUSH1 0x80 DUP8 ADD SWAP4 SWAP1 SWAP4 MSTORE PUSH1 0xA0 DUP1 DUP8 ADD SWAP3 SWAP1 SWAP3 MSTORE PUSH1 0x1 PUSH1 0x1 PUSH1 0xA0 SHL SUB SWAP1 DUP2 AND PUSH1 0xC0 DUP8 ADD MSTORE SWAP2 DUP3 AND PUSH1 0xE0 DUP7 ADD MSTORE SWAP8 DUP2 AND PUSH2 0x100 DUP6 ADD MSTORE SWAP1 DUP2 AND PUSH2 0x120 DUP5 ADD MSTORE SWAP5 DUP6 AND PUSH2 0x140 DUP4 ADD MSTORE DUP5 AND PUSH2 0x160 DUP3 ADD MSTORE SWAP1 DUP4 AND PUSH2 0x180 DUP3 ADD MSTORE SWAP2 DUP2 AND PUSH2 0x1A0 DUP4 ADD MSTORE SWAP1 SWAP2 PUSH2 0x1302 SWAP1 PUSH2 0x1C0 DUP5 ADD SWAP1 DUP4 SWAP1 SHR PUSH1 0xFF AND PUSH2 0x1546 JUMP JUMPDEST DUP1 PUSH1 0xA8 SHR PUSH1 0xFF AND ISZERO ISZERO PUSH2 0x1E0 DUP4 ADD MSTORE PUSH1 0xB0 SHR PUSH1 0xFF AND ISZERO ISZERO PUSH2 0x200 DUP3 ADD MSTORE PUSH2 0x220 SWAP1 RETURN JUMPDEST CALLVALUE PUSH2 0x1A5 JUMPI PUSH1 0x40 CALLDATASIZE PUSH1 0x3 NOT ADD SLT PUSH2 0x1A5 JUMPI PUSH1 0x4 CALLDATALOAD PUSH2 0x1341 PUSH2 0x151A JUMP JUMPDEST DUP2 PUSH1 0x0 MSTORE PUSH1 0x0 PUSH1 0x20 MSTORE PUSH1 0x40 PUSH1 0x0 KECCAK256 PUSH1 0x1 DUP1 PUSH1 0xA0 SHL SUB SWAP1 PUSH2 0x1368 DUP3 PUSH1 0x6 DUP4 ADD SLOAD AND CALLER EQ PUSH2 0x1553 JUMP JUMPDEST PUSH1 0xD DUP2 ADD DUP1 SLOAD PUSH1 0xFF DUP2 PUSH1 0xA0 SHR AND SWAP3 PUSH1 0x15 DUP5 LT ISZERO PUSH2 0x487 JUMPI PUSH1 0x5 DUP5 SUB PUSH2 0x1407 JUMPI PUSH1 0xA PUSH1 0x40 SWAP6 PUSH1 0x0 DUP1 MLOAD PUSH1 0x20 PUSH2 0x1666 DUP4 CODECOPY DUP2 MLOAD SWAP2 MSTORE SWAP8 AND SWAP2 PUSH2 0x13A9 DUP4 ISZERO ISZERO PUSH2 0x15B3 JUMP JUMPDEST ADD DUP1 SLOAD PUSH1 0x1 PUSH1 0x1 PUSH1 0xA0 SHL SUB NOT AND DUP3 OR SWAP1 SSTORE DUP7 PUSH32 0x2C66F56EAE5B05D816C95CD687F6688B9DF61F75E38F75CB9CC3A190358C5B64 PUSH1 0x0 DUP1 LOG3 PUSH1 0xFF PUSH1 0xA0 SHL NOT AND PUSH1 0x3 PUSH1 0xA1 SHL OR SWAP1 SSTORE DUP2 MLOAD SWAP1 PUSH2 0x13FD SWAP1 DUP3 SWAP1 PUSH2 0x1546 JUMP JUMPDEST PUSH1 0x6 PUSH1 0x20 DUP3 ADD MSTORE LOG2 STOP JUMPDEST PUSH1 0x40 MLOAD PUSH3 0x461BCD PUSH1 0xE5 SHL DUP2 MSTORE PUSH1 0x20 PUSH1 0x4 DUP3 ADD MSTORE PUSH1 0x14 PUSH1 0x24 DUP3 ADD MSTORE PUSH20 0x119D5B991CC81B9BDD081B1BD8DAD959081E595D PUSH1 0x62 SHL PUSH1 0x44 DUP3 ADD MSTORE PUSH1 0x64 SWAP1 REVERT JUMPDEST CALLVALUE PUSH2 0x1A5 JUMPI PUSH1 0x20 CALLDATASIZE PUSH1 0x3 NOT ADD SLT PUSH2 0x1A5 JUMPI PUSH1 0x4 CALLDATALOAD DUP1 PUSH1 0x0 MSTORE PUSH1 0x0 PUSH1 0x20 MSTORE PUSH1 0xD PUSH1 0x40 PUSH1 0x0 KECCAK256 PUSH2 0x147E PUSH1 0x1 DUP1 PUSH1 0xA0 SHL SUB PUSH1 0x6 DUP4 ADD SLOAD AND CALLER EQ PUSH2 0x1553 JUMP JUMPDEST ADD DUP1 SLOAD PUSH1 0xFF DUP2 PUSH1 0xA0 SHR AND PUSH1 0x15 DUP2 LT ISZERO PUSH2 0x487 JUMPI PUSH1 0x1 DUP2 EQ DUP1 ISZERO PUSH2 0x1512 JUMPI JUMPDEST ISZERO PUSH2 0x14DC JUMPI PUSH1 0xFF PUSH1 0xA0 SHL NOT SWAP1 SWAP2 AND PUSH1 0x1 PUSH1 0xA1 SHL OR SWAP1 SWAP2 SSTORE PUSH1 0x40 DUP1 MLOAD PUSH1 0x0 DUP1 MLOAD PUSH1 0x20 PUSH2 0x1666 DUP4 CODECOPY DUP2 MLOAD SWAP2 MSTORE SWAP3 PUSH2 0x14D2 SWAP1 DUP3 SWAP1 PUSH2 0x1546 JUMP JUMPDEST PUSH1 0x2 PUSH1 0x20 DUP3 ADD MSTORE LOG2 STOP JUMPDEST PUSH1 0x40 MLOAD PUSH3 0x461BCD PUSH1 0xE5 SHL DUP2 MSTORE PUSH1 0x20 PUSH1 0x4 DUP3 ADD MSTORE PUSH1 0xE PUSH1 0x24 DUP3 ADD MSTORE PUSH14 0x496E76616C696420737461747573 PUSH1 0x90 SHL PUSH1 0x44 DUP3 ADD MSTORE PUSH1 0x64 SWAP1 REVERT JUMPDEST POP DUP1 ISZERO PUSH2 0x149C JUMP JUMPDEST PUSH1 0x24 CALLDATALOAD SWAP1 PUSH1 0x1 PUSH1 0x1 PUSH1 0xA0 SHL SUB DUP3 AND DUP3 SUB PUSH2 0x1A5 JUMPI JUMP JUMPDEST PUSH1 0x4 CALLDATALOAD SWAP1 PUSH1 0x1 PUSH1 0x1 PUSH1 0xA0 SHL SUB DUP3 AND DUP3 SUB PUSH2 0x1A5 JUMPI JUMP JUMPDEST SWAP1 PUSH1 0x15 DUP3 LT ISZERO PUSH2 0x487 JUMPI MSTORE JUMP JUMPDEST ISZERO PUSH2 0x155A JUMPI JUMP JUMPDEST PUSH1 0x40 MLOAD PUSH3 0x461BCD PUSH1 0xE5 SHL DUP2 MSTORE PUSH1 0x20 PUSH1 0x4 DUP3 ADD MSTORE PUSH1 0xD PUSH1 0x24 DUP3 ADD MSTORE PUSH13 0x27B7363C9034B6B837B93A32B9 PUSH1 0x99 SHL PUSH1 0x44 DUP3 ADD MSTORE PUSH1 0x64 SWAP1 REVERT JUMPDEST SWAP1 PUSH1 0x15 DUP2 LT ISZERO PUSH2 0x487 JUMPI DUP2 SLOAD PUSH1 0xFF PUSH1 0xA0 SHL NOT AND PUSH1 0xA0 SWAP2 SWAP1 SWAP2 SHL PUSH1 0xFF PUSH1 0xA0 SHL AND OR SWAP1 SSTORE JUMP JUMPDEST ISZERO PUSH2 0x15BA JUMPI JUMP JUMPDEST PUSH1 0x40 MLOAD PUSH3 0x461BCD PUSH1 0xE5 SHL DUP2 MSTORE PUSH1 0x20 PUSH1 0x4 DUP3 ADD MSTORE PUSH1 0xF PUSH1 0x24 DUP3 ADD MSTORE PUSH15 0x496E76616C69642061646472657373 PUSH1 0x88 SHL PUSH1 0x44 DUP3 ADD MSTORE PUSH1 0x64 SWAP1 REVERT JUMPDEST PUSH1 0x40 MLOAD SWAP1 PUSH2 0x220 DUP3 ADD DUP3 DUP2 LT PUSH8 0xFFFFFFFFFFFFFFFF DUP3 GT OR PUSH2 0x1612 JUMPI PUSH1 0x40 MSTORE JUMP JUMPDEST PUSH4 0x4E487B71 PUSH1 0xE0 SHL PUSH1 0x0 MSTORE PUSH1 0x41 PUSH1 0x4 MSTORE PUSH1 0x24 PUSH1 0x0 REVERT JUMPDEST ISZERO PUSH2 0x162F JUMPI JUMP JUMPDEST PUSH1 0x40 MLOAD PUSH3 0x461BCD PUSH1 0xE5 SHL DUP2 MSTORE PUSH1 0x20 PUSH1 0x4 DUP3 ADD MSTORE PUSH1 0xE PUSH1 0x24 DUP3 ADD MSTORE PUSH14 0x139BDD08185D5D1A1BDC9A5E9959 PUSH1 0x92 SHL PUSH1 0x44 DUP3 ADD MSTORE PUSH1 0x64 SWAP1 REVERT INVALID 0xFC 0xB8 0x2C JUMP PUSH5 0xD9B8CA92B3 ADDMOD PUSH25 0xBDDEA2BB0FC8804C7AC6DC8F781A1CD8B94E8EFFA264697066 PUSH20 0x58221220CC5D7CC01602EF8DC117C63F0DB5D4DA DUP10 MSIZE SWAP3 0xF8 0xB5 0x2F 0xE6 0xAA SLT SWAP3 0xEC 0x4B 0xF9 PC JUMP 0xB8 PUSH5 0x736F6C6343 STOP ADDMOD XOR STOP CALLER "},"methodIdentifiers":{"assignAdvisingBank(uint256,address)":"d5ddd890","assignShippingCompany(uint256,address)":"14feba52","authorizedContracts(address)":"d5b9221b","confirmGoodsReceived(uint256)":"388c1062","confirmTrade(uint256)":"9ec0507f","createTrade(address,address,address,address,address,address,uint256,uint256,uint256)":"38ccdb89","getTrade(uint256)":"2db25e05","nextTradeId()":"813ad083","owner()":"8da5cb5b","raiseDispute(uint256)":"a5c1674e","requestLetterOfCredit(uint256)":"0a09ef38","setAuthorizedContract(address,bool)":"f2fa7392","setVotingDeadline(uint256,uint256)":"eaf4c3bb","trades(uint256)":"1e6c598e","triggerClearanceSLABreachRevert(uint256)":"d16cc3a9","triggerSLABreachRevert(uint256)":"d19cd4ca","updateStatus(uint256,uint8)":"3a1b3d31"}}}}}