{"contracts/ConsensusDispute.sol":{"ConsensusDispute":{"abi":[{"inputs":[{"internalType":"address","name":"_tradeRegistry","type":"address"}],"stateMutability":"nonpayable","type":"constructor"},{"anonymous":false,"inputs":[{"indexed":true,"internalType":"uint256","name":"tradeId","type":"uint256"},{"indexed":true,"internalType":"uint256","name":"votingDeadline","type":"uint256"},{"indexed":true,"internalType":"address","name":"activatedBy","type":"address"}],"name":"DisputeActivated","type":"event"},{"anonymous":false,"inputs":[{"indexed":true,"internalType":"uint256","name":"tradeId","type":"uint256"},{"indexed":false,"internalType":"bool","name":"decision","type":"bool"},{"indexed":false,"internalType":"enum ConsensusDispute.CargoStatus","name":"cargoStatus","type":"uint8"}],"name":"InspectorDecisionSubmitted","type":"event"},{"anonymous":false,"inputs":[{"indexed":true,"internalType":"uint256","name":"tradeId","type":"uint256"}],"name":"SLABreachTriggered","type":"event"},{"anonymous":false,"inputs":[{"indexed":true,"internalType":"uint256","name":"tradeId","type":"uint256"},{"indexed":true,"internalType":"address","name":"voter","type":"address"},{"indexed":false,"internalType":"enum ConsensusDispute.Vote","name":"vote","type":"uint8"}],"name":"VoteCast","type":"event"},{"anonymous":false,"inputs":[{"indexed":true,"internalType":"uint256","name":"tradeId","type":"uint256"},{"indexed":false,"internalType":"uint256","name":"revertVotes","type":"uint256"},{"indexed":false,"internalType":"uint256","name":"noRevertVotes","type":"uint256"},{"indexed":false,"internalType":"enum TradeRegistry.TradeStatus","name":"outcome","type":"uint8"}],"name":"VotingFinalized","type":"event"},{"inputs":[],"name":"VOTE_THRESHOLD","outputs":[{"internalType":"uint256","name":"","type":"uint256"}],"stateMutability":"view","type":"function"},{"inputs":[],"name":"VOTING_DURATION","outputs":[{"internalType":"uint256","name":"","type":"uint256"}],"stateMutability":"view","type":"function"},{"inputs":[{"internalType":"uint256","name":"tradeId","type":"uint256"},{"internalType":"string","name":"evidenceIpfsHash","type":"string"}],"name":"activateVoting","outputs":[],"stateMutability":"nonpayable","type":"function"},{"inputs":[{"internalType":"uint256","name":"tradeId","type":"uint256"},{"internalType":"enum ConsensusDispute.Vote","name":"vote","type":"uint8"}],"name":"castVote","outputs":[],"stateMutability":"nonpayable","type":"function"},{"inputs":[{"internalType":"uint256","name":"","type":"uint256"}],"name":"disputes","outputs":[{"internalType":"uint256","name":"tradeId","type":"uint256"},{"internalType":"string","name":"evidenceIpfsHash","type":"string"},{"internalType":"bool","name":"active","type":"bool"},{"internalType":"bool","name":"finalized","type":"bool"},{"internalType":"uint256","name":"votingDeadline","type":"uint256"},{"internalType":"uint256","name":"totalRevertVotes","type":"uint256"},{"internalType":"uint256","name":"totalNoRevertVotes","type":"uint256"},{"internalType":"uint256","name":"totalVotesCast","type":"uint256"}],"stateMutability":"view","type":"function"},{"inputs":[{"internalType":"uint256","name":"tradeId","type":"uint256"}],"name":"finalizeVoting","outputs":[],"stateMutability":"nonpayable","type":"function"},{"inputs":[{"internalType":"uint256","name":"tradeId","type":"uint256"}],"name":"getInspectorDecision","outputs":[{"internalType":"bool","name":"submitted","type":"bool"},{"internalType":"bool","name":"decision","type":"bool"},{"internalType":"enum ConsensusDispute.CargoStatus","name":"cargoStatus","type":"uint8"},{"internalType":"string","name":"notes","type":"string"}],"stateMutability":"view","type":"function"},{"inputs":[{"internalType":"uint256","name":"tradeId","type":"uint256"}],"name":"getVotingSummary","outputs":[{"internalType":"bool","name":"active","type":"bool"},{"internalType":"bool","name":"finalized","type":"bool"},{"internalType":"uint256","name":"votingDeadline","type":"uint256"},{"internalType":"uint256","name":"revertVotes","type":"uint256"},{"internalType":"uint256","name":"noRevertVotes","type":"uint256"},{"internalType":"uint256","name":"totalVotesCast","type":"uint256"}],"stateMutability":"view","type":"function"},{"inputs":[{"internalType":"uint256","name":"","type":"uint256"}],"name":"inspectorDecisions","outputs":[{"internalType":"bool","name":"submitted","type":"bool"},{"internalType":"bool","name":"decision","type":"bool"},{"internalType":"enum ConsensusDispute.CargoStatus","name":"cargoStatus","type":"uint8"},{"internalType":"string","name":"notes","type":"string"}],"stateMutability":"view","type":"function"},{"inputs":[{"internalType":"uint256","name":"tradeId","type":"uint256"},{"internalType":"bool","name":"decision","type":"bool"},{"internalType":"enum ConsensusDispute.CargoStatus","name":"cargoStatus","type":"uint8"},{"internalType":"string","name":"notes","type":"string"}],"name":"submitInspectorDecision","outputs":[],"stateMutability":"nonpayable","type":"function"},{"inputs":[],"name":"tradeRegistry","outputs":[{"internalType":"contract TradeRegistry","name":"","type":"address"}],"stateMutability":"view","type":"function"},{"inputs":[{"internalType":"uint256","name":"tradeId","type":"uint256"}],"name":"triggerVotingSLABreach","outputs":[],"stateMutability":"nonpayable","type":"function"}],"evm":{"bytecode":{"linkReferences":{},"object":"60a03461008757601f61156838819003918201601f19168301916001600160401b0383118484101761008c5780849260209460405283398101031261008757516001600160a01b03811690819003610087576080526040516114c590816100a3823960805181818160ba0152818161013f0152818161077301528181610ad701526113dd0152f35b600080fd5b634e487b7160e01b600052604160045260246000fdfe6040608081526004908136101561001557600080fd5b600091823560e01c9081631cf9f47d146105a957816329046cc514610eb25781634944483114610e25578163564a565d14610d8f5781635678138814610a325781635f9a71fe146106f8578163a0ef4d0e146106db578163a438d208146106bd578163aefa8eaa146105fe578163b92b23a3146105a9578163cdbceb25146100ed575063dbd97308146100a757600080fd5b346100e957816003193601126100e957517f00000000000000000000000000000000000000000000000000000000000000006001600160a01b03168152602090f35b5080fd5b8383346100e957806003193601126100e95760249067ffffffffffffffff843583358281116105a55761012390369088016110d7565b8451632db25e0560e01b81528881018490526001600160a01b037f000000000000000000000000000000000000000000000000000000000000000081169392916102209081818b81895afa91821561059b578b9261056e575b50506101c0810151601581101561055c57600a0361050b57858a526020918a835260ff60028a8d200154166104d1578060c08301511633149182156104c0575b82156104ae575b821561049c575b821561048a575b8215610478575b8215610466575b505015610425576201518042019586421161041357858a52898252878a20928684556001928385019282116104015790829161021e8a96959454610fac565b601f81116103a9575b508c8091601f84116001146103405750906003969783610335575b505060001982871b1c191690831b1790555b600282019060ff1982541617905501558351963384847f2dbd83ca5c9bb71f73c65204e8361ca7d41fb2fde537130e903e03d69177edc48a80a4813b1561031357633a1b3d3160e01b8852808801839052600b86890152868860448183865af1801561032b57610317575b869750813b15610313578660449281958751988996879563eaf4c3bb60e01b87528601528401525af190811561030a57506102f75750f35b61030090610fe6565b6103075780f35b80fd5b513d84823e3d90fd5b8680fd5b95909661032390610fe6565b9486906102bf565b85513d89823e3d90fd5b013590508e80610242565b84825280822093989291601f198a16915b82821061038f57505091859391896003999a9410610377575b505050811b019055610254565b013560001983891b60f8161c191690558e808061036a565b8484013586558d9950948701949283019290810190610351565b90919280949596508d52818d20601f840160051c8101918385106103f7575b8b979695949392918f91601f0160051c0191905b8282106103ea575050610227565b81558b975085018e6103dc565b90915081906103c8565b634e487b7160e01b8c5260418d528a8cfd5b634e487b7160e01b8a5260118b52888afd5b896017896064938a519362461bcd60e51b85528401528201527f4e6f742061207472616465207061727469636970616e740000000000000000006044820152fd5b61012091925001511633148b806101df565b915080610100830151163314916101d8565b9150806101a0830151163314916101d1565b915080610180830151163314916101ca565b915080610160830151163314916101c3565b91508060e0830151163314916101bc565b885162461bcd60e51b8152808d018490526015818c015274566f74696e6720616c72656164792061637469766560581b6044820152606490fd5b875162461bcd60e51b81526020818d01526026818b01527f5472616465206d75737420626520696e20454e5452595f52454a45435445442060448201526573746174757360d01b6064820152608490fd5b634e487b7160e01b8b5260218c52898bfd5b61058d9250803d10610594575b6105858183611010565b8101906111f7565b8b8061017c565b503d61057b565b89513d8d823e3d90fd5b8580fd5b9050346105fa5760203660031901126105fa579181923581526001602052206105f66105d9600183549301611032565b9251928260ff859460101c169060ff808260081c16911685610f79565b0390f35b8280fd5b9050346105fa5760203660031901126105fa5780359182845283602052600381852061063f60ff600283015461063582821661110a565b60081c161561114a565b015442111561067a578361067784807ffec6c4317fb3ca3b10e4c4fb07a703400312db0d97a77b485bf5815bb95ce53a8480a2611352565b80f35b906020606492519162461bcd60e51b8352820152601c60248201527f566f74696e6720646561646c696e65206e6f74206272656163686564000000006044820152fd5b5050346100e957816003193601126100e95760209051620151808152f35b919050346105fa57826003193601126105fa576020925051908152f35b8383346100e95760803660031901126100e9578235906024803590811515809203610a2e576044359060038210156105a55767ffffffffffffffff606435818111610a2a5761074a9036908a016110d7565b8651632db25e0560e01b8152808b01899052909991906001600160a01b039061022090818188817f000000000000000000000000000000000000000000000000000000000000000087165afa918215610a20579061016092918d92610a03575b505001511633036109d0578789526020938985526107df60ff60028a8d2001546107d582821661110a565b60081c161561118a565b888a52600192838652888b20805460ff811661098357908580926108028b610f19565b62ff00008b60101b169062ffffff191661ff008d60081b16171717815501948c116109725750506108338354610fac565b601f811161092c575b508890601f8b116001146108ac5799809281928b9c7f8814a2bc92aacb0c56f32882f151c2de15311c26abd002c40cb3aace6751c4139b9c946108a1575b50501b916000199060031b1c19161790555b835192835261089a82610f19565b820152a280f35b013592508c8061087a565b9990601f1982169a848b52858b20918b5b8d81106109175750837f8814a2bc92aacb0c56f32882f151c2de15311c26abd002c40cb3aace6751c4139b9c9d106108fd575b505050811b01905561088c565b0135600019600384901b60f8161c191690558a80806108f0565b828201358455928501929087019087016108bd565b838a52848a20601f8c0160051c810191868d10610968575b601f0160051c019083905b82811061095d57505061083c565b8b815501839061094f565b9091508190610944565b634e487b7160e01b8b526041905289fd5b608483858a8e519262461bcd60e51b8452830152808201527f496e73706563746f72206465636973696f6e20616c7265616479207375626d696044820152631d1d195960e21b6064820152fd5b865162461bcd60e51b8152602081840152600e818601526d27b7363c9024b739b832b1ba37b960911b6044820152606490fd5b610a199250803d10610594576105858183611010565b8d806107aa565b8a513d8e823e3d90fd5b8780fd5b8480fd5b919050346105fa57806003193601126105fa57813591602491823560038110156105a557848652602086815282872092610a7760ff60028601546107d582821661110a565b60038401544211610d39576007840133895280835260ff828a205416610d0757610aa084610f19565b6001841496878015610cf4575b15610cc4578251632db25e0560e01b81528781018a9052610220906001600160a01b0390828185817f000000000000000000000000000000000000000000000000000000000000000086165afa928315610cba578d93610c9b575b50508060c0830151163314918215610c8a575b8215610c78575b8215610c66575b8215610c54575b8215610c42575b8215610c30575b505015610bfb57508594939288927feba4866100b822f0f391e610e7edfab790b9e8766c0012733c26b2f1858e8dd792338c528252808b20600160ff198254161790556006860198610b908a54611320565b8a55610b9b86610f19565b15610be657868601610bad8154611320565b90555b5193610bbb81610f19565b84523393a3015410610bd1575061067790611352565b54600714610bdd575080f35b61067790611352565b60058601610bf48154611320565b9055610bb0565b8660116064928686519362461bcd60e51b8552840152820152704e6f74206120766f74696e67206e6f646560781b6044820152fd5b61012091925001511633143880610b3e565b91508061010083015116331491610b37565b9150806101a083015116331491610b30565b91508061018083015116331491610b29565b91508061016083015116331491610b22565b91508060e083015116331491610b1b565b610cb2929350803d10610594576105858183611010565b903880610b08565b86513d8f823e3d90fd5b86600c6064928686519362461bcd60e51b85528401528201526b496e76616c696420766f746560a01b6044820152fd5b50610cfe85610f19565b60028514610aad565b815162461bcd60e51b8152808701849052600d818901526c105b1c9958591e481d9bdd1959609a1b6044820152606490fd5b5162461bcd60e51b815280850191909152602b818601527f566f74696e6720706572696f642065787069726564202d2063616c6c2066696e60448201526a616c697a65566f74696e6760a81b6064820152608490fd5b9050823461030757602036600319011261030757829082358152806020522091825491610dbe60018501611032565b936002810154916003820154908201549060ff6006600585015494015494610df88751998a99610100908b528060208c01528a0190610f39565b9682821615159089015260081c1615156060870152608086015260a085015260c084015260e08301520390f35b9050346105fa5760203660031901126105fa57803591828452836020526003818520610e5c60ff600283015461063582821661110a565b0154421115610e6f578361067784611352565b906020606492519162461bcd60e51b8352820152601d60248201527f566f74696e6720706572696f64206e6f742079657420657870697265640000006044820152fd5b919050346105fa5760203660031901126105fa578060c09383358152806020522060028101549260038201549082015490600660058401549301549360ff8151968181161515885260081c16151560208701528501526060840152608083015260a0820152f35b60031115610f2357565b634e487b7160e01b600052602160045260246000fd5b919082519283825260005b848110610f65575050826000602080949584010152601f8019910116010190565b602081830181015184830182015201610f44565b9092608092610fa995941515835215156020830152610f9781610f19565b60408201528160608201520190610f39565b90565b90600182811c92168015610fdc575b6020831014610fc657565b634e487b7160e01b600052602260045260246000fd5b91607f1691610fbb565b67ffffffffffffffff8111610ffa57604052565b634e487b7160e01b600052604160045260246000fd5b90601f8019910116810190811067ffffffffffffffff821117610ffa57604052565b9060405191826000825461104581610fac565b908184526020946001916001811690816000146110b55750600114611076575b50505061107492500383611010565b565b600090815285812095935091905b81831061109d5750506110749350820101388080611065565b85548884018501529485019487945091830191611084565b9250505061107494925060ff191682840152151560051b820101388080611065565b9181601f840112156111055782359167ffffffffffffffff8311611105576020838186019501011161110557565b600080fd5b1561111157565b60405162461bcd60e51b81526020600482015260116024820152704e6f20616374697665206469737075746560781b6044820152606490fd5b1561115157565b60405162461bcd60e51b8152602060048201526011602482015270105b1c9958591e48199a5b985b1a5e9959607a1b6044820152606490fd5b1561119157565b60405162461bcd60e51b815260206004820152601860248201527f566f74696e6720616c72656164792066696e616c697a656400000000000000006044820152606490fd5b51906001600160a01b038216820361110557565b5190811515820361110557565b809161022092839103126111055760405191820182811067ffffffffffffffff821117610ffa57604052805182526020810151602083015260408101516040830152606081015160608301526080810151608083015260a081015160a083015261126360c082016111d6565b60c083015261127460e082016111d6565b60e08301526101006112878183016111d6565b908301526101206112998183016111d6565b908301526101406112ab8183016111d6565b908301526101606112bd8183016111d6565b908301526101806112cf8183016111d6565b908301526101a06112e18183016111d6565b908301526101c080820151906015821015611105578301526101e06113078183016111ea565b908301526113196102008092016111ea565b9082015290565b600019811461132f5760010190565b634e487b7160e01b600052601160045260246000fd5b906015821015610f235752565b90600082815280602052604090818120936002850161010061ffff198254161790556001602052807f610b72da639bf7d46039976ca9e5779bc1c162f91b825ebb2a720ebda7cdd67e60608585205460ff81169081611475575b506004898101549190821061145c575060056012995b0154875191825260208201526113da8782018a611345565ba27f00000000000000000000000000000000000000000000000000000000000000006001600160a01b0316803b156105fa57946044839283611437979887519889958694633a1b3d3160e01b865260048601526024850190611345565b5af19182156114525750506114495750565b61107490610fe6565b51903d90823e3d90fd5b1561146b5760056014996113c2565b60056013996113c2565b6001915060101c60ff1661148881610f19565b14386113ac56fea2646970667358221220e3463af45f4997c919aba9152325945ed2b947f00e26f51d923af1f89f60c31264736f6c63430008180033","opcodes":"PUSH1 0xA0 CALLVALUE PUSH2 0x87 JUMPI PUSH1 0x1F PUSH2 0x1568 CODESIZE DUP2 SWAP1 SUB SWAP2 DUP3 ADD PUSH1 0x1F NOT AND DUP4 ADD SWAP2 PUSH1 0x1 PUSH1 0x1 PUSH1 0x40 SHL SUB DUP4 GT DUP5 DUP5 LT OR PUSH2 0x8C JUMPI DUP1 DUP5 SWAP3 PUSH1 0x20 SWAP5 PUSH1 0x40 MSTORE DUP4 CODECOPY DUP2 ADD SUB SLT PUSH2 0x87 JUMPI MLOAD PUSH1 0x1 PUSH1 0x1 PUSH1 0xA0 SHL SUB DUP2 AND SWAP1 DUP2 SWAP1 SUB PUSH2 0x87 JUMPI PUSH1 0x80 MSTORE PUSH1 0x40 MLOAD PUSH2 0x14C5 SWAP1 DUP2 PUSH2 0xA3 DUP3 CODECOPY PUSH1 0x80 MLOAD DUP2 DUP2 DUP2 PUSH1 0xBA ADD MSTORE DUP2 DUP2 PUSH2 0x13F ADD MSTORE DUP2 DUP2 PUSH2 0x773 ADD MSTORE DUP2 DUP2 PUSH2 0xAD7 ADD MSTORE PUSH2 0x13DD ADD MSTORE RETURN JUMPDEST PUSH1 0x0 DUP1 REVERT JUMPDEST PUSH4 0x4E487B71 PUSH1 0xE0 SHL PUSH1 0x0 MSTORE PUSH1 0x41 PUSH1 0x4 MSTORE PUSH1 0x24 PUSH1 0x0 REVERT INVALID PUSH1 0x40 PUSH1 0x80 DUP2 MSTORE PUSH1 0x4 SWAP1 DUP2 CALLDATASIZE LT ISZERO PUSH2 0x15 JUMPI PUSH1 0x0 DUP1 REVERT JUMPDEST PUSH1 0x0 SWAP2 DUP3 CALLDATALOAD PUSH1 0xE0 SHR SWAP1 DUP2 PUSH4 0x1CF9F47D EQ PUSH2 0x5A9 JUMPI DUP2 PUSH4 0x29046CC5 EQ PUSH2 0xEB2 JUMPI DUP2 PUSH4 0x49444831 EQ PUSH2 0xE25 JUMPI DUP2 PUSH4 0x564A565D EQ PUSH2 0xD8F JUMPI DUP2 PUSH4 0x56781388 EQ PUSH2 0xA32 JUMPI DUP2 PUSH4 0x5F9A71FE EQ PUSH2 0x6F8 JUMPI DUP2 PUSH4 0xA0EF4D0E EQ PUSH2 0x6DB JUMPI DUP2 PUSH4 0xA438D208 EQ PUSH2 0x6BD JUMPI DUP2 PUSH4 0xAEFA8EAA EQ PUSH2 0x5FE JUMPI DUP2 PUSH4 0xB92B23A3 EQ PUSH2 0x5A9 JUMPI DUP2 PUSH4 0xCDBCEB25 EQ PUSH2 0xED JUMPI POP PUSH4 0xDBD97308 EQ PUSH2 0xA7 JUMPI PUSH1 0x0 DUP1 REVERT JUMPDEST CALLVALUE PUSH2 0xE9 JUMPI DUP2 PUSH1 0x3 NOT CALLDATASIZE ADD SLT PUSH2 0xE9 JUMPI MLOAD PUSH32 0x0 PUSH1 0x1 PUSH1 0x1 PUSH1 0xA0 SHL SUB AND DUP2 MSTORE PUSH1 0x20 SWAP1 RETURN JUMPDEST POP DUP1 REVERT JUMPDEST DUP4 DUP4 CALLVALUE PUSH2 0xE9 JUMPI DUP1 PUSH1 0x3 NOT CALLDATASIZE ADD SLT PUSH2 0xE9 JUMPI PUSH1 0x24 SWAP1 PUSH8 0xFFFFFFFFFFFFFFFF DUP5 CALLDATALOAD DUP4 CALLDATALOAD DUP3 DUP2 GT PUSH2 0x5A5 JUMPI PUSH2 0x123 SWAP1 CALLDATASIZE SWAP1 DUP9 ADD PUSH2 0x10D7 JUMP JUMPDEST DUP5 MLOAD PUSH4 0x2DB25E05 PUSH1 0xE0 SHL DUP2 MSTORE DUP9 DUP2 ADD DUP5 SWAP1 MSTORE PUSH1 0x1 PUSH1 0x1 PUSH1 0xA0 SHL SUB PUSH32 0x0 DUP2 AND SWAP4 SWAP3 SWAP2 PUSH2 0x220 SWAP1 DUP2 DUP2 DUP12 DUP2 DUP10 GAS STATICCALL SWAP2 DUP3 ISZERO PUSH2 0x59B JUMPI DUP12 SWAP3 PUSH2 0x56E JUMPI JUMPDEST POP POP PUSH2 0x1C0 DUP2 ADD MLOAD PUSH1 0x15 DUP2 LT ISZERO PUSH2 0x55C JUMPI PUSH1 0xA SUB PUSH2 0x50B JUMPI DUP6 DUP11 MSTORE PUSH1 0x20 SWAP2 DUP11 DUP4 MSTORE PUSH1 0xFF PUSH1 0x2 DUP11 DUP14 KECCAK256 ADD SLOAD AND PUSH2 0x4D1 JUMPI DUP1 PUSH1 0xC0 DUP4 ADD MLOAD AND CALLER EQ SWAP2 DUP3 ISZERO PUSH2 0x4C0 JUMPI JUMPDEST DUP3 ISZERO PUSH2 0x4AE JUMPI JUMPDEST DUP3 ISZERO PUSH2 0x49C JUMPI JUMPDEST DUP3 ISZERO PUSH2 0x48A JUMPI JUMPDEST DUP3 ISZERO PUSH2 0x478 JUMPI JUMPDEST DUP3 ISZERO PUSH2 0x466 JUMPI JUMPDEST POP POP ISZERO PUSH2 0x425 JUMPI PUSH3 0x15180 TIMESTAMP ADD SWAP6 DUP7 TIMESTAMP GT PUSH2 0x413 JUMPI DUP6 DUP11 MSTORE DUP10 DUP3 MSTORE DUP8 DUP11 KECCAK256 SWAP3 DUP7 DUP5 SSTORE PUSH1 0x1 SWAP3 DUP4 DUP6 ADD SWAP3 DUP3 GT PUSH2 0x401 JUMPI SWAP1 DUP3 SWAP2 PUSH2 0x21E DUP11 SWAP7 SWAP6 SWAP5 SLOAD PUSH2 0xFAC JUMP JUMPDEST PUSH1 0x1F DUP2 GT PUSH2 0x3A9 JUMPI JUMPDEST POP DUP13 DUP1 SWAP2 PUSH1 0x1F DUP5 GT PUSH1 0x1 EQ PUSH2 0x340 JUMPI POP SWAP1 PUSH1 0x3 SWAP7 SWAP8 DUP4 PUSH2 0x335 JUMPI JUMPDEST POP POP PUSH1 0x0 NOT DUP3 DUP8 SHL SHR NOT AND SWAP1 DUP4 SHL OR SWAP1 SSTORE JUMPDEST PUSH1 0x2 DUP3 ADD SWAP1 PUSH1 0xFF NOT DUP3 SLOAD AND OR SWAP1 SSTORE ADD SSTORE DUP4 MLOAD SWAP7 CALLER DUP5 DUP5 PUSH32 0x2DBD83CA5C9BB71F73C65204E8361CA7D41FB2FDE537130E903E03D69177EDC4 DUP11 DUP1 LOG4 DUP2 EXTCODESIZE ISZERO PUSH2 0x313 JUMPI PUSH4 0x3A1B3D31 PUSH1 0xE0 SHL DUP9 MSTORE DUP1 DUP9 ADD DUP4 SWAP1 MSTORE PUSH1 0xB DUP7 DUP10 ADD MSTORE DUP7 DUP9 PUSH1 0x44 DUP2 DUP4 DUP7 GAS CALL DUP1 ISZERO PUSH2 0x32B JUMPI PUSH2 0x317 JUMPI JUMPDEST DUP7 SWAP8 POP DUP2 EXTCODESIZE ISZERO PUSH2 0x313 JUMPI DUP7 PUSH1 0x44 SWAP3 DUP2 SWAP6 DUP8 MLOAD SWAP9 DUP10 SWAP7 DUP8 SWAP6 PUSH4 0xEAF4C3BB PUSH1 0xE0 SHL DUP8 MSTORE DUP7 ADD MSTORE DUP5 ADD MSTORE GAS CALL SWAP1 DUP2 ISZERO PUSH2 0x30A JUMPI POP PUSH2 0x2F7 JUMPI POP RETURN JUMPDEST PUSH2 0x300 SWAP1 PUSH2 0xFE6 JUMP JUMPDEST PUSH2 0x307 JUMPI DUP1 RETURN JUMPDEST DUP1 REVERT JUMPDEST MLOAD RETURNDATASIZE DUP5 DUP3 RETURNDATACOPY RETURNDATASIZE SWAP1 REVERT JUMPDEST DUP7 DUP1 REVERT JUMPDEST SWAP6 SWAP1 SWAP7 PUSH2 0x323 SWAP1 PUSH2 0xFE6 JUMP JUMPDEST SWAP5 DUP7 SWAP1 PUSH2 0x2BF JUMP JUMPDEST DUP6 MLOAD RETURNDATASIZE DUP10 DUP3 RETURNDATACOPY RETURNDATASIZE SWAP1 REVERT JUMPDEST ADD CALLDATALOAD SWAP1 POP DUP15 DUP1 PUSH2 0x242 JUMP JUMPDEST DUP5 DUP3 MSTORE DUP1 DUP3 KECCAK256 SWAP4 SWAP9 SWAP3 SWAP2 PUSH1 0x1F NOT DUP11 AND SWAP2 JUMPDEST DUP3 DUP3 LT PUSH2 0x38F JUMPI POP POP SWAP2 DUP6 SWAP4 SWAP2 DUP10 PUSH1 0x3 SWAP10 SWAP11 SWAP5 LT PUSH2 0x377 JUMPI JUMPDEST POP POP POP DUP2 SHL ADD SWAP1 SSTORE PUSH2 0x254 JUMP JUMPDEST ADD CALLDATALOAD PUSH1 0x0 NOT DUP4 DUP10 SHL PUSH1 0xF8 AND SHR NOT AND SWAP1 SSTORE DUP15 DUP1 DUP1 PUSH2 0x36A JUMP JUMPDEST DUP5 DUP5 ADD CALLDATALOAD DUP7 SSTORE DUP14 SWAP10 POP SWAP5 DUP8 ADD SWAP5 SWAP3 DUP4 ADD SWAP3 SWAP1 DUP2 ADD SWAP1 PUSH2 0x351 JUMP JUMPDEST SWAP1 SWAP2 SWAP3 DUP1 SWAP5 SWAP6 SWAP7 POP DUP14 MSTORE DUP2 DUP14 KECCAK256 PUSH1 0x1F DUP5 ADD PUSH1 0x5 SHR DUP2 ADD SWAP2 DUP4 DUP6 LT PUSH2 0x3F7 JUMPI JUMPDEST DUP12 SWAP8 SWAP7 SWAP6 SWAP5 SWAP4 SWAP3 SWAP2 DUP16 SWAP2 PUSH1 0x1F ADD PUSH1 0x5 SHR ADD SWAP2 SWAP1 JUMPDEST DUP3 DUP3 LT PUSH2 0x3EA JUMPI POP POP PUSH2 0x227 JUMP JUMPDEST DUP2 SSTORE DUP12 SWAP8 POP DUP6 ADD DUP15 PUSH2 0x3DC JUMP JUMPDEST SWAP1 SWAP2 POP DUP2 SWAP1 PUSH2 0x3C8 JUMP JUMPDEST PUSH4 0x4E487B71 PUSH1 0xE0 SHL DUP13 MSTORE PUSH1 0x41 DUP14 MSTORE DUP11 DUP13 REVERT JUMPDEST PUSH4 0x4E487B71 PUSH1 0xE0 SHL DUP11 MSTORE PUSH1 0x11 DUP12 MSTORE DUP9 DUP11 REVERT JUMPDEST DUP10 PUSH1 0x17 DUP10 PUSH1 0x64 SWAP4 DUP11 MLOAD SWAP4 PUSH3 0x461BCD PUSH1 0xE5 SHL DUP6 MSTORE DUP5 ADD MSTORE DUP3 ADD MSTORE PUSH32 0x4E6F742061207472616465207061727469636970616E74000000000000000000 PUSH1 0x44 DUP3 ADD MSTORE REVERT JUMPDEST PUSH2 0x120 SWAP2 SWAP3 POP ADD MLOAD AND CALLER EQ DUP12 DUP1 PUSH2 0x1DF JUMP JUMPDEST SWAP2 POP DUP1 PUSH2 0x100 DUP4 ADD MLOAD AND CALLER EQ SWAP2 PUSH2 0x1D8 JUMP JUMPDEST SWAP2 POP DUP1 PUSH2 0x1A0 DUP4 ADD MLOAD AND CALLER EQ SWAP2 PUSH2 0x1D1 JUMP JUMPDEST SWAP2 POP DUP1 PUSH2 0x180 DUP4 ADD MLOAD AND CALLER EQ SWAP2 PUSH2 0x1CA JUMP JUMPDEST SWAP2 POP DUP1 PUSH2 0x160 DUP4 ADD MLOAD AND CALLER EQ SWAP2 PUSH2 0x1C3 JUMP JUMPDEST SWAP2 POP DUP1 PUSH1 0xE0 DUP4 ADD MLOAD AND CALLER EQ SWAP2 PUSH2 0x1BC JUMP JUMPDEST DUP9 MLOAD PUSH3 0x461BCD PUSH1 0xE5 SHL DUP2 MSTORE DUP1 DUP14 ADD DUP5 SWAP1 MSTORE PUSH1 0x15 DUP2 DUP13 ADD MSTORE PUSH21 0x566F74696E6720616C726561647920616374697665 PUSH1 0x58 SHL PUSH1 0x44 DUP3 ADD MSTORE PUSH1 0x64 SWAP1 REVERT JUMPDEST DUP8 MLOAD PUSH3 0x461BCD PUSH1 0xE5 SHL DUP2 MSTORE PUSH1 0x20 DUP2 DUP14 ADD MSTORE PUSH1 0x26 DUP2 DUP12 ADD MSTORE PUSH32 0x5472616465206D75737420626520696E20454E5452595F52454A454354454420 PUSH1 0x44 DUP3 ADD MSTORE PUSH6 0x737461747573 PUSH1 0xD0 SHL PUSH1 0x64 DUP3 ADD MSTORE PUSH1 0x84 SWAP1 REVERT JUMPDEST PUSH4 0x4E487B71 PUSH1 0xE0 SHL DUP12 MSTORE PUSH1 0x21 DUP13 MSTORE DUP10 DUP12 REVERT JUMPDEST PUSH2 0x58D SWAP3 POP DUP1 RETURNDATASIZE LT PUSH2 0x594 JUMPI JUMPDEST PUSH2 0x585 DUP2 DUP4 PUSH2 0x1010 JUMP JUMPDEST DUP2 ADD SWAP1 PUSH2 0x11F7 JUMP JUMPDEST DUP12 DUP1 PUSH2 0x17C JUMP JUMPDEST POP RETURNDATASIZE PUSH2 0x57B JUMP JUMPDEST DUP10 MLOAD RETURNDATASIZE DUP14 DUP3 RETURNDATACOPY RETURNDATASIZE SWAP1 REVERT JUMPDEST DUP6 DUP1 REVERT JUMPDEST SWAP1 POP CALLVALUE PUSH2 0x5FA JUMPI PUSH1 0x20 CALLDATASIZE PUSH1 0x3 NOT ADD SLT PUSH2 0x5FA JUMPI SWAP2 DUP2 SWAP3 CALLDATALOAD DUP2 MSTORE PUSH1 0x1 PUSH1 0x20 MSTORE KECCAK256 PUSH2 0x5F6 PUSH2 0x5D9 PUSH1 0x1 DUP4 SLOAD SWAP4 ADD PUSH2 0x1032 JUMP JUMPDEST SWAP3 MLOAD SWAP3 DUP3 PUSH1 0xFF DUP6 SWAP5 PUSH1 0x10 SHR AND SWAP1 PUSH1 0xFF DUP1 DUP3 PUSH1 0x8 SHR AND SWAP2 AND DUP6 PUSH2 0xF79 JUMP JUMPDEST SUB SWAP1 RETURN JUMPDEST DUP3 DUP1 REVERT JUMPDEST SWAP1 POP CALLVALUE PUSH2 0x5FA JUMPI PUSH1 0x20 CALLDATASIZE PUSH1 0x3 NOT ADD SLT PUSH2 0x5FA JUMPI DUP1 CALLDATALOAD SWAP2 DUP3 DUP5 MSTORE DUP4 PUSH1 0x20 MSTORE PUSH1 0x3 DUP2 DUP6 KECCAK256 PUSH2 0x63F PUSH1 0xFF PUSH1 0x2 DUP4 ADD SLOAD PUSH2 0x635 DUP3 DUP3 AND PUSH2 0x110A JUMP JUMPDEST PUSH1 0x8 SHR AND ISZERO PUSH2 0x114A JUMP JUMPDEST ADD SLOAD TIMESTAMP GT ISZERO PUSH2 0x67A JUMPI DUP4 PUSH2 0x677 DUP5 DUP1 PUSH32 0xFEC6C4317FB3CA3B10E4C4FB07A703400312DB0D97A77B485BF5815BB95CE53A DUP5 DUP1 LOG2 PUSH2 0x1352 JUMP JUMPDEST DUP1 RETURN JUMPDEST SWAP1 PUSH1 0x20 PUSH1 0x64 SWAP3 MLOAD SWAP2 PUSH3 0x461BCD PUSH1 0xE5 SHL DUP4 MSTORE DUP3 ADD MSTORE PUSH1 0x1C PUSH1 0x24 DUP3 ADD MSTORE PUSH32 0x566F74696E6720646561646C696E65206E6F7420627265616368656400000000 PUSH1 0x44 DUP3 ADD MSTORE REVERT JUMPDEST POP POP CALLVALUE PUSH2 0xE9 JUMPI DUP2 PUSH1 0x3 NOT CALLDATASIZE ADD SLT PUSH2 0xE9 JUMPI PUSH1 0x20 SWAP1 MLOAD PUSH3 0x15180 DUP2 MSTORE RETURN JUMPDEST SWAP2 SWAP1 POP CALLVALUE PUSH2 0x5FA JUMPI DUP3 PUSH1 0x3 NOT CALLDATASIZE ADD SLT PUSH2 0x5FA JUMPI PUSH1 0x20 SWAP3 POP MLOAD SWAP1 DUP2 MSTORE RETURN JUMPDEST DUP4 DUP4 CALLVALUE PUSH2 0xE9 JUMPI PUSH1 0x80 CALLDATASIZE PUSH1 0x3 NOT ADD SLT PUSH2 0xE9 JUMPI DUP3 CALLDATALOAD SWAP1 PUSH1 0x24 DUP1 CALLDATALOAD SWAP1 DUP2 ISZERO ISZERO DUP1 SWAP3 SUB PUSH2 0xA2E JUMPI PUSH1 0x44 CALLDATALOAD SWAP1 PUSH1 0x3 DUP3 LT ISZERO PUSH2 0x5A5 JUMPI PUSH8 0xFFFFFFFFFFFFFFFF PUSH1 0x64 CALLDATALOAD DUP2 DUP2 GT PUSH2 0xA2A JUMPI PUSH2 0x74A SWAP1 CALLDATASIZE SWAP1 DUP11 ADD PUSH2 0x10D7 JUMP JUMPDEST DUP7 MLOAD PUSH4 0x2DB25E05 PUSH1 0xE0 SHL DUP2 MSTORE DUP1 DUP12 ADD DUP10 SWAP1 MSTORE SWAP1 SWAP10 SWAP2 SWAP1 PUSH1 0x1 PUSH1 0x1 PUSH1 0xA0 SHL SUB SWAP1 PUSH2 0x220 SWAP1 DUP2 DUP2 DUP9 DUP2 PUSH32 0x0 DUP8 AND GAS STATICCALL SWAP2 DUP3 ISZERO PUSH2 0xA20 JUMPI SWAP1 PUSH2 0x160 SWAP3 SWAP2 DUP14 SWAP3 PUSH2 0xA03 JUMPI JUMPDEST POP POP ADD MLOAD AND CALLER SUB PUSH2 0x9D0 JUMPI DUP8 DUP10 MSTORE PUSH1 0x20 SWAP4 DUP10 DUP6 MSTORE PUSH2 0x7DF PUSH1 0xFF PUSH1 0x2 DUP11 DUP14 KECCAK256 ADD SLOAD PUSH2 0x7D5 DUP3 DUP3 AND PUSH2 0x110A JUMP JUMPDEST PUSH1 0x8 SHR AND ISZERO PUSH2 0x118A JUMP JUMPDEST DUP9 DUP11 MSTORE PUSH1 0x1 SWAP3 DUP4 DUP7 MSTORE DUP9 DUP12 KECCAK256 DUP1 SLOAD PUSH1 0xFF DUP2 AND PUSH2 0x983 JUMPI SWAP1 DUP6 DUP1 SWAP3 PUSH2 0x802 DUP12 PUSH2 0xF19 JUMP JUMPDEST PUSH3 0xFF0000 DUP12 PUSH1 0x10 SHL AND SWAP1 PUSH3 0xFFFFFF NOT AND PUSH2 0xFF00 DUP14 PUSH1 0x8 SHL AND OR OR OR DUP2 SSTORE ADD SWAP5 DUP13 GT PUSH2 0x972 JUMPI POP POP PUSH2 0x833 DUP4 SLOAD PUSH2 0xFAC JUMP JUMPDEST PUSH1 0x1F DUP2 GT PUSH2 0x92C JUMPI JUMPDEST POP DUP9 SWAP1 PUSH1 0x1F DUP12 GT PUSH1 0x1 EQ PUSH2 0x8AC JUMPI SWAP10 DUP1 SWAP3 DUP2 SWAP3 DUP12 SWAP13 PUSH32 0x8814A2BC92AACB0C56F32882F151C2DE15311C26ABD002C40CB3AACE6751C413 SWAP12 SWAP13 SWAP5 PUSH2 0x8A1 JUMPI JUMPDEST POP POP SHL SWAP2 PUSH1 0x0 NOT SWAP1 PUSH1 0x3 SHL SHR NOT AND OR SWAP1 SSTORE JUMPDEST DUP4 MLOAD SWAP3 DUP4 MSTORE PUSH2 0x89A DUP3 PUSH2 0xF19 JUMP JUMPDEST DUP3 ADD MSTORE LOG2 DUP1 RETURN JUMPDEST ADD CALLDATALOAD SWAP3 POP DUP13 DUP1 PUSH2 0x87A JUMP JUMPDEST SWAP10 SWAP1 PUSH1 0x1F NOT DUP3 AND SWAP11 DUP5 DUP12 MSTORE DUP6 DUP12 KECCAK256 SWAP2 DUP12 JUMPDEST DUP14 DUP2 LT PUSH2 0x917 JUMPI POP DUP4 PUSH32 0x8814A2BC92AACB0C56F32882F151C2DE15311C26ABD002C40CB3AACE6751C413 SWAP12 SWAP13 SWAP14 LT PUSH2 0x8FD JUMPI JUMPDEST POP POP POP DUP2 SHL ADD SWAP1 SSTORE PUSH2 0x88C JUMP JUMPDEST ADD CALLDATALOAD PUSH1 0x0 NOT PUSH1 0x3 DUP5 SWAP1 SHL PUSH1 0xF8 AND SHR NOT AND SWAP1 SSTORE DUP11 DUP1 DUP1 PUSH2 0x8F0 JUMP JUMPDEST DUP3 DUP3 ADD CALLDATALOAD DUP5 SSTORE SWAP3 DUP6 ADD SWAP3 SWAP1 DUP8 ADD SWAP1 DUP8 ADD PUSH2 0x8BD JUMP JUMPDEST DUP4 DUP11 MSTORE DUP5 DUP11 KECCAK256 PUSH1 0x1F DUP13 ADD PUSH1 0x5 SHR DUP2 ADD SWAP2 DUP7 DUP14 LT PUSH2 0x968 JUMPI JUMPDEST PUSH1 0x1F ADD PUSH1 0x5 SHR ADD SWAP1 DUP4 SWAP1 JUMPDEST DUP3 DUP2 LT PUSH2 0x95D JUMPI POP POP PUSH2 0x83C JUMP JUMPDEST DUP12 DUP2 SSTORE ADD DUP4 SWAP1 PUSH2 0x94F JUMP JUMPDEST SWAP1 SWAP2 POP DUP2 SWAP1 PUSH2 0x944 JUMP JUMPDEST PUSH4 0x4E487B71 PUSH1 0xE0 SHL DUP12 MSTORE PUSH1 0x41 SWAP1 MSTORE DUP10 REVERT JUMPDEST PUSH1 0x84 DUP4 DUP6 DUP11 DUP15 MLOAD SWAP3 PUSH3 0x461BCD PUSH1 0xE5 SHL DUP5 MSTORE DUP4 ADD MSTORE DUP1 DUP3 ADD MSTORE PUSH32 0x496E73706563746F72206465636973696F6E20616C7265616479207375626D69 PUSH1 0x44 DUP3 ADD MSTORE PUSH4 0x1D1D1959 PUSH1 0xE2 SHL PUSH1 0x64 DUP3 ADD MSTORE REVERT JUMPDEST DUP7 MLOAD PUSH3 0x461BCD PUSH1 0xE5 SHL DUP2 MSTORE PUSH1 0x20 DUP2 DUP5 ADD MSTORE PUSH1 0xE DUP2 DUP7 ADD MSTORE PUSH14 0x27B7363C9024B739B832B1BA37B9 PUSH1 0x91 SHL PUSH1 0x44 DUP3 ADD MSTORE PUSH1 0x64 SWAP1 REVERT JUMPDEST PUSH2 0xA19 SWAP3 POP DUP1 RETURNDATASIZE LT PUSH2 0x594 JUMPI PUSH2 0x585 DUP2 DUP4 PUSH2 0x1010 JUMP JUMPDEST DUP14 DUP1 PUSH2 0x7AA JUMP JUMPDEST DUP11 MLOAD RETURNDATASIZE DUP15 DUP3 RETURNDATACOPY RETURNDATASIZE SWAP1 REVERT JUMPDEST DUP8 DUP1 REVERT JUMPDEST DUP5 DUP1 REVERT JUMPDEST SWAP2 SWAP1 POP CALLVALUE PUSH2 0x5FA JUMPI DUP1 PUSH1 0x3 NOT CALLDATASIZE ADD SLT PUSH2 0x5FA JUMPI DUP2 CALLDATALOAD SWAP2 PUSH1 0x24 SWAP2 DUP3 CALLDATALOAD PUSH1 0x3 DUP2 LT ISZERO PUSH2 0x5A5 JUMPI DUP5 DUP7 MSTORE PUSH1 0x20 DUP7 DUP2 MSTORE DUP3 DUP8 KECCAK256 SWAP3 PUSH2 0xA77 PUSH1 0xFF PUSH1 0x2 DUP7 ADD SLOAD PUSH2 0x7D5 DUP3 DUP3 AND PUSH2 0x110A JUMP JUMPDEST PUSH1 0x3 DUP5 ADD SLOAD TIMESTAMP GT PUSH2 0xD39 JUMPI PUSH1 0x7 DUP5 ADD CALLER DUP10 MSTORE DUP1 DUP4 MSTORE PUSH1 0xFF DUP3 DUP11 KECCAK256 SLOAD AND PUSH2 0xD07 JUMPI PUSH2 0xAA0 DUP5 PUSH2 0xF19 JUMP JUMPDEST PUSH1 0x1 DUP5 EQ SWAP7 DUP8 DUP1 ISZERO PUSH2 0xCF4 JUMPI JUMPDEST ISZERO PUSH2 0xCC4 JUMPI DUP3 MLOAD PUSH4 0x2DB25E05 PUSH1 0xE0 SHL DUP2 MSTORE DUP8 DUP2 ADD DUP11 SWAP1 MSTORE PUSH2 0x220 SWAP1 PUSH1 0x1 PUSH1 0x1 PUSH1 0xA0 SHL SUB SWAP1 DUP3 DUP2 DUP6 DUP2 PUSH32 0x0 DUP7 AND GAS STATICCALL SWAP3 DUP4 ISZERO PUSH2 0xCBA JUMPI DUP14 SWAP4 PUSH2 0xC9B JUMPI JUMPDEST POP POP DUP1 PUSH1 0xC0 DUP4 ADD MLOAD AND CALLER EQ SWAP2 DUP3 ISZERO PUSH2 0xC8A JUMPI JUMPDEST DUP3 ISZERO PUSH2 0xC78 JUMPI JUMPDEST DUP3 ISZERO PUSH2 0xC66 JUMPI JUMPDEST DUP3 ISZERO PUSH2 0xC54 JUMPI JUMPDEST DUP3 ISZERO PUSH2 0xC42 JUMPI JUMPDEST DUP3 ISZERO PUSH2 0xC30 JUMPI JUMPDEST POP POP ISZERO PUSH2 0xBFB JUMPI POP DUP6 SWAP5 SWAP4 SWAP3 DUP9 SWAP3 PUSH32 0xEBA4866100B822F0F391E610E7EDFAB790B9E8766C0012733C26B2F1858E8DD7 SWAP3 CALLER DUP13 MSTORE DUP3 MSTORE DUP1 DUP12 KECCAK256 PUSH1 0x1 PUSH1 0xFF NOT DUP3 SLOAD AND OR SWAP1 SSTORE PUSH1 0x6 DUP7 ADD SWAP9 PUSH2 0xB90 DUP11 SLOAD PUSH2 0x1320 JUMP JUMPDEST DUP11 SSTORE PUSH2 0xB9B DUP7 PUSH2 0xF19 JUMP JUMPDEST ISZERO PUSH2 0xBE6 JUMPI DUP7 DUP7 ADD PUSH2 0xBAD DUP2 SLOAD PUSH2 0x1320 JUMP JUMPDEST SWAP1 SSTORE JUMPDEST MLOAD SWAP4 PUSH2 0xBBB DUP2 PUSH2 0xF19 JUMP JUMPDEST DUP5 MSTORE CALLER SWAP4 LOG3 ADD SLOAD LT PUSH2 0xBD1 JUMPI POP PUSH2 0x677 SWAP1 PUSH2 0x1352 JUMP JUMPDEST SLOAD PUSH1 0x7 EQ PUSH2 0xBDD JUMPI POP DUP1 RETURN JUMPDEST PUSH2 0x677 SWAP1 PUSH2 0x1352 JUMP JUMPDEST PUSH1 0x5 DUP7 ADD PUSH2 0xBF4 DUP2 SLOAD PUSH2 0x1320 JUMP JUMPDEST SWAP1 SSTORE PUSH2 0xBB0 JUMP JUMPDEST DUP7 PUSH1 0x11 PUSH1 0x64 SWAP3 DUP7 DUP7 MLOAD SWAP4 PUSH3 0x461BCD PUSH1 0xE5 SHL DUP6 MSTORE DUP5 ADD MSTORE DUP3 ADD MSTORE PUSH17 0x4E6F74206120766F74696E67206E6F6465 PUSH1 0x78 SHL PUSH1 0x44 DUP3 ADD MSTORE REVERT JUMPDEST PUSH2 0x120 SWAP2 SWAP3 POP ADD MLOAD AND CALLER EQ CODESIZE DUP1 PUSH2 0xB3E JUMP JUMPDEST SWAP2 POP DUP1 PUSH2 0x100 DUP4 ADD MLOAD AND CALLER EQ SWAP2 PUSH2 0xB37 JUMP JUMPDEST SWAP2 POP DUP1 PUSH2 0x1A0 DUP4 ADD MLOAD AND CALLER EQ SWAP2 PUSH2 0xB30 JUMP JUMPDEST SWAP2 POP DUP1 PUSH2 0x180 DUP4 ADD MLOAD AND CALLER EQ SWAP2 PUSH2 0xB29 JUMP JUMPDEST SWAP2 POP DUP1 PUSH2 0x160 DUP4 ADD MLOAD AND CALLER EQ SWAP2 PUSH2 0xB22 JUMP JUMPDEST SWAP2 POP DUP1 PUSH1 0xE0 DUP4 ADD MLOAD AND CALLER EQ SWAP2 PUSH2 0xB1B JUMP JUMPDEST PUSH2 0xCB2 SWAP3 SWAP4 POP DUP1 RETURNDATASIZE LT PUSH2 0x594 JUMPI PUSH2 0x585 DUP2 DUP4 PUSH2 0x1010 JUMP JUMPDEST SWAP1 CODESIZE DUP1 PUSH2 0xB08 JUMP JUMPDEST DUP7 MLOAD RETURNDATASIZE DUP16 DUP3 RETURNDATACOPY RETURNDATASIZE SWAP1 REVERT JUMPDEST DUP7 PUSH1 0xC PUSH1 0x64 SWAP3 DUP7 DUP7 MLOAD SWAP4 PUSH3 0x461BCD PUSH1 0xE5 SHL DUP6 MSTORE DUP5 ADD MSTORE DUP3 ADD MSTORE PUSH12 0x496E76616C696420766F7465 PUSH1 0xA0 SHL PUSH1 0x44 DUP3 ADD MSTORE REVERT JUMPDEST POP PUSH2 0xCFE DUP6 PUSH2 0xF19 JUMP JUMPDEST PUSH1 0x2 DUP6 EQ PUSH2 0xAAD JUMP JUMPDEST DUP2 MLOAD PUSH3 0x461BCD PUSH1 0xE5 SHL DUP2 MSTORE DUP1 DUP8 ADD DUP5 SWAP1 MSTORE PUSH1 0xD DUP2 DUP10 ADD MSTORE PUSH13 0x105B1C9958591E481D9BDD1959 PUSH1 0x9A SHL PUSH1 0x44 DUP3 ADD MSTORE PUSH1 0x64 SWAP1 REVERT JUMPDEST MLOAD PUSH3 0x461BCD PUSH1 0xE5 SHL DUP2 MSTORE DUP1 DUP6 ADD SWAP2 SWAP1 SWAP2 MSTORE PUSH1 0x2B DUP2 DUP7 ADD MSTORE PUSH32 0x566F74696E6720706572696F642065787069726564202D2063616C6C2066696E PUSH1 0x44 DUP3 ADD MSTORE PUSH11 0x616C697A65566F74696E67 PUSH1 0xA8 SHL PUSH1 0x64 DUP3 ADD MSTORE PUSH1 0x84 SWAP1 REVERT JUMPDEST SWAP1 POP DUP3 CALLVALUE PUSH2 0x307 JUMPI PUSH1 0x20 CALLDATASIZE PUSH1 0x3 NOT ADD SLT PUSH2 0x307 JUMPI DUP3 SWAP1 DUP3 CALLDATALOAD DUP2 MSTORE DUP1 PUSH1 0x20 MSTORE KECCAK256 SWAP2 DUP3 SLOAD SWAP2 PUSH2 0xDBE PUSH1 0x1 DUP6 ADD PUSH2 0x1032 JUMP JUMPDEST SWAP4 PUSH1 0x2 DUP2 ADD SLOAD SWAP2 PUSH1 0x3 DUP3 ADD SLOAD SWAP1 DUP3 ADD SLOAD SWAP1 PUSH1 0xFF PUSH1 0x6 PUSH1 0x5 DUP6 ADD SLOAD SWAP5 ADD SLOAD SWAP5 PUSH2 0xDF8 DUP8 MLOAD SWAP10 DUP11 SWAP10 PUSH2 0x100 SWAP1 DUP12 MSTORE DUP1 PUSH1 0x20 DUP13 ADD MSTORE DUP11 ADD SWAP1 PUSH2 0xF39 JUMP JUMPDEST SWAP7 DUP3 DUP3 AND ISZERO ISZERO SWAP1 DUP10 ADD MSTORE PUSH1 0x8 SHR AND ISZERO ISZERO PUSH1 0x60 DUP8 ADD MSTORE PUSH1 0x80 DUP7 ADD MSTORE PUSH1 0xA0 DUP6 ADD MSTORE PUSH1 0xC0 DUP5 ADD MSTORE PUSH1 0xE0 DUP4 ADD MSTORE SUB SWAP1 RETURN JUMPDEST SWAP1 POP CALLVALUE PUSH2 0x5FA JUMPI PUSH1 0x20 CALLDATASIZE PUSH1 0x3 NOT ADD SLT PUSH2 0x5FA JUMPI DUP1 CALLDATALOAD SWAP2 DUP3 DUP5 MSTORE DUP4 PUSH1 0x20 MSTORE PUSH1 0x3 DUP2 DUP6 KECCAK256 PUSH2 0xE5C PUSH1 0xFF PUSH1 0x2 DUP4 ADD SLOAD PUSH2 0x635 DUP3 DUP3 AND PUSH2 0x110A JUMP JUMPDEST ADD SLOAD TIMESTAMP GT ISZERO PUSH2 0xE6F JUMPI DUP4 PUSH2 0x677 DUP5 PUSH2 0x1352 JUMP JUMPDEST SWAP1 PUSH1 0x20 PUSH1 0x64 SWAP3 MLOAD SWAP2 PUSH3 0x461BCD PUSH1 0xE5 SHL DUP4 MSTORE DUP3 ADD MSTORE PUSH1 0x1D PUSH1 0x24 DUP3 ADD MSTORE PUSH32 0x566F74696E6720706572696F64206E6F74207965742065787069726564000000 PUSH1 0x44 DUP3 ADD MSTORE REVERT JUMPDEST SWAP2 SWAP1 POP CALLVALUE PUSH2 0x5FA JUMPI PUSH1 0x20 CALLDATASIZE PUSH1 0x3 NOT ADD SLT PUSH2 0x5FA JUMPI DUP1 PUSH1 0xC0 SWAP4 DUP4 CALLDATALOAD DUP2 MSTORE DUP1 PUSH1 0x20 MSTORE KECCAK256 PUSH1 0x2 DUP2 ADD SLOAD SWAP3 PUSH1 0x3 DUP3 ADD SLOAD SWAP1 DUP3 ADD SLOAD SWAP1 PUSH1 0x6 PUSH1 0x5 DUP5 ADD SLOAD SWAP4 ADD SLOAD SWAP4 PUSH1 0xFF DUP2 MLOAD SWAP7 DUP2 DUP2 AND ISZERO ISZERO DUP9 MSTORE PUSH1 0x8 SHR AND ISZERO ISZERO PUSH1 0x20 DUP8 ADD MSTORE DUP6 ADD MSTORE PUSH1 0x60 DUP5 ADD MSTORE PUSH1 0x80 DUP4 ADD MSTORE PUSH1 0xA0 DUP3 ADD MSTORE RETURN JUMPDEST PUSH1 0x3 GT ISZERO PUSH2 0xF23 JUMPI JUMP JUMPDEST PUSH4 0x4E487B71 PUSH1 0xE0 SHL PUSH1 0x0 MSTORE PUSH1 0x21 PUSH1 0x4 MSTORE PUSH1 0x24 PUSH1 0x0 REVERT JUMPDEST SWAP2 SWAP1 DUP3 MLOAD SWAP3 DUP4 DUP3 MSTORE PUSH1 0x0 JUMPDEST DUP5 DUP2 LT PUSH2 0xF65 JUMPI POP POP DUP3 PUSH1 0x0 PUSH1 0x20 DUP1 SWAP5 SWAP6 DUP5 ADD ADD MSTORE PUSH1 0x1F DUP1 NOT SWAP2 ADD AND ADD ADD SWAP1 JUMP JUMPDEST PUSH1 0x20 DUP2 DUP4 ADD DUP2 ADD MLOAD DUP5 DUP4 ADD DUP3 ADD MSTORE ADD PUSH2 0xF44 JUMP JUMPDEST SWAP1 SWAP3 PUSH1 0x80 SWAP3 PUSH2 0xFA9 SWAP6 SWAP5 ISZERO ISZERO DUP4 MSTORE ISZERO ISZERO PUSH1 0x20 DUP4 ADD MSTORE PUSH2 0xF97 DUP2 PUSH2 0xF19 JUMP JUMPDEST PUSH1 0x40 DUP3 ADD MSTORE DUP2 PUSH1 0x60 DUP3 ADD MSTORE ADD SWAP1 PUSH2 0xF39 JUMP JUMPDEST SWAP1 JUMP JUMPDEST SWAP1 PUSH1 0x1 DUP3 DUP2 SHR SWAP3 AND DUP1 ISZERO PUSH2 0xFDC JUMPI JUMPDEST PUSH1 0x20 DUP4 LT EQ PUSH2 0xFC6 JUMPI JUMP JUMPDEST PUSH4 0x4E487B71 PUSH1 0xE0 SHL PUSH1 0x0 MSTORE PUSH1 0x22 PUSH1 0x4 MSTORE PUSH1 0x24 PUSH1 0x0 REVERT JUMPDEST SWAP2 PUSH1 0x7F AND SWAP2 PUSH2 0xFBB JUMP JUMPDEST PUSH8 0xFFFFFFFFFFFFFFFF DUP2 GT PUSH2 0xFFA JUMPI PUSH1 0x40 MSTORE JUMP JUMPDEST PUSH4 0x4E487B71 PUSH1 0xE0 SHL PUSH1 0x0 MSTORE PUSH1 0x41 PUSH1 0x4 MSTORE PUSH1 0x24 PUSH1 0x0 REVERT JUMPDEST SWAP1 PUSH1 0x1F DUP1 NOT SWAP2 ADD AND DUP2 ADD SWAP1 DUP2 LT PUSH8 0xFFFFFFFFFFFFFFFF DUP3 GT OR PUSH2 0xFFA JUMPI PUSH1 0x40 MSTORE JUMP JUMPDEST SWAP1 PUSH1 0x40 MLOAD SWAP2 DUP3 PUSH1 0x0 DUP3 SLOAD PUSH2 0x1045 DUP2 PUSH2 0xFAC JUMP JUMPDEST SWAP1 DUP2 DUP5 MSTORE PUSH1 0x20 SWAP5 PUSH1 0x1 SWAP2 PUSH1 0x1 DUP2 AND SWAP1 DUP2 PUSH1 0x0 EQ PUSH2 0x10B5 JUMPI POP PUSH1 0x1 EQ PUSH2 0x1076 JUMPI JUMPDEST POP POP POP PUSH2 0x1074 SWAP3 POP SUB DUP4 PUSH2 0x1010 JUMP JUMPDEST JUMP JUMPDEST PUSH1 0x0 SWAP1 DUP2 MSTORE DUP6 DUP2 KECCAK256 SWAP6 SWAP4 POP SWAP2 SWAP1 JUMPDEST DUP2 DUP4 LT PUSH2 0x109D JUMPI POP POP PUSH2 0x1074 SWAP4 POP DUP3 ADD ADD CODESIZE DUP1 DUP1 PUSH2 0x1065 JUMP JUMPDEST DUP6 SLOAD DUP9 DUP5 ADD DUP6 ADD MSTORE SWAP5 DUP6 ADD SWAP5 DUP8 SWAP5 POP SWAP2 DUP4 ADD SWAP2 PUSH2 0x1084 JUMP JUMPDEST SWAP3 POP POP POP PUSH2 0x1074 SWAP5 SWAP3 POP PUSH1 0xFF NOT AND DUP3 DUP5 ADD MSTORE ISZERO ISZERO PUSH1 0x5 SHL DUP3 ADD ADD CODESIZE DUP1 DUP1 PUSH2 0x1065 JUMP JUMPDEST SWAP2 DUP2 PUSH1 0x1F DUP5 ADD SLT ISZERO PUSH2 0x1105 JUMPI DUP3 CALLDATALOAD SWAP2 PUSH8 0xFFFFFFFFFFFFFFFF DUP4 GT PUSH2 0x1105 JUMPI PUSH1 0x20 DUP4 DUP2 DUP7 ADD SWAP6 ADD ADD GT PUSH2 0x1105 JUMPI JUMP JUMPDEST PUSH1 0x0 DUP1 REVERT JUMPDEST ISZERO PUSH2 0x1111 JUMPI JUMP JUMPDEST PUSH1 0x40 MLOAD PUSH3 0x461BCD PUSH1 0xE5 SHL DUP2 MSTORE PUSH1 0x20 PUSH1 0x4 DUP3 ADD MSTORE PUSH1 0x11 PUSH1 0x24 DUP3 ADD MSTORE PUSH17 0x4E6F206163746976652064697370757465 PUSH1 0x78 SHL PUSH1 0x44 DUP3 ADD MSTORE PUSH1 0x64 SWAP1 REVERT JUMPDEST ISZERO PUSH2 0x1151 JUMPI JUMP JUMPDEST PUSH1 0x40 MLOAD PUSH3 0x461BCD PUSH1 0xE5 SHL DUP2 MSTORE PUSH1 0x20 PUSH1 0x4 DUP3 ADD MSTORE PUSH1 0x11 PUSH1 0x24 DUP3 ADD MSTORE PUSH17 0x105B1C9958591E48199A5B985B1A5E9959 PUSH1 0x7A SHL PUSH1 0x44 DUP3 ADD MSTORE PUSH1 0x64 SWAP1 REVERT JUMPDEST ISZERO PUSH2 0x1191 JUMPI JUMP JUMPDEST PUSH1 0x40 MLOAD PUSH3 0x461BCD PUSH1 0xE5 SHL DUP2 MSTORE PUSH1 0x20 PUSH1 0x4 DUP3 ADD MSTORE PUSH1 0x18 PUSH1 0x24 DUP3 ADD MSTORE PUSH32 0x566F74696E6720616C72656164792066696E616C697A65640000000000000000 PUSH1 0x44 DUP3 ADD MSTORE PUSH1 0x64 SWAP1 REVERT JUMPDEST MLOAD SWAP1 PUSH1 0x1 PUSH1 0x1 PUSH1 0xA0 SHL SUB DUP3 AND DUP3 SUB PUSH2 0x1105 JUMPI JUMP JUMPDEST MLOAD SWAP1 DUP2 ISZERO ISZERO DUP3 SUB PUSH2 0x1105 JUMPI JUMP JUMPDEST DUP1 SWAP2 PUSH2 0x220 SWAP3 DUP4 SWAP2 SUB SLT PUSH2 0x1105 JUMPI PUSH1 0x40 MLOAD SWAP2 DUP3 ADD DUP3 DUP2 LT PUSH8 0xFFFFFFFFFFFFFFFF DUP3 GT OR PUSH2 0xFFA JUMPI PUSH1 0x40 MSTORE DUP1 MLOAD DUP3 MSTORE PUSH1 0x20 DUP2 ADD MLOAD PUSH1 0x20 DUP4 ADD MSTORE PUSH1 0x40 DUP2 ADD MLOAD PUSH1 0x40 DUP4 ADD MSTORE PUSH1 0x60 DUP2 ADD MLOAD PUSH1 0x60 DUP4 ADD MSTORE PUSH1 0x80 DUP2 ADD MLOAD PUSH1 0x80 DUP4 ADD MSTORE PUSH1 0xA0 DUP2 ADD MLOAD PUSH1 0xA0 DUP4 ADD MSTORE PUSH2 0x1263 PUSH1 0xC0 DUP3 ADD PUSH2 0x11D6 JUMP JUMPDEST PUSH1 0xC0 DUP4 ADD MSTORE PUSH2 0x1274 PUSH1 0xE0 DUP3 ADD PUSH2 0x11D6 JUMP JUMPDEST PUSH1 0xE0 DUP4 ADD MSTORE PUSH2 0x100 PUSH2 0x1287 DUP2 DUP4 ADD PUSH2 0x11D6 JUMP JUMPDEST SWAP1 DUP4 ADD MSTORE PUSH2 0x120 PUSH2 0x1299 DUP2 DUP4 ADD PUSH2 0x11D6 JUMP JUMPDEST SWAP1 DUP4 ADD MSTORE PUSH2 0x140 PUSH2 0x12AB DUP2 DUP4 ADD PUSH2 0x11D6 JUMP JUMPDEST SWAP1 DUP4 ADD MSTORE PUSH2 0x160 PUSH2 0x12BD DUP2 DUP4 ADD PUSH2 0x11D6 JUMP JUMPDEST SWAP1 DUP4 ADD MSTORE PUSH2 0x180 PUSH2 0x12CF DUP2 DUP4 ADD PUSH2 0x11D6 JUMP JUMPDEST SWAP1 DUP4 ADD MSTORE PUSH2 0x1A0 PUSH2 0x12E1 DUP2 DUP4 ADD PUSH2 0x11D6 JUMP JUMPDEST SWAP1 DUP4 ADD MSTORE PUSH2 0x1C0 DUP1 DUP3 ADD MLOAD SWAP1 PUSH1 0x15 DUP3 LT ISZERO PUSH2 0x1105 JUMPI DUP4 ADD MSTORE PUSH2 0x1E0 PUSH2 0x1307 DUP2 DUP4 ADD PUSH2 0x11EA JUMP JUMPDEST SWAP1 DUP4 ADD MSTORE PUSH2 0x1319 PUSH2 0x200 DUP1 SWAP3 ADD PUSH2 0x11EA JUMP JUMPDEST SWAP1 DUP3 ADD MSTORE SWAP1 JUMP JUMPDEST PUSH1 0x0 NOT DUP2 EQ PUSH2 0x132F JUMPI PUSH1 0x1 ADD SWAP1 JUMP JUMPDEST PUSH4 0x4E487B71 PUSH1 0xE0 SHL PUSH1 0x0 MSTORE PUSH1 0x11 PUSH1 0x4 MSTORE PUSH1 0x24 PUSH1 0x0 REVERT JUMPDEST SWAP1 PUSH1 0x15 DUP3 LT ISZERO PUSH2 0xF23 JUMPI MSTORE JUMP JUMPDEST SWAP1 PUSH1 0x0 DUP3 DUP2 MSTORE DUP1 PUSH1 0x20 MSTORE PUSH1 0x40 SWAP1 DUP2 DUP2 KECCAK256 SWAP4 PUSH1 0x2 DUP6 ADD PUSH2 0x100 PUSH2 0xFFFF NOT DUP3 SLOAD AND OR SWAP1 SSTORE PUSH1 0x1 PUSH1 0x20 MSTORE DUP1 PUSH32 0x610B72DA639BF7D46039976CA9E5779BC1C162F91B825EBB2A720EBDA7CDD67E PUSH1 0x60 DUP6 DUP6 KECCAK256 SLOAD PUSH1 0xFF DUP2 AND SWAP1 DUP2 PUSH2 0x1475 JUMPI JUMPDEST POP PUSH1 0x4 DUP10 DUP2 ADD SLOAD SWAP2 SWAP1 DUP3 LT PUSH2 0x145C JUMPI POP PUSH1 0x5 PUSH1 0x12 SWAP10 JUMPDEST ADD SLOAD DUP8 MLOAD SWAP2 DUP3 MSTORE PUSH1 0x20 DUP3 ADD MSTORE PUSH2 0x13DA DUP8 DUP3 ADD DUP11 PUSH2 0x1345 JUMP JUMPDEST LOG2 PUSH32 0x0 PUSH1 0x1 PUSH1 0x1 PUSH1 0xA0 SHL SUB AND DUP1 EXTCODESIZE ISZERO PUSH2 0x5FA JUMPI SWAP5 PUSH1 0x44 DUP4 SWAP3 DUP4 PUSH2 0x1437 SWAP8 SWAP9 DUP8 MLOAD SWAP9 DUP10 SWAP6 DUP7 SWAP5 PUSH4 0x3A1B3D31 PUSH1 0xE0 SHL DUP7 MSTORE PUSH1 0x4 DUP7 ADD MSTORE PUSH1 0x24 DUP6 ADD SWAP1 PUSH2 0x1345 JUMP JUMPDEST GAS CALL SWAP2 DUP3 ISZERO PUSH2 0x1452 JUMPI POP POP PUSH2 0x1449 JUMPI POP JUMP JUMPDEST PUSH2 0x1074 SWAP1 PUSH2 0xFE6 JUMP JUMPDEST MLOAD SWAP1 RETURNDATASIZE SWAP1 DUP3 RETURNDATACOPY RETURNDATASIZE SWAP1 REVERT JUMPDEST ISZERO PUSH2 0x146B JUMPI PUSH1 0x5 PUSH1 0x14 SWAP10 PUSH2 0x13C2 JUMP JUMPDEST PUSH1 0x5 PUSH1 0x13 SWAP10 PUSH2 0x13C2 JUMP JUMPDEST PUSH1 0x1 SWAP2 POP PUSH1 0x10 SHR PUSH1 0xFF AND PUSH2 0x1488 DUP2 PUSH2 0xF19 JUMP JUMPDEST EQ CODESIZE PUSH2 0x13AC JUMP INVALID LOG2 PUSH5 0x6970667358 0x22 SLT KECCAK256 0xE3 CHAINID GASPRICE DELEGATECALL PUSH0 BLOBHASH SWAP8 0xC9 NOT 0xAB 0xA9 ISZERO 0x23 0x25 SWAP5 MCOPY 0xD2 0xB9 SELFBALANCE CREATE 0xE 0x26 CREATE2 SAR SWAP3 GASPRICE CALL 0xF8 SWAP16 PUSH1 0xC3 SLT PUSH5 0x736F6C6343 STOP ADDMOD XOR STOP CALLER "},"methodIdentifiers":{"VOTE_THRESHOLD()":"a0ef4d0e","VOTING_DURATION()":"a438d208","activateVoting(uint256,string)":"cdbceb25","castVote(uint256,uint8)":"56781388","disputes(uint256)":"564a565d","finalizeVoting(uint256)":"49444831","getInspectorDecision(uint256)":"1cf9f47d","getVotingSummary(uint256)":"29046cc5","inspectorDecisions(uint256)":"b92b23a3","submitInspectorDecision(uint256,bool,uint8,string)":"5f9a71fe","tradeRegistry()":"dbd97308","triggerVotingSLABreach(uint256)":"aefa8eaa"}}}}}