{
  "_format": "hh-sol-artifact-1",
  "contractName": "DocumentVerification",
  "sourceName": "contracts/DocumentVerification.sol",
  "abi": [
    {
      "inputs": [
        {
          "internalType": "address",
          "name": "_tradeRegistry",
          "type": "address"
        }
      ],
      "stateMutability": "nonpayable",
      "type": "constructor"
    },
    {
      "anonymous": false,
      "inputs": [
        {
          "indexed": true,
          "internalType": "uint256",
          "name": "tradeId",
          "type": "uint256"
        },
        {
          "indexed": false,
          "internalType": "string",
          "name": "ipfsHash",
          "type": "string"
        },
        {
          "indexed": false,
          "internalType": "address",
          "name": "issuedBy",
          "type": "address"
        }
      ],
      "name": "BillOfLadingIssued",
      "type": "event"
    },
    {
      "anonymous": false,
      "inputs": [
        {
          "indexed": true,
          "internalType": "uint256",
          "name": "tradeId",
          "type": "uint256"
        },
        {
          "indexed": false,
          "internalType": "bool",
          "name": "cleared",
          "type": "bool"
        },
        {
          "indexed": false,
          "internalType": "address",
          "name": "decidedBy",
          "type": "address"
        }
      ],
      "name": "CustomsDecision",
      "type": "event"
    },
    {
      "anonymous": false,
      "inputs": [
        {
          "indexed": true,
          "internalType": "uint256",
          "name": "tradeId",
          "type": "uint256"
        },
        {
          "indexed": false,
          "internalType": "address",
          "name": "confirmedBy",
          "type": "address"
        }
      ],
      "name": "DutyPaymentConfirmed",
      "type": "event"
    },
    {
      "anonymous": false,
      "inputs": [
        {
          "indexed": true,
          "internalType": "uint256",
          "name": "tradeId",
          "type": "uint256"
        },
        {
          "indexed": false,
          "internalType": "address",
          "name": "releasedBy",
          "type": "address"
        }
      ],
      "name": "GoodsReleasedFromDuty",
      "type": "event"
    },
    {
      "anonymous": false,
      "inputs": [
        {
          "indexed": true,
          "internalType": "uint256",
          "name": "tradeId",
          "type": "uint256"
        },
        {
          "indexed": false,
          "internalType": "address",
          "name": "recordedBy",
          "type": "address"
        }
      ],
      "name": "TaxReceiptRecorded",
      "type": "event"
    },
    {
      "inputs": [
        {
          "internalType": "uint256",
          "name": "_tradeId",
          "type": "uint256"
        }
      ],
      "name": "confirmDutyPayment",
      "outputs": [],
      "stateMutability": "nonpayable",
      "type": "function"
    },
    {
      "inputs": [
        {
          "internalType": "uint256",
          "name": "_tradeId",
          "type": "uint256"
        }
      ],
      "name": "getBolIpfsHash",
      "outputs": [
        {
          "internalType": "string",
          "name": "",
          "type": "string"
        }
      ],
      "stateMutability": "view",
      "type": "function"
    },
    {
      "inputs": [
        {
          "internalType": "uint256",
          "name": "_tradeId",
          "type": "uint256"
        }
      ],
      "name": "getVerification",
      "outputs": [
        {
          "components": [
            {
              "internalType": "string",
              "name": "bolIpfsHash",
              "type": "string"
            },
            {
              "internalType": "string",
              "name": "customsCertIpfsHash",
              "type": "string"
            },
            {
              "internalType": "bool",
              "name": "bolIssued",
              "type": "bool"
            },
            {
              "internalType": "bool",
              "name": "customsCleared",
              "type": "bool"
            },
            {
              "internalType": "bool",
              "name": "dutyRequired",
              "type": "bool"
            },
            {
              "internalType": "bool",
              "name": "dutyPaid",
              "type": "bool"
            },
            {
              "internalType": "bool",
              "name": "dutyFeeAuthorized",
              "type": "bool"
            },
            {
              "internalType": "bool",
              "name": "receiptRecorded",
              "type": "bool"
            }
          ],
          "internalType": "struct DocumentVerification.VerificationState",
          "name": "",
          "type": "tuple"
        }
      ],
      "stateMutability": "view",
      "type": "function"
    },
    {
      "inputs": [
        {
          "internalType": "uint256",
          "name": "_tradeId",
          "type": "uint256"
        },
        {
          "internalType": "string",
          "name": "_ipfsHash",
          "type": "string"
        }
      ],
      "name": "issueBillOfLading",
      "outputs": [],
      "stateMutability": "nonpayable",
      "type": "function"
    },
    {
      "inputs": [
        {
          "internalType": "uint256",
          "name": "_tradeId",
          "type": "uint256"
        }
      ],
      "name": "recordTaxReceipt",
      "outputs": [],
      "stateMutability": "nonpayable",
      "type": "function"
    },
    {
      "inputs": [
        {
          "internalType": "uint256",
          "name": "_tradeId",
          "type": "uint256"
        }
      ],
      "name": "releaseFromDuty",
      "outputs": [],
      "stateMutability": "nonpayable",
      "type": "function"
    },
    {
      "inputs": [],
      "name": "tradeRegistry",
      "outputs": [
        {
          "internalType": "contract TradeRegistry",
          "name": "",
          "type": "address"
        }
      ],
      "stateMutability": "view",
      "type": "function"
    },
    {
      "inputs": [
        {
          "internalType": "uint256",
          "name": "",
          "type": "uint256"
        }
      ],
      "name": "verifications",
      "outputs": [
        {
          "internalType": "string",
          "name": "bolIpfsHash",
          "type": "string"
        },
        {
          "internalType": "string",
          "name": "customsCertIpfsHash",
          "type": "string"
        },
        {
          "internalType": "bool",
          "name": "bolIssued",
          "type": "bool"
        },
        {
          "internalType": "bool",
          "name": "customsCleared",
          "type": "bool"
        },
        {
          "internalType": "bool",
          "name": "dutyRequired",
          "type": "bool"
        },
        {
          "internalType": "bool",
          "name": "dutyPaid",
          "type": "bool"
        },
        {
          "internalType": "bool",
          "name": "dutyFeeAuthorized",
          "type": "bool"
        },
        {
          "internalType": "bool",
          "name": "receiptRecorded",
          "type": "bool"
        }
      ],
      "stateMutability": "view",
      "type": "function"
    },
    {
      "inputs": [
        {
          "internalType": "uint256",
          "name": "_tradeId",
          "type": "uint256"
        },
        {
          "internalType": "bool",
          "name": "_cleared",
          "type": "bool"
        },
        {
          "internalType": "string",
          "name": "_certIpfsHash",
          "type": "string"
        }
      ],
      "name": "verifyAsCustoms",
      "outputs": [],
      "stateMutability": "nonpayable",
      "type": "function"
    }
  ],
  "bytecode": "0x60806040523480156200001157600080fd5b5060405162002a8238038062002a828339818101604052810190620000379190620000e8565b806000806101000a81548173ffffffffffffffffffffffffffffffffffffffff021916908373ffffffffffffffffffffffffffffffffffffffff160217905550506200011a565b600080fd5b600073ffffffffffffffffffffffffffffffffffffffff82169050919050565b6000620000b08262000083565b9050919050565b620000c281620000a3565b8114620000ce57600080fd5b50565b600081519050620000e281620000b7565b92915050565b6000602082840312156200010157620001006200007e565b5b60006200011184828501620000d1565b91505092915050565b612958806200012a6000396000f3fe608060405234801561001057600080fd5b50600436106100935760003560e01c80638dd62219116100665780638dd622191461011c578063959aec851461014c5780639b8d8a1014610168578063b90b0a1014610184578063dbd97308146101bb57610093565b80633896b80c146100985780633eb3da48146100b457806358937cc8146100d05780636e0ede4f14610100575b600080fd5b6100b260048036038101906100ad91906116aa565b6101d9565b005b6100ce60048036038101906100c9919061173c565b610449565b005b6100ea60048036038101906100e591906116aa565b610837565b6040516100f791906118fe565b60405180910390f35b61011a600480360381019061011591906116aa565b610a2b565b005b610136600480360381019061013191906116aa565b610e0a565b604051610143919061196a565b60405180910390f35b610166600480360381019061016191906119b8565b610eb2565b005b610182600480360381019061017d91906116aa565b611199565b005b61019e600480360381019061019991906116aa565b611445565b6040516101b2989796959493929190611a3b565b60405180910390f35b6101c36115eb565b6040516101d09190611b46565b60405180910390f35b60008060009054906101000a900473ffffffffffffffffffffffffffffffffffffffff1673ffffffffffffffffffffffffffffffffffffffff16632db25e05836040518263ffffffff1660e01b81526004016102359190611b70565b61016060405180830381865afa158015610253573d6000803e3d6000fd5b505050506040513d601f19601f820116820180604052508101906102779190611da4565b9050600a600f81111561028d5761028c611dd2565b5b8160c00151600f8111156102a4576102a3611dd2565b5b146102e4576040517f08c379a00000000000000000000000000000000000000000000000000000000081526004016102db90611e4d565b60405180910390fd5b60006001600084815260200190815260200160002090508060020160039054906101000a900460ff1661034c576040517f08c379a000000000000000000000000000000000000000000000000000000000815260040161034390611edf565b60405180910390fd5b8060020160049054906101000a900460ff1661039d576040517f08c379a000000000000000000000000000000000000000000000000000000000815260040161039490611f71565b60405180910390fd5b8060020160059054906101000a900460ff16156103ef576040517f08c379a00000000000000000000000000000000000000000000000000000000081526004016103e690611fdd565b60405180910390fd5b60018160020160056101000a81548160ff021916908315150217905550827fdde75a4a33c4674911b4659751e101f012ab9c26decb7f75509abd4cf37ae71f3360405161043c919061200c565b60405180910390a2505050565b8260008060009054906101000a900473ffffffffffffffffffffffffffffffffffffffff1673ffffffffffffffffffffffffffffffffffffffff16632db25e05836040518263ffffffff1660e01b81526004016104a69190611b70565b61016060405180830381865afa1580156104c4573d6000803e3d6000fd5b505050506040513d601f19601f820116820180604052508101906104e89190611da4565b90508060a0015173ffffffffffffffffffffffffffffffffffffffff163373ffffffffffffffffffffffffffffffffffffffff161461055c576040517f08c379a000000000000000000000000000000000000000000000000000000000815260040161055390612073565b60405180910390fd5b60008060009054906101000a900473ffffffffffffffffffffffffffffffffffffffff1673ffffffffffffffffffffffffffffffffffffffff16632db25e05876040518263ffffffff1660e01b81526004016105b89190611b70565b61016060405180830381865afa1580156105d6573d6000803e3d6000fd5b505050506040513d601f19601f820116820180604052508101906105fa9190611da4565b90506006600f8111156106105761060f611dd2565b5b8160c00151600f81111561062757610626611dd2565b5b14610667576040517f08c379a000000000000000000000000000000000000000000000000000000000815260040161065e90612105565b60405180910390fd5b600085859050116106ad576040517f08c379a00000000000000000000000000000000000000000000000000000000081526004016106a490612171565b60405180910390fd5b6001600087815260200190815260200160002060020160009054906101000a900460ff1615610711576040517f08c379a0000000000000000000000000000000000000000000000000000000008152600401610708906121dd565b60405180910390fd5b848460016000898152602001908152602001600020600001918261073692919061240a565b50600180600088815260200190815260200160002060020160006101000a81548160ff02191690831515021790555060008054906101000a900473ffffffffffffffffffffffffffffffffffffffff1673ffffffffffffffffffffffffffffffffffffffff16633a1b3d318760076040518363ffffffff1660e01b81526004016107c1929190612522565b600060405180830381600087803b1580156107db57600080fd5b505af11580156107ef573d6000803e3d6000fd5b50505050857f63149911db316f829a231b8a15319e7c3955ae2dc560e0f9a964d69ba0be2dbd86863360405161082793929190612587565b60405180910390a2505050505050565b61083f61160f565b600160008381526020019081526020016000206040518061010001604052908160008201805461086e90612237565b80601f016020809104026020016040519081016040528092919081815260200182805461089a90612237565b80156108e75780601f106108bc576101008083540402835291602001916108e7565b820191906000526020600020905b8154815290600101906020018083116108ca57829003601f168201915b5050505050815260200160018201805461090090612237565b80601f016020809104026020016040519081016040528092919081815260200182805461092c90612237565b80156109795780601f1061094e57610100808354040283529160200191610979565b820191906000526020600020905b81548152906001019060200180831161095c57829003601f168201915b505050505081526020016002820160009054906101000a900460ff161515151581526020016002820160019054906101000a900460ff161515151581526020016002820160029054906101000a900460ff161515151581526020016002820160039054906101000a900460ff161515151581526020016002820160049054906101000a900460ff161515151581526020016002820160059054906101000a900460ff1615151515815250509050919050565b8060008060009054906101000a900473ffffffffffffffffffffffffffffffffffffffff1673ffffffffffffffffffffffffffffffffffffffff16632db25e05836040518263ffffffff1660e01b8152600401610a889190611b70565b61016060405180830381865afa158015610aa6573d6000803e3d6000fd5b505050506040513d601f19601f82011682018060405250810190610aca9190611da4565b9050806060015173ffffffffffffffffffffffffffffffffffffffff163373ffffffffffffffffffffffffffffffffffffffff1614610b3e576040517f08c379a0000000000000000000000000000000000000000000000000000000008152600401610b359061262b565b60405180910390fd5b60008060009054906101000a900473ffffffffffffffffffffffffffffffffffffffff1673ffffffffffffffffffffffffffffffffffffffff16632db25e05856040518263ffffffff1660e01b8152600401610b9a9190611b70565b61016060405180830381865afa158015610bb8573d6000803e3d6000fd5b505050506040513d601f19601f82011682018060405250810190610bdc9190611da4565b90506009600f811115610bf257610bf1611dd2565b5b8160c00151600f811115610c0957610c08611dd2565b5b14610c49576040517f08c379a0000000000000000000000000000000000000000000000000000000008152600401610c4090612697565b60405180910390fd5b60006001600086815260200190815260200160002090508060020160029054906101000a900460ff16610cb1576040517f08c379a0000000000000000000000000000000000000000000000000000000008152600401610ca890612703565b60405180910390fd5b8060020160039054906101000a900460ff1615610d03576040517f08c379a0000000000000000000000000000000000000000000000000000000008152600401610cfa9061276f565b60405180910390fd5b60018160020160036101000a81548160ff02191690831515021790555060018160020160046101000a81548160ff02191690831515021790555060008054906101000a900473ffffffffffffffffffffffffffffffffffffffff1673ffffffffffffffffffffffffffffffffffffffff16633a1b3d3186600a6040518363ffffffff1660e01b8152600401610d99929190612522565b600060405180830381600087803b158015610db357600080fd5b505af1158015610dc7573d6000803e3d6000fd5b50505050847f37932aba02f25b6bb85bab61365c8a3f049a0ad3b5289ab59c68c4bd30152e1833604051610dfb919061200c565b60405180910390a25050505050565b6060600160008381526020019081526020016000206000018054610e2d90612237565b80601f0160208091040260200160405190810160405280929190818152602001828054610e5990612237565b8015610ea65780601f10610e7b57610100808354040283529160200191610ea6565b820191906000526020600020905b815481529060010190602001808311610e8957829003601f168201915b50505050509050919050565b60008060009054906101000a900473ffffffffffffffffffffffffffffffffffffffff1673ffffffffffffffffffffffffffffffffffffffff16632db25e05866040518263ffffffff1660e01b8152600401610f0e9190611b70565b61016060405180830381865afa158015610f2c573d6000803e3d6000fd5b505050506040513d601f19601f82011682018060405250810190610f509190611da4565b90506007600f811115610f6657610f65611dd2565b5b8160c00151600f811115610f7d57610f7c611dd2565b5b14610fbd576040517f08c379a0000000000000000000000000000000000000000000000000000000008152600401610fb4906127db565b60405180910390fd5b60006001600087815260200190815260200160002090506000848490501115610ff5578383826001019182610ff392919061240a565b505b84156110ab5760018160020160016101000a81548160ff02191690831515021790555060008054906101000a900473ffffffffffffffffffffffffffffffffffffffff1673ffffffffffffffffffffffffffffffffffffffff16633a1b3d318760086040518363ffffffff1660e01b8152600401611074929190612522565b600060405180830381600087803b15801561108e57600080fd5b505af11580156110a2573d6000803e3d6000fd5b50505050611157565b60018160020160026101000a81548160ff02191690831515021790555060008054906101000a900473ffffffffffffffffffffffffffffffffffffffff1673ffffffffffffffffffffffffffffffffffffffff16633a1b3d318760096040518363ffffffff1660e01b8152600401611124929190612522565b600060405180830381600087803b15801561113e57600080fd5b505af1158015611152573d6000803e3d6000fd5b505050505b857f96752bae5a7241784ea98ffd832f3608db43fd5c35942d102b1a92fdaef13f9686336040516111899291906127fb565b60405180910390a2505050505050565b60008060009054906101000a900473ffffffffffffffffffffffffffffffffffffffff1673ffffffffffffffffffffffffffffffffffffffff16632db25e05836040518263ffffffff1660e01b81526004016111f59190611b70565b61016060405180830381865afa158015611213573d6000803e3d6000fd5b505050506040513d601f19601f820116820180604052508101906112379190611da4565b9050600a600f81111561124d5761124c611dd2565b5b8160c00151600f81111561126457611263611dd2565b5b146112a4576040517f08c379a000000000000000000000000000000000000000000000000000000000815260040161129b90611e4d565b60405180910390fd5b60006001600084815260200190815260200160002090508060020160039054906101000a900460ff1661130c576040517f08c379a000000000000000000000000000000000000000000000000000000000815260040161130390612870565b60405180910390fd5b8060020160059054906101000a900460ff1661135d576040517f08c379a000000000000000000000000000000000000000000000000000000000815260040161135490612902565b60405180910390fd5b60018160020160016101000a81548160ff02191690831515021790555060008054906101000a900473ffffffffffffffffffffffffffffffffffffffff1673ffffffffffffffffffffffffffffffffffffffff16633a1b3d318460086040518363ffffffff1660e01b81526004016113d6929190612522565b600060405180830381600087803b1580156113f057600080fd5b505af1158015611404573d6000803e3d6000fd5b50505050827f256a72b45efe5d14bc1b5448dea14f76c8a9902c697c96c1e2862f50d37604c033604051611438919061200c565b60405180910390a2505050565b600160205280600052604060002060009150905080600001805461146890612237565b80601f016020809104026020016040519081016040528092919081815260200182805461149490612237565b80156114e15780601f106114b6576101008083540402835291602001916114e1565b820191906000526020600020905b8154815290600101906020018083116114c457829003601f168201915b5050505050908060010180546114f690612237565b80601f016020809104026020016040519081016040528092919081815260200182805461152290612237565b801561156f5780601f106115445761010080835404028352916020019161156f565b820191906000526020600020905b81548152906001019060200180831161155257829003601f168201915b5050505050908060020160009054906101000a900460ff16908060020160019054906101000a900460ff16908060020160029054906101000a900460ff16908060020160039054906101000a900460ff16908060020160049054906101000a900460ff16908060020160059054906101000a900460ff16905088565b60008054906101000a900473ffffffffffffffffffffffffffffffffffffffff1681565b60405180610100016040528060608152602001606081526020016000151581526020016000151581526020016000151581526020016000151581526020016000151581526020016000151581525090565b6000604051905090565b600080fd5b600080fd5b6000819050919050565b61168781611674565b811461169257600080fd5b50565b6000813590506116a48161167e565b92915050565b6000602082840312156116c0576116bf61166a565b5b60006116ce84828501611695565b91505092915050565b600080fd5b600080fd5b600080fd5b60008083601f8401126116fc576116fb6116d7565b5b8235905067ffffffffffffffff811115611719576117186116dc565b5b602083019150836001820283011115611735576117346116e1565b5b9250929050565b6000806000604084860312156117555761175461166a565b5b600061176386828701611695565b935050602084013567ffffffffffffffff8111156117845761178361166f565b5b611790868287016116e6565b92509250509250925092565b600081519050919050565b600082825260208201905092915050565b60005b838110156117d65780820151818401526020810190506117bb565b60008484015250505050565b6000601f19601f8301169050919050565b60006117fe8261179c565b61180881856117a7565b93506118188185602086016117b8565b611821816117e2565b840191505092915050565b60008115159050919050565b6118418161182c565b82525050565b600061010083016000830151848203600086015261186582826117f3565b9150506020830151848203602086015261187f82826117f3565b91505060408301516118946040860182611838565b5060608301516118a76060860182611838565b5060808301516118ba6080860182611838565b5060a08301516118cd60a0860182611838565b5060c08301516118e060c0860182611838565b5060e08301516118f360e0860182611838565b508091505092915050565b600060208201905081810360008301526119188184611847565b905092915050565b600082825260208201905092915050565b600061193c8261179c565b6119468185611920565b93506119568185602086016117b8565b61195f816117e2565b840191505092915050565b600060208201905081810360008301526119848184611931565b905092915050565b6119958161182c565b81146119a057600080fd5b50565b6000813590506119b28161198c565b92915050565b600080600080606085870312156119d2576119d161166a565b5b60006119e087828801611695565b94505060206119f1878288016119a3565b935050604085013567ffffffffffffffff811115611a1257611a1161166f565b5b611a1e878288016116e6565b925092505092959194509250565b611a358161182c565b82525050565b6000610100820190508181036000830152611a56818b611931565b90508181036020830152611a6a818a611931565b9050611a796040830189611a2c565b611a866060830188611a2c565b611a936080830187611a2c565b611aa060a0830186611a2c565b611aad60c0830185611a2c565b611aba60e0830184611a2c565b9998505050505050505050565b600073ffffffffffffffffffffffffffffffffffffffff82169050919050565b6000819050919050565b6000611b0c611b07611b0284611ac7565b611ae7565b611ac7565b9050919050565b6000611b1e82611af1565b9050919050565b6000611b3082611b13565b9050919050565b611b4081611b25565b82525050565b6000602082019050611b5b6000830184611b37565b92915050565b611b6a81611674565b82525050565b6000602082019050611b856000830184611b61565b92915050565b600080fd5b7f4e487b7100000000000000000000000000000000000000000000000000000000600052604160045260246000fd5b611bc8826117e2565b810181811067ffffffffffffffff82111715611be757611be6611b90565b5b80604052505050565b6000611bfa611660565b9050611c068282611bbf565b919050565b600081519050611c1a8161167e565b92915050565b6000611c2b82611ac7565b9050919050565b611c3b81611c20565b8114611c4657600080fd5b50565b600081519050611c5881611c32565b92915050565b60108110611c6b57600080fd5b50565b600081519050611c7d81611c5e565b92915050565b600081519050611c928161198c565b92915050565b60006101608284031215611caf57611cae611b8b565b5b611cba610160611bf0565b90506000611cca84828501611c0b565b6000830152506020611cde84828501611c49565b6020830152506040611cf284828501611c49565b6040830152506060611d0684828501611c49565b6060830152506080611d1a84828501611c49565b60808301525060a0611d2e84828501611c49565b60a08301525060c0611d4284828501611c6e565b60c08301525060e0611d5684828501611c0b565b60e083015250610100611d6b84828501611c0b565b61010083015250610120611d8184828501611c83565b61012083015250610140611d9784828501611c83565b6101408301525092915050565b60006101608284031215611dbb57611dba61166a565b5b6000611dc984828501611c98565b91505092915050565b7f4e487b7100000000000000000000000000000000000000000000000000000000600052602160045260246000fd5b7f44757479206e6f74207061696420796574000000000000000000000000000000600082015250565b6000611e37601183611920565b9150611e4282611e01565b602082019050919050565b60006020820190508181036000830152611e6681611e2a565b9050919050565b7f496d706f727465722042616e6b20686173206e6f7420636f6e6669726d65642060008201527f64757479207061796d656e740000000000000000000000000000000000000000602082015250565b6000611ec9602c83611920565b9150611ed482611e6d565b604082019050919050565b60006020820190508181036000830152611ef881611ebc565b9050919050565b7f4475747920666565206e6f7420617574686f72697a656420627920496d706f7260008201527f7465722042616e6b000000000000000000000000000000000000000000000000602082015250565b6000611f5b602883611920565b9150611f6682611eff565b604082019050919050565b60006020820190508181036000830152611f8a81611f4e565b9050919050565b7f5265636569707420616c7265616479207265636f726465640000000000000000600082015250565b6000611fc7601883611920565b9150611fd282611f91565b602082019050919050565b60006020820190508181036000830152611ff681611fba565b9050919050565b61200681611c20565b82525050565b60006020820190506120216000830184611ffd565b92915050565b7f4f6e6c792061737369676e6564207368697070696e6720636f6d70616e790000600082015250565b600061205d601e83611920565b915061206882612027565b602082019050919050565b6000602082019050818103600083015261208c81612050565b9050919050565b7f5472616465206d75737420626520696e205348495050494e475f41535349474e60008201527f4544207374617475730000000000000000000000000000000000000000000000602082015250565b60006120ef602983611920565b91506120fa82612093565b604082019050919050565b6000602082019050818103600083015261211e816120e2565b9050919050565b7f4950465320686173682072657175697265640000000000000000000000000000600082015250565b600061215b601283611920565b915061216682612125565b602082019050919050565b6000602082019050818103600083015261218a8161214e565b9050919050565b7f426f4c20616c7265616479206973737565640000000000000000000000000000600082015250565b60006121c7601283611920565b91506121d282612191565b602082019050919050565b600060208201905081810360008301526121f6816121ba565b9050919050565b600082905092915050565b7f4e487b7100000000000000000000000000000000000000000000000000000000600052602260045260246000fd5b6000600282049050600182168061224f57607f821691505b60208210810361226257612261612208565b5b50919050565b60008190508160005260206000209050919050565b60006020601f8301049050919050565b600082821b905092915050565b6000600883026122ca7fffffffffffffffffffffffffffffffffffffffffffffffffffffffffffffffff8261228d565b6122d4868361228d565b95508019841693508086168417925050509392505050565b60006123076123026122fd84611674565b611ae7565b611674565b9050919050565b6000819050919050565b612321836122ec565b61233561232d8261230e565b84845461229a565b825550505050565b600090565b61234a61233d565b612355818484612318565b505050565b5b818110156123795761236e600082612342565b60018101905061235b565b5050565b601f8211156123be5761238f81612268565b6123988461227d565b810160208510156123a7578190505b6123bb6123b38561227d565b83018261235a565b50505b505050565b600082821c905092915050565b60006123e1600019846008026123c3565b1980831691505092915050565b60006123fa83836123d0565b9150826002028217905092915050565b61241483836121fd565b67ffffffffffffffff81111561242d5761242c611b90565b5b6124378254612237565b61244282828561237d565b6000601f831160018114612471576000841561245f578287013590505b61246985826123ee565b8655506124d1565b601f19841661247f86612268565b60005b828110156124a757848901358255600182019150602085019450602081019050612482565b868310156124c457848901356124c0601f8916826123d0565b8355505b6001600288020188555050505b50505050505050565b601081106124eb576124ea611dd2565b5b50565b60008190506124fc826124da565b919050565b600061250c826124ee565b9050919050565b61251c81612501565b82525050565b60006040820190506125376000830185611b61565b6125446020830184612513565b9392505050565b82818337600083830152505050565b60006125668385611920565b935061257383858461254b565b61257c836117e2565b840190509392505050565b600060408201905081810360008301526125a281858761255a565b90506125b16020830184611ffd565b949350505050565b7f4f6e6c792069737375696e672062616e6b2028696d706f727465722062616e6b60008201527f2900000000000000000000000000000000000000000000000000000000000000602082015250565b6000612615602183611920565b9150612620826125b9565b604082019050919050565b6000602082019050818103600083015261264481612608565b9050919050565b7f4e6f2070656e64696e6720647574790000000000000000000000000000000000600082015250565b6000612681600f83611920565b915061268c8261264b565b602082019050919050565b600060208201905081810360008301526126b081612674565b9050919050565b7f4475747920776173206e6f742072657175697265640000000000000000000000600082015250565b60006126ed601583611920565b91506126f8826126b7565b602082019050919050565b6000602082019050818103600083015261271c816126e0565b9050919050565b7f4475747920616c7265616479207265636f726465642061732070616964000000600082015250565b6000612759601d83611920565b915061276482612723565b602082019050919050565b600060208201905081810360008301526127888161274c565b9050919050565b7f476f6f6473206e6f742079657420736869707065640000000000000000000000600082015250565b60006127c5601583611920565b91506127d08261278f565b602082019050919050565b600060208201905081810360008301526127f4816127b8565b9050919050565b60006040820190506128106000830185611a2c565b61281d6020830184611ffd565b9392505050565b7f44757479206e6f74207265636f72646564206173207061696400000000000000600082015250565b600061285a601983611920565b915061286582612824565b602082019050919050565b600060208201905081810360008301526128898161284d565b9050919050565b7f5461782072656365697074206d757374206265207265636f726465642062656660008201527f6f72652072656c656173696e6720676f6f647300000000000000000000000000602082015250565b60006128ec603383611920565b91506128f782612890565b604082019050919050565b6000602082019050818103600083015261291b816128df565b905091905056fea264697066735822122060114c1df2eed3ae38849d1e068edce2ee80199e4b1cb1a4d5b3f00cbb32a16d64736f6c63430008180033",
  "linkReferences": {},
  "deployedLinkReferences": {}
}