{
  "_format": "hh-sol-artifact-1",
  "contractName": "LetterOfCredit",
  "sourceName": "contracts/LetterOfCredit.sol",
  "abi": [
    {
      "inputs": [
        {
          "internalType": "address",
          "name": "_tradeRegistry",
          "type": "address"
        }
      ],
      "stateMutability": "nonpayable",
      "type": "constructor"
    },
    {
      "anonymous": false,
      "inputs": [
        {
          "indexed": true,
          "internalType": "uint256",
          "name": "tradeId",
          "type": "uint256"
        },
        {
          "indexed": false,
          "internalType": "uint256",
          "name": "amount",
          "type": "uint256"
        }
      ],
      "name": "FundsLocked",
      "type": "event"
    },
    {
      "anonymous": false,
      "inputs": [
        {
          "indexed": true,
          "internalType": "uint256",
          "name": "tradeId",
          "type": "uint256"
        },
        {
          "indexed": false,
          "internalType": "address",
          "name": "approvedBy",
          "type": "address"
        }
      ],
      "name": "LoCApproved",
      "type": "event"
    },
    {
      "anonymous": false,
      "inputs": [
        {
          "indexed": true,
          "internalType": "uint256",
          "name": "tradeId",
          "type": "uint256"
        },
        {
          "indexed": false,
          "internalType": "string",
          "name": "ipfsHash",
          "type": "string"
        },
        {
          "indexed": false,
          "internalType": "address",
          "name": "uploadedBy",
          "type": "address"
        }
      ],
      "name": "LoCDocumentUploaded",
      "type": "event"
    },
    {
      "inputs": [
        {
          "internalType": "uint256",
          "name": "_tradeId",
          "type": "uint256"
        }
      ],
      "name": "approveLoC",
      "outputs": [],
      "stateMutability": "nonpayable",
      "type": "function"
    },
    {
      "inputs": [
        {
          "internalType": "uint256",
          "name": "_tradeId",
          "type": "uint256"
        }
      ],
      "name": "getLoC",
      "outputs": [
        {
          "components": [
            {
              "internalType": "uint256",
              "name": "tradeId",
              "type": "uint256"
            },
            {
              "internalType": "uint256",
              "name": "amount",
              "type": "uint256"
            },
            {
              "internalType": "uint256",
              "name": "expiry",
              "type": "uint256"
            },
            {
              "internalType": "string",
              "name": "locDocIpfsHash",
              "type": "string"
            },
            {
              "internalType": "bool",
              "name": "isUploaded",
              "type": "bool"
            },
            {
              "internalType": "bool",
              "name": "isApproved",
              "type": "bool"
            },
            {
              "internalType": "bool",
              "name": "fundsLocked",
              "type": "bool"
            }
          ],
          "internalType": "struct LetterOfCredit.LoC",
          "name": "",
          "type": "tuple"
        }
      ],
      "stateMutability": "view",
      "type": "function"
    },
    {
      "inputs": [
        {
          "internalType": "uint256",
          "name": "_tradeId",
          "type": "uint256"
        }
      ],
      "name": "lockFunds",
      "outputs": [],
      "stateMutability": "nonpayable",
      "type": "function"
    },
    {
      "inputs": [
        {
          "internalType": "uint256",
          "name": "",
          "type": "uint256"
        }
      ],
      "name": "locs",
      "outputs": [
        {
          "internalType": "uint256",
          "name": "tradeId",
          "type": "uint256"
        },
        {
          "internalType": "uint256",
          "name": "amount",
          "type": "uint256"
        },
        {
          "internalType": "uint256",
          "name": "expiry",
          "type": "uint256"
        },
        {
          "internalType": "string",
          "name": "locDocIpfsHash",
          "type": "string"
        },
        {
          "internalType": "bool",
          "name": "isUploaded",
          "type": "bool"
        },
        {
          "internalType": "bool",
          "name": "isApproved",
          "type": "bool"
        },
        {
          "internalType": "bool",
          "name": "fundsLocked",
          "type": "bool"
        }
      ],
      "stateMutability": "view",
      "type": "function"
    },
    {
      "inputs": [],
      "name": "tradeRegistry",
      "outputs": [
        {
          "internalType": "contract TradeRegistry",
          "name": "",
          "type": "address"
        }
      ],
      "stateMutability": "view",
      "type": "function"
    },
    {
      "inputs": [
        {
          "internalType": "uint256",
          "name": "_tradeId",
          "type": "uint256"
        },
        {
          "internalType": "uint256",
          "name": "_expiry",
          "type": "uint256"
        },
        {
          "internalType": "string",
          "name": "_ipfsHash",
          "type": "string"
        }
      ],
      "name": "uploadLocDocument",
      "outputs": [],
      "stateMutability": "nonpayable",
      "type": "function"
    }
  ],
  "bytecode": "0x60803461007457601f610fd238819003918201601f19168301916001600160401b038311848410176100795780849260209460405283398101031261007457516001600160a01b0381169081900361007457600080546001600160a01b031916919091179055604051610f4290816100908239f35b600080fd5b634e487b7160e01b600052604160045260246000fdfe6080604052600436101561001257600080fd5b6000803560e01c806379f3ca1814610b5c5780638c8f95fb146109045780639522f50b146107f8578063b6d7957c14610364578063d6e4fca1146100885763dbd973081461005f57600080fd5b34610085578060031936011261008557546040516001600160a01b039091168152602090f35b80fd5b503461008557602080600319360112610360578154604051632db25e0560e01b8082526004803590830181905293926024926001600160a01b03926102009284169183818781865afa9081156103555785916080918b91610338575b5001511633036102e9578290856040518094819382528a60048301525afa9081156102de576101209288926102b1575b50500151601281101561029e57600303610263578385526001835260046040862001805460ff81161561021f5760ff8160081c166101e45761ff00191661010017905584548592911690813b156101d557600460448492836040519586948593633a1b3d3160e01b85528b828601528401525af180156101d9576101c1575b50507fca742b7bb2235c20491bfdfc19bc2a8bc509627ad2a24e87b12a79582ab1e13990604051338152a280f35b6101ca90610c25565b6101d5578238610193565b8280fd5b6040513d84823e3d90fd5b60405162461bcd60e51b81526004810186905260148186015273131bd0c8185b1c9958591e48185c1c1c9bdd995960621b6044820152606490fd5b60405162461bcd60e51b8152600481018690526019818601527f4c6f4320646f63756d656e74206e6f742075706c6f61646564000000000000006044820152606490fd5b60405162461bcd60e51b81526004810184905260148184015273131bd0c81b9bdd081e595d081d5c1b1bd859195960621b6044820152606490fd5b634e487b7160e01b865260216004528286fd5b6102d09250803d106102d7575b6102c88183610c6b565b810190610d98565b3880610114565b503d6102be565b6040513d89823e3d90fd5b60405162461bcd60e51b8152600481018790526022818701527f4f6e6c79206164766973696e672062616e6b20286578706f727465722062616e6044820152616b2960f01b6064820152608490fd5b61034f9150863d88116102d7576102c88183610c6b565b386100e4565b6040513d8b823e3d90fd5b5080fd5b50346100855760603660031901126100855760443567ffffffffffffffff8082116101d557366023830112156101d557808260040135116101d5573660248360040135840101116101d5578254604051632db25e0560e01b8082526004803590830152610200926001600160a01b031691908382602481865afa9182156102de5784926104079189916107db575b50606001516001600160a01b03163314610eb6565b602460405180948193825260043560048301525afa9182156107d05785926107b3575b5050610120810151601281101561079f5760020361074c57826004013515610712576101600151906040519161045f83610c4f565b6004358352602083015260243560408301526040519061048d6020601f19601f876004013501160183610c6b565b600484013580835260248501602084013784602085600401358401015260608301918252600160808401528460a08401528460c08401526004358552600160205260408520918351835560208401516001840155604084015160028401555180519182116106fe576105026003840154610beb565b601f81116106ba575b50602090601f831160011461064a57600493929187918361063f575b50508160011b916000199060031b1c19161760038201555b01906080810151151590825460ff62ff000060c061ff0060a0860151151560081b16940151151560101b1693169062ffffff191617171790558160018060a01b03815416803b1561036057818091604460405180948193633a1b3d3160e01b83526004356004840152600360248401525af180156101d95761062b575b50507f31f17bf00d8fa4c943b21b0a17f5f8dbad519fc19035eccd472fd10af44584c66040516040815282600401356040820152826004013560248401606083013783606084600401358301015233602082015260608160043594601f8019916004013501168101030190a280f35b61063490610c25565b6103605781386105bc565b015190503880610527565b906003840187526020872091875b601f19851681106106a2575091839160019360049695601f19811610610689575b505050811b01600382015561053f565b015160001960f88460031b161c19169055388080610679565b91926020600181928685015181550194019201610658565b60038401875260208720601f840160051c8101602085106106f7575b601f830160051c820181106106ec57505061050b565b8881556001016106d6565b50806106d6565b634e487b7160e01b86526041600452602486fd5b60405162461bcd60e51b815260206004820152601260248201527112541194c81a185cda081c995c5d5a5c995960721b6044820152606490fd5b60405162461bcd60e51b815260206004820152602560248201527f5472616465206d75737420626520696e204c4f435f494e495449415445442073604482015264746174757360d81b6064820152608490fd5b634e487b7160e01b85526021600452602485fd5b6107c99250803d106102d7576102c88183610c6b565b388061042a565b6040513d87823e3d90fd5b6107f29150843d86116102d7576102c88183610c6b565b386103f2565b50346100855760209081600319360112610085578060409160c0835161081d81610c4f565b828152828682015282858201526060808201528260808201528260a08201520152600435815260018352206040519061085582610c4f565b80548252600181015490838301918252600281015491604084019283526108e7600461088360038501610c8d565b9360608701948552015492608086019460ff85161515865260a087019360ff8660081c161515855260ff60c089019660101c1615158652604051988998818a5251908901525160408801525160608701525160e06080870152610100860190610d32565b9251151560a085015251151560c084015251151560e08301520390f35b5034610085576020366003190112610085578054604051632db25e0560e01b80825260048035908301819052926001600160a01b0392602492610200928516919083828681865afa918215610b5157866060869461096e938c91610b34575b500151163314610eb6565b846040518094819382528960048301525afa908115610b2957610120928792610b0c575b505001516012811015610af957600403610abe578284526001602052604084209160048301805460ff8160101c16610a835762ff0000191662010000179055845416908490823b15610360576044600591836040519586948593633a1b3d3160e01b85528a60048601528401525af18015610a7857610a3f575b50602060017fbedc4e5ac6876307c4b4b5761039aa2ebce89052490a34e15cc655d9142ba0dc920154604051908152a280f35b60017fbedc4e5ac6876307c4b4b5761039aa2ebce89052490a34e15cc655d9142ba0dc9294610a6f602093610c25565b94925050610a0c565b6040513d86823e3d90fd5b60405162461bcd60e51b81526020600482015260148186015273119d5b991cc8185b1c9958591e481b1bd8dad95960621b6044820152606490fd5b60649060146040519162461bcd60e51b83526020600484015282015273131bd0c81b9bdd08185c1c1c9bdd9959081e595d60621b6044820152fd5b50634e487b7160e01b8452602160045283fd5b610b229250803d106102d7576102c88183610c6b565b3880610992565b6040513d88823e3d90fd5b610b4b9150863d88116102d7576102c88183610c6b565b38610963565b6040513d8a823e3d90fd5b5034610085576020366003190112610085576040906004358152600160205220805460018201549160ff610bc46002830154926004610b9d60038301610c8d565b9101549360405196879687526020870152604086015260e0606086015260e0850190610d32565b9181811615156080850152818160081c16151560a085015260101c16151560c08301520390f35b90600182811c92168015610c1b575b6020831014610c0557565b634e487b7160e01b600052602260045260246000fd5b91607f1691610bfa565b67ffffffffffffffff8111610c3957604052565b634e487b7160e01b600052604160045260246000fd5b60e0810190811067ffffffffffffffff821117610c3957604052565b90601f8019910116810190811067ffffffffffffffff821117610c3957604052565b90604051918260008254610ca081610beb565b90818452602094600191600181169081600014610d105750600114610cd1575b505050610ccf92500383610c6b565b565b600090815285812095935091905b818310610cf8575050610ccf9350820101388080610cc0565b85548884018501529485019487945091830191610cdf565b92505050610ccf94925060ff191682840152151560051b820101388080610cc0565b919082519283825260005b848110610d5e575050826000602080949584010152601f8019910116010190565b602081830181015184830182015201610d3d565b51906001600160a01b0382168203610d8657565b600080fd5b51908115158203610d8657565b80916102009283910312610d865760405191820182811067ffffffffffffffff821117610c395760405280518252610dd260208201610d72565b6020830152610de360408201610d72565b6040830152610df460608201610d72565b6060830152610e0560808201610d72565b6080830152610e1660a08201610d72565b60a0830152610e2760c08201610d72565b60c0830152610e3860e08201610d72565b60e0830152610100610e4b818301610d72565b9083015261012080820151906012821015610d86578301526101408082015190830152610160808201519083015261018080820151908301526101a080820151908301526101c0610e9d818301610d8b565b90830152610eaf6101e0809201610d8b565b9082015290565b15610ebd57565b60405162461bcd60e51b815260206004820152602160248201527f4f6e6c792069737375696e672062616e6b2028696d706f727465722062616e6b6044820152602960f81b6064820152608490fdfea26469706673582212203e45ee76f737f16ff9ae1ace33e3ff3a03bc1f81128f4c94bd178a27815f0a4964736f6c63430008180033",
  "linkReferences": {},
  "deployedLinkReferences": {}
}