{
  "_format": "hh-sol-artifact-1",
  "contractName": "PaymentSettlement",
  "sourceName": "contracts/PaymentSettlement.sol",
  "abi": [
    {
      "inputs": [
        {
          "internalType": "address",
          "name": "_tradeRegistry",
          "type": "address"
        }
      ],
      "stateMutability": "nonpayable",
      "type": "constructor"
    },
    {
      "anonymous": false,
      "inputs": [
        {
          "indexed": true,
          "internalType": "uint256",
          "name": "tradeId",
          "type": "uint256"
        },
        {
          "indexed": false,
          "internalType": "uint256",
          "name": "amount",
          "type": "uint256"
        }
      ],
      "name": "FundsLocked",
      "type": "event"
    },
    {
      "anonymous": false,
      "inputs": [
        {
          "indexed": true,
          "internalType": "uint256",
          "name": "tradeId",
          "type": "uint256"
        },
        {
          "indexed": false,
          "internalType": "address",
          "name": "to",
          "type": "address"
        },
        {
          "indexed": false,
          "internalType": "uint256",
          "name": "amount",
          "type": "uint256"
        }
      ],
      "name": "FundsRefunded",
      "type": "event"
    },
    {
      "anonymous": false,
      "inputs": [
        {
          "indexed": true,
          "internalType": "uint256",
          "name": "tradeId",
          "type": "uint256"
        },
        {
          "indexed": false,
          "internalType": "address",
          "name": "to",
          "type": "address"
        },
        {
          "indexed": false,
          "internalType": "uint256",
          "name": "amount",
          "type": "uint256"
        }
      ],
      "name": "InsurancePayout",
      "type": "event"
    },
    {
      "anonymous": false,
      "inputs": [
        {
          "indexed": true,
          "internalType": "uint256",
          "name": "tradeId",
          "type": "uint256"
        },
        {
          "indexed": false,
          "internalType": "uint256",
          "name": "amount",
          "type": "uint256"
        },
        {
          "indexed": false,
          "internalType": "address",
          "name": "authorizedBy",
          "type": "address"
        }
      ],
      "name": "PaymentAuthorized",
      "type": "event"
    },
    {
      "anonymous": false,
      "inputs": [
        {
          "indexed": true,
          "internalType": "uint256",
          "name": "tradeId",
          "type": "uint256"
        },
        {
          "indexed": false,
          "internalType": "address",
          "name": "confirmedBy",
          "type": "address"
        }
      ],
      "name": "SettlementConfirmed",
      "type": "event"
    },
    {
      "anonymous": false,
      "inputs": [
        {
          "indexed": true,
          "internalType": "uint256",
          "name": "tradeId",
          "type": "uint256"
        }
      ],
      "name": "TradeCompleted",
      "type": "event"
    },
    {
      "inputs": [
        {
          "internalType": "uint256",
          "name": "_tradeId",
          "type": "uint256"
        }
      ],
      "name": "authorizePayment",
      "outputs": [],
      "stateMutability": "nonpayable",
      "type": "function"
    },
    {
      "inputs": [
        {
          "internalType": "uint256",
          "name": "_tradeId",
          "type": "uint256"
        }
      ],
      "name": "confirmSettlement",
      "outputs": [],
      "stateMutability": "nonpayable",
      "type": "function"
    },
    {
      "inputs": [
        {
          "internalType": "uint256",
          "name": "_tradeId",
          "type": "uint256"
        }
      ],
      "name": "depositEscrow",
      "outputs": [],
      "stateMutability": "payable",
      "type": "function"
    },
    {
      "inputs": [
        {
          "internalType": "uint256",
          "name": "_tradeId",
          "type": "uint256"
        }
      ],
      "name": "getSettlement",
      "outputs": [
        {
          "components": [
            {
              "internalType": "uint256",
              "name": "tradeId",
              "type": "uint256"
            },
            {
              "internalType": "uint256",
              "name": "amount",
              "type": "uint256"
            },
            {
              "internalType": "bool",
              "name": "fundsLocked",
              "type": "bool"
            },
            {
              "internalType": "bool",
              "name": "paymentAuthorized",
              "type": "bool"
            },
            {
              "internalType": "bool",
              "name": "settlementConfirmed",
              "type": "bool"
            },
            {
              "internalType": "bool",
              "name": "refunded",
              "type": "bool"
            },
            {
              "internalType": "uint256",
              "name": "authorizedAt",
              "type": "uint256"
            },
            {
              "internalType": "uint256",
              "name": "confirmedAt",
              "type": "uint256"
            }
          ],
          "internalType": "struct PaymentSettlement.Settlement",
          "name": "",
          "type": "tuple"
        }
      ],
      "stateMutability": "view",
      "type": "function"
    },
    {
      "inputs": [
        {
          "internalType": "uint256",
          "name": "_tradeId",
          "type": "uint256"
        }
      ],
      "name": "payoutInsurance",
      "outputs": [],
      "stateMutability": "nonpayable",
      "type": "function"
    },
    {
      "inputs": [
        {
          "internalType": "uint256",
          "name": "_tradeId",
          "type": "uint256"
        }
      ],
      "name": "refundImporter",
      "outputs": [],
      "stateMutability": "nonpayable",
      "type": "function"
    },
    {
      "inputs": [
        {
          "internalType": "uint256",
          "name": "",
          "type": "uint256"
        }
      ],
      "name": "settlements",
      "outputs": [
        {
          "internalType": "uint256",
          "name": "tradeId",
          "type": "uint256"
        },
        {
          "internalType": "uint256",
          "name": "amount",
          "type": "uint256"
        },
        {
          "internalType": "bool",
          "name": "fundsLocked",
          "type": "bool"
        },
        {
          "internalType": "bool",
          "name": "paymentAuthorized",
          "type": "bool"
        },
        {
          "internalType": "bool",
          "name": "settlementConfirmed",
          "type": "bool"
        },
        {
          "internalType": "bool",
          "name": "refunded",
          "type": "bool"
        },
        {
          "internalType": "uint256",
          "name": "authorizedAt",
          "type": "uint256"
        },
        {
          "internalType": "uint256",
          "name": "confirmedAt",
          "type": "uint256"
        }
      ],
      "stateMutability": "view",
      "type": "function"
    },
    {
      "inputs": [],
      "name": "tradeRegistry",
      "outputs": [
        {
          "internalType": "contract TradeRegistry",
          "name": "",
          "type": "address"
        }
      ],
      "stateMutability": "view",
      "type": "function"
    }
  ],
  "bytecode": "0x60803461007457601f61107738819003918201601f19168301916001600160401b038311848410176100795780849260209460405283398101031261007457516001600160a01b0381169081900361007457600080546001600160a01b031916919091179055604051610fe790816100908239f35b600080fd5b634e487b7160e01b600052604160045260246000fdfe608060408181526004918236101561001657600080fd5b600092833560e01c91826308df7dc814610cf2575081630c842ad314610b4e5781633ecfd08d1461097d5781634c5823801461087857816381a03133146106365781639e924eb5146102e2578163cb991efe146100a7575063dbd973081461007d57600080fd5b346100a357816003193601126100a357905490516001600160a01b039091168152602090f35b5080fd5b91905060203660031901126101ec5782548151632db25e0560e01b80825284358286018190529460249390926001600160a01b03926102009284169183818881865afa908a82156102d757606086949361010e938993916102ba575b500151163314610f5b565b8688518094819382528b898301525afa9182156102b0578892610283575b5050610160810151340361024957610120015160128110156102375782036101fe5790859291858452600160205284842060028101600160ff1982541617905560013491015583541690813b156101fa5760448691858094600589519788968795633a1b3d3160e01b87528601528401525af180156101f0576101d8575b505060207fbedc4e5ac6876307c4b4b5761039aa2ebce89052490a34e15cc655d9142ba0dc9151348152a280f35b6101e190610da3565b6101ec5782386101aa565b8280fd5b83513d84823e3d90fd5b8380fd5b506014606492602085519362461bcd60e51b855284015282015273131bd0c81b9bdd08185c1c1c9bdd9959081e595d60621b6044820152fd5b634e487b7160e01b8752602183528387fd5b845162461bcd60e51b815260208185015260158186015274125b98dbdc9c9958dd08185b5bdd5b9d081cd95b9d605a1b6044820152606490fd5b6102a29250803d106102a9575b61029a8183610db7565b810190610dff565b388061012c565b503d610290565b86513d8a823e3d90fd5b6102d19150863d88116102a95761029a8183610db7565b38610103565b8951903d90823e3d90fd5b8383346100a3576020806003193601126101ec5782548251632db25e0560e01b80825286358288018190526001600160a01b0397909593602493919261020092918a169183818781865afa90811561062c578b916080918c9161060f575b5001511633036105c25782908587518094819382528b888301525afa9182156105b857906101209291899261059b575b50500151601281101561058957600b03610549578486526001845282862096600288019788549860ff8a60081c16156105095760ff8a60101c166104c75762010000899a62ff00009a999a191617905582429101558086541694853b156104c357868089976044885180948193633a1b3d3160e01b9c8d84528a840152600c8b8401525af180156102b05789929189916104aa575b50507fa1d0a1fdd38ed06d2aa307534e95eb980aee48ff8deee42d7babd1f6df8eb865908651338152a2855416803b156104a657869486604492600d82968851998a97889687528601528401525af190811561049d5750610489575b50807f60f91a26281f20fb528663f4da55773c83e2ee8a7a5dddb6d1753749e81dc49b91a280f35b61049290610da3565b6100a3578183610461565b513d84823e3d90fd5b8580fd5b6104b691929350610da3565b6104c3578790878b610405565b8680fd5b855162461bcd60e51b8152808501889052601c818701527f536574746c656d656e7420616c726561647920636f6e6669726d6564000000006044820152606490fd5b6064848887818a519362461bcd60e51b85528401528201527f5061796d656e74206e6f7420617574686f72697a6564206f6e207265636f72646044820152fd5b601a6064928585519362461bcd60e51b85528401528201527f5061796d656e74206e6f742079657420617574686f72697a65640000000000006044820152fd5b50634e487b7160e01b86526021905284fd5b6105b19250803d106102a95761029a8183610db7565b8980610370565b85513d8a823e3d90fd5b855162461bcd60e51b81528085018890526022818701527f4f6e6c79206164766973696e672062616e6b20286578706f727465722062616e6044820152616b2960f01b6064820152608490fd5b6106269150863d88116102a95761029a8183610db7565b8d610340565b87513d8c823e3d90fd5b919050346101ec5760203660031901126101ec5782548151632db25e0560e01b8082528435828601819052946102009360249391926001600160a01b03929183169186818781865afa908a82156102d75760608994936106a2938893916102ba57500151163314610f5b565b8588518094819382528b888301525afa9485156102b0578895610859575b50506101208401516012811015610847576008036108055785875260016020528487206002810180549560ff8760081c166107c357888355610160018051600184015561ff001990961661010017905542600390910155865487929116803b156101ec57869183604492600b89519788968795633a1b3d3160e01b87528601528401525af180156107b957610784575b50907ff506ea28cde1c7e7f1613d8385c5f1dc792cfc6757f3601542d1fee26a905a1d91518151908152336020820152a280f35b936107b17ff506ea28cde1c7e7f1613d8385c5f1dc792cfc6757f3601542d1fee26a905a1d939295610da3565b939091610750565b83513d87823e3d90fd5b875162461bcd60e51b8152602081870152601a818801527f5061796d656e7420616c726561647920617574686f72697a65640000000000006044820152606490fd5b50601d606492602086519362461bcd60e51b85528401528201527f437573746f6d73206d75737420626520636c65617265642066697273740000006044820152fd5b634e487b7160e01b8852602183528388fd5b610870929550803d106102a95761029a8183610db7565b9238806106c0565b919050346101ec5760203660031901126101ec5780836101009460e0835161089f81610d70565b82815282602082015282858201528260608201528260808201528260a08201528260c08201520152833581526001602052208151916108dd83610d70565b81549384845260018301546020850190815260028401549280860160ff851615158152606087019260ff8660081c161515845260e0608089019560ff8860101c161515875260ff60a08b019860181c161515885260038901549860c08b01998a52015498019788528251988952516020890152511515908701525115156060860152511515608085015251151560a08401525160c08301525160e0820152f35b9050346101ec5760203660031901126101ec5782548251632db25e0560e01b8152823581840181905292610200926001600160a01b03929084908290602490829087165afa938415610b44578794610b25575b50506101208301516012811015610b1257601003610ad6578386526001602052848620906002820190815490610a0860ff8316610f1d565b60ff8260181c16610aa0575091600191630100000060609463ff00000019161790550192868454945501858080808686865116828215610a97575bf115610a8d5751935193166001600160a01b031683526020830152907f80b577b4fc190ab86d963549e29f496afd079c5d81a2480d61217d4b5060a28c9080604081015b0390a280f35b84513d87823e3d90fd5b506108fc610a43565b606490602089519162461bcd60e51b8352820152601060248201526f105b1c9958591e481c99599d5b99195960821b6044820152fd5b606490602086519162461bcd60e51b835282015260166024820152754e6f7420696e2072657665727465642073746174757360501b6044820152fd5b634e487b7160e01b875260218252602487fd5b610b3c929450803d106102a95761029a8183610db7565b9138806109d0565b86513d89823e3d90fd5b9050346101ec5760203660031901126101ec5782548251632db25e0560e01b8152823581840181905292610200926001600160a01b03929084908290602490829087165afa938415610b44578794610cd3575b50506101208301516012811015610b1257601103610c9b578386526001602052848620906002820190815490610bd960ff8316610f1d565b60ff8260181c16610c645750916001916301000000889463ff00000019161790550192868454945501858080808686865116828215610c5b575bf115610a8d5751935193166001600160a01b031683526020830152907f32fb06330903205d582db19821ddcb0e33f74a084f9fd8c2d876719b56100e89908060408101610a87565b506108fc610c13565b606490602089519162461bcd60e51b83528201526011602482015270105b1c9958591e481c1c9bd8d95cdcd959607a1b6044820152fd5b606490602086519162461bcd60e51b8352820152601260248201527110db185a5b481b9bdd08185c1c1c9bdd995960721b6044820152fd5b610cea929450803d106102a95761029a8183610db7565b913880610ba1565b929150346101fa5760203660031901126101fa5760ff82610100958335815260016020522091825493600184015460028501549260038601549501549587526020870152828216151590860152818160081c1615156060860152818160101c161515608086015260181c16151560a084015260c083015260e0820152f35b610100810190811067ffffffffffffffff821117610d8d57604052565b634e487b7160e01b600052604160045260246000fd5b67ffffffffffffffff8111610d8d57604052565b90601f8019910116810190811067ffffffffffffffff821117610d8d57604052565b51906001600160a01b0382168203610ded57565b600080fd5b51908115158203610ded57565b80916102009283910312610ded5760405191820182811067ffffffffffffffff821117610d8d5760405280518252610e3960208201610dd9565b6020830152610e4a60408201610dd9565b6040830152610e5b60608201610dd9565b6060830152610e6c60808201610dd9565b6080830152610e7d60a08201610dd9565b60a0830152610e8e60c08201610dd9565b60c0830152610e9f60e08201610dd9565b60e0830152610100610eb2818301610dd9565b9083015261012080820151906012821015610ded578301526101408082015190830152610160808201519083015261018080820151908301526101a080820151908301526101c0610f04818301610df2565b90830152610f166101e0809201610df2565b9082015290565b15610f2457565b60405162461bcd60e51b815260206004820152600f60248201526e139bc8199d5b991cc81b1bd8dad959608a1b6044820152606490fd5b15610f6257565b60405162461bcd60e51b815260206004820152602160248201527f4f6e6c792069737375696e672062616e6b2028696d706f727465722062616e6b6044820152602960f81b6064820152608490fdfea2646970667358221220b1e5ad015a9540c4c6944269578d5c216d0d41ade39543f47de6a2af8e00d5b864736f6c63430008180033",
  "linkReferences": {},
  "deployedLinkReferences": {}
}