{
  "_format": "hh-sol-artifact-1",
  "contractName": "PaymentSettlement",
  "sourceName": "contracts/PaymentSettlement.sol",
  "abi": [
    {
      "inputs": [
        {
          "internalType": "address",
          "name": "_tradeRegistry",
          "type": "address"
        },
        {
          "internalType": "address",
          "name": "_docVerification",
          "type": "address"
        }
      ],
      "stateMutability": "nonpayable",
      "type": "constructor"
    },
    {
      "anonymous": false,
      "inputs": [
        {
          "indexed": true,
          "internalType": "uint256",
          "name": "tradeId",
          "type": "uint256"
        },
        {
          "indexed": false,
          "internalType": "uint256",
          "name": "amount",
          "type": "uint256"
        }
      ],
      "name": "PaymentAuthorized",
      "type": "event"
    },
    {
      "anonymous": false,
      "inputs": [
        {
          "indexed": true,
          "internalType": "uint256",
          "name": "tradeId",
          "type": "uint256"
        }
      ],
      "name": "ReceiptConfirmed",
      "type": "event"
    },
    {
      "inputs": [
        {
          "internalType": "uint256",
          "name": "_tradeId",
          "type": "uint256"
        }
      ],
      "name": "confirmReceipt",
      "outputs": [],
      "stateMutability": "nonpayable",
      "type": "function"
    },
    {
      "inputs": [],
      "name": "docVerification",
      "outputs": [
        {
          "internalType": "contract DocumentVerification",
          "name": "",
          "type": "address"
        }
      ],
      "stateMutability": "view",
      "type": "function"
    },
    {
      "inputs": [
        {
          "internalType": "uint256",
          "name": "",
          "type": "uint256"
        }
      ],
      "name": "importerConfirmedReceipt",
      "outputs": [
        {
          "internalType": "bool",
          "name": "",
          "type": "bool"
        }
      ],
      "stateMutability": "view",
      "type": "function"
    },
    {
      "inputs": [],
      "name": "tradeRegistry",
      "outputs": [
        {
          "internalType": "contract TradeRegistry",
          "name": "",
          "type": "address"
        }
      ],
      "stateMutability": "view",
      "type": "function"
    }
  ],
  "bytecode": "0x608060405234801561001057600080fd5b5060405162000e8138038062000e818339818101604052810190610034919061011f565b816000806101000a81548173ffffffffffffffffffffffffffffffffffffffff021916908373ffffffffffffffffffffffffffffffffffffffff16021790555080600160006101000a81548173ffffffffffffffffffffffffffffffffffffffff021916908373ffffffffffffffffffffffffffffffffffffffff160217905550505061015f565b600080fd5b600073ffffffffffffffffffffffffffffffffffffffff82169050919050565b60006100ec826100c1565b9050919050565b6100fc816100e1565b811461010757600080fd5b50565b600081519050610119816100f3565b92915050565b60008060408385031215610136576101356100bc565b5b60006101448582860161010a565b92505060206101558582860161010a565b9150509250929050565b610d12806200016f6000396000f3fe608060405234801561001057600080fd5b506004361061004c5760003560e01c806305bbc05b1461005157806327094fbd1461006f578063843cba131461009f578063dbd97308146100bb575b600080fd5b6100596100d9565b604051610066919061067a565b60405180910390f35b610089600480360381019061008491906106df565b6100ff565b6040516100969190610727565b60405180910390f35b6100b960048036038101906100b491906106df565b61011f565b005b6100c3610390565b6040516100d09190610763565b60405180910390f35b600160009054906101000a900473ffffffffffffffffffffffffffffffffffffffff1681565b60026020528060005260406000206000915054906101000a900460ff1681565b60008060009054906101000a900473ffffffffffffffffffffffffffffffffffffffff1673ffffffffffffffffffffffffffffffffffffffff16632db25e05836040518263ffffffff1660e01b815260040161017b919061078d565b61010060405180830381865afa158015610199573d6000803e3d6000fd5b505050506040513d601f19601f820116820180604052508101906101bd919061097b565b9050806020015173ffffffffffffffffffffffffffffffffffffffff163373ffffffffffffffffffffffffffffffffffffffff1614610231576040517f08c379a000000000000000000000000000000000000000000000000000000000815260040161022890610a2c565b60405180910390fd5b6004600981111561024557610244610a4c565b5b8160a00151600981111561025c5761025b610a4c565b5b1461029c576040517f08c379a000000000000000000000000000000000000000000000000000000000815260040161029390610ac7565b60405180910390fd5b60016002600084815260200190815260200160002060006101000a81548160ff02191690831515021790555060008054906101000a900473ffffffffffffffffffffffffffffffffffffffff1673ffffffffffffffffffffffffffffffffffffffff16633a1b3d318360056040518363ffffffff1660e01b8152600401610324929190610b2f565b600060405180830381600087803b15801561033e57600080fd5b505af1158015610352573d6000803e3d6000fd5b50505050817f900a2104c9fe6d9ec7b20dc2b6f3a623600abd02751b4c5dcc71d5aa4764c4ac60405160405180910390a261038c826103b4565b5050565b60008054906101000a900473ffffffffffffffffffffffffffffffffffffffff1681565b60008060009054906101000a900473ffffffffffffffffffffffffffffffffffffffff1673ffffffffffffffffffffffffffffffffffffffff16632db25e05836040518263ffffffff1660e01b8152600401610410919061078d565b61010060405180830381865afa15801561042e573d6000803e3d6000fd5b505050506040513d601f19601f82011682018060405250810190610452919061097b565b90506000600160009054906101000a900473ffffffffffffffffffffffffffffffffffffffff1673ffffffffffffffffffffffffffffffffffffffff1663b90b0a10846040518263ffffffff1660e01b81526004016104b1919061078d565b600060405180830381865afa1580156104ce573d6000803e3d6000fd5b505050506040513d6000823e3d601f19601f820116820180604052508101906104f79190610c59565b935050505080801561052657506002600084815260200190815260200160002060009054906101000a900460ff165b156105f65760008054906101000a900473ffffffffffffffffffffffffffffffffffffffff1673ffffffffffffffffffffffffffffffffffffffff16633a1b3d318460066040518363ffffffff1660e01b8152600401610587929190610b2f565b600060405180830381600087803b1580156105a157600080fd5b505af11580156105b5573d6000803e3d6000fd5b50505050827fcdafde19f51fd4c06c1194cba0a8f3f6e8a9265ae5a1f94a0d7e32e7bd19393c8360e001516040516105ed919061078d565b60405180910390a25b505050565b600073ffffffffffffffffffffffffffffffffffffffff82169050919050565b6000819050919050565b600061064061063b610636846105fb565b61061b565b6105fb565b9050919050565b600061065282610625565b9050919050565b600061066482610647565b9050919050565b61067481610659565b82525050565b600060208201905061068f600083018461066b565b92915050565b6000604051905090565b600080fd5b600080fd5b6000819050919050565b6106bc816106a9565b81146106c757600080fd5b50565b6000813590506106d9816106b3565b92915050565b6000602082840312156106f5576106f461069f565b5b6000610703848285016106ca565b91505092915050565b60008115159050919050565b6107218161070c565b82525050565b600060208201905061073c6000830184610718565b92915050565b600061074d82610647565b9050919050565b61075d81610742565b82525050565b60006020820190506107786000830184610754565b92915050565b610787816106a9565b82525050565b60006020820190506107a2600083018461077e565b92915050565b600080fd5b6000601f19601f8301169050919050565b7f4e487b7100000000000000000000000000000000000000000000000000000000600052604160045260246000fd5b6107f6826107ad565b810181811067ffffffffffffffff82111715610815576108146107be565b5b80604052505050565b6000610828610695565b905061083482826107ed565b919050565b600081519050610848816106b3565b92915050565b6000610859826105fb565b9050919050565b6108698161084e565b811461087457600080fd5b50565b60008151905061088681610860565b92915050565b600a811061089957600080fd5b50565b6000815190506108ab8161088c565b92915050565b600061010082840312156108c8576108c76107a8565b5b6108d361010061081e565b905060006108e384828501610839565b60008301525060206108f784828501610877565b602083015250604061090b84828501610877565b604083015250606061091f84828501610877565b606083015250608061093384828501610877565b60808301525060a06109478482850161089c565b60a08301525060c061095b84828501610839565b60c08301525060e061096f84828501610839565b60e08301525092915050565b600061010082840312156109925761099161069f565b5b60006109a0848285016108b1565b91505092915050565b600082825260208201905092915050565b7f4f6e6c7920696d706f727465722063616e20636f6e6669726d2072656365697060008201527f7400000000000000000000000000000000000000000000000000000000000000602082015250565b6000610a166021836109a9565b9150610a21826109ba565b604082019050919050565b60006020820190508181036000830152610a4581610a09565b9050919050565b7f4e487b7100000000000000000000000000000000000000000000000000000000600052602160045260246000fd5b7f446f63756d656e7473206e6f7420796574207665726966696564000000000000600082015250565b6000610ab1601a836109a9565b9150610abc82610a7b565b602082019050919050565b60006020820190508181036000830152610ae081610aa4565b9050919050565b600a8110610af857610af7610a4c565b5b50565b6000819050610b0982610ae7565b919050565b6000610b1982610afb565b9050919050565b610b2981610b0e565b82525050565b6000604082019050610b44600083018561077e565b610b516020830184610b20565b9392505050565b600080fd5b600080fd5b600067ffffffffffffffff821115610b7d57610b7c6107be565b5b610b86826107ad565b9050602081019050919050565b60005b83811015610bb1578082015181840152602081019050610b96565b60008484015250505050565b6000610bd0610bcb84610b62565b61081e565b905082815260208101848484011115610bec57610beb610b5d565b5b610bf7848285610b93565b509392505050565b600082601f830112610c1457610c13610b58565b5b8151610c24848260208601610bbd565b91505092915050565b610c368161070c565b8114610c4157600080fd5b50565b600081519050610c5381610c2d565b92915050565b60008060008060808587031215610c7357610c7261069f565b5b600085015167ffffffffffffffff811115610c9157610c906106a4565b5b610c9d87828801610bff565b9450506020610cae87828801610c44565b9350506040610cbf87828801610c44565b9250506060610cd087828801610c44565b9150509295919450925056fea2646970667358221220653133d99003ef85ef99d6500eb03b6399b9633698ea56f565424eae201e8b4964736f6c63430008180033",
  "linkReferences": {},
  "deployedLinkReferences": {}
}