{
  "_format": "hh-sol-artifact-1",
  "contractName": "PaymentSettlement",
  "sourceName": "contracts/PaymentSettlement.sol",
  "abi": [
    {
      "inputs": [
        {
          "internalType": "address",
          "name": "_tradeRegistry",
          "type": "address"
        }
      ],
      "stateMutability": "nonpayable",
      "type": "constructor"
    },
    {
      "anonymous": false,
      "inputs": [
        {
          "indexed": true,
          "internalType": "uint256",
          "name": "tradeId",
          "type": "uint256"
        },
        {
          "indexed": false,
          "internalType": "uint256",
          "name": "amount",
          "type": "uint256"
        },
        {
          "indexed": false,
          "internalType": "address",
          "name": "authorizedBy",
          "type": "address"
        }
      ],
      "name": "PaymentAuthorized",
      "type": "event"
    },
    {
      "anonymous": false,
      "inputs": [
        {
          "indexed": true,
          "internalType": "uint256",
          "name": "tradeId",
          "type": "uint256"
        },
        {
          "indexed": false,
          "internalType": "address",
          "name": "confirmedBy",
          "type": "address"
        }
      ],
      "name": "SettlementConfirmed",
      "type": "event"
    },
    {
      "anonymous": false,
      "inputs": [
        {
          "indexed": true,
          "internalType": "uint256",
          "name": "tradeId",
          "type": "uint256"
        }
      ],
      "name": "TradeCompleted",
      "type": "event"
    },
    {
      "inputs": [
        {
          "internalType": "uint256",
          "name": "_tradeId",
          "type": "uint256"
        }
      ],
      "name": "authorizePayment",
      "outputs": [],
      "stateMutability": "nonpayable",
      "type": "function"
    },
    {
      "inputs": [
        {
          "internalType": "uint256",
          "name": "_tradeId",
          "type": "uint256"
        }
      ],
      "name": "confirmSettlement",
      "outputs": [],
      "stateMutability": "nonpayable",
      "type": "function"
    },
    {
      "inputs": [
        {
          "internalType": "uint256",
          "name": "_tradeId",
          "type": "uint256"
        }
      ],
      "name": "getSettlement",
      "outputs": [
        {
          "components": [
            {
              "internalType": "uint256",
              "name": "tradeId",
              "type": "uint256"
            },
            {
              "internalType": "uint256",
              "name": "amount",
              "type": "uint256"
            },
            {
              "internalType": "bool",
              "name": "paymentAuthorized",
              "type": "bool"
            },
            {
              "internalType": "bool",
              "name": "settlementConfirmed",
              "type": "bool"
            },
            {
              "internalType": "uint256",
              "name": "authorizedAt",
              "type": "uint256"
            },
            {
              "internalType": "uint256",
              "name": "confirmedAt",
              "type": "uint256"
            }
          ],
          "internalType": "struct PaymentSettlement.Settlement",
          "name": "",
          "type": "tuple"
        }
      ],
      "stateMutability": "view",
      "type": "function"
    },
    {
      "inputs": [
        {
          "internalType": "uint256",
          "name": "",
          "type": "uint256"
        }
      ],
      "name": "settlements",
      "outputs": [
        {
          "internalType": "uint256",
          "name": "tradeId",
          "type": "uint256"
        },
        {
          "internalType": "uint256",
          "name": "amount",
          "type": "uint256"
        },
        {
          "internalType": "bool",
          "name": "paymentAuthorized",
          "type": "bool"
        },
        {
          "internalType": "bool",
          "name": "settlementConfirmed",
          "type": "bool"
        },
        {
          "internalType": "uint256",
          "name": "authorizedAt",
          "type": "uint256"
        },
        {
          "internalType": "uint256",
          "name": "confirmedAt",
          "type": "uint256"
        }
      ],
      "stateMutability": "view",
      "type": "function"
    },
    {
      "inputs": [],
      "name": "tradeRegistry",
      "outputs": [
        {
          "internalType": "contract TradeRegistry",
          "name": "",
          "type": "address"
        }
      ],
      "stateMutability": "view",
      "type": "function"
    }
  ],
  "bytecode": "0x60806040523480156200001157600080fd5b50604051620014ed380380620014ed8339818101604052810190620000379190620000e8565b806000806101000a81548173ffffffffffffffffffffffffffffffffffffffff021916908373ffffffffffffffffffffffffffffffffffffffff160217905550506200011a565b600080fd5b600073ffffffffffffffffffffffffffffffffffffffff82169050919050565b6000620000b08262000083565b9050919050565b620000c281620000a3565b8114620000ce57600080fd5b50565b600081519050620000e281620000b7565b92915050565b6000602082840312156200010157620001006200007e565b5b60006200011184828501620000d1565b91505092915050565b6113c3806200012a6000396000f3fe608060405234801561001057600080fd5b50600436106100575760003560e01c806308df7dc81461005c5780634c5823801461009157806381a03133146100c15780639e924eb5146100dd578063dbd97308146100f9575b600080fd5b61007660048036038101906100719190610ab9565b610117565b60405161008896959493929190610b10565b60405180910390f35b6100ab60048036038101906100a69190610ab9565b61016d565b6040516100b89190610c0a565b60405180910390f35b6100db60048036038101906100d69190610ab9565b6101f8565b005b6100f760048036038101906100f29190610ab9565b610590565b005b610101610a16565b60405161010e9190610ca4565b60405180910390f35b60016020528060005260406000206000915090508060000154908060010154908060020160009054906101000a900460ff16908060020160019054906101000a900460ff16908060030154908060040154905086565b610175610a3a565b600160008381526020019081526020016000206040518060c001604052908160008201548152602001600182015481526020016002820160009054906101000a900460ff161515151581526020016002820160019054906101000a900460ff16151515158152602001600382015481526020016004820154815250509050919050565b8060008060009054906101000a900473ffffffffffffffffffffffffffffffffffffffff1673ffffffffffffffffffffffffffffffffffffffff16632db25e05836040518263ffffffff1660e01b81526004016102559190610cbf565b61016060405180830381865afa158015610273573d6000803e3d6000fd5b505050506040513d601f19601f820116820180604052508101906102979190610f1b565b9050806060015173ffffffffffffffffffffffffffffffffffffffff163373ffffffffffffffffffffffffffffffffffffffff161461030b576040517f08c379a000000000000000000000000000000000000000000000000000000000815260040161030290610fcc565b60405180910390fd5b60008060009054906101000a900473ffffffffffffffffffffffffffffffffffffffff1673ffffffffffffffffffffffffffffffffffffffff16632db25e05856040518263ffffffff1660e01b81526004016103679190610cbf565b61016060405180830381865afa158015610385573d6000803e3d6000fd5b505050506040513d601f19601f820116820180604052508101906103a99190610f1b565b90506008600f8111156103bf576103be610fec565b5b8160c00151600f8111156103d6576103d5610fec565b5b14610416576040517f08c379a000000000000000000000000000000000000000000000000000000000815260040161040d90611067565b60405180910390fd5b60006001600086815260200190815260200160002090508060020160009054906101000a900460ff161561047f576040517f08c379a0000000000000000000000000000000000000000000000000000000008152600401610476906110d3565b60405180910390fd5b848160000181905550816101000151816001018190555060018160020160006101000a81548160ff02191690831515021790555042816003018190555060008054906101000a900473ffffffffffffffffffffffffffffffffffffffff1673ffffffffffffffffffffffffffffffffffffffff16633a1b3d3186600b6040518363ffffffff1660e01b815260040161051892919061113b565b600060405180830381600087803b15801561053257600080fd5b505af1158015610546573d6000803e3d6000fd5b50505050847ff506ea28cde1c7e7f1613d8385c5f1dc792cfc6757f3601542d1fee26a905a1d83610100015133604051610581929190611173565b60405180910390a25050505050565b8060008060009054906101000a900473ffffffffffffffffffffffffffffffffffffffff1673ffffffffffffffffffffffffffffffffffffffff16632db25e05836040518263ffffffff1660e01b81526004016105ed9190610cbf565b61016060405180830381865afa15801561060b573d6000803e3d6000fd5b505050506040513d601f19601f8201168201806040525081019061062f9190610f1b565b9050806080015173ffffffffffffffffffffffffffffffffffffffff163373ffffffffffffffffffffffffffffffffffffffff16146106a3576040517f08c379a000000000000000000000000000000000000000000000000000000000815260040161069a9061120e565b60405180910390fd5b60008060009054906101000a900473ffffffffffffffffffffffffffffffffffffffff1673ffffffffffffffffffffffffffffffffffffffff16632db25e05856040518263ffffffff1660e01b81526004016106ff9190610cbf565b61016060405180830381865afa15801561071d573d6000803e3d6000fd5b505050506040513d601f19601f820116820180604052508101906107419190610f1b565b9050600b600f81111561075757610756610fec565b5b8160c00151600f81111561076e5761076d610fec565b5b146107ae576040517f08c379a00000000000000000000000000000000000000000000000000000000081526004016107a59061127a565b60405180910390fd5b60006001600086815260200190815260200160002090508060020160009054906101000a900460ff16610816576040517f08c379a000000000000000000000000000000000000000000000000000000000815260040161080d906112e6565b60405180910390fd5b8060020160019054906101000a900460ff1615610868576040517f08c379a000000000000000000000000000000000000000000000000000000000815260040161085f90611352565b60405180910390fd5b60018160020160016101000a81548160ff02191690831515021790555042816004018190555060008054906101000a900473ffffffffffffffffffffffffffffffffffffffff1673ffffffffffffffffffffffffffffffffffffffff16633a1b3d3186600c6040518363ffffffff1660e01b81526004016108ea92919061113b565b600060405180830381600087803b15801561090457600080fd5b505af1158015610918573d6000803e3d6000fd5b50505050847fa1d0a1fdd38ed06d2aa307534e95eb980aee48ff8deee42d7babd1f6df8eb8653360405161094c9190611372565b60405180910390a260008054906101000a900473ffffffffffffffffffffffffffffffffffffffff1673ffffffffffffffffffffffffffffffffffffffff16633a1b3d3186600d6040518363ffffffff1660e01b81526004016109b092919061113b565b600060405180830381600087803b1580156109ca57600080fd5b505af11580156109de573d6000803e3d6000fd5b50505050847f60f91a26281f20fb528663f4da55773c83e2ee8a7a5dddb6d1753749e81dc49b60405160405180910390a25050505050565b60008054906101000a900473ffffffffffffffffffffffffffffffffffffffff1681565b6040518060c00160405280600081526020016000815260200160001515815260200160001515815260200160008152602001600081525090565b6000604051905090565b600080fd5b6000819050919050565b610a9681610a83565b8114610aa157600080fd5b50565b600081359050610ab381610a8d565b92915050565b600060208284031215610acf57610ace610a7e565b5b6000610add84828501610aa4565b91505092915050565b610aef81610a83565b82525050565b60008115159050919050565b610b0a81610af5565b82525050565b600060c082019050610b256000830189610ae6565b610b326020830188610ae6565b610b3f6040830187610b01565b610b4c6060830186610b01565b610b596080830185610ae6565b610b6660a0830184610ae6565b979650505050505050565b610b7a81610a83565b82525050565b610b8981610af5565b82525050565b60c082016000820151610ba56000850182610b71565b506020820151610bb86020850182610b71565b506040820151610bcb6040850182610b80565b506060820151610bde6060850182610b80565b506080820151610bf16080850182610b71565b5060a0820151610c0460a0850182610b71565b50505050565b600060c082019050610c1f6000830184610b8f565b92915050565b600073ffffffffffffffffffffffffffffffffffffffff82169050919050565b6000819050919050565b6000610c6a610c65610c6084610c25565b610c45565b610c25565b9050919050565b6000610c7c82610c4f565b9050919050565b6000610c8e82610c71565b9050919050565b610c9e81610c83565b82525050565b6000602082019050610cb96000830184610c95565b92915050565b6000602082019050610cd46000830184610ae6565b92915050565b600080fd5b6000601f19601f8301169050919050565b7f4e487b7100000000000000000000000000000000000000000000000000000000600052604160045260246000fd5b610d2882610cdf565b810181811067ffffffffffffffff82111715610d4757610d46610cf0565b5b80604052505050565b6000610d5a610a74565b9050610d668282610d1f565b919050565b600081519050610d7a81610a8d565b92915050565b6000610d8b82610c25565b9050919050565b610d9b81610d80565b8114610da657600080fd5b50565b600081519050610db881610d92565b92915050565b60108110610dcb57600080fd5b50565b600081519050610ddd81610dbe565b92915050565b610dec81610af5565b8114610df757600080fd5b50565b600081519050610e0981610de3565b92915050565b60006101608284031215610e2657610e25610cda565b5b610e31610160610d50565b90506000610e4184828501610d6b565b6000830152506020610e5584828501610da9565b6020830152506040610e6984828501610da9565b6040830152506060610e7d84828501610da9565b6060830152506080610e9184828501610da9565b60808301525060a0610ea584828501610da9565b60a08301525060c0610eb984828501610dce565b60c08301525060e0610ecd84828501610d6b565b60e083015250610100610ee284828501610d6b565b61010083015250610120610ef884828501610dfa565b61012083015250610140610f0e84828501610dfa565b6101408301525092915050565b60006101608284031215610f3257610f31610a7e565b5b6000610f4084828501610e0f565b91505092915050565b600082825260208201905092915050565b7f4f6e6c792069737375696e672062616e6b2028696d706f727465722062616e6b60008201527f2900000000000000000000000000000000000000000000000000000000000000602082015250565b6000610fb6602183610f49565b9150610fc182610f5a565b604082019050919050565b60006020820190508181036000830152610fe581610fa9565b9050919050565b7f4e487b7100000000000000000000000000000000000000000000000000000000600052602160045260246000fd5b7f437573746f6d73206d75737420626520636c6561726564206669727374000000600082015250565b6000611051601d83610f49565b915061105c8261101b565b602082019050919050565b6000602082019050818103600083015261108081611044565b9050919050565b7f5061796d656e7420616c726561647920617574686f72697a6564000000000000600082015250565b60006110bd601a83610f49565b91506110c882611087565b602082019050919050565b600060208201905081810360008301526110ec816110b0565b9050919050565b6010811061110457611103610fec565b5b50565b6000819050611115826110f3565b919050565b600061112582611107565b9050919050565b6111358161111a565b82525050565b60006040820190506111506000830185610ae6565b61115d602083018461112c565b9392505050565b61116d81610d80565b82525050565b60006040820190506111886000830185610ae6565b6111956020830184611164565b9392505050565b7f4f6e6c79206164766973696e672062616e6b20286578706f727465722062616e60008201527f6b29000000000000000000000000000000000000000000000000000000000000602082015250565b60006111f8602283610f49565b91506112038261119c565b604082019050919050565b60006020820190508181036000830152611227816111eb565b9050919050565b7f5061796d656e74206e6f742079657420617574686f72697a6564000000000000600082015250565b6000611264601a83610f49565b915061126f8261122e565b602082019050919050565b6000602082019050818103600083015261129381611257565b9050919050565b7f5061796d656e74206e6f7420617574686f72697a6564206f6e207265636f7264600082015250565b60006112d0602083610f49565b91506112db8261129a565b602082019050919050565b600060208201905081810360008301526112ff816112c3565b9050919050565b7f536574746c656d656e7420616c726561647920636f6e6669726d656400000000600082015250565b600061133c601c83610f49565b915061134782611306565b602082019050919050565b6000602082019050818103600083015261136b8161132f565b9050919050565b60006020820190506113876000830184611164565b9291505056fea26469706673582212200cfcc681d312a102d338d17f246a53bbc14d38c8e3b82ac55eaee9df71979aa764736f6c63430008180033",
  "linkReferences": {},
  "deployedLinkReferences": {}
}