{
  "_format": "hh-sol-artifact-1",
  "contractName": "PaymentSettlement",
  "sourceName": "contracts/PaymentSettlement.sol",
  "abi": [
    {
      "inputs": [
        {
          "internalType": "address",
          "name": "_tradeRegistry",
          "type": "address"
        }
      ],
      "stateMutability": "nonpayable",
      "type": "constructor"
    },
    {
      "anonymous": false,
      "inputs": [
        {
          "indexed": true,
          "internalType": "uint256",
          "name": "tradeId",
          "type": "uint256"
        },
        {
          "indexed": true,
          "internalType": "uint256",
          "name": "amount",
          "type": "uint256"
        }
      ],
      "name": "FundsLocked",
      "type": "event"
    },
    {
      "anonymous": false,
      "inputs": [
        {
          "indexed": true,
          "internalType": "uint256",
          "name": "tradeId",
          "type": "uint256"
        },
        {
          "indexed": true,
          "internalType": "address",
          "name": "to",
          "type": "address"
        },
        {
          "indexed": true,
          "internalType": "uint256",
          "name": "amount",
          "type": "uint256"
        }
      ],
      "name": "FundsRefunded",
      "type": "event"
    },
    {
      "anonymous": false,
      "inputs": [
        {
          "indexed": true,
          "internalType": "uint256",
          "name": "tradeId",
          "type": "uint256"
        },
        {
          "indexed": true,
          "internalType": "address",
          "name": "to",
          "type": "address"
        },
        {
          "indexed": true,
          "internalType": "uint256",
          "name": "amount",
          "type": "uint256"
        }
      ],
      "name": "InsurancePayout",
      "type": "event"
    },
    {
      "anonymous": false,
      "inputs": [
        {
          "indexed": true,
          "internalType": "uint256",
          "name": "tradeId",
          "type": "uint256"
        },
        {
          "indexed": true,
          "internalType": "uint256",
          "name": "amount",
          "type": "uint256"
        },
        {
          "indexed": true,
          "internalType": "address",
          "name": "authorizedBy",
          "type": "address"
        }
      ],
      "name": "PaymentAuthorized",
      "type": "event"
    },
    {
      "anonymous": false,
      "inputs": [
        {
          "indexed": true,
          "internalType": "uint256",
          "name": "tradeId",
          "type": "uint256"
        },
        {
          "indexed": true,
          "internalType": "address",
          "name": "confirmedBy",
          "type": "address"
        }
      ],
      "name": "SettlementConfirmed",
      "type": "event"
    },
    {
      "anonymous": false,
      "inputs": [
        {
          "indexed": true,
          "internalType": "uint256",
          "name": "tradeId",
          "type": "uint256"
        }
      ],
      "name": "TradeCompleted",
      "type": "event"
    },
    {
      "inputs": [
        {
          "internalType": "uint256",
          "name": "_tradeId",
          "type": "uint256"
        }
      ],
      "name": "authorizePayment",
      "outputs": [],
      "stateMutability": "nonpayable",
      "type": "function"
    },
    {
      "inputs": [
        {
          "internalType": "uint256",
          "name": "_tradeId",
          "type": "uint256"
        }
      ],
      "name": "confirmSettlement",
      "outputs": [],
      "stateMutability": "nonpayable",
      "type": "function"
    },
    {
      "inputs": [
        {
          "internalType": "uint256",
          "name": "_tradeId",
          "type": "uint256"
        }
      ],
      "name": "depositEscrow",
      "outputs": [],
      "stateMutability": "payable",
      "type": "function"
    },
    {
      "inputs": [
        {
          "internalType": "uint256",
          "name": "_tradeId",
          "type": "uint256"
        }
      ],
      "name": "getSettlement",
      "outputs": [
        {
          "components": [
            {
              "internalType": "uint256",
              "name": "tradeId",
              "type": "uint256"
            },
            {
              "internalType": "uint256",
              "name": "amount",
              "type": "uint256"
            },
            {
              "internalType": "bool",
              "name": "fundsLocked",
              "type": "bool"
            },
            {
              "internalType": "bool",
              "name": "paymentAuthorized",
              "type": "bool"
            },
            {
              "internalType": "bool",
              "name": "settlementConfirmed",
              "type": "bool"
            },
            {
              "internalType": "bool",
              "name": "refunded",
              "type": "bool"
            },
            {
              "internalType": "uint256",
              "name": "authorizedAt",
              "type": "uint256"
            },
            {
              "internalType": "uint256",
              "name": "confirmedAt",
              "type": "uint256"
            }
          ],
          "internalType": "struct PaymentSettlement.Settlement",
          "name": "",
          "type": "tuple"
        }
      ],
      "stateMutability": "view",
      "type": "function"
    },
    {
      "inputs": [
        {
          "internalType": "uint256",
          "name": "_tradeId",
          "type": "uint256"
        }
      ],
      "name": "payoutInsurance",
      "outputs": [],
      "stateMutability": "nonpayable",
      "type": "function"
    },
    {
      "inputs": [
        {
          "internalType": "uint256",
          "name": "_tradeId",
          "type": "uint256"
        }
      ],
      "name": "refundImporter",
      "outputs": [],
      "stateMutability": "nonpayable",
      "type": "function"
    },
    {
      "inputs": [
        {
          "internalType": "uint256",
          "name": "",
          "type": "uint256"
        }
      ],
      "name": "settlements",
      "outputs": [
        {
          "internalType": "uint256",
          "name": "tradeId",
          "type": "uint256"
        },
        {
          "internalType": "uint256",
          "name": "amount",
          "type": "uint256"
        },
        {
          "internalType": "bool",
          "name": "fundsLocked",
          "type": "bool"
        },
        {
          "internalType": "bool",
          "name": "paymentAuthorized",
          "type": "bool"
        },
        {
          "internalType": "bool",
          "name": "settlementConfirmed",
          "type": "bool"
        },
        {
          "internalType": "bool",
          "name": "refunded",
          "type": "bool"
        },
        {
          "internalType": "uint256",
          "name": "authorizedAt",
          "type": "uint256"
        },
        {
          "internalType": "uint256",
          "name": "confirmedAt",
          "type": "uint256"
        }
      ],
      "stateMutability": "view",
      "type": "function"
    },
    {
      "inputs": [],
      "name": "tradeRegistry",
      "outputs": [
        {
          "internalType": "contract TradeRegistry",
          "name": "",
          "type": "address"
        }
      ],
      "stateMutability": "view",
      "type": "function"
    }
  ],
  "bytecode": "0x60a03461008d57601f6110fd38819003918201601f19168301916001600160401b038311848410176100925780849260209460405283398101031261008d57516001600160a01b0381169081900361008d5760805260405161105490816100a9823960805181818160920152818160f80152818161033a0152818161069a01528181610a1c0152610bf30152f35b600080fd5b634e487b7160e01b600052604160045260246000fdfe608060408181526004918236101561001657600080fd5b60009260e08435811c92836308df7dc814610d56575082630c842ad314610bb55782633ecfd08d146109de5782634c582380146108d95750816381a031331461065c5781639e924eb514610317578163cb991efe146100c5575063dbd973081461007f57600080fd5b346100c157816003193601126100c157517f00000000000000000000000000000000000000000000000000000000000000006001600160a01b03168152602090f35b5080fd5b90506020366003190112610313578151632db25e0560e01b80825282358383018190529360249390926001600160a01b037f00000000000000000000000000000000000000000000000000000000000000008116936102209290919083818981895afa9081156103095761014a9291610100918c916102ec575b500151163314610fc8565b8451908152868382015281818781875afa9182156102e25788926102b5575b50506020810151340361027b576101c0015160158110156102695781036102305790859392918585528460205282852060028101600160ff19825416179055600134910155813b1561022c5760448691868094600587519889968795633a1b3d3160e01b87528601528401525af1908115610223575061020f575b505034907fbedc4e5ac6876307c4b4b5761039aa2ebce89052490a34e15cc655d9142ba0dc8380a380f35b61021890610e05565b6100c15781386101e4565b513d84823e3d90fd5b8480fd5b606490601485602086519362461bcd60e51b855284015282015273131bd0c81b9bdd08185c1c1c9bdd9959081e595d60621b6044820152fd5b634e487b7160e01b8752602182528487fd5b835162461bcd60e51b815260208184015260158187015274125b98dbdc9c9958dd08185b5bdd5b9d081cd95b9d605a1b6044820152606490fd5b6102d49250803d106102db575b6102cc8183610e19565b810190610e61565b3880610169565b503d6102c2565b85513d8a823e3d90fd5b6103039150863d88116102db576102cc8183610e19565b3861013f565b87513d8c823e3d90fd5b8280fd5b8383346100c157602092836003193601126103135780359160018060a01b0391827f000000000000000000000000000000000000000000000000000000000000000016825193632db25e0560e01b80865286848701526102209160249683818981885afa9081156103095790610120918b9161063f575b5001511633036105f2578451908152868482015281818781865afa9182156102e257906101c0929189926105d5575b5050015160158110156105c357600d03610582578486528587528286206002810180549860ff8a60081c16156105425760ff8a60101c16610501575062010000889962ff000099989919161790558242910155803b1561022c578251633a1b3d3160e01b808252838201889052600e868301529290868160448183875af180156104f7579087916104df575b505083519433887fa1d0a1fdd38ed06d2aa307534e95eb980aee48ff8deee42d7babd1f6df8eb8658980a3823b156104db57868693600f85938b604496859987528601528401525af190811561022357506104c7575b50807f60f91a26281f20fb528663f4da55773c83e2ee8a7a5dddb6d1753749e81dc49b91a280f35b6104d090610e05565b6100c157818361049f565b8680fd5b6104e890610e05565b6104f3578589610449565b8580fd5b85513d89823e3d90fd5b84601c8860649389519362461bcd60e51b85528401528201527f536574746c656d656e7420616c726561647920636f6e6669726d6564000000006044820152fd5b84818860649389519362461bcd60e51b85528401528201527f5061796d656e74206e6f7420617574686f72697a6564206f6e207265636f72646044820152fd5b50601a8387606494519362461bcd60e51b85528401528201527f5061796d656e74206e6f742079657420617574686f72697a65640000000000006044820152fd5b634e487b7160e01b8752602183528487fd5b6105eb9250803d106102db576102cc8183610e19565b89806103bd565b845162461bcd60e51b81528085018a90526022818801527f4f6e6c79206164766973696e672062616e6b20286578706f727465722062616e6044820152616b2960f01b6064820152608490fd5b6106569150853d87116102db576102cc8183610e19565b8c61038e565b91905034610313576020366003190112610313578051632db25e0560e01b808252833584830181905261022094909360249390926001600160a01b037f0000000000000000000000000000000000000000000000000000000000000000811692919088838881875afa9283156108cf578a936108ac575b506106e79061010080940151163314610fc8565b8451908152868482015287818781865afa9788156108a2578998610883575b50506101c0870151601581101561087157600c0361081c578588528760205283882090600282019081549860ff8a60081c166107da578884556020018051600185015561ff001990991617905542600390910155869190803b1561031357859183604492600d87519889968795633a1b3d3160e01b87528601528401525af19081156107d157506107be575b50339151907ff506ea28cde1c7e7f1613d8385c5f1dc792cfc6757f3601542d1fee26a905a1d8480a480f35b6107ca90939193610e05565b9138610792565b513d86823e3d90fd5b865162461bcd60e51b8152602081880152601a818a01527f5061796d656e7420616c726561647920617574686f72697a65640000000000006044820152606490fd5b835162461bcd60e51b8152602081850152602a818701527f496d706f72746572206d75737420636f6e6669726d20676f6f647320726563656044820152691a5d995908199a5c9cdd60b21b6064820152608490fd5b634e487b7160e01b8952602184528589fd5b61089a929850803d106102db576102cc8183610e19565b953880610706565b85513d8b823e3d90fd5b6106e79193506108c8908a3d8c116102db576102cc8183610e19565b92906106d3565b86513d8c823e3d90fd5b915091346109da5760203660031901126109da578084610100958483516108ff81610dd2565b82815282602082015282858201528260608201528260808201528260a08201528260c0820152015284358152806020522081519161093c83610dd2565b81549485845260018301546020850190815260028401549280860160ff851615158152606087019260ff8660081c161515845288608089019560ff8860101c161515875260ff60a08b019860181c161515885260038901549860c08b01998a52015498019788528251998a525160208a0152511515908801525115156060870152511515608086015251151560a08501525160c08401525190820152f35b8380fd5b50905034610313576020366003190112610313578151632db25e0560e01b8152813581830181905291610220916001600160a01b03919083816024817f000000000000000000000000000000000000000000000000000000000000000087165afa938415610bab578794610b8c575b50506101c08301516015811015610b7957601203610b3d5783865285602052848620906002820190815490610a8460ff8316610f8a565b60ff8260181c16610b075750879695879586956101006001889788976301000000899863ff0000001916179055019283549586945501511680927f80b577b4fc190ab86d963549e29f496afd079c5d81a2480d61217d4b5060a28c8680a4828215610afe575bf115610af4575080f35b51903d90823e3d90fd5b506108fc610aea565b606490602089519162461bcd60e51b8352820152601060248201526f105b1c9958591e481c99599d5b99195960821b6044820152fd5b606490602086519162461bcd60e51b835282015260166024820152754e6f7420696e2072657665727465642073746174757360501b6044820152fd5b634e487b7160e01b875260218252602487fd5b610ba3929450803d106102db576102cc8183610e19565b913880610a4d565b86513d89823e3d90fd5b84848334610313576020366003190112610313578151632db25e0560e01b815281358183018190526001600160a01b039590926102209283816024817f00000000000000000000000000000000000000000000000000000000000000008c165afa938415610bab578794610d37575b50506101c08301516015811015610b7957601403610cff5783865285602052848620906002820190815490610c5b60ff8316610f8a565b60ff8260181c16610cc8575087969587958a87966001889788976301000000899863ff0000001916179055019283549586945501511680927f32fb06330903205d582db19821ddcb0e33f74a084f9fd8c2d876719b56100e898680a4828215610afe57f115610af4575080f35b606490602089519162461bcd60e51b83528201526011602482015270105b1c9958591e481c1c9bd8d95cdcd959607a1b6044820152fd5b606490602086519162461bcd60e51b8352820152601260248201527110db185a5b481b9bdd08185c1c1c9bdd995960721b6044820152fd5b610d4e929450803d106102db576102cc8183610e19565b918780610c24565b939250903461022c57602036600319011261022c5760ff836101009683358152806020522091825494600184015460028501549260038601549501549688526020880152828216151590870152818160081c1615156060870152818160101c161515608087015260181c16151560a085015260c0840152820152f35b610100810190811067ffffffffffffffff821117610def57604052565b634e487b7160e01b600052604160045260246000fd5b67ffffffffffffffff8111610def57604052565b90601f8019910116810190811067ffffffffffffffff821117610def57604052565b51906001600160a01b0382168203610e4f57565b600080fd5b51908115158203610e4f57565b80916102209283910312610e4f5760405191820182811067ffffffffffffffff821117610def57604052805182526020810151602083015260408101516040830152606081015160608301526080810151608083015260a081015160a0830152610ecd60c08201610e3b565b60c0830152610ede60e08201610e3b565b60e0830152610100610ef1818301610e3b565b90830152610120610f03818301610e3b565b90830152610140610f15818301610e3b565b90830152610160610f27818301610e3b565b90830152610180610f39818301610e3b565b908301526101a0610f4b818301610e3b565b908301526101c080820151906015821015610e4f578301526101e0610f71818301610e54565b90830152610f83610200809201610e54565b9082015290565b15610f9157565b60405162461bcd60e51b815260206004820152600f60248201526e139bc8199d5b991cc81b1bd8dad959608a1b6044820152606490fd5b15610fcf57565b60405162461bcd60e51b815260206004820152602160248201527f4f6e6c792069737375696e672062616e6b2028696d706f727465722062616e6b6044820152602960f81b6064820152608490fdfea2646970667358221220760925debe6f0fd862cb0be54ea86237f5a6e64f786c90ed9673d3cb10f4bdfa64736f6c63430008180033",
  "linkReferences": {},
  "deployedLinkReferences": {}
}