{
  "_format": "hh-sol-artifact-1",
  "contractName": "ConsensusDispute",
  "sourceName": "contracts/ConsensusDispute.sol",
  "abi": [
    {
      "inputs": [
        {
          "internalType": "address",
          "name": "_tradeRegistry",
          "type": "address"
        }
      ],
      "stateMutability": "nonpayable",
      "type": "constructor"
    },
    {
      "anonymous": false,
      "inputs": [
        {
          "indexed": true,
          "internalType": "uint256",
          "name": "tradeId",
          "type": "uint256"
        },
        {
          "indexed": false,
          "internalType": "enum TradeRegistry.TradeStatus",
          "name": "newStatus",
          "type": "uint8"
        }
      ],
      "name": "ConsensusReached",
      "type": "event"
    },
    {
      "anonymous": false,
      "inputs": [
        {
          "indexed": true,
          "internalType": "uint256",
          "name": "tradeId",
          "type": "uint256"
        },
        {
          "indexed": false,
          "internalType": "string",
          "name": "evidenceIpfsHash",
          "type": "string"
        },
        {
          "indexed": false,
          "internalType": "address",
          "name": "raisedBy",
          "type": "address"
        }
      ],
      "name": "DisputeRaised",
      "type": "event"
    },
    {
      "anonymous": false,
      "inputs": [
        {
          "indexed": true,
          "internalType": "uint256",
          "name": "tradeId",
          "type": "uint256"
        },
        {
          "indexed": true,
          "internalType": "address",
          "name": "voter",
          "type": "address"
        },
        {
          "indexed": false,
          "internalType": "enum ConsensusDispute.Vote",
          "name": "vote",
          "type": "uint8"
        },
        {
          "indexed": false,
          "internalType": "uint256",
          "name": "points",
          "type": "uint256"
        }
      ],
      "name": "VoteCast",
      "type": "event"
    },
    {
      "inputs": [
        {
          "internalType": "uint256",
          "name": "_tradeId",
          "type": "uint256"
        },
        {
          "internalType": "enum ConsensusDispute.Vote",
          "name": "_vote",
          "type": "uint8"
        }
      ],
      "name": "castVote",
      "outputs": [],
      "stateMutability": "nonpayable",
      "type": "function"
    },
    {
      "inputs": [
        {
          "internalType": "uint256",
          "name": "",
          "type": "uint256"
        }
      ],
      "name": "disputes",
      "outputs": [
        {
          "internalType": "uint256",
          "name": "tradeId",
          "type": "uint256"
        },
        {
          "internalType": "string",
          "name": "evidenceIpfsHash",
          "type": "string"
        },
        {
          "internalType": "bool",
          "name": "active",
          "type": "bool"
        },
        {
          "internalType": "uint256",
          "name": "totalRevertPoints",
          "type": "uint256"
        },
        {
          "internalType": "uint256",
          "name": "totalPayoutPoints",
          "type": "uint256"
        }
      ],
      "stateMutability": "view",
      "type": "function"
    },
    {
      "inputs": [
        {
          "internalType": "uint256",
          "name": "_tradeId",
          "type": "uint256"
        },
        {
          "internalType": "string",
          "name": "_evidenceIpfsHash",
          "type": "string"
        }
      ],
      "name": "raiseDispute",
      "outputs": [],
      "stateMutability": "nonpayable",
      "type": "function"
    },
    {
      "inputs": [],
      "name": "tradeRegistry",
      "outputs": [
        {
          "internalType": "contract TradeRegistry",
          "name": "",
          "type": "address"
        }
      ],
      "stateMutability": "view",
      "type": "function"
    }
  ],
  "bytecode": "0x60803461007457601f610c7938819003918201601f19168301916001600160401b038311848410176100795780849260209460405283398101031261007457516001600160a01b0381169081900361007457600080546001600160a01b031916919091179055604051610be990816100908239f35b600080fd5b634e487b7160e01b600052604160045260246000fdfe608060408181526004918236101561001657600080fd5b600092833560e01c918263564a565d146108865750816356781388146104e65781635aef573c1461007b575063dbd973081461005157600080fd5b34610077578160031936011261007757905490516001600160a01b039091168152602090f35b5080fd5b9050346104e257816003193601126104e25780359167ffffffffffffffff91602480358481116104de57366023820112156104de57808301359485116104de57368286830101116104de5786548451632db25e0560e01b81528085018890526001600160a01b039491610200919082908290879082908a165afa9182156104d4578a926104a7575b505060209480868301511633148015610499575b801561048a575b801561047b575b1561043957888a5260019182875260ff6002898d200154166103fe5761012001805160128110156103ec57600d141590816103c4575b5015610382578990898252828752878220928a84558084019361017e85546109c6565b601f8111610333575b5083948b89601f82116001146102ab57869760029596979261029e575b505060001960038e901b1c19168c851b1790555b019060ff1982541617905581541691823b1561007757604489918389519586948593633a1b3d3160e01b8552840152600e898401525af1801561029457610252575b50936060928185937f223ba97c9abddc29a613210e7bdae454e02ce4bbbd1828f87b20631bdd29cf2f97829751978689978852870152018585013782820184018890523390830152601f01601f19168101030190a280f35b92858095937f223ba97c9abddc29a613210e7bdae454e02ce4bbbd1828f87b20631bdd29cf2f979399610286606097610a00565b9993509395509550926101fa565b85513d8a823e3d90fd5b8a010135905089386101a4565b50601f198116968287528a8c8820928d89905b8d8c8310610303575050508060029798999a106102e6575b915050858092501b0190556101b8565b60f86000199160031b161c19918b01013516905538808a8e6102d6565b899b5085989a9c96929799935094819594919401013581550194019201918f9694928e8c918e9a9896949a6102be565b90919293859052888d20601f8c0160051c8101918a8d10610378575b90601f8f96959493920160051c01905b81811061036c5750610187565b9485558d94830161035f565b909150819061034f565b865162461bcd60e51b8152808401879052601d818701527f43616e6e6f7420646973707574652066696e69736865642074726164650000006044820152606490fd5b90505160128110156103da57601014153861015b565b634e487b7160e01b8b5260218452858bfd5b634e487b7160e01b8c5260218552868cfd5b875162461bcd60e51b8152808501889052601681880152754469737075746520616c72656164792061637469766560501b6044820152606490fd5b865162461bcd60e51b8152808401879052601f818701527f4e6f7420617574686f72697a656420746f2072616973652064697370757465006044820152606490fd5b50806060830151163314610125565b508060c083015116331461011e565b508087830151163314610117565b6104c69250803d106104cd575b6104be8183610a2a565b810190610a72565b3880610103565b503d6104b4565b87513d8c823e3d90fd5b8680fd5b8280fd5b83915034610077578260031936011261007757803560249182359481861015610882578285526001916020928084528287209060ff6002830154161561084c57600582019033895281865260ff858a20541661081a5788548551632db25e0560e01b81528581018990526001600160a01b0394916102009190829082908d9082908a165afa918215610810578c926107f3575b50508460c082015116331460001461077357506002925b338b528752858a20805460ff199081168417909155928a908c840361075257600383016105be828254610b90565b90555b875191610740578b9c829c98999a9b9c5289820152897fb83d25c6a5d258561330739951487acb4bd09ba5190b5d32c4f261817d906792893393a36003818101548691116106995750508785528652600285852001908154169055825416803b156104e257859183604492601087519a8b968795633a1b3d3160e01b87528601528401525af193841561068f577f7e662e7f611008beb74cd4814099bfdb702ff12758cd917e0007eadbf546f9f79394610680575b505160108152a280f35b61068990610a00565b85610676565b81513d87823e3d90fd5b600391015410156106b1575b50505050505050505080f35b8785528652600285852001908154169055825416803b156104e257859183604492601187519a8b968795633a1b3d3160e01b87528601528401525af193841561068f577f7e662e7f611008beb74cd4814099bfdb702ff12758cd917e0007eadbf546f9f79394610731575b505160118152a28180808084818080806106a5565b61073a90610a00565b8561071c565b634e487b7160e01b8c52602187528a8cfd5b8b91506001198d016105c15786830161076c828254610b90565b90556105c1565b848060e08301511633149182156107e1575b82156107d0575b50501561079a578192610590565b855162461bcd60e51b81528086018890526011818b0152704e6f74206120766f74696e67206e6f646560781b6044820152606490fd5b60609192500151163314848d61078c565b91508061010083015116331491610785565b6108099250803d106104cd576104be8183610a2a565b8c80610579565b88513d8e823e3d90fd5b845162461bcd60e51b8152808501879052600d818a01526c105b1c9958591e481d9bdd1959609a1b6044820152606490fd5b835162461bcd60e51b8152808401869052601181890152704e6f20616374697665206469737075746560781b6044820152606490fd5b8480fd5b8385346109c357602091826003193601126100775784358252600194600184528183209283549686600186019183908354936108c1856109c6565b948585528a6001821691826000146109a1575050600114610964575b50506108f29250989695939492980387610a2a565b60ff600283015416926003830154920154928151978896875260a0868801528751958660a0890152815b87811061094d57505060c0809850868801015215159085015260608401526080830152601f80199101168101030190f35b808a018201518b820160c001528a9850810161091c565b89925085528185209085915b8583106109885750506108f293508201018a806108dd565b8194848483969596549201015201910189928992610970565b92509350506108f294915060ff191682840152151560051b8201018a806108dd565b80fd5b90600182811c921680156109f6575b60208310146109e057565b634e487b7160e01b600052602260045260246000fd5b91607f16916109d5565b67ffffffffffffffff8111610a1457604052565b634e487b7160e01b600052604160045260246000fd5b90601f8019910116810190811067ffffffffffffffff821117610a1457604052565b51906001600160a01b0382168203610a6057565b600080fd5b51908115158203610a6057565b80916102009283910312610a605760405191820182811067ffffffffffffffff821117610a145760405280518252610aac60208201610a4c565b6020830152610abd60408201610a4c565b6040830152610ace60608201610a4c565b6060830152610adf60808201610a4c565b6080830152610af060a08201610a4c565b60a0830152610b0160c08201610a4c565b60c0830152610b1260e08201610a4c565b60e0830152610100610b25818301610a4c565b9083015261012080820151906012821015610a60578301526101408082015190830152610160808201519083015261018080820151908301526101a080820151908301526101c0610b77818301610a65565b90830152610b896101e0809201610a65565b9082015290565b91908201809211610b9d57565b634e487b7160e01b600052601160045260246000fdfea2646970667358221220d9d887dfe1f68080615c8381fd2f1bf50f83488d9bdf9098744054b356ccda5064736f6c63430008180033",
  "linkReferences": {},
  "deployedLinkReferences": {}
}