{
  "_format": "hh-sol-artifact-1",
  "contractName": "ConsensusDispute",
  "sourceName": "contracts/ConsensusDispute.sol",
  "abi": [
    {
      "inputs": [
        {
          "internalType": "address",
          "name": "_tradeRegistry",
          "type": "address"
        }
      ],
      "stateMutability": "nonpayable",
      "type": "constructor"
    },
    {
      "anonymous": false,
      "inputs": [
        {
          "indexed": true,
          "internalType": "uint256",
          "name": "tradeId",
          "type": "uint256"
        },
        {
          "indexed": true,
          "internalType": "uint256",
          "name": "votingDeadline",
          "type": "uint256"
        },
        {
          "indexed": true,
          "internalType": "address",
          "name": "activatedBy",
          "type": "address"
        }
      ],
      "name": "DisputeActivated",
      "type": "event"
    },
    {
      "anonymous": false,
      "inputs": [
        {
          "indexed": true,
          "internalType": "uint256",
          "name": "tradeId",
          "type": "uint256"
        },
        {
          "indexed": false,
          "internalType": "bool",
          "name": "decision",
          "type": "bool"
        },
        {
          "indexed": false,
          "internalType": "enum ConsensusDispute.CargoStatus",
          "name": "cargoStatus",
          "type": "uint8"
        }
      ],
      "name": "InspectorDecisionSubmitted",
      "type": "event"
    },
    {
      "anonymous": false,
      "inputs": [
        {
          "indexed": true,
          "internalType": "uint256",
          "name": "tradeId",
          "type": "uint256"
        }
      ],
      "name": "SLABreachTriggered",
      "type": "event"
    },
    {
      "anonymous": false,
      "inputs": [
        {
          "indexed": true,
          "internalType": "uint256",
          "name": "tradeId",
          "type": "uint256"
        },
        {
          "indexed": true,
          "internalType": "address",
          "name": "voter",
          "type": "address"
        },
        {
          "indexed": false,
          "internalType": "enum ConsensusDispute.Vote",
          "name": "vote",
          "type": "uint8"
        }
      ],
      "name": "VoteCast",
      "type": "event"
    },
    {
      "anonymous": false,
      "inputs": [
        {
          "indexed": true,
          "internalType": "uint256",
          "name": "tradeId",
          "type": "uint256"
        },
        {
          "indexed": false,
          "internalType": "uint256",
          "name": "revertVotes",
          "type": "uint256"
        },
        {
          "indexed": false,
          "internalType": "uint256",
          "name": "noRevertVotes",
          "type": "uint256"
        },
        {
          "indexed": false,
          "internalType": "enum TradeRegistry.TradeStatus",
          "name": "outcome",
          "type": "uint8"
        }
      ],
      "name": "VotingFinalized",
      "type": "event"
    },
    {
      "inputs": [],
      "name": "VOTE_THRESHOLD",
      "outputs": [
        {
          "internalType": "uint256",
          "name": "",
          "type": "uint256"
        }
      ],
      "stateMutability": "view",
      "type": "function"
    },
    {
      "inputs": [],
      "name": "VOTING_DURATION",
      "outputs": [
        {
          "internalType": "uint256",
          "name": "",
          "type": "uint256"
        }
      ],
      "stateMutability": "view",
      "type": "function"
    },
    {
      "inputs": [
        {
          "internalType": "uint256",
          "name": "_tradeId",
          "type": "uint256"
        },
        {
          "internalType": "string",
          "name": "_evidenceIpfsHash",
          "type": "string"
        }
      ],
      "name": "activateVoting",
      "outputs": [],
      "stateMutability": "nonpayable",
      "type": "function"
    },
    {
      "inputs": [
        {
          "internalType": "uint256",
          "name": "_tradeId",
          "type": "uint256"
        },
        {
          "internalType": "enum ConsensusDispute.Vote",
          "name": "_vote",
          "type": "uint8"
        }
      ],
      "name": "castVote",
      "outputs": [],
      "stateMutability": "nonpayable",
      "type": "function"
    },
    {
      "inputs": [
        {
          "internalType": "uint256",
          "name": "",
          "type": "uint256"
        }
      ],
      "name": "disputes",
      "outputs": [
        {
          "internalType": "uint256",
          "name": "tradeId",
          "type": "uint256"
        },
        {
          "internalType": "string",
          "name": "evidenceIpfsHash",
          "type": "string"
        },
        {
          "internalType": "bool",
          "name": "active",
          "type": "bool"
        },
        {
          "internalType": "bool",
          "name": "finalized",
          "type": "bool"
        },
        {
          "internalType": "uint256",
          "name": "votingDeadline",
          "type": "uint256"
        },
        {
          "internalType": "uint256",
          "name": "totalRevertVotes",
          "type": "uint256"
        },
        {
          "internalType": "uint256",
          "name": "totalNoRevertVotes",
          "type": "uint256"
        },
        {
          "internalType": "uint256",
          "name": "totalVotesCast",
          "type": "uint256"
        }
      ],
      "stateMutability": "view",
      "type": "function"
    },
    {
      "inputs": [
        {
          "internalType": "uint256",
          "name": "_tradeId",
          "type": "uint256"
        }
      ],
      "name": "finalizeVoting",
      "outputs": [],
      "stateMutability": "nonpayable",
      "type": "function"
    },
    {
      "inputs": [
        {
          "internalType": "uint256",
          "name": "_tradeId",
          "type": "uint256"
        }
      ],
      "name": "getInspectorDecision",
      "outputs": [
        {
          "internalType": "bool",
          "name": "submitted",
          "type": "bool"
        },
        {
          "internalType": "bool",
          "name": "decision",
          "type": "bool"
        },
        {
          "internalType": "enum ConsensusDispute.CargoStatus",
          "name": "cargoStatus",
          "type": "uint8"
        },
        {
          "internalType": "string",
          "name": "notes",
          "type": "string"
        }
      ],
      "stateMutability": "view",
      "type": "function"
    },
    {
      "inputs": [
        {
          "internalType": "uint256",
          "name": "_tradeId",
          "type": "uint256"
        }
      ],
      "name": "getVotingSummary",
      "outputs": [
        {
          "internalType": "bool",
          "name": "active",
          "type": "bool"
        },
        {
          "internalType": "bool",
          "name": "finalized",
          "type": "bool"
        },
        {
          "internalType": "uint256",
          "name": "votingDeadline",
          "type": "uint256"
        },
        {
          "internalType": "uint256",
          "name": "revertVotes",
          "type": "uint256"
        },
        {
          "internalType": "uint256",
          "name": "noRevertVotes",
          "type": "uint256"
        },
        {
          "internalType": "uint256",
          "name": "totalVotesCast",
          "type": "uint256"
        }
      ],
      "stateMutability": "view",
      "type": "function"
    },
    {
      "inputs": [
        {
          "internalType": "uint256",
          "name": "",
          "type": "uint256"
        }
      ],
      "name": "inspectorDecisions",
      "outputs": [
        {
          "internalType": "bool",
          "name": "submitted",
          "type": "bool"
        },
        {
          "internalType": "bool",
          "name": "decision",
          "type": "bool"
        },
        {
          "internalType": "enum ConsensusDispute.CargoStatus",
          "name": "cargoStatus",
          "type": "uint8"
        },
        {
          "internalType": "string",
          "name": "notes",
          "type": "string"
        }
      ],
      "stateMutability": "view",
      "type": "function"
    },
    {
      "inputs": [
        {
          "internalType": "uint256",
          "name": "_tradeId",
          "type": "uint256"
        },
        {
          "internalType": "bool",
          "name": "_decision",
          "type": "bool"
        },
        {
          "internalType": "enum ConsensusDispute.CargoStatus",
          "name": "_cargoStatus",
          "type": "uint8"
        },
        {
          "internalType": "string",
          "name": "_notes",
          "type": "string"
        }
      ],
      "name": "submitInspectorDecision",
      "outputs": [],
      "stateMutability": "nonpayable",
      "type": "function"
    },
    {
      "inputs": [],
      "name": "tradeRegistry",
      "outputs": [
        {
          "internalType": "contract TradeRegistry",
          "name": "",
          "type": "address"
        }
      ],
      "stateMutability": "view",
      "type": "function"
    },
    {
      "inputs": [
        {
          "internalType": "uint256",
          "name": "_tradeId",
          "type": "uint256"
        }
      ],
      "name": "triggerVotingSLABreach",
      "outputs": [],
      "stateMutability": "nonpayable",
      "type": "function"
    }
  ],
  "bytecode": "0x60a03461008757601f61158d38819003918201601f19168301916001600160401b0383118484101761008c5780849260209460405283398101031261008757516001600160a01b03811690819003610087576080526040516114ea90816100a3823960805181818160ba015281816101420152818161078c01528181610af001526113bd0152f35b600080fd5b634e487b7160e01b600052604160045260246000fdfe6040608081526004908136101561001557600080fd5b600091823560e01c9081631cf9f47d146105c657816329046cc514610ece5781634944483114610e41578163564a565d14610da85781635678138814610a4b5781635f9a71fe14610711578163a0ef4d0e146106f4578163a438d208146106d6578163aefa8eaa14610617578163b92b23a3146105c6578163cdbceb25146100ed575063dbd97308146100a757600080fd5b346100e957816003193601126100e957517f00000000000000000000000000000000000000000000000000000000000000006001600160a01b03168152602090f35b5080fd5b90503461031a578160031936011261031a5780359160249081359267ffffffffffffffff9384811161034e5761012690369083016110f3565b8351632db25e0560e01b81528381018890526001600160a01b037f0000000000000000000000000000000000000000000000000000000000000000811694939291610220919082818a818a5afa9283156105bc578c9361058d575b50506101c0820151601581101561057b57600a0361052a57908a918a835260ff600289602095808752200154166104f0578060c08301511633149182156104df575b82156104cd575b82156104bb575b82156104a9575b8215610497575b8215610485575b505015610444576201518042019788421161043257898b528a8252868b20928a8455600192838501928211610420579082918d6102268d97969554610fc8565b90601f82116103c6575b80915091601f841160011461035d5750906003969783610352575b505060001982871b1c191690831b1790555b600282019060ff198254161790550155813b1561034e578251633a1b3d3160e01b8152818101879052600b85820152878160448183875af180156103445761032b575b509086939291813b156103275760448791868094898751988996879563eaf4c3bb60e01b87528601528401525af190811561031e5750610306575b505033917f2dbd83ca5c9bb71f73c65204e8361ca7d41fb2fde537130e903e03d69177edc48480a480f35b61030f90611002565b61031a5782386102db565b8280fd5b513d84823e3d90fd5b8480fd5b61033a90979194939297611002565b95909192386102a0565b84513d8a823e3d90fd5b8680fd5b01359050388061024b565b84825280822093989291601f198a16915b8282106103ac57505091859391896003999a9410610394575b505050811b01905561025d565b013560001983891b60f8161c19169055388080610387565b8484013586558f995094870194928301929081019061036e565b8483949596979850819392935220601f840160051c810191838510610416575b8f9091601f8f999897969594930160051c0191905b828210610409579050610230565b81558d975085018f6103fb565b90915081906103e6565b634e487b7160e01b8d5260418752898dfd5b634e487b7160e01b8b5260118552878bfd5b8360178860649389519362461bcd60e51b85528401528201527f4e6f742061207472616465207061727469636970616e740000000000000000006044820152fd5b610120919250015116331438806101e6565b915080610100830151163314916101df565b9150806101a0830151163314916101d8565b915080610180830151163314916101d1565b915080610160830151163314916101ca565b91508060e0830151163314916101c3565b875162461bcd60e51b81528087018490526015818b015274566f74696e6720616c72656164792061637469766560581b6044820152606490fd5b865162461bcd60e51b81526020818701526026818a01527f5472616465206d75737420626520696e20454e5452595f52454a45435445442060448201526573746174757360d01b6064820152608490fd5b634e487b7160e01b8c5260218652888cfd5b6105ad929350803d106105b5575b6105a5818361102c565b810190611213565b903880610181565b503d61059b565b88513d8e823e3d90fd5b90503461031a57602036600319011261031a579181923581526001602052206106136105f660018354930161104e565b9251928260ff859460101c169060ff808260081c16911685610f95565b0390f35b90503461031a57602036600319011261031a5780359182845283602052600381852061065860ff600283015461064e828216611126565b60081c1615611166565b0154421115610693578361069084807ffec6c4317fb3ca3b10e4c4fb07a703400312db0d97a77b485bf5815bb95ce53a8480a261136e565b80f35b906020606492519162461bcd60e51b8352820152601c60248201527f566f74696e6720646561646c696e65206e6f74206272656163686564000000006044820152fd5b5050346100e957816003193601126100e95760209051620151808152f35b9190503461031a578260031936011261031a576020925051908152f35b8383346100e95760803660031901126100e957823590602480359081151580920361032757604435906003821015610a475767ffffffffffffffff606435818111610a43576107639036908a016110f3565b8651632db25e0560e01b8152808b01899052909991906001600160a01b039061022090818188817f000000000000000000000000000000000000000000000000000000000000000087165afa918215610a39579061016092918d92610a1c575b505001511633036109e9578789526020938985526107f860ff60028a8d2001546107ee828216611126565b60081c16156111a6565b888a52600192838652888b20805460ff811661099c579085809261081b8b610f35565b62ff00008b60101b169062ffffff191661ff008d60081b16171717815501948c1161098b57505061084c8354610fc8565b601f8111610945575b508890601f8b116001146108c55799809281928b9c7f8814a2bc92aacb0c56f32882f151c2de15311c26abd002c40cb3aace6751c4139b9c946108ba575b50501b916000199060031b1c19161790555b83519283526108b382610f35565b820152a280f35b013592508c80610893565b9990601f1982169a848b52858b20918b5b8d81106109305750837f8814a2bc92aacb0c56f32882f151c2de15311c26abd002c40cb3aace6751c4139b9c9d10610916575b505050811b0190556108a5565b0135600019600384901b60f8161c191690558a8080610909565b828201358455928501929087019087016108d6565b838a52848a20601f8c0160051c810191868d10610981575b601f0160051c019083905b828110610976575050610855565b8b8155018390610968565b909150819061095d565b634e487b7160e01b8b526041905289fd5b608483858a8e519262461bcd60e51b8452830152808201527f496e73706563746f72206465636973696f6e20616c7265616479207375626d696044820152631d1d195960e21b6064820152fd5b865162461bcd60e51b8152602081840152600e818601526d27b7363c9024b739b832b1ba37b960911b6044820152606490fd5b610a329250803d106105b5576105a5818361102c565b8d806107c3565b8a513d8e823e3d90fd5b8780fd5b8580fd5b9190503461031a578060031936011261031a5781359160249182356003811015610a4757848652602086815282872092610a9060ff60028601546107ee828216611126565b60038401544211610d52576007840133895280835260ff828a205416610d2057610ab984610f35565b6001841496878015610d0d575b15610cdd578251632db25e0560e01b81528781018a9052610220906001600160a01b0390828185817f000000000000000000000000000000000000000000000000000000000000000086165afa928315610cd3578d93610cb4575b50508060c0830151163314918215610ca3575b8215610c91575b8215610c7f575b8215610c6d575b8215610c5b575b8215610c49575b505015610c1457508594939288927feba4866100b822f0f391e610e7edfab790b9e8766c0012733c26b2f1858e8dd792338c528252808b20600160ff198254161790556006860198610ba98a5461133c565b8a55610bb486610f35565b15610bff57868601610bc6815461133c565b90555b5193610bd481610f35565b84523393a3015410610bea57506106909061136e565b54600714610bf6575080f35b6106909061136e565b60058601610c0d815461133c565b9055610bc9565b8660116064928686519362461bcd60e51b8552840152820152704e6f74206120766f74696e67206e6f646560781b6044820152fd5b61012091925001511633143880610b57565b91508061010083015116331491610b50565b9150806101a083015116331491610b49565b91508061018083015116331491610b42565b91508061016083015116331491610b3b565b91508060e083015116331491610b34565b610ccb929350803d106105b5576105a5818361102c565b903880610b21565b86513d8f823e3d90fd5b86600c6064928686519362461bcd60e51b85528401528201526b496e76616c696420766f746560a01b6044820152fd5b50610d1785610f35565b60028514610ac6565b815162461bcd60e51b8152808701849052600d818901526c105b1c9958591e481d9bdd1959609a1b6044820152606490fd5b5162461bcd60e51b815280850191909152602b818601527f566f74696e6720706572696f642065787069726564202d2063616c6c2066696e60448201526a616c697a65566f74696e6760a81b6064820152608490fd5b90508234610e3e576020366003190112610e3e57829082358152806020522091825491610dd76001850161104e565b936002810154916003820154908201549060ff6006600585015494015494610e118751998a99610100908b528060208c01528a0190610f55565b9682821615159089015260081c1615156060870152608086015260a085015260c084015260e08301520390f35b80fd5b90503461031a57602036600319011261031a57803591828452836020526003818520610e7860ff600283015461064e828216611126565b0154421115610e8b57836106908461136e565b906020606492519162461bcd60e51b8352820152601d60248201527f566f74696e6720706572696f64206e6f742079657420657870697265640000006044820152fd5b9190503461031a57602036600319011261031a578060c09383358152806020522060028101549260038201549082015490600660058401549301549360ff8151968181161515885260081c16151560208701528501526060840152608083015260a0820152f35b60031115610f3f57565b634e487b7160e01b600052602160045260246000fd5b919082519283825260005b848110610f81575050826000602080949584010152601f8019910116010190565b602081830181015184830182015201610f60565b9092608092610fc595941515835215156020830152610fb381610f35565b60408201528160608201520190610f55565b90565b90600182811c92168015610ff8575b6020831014610fe257565b634e487b7160e01b600052602260045260246000fd5b91607f1691610fd7565b67ffffffffffffffff811161101657604052565b634e487b7160e01b600052604160045260246000fd5b90601f8019910116810190811067ffffffffffffffff82111761101657604052565b9060405191826000825461106181610fc8565b908184526020946001916001811690816000146110d15750600114611092575b5050506110909250038361102c565b565b600090815285812095935091905b8183106110b95750506110909350820101388080611081565b855488840185015294850194879450918301916110a0565b9250505061109094925060ff191682840152151560051b820101388080611081565b9181601f840112156111215782359167ffffffffffffffff8311611121576020838186019501011161112157565b600080fd5b1561112d57565b60405162461bcd60e51b81526020600482015260116024820152704e6f20616374697665206469737075746560781b6044820152606490fd5b1561116d57565b60405162461bcd60e51b8152602060048201526011602482015270105b1c9958591e48199a5b985b1a5e9959607a1b6044820152606490fd5b156111ad57565b60405162461bcd60e51b815260206004820152601860248201527f566f74696e6720616c72656164792066696e616c697a656400000000000000006044820152606490fd5b51906001600160a01b038216820361112157565b5190811515820361112157565b809161022092839103126111215760405191820182811067ffffffffffffffff82111761101657604052805182526020810151602083015260408101516040830152606081015160608301526080810151608083015260a081015160a083015261127f60c082016111f2565b60c083015261129060e082016111f2565b60e08301526101006112a38183016111f2565b908301526101206112b58183016111f2565b908301526101406112c78183016111f2565b908301526101606112d98183016111f2565b908301526101806112eb8183016111f2565b908301526101a06112fd8183016111f2565b908301526101c080820151906015821015611121578301526101e0611323818301611206565b90830152611335610200809201611206565b9082015290565b600019811461134b5760010190565b634e487b7160e01b600052601160045260246000fd5b906015821015610f3f5752565b600081815280602052604090818120916002830161010061ffff1982541617905560016020528082205460ff8116908161149a575b50600484019060048254101560001461148557506012925b7f00000000000000000000000000000000000000000000000000000000000000006001600160a01b0316803b156100e9578180916044865180958193633a1b3d3160e01b83528c6004840152611414602484018c611361565b5af190811561147a575092600561146893606096937f610b72da639bf7d46039976ca9e5779bc1c162f91b825ebb2a720ebda7cdd67e989661146b575b505494015481519485526020850152830190611361565ba2565b61147490611002565b38611451565b8451903d90823e3d90fd5b15611492576014926113bb565b6013926113bb565b6001915060101c60ff166114ad81610f35565b14386113a356fea2646970667358221220c486f43be5bee9fe5f31e16a1b8a0f87e2d593506db81be5b613be4573825b7c64736f6c63430008180033",
  "linkReferences": {},
  "deployedLinkReferences": {}
}