{
  "_format": "hh-sol-artifact-1",
  "contractName": "ConsensusDispute",
  "sourceName": "contracts/ConsensusDispute.sol",
  "abi": [
    {
      "inputs": [
        {
          "internalType": "address",
          "name": "_tradeRegistry",
          "type": "address"
        }
      ],
      "stateMutability": "nonpayable",
      "type": "constructor"
    },
    {
      "anonymous": false,
      "inputs": [
        {
          "indexed": true,
          "internalType": "uint256",
          "name": "tradeId",
          "type": "uint256"
        },
        {
          "indexed": true,
          "internalType": "uint256",
          "name": "votingDeadline",
          "type": "uint256"
        },
        {
          "indexed": true,
          "internalType": "address",
          "name": "activatedBy",
          "type": "address"
        }
      ],
      "name": "DisputeActivated",
      "type": "event"
    },
    {
      "anonymous": false,
      "inputs": [
        {
          "indexed": true,
          "internalType": "uint256",
          "name": "tradeId",
          "type": "uint256"
        },
        {
          "indexed": false,
          "internalType": "bool",
          "name": "decision",
          "type": "bool"
        },
        {
          "indexed": false,
          "internalType": "enum ConsensusDispute.CargoStatus",
          "name": "cargoStatus",
          "type": "uint8"
        }
      ],
      "name": "InspectorDecisionSubmitted",
      "type": "event"
    },
    {
      "anonymous": false,
      "inputs": [
        {
          "indexed": true,
          "internalType": "uint256",
          "name": "tradeId",
          "type": "uint256"
        }
      ],
      "name": "SLABreachTriggered",
      "type": "event"
    },
    {
      "anonymous": false,
      "inputs": [
        {
          "indexed": true,
          "internalType": "uint256",
          "name": "tradeId",
          "type": "uint256"
        },
        {
          "indexed": true,
          "internalType": "address",
          "name": "voter",
          "type": "address"
        },
        {
          "indexed": false,
          "internalType": "enum ConsensusDispute.Vote",
          "name": "vote",
          "type": "uint8"
        }
      ],
      "name": "VoteCast",
      "type": "event"
    },
    {
      "anonymous": false,
      "inputs": [
        {
          "indexed": true,
          "internalType": "uint256",
          "name": "tradeId",
          "type": "uint256"
        },
        {
          "indexed": false,
          "internalType": "uint256",
          "name": "revertVotes",
          "type": "uint256"
        },
        {
          "indexed": false,
          "internalType": "uint256",
          "name": "noRevertVotes",
          "type": "uint256"
        },
        {
          "indexed": false,
          "internalType": "enum TradeRegistry.TradeStatus",
          "name": "outcome",
          "type": "uint8"
        }
      ],
      "name": "VotingFinalized",
      "type": "event"
    },
    {
      "inputs": [],
      "name": "VOTE_THRESHOLD",
      "outputs": [
        {
          "internalType": "uint256",
          "name": "",
          "type": "uint256"
        }
      ],
      "stateMutability": "view",
      "type": "function"
    },
    {
      "inputs": [],
      "name": "VOTING_DURATION",
      "outputs": [
        {
          "internalType": "uint256",
          "name": "",
          "type": "uint256"
        }
      ],
      "stateMutability": "view",
      "type": "function"
    },
    {
      "inputs": [
        {
          "internalType": "uint256",
          "name": "tradeId",
          "type": "uint256"
        },
        {
          "internalType": "string",
          "name": "evidenceIpfsHash",
          "type": "string"
        }
      ],
      "name": "activateVoting",
      "outputs": [],
      "stateMutability": "nonpayable",
      "type": "function"
    },
    {
      "inputs": [
        {
          "internalType": "uint256",
          "name": "tradeId",
          "type": "uint256"
        },
        {
          "internalType": "enum ConsensusDispute.Vote",
          "name": "vote",
          "type": "uint8"
        }
      ],
      "name": "castVote",
      "outputs": [],
      "stateMutability": "nonpayable",
      "type": "function"
    },
    {
      "inputs": [
        {
          "internalType": "uint256",
          "name": "",
          "type": "uint256"
        }
      ],
      "name": "disputes",
      "outputs": [
        {
          "internalType": "uint256",
          "name": "tradeId",
          "type": "uint256"
        },
        {
          "internalType": "string",
          "name": "evidenceIpfsHash",
          "type": "string"
        },
        {
          "internalType": "bool",
          "name": "active",
          "type": "bool"
        },
        {
          "internalType": "bool",
          "name": "finalized",
          "type": "bool"
        },
        {
          "internalType": "uint256",
          "name": "votingDeadline",
          "type": "uint256"
        },
        {
          "internalType": "uint256",
          "name": "totalRevertVotes",
          "type": "uint256"
        },
        {
          "internalType": "uint256",
          "name": "totalNoRevertVotes",
          "type": "uint256"
        },
        {
          "internalType": "uint256",
          "name": "totalVotesCast",
          "type": "uint256"
        }
      ],
      "stateMutability": "view",
      "type": "function"
    },
    {
      "inputs": [
        {
          "internalType": "uint256",
          "name": "tradeId",
          "type": "uint256"
        }
      ],
      "name": "finalizeVoting",
      "outputs": [],
      "stateMutability": "nonpayable",
      "type": "function"
    },
    {
      "inputs": [
        {
          "internalType": "uint256",
          "name": "tradeId",
          "type": "uint256"
        }
      ],
      "name": "getInspectorDecision",
      "outputs": [
        {
          "internalType": "bool",
          "name": "submitted",
          "type": "bool"
        },
        {
          "internalType": "bool",
          "name": "decision",
          "type": "bool"
        },
        {
          "internalType": "enum ConsensusDispute.CargoStatus",
          "name": "cargoStatus",
          "type": "uint8"
        },
        {
          "internalType": "string",
          "name": "notes",
          "type": "string"
        }
      ],
      "stateMutability": "view",
      "type": "function"
    },
    {
      "inputs": [
        {
          "internalType": "uint256",
          "name": "tradeId",
          "type": "uint256"
        }
      ],
      "name": "getVotingSummary",
      "outputs": [
        {
          "internalType": "bool",
          "name": "active",
          "type": "bool"
        },
        {
          "internalType": "bool",
          "name": "finalized",
          "type": "bool"
        },
        {
          "internalType": "uint256",
          "name": "votingDeadline",
          "type": "uint256"
        },
        {
          "internalType": "uint256",
          "name": "revertVotes",
          "type": "uint256"
        },
        {
          "internalType": "uint256",
          "name": "noRevertVotes",
          "type": "uint256"
        },
        {
          "internalType": "uint256",
          "name": "totalVotesCast",
          "type": "uint256"
        }
      ],
      "stateMutability": "view",
      "type": "function"
    },
    {
      "inputs": [
        {
          "internalType": "uint256",
          "name": "",
          "type": "uint256"
        }
      ],
      "name": "inspectorDecisions",
      "outputs": [
        {
          "internalType": "bool",
          "name": "submitted",
          "type": "bool"
        },
        {
          "internalType": "bool",
          "name": "decision",
          "type": "bool"
        },
        {
          "internalType": "enum ConsensusDispute.CargoStatus",
          "name": "cargoStatus",
          "type": "uint8"
        },
        {
          "internalType": "string",
          "name": "notes",
          "type": "string"
        }
      ],
      "stateMutability": "view",
      "type": "function"
    },
    {
      "inputs": [
        {
          "internalType": "uint256",
          "name": "tradeId",
          "type": "uint256"
        },
        {
          "internalType": "bool",
          "name": "decision",
          "type": "bool"
        },
        {
          "internalType": "enum ConsensusDispute.CargoStatus",
          "name": "cargoStatus",
          "type": "uint8"
        },
        {
          "internalType": "string",
          "name": "notes",
          "type": "string"
        }
      ],
      "name": "submitInspectorDecision",
      "outputs": [],
      "stateMutability": "nonpayable",
      "type": "function"
    },
    {
      "inputs": [],
      "name": "tradeRegistry",
      "outputs": [
        {
          "internalType": "contract TradeRegistry",
          "name": "",
          "type": "address"
        }
      ],
      "stateMutability": "view",
      "type": "function"
    },
    {
      "inputs": [
        {
          "internalType": "uint256",
          "name": "tradeId",
          "type": "uint256"
        }
      ],
      "name": "triggerVotingSLABreach",
      "outputs": [],
      "stateMutability": "nonpayable",
      "type": "function"
    }
  ],
  "bytecode": "0x60a03461008757601f61156838819003918201601f19168301916001600160401b0383118484101761008c5780849260209460405283398101031261008757516001600160a01b03811690819003610087576080526040516114c590816100a3823960805181818160ba0152818161013f0152818161077301528181610ad701526113dd0152f35b600080fd5b634e487b7160e01b600052604160045260246000fdfe6040608081526004908136101561001557600080fd5b600091823560e01c9081631cf9f47d146105a957816329046cc514610eb25781634944483114610e25578163564a565d14610d8f5781635678138814610a325781635f9a71fe146106f8578163a0ef4d0e146106db578163a438d208146106bd578163aefa8eaa146105fe578163b92b23a3146105a9578163cdbceb25146100ed575063dbd97308146100a757600080fd5b346100e957816003193601126100e957517f00000000000000000000000000000000000000000000000000000000000000006001600160a01b03168152602090f35b5080fd5b8383346100e957806003193601126100e95760249067ffffffffffffffff843583358281116105a55761012390369088016110d7565b8451632db25e0560e01b81528881018490526001600160a01b037f000000000000000000000000000000000000000000000000000000000000000081169392916102209081818b81895afa91821561059b578b9261056e575b50506101c0810151601581101561055c57600a0361050b57858a526020918a835260ff60028a8d200154166104d1578060c08301511633149182156104c0575b82156104ae575b821561049c575b821561048a575b8215610478575b8215610466575b505015610425576201518042019586421161041357858a52898252878a20928684556001928385019282116104015790829161021e8a96959454610fac565b601f81116103a9575b508c8091601f84116001146103405750906003969783610335575b505060001982871b1c191690831b1790555b600282019060ff1982541617905501558351963384847f2dbd83ca5c9bb71f73c65204e8361ca7d41fb2fde537130e903e03d69177edc48a80a4813b1561031357633a1b3d3160e01b8852808801839052600b86890152868860448183865af1801561032b57610317575b869750813b15610313578660449281958751988996879563eaf4c3bb60e01b87528601528401525af190811561030a57506102f75750f35b61030090610fe6565b6103075780f35b80fd5b513d84823e3d90fd5b8680fd5b95909661032390610fe6565b9486906102bf565b85513d89823e3d90fd5b013590508e80610242565b84825280822093989291601f198a16915b82821061038f57505091859391896003999a9410610377575b505050811b019055610254565b013560001983891b60f8161c191690558e808061036a565b8484013586558d9950948701949283019290810190610351565b90919280949596508d52818d20601f840160051c8101918385106103f7575b8b979695949392918f91601f0160051c0191905b8282106103ea575050610227565b81558b975085018e6103dc565b90915081906103c8565b634e487b7160e01b8c5260418d528a8cfd5b634e487b7160e01b8a5260118b52888afd5b896017896064938a519362461bcd60e51b85528401528201527f4e6f742061207472616465207061727469636970616e740000000000000000006044820152fd5b61012091925001511633148b806101df565b915080610100830151163314916101d8565b9150806101a0830151163314916101d1565b915080610180830151163314916101ca565b915080610160830151163314916101c3565b91508060e0830151163314916101bc565b885162461bcd60e51b8152808d018490526015818c015274566f74696e6720616c72656164792061637469766560581b6044820152606490fd5b875162461bcd60e51b81526020818d01526026818b01527f5472616465206d75737420626520696e20454e5452595f52454a45435445442060448201526573746174757360d01b6064820152608490fd5b634e487b7160e01b8b5260218c52898bfd5b61058d9250803d10610594575b6105858183611010565b8101906111f7565b8b8061017c565b503d61057b565b89513d8d823e3d90fd5b8580fd5b9050346105fa5760203660031901126105fa579181923581526001602052206105f66105d9600183549301611032565b9251928260ff859460101c169060ff808260081c16911685610f79565b0390f35b8280fd5b9050346105fa5760203660031901126105fa5780359182845283602052600381852061063f60ff600283015461063582821661110a565b60081c161561114a565b015442111561067a578361067784807ffec6c4317fb3ca3b10e4c4fb07a703400312db0d97a77b485bf5815bb95ce53a8480a2611352565b80f35b906020606492519162461bcd60e51b8352820152601c60248201527f566f74696e6720646561646c696e65206e6f74206272656163686564000000006044820152fd5b5050346100e957816003193601126100e95760209051620151808152f35b919050346105fa57826003193601126105fa576020925051908152f35b8383346100e95760803660031901126100e9578235906024803590811515809203610a2e576044359060038210156105a55767ffffffffffffffff606435818111610a2a5761074a9036908a016110d7565b8651632db25e0560e01b8152808b01899052909991906001600160a01b039061022090818188817f000000000000000000000000000000000000000000000000000000000000000087165afa918215610a20579061016092918d92610a03575b505001511633036109d0578789526020938985526107df60ff60028a8d2001546107d582821661110a565b60081c161561118a565b888a52600192838652888b20805460ff811661098357908580926108028b610f19565b62ff00008b60101b169062ffffff191661ff008d60081b16171717815501948c116109725750506108338354610fac565b601f811161092c575b508890601f8b116001146108ac5799809281928b9c7f8814a2bc92aacb0c56f32882f151c2de15311c26abd002c40cb3aace6751c4139b9c946108a1575b50501b916000199060031b1c19161790555b835192835261089a82610f19565b820152a280f35b013592508c8061087a565b9990601f1982169a848b52858b20918b5b8d81106109175750837f8814a2bc92aacb0c56f32882f151c2de15311c26abd002c40cb3aace6751c4139b9c9d106108fd575b505050811b01905561088c565b0135600019600384901b60f8161c191690558a80806108f0565b828201358455928501929087019087016108bd565b838a52848a20601f8c0160051c810191868d10610968575b601f0160051c019083905b82811061095d57505061083c565b8b815501839061094f565b9091508190610944565b634e487b7160e01b8b526041905289fd5b608483858a8e519262461bcd60e51b8452830152808201527f496e73706563746f72206465636973696f6e20616c7265616479207375626d696044820152631d1d195960e21b6064820152fd5b865162461bcd60e51b8152602081840152600e818601526d27b7363c9024b739b832b1ba37b960911b6044820152606490fd5b610a199250803d10610594576105858183611010565b8d806107aa565b8a513d8e823e3d90fd5b8780fd5b8480fd5b919050346105fa57806003193601126105fa57813591602491823560038110156105a557848652602086815282872092610a7760ff60028601546107d582821661110a565b60038401544211610d39576007840133895280835260ff828a205416610d0757610aa084610f19565b6001841496878015610cf4575b15610cc4578251632db25e0560e01b81528781018a9052610220906001600160a01b0390828185817f000000000000000000000000000000000000000000000000000000000000000086165afa928315610cba578d93610c9b575b50508060c0830151163314918215610c8a575b8215610c78575b8215610c66575b8215610c54575b8215610c42575b8215610c30575b505015610bfb57508594939288927feba4866100b822f0f391e610e7edfab790b9e8766c0012733c26b2f1858e8dd792338c528252808b20600160ff198254161790556006860198610b908a54611320565b8a55610b9b86610f19565b15610be657868601610bad8154611320565b90555b5193610bbb81610f19565b84523393a3015410610bd1575061067790611352565b54600714610bdd575080f35b61067790611352565b60058601610bf48154611320565b9055610bb0565b8660116064928686519362461bcd60e51b8552840152820152704e6f74206120766f74696e67206e6f646560781b6044820152fd5b61012091925001511633143880610b3e565b91508061010083015116331491610b37565b9150806101a083015116331491610b30565b91508061018083015116331491610b29565b91508061016083015116331491610b22565b91508060e083015116331491610b1b565b610cb2929350803d10610594576105858183611010565b903880610b08565b86513d8f823e3d90fd5b86600c6064928686519362461bcd60e51b85528401528201526b496e76616c696420766f746560a01b6044820152fd5b50610cfe85610f19565b60028514610aad565b815162461bcd60e51b8152808701849052600d818901526c105b1c9958591e481d9bdd1959609a1b6044820152606490fd5b5162461bcd60e51b815280850191909152602b818601527f566f74696e6720706572696f642065787069726564202d2063616c6c2066696e60448201526a616c697a65566f74696e6760a81b6064820152608490fd5b9050823461030757602036600319011261030757829082358152806020522091825491610dbe60018501611032565b936002810154916003820154908201549060ff6006600585015494015494610df88751998a99610100908b528060208c01528a0190610f39565b9682821615159089015260081c1615156060870152608086015260a085015260c084015260e08301520390f35b9050346105fa5760203660031901126105fa57803591828452836020526003818520610e5c60ff600283015461063582821661110a565b0154421115610e6f578361067784611352565b906020606492519162461bcd60e51b8352820152601d60248201527f566f74696e6720706572696f64206e6f742079657420657870697265640000006044820152fd5b919050346105fa5760203660031901126105fa578060c09383358152806020522060028101549260038201549082015490600660058401549301549360ff8151968181161515885260081c16151560208701528501526060840152608083015260a0820152f35b60031115610f2357565b634e487b7160e01b600052602160045260246000fd5b919082519283825260005b848110610f65575050826000602080949584010152601f8019910116010190565b602081830181015184830182015201610f44565b9092608092610fa995941515835215156020830152610f9781610f19565b60408201528160608201520190610f39565b90565b90600182811c92168015610fdc575b6020831014610fc657565b634e487b7160e01b600052602260045260246000fd5b91607f1691610fbb565b67ffffffffffffffff8111610ffa57604052565b634e487b7160e01b600052604160045260246000fd5b90601f8019910116810190811067ffffffffffffffff821117610ffa57604052565b9060405191826000825461104581610fac565b908184526020946001916001811690816000146110b55750600114611076575b50505061107492500383611010565b565b600090815285812095935091905b81831061109d5750506110749350820101388080611065565b85548884018501529485019487945091830191611084565b9250505061107494925060ff191682840152151560051b820101388080611065565b9181601f840112156111055782359167ffffffffffffffff8311611105576020838186019501011161110557565b600080fd5b1561111157565b60405162461bcd60e51b81526020600482015260116024820152704e6f20616374697665206469737075746560781b6044820152606490fd5b1561115157565b60405162461bcd60e51b8152602060048201526011602482015270105b1c9958591e48199a5b985b1a5e9959607a1b6044820152606490fd5b1561119157565b60405162461bcd60e51b815260206004820152601860248201527f566f74696e6720616c72656164792066696e616c697a656400000000000000006044820152606490fd5b51906001600160a01b038216820361110557565b5190811515820361110557565b809161022092839103126111055760405191820182811067ffffffffffffffff821117610ffa57604052805182526020810151602083015260408101516040830152606081015160608301526080810151608083015260a081015160a083015261126360c082016111d6565b60c083015261127460e082016111d6565b60e08301526101006112878183016111d6565b908301526101206112998183016111d6565b908301526101406112ab8183016111d6565b908301526101606112bd8183016111d6565b908301526101806112cf8183016111d6565b908301526101a06112e18183016111d6565b908301526101c080820151906015821015611105578301526101e06113078183016111ea565b908301526113196102008092016111ea565b9082015290565b600019811461132f5760010190565b634e487b7160e01b600052601160045260246000fd5b906015821015610f235752565b90600082815280602052604090818120936002850161010061ffff198254161790556001602052807f610b72da639bf7d46039976ca9e5779bc1c162f91b825ebb2a720ebda7cdd67e60608585205460ff81169081611475575b506004898101549190821061145c575060056012995b0154875191825260208201526113da8782018a611345565ba27f00000000000000000000000000000000000000000000000000000000000000006001600160a01b0316803b156105fa57946044839283611437979887519889958694633a1b3d3160e01b865260048601526024850190611345565b5af19182156114525750506114495750565b61107490610fe6565b51903d90823e3d90fd5b1561146b5760056014996113c2565b60056013996113c2565b6001915060101c60ff1661148881610f19565b14386113ac56fea26469706673582212209aa7bf20d40c365c8c628538fc370b34e4ad19da258a421331b1386b24db013964736f6c63430008180033",
  "linkReferences": {},
  "deployedLinkReferences": {}
}