{
  "_format": "hh-sol-artifact-1",
  "contractName": "DocumentVerification",
  "sourceName": "contracts/DocumentVerification.sol",
  "abi": [
    {
      "inputs": [
        {
          "internalType": "address",
          "name": "_tradeRegistry",
          "type": "address"
        }
      ],
      "stateMutability": "nonpayable",
      "type": "constructor"
    },
    {
      "anonymous": false,
      "inputs": [
        {
          "indexed": true,
          "internalType": "uint256",
          "name": "tradeId",
          "type": "uint256"
        },
        {
          "indexed": false,
          "internalType": "string",
          "name": "ipfsHash",
          "type": "string"
        },
        {
          "indexed": false,
          "internalType": "address",
          "name": "issuedBy",
          "type": "address"
        }
      ],
      "name": "BillOfLadingIssued",
      "type": "event"
    },
    {
      "anonymous": false,
      "inputs": [
        {
          "indexed": true,
          "internalType": "uint256",
          "name": "tradeId",
          "type": "uint256"
        },
        {
          "indexed": false,
          "internalType": "bool",
          "name": "cleared",
          "type": "bool"
        },
        {
          "indexed": false,
          "internalType": "address",
          "name": "decidedBy",
          "type": "address"
        }
      ],
      "name": "CustomsDecision",
      "type": "event"
    },
    {
      "anonymous": false,
      "inputs": [
        {
          "indexed": true,
          "internalType": "uint256",
          "name": "tradeId",
          "type": "uint256"
        },
        {
          "indexed": false,
          "internalType": "address",
          "name": "confirmedBy",
          "type": "address"
        }
      ],
      "name": "DutyPaymentConfirmed",
      "type": "event"
    },
    {
      "anonymous": false,
      "inputs": [
        {
          "indexed": true,
          "internalType": "uint256",
          "name": "tradeId",
          "type": "uint256"
        },
        {
          "indexed": false,
          "internalType": "address",
          "name": "releasedBy",
          "type": "address"
        }
      ],
      "name": "GoodsReleasedFromDuty",
      "type": "event"
    },
    {
      "anonymous": false,
      "inputs": [
        {
          "indexed": true,
          "internalType": "uint256",
          "name": "tradeId",
          "type": "uint256"
        },
        {
          "indexed": false,
          "internalType": "address",
          "name": "recordedBy",
          "type": "address"
        }
      ],
      "name": "TaxReceiptRecorded",
      "type": "event"
    },
    {
      "inputs": [
        {
          "internalType": "uint256",
          "name": "_tradeId",
          "type": "uint256"
        }
      ],
      "name": "confirmDutyPayment",
      "outputs": [],
      "stateMutability": "nonpayable",
      "type": "function"
    },
    {
      "inputs": [
        {
          "internalType": "uint256",
          "name": "_tradeId",
          "type": "uint256"
        }
      ],
      "name": "getBolIpfsHash",
      "outputs": [
        {
          "internalType": "string",
          "name": "",
          "type": "string"
        }
      ],
      "stateMutability": "view",
      "type": "function"
    },
    {
      "inputs": [
        {
          "internalType": "uint256",
          "name": "_tradeId",
          "type": "uint256"
        }
      ],
      "name": "getVerification",
      "outputs": [
        {
          "components": [
            {
              "internalType": "string",
              "name": "bolIpfsHash",
              "type": "string"
            },
            {
              "internalType": "string",
              "name": "customsCertIpfsHash",
              "type": "string"
            },
            {
              "internalType": "bool",
              "name": "bolIssued",
              "type": "bool"
            },
            {
              "internalType": "bool",
              "name": "customsCleared",
              "type": "bool"
            },
            {
              "internalType": "bool",
              "name": "dutyRequired",
              "type": "bool"
            },
            {
              "internalType": "bool",
              "name": "dutyPaid",
              "type": "bool"
            },
            {
              "internalType": "bool",
              "name": "dutyFeeAuthorized",
              "type": "bool"
            },
            {
              "internalType": "bool",
              "name": "receiptRecorded",
              "type": "bool"
            }
          ],
          "internalType": "struct DocumentVerification.VerificationState",
          "name": "",
          "type": "tuple"
        }
      ],
      "stateMutability": "view",
      "type": "function"
    },
    {
      "inputs": [
        {
          "internalType": "uint256",
          "name": "_tradeId",
          "type": "uint256"
        },
        {
          "internalType": "string",
          "name": "_ipfsHash",
          "type": "string"
        }
      ],
      "name": "issueBillOfLading",
      "outputs": [],
      "stateMutability": "nonpayable",
      "type": "function"
    },
    {
      "inputs": [
        {
          "internalType": "uint256",
          "name": "_tradeId",
          "type": "uint256"
        }
      ],
      "name": "recordTaxReceipt",
      "outputs": [],
      "stateMutability": "nonpayable",
      "type": "function"
    },
    {
      "inputs": [
        {
          "internalType": "uint256",
          "name": "_tradeId",
          "type": "uint256"
        }
      ],
      "name": "releaseFromDuty",
      "outputs": [],
      "stateMutability": "nonpayable",
      "type": "function"
    },
    {
      "inputs": [],
      "name": "tradeRegistry",
      "outputs": [
        {
          "internalType": "contract TradeRegistry",
          "name": "",
          "type": "address"
        }
      ],
      "stateMutability": "view",
      "type": "function"
    },
    {
      "inputs": [
        {
          "internalType": "uint256",
          "name": "",
          "type": "uint256"
        }
      ],
      "name": "verifications",
      "outputs": [
        {
          "internalType": "string",
          "name": "bolIpfsHash",
          "type": "string"
        },
        {
          "internalType": "string",
          "name": "customsCertIpfsHash",
          "type": "string"
        },
        {
          "internalType": "bool",
          "name": "bolIssued",
          "type": "bool"
        },
        {
          "internalType": "bool",
          "name": "customsCleared",
          "type": "bool"
        },
        {
          "internalType": "bool",
          "name": "dutyRequired",
          "type": "bool"
        },
        {
          "internalType": "bool",
          "name": "dutyPaid",
          "type": "bool"
        },
        {
          "internalType": "bool",
          "name": "dutyFeeAuthorized",
          "type": "bool"
        },
        {
          "internalType": "bool",
          "name": "receiptRecorded",
          "type": "bool"
        }
      ],
      "stateMutability": "view",
      "type": "function"
    },
    {
      "inputs": [
        {
          "internalType": "uint256",
          "name": "_tradeId",
          "type": "uint256"
        },
        {
          "internalType": "bool",
          "name": "_cleared",
          "type": "bool"
        },
        {
          "internalType": "string",
          "name": "_certIpfsHash",
          "type": "string"
        }
      ],
      "name": "verifyAsCustoms",
      "outputs": [],
      "stateMutability": "nonpayable",
      "type": "function"
    }
  ],
  "bytecode": "0x60803461007457601f61158438819003918201601f19168301916001600160401b038311848410176100795780849260209460405283398101031261007457516001600160a01b0381169081900361007457600080546001600160a01b0319169190911790556040516114f490816100908239f35b600080fd5b634e487b7160e01b600052604160045260246000fdfe608080604052600436101561001357600080fd5b600090813560e01c9081633896b80c14610f92575080633eb3da4814610b4b57806358937cc814610a065780636e0ede4f146107485780638dd6221914610705578063959aec85146103835780639b8d8a1014610162578063b90b0a10146100ad5763dbd973081461008457600080fd5b346100aa57806003193601126100aa57546040516001600160a01b039091168152602090f35b80fd5b50346100aa5760203660031901126100aa5760406101069160043581526001602052206100d98161129a565b9060026100e86001830161129a565b9101549061011460ff916040519586956101008088528701906111b7565b9085820360208701526111b7565b9181811615156040850152818160081c1615156060850152818160101c1615156080850152818160181c16151560a0850152818160201c16151560c085015260281c16151560e08301520390f35b50346100aa5760203660031901126100aa5760043560018060a01b03808354166040518091632db25e0560e01b82528460048301528160246102009485935afa9081156103785761012092869261034b575b50500151601281101561033757600a6101cd911461147e565b8183526001602052600260408420019081549160ff8360181c16156102f25760ff8360281c161561029157610100859361ff001916179055815416803b1561028257818091604460405180948193633a1b3d3160e01b8352886004840152600860248401525af180156102865761026e575b50507f256a72b45efe5d14bc1b5448dea14f76c8a9902c697c96c1e2862f50d37604c06020604051338152a280f35b61027790611231565b61028257813861023f565b5080fd5b6040513d84823e3d90fd5b60405162461bcd60e51b815260206004820152603360248201527f5461782072656365697074206d757374206265207265636f72646564206265666044820152726f72652072656c656173696e6720676f6f647360681b6064820152608490fd5b60405162461bcd60e51b815260206004820152601960248201527f44757479206e6f74207265636f726465642061732070616964000000000000006044820152606490fd5b634e487b7160e01b84526021600452602484fd5b61036a9250803d10610371575b6103628183611278565b810190611360565b38806101b4565b503d610358565b6040513d87823e3d90fd5b50346100aa5760603660031901126100aa576024351515602435036100aa5767ffffffffffffffff604435818111610701576103c3903690600401611184565b8354604051632db25e0560e01b81526004803590820152919291610200918290829060249082906001600160a01b03165afa9081156106f6576101209287926106d9575b5050015160128110156106c557600703610688576004358452600160205260408420928261055a575b5050506002906024356000146104e95701805461ff001916610100179055805481906001600160a01b0316803b156104e657818091604460405180948193633a1b3d3160e01b83526004356004840152600860248401525af18015610286576104d2575b50505b604051602435151581523360208201527f96752bae5a7241784ea98ffd832f3608db43fd5c35942d102b1a92fdaef13f96604060043592a280f35b6104db90611231565b6100aa578038610494565b50fd5b01805462ff0000191662010000179055805481906001600160a01b0316803b156104e657818091604460405180948193633a1b3d3160e01b83526004356004840152600960248401525af1801561028657610546575b5050610497565b61054f90611231565b6100aa57803861053f565b82116106745761056d60018401546111f7565b601f811161062c575b508390601f83116001146105bc5760029392918591836105b1575b50508160011b916000199060031b1c19161760018201555b903880610430565b013590503880610591565b6001840185526020852091855b601f1985168110610614575091839160019360029695601f198116106105fa575b505050811b0160018201556105a9565b0135600019600384901b60f8161c191690553880806105ea565b909260206001819286860135815501940191016105c9565b60018401855260208520601f840160051c8101916020851061066a575b601f0160051c01905b81811061065f5750610576565b858155600101610652565b9091508190610649565b634e487b7160e01b84526041600452602484fd5b60405162461bcd60e51b815260206004820152601560248201527411dbdbd91cc81b9bdd081e595d081cda1a5c1c1959605a1b6044820152606490fd5b634e487b7160e01b85526021600452602485fd5b6106ef9250803d10610371576103628183611278565b3880610407565b6040513d88823e3d90fd5b8280fd5b50346100aa5760203660031901126100aa57610730604061074492600435815260016020522061129a565b6040519182916020835260208301906111b7565b0390f35b50346100aa57602080600319360112610282578154604051632db25e0560e01b8082526004803590830181905293926024926001600160a01b03926102009284169183818781865afa9081156109fb5785916060918b916109de575b500151163303610990578290856040518094819382528a60048301525afa90811561098557610120928892610968575b5050015160128110156109555760090361091f578385526001835260026040862001805460ff8160101c16156108e35760ff8160181c1661089f5764ffff000000191664010100000017905584548592911690813b1561070157600a60448492836040519586948593633a1b3d3160e01b85528b60048601528401525af180156102865761088b575b50507f37932aba02f25b6bb85bab61365c8a3f049a0ad3b5289ab59c68c4bd30152e1890604051338152a280f35b61089490611231565b61070157823861085d565b60405162461bcd60e51b815260048101869052601d818601527f4475747920616c7265616479207265636f7264656420617320706169640000006044820152606490fd5b60405162461bcd60e51b81526004810186905260158186015274111d5d1e481dd85cc81b9bdd081c995c5d5a5c9959605a1b6044820152606490fd5b60405162461bcd60e51b815260048101849052600f818401526e4e6f2070656e64696e67206475747960881b6044820152606490fd5b634e487b7160e01b865260216004528286fd5b61097e9250803d10610371576103628183611278565b38806107d4565b6040513d89823e3d90fd5b60405162461bcd60e51b8152600481018790526021818701527f4f6e6c792069737375696e672062616e6b2028696d706f727465722062616e6b6044820152602960f81b6064820152608490fd5b6109f59150863d8811610371576103628183611278565b386107a4565b6040513d8b823e3d90fd5b50346100aa5760208060031936011261028257604082610b049360e08351610a2d8161125b565b6060815260608682015282858201528260608201528260808201528260a08201528260c082015201526004358152600183522060405191610a6d8361125b565b610a768261129a565b83526002610a866001840161129a565b92828501938452015460ff60408501938183161515855260608601828460081c16151581526080870190838560101c1615158252610b1760a0890193858760181c161515855260c08a019580888a1c161515875260e08b019760281c16151587526040519a8b9a898c5251610100809a8d01526101208c01906111b7565b90518a8203601f190160408c01526111b7565b965115156060890152511515608088015251151560a087015251151560c086015251151560e0850152511515908301520390f35b50346100aa5760403660031901126100aa5760043567ffffffffffffffff60248035828111610f8e57610b82903690600401611184565b92909160018060a01b038087541660405190632db25e0560e01b8083528860048401526102009283818781865afa908115610f8357859160a0918d91610f66575b500151163303610f22578290856040518094819382528c60048301525afa9081156109fb57610120928a92610f05575b505001516012811015610ef257600603610e9c578415610e6357858752600160209381855260ff600260408b20015416610e2a5787895281855260408920908711610e17579081610c468a9493546111f7565b601f8111610dc9575b508784601f8211600114610d67578591610d5c575b5060001960038a901b1c191688831b1790555b878352808552600260408420019060ff1982541617905581541691823b15610282576044600791836040519586948593633a1b3d3160e01b85528c60048601528401525af180156106f657610d20575b5082917f63149911db316f829a231b8a15319e7c3955ae2dc560e0f9a964d69ba0be2dbd93606092604051948593604085528160408601528585013782820184018890523390830152601f01601f19168101030190a280f35b918360609296610d517f63149911db316f829a231b8a15319e7c3955ae2dc560e0f9a964d69ba0be2dbd9695611231565b969250509192610cc7565b905087013538610c64565b828652878620915089601f198116875b8a828210610daf57505010610d95575b50508188811b019055610c77565b88013560001960038b901b60f8161c191690553880610d87565b8c85013586558f995094870194938401938d935001610d77565b908092939452858a20601f890160051c810191878a10610e0d575b90601f8c96959493920160051c01905b818110610e015750610c4f565b9485558a948301610df4565b9091508190610de4565b634e487b7160e01b895260416004528389fd5b60405162461bcd60e51b81526004810186905260128186015271109bd308185b1c9958591e481a5cdcdd595960721b6044820152606490fd5b60405162461bcd60e51b8152602060048201526012818401527112541194c81a185cda081c995c5d5a5c995960721b6044820152606490fd5b60405162461bcd60e51b8152602060048201526029818401527f5472616465206d75737420626520696e205348495050494e475f41535349474e60448201526845442073746174757360b81b6064820152608490fd5b634e487b7160e01b885260216004528288fd5b610f1b9250803d10610371576103628183611278565b3880610bf3565b60405162461bcd60e51b815260206004820152601e818701527f4f6e6c792061737369676e6564207368697070696e6720636f6d70616e7900006044820152606490fd5b610f7d9150863d8811610371576103628183611278565b38610bc3565b6040513d8d823e3d90fd5b8480fd5b90503461028257602080600319360112610701578254632db25e0560e01b83526004803590840181905292610200918290829060249082906001600160a01b03165afa90811561037857610120928692611167575b50500151601281101561033757600a611000911461147e565b8183526001815260026040842001805460ff8160181c161561110d5760ff81841c16156110b75760ff8160281c166110725765ff00000000001916650100000000001790556040513381527fdde75a4a33c4674911b4659751e101f012ab9c26decb7f75509abd4cf37ae71f9190a280f35b60405162461bcd60e51b815260048101849052601860248201527f5265636569707420616c7265616479207265636f7264656400000000000000006044820152606490fd5b60405162461bcd60e51b815260048101849052602860248201527f4475747920666565206e6f7420617574686f72697a656420627920496d706f726044820152677465722042616e6b60c01b6064820152608490fd5b60405162461bcd60e51b815260048101849052602c60248201527f496d706f727465722042616e6b20686173206e6f7420636f6e6669726d65642060448201526b191d5d1e481c185e5b595b9d60a21b6064820152608490fd5b61117d9250803d10610371576103628183611278565b3880610fe7565b9181601f840112156111b25782359167ffffffffffffffff83116111b257602083818601950101116111b257565b600080fd5b919082519283825260005b8481106111e3575050826000602080949584010152601f8019910116010190565b6020818301810151848301820152016111c2565b90600182811c92168015611227575b602083101461121157565b634e487b7160e01b600052602260045260246000fd5b91607f1691611206565b67ffffffffffffffff811161124557604052565b634e487b7160e01b600052604160045260246000fd5b610100810190811067ffffffffffffffff82111761124557604052565b90601f8019910116810190811067ffffffffffffffff82111761124557604052565b906040519182600082546112ad816111f7565b9081845260209460019160018116908160001461131d57506001146112de575b5050506112dc92500383611278565b565b600090815285812095935091905b8183106113055750506112dc93508201013880806112cd565b855488840185015294850194879450918301916112ec565b925050506112dc94925060ff191682840152151560051b8201013880806112cd565b51906001600160a01b03821682036111b257565b519081151582036111b257565b809161020092839103126111b25760405191820182811067ffffffffffffffff821117611245576040528051825261139a6020820161133f565b60208301526113ab6040820161133f565b60408301526113bc6060820161133f565b60608301526113cd6080820161133f565b60808301526113de60a0820161133f565b60a08301526113ef60c0820161133f565b60c083015261140060e0820161133f565b60e083015261010061141381830161133f565b90830152610120808201519060128210156111b2578301526101408082015190830152610160808201519083015261018080820151908301526101a080820151908301526101c0611465818301611353565b908301526114776101e0809201611353565b9082015290565b1561148557565b60405162461bcd60e51b8152602060048201526011602482015270111d5d1e481b9bdd081c185a59081e595d607a1b6044820152606490fdfea26469706673582212207200f5d9f92d73d88ce108fd94f1395f5ad517c5493c373fa9bfc2d60b0bafb364736f6c63430008180033",
  "linkReferences": {},
  "deployedLinkReferences": {}
}