{
  "_format": "hh-sol-artifact-1",
  "contractName": "TradeRegistry",
  "sourceName": "contracts/TradeRegistry.sol",
  "abi": [
    {
      "inputs": [],
      "stateMutability": "nonpayable",
      "type": "constructor"
    },
    {
      "anonymous": false,
      "inputs": [
        {
          "indexed": true,
          "internalType": "uint256",
          "name": "tradeId",
          "type": "uint256"
        },
        {
          "indexed": false,
          "internalType": "address",
          "name": "advisingBank",
          "type": "address"
        }
      ],
      "name": "AdvisingBankAssigned",
      "type": "event"
    },
    {
      "anonymous": false,
      "inputs": [
        {
          "indexed": true,
          "internalType": "address",
          "name": "contractAddress",
          "type": "address"
        },
        {
          "indexed": false,
          "internalType": "bool",
          "name": "authorized",
          "type": "bool"
        }
      ],
      "name": "ContractAuthorized",
      "type": "event"
    },
    {
      "anonymous": false,
      "inputs": [
        {
          "indexed": true,
          "internalType": "uint256",
          "name": "tradeId",
          "type": "uint256"
        },
        {
          "indexed": false,
          "internalType": "address",
          "name": "shippingCompany",
          "type": "address"
        }
      ],
      "name": "ShippingCompanyAssigned",
      "type": "event"
    },
    {
      "anonymous": false,
      "inputs": [
        {
          "indexed": true,
          "internalType": "uint256",
          "name": "tradeId",
          "type": "uint256"
        },
        {
          "indexed": false,
          "internalType": "address",
          "name": "confirmedBy",
          "type": "address"
        }
      ],
      "name": "TradeConfirmed",
      "type": "event"
    },
    {
      "anonymous": false,
      "inputs": [
        {
          "indexed": true,
          "internalType": "uint256",
          "name": "tradeId",
          "type": "uint256"
        },
        {
          "indexed": false,
          "internalType": "address",
          "name": "importer",
          "type": "address"
        },
        {
          "indexed": false,
          "internalType": "address",
          "name": "exporter",
          "type": "address"
        },
        {
          "indexed": false,
          "internalType": "uint256",
          "name": "amount",
          "type": "uint256"
        }
      ],
      "name": "TradeCreated",
      "type": "event"
    },
    {
      "anonymous": false,
      "inputs": [
        {
          "indexed": true,
          "internalType": "uint256",
          "name": "tradeId",
          "type": "uint256"
        }
      ],
      "name": "TradeInitiated",
      "type": "event"
    },
    {
      "anonymous": false,
      "inputs": [
        {
          "indexed": true,
          "internalType": "uint256",
          "name": "tradeId",
          "type": "uint256"
        },
        {
          "indexed": false,
          "internalType": "enum TradeRegistry.TradeStatus",
          "name": "oldStatus",
          "type": "uint8"
        },
        {
          "indexed": false,
          "internalType": "enum TradeRegistry.TradeStatus",
          "name": "newStatus",
          "type": "uint8"
        }
      ],
      "name": "TradeStatusUpdated",
      "type": "event"
    },
    {
      "inputs": [
        {
          "internalType": "uint256",
          "name": "_tradeId",
          "type": "uint256"
        },
        {
          "internalType": "address",
          "name": "_advisingBank",
          "type": "address"
        }
      ],
      "name": "assignAdvisingBank",
      "outputs": [],
      "stateMutability": "nonpayable",
      "type": "function"
    },
    {
      "inputs": [
        {
          "internalType": "uint256",
          "name": "_tradeId",
          "type": "uint256"
        },
        {
          "internalType": "address",
          "name": "_shippingCompany",
          "type": "address"
        }
      ],
      "name": "assignShippingCompany",
      "outputs": [],
      "stateMutability": "nonpayable",
      "type": "function"
    },
    {
      "inputs": [
        {
          "internalType": "address",
          "name": "",
          "type": "address"
        }
      ],
      "name": "authorizedContracts",
      "outputs": [
        {
          "internalType": "bool",
          "name": "",
          "type": "bool"
        }
      ],
      "stateMutability": "view",
      "type": "function"
    },
    {
      "inputs": [
        {
          "internalType": "uint256",
          "name": "_tradeId",
          "type": "uint256"
        }
      ],
      "name": "confirmTrade",
      "outputs": [],
      "stateMutability": "nonpayable",
      "type": "function"
    },
    {
      "inputs": [
        {
          "internalType": "address",
          "name": "_exporter",
          "type": "address"
        },
        {
          "internalType": "address",
          "name": "_issuingBank",
          "type": "address"
        },
        {
          "internalType": "address",
          "name": "_advisingBank",
          "type": "address"
        },
        {
          "internalType": "address",
          "name": "_inspector",
          "type": "address"
        },
        {
          "internalType": "address",
          "name": "_customsNode",
          "type": "address"
        },
        {
          "internalType": "address",
          "name": "_insuranceNode",
          "type": "address"
        },
        {
          "internalType": "uint256",
          "name": "_amount",
          "type": "uint256"
        },
        {
          "internalType": "uint256",
          "name": "_shippingDeadline",
          "type": "uint256"
        },
        {
          "internalType": "uint256",
          "name": "_clearanceDeadline",
          "type": "uint256"
        }
      ],
      "name": "createTrade",
      "outputs": [
        {
          "internalType": "uint256",
          "name": "",
          "type": "uint256"
        }
      ],
      "stateMutability": "nonpayable",
      "type": "function"
    },
    {
      "inputs": [
        {
          "internalType": "uint256",
          "name": "_tradeId",
          "type": "uint256"
        }
      ],
      "name": "getTrade",
      "outputs": [
        {
          "components": [
            {
              "internalType": "uint256",
              "name": "tradeId",
              "type": "uint256"
            },
            {
              "internalType": "address",
              "name": "importer",
              "type": "address"
            },
            {
              "internalType": "address",
              "name": "exporter",
              "type": "address"
            },
            {
              "internalType": "address",
              "name": "issuingBank",
              "type": "address"
            },
            {
              "internalType": "address",
              "name": "advisingBank",
              "type": "address"
            },
            {
              "internalType": "address",
              "name": "shippingCompany",
              "type": "address"
            },
            {
              "internalType": "address",
              "name": "inspector",
              "type": "address"
            },
            {
              "internalType": "address",
              "name": "customsNode",
              "type": "address"
            },
            {
              "internalType": "address",
              "name": "insuranceNode",
              "type": "address"
            },
            {
              "internalType": "enum TradeRegistry.TradeStatus",
              "name": "status",
              "type": "uint8"
            },
            {
              "internalType": "uint256",
              "name": "createdAt",
              "type": "uint256"
            },
            {
              "internalType": "uint256",
              "name": "amount",
              "type": "uint256"
            },
            {
              "internalType": "uint256",
              "name": "shippingDeadline",
              "type": "uint256"
            },
            {
              "internalType": "uint256",
              "name": "clearanceDeadline",
              "type": "uint256"
            },
            {
              "internalType": "bool",
              "name": "importerConfirmed",
              "type": "bool"
            },
            {
              "internalType": "bool",
              "name": "exporterConfirmed",
              "type": "bool"
            }
          ],
          "internalType": "struct TradeRegistry.Trade",
          "name": "",
          "type": "tuple"
        }
      ],
      "stateMutability": "view",
      "type": "function"
    },
    {
      "inputs": [],
      "name": "nextTradeId",
      "outputs": [
        {
          "internalType": "uint256",
          "name": "",
          "type": "uint256"
        }
      ],
      "stateMutability": "view",
      "type": "function"
    },
    {
      "inputs": [],
      "name": "owner",
      "outputs": [
        {
          "internalType": "address",
          "name": "",
          "type": "address"
        }
      ],
      "stateMutability": "view",
      "type": "function"
    },
    {
      "inputs": [
        {
          "internalType": "uint256",
          "name": "_tradeId",
          "type": "uint256"
        }
      ],
      "name": "raiseDispute",
      "outputs": [],
      "stateMutability": "nonpayable",
      "type": "function"
    },
    {
      "inputs": [
        {
          "internalType": "uint256",
          "name": "_tradeId",
          "type": "uint256"
        }
      ],
      "name": "requestLetterOfCredit",
      "outputs": [],
      "stateMutability": "nonpayable",
      "type": "function"
    },
    {
      "inputs": [
        {
          "internalType": "address",
          "name": "_contract",
          "type": "address"
        },
        {
          "internalType": "bool",
          "name": "_authorized",
          "type": "bool"
        }
      ],
      "name": "setAuthorizedContract",
      "outputs": [],
      "stateMutability": "nonpayable",
      "type": "function"
    },
    {
      "inputs": [
        {
          "internalType": "uint256",
          "name": "",
          "type": "uint256"
        }
      ],
      "name": "trades",
      "outputs": [
        {
          "internalType": "uint256",
          "name": "tradeId",
          "type": "uint256"
        },
        {
          "internalType": "address",
          "name": "importer",
          "type": "address"
        },
        {
          "internalType": "address",
          "name": "exporter",
          "type": "address"
        },
        {
          "internalType": "address",
          "name": "issuingBank",
          "type": "address"
        },
        {
          "internalType": "address",
          "name": "advisingBank",
          "type": "address"
        },
        {
          "internalType": "address",
          "name": "shippingCompany",
          "type": "address"
        },
        {
          "internalType": "address",
          "name": "inspector",
          "type": "address"
        },
        {
          "internalType": "address",
          "name": "customsNode",
          "type": "address"
        },
        {
          "internalType": "address",
          "name": "insuranceNode",
          "type": "address"
        },
        {
          "internalType": "enum TradeRegistry.TradeStatus",
          "name": "status",
          "type": "uint8"
        },
        {
          "internalType": "uint256",
          "name": "createdAt",
          "type": "uint256"
        },
        {
          "internalType": "uint256",
          "name": "amount",
          "type": "uint256"
        },
        {
          "internalType": "uint256",
          "name": "shippingDeadline",
          "type": "uint256"
        },
        {
          "internalType": "uint256",
          "name": "clearanceDeadline",
          "type": "uint256"
        },
        {
          "internalType": "bool",
          "name": "importerConfirmed",
          "type": "bool"
        },
        {
          "internalType": "bool",
          "name": "exporterConfirmed",
          "type": "bool"
        }
      ],
      "stateMutability": "view",
      "type": "function"
    },
    {
      "inputs": [
        {
          "internalType": "uint256",
          "name": "_tradeId",
          "type": "uint256"
        }
      ],
      "name": "triggerSLABreachRevert",
      "outputs": [],
      "stateMutability": "nonpayable",
      "type": "function"
    },
    {
      "inputs": [
        {
          "internalType": "uint256",
          "name": "_tradeId",
          "type": "uint256"
        },
        {
          "internalType": "enum TradeRegistry.TradeStatus",
          "name": "_newStatus",
          "type": "uint8"
        }
      ],
      "name": "updateStatus",
      "outputs": [],
      "stateMutability": "nonpayable",
      "type": "function"
    }
  ],
  "bytecode": "0x6080806040523461002857600280546001600160a01b03191633179055611316908161002e8239f35b600080fdfe6080604052600436101561001257600080fd5b60003560e01c80630a09ef38146110db57806314feba5214610fb85780631e6c598e14610ea45780632db25e0514610c3557806338ccdb891461097e5780633a1b3d31146108a5578063813ad083146108875780638da5cb5b1461085e5780639ec0507f146105dc578063a5c1674e14610406578063d19cd4ca1461027d578063d5b9221b1461023e578063d5ddd8901461017a5763f2fa7392146100b657600080fd5b34610175576040366003190112610175576100cf6111c8565b60243590811515808303610175576002546001600160a01b039190821633036101435761013a6020927f3213ab8ec2ed122402f038736b41878b69ae9f61f49a7edd0666bce891d29fc9941694856000526001845260406000209060ff801983541691151516179055565b604051908152a2005b60405162461bcd60e51b815260206004820152600a60248201526927b7363c9037bbb732b960b11b6044820152606490fd5b600080fd5b34610175576040366003190112610175576004356101966111b2565b600082815260208190526040902060028101546001600160a01b039190821633036102095760046020927ff6b6464c10c5a10fce3b6565f729a9efba6c35ed895010e0a1d31d18713dec709416916101ef83151561124b565b0180546001600160a01b03191682179055604051908152a2005b60405162461bcd60e51b815260206004820152600d60248201526c27b7363c9032bc3837b93a32b960991b6044820152606490fd5b34610175576020366003190112610175576001600160a01b0361025f6111c8565b166000526001602052602060ff604060002054166040519015158152f35b3461017557602080600319360112610175576004356000818152808352604090206003810154919290916001600160a01b031633036103ce5760088201805460ff8160a01c169360128510156103b8576005851480156103ae575b1561036957600b01544211156103245760ff60a01b1916600160a41b179055604080516000805160206112c183398151915293919290916010919061031e9084906111de565b820152a2005b60405162461bcd60e51b815260048101849052601960248201527f446561646c696e65206e6f7420796574206272656163686564000000000000006044820152606490fd5b60405162461bcd60e51b815260048101859052601d60248201527f496e76616c69642073746174757320666f7220534c41207265766572740000006044820152606490fd5b50600685146102d8565b634e487b7160e01b600052602160045260246000fd5b6064906040519062461bcd60e51b8252600482015260116024820152704f6e6c792069737375696e672062616e6b60781b6044820152fd5b346101755760208060031936011261017557600435908160005260008152604060002060018060a01b038060018301541633149182156105cb575b82156105ba575b82156105a9575b8215610598575b8215610587575b8215610576575b8215610565575b50501561052d57816000526000815260086040600020019081549160ff8360a01c169260128410156103b857600d84141580610522575b156104dd5760ff60a01b1916600760a11b179055604080516000805160206112c18339815191529391929091600e919061031e9084906111de565b60405162461bcd60e51b815260048101849052601d60248201527f43616e6e6f7420646973707574652066696e69736865642074726164650000006044820152606490fd5b5060108414156104a2565b6064906040519062461bcd60e51b825260048201526011602482015270139bdd0818481c185c9d1a58da5c185b9d607a1b6044820152fd5b60089192500154163314838061046b565b915080600783015416331491610464565b91508060068301541633149161045d565b915080600583015416331491610456565b91508060048301541633149161044f565b915080600383015416331491610448565b915080600283015416331491610441565b346101755760208060031936011261017557600435908160005260008152604060002090600882019160ff9081845460a01c1660128110156103b85761080e576001810154336001600160a01b039182161490819081156107fe575b50156107b9571561075157600d8101805483811661070c5760ff19166001179055600d905b857f4886270d3c681c8373359d1cfafb1a549453e43e452ce59a9eae87f8a23e50be85604051338152a201548180821691826106ff575b505061069c57005b825460ff60a01b198116600160a01b17909355604080516000805160206112c1833981519152949193909260019261031e918591897fc40a4f74d715da2ee96119fbf8d8da1df0f5b79e92c3fd855f1ddc102d51d047600080a260a01c166111de565b60081c1690508186610694565b60405162461bcd60e51b815260048101869052601a60248201527f496d706f7274657220616c726561647920636f6e6669726d65640000000000006044820152606490fd5b600d81018054838160081c166107745761ff001916610100179055600d9061065d565b60405162461bcd60e51b815260048101869052601a60248201527f4578706f7274657220616c726561647920636f6e6669726d65640000000000006044820152606490fd5b60405162461bcd60e51b815260048101859052601960248201527f4f6e6c7920696d706f72746572206f72206578706f72746572000000000000006044820152606490fd5b9050600283015416331487610638565b60405162461bcd60e51b815260048101849052602260248201527f5472616465206e6f7420696e204f464645525f41434345505445442073746174604482015261757360f01b6064820152608490fd5b34610175576000366003190112610175576002546040516001600160a01b039091168152602090f35b34610175576000366003190112610175576020600354604051908152f35b346101755760403660031901126101755760043560243560128110156101755733600052600160205260ff60406000205416801561096a575b156109345760406000805160206112c183398151915291836000526000602052610931600883600020019161091b8160ff855460a01c1694611227565b610927845180946111de565b60208301906111de565ba2005b60405162461bcd60e51b815260206004820152600e60248201526d139bdd08185d5d1a1bdc9a5e995960921b6044820152606490fd5b506002546001600160a01b031633146108de565b3461017557610120366003190112610175576109986111c8565b6109a06111b2565b90604435906001600160a01b0382168203610175576064356001600160a01b0381168103610175576084356001600160a01b03811681036101755760a435916001600160a01b038316830361017557600354946000198614610c1f5760018601600355610a0b611289565b8681523360208083019182526001600160a01b0388811660408086019182529b82166060860190815295821660808601908152600060a0870181815298841660c0880190815299841660e088019081529a841661010088019081526101208801828152426101408a015260c4356101608a015260e4356101808a0152610104356101a08a01526101c089018390526101e089018390528e8352958290529d90208651815594516001860180546001600160a01b0319908116928616929092179055915160028601805484169185169190911790559551600385018054831691841691909117905594516004840180548716918316919091179055945160058301805486169187169190911790559451600682018054851691861691909117905594516007860180548416918516919091179055965160088501805490921692169190911781559051909290919060128310156103b8576020956101e0600d606094610b987f7db1856a9087992b8c7c25a7f1622a9b144ff325953aee6bbb6d38d762c189f6978a99611227565b6101408401516009820155610160840151600a820155610180840151600b8201556101a0840151600c8201550191610be36101c08201511515849060ff801983541691151516179055565b0151815461ff00191690151560081b61ff0016179055604080513381526001600160a01b039092168783015260c43590820152a2604051908152f35b634e487b7160e01b600052601160045260246000fd5b346101755760203660031901126101755760006101e0610c53611289565b8281528260208201528260408201528260608201528260808201528260a08201528260c08201528260e08201528261010082015282610120820152826101408201528261016082015282610180820152826101a0820152826101c0820152015260043560005260006020526040600020610ccb611289565b8154815260018201546001600160a01b0390811660208301526002830154811660408301526003830154811660608301526004830154811660808301526005830154811660a0808401919091526006840154821660c08401526007840154821660e0840152600884015491821661010084015290929060129084901c60ff1610156103b857600d60ff91826102009560a01c166101208501526009810154610140850152600a810154610160850152600b810154610180850152600c8101546101a0850152015481811615156101c084015260081c1615156101e08201526101e0604051918051835260018060a01b03602082015116602084015260018060a01b03604082015116604084015260018060a01b03606082015116606084015260018060a01b03608082015116608084015260018060a01b0360a08201511660a084015260018060a01b0360c08201511660c084015260018060a01b0360e08201511660e084015260018060a01b0361010082015116610100840152610e5a6101208201516101208501906111de565b6101408101516101408401526101608101516101608401526101808101516101808401526101a08101516101a08401526101c081015115156101c0840152015115156101e0820152f35b3461017557602036600319011261017557600480356000908152602081815260409182902080546001820154600283015460038401549684015460058501546006860154600787015460088801546009890154600a8a0154600b8b0154600c8c0154600d909c01548e519b8c526001600160a01b039a8b169d8c019d909d529789169c8a019c909c529b87166060890152938616608088015291851660a08088019190915290851660c087015290841660e08601529281166101008501529296949593949093929091610f80916101208901911c60ff166111de565b6101408601526101608501526101808401526101a083015260ff811615156101c083015260081c60ff1615156101e082015261020090f35b3461017557604036600319011261017557600435610fd46111b2565b816000526000602052604060002060018060a01b0390610ffb8260018301541633146111eb565b60088101805460ff8160a01c169260128410156103b8576005840361109f577f2c66f56eae5b05d816c95cd687f6688b9df61f75e38f75cb9cc3a190358c5b646020889260056040986000805160206112c18339815191529a169161106183151561124b565b0180546001600160a01b031916821790558751908152a260ff60a01b1916600360a11b1790558151906110959082906111de565b60066020820152a2005b60405162461bcd60e51b8152602060048201526014602482015273119d5b991cc81b9bdd081b1bd8dad959081e595d60621b6044820152606490fd5b34610175576020366003190112610175576004358060005260006020526008604060002061111660018060a01b0360018301541633146111eb565b01805460ff8160a01c1660128110156103b8576001811480156111aa575b156111745760ff60a01b19909116600160a11b17909155604080516000805160206112c18339815191529261116a9082906111de565b60026020820152a2005b60405162461bcd60e51b815260206004820152600e60248201526d496e76616c69642073746174757360901b6044820152606490fd5b508015611134565b602435906001600160a01b038216820361017557565b600435906001600160a01b038216820361017557565b9060128210156103b85752565b156111f257565b60405162461bcd60e51b815260206004820152600d60248201526c27b7363c9034b6b837b93a32b960991b6044820152606490fd5b9060128110156103b857815460ff60a01b191660a09190911b60ff60a01b16179055565b1561125257565b60405162461bcd60e51b815260206004820152600f60248201526e496e76616c6964206164647265737360881b6044820152606490fd5b60405190610200820182811067ffffffffffffffff8211176112aa57604052565b634e487b7160e01b600052604160045260246000fdfefcb82c5664d9b8ca92b30878bddea2bb0fc8804c7ac6dc8f781a1cd8b94e8effa264697066735822122065af8df8b9f8f310b5bbb7b5df931fa6c71d14ebe104fd8d95c49f9b6e65582d64736f6c63430008180033",
  "linkReferences": {},
  "deployedLinkReferences": {}
}