{
  "_format": "hh-sol-artifact-1",
  "contractName": "TradeRegistry",
  "sourceName": "contracts/TradeRegistry.sol",
  "abi": [
    {
      "inputs": [],
      "stateMutability": "nonpayable",
      "type": "constructor"
    },
    {
      "anonymous": false,
      "inputs": [
        {
          "indexed": true,
          "internalType": "uint256",
          "name": "tradeId",
          "type": "uint256"
        },
        {
          "indexed": false,
          "internalType": "address",
          "name": "advisingBank",
          "type": "address"
        }
      ],
      "name": "AdvisingBankAssigned",
      "type": "event"
    },
    {
      "anonymous": false,
      "inputs": [
        {
          "indexed": true,
          "internalType": "address",
          "name": "contractAddress",
          "type": "address"
        },
        {
          "indexed": false,
          "internalType": "bool",
          "name": "authorized",
          "type": "bool"
        }
      ],
      "name": "ContractAuthorized",
      "type": "event"
    },
    {
      "anonymous": false,
      "inputs": [
        {
          "indexed": true,
          "internalType": "uint256",
          "name": "tradeId",
          "type": "uint256"
        },
        {
          "indexed": false,
          "internalType": "address",
          "name": "shippingCompany",
          "type": "address"
        }
      ],
      "name": "ShippingCompanyAssigned",
      "type": "event"
    },
    {
      "anonymous": false,
      "inputs": [
        {
          "indexed": true,
          "internalType": "uint256",
          "name": "tradeId",
          "type": "uint256"
        },
        {
          "indexed": false,
          "internalType": "address",
          "name": "confirmedBy",
          "type": "address"
        }
      ],
      "name": "TradeConfirmed",
      "type": "event"
    },
    {
      "anonymous": false,
      "inputs": [
        {
          "indexed": true,
          "internalType": "uint256",
          "name": "tradeId",
          "type": "uint256"
        },
        {
          "indexed": false,
          "internalType": "address",
          "name": "importer",
          "type": "address"
        },
        {
          "indexed": false,
          "internalType": "address",
          "name": "exporter",
          "type": "address"
        },
        {
          "indexed": false,
          "internalType": "uint256",
          "name": "amount",
          "type": "uint256"
        }
      ],
      "name": "TradeCreated",
      "type": "event"
    },
    {
      "anonymous": false,
      "inputs": [
        {
          "indexed": true,
          "internalType": "uint256",
          "name": "tradeId",
          "type": "uint256"
        }
      ],
      "name": "TradeInitiated",
      "type": "event"
    },
    {
      "anonymous": false,
      "inputs": [
        {
          "indexed": true,
          "internalType": "uint256",
          "name": "tradeId",
          "type": "uint256"
        },
        {
          "indexed": false,
          "internalType": "enum TradeRegistry.TradeStatus",
          "name": "oldStatus",
          "type": "uint8"
        },
        {
          "indexed": false,
          "internalType": "enum TradeRegistry.TradeStatus",
          "name": "newStatus",
          "type": "uint8"
        }
      ],
      "name": "TradeStatusUpdated",
      "type": "event"
    },
    {
      "inputs": [
        {
          "internalType": "uint256",
          "name": "_tradeId",
          "type": "uint256"
        },
        {
          "internalType": "address",
          "name": "_advisingBank",
          "type": "address"
        }
      ],
      "name": "assignAdvisingBank",
      "outputs": [],
      "stateMutability": "nonpayable",
      "type": "function"
    },
    {
      "inputs": [
        {
          "internalType": "uint256",
          "name": "_tradeId",
          "type": "uint256"
        },
        {
          "internalType": "address",
          "name": "_shippingCompany",
          "type": "address"
        }
      ],
      "name": "assignShippingCompany",
      "outputs": [],
      "stateMutability": "nonpayable",
      "type": "function"
    },
    {
      "inputs": [
        {
          "internalType": "address",
          "name": "",
          "type": "address"
        }
      ],
      "name": "authorizedContracts",
      "outputs": [
        {
          "internalType": "bool",
          "name": "",
          "type": "bool"
        }
      ],
      "stateMutability": "view",
      "type": "function"
    },
    {
      "inputs": [
        {
          "internalType": "uint256",
          "name": "_tradeId",
          "type": "uint256"
        }
      ],
      "name": "confirmTrade",
      "outputs": [],
      "stateMutability": "nonpayable",
      "type": "function"
    },
    {
      "inputs": [
        {
          "internalType": "address",
          "name": "_exporter",
          "type": "address"
        },
        {
          "internalType": "address",
          "name": "_issuingBank",
          "type": "address"
        },
        {
          "internalType": "address",
          "name": "_advisingBank",
          "type": "address"
        },
        {
          "internalType": "uint256",
          "name": "_amount",
          "type": "uint256"
        }
      ],
      "name": "createTrade",
      "outputs": [
        {
          "internalType": "uint256",
          "name": "",
          "type": "uint256"
        }
      ],
      "stateMutability": "nonpayable",
      "type": "function"
    },
    {
      "inputs": [
        {
          "internalType": "uint256",
          "name": "_tradeId",
          "type": "uint256"
        }
      ],
      "name": "getTrade",
      "outputs": [
        {
          "components": [
            {
              "internalType": "uint256",
              "name": "tradeId",
              "type": "uint256"
            },
            {
              "internalType": "address",
              "name": "importer",
              "type": "address"
            },
            {
              "internalType": "address",
              "name": "exporter",
              "type": "address"
            },
            {
              "internalType": "address",
              "name": "issuingBank",
              "type": "address"
            },
            {
              "internalType": "address",
              "name": "advisingBank",
              "type": "address"
            },
            {
              "internalType": "address",
              "name": "shippingCompany",
              "type": "address"
            },
            {
              "internalType": "enum TradeRegistry.TradeStatus",
              "name": "status",
              "type": "uint8"
            },
            {
              "internalType": "uint256",
              "name": "createdAt",
              "type": "uint256"
            },
            {
              "internalType": "uint256",
              "name": "amount",
              "type": "uint256"
            },
            {
              "internalType": "bool",
              "name": "importerConfirmed",
              "type": "bool"
            },
            {
              "internalType": "bool",
              "name": "exporterConfirmed",
              "type": "bool"
            }
          ],
          "internalType": "struct TradeRegistry.Trade",
          "name": "",
          "type": "tuple"
        }
      ],
      "stateMutability": "view",
      "type": "function"
    },
    {
      "inputs": [],
      "name": "nextTradeId",
      "outputs": [
        {
          "internalType": "uint256",
          "name": "",
          "type": "uint256"
        }
      ],
      "stateMutability": "view",
      "type": "function"
    },
    {
      "inputs": [],
      "name": "owner",
      "outputs": [
        {
          "internalType": "address",
          "name": "",
          "type": "address"
        }
      ],
      "stateMutability": "view",
      "type": "function"
    },
    {
      "inputs": [
        {
          "internalType": "uint256",
          "name": "_tradeId",
          "type": "uint256"
        }
      ],
      "name": "requestLetterOfCredit",
      "outputs": [],
      "stateMutability": "nonpayable",
      "type": "function"
    },
    {
      "inputs": [
        {
          "internalType": "address",
          "name": "_contract",
          "type": "address"
        },
        {
          "internalType": "bool",
          "name": "_authorized",
          "type": "bool"
        }
      ],
      "name": "setAuthorizedContract",
      "outputs": [],
      "stateMutability": "nonpayable",
      "type": "function"
    },
    {
      "inputs": [
        {
          "internalType": "uint256",
          "name": "",
          "type": "uint256"
        }
      ],
      "name": "trades",
      "outputs": [
        {
          "internalType": "uint256",
          "name": "tradeId",
          "type": "uint256"
        },
        {
          "internalType": "address",
          "name": "importer",
          "type": "address"
        },
        {
          "internalType": "address",
          "name": "exporter",
          "type": "address"
        },
        {
          "internalType": "address",
          "name": "issuingBank",
          "type": "address"
        },
        {
          "internalType": "address",
          "name": "advisingBank",
          "type": "address"
        },
        {
          "internalType": "address",
          "name": "shippingCompany",
          "type": "address"
        },
        {
          "internalType": "enum TradeRegistry.TradeStatus",
          "name": "status",
          "type": "uint8"
        },
        {
          "internalType": "uint256",
          "name": "createdAt",
          "type": "uint256"
        },
        {
          "internalType": "uint256",
          "name": "amount",
          "type": "uint256"
        },
        {
          "internalType": "bool",
          "name": "importerConfirmed",
          "type": "bool"
        },
        {
          "internalType": "bool",
          "name": "exporterConfirmed",
          "type": "bool"
        }
      ],
      "stateMutability": "view",
      "type": "function"
    },
    {
      "inputs": [
        {
          "internalType": "uint256",
          "name": "_tradeId",
          "type": "uint256"
        },
        {
          "internalType": "enum TradeRegistry.TradeStatus",
          "name": "_newStatus",
          "type": "uint8"
        }
      ],
      "name": "updateStatus",
      "outputs": [],
      "stateMutability": "nonpayable",
      "type": "function"
    }
  ],
  "bytecode": "0x608060405234801561001057600080fd5b5033600260006101000a81548173ffffffffffffffffffffffffffffffffffffffff021916908373ffffffffffffffffffffffffffffffffffffffff16021790555061222c806100616000396000f3fe608060405234801561001057600080fd5b50600436106100b45760003560e01c80638da5cb5b116100715780638da5cb5b146101955780639ec0507f146101b3578063d5b9221b146101cf578063d5ddd890146101ff578063f125b3371461021b578063f2fa73921461024b576100b4565b80630a09ef38146100b957806314feba52146100d55780631e6c598e146100f15780632db25e051461012b5780633a1b3d311461015b578063813ad08314610177575b600080fd5b6100d360048036038101906100ce919061172f565b610267565b005b6100ef60048036038101906100ea91906117ba565b61044a565b005b61010b6004803603810190610106919061172f565b6106d8565b6040516101229b9a999897969594939291906118aa565b60405180910390f35b6101456004803603810190610140919061172f565b6107f9565b6040516101529190611a72565b60405180910390f35b61017560048036038101906101709190611ab3565b610a63565b005b61017f610bea565b60405161018c9190611af3565b60405180910390f35b61019d610bf0565b6040516101aa9190611b0e565b60405180910390f35b6101cd60048036038101906101c8919061172f565b610c16565b005b6101e960048036038101906101e49190611b29565b610fe5565b6040516101f69190611b56565b60405180910390f35b610219600480360381019061021491906117ba565b611005565b005b61023560048036038101906102309190611b71565b61119c565b6040516102429190611af3565b60405180910390f35b61026560048036038101906102609190611c04565b6114dd565b005b600080600083815260200190815260200160002090508060010160009054906101000a900473ffffffffffffffffffffffffffffffffffffffff1673ffffffffffffffffffffffffffffffffffffffff163373ffffffffffffffffffffffffffffffffffffffff161461030f576040517f08c379a000000000000000000000000000000000000000000000000000000000815260040161030690611ca1565b60405180910390fd5b6001600f81111561032357610322611818565b5b8160050160149054906101000a900460ff16600f81111561034757610346611818565b5b148061038857506000600f81111561036257610361611818565b5b8160050160149054906101000a900460ff16600f81111561038657610385611818565b5b145b6103c7576040517f08c379a00000000000000000000000000000000000000000000000000000000081526004016103be90611d0d565b60405180910390fd5b60008160050160149054906101000a900460ff16905060028260050160146101000a81548160ff0219169083600f81111561040557610404611818565b5b0217905550827ffcb82c5664d9b8ca92b30878bddea2bb0fc8804c7ac6dc8f781a1cd8b94e8eff82600260405161043d929190611d2d565b60405180910390a2505050565b600080600084815260200190815260200160002090508060010160009054906101000a900473ffffffffffffffffffffffffffffffffffffffff1673ffffffffffffffffffffffffffffffffffffffff163373ffffffffffffffffffffffffffffffffffffffff16146104f2576040517f08c379a00000000000000000000000000000000000000000000000000000000081526004016104e990611ca1565b60405180910390fd5b6005600f81111561050657610505611818565b5b8160050160149054906101000a900460ff16600f81111561052a57610529611818565b5b1461056a576040517f08c379a000000000000000000000000000000000000000000000000000000000815260040161056190611da2565b60405180910390fd5b600073ffffffffffffffffffffffffffffffffffffffff168273ffffffffffffffffffffffffffffffffffffffff16036105d9576040517f08c379a00000000000000000000000000000000000000000000000000000000081526004016105d090611e0e565b60405180910390fd5b818160050160006101000a81548173ffffffffffffffffffffffffffffffffffffffff021916908373ffffffffffffffffffffffffffffffffffffffff160217905550827f2c66f56eae5b05d816c95cd687f6688b9df61f75e38f75cb9cc3a190358c5b648360405161064c9190611b0e565b60405180910390a260008160050160149054906101000a900460ff16905060068260050160146101000a81548160ff0219169083600f81111561069257610691611818565b5b0217905550837ffcb82c5664d9b8ca92b30878bddea2bb0fc8804c7ac6dc8f781a1cd8b94e8eff8260066040516106ca929190611d2d565b60405180910390a250505050565b60006020528060005260406000206000915090508060000154908060010160009054906101000a900473ffffffffffffffffffffffffffffffffffffffff16908060020160009054906101000a900473ffffffffffffffffffffffffffffffffffffffff16908060030160009054906101000a900473ffffffffffffffffffffffffffffffffffffffff16908060040160009054906101000a900473ffffffffffffffffffffffffffffffffffffffff16908060050160009054906101000a900473ffffffffffffffffffffffffffffffffffffffff16908060050160149054906101000a900460ff16908060060154908060070154908060080160009054906101000a900460ff16908060080160019054906101000a900460ff1690508b565b610801611616565b60008083815260200190815260200160002060405180610160016040529081600082015481526020016001820160009054906101000a900473ffffffffffffffffffffffffffffffffffffffff1673ffffffffffffffffffffffffffffffffffffffff1673ffffffffffffffffffffffffffffffffffffffff1681526020016002820160009054906101000a900473ffffffffffffffffffffffffffffffffffffffff1673ffffffffffffffffffffffffffffffffffffffff1673ffffffffffffffffffffffffffffffffffffffff1681526020016003820160009054906101000a900473ffffffffffffffffffffffffffffffffffffffff1673ffffffffffffffffffffffffffffffffffffffff1673ffffffffffffffffffffffffffffffffffffffff1681526020016004820160009054906101000a900473ffffffffffffffffffffffffffffffffffffffff1673ffffffffffffffffffffffffffffffffffffffff1673ffffffffffffffffffffffffffffffffffffffff1681526020016005820160009054906101000a900473ffffffffffffffffffffffffffffffffffffffff1673ffffffffffffffffffffffffffffffffffffffff1673ffffffffffffffffffffffffffffffffffffffff1681526020016005820160149054906101000a900460ff16600f8111156109fc576109fb611818565b5b600f811115610a0e57610a0d611818565b5b815260200160068201548152602001600782015481526020016008820160009054906101000a900460ff161515151581526020016008820160019054906101000a900460ff1615151515815250509050919050565b600160003373ffffffffffffffffffffffffffffffffffffffff1673ffffffffffffffffffffffffffffffffffffffff16815260200190815260200160002060009054906101000a900460ff1680610b085750600260009054906101000a900473ffffffffffffffffffffffffffffffffffffffff1673ffffffffffffffffffffffffffffffffffffffff163373ffffffffffffffffffffffffffffffffffffffff16145b610b47576040517f08c379a0000000000000000000000000000000000000000000000000000000008152600401610b3e90611e7a565b60405180910390fd5b600080600084815260200190815260200160002060050160149054906101000a900460ff1690508160008085815260200190815260200160002060050160146101000a81548160ff0219169083600f811115610ba657610ba5611818565b5b0217905550827ffcb82c5664d9b8ca92b30878bddea2bb0fc8804c7ac6dc8f781a1cd8b94e8eff8284604051610bdd929190611d2d565b60405180910390a2505050565b60035481565b600260009054906101000a900473ffffffffffffffffffffffffffffffffffffffff1681565b600080600083815260200190815260200160002090506000600f811115610c4057610c3f611818565b5b8160050160149054906101000a900460ff16600f811115610c6457610c63611818565b5b14610ca4576040517f08c379a0000000000000000000000000000000000000000000000000000000008152600401610c9b90611f0c565b60405180910390fd5b8060010160009054906101000a900473ffffffffffffffffffffffffffffffffffffffff1673ffffffffffffffffffffffffffffffffffffffff163373ffffffffffffffffffffffffffffffffffffffff161480610d5157508060020160009054906101000a900473ffffffffffffffffffffffffffffffffffffffff1673ffffffffffffffffffffffffffffffffffffffff163373ffffffffffffffffffffffffffffffffffffffff16145b610d90576040517f08c379a0000000000000000000000000000000000000000000000000000000008152600401610d8790611f78565b60405180910390fd5b8060010160009054906101000a900473ffffffffffffffffffffffffffffffffffffffff1673ffffffffffffffffffffffffffffffffffffffff163373ffffffffffffffffffffffffffffffffffffffff1603610e5b578060080160009054906101000a900460ff1615610e39576040517f08c379a0000000000000000000000000000000000000000000000000000000008152600401610e3090611fe4565b60405180910390fd5b60018160080160006101000a81548160ff021916908315150217905550610ecb565b8060080160019054906101000a900460ff1615610ead576040517f08c379a0000000000000000000000000000000000000000000000000000000008152600401610ea490612050565b60405180910390fd5b60018160080160016101000a81548160ff0219169083151502179055505b817f4886270d3c681c8373359d1cfafb1a549453e43e452ce59a9eae87f8a23e50be33604051610efb9190611b0e565b60405180910390a28060080160009054906101000a900460ff168015610f2f57508060080160019054906101000a900460ff165b15610fe15760008160050160149054906101000a900460ff16905060018260050160146101000a81548160ff0219169083600f811115610f7257610f71611818565b5b0217905550827fc40a4f74d715da2ee96119fbf8d8da1df0f5b79e92c3fd855f1ddc102d51d04760405160405180910390a2827ffcb82c5664d9b8ca92b30878bddea2bb0fc8804c7ac6dc8f781a1cd8b94e8eff826001604051610fd7929190611d2d565b60405180910390a2505b5050565b60016020528060005260406000206000915054906101000a900460ff1681565b600080600084815260200190815260200160002090508060020160009054906101000a900473ffffffffffffffffffffffffffffffffffffffff1673ffffffffffffffffffffffffffffffffffffffff163373ffffffffffffffffffffffffffffffffffffffff16146110ad576040517f08c379a00000000000000000000000000000000000000000000000000000000081526004016110a4906120bc565b60405180910390fd5b600073ffffffffffffffffffffffffffffffffffffffff168273ffffffffffffffffffffffffffffffffffffffff160361111c576040517f08c379a000000000000000000000000000000000000000000000000000000000815260040161111390611e0e565b60405180910390fd5b818160040160006101000a81548173ffffffffffffffffffffffffffffffffffffffff021916908373ffffffffffffffffffffffffffffffffffffffff160217905550827ff6b6464c10c5a10fce3b6565f729a9efba6c35ed895010e0a1d31d18713dec708360405161118f9190611b0e565b60405180910390a2505050565b600080600360008154809291906111b29061210b565b9190505590506040518061016001604052808281526020013373ffffffffffffffffffffffffffffffffffffffff1681526020018773ffffffffffffffffffffffffffffffffffffffff1681526020018673ffffffffffffffffffffffffffffffffffffffff1681526020018573ffffffffffffffffffffffffffffffffffffffff168152602001600073ffffffffffffffffffffffffffffffffffffffff1681526020016000600f81111561126b5761126a611818565b5b8152602001428152602001848152602001600015158152602001600015158152506000808381526020019081526020016000206000820151816000015560208201518160010160006101000a81548173ffffffffffffffffffffffffffffffffffffffff021916908373ffffffffffffffffffffffffffffffffffffffff16021790555060408201518160020160006101000a81548173ffffffffffffffffffffffffffffffffffffffff021916908373ffffffffffffffffffffffffffffffffffffffff16021790555060608201518160030160006101000a81548173ffffffffffffffffffffffffffffffffffffffff021916908373ffffffffffffffffffffffffffffffffffffffff16021790555060808201518160040160006101000a81548173ffffffffffffffffffffffffffffffffffffffff021916908373ffffffffffffffffffffffffffffffffffffffff16021790555060a08201518160050160006101000a81548173ffffffffffffffffffffffffffffffffffffffff021916908373ffffffffffffffffffffffffffffffffffffffff16021790555060c08201518160050160146101000a81548160ff0219169083600f81111561143657611435611818565b5b021790555060e0820151816006015561010082015181600701556101208201518160080160006101000a81548160ff0219169083151502179055506101408201518160080160016101000a81548160ff021916908315150217905550905050807f7db1856a9087992b8c7c25a7f1622a9b144ff325953aee6bbb6d38d762c189f63388866040516114c993929190612153565b60405180910390a280915050949350505050565b600260009054906101000a900473ffffffffffffffffffffffffffffffffffffffff1673ffffffffffffffffffffffffffffffffffffffff163373ffffffffffffffffffffffffffffffffffffffff161461156d576040517f08c379a0000000000000000000000000000000000000000000000000000000008152600401611564906121d6565b60405180910390fd5b80600160008473ffffffffffffffffffffffffffffffffffffffff1673ffffffffffffffffffffffffffffffffffffffff16815260200190815260200160002060006101000a81548160ff0219169083151502179055508173ffffffffffffffffffffffffffffffffffffffff167f3213ab8ec2ed122402f038736b41878b69ae9f61f49a7edd0666bce891d29fc98260405161160a9190611b56565b60405180910390a25050565b60405180610160016040528060008152602001600073ffffffffffffffffffffffffffffffffffffffff168152602001600073ffffffffffffffffffffffffffffffffffffffff168152602001600073ffffffffffffffffffffffffffffffffffffffff168152602001600073ffffffffffffffffffffffffffffffffffffffff168152602001600073ffffffffffffffffffffffffffffffffffffffff1681526020016000600f8111156116ce576116cd611818565b5b815260200160008152602001600081526020016000151581526020016000151581525090565b600080fd5b6000819050919050565b61170c816116f9565b811461171757600080fd5b50565b60008135905061172981611703565b92915050565b600060208284031215611745576117446116f4565b5b60006117538482850161171a565b91505092915050565b600073ffffffffffffffffffffffffffffffffffffffff82169050919050565b60006117878261175c565b9050919050565b6117978161177c565b81146117a257600080fd5b50565b6000813590506117b48161178e565b92915050565b600080604083850312156117d1576117d06116f4565b5b60006117df8582860161171a565b92505060206117f0858286016117a5565b9150509250929050565b611803816116f9565b82525050565b6118128161177c565b82525050565b7f4e487b7100000000000000000000000000000000000000000000000000000000600052602160045260246000fd5b6010811061185857611857611818565b5b50565b600081905061186982611847565b919050565b60006118798261185b565b9050919050565b6118898161186e565b82525050565b60008115159050919050565b6118a48161188f565b82525050565b6000610160820190506118c0600083018e6117fa565b6118cd602083018d611809565b6118da604083018c611809565b6118e7606083018b611809565b6118f4608083018a611809565b61190160a0830189611809565b61190e60c0830188611880565b61191b60e08301876117fa565b6119296101008301866117fa565b61193761012083018561189b565b61194561014083018461189b565b9c9b505050505050505050505050565b61195e816116f9565b82525050565b61196d8161177c565b82525050565b61197c8161186e565b82525050565b61198b8161188f565b82525050565b610160820160008201516119a86000850182611955565b5060208201516119bb6020850182611964565b5060408201516119ce6040850182611964565b5060608201516119e16060850182611964565b5060808201516119f46080850182611964565b5060a0820151611a0760a0850182611964565b5060c0820151611a1a60c0850182611973565b5060e0820151611a2d60e0850182611955565b50610100820151611a42610100850182611955565b50610120820151611a57610120850182611982565b50610140820151611a6c610140850182611982565b50505050565b600061016082019050611a886000830184611991565b92915050565b60108110611a9b57600080fd5b50565b600081359050611aad81611a8e565b92915050565b60008060408385031215611aca57611ac96116f4565b5b6000611ad88582860161171a565b9250506020611ae985828601611a9e565b9150509250929050565b6000602082019050611b0860008301846117fa565b92915050565b6000602082019050611b236000830184611809565b92915050565b600060208284031215611b3f57611b3e6116f4565b5b6000611b4d848285016117a5565b91505092915050565b6000602082019050611b6b600083018461189b565b92915050565b60008060008060808587031215611b8b57611b8a6116f4565b5b6000611b99878288016117a5565b9450506020611baa878288016117a5565b9350506040611bbb878288016117a5565b9250506060611bcc8782880161171a565b91505092959194509250565b611be18161188f565b8114611bec57600080fd5b50565b600081359050611bfe81611bd8565b92915050565b60008060408385031215611c1b57611c1a6116f4565b5b6000611c29858286016117a5565b9250506020611c3a85828601611bef565b9150509250929050565b600082825260208201905092915050565b7f4f6e6c7920696d706f7274657200000000000000000000000000000000000000600082015250565b6000611c8b600d83611c44565b9150611c9682611c55565b602082019050919050565b60006020820190508181036000830152611cba81611c7e565b9050919050565b7f496e76616c696420737461747573000000000000000000000000000000000000600082015250565b6000611cf7600e83611c44565b9150611d0282611cc1565b602082019050919050565b60006020820190508181036000830152611d2681611cea565b9050919050565b6000604082019050611d426000830185611880565b611d4f6020830184611880565b9392505050565b7f46756e6473206e6f74206c6f636b656420796574000000000000000000000000600082015250565b6000611d8c601483611c44565b9150611d9782611d56565b602082019050919050565b60006020820190508181036000830152611dbb81611d7f565b9050919050565b7f496e76616c696420616464726573730000000000000000000000000000000000600082015250565b6000611df8600f83611c44565b9150611e0382611dc2565b602082019050919050565b60006020820190508181036000830152611e2781611deb565b9050919050565b7f4e6f7420617574686f72697a6564000000000000000000000000000000000000600082015250565b6000611e64600e83611c44565b9150611e6f82611e2e565b602082019050919050565b60006020820190508181036000830152611e9381611e57565b9050919050565b7f5472616465206e6f7420696e204f464645525f4143434550544544207374617460008201527f7573000000000000000000000000000000000000000000000000000000000000602082015250565b6000611ef6602283611c44565b9150611f0182611e9a565b604082019050919050565b60006020820190508181036000830152611f2581611ee9565b9050919050565b7f4f6e6c7920696d706f72746572206f72206578706f7274657200000000000000600082015250565b6000611f62601983611c44565b9150611f6d82611f2c565b602082019050919050565b60006020820190508181036000830152611f9181611f55565b9050919050565b7f496d706f7274657220616c726561647920636f6e6669726d6564000000000000600082015250565b6000611fce601a83611c44565b9150611fd982611f98565b602082019050919050565b60006020820190508181036000830152611ffd81611fc1565b9050919050565b7f4578706f7274657220616c726561647920636f6e6669726d6564000000000000600082015250565b600061203a601a83611c44565b915061204582612004565b602082019050919050565b600060208201905081810360008301526120698161202d565b9050919050565b7f4f6e6c79206578706f7274657200000000000000000000000000000000000000600082015250565b60006120a6600d83611c44565b91506120b182612070565b602082019050919050565b600060208201905081810360008301526120d581612099565b9050919050565b7f4e487b7100000000000000000000000000000000000000000000000000000000600052601160045260246000fd5b6000612116826116f9565b91507fffffffffffffffffffffffffffffffffffffffffffffffffffffffffffffffff8203612148576121476120dc565b5b600182019050919050565b60006060820190506121686000830186611809565b6121756020830185611809565b61218260408301846117fa565b949350505050565b7f4f6e6c79206f776e657200000000000000000000000000000000000000000000600082015250565b60006121c0600a83611c44565b91506121cb8261218a565b602082019050919050565b600060208201905081810360008301526121ef816121b3565b905091905056fea2646970667358221220b544417dd75df364496039682057c11183746806cded71368dc9cfc10c03fd3d64736f6c63430008180033",
  "linkReferences": {},
  "deployedLinkReferences": {}
}