{
  "_format": "hh-sol-artifact-1",
  "contractName": "TradeRegistry",
  "sourceName": "contracts/TradeRegistry.sol",
  "abi": [
    {
      "inputs": [],
      "stateMutability": "nonpayable",
      "type": "constructor"
    },
    {
      "anonymous": false,
      "inputs": [
        {
          "indexed": true,
          "internalType": "uint256",
          "name": "tradeId",
          "type": "uint256"
        },
        {
          "indexed": true,
          "internalType": "address",
          "name": "advisingBank",
          "type": "address"
        }
      ],
      "name": "AdvisingBankAssigned",
      "type": "event"
    },
    {
      "anonymous": false,
      "inputs": [
        {
          "indexed": true,
          "internalType": "address",
          "name": "contractAddress",
          "type": "address"
        },
        {
          "indexed": true,
          "internalType": "bool",
          "name": "authorized",
          "type": "bool"
        }
      ],
      "name": "ContractAuthorized",
      "type": "event"
    },
    {
      "anonymous": false,
      "inputs": [
        {
          "indexed": true,
          "internalType": "uint256",
          "name": "tradeId",
          "type": "uint256"
        },
        {
          "indexed": true,
          "internalType": "address",
          "name": "shippingCompany",
          "type": "address"
        }
      ],
      "name": "ShippingCompanyAssigned",
      "type": "event"
    },
    {
      "anonymous": false,
      "inputs": [
        {
          "indexed": true,
          "internalType": "uint256",
          "name": "tradeId",
          "type": "uint256"
        },
        {
          "indexed": true,
          "internalType": "address",
          "name": "confirmedBy",
          "type": "address"
        }
      ],
      "name": "TradeConfirmed",
      "type": "event"
    },
    {
      "anonymous": false,
      "inputs": [
        {
          "indexed": true,
          "internalType": "uint256",
          "name": "tradeId",
          "type": "uint256"
        },
        {
          "indexed": true,
          "internalType": "address",
          "name": "importer",
          "type": "address"
        },
        {
          "indexed": true,
          "internalType": "address",
          "name": "exporter",
          "type": "address"
        },
        {
          "indexed": false,
          "internalType": "uint256",
          "name": "amount",
          "type": "uint256"
        }
      ],
      "name": "TradeCreated",
      "type": "event"
    },
    {
      "anonymous": false,
      "inputs": [
        {
          "indexed": true,
          "internalType": "uint256",
          "name": "tradeId",
          "type": "uint256"
        }
      ],
      "name": "TradeInitiated",
      "type": "event"
    },
    {
      "anonymous": false,
      "inputs": [
        {
          "indexed": true,
          "internalType": "uint256",
          "name": "tradeId",
          "type": "uint256"
        },
        {
          "indexed": false,
          "internalType": "enum TradeRegistry.TradeStatus",
          "name": "oldStatus",
          "type": "uint8"
        },
        {
          "indexed": false,
          "internalType": "enum TradeRegistry.TradeStatus",
          "name": "newStatus",
          "type": "uint8"
        }
      ],
      "name": "TradeStatusUpdated",
      "type": "event"
    },
    {
      "anonymous": false,
      "inputs": [
        {
          "indexed": true,
          "internalType": "uint256",
          "name": "tradeId",
          "type": "uint256"
        },
        {
          "indexed": true,
          "internalType": "uint256",
          "name": "deadline",
          "type": "uint256"
        }
      ],
      "name": "VotingDeadlineSet",
      "type": "event"
    },
    {
      "inputs": [
        {
          "internalType": "uint256",
          "name": "_tradeId",
          "type": "uint256"
        },
        {
          "internalType": "address",
          "name": "_advisingBank",
          "type": "address"
        }
      ],
      "name": "assignAdvisingBank",
      "outputs": [],
      "stateMutability": "nonpayable",
      "type": "function"
    },
    {
      "inputs": [
        {
          "internalType": "uint256",
          "name": "_tradeId",
          "type": "uint256"
        },
        {
          "internalType": "address",
          "name": "_shippingCompany",
          "type": "address"
        }
      ],
      "name": "assignShippingCompany",
      "outputs": [],
      "stateMutability": "nonpayable",
      "type": "function"
    },
    {
      "inputs": [
        {
          "internalType": "address",
          "name": "",
          "type": "address"
        }
      ],
      "name": "authorizedContracts",
      "outputs": [
        {
          "internalType": "bool",
          "name": "",
          "type": "bool"
        }
      ],
      "stateMutability": "view",
      "type": "function"
    },
    {
      "inputs": [
        {
          "internalType": "uint256",
          "name": "_tradeId",
          "type": "uint256"
        }
      ],
      "name": "confirmGoodsReceived",
      "outputs": [],
      "stateMutability": "nonpayable",
      "type": "function"
    },
    {
      "inputs": [
        {
          "internalType": "uint256",
          "name": "_tradeId",
          "type": "uint256"
        }
      ],
      "name": "confirmTrade",
      "outputs": [],
      "stateMutability": "nonpayable",
      "type": "function"
    },
    {
      "inputs": [
        {
          "internalType": "address",
          "name": "_exporter",
          "type": "address"
        },
        {
          "internalType": "address",
          "name": "_issuingBank",
          "type": "address"
        },
        {
          "internalType": "address",
          "name": "_advisingBank",
          "type": "address"
        },
        {
          "internalType": "address",
          "name": "_inspector",
          "type": "address"
        },
        {
          "internalType": "address",
          "name": "_customsAuthority",
          "type": "address"
        },
        {
          "internalType": "address",
          "name": "_insuranceNode",
          "type": "address"
        },
        {
          "internalType": "uint256",
          "name": "_amount",
          "type": "uint256"
        },
        {
          "internalType": "uint256",
          "name": "_shippingDeadline",
          "type": "uint256"
        },
        {
          "internalType": "uint256",
          "name": "_clearanceDeadline",
          "type": "uint256"
        }
      ],
      "name": "createTrade",
      "outputs": [
        {
          "internalType": "uint256",
          "name": "",
          "type": "uint256"
        }
      ],
      "stateMutability": "nonpayable",
      "type": "function"
    },
    {
      "inputs": [
        {
          "internalType": "uint256",
          "name": "_tradeId",
          "type": "uint256"
        }
      ],
      "name": "getTrade",
      "outputs": [
        {
          "components": [
            {
              "internalType": "uint256",
              "name": "tradeId",
              "type": "uint256"
            },
            {
              "internalType": "uint256",
              "name": "amount",
              "type": "uint256"
            },
            {
              "internalType": "uint256",
              "name": "createdAt",
              "type": "uint256"
            },
            {
              "internalType": "uint256",
              "name": "shippingDeadline",
              "type": "uint256"
            },
            {
              "internalType": "uint256",
              "name": "clearanceDeadline",
              "type": "uint256"
            },
            {
              "internalType": "uint256",
              "name": "votingDeadline",
              "type": "uint256"
            },
            {
              "internalType": "address",
              "name": "importer",
              "type": "address"
            },
            {
              "internalType": "address",
              "name": "exporter",
              "type": "address"
            },
            {
              "internalType": "address",
              "name": "issuingBank",
              "type": "address"
            },
            {
              "internalType": "address",
              "name": "advisingBank",
              "type": "address"
            },
            {
              "internalType": "address",
              "name": "shippingCompany",
              "type": "address"
            },
            {
              "internalType": "address",
              "name": "inspector",
              "type": "address"
            },
            {
              "internalType": "address",
              "name": "customsAuthority",
              "type": "address"
            },
            {
              "internalType": "address",
              "name": "insuranceNode",
              "type": "address"
            },
            {
              "internalType": "enum TradeRegistry.TradeStatus",
              "name": "status",
              "type": "uint8"
            },
            {
              "internalType": "bool",
              "name": "importerConfirmed",
              "type": "bool"
            },
            {
              "internalType": "bool",
              "name": "exporterConfirmed",
              "type": "bool"
            }
          ],
          "internalType": "struct TradeRegistry.Trade",
          "name": "",
          "type": "tuple"
        }
      ],
      "stateMutability": "view",
      "type": "function"
    },
    {
      "inputs": [],
      "name": "nextTradeId",
      "outputs": [
        {
          "internalType": "uint256",
          "name": "",
          "type": "uint256"
        }
      ],
      "stateMutability": "view",
      "type": "function"
    },
    {
      "inputs": [],
      "name": "owner",
      "outputs": [
        {
          "internalType": "address",
          "name": "",
          "type": "address"
        }
      ],
      "stateMutability": "view",
      "type": "function"
    },
    {
      "inputs": [
        {
          "internalType": "uint256",
          "name": "_tradeId",
          "type": "uint256"
        }
      ],
      "name": "raiseDispute",
      "outputs": [],
      "stateMutability": "nonpayable",
      "type": "function"
    },
    {
      "inputs": [
        {
          "internalType": "uint256",
          "name": "_tradeId",
          "type": "uint256"
        }
      ],
      "name": "requestLetterOfCredit",
      "outputs": [],
      "stateMutability": "nonpayable",
      "type": "function"
    },
    {
      "inputs": [
        {
          "internalType": "address",
          "name": "_contract",
          "type": "address"
        },
        {
          "internalType": "bool",
          "name": "_authorized",
          "type": "bool"
        }
      ],
      "name": "setAuthorizedContract",
      "outputs": [],
      "stateMutability": "nonpayable",
      "type": "function"
    },
    {
      "inputs": [
        {
          "internalType": "uint256",
          "name": "_tradeId",
          "type": "uint256"
        },
        {
          "internalType": "uint256",
          "name": "_deadline",
          "type": "uint256"
        }
      ],
      "name": "setVotingDeadline",
      "outputs": [],
      "stateMutability": "nonpayable",
      "type": "function"
    },
    {
      "inputs": [
        {
          "internalType": "uint256",
          "name": "",
          "type": "uint256"
        }
      ],
      "name": "trades",
      "outputs": [
        {
          "internalType": "uint256",
          "name": "tradeId",
          "type": "uint256"
        },
        {
          "internalType": "uint256",
          "name": "amount",
          "type": "uint256"
        },
        {
          "internalType": "uint256",
          "name": "createdAt",
          "type": "uint256"
        },
        {
          "internalType": "uint256",
          "name": "shippingDeadline",
          "type": "uint256"
        },
        {
          "internalType": "uint256",
          "name": "clearanceDeadline",
          "type": "uint256"
        },
        {
          "internalType": "uint256",
          "name": "votingDeadline",
          "type": "uint256"
        },
        {
          "internalType": "address",
          "name": "importer",
          "type": "address"
        },
        {
          "internalType": "address",
          "name": "exporter",
          "type": "address"
        },
        {
          "internalType": "address",
          "name": "issuingBank",
          "type": "address"
        },
        {
          "internalType": "address",
          "name": "advisingBank",
          "type": "address"
        },
        {
          "internalType": "address",
          "name": "shippingCompany",
          "type": "address"
        },
        {
          "internalType": "address",
          "name": "inspector",
          "type": "address"
        },
        {
          "internalType": "address",
          "name": "customsAuthority",
          "type": "address"
        },
        {
          "internalType": "address",
          "name": "insuranceNode",
          "type": "address"
        },
        {
          "internalType": "enum TradeRegistry.TradeStatus",
          "name": "status",
          "type": "uint8"
        },
        {
          "internalType": "bool",
          "name": "importerConfirmed",
          "type": "bool"
        },
        {
          "internalType": "bool",
          "name": "exporterConfirmed",
          "type": "bool"
        }
      ],
      "stateMutability": "view",
      "type": "function"
    },
    {
      "inputs": [
        {
          "internalType": "uint256",
          "name": "_tradeId",
          "type": "uint256"
        }
      ],
      "name": "triggerClearanceSLABreachRevert",
      "outputs": [],
      "stateMutability": "nonpayable",
      "type": "function"
    },
    {
      "inputs": [
        {
          "internalType": "uint256",
          "name": "_tradeId",
          "type": "uint256"
        }
      ],
      "name": "triggerSLABreachRevert",
      "outputs": [],
      "stateMutability": "nonpayable",
      "type": "function"
    },
    {
      "inputs": [
        {
          "internalType": "uint256",
          "name": "_tradeId",
          "type": "uint256"
        },
        {
          "internalType": "enum TradeRegistry.TradeStatus",
          "name": "_newStatus",
          "type": "uint8"
        }
      ],
      "name": "updateStatus",
      "outputs": [],
      "stateMutability": "nonpayable",
      "type": "function"
    }
  ],
  "bytecode": "0x6080806040523461002857600280546001600160a01b03191633179055611646908161002e8239f35b600080fdfe6080604052600436101561001257600080fd5b60003560e01c80630a09ef38146113ce57806314feba52146112b05780631e6c598e146111955780632db25e0514610f08578063388c106214610e3c57806338ccdb8914610b425780633a1b3d3114610a9c578063813ad08314610a7e5780638da5cb5b14610a555780639ec0507f146107de578063a5c1674e14610608578063d16cc3a91461049a578063d19cd4ca14610311578063d5b9221b146102d2578063d5ddd89014610215578063eaf4c3bb1461018d5763f2fa7392146100d757600080fd5b34610188576040366003190112610188576100f06114bb565b60243590811515809203610188576002546001600160a01b039190821633036101565716806000526001602052604060002060ff1981541660ff84161790557f3213ab8ec2ed122402f038736b41878b69ae9f61f49a7edd0666bce891d29fc9600080a3005b60405162461bcd60e51b815260206004820152600a60248201526927b7363c9037bbb732b960b11b6044820152606490fd5b600080fd5b34610188576040366003190112610188576004356024359033600052600160205260ff604060002054168015610201575b6101c7906115b3565b806000526000602052816005604060002001557f679e547a135eb81b5aeb690cff99f977414bf222f65b8f36e301aa1ec3d89f4e600080a3005b506002546001600160a01b031633146101be565b34610188576040366003190112610188576004356102316114a5565b9080600052600060205260406000209160018060a01b0380600785015416330361029d57600991169261026584151561153e565b0180546001600160a01b031916831790557ff6b6464c10c5a10fce3b6565f729a9efba6c35ed895010e0a1d31d18713dec70600080a3005b60405162461bcd60e51b815260206004820152600d60248201526c27b7363c9032bc3837b93a32b960991b6044820152606490fd5b34610188576020366003190112610188576001600160a01b036102f36114bb565b166000526001602052602060ff604060002054166040519015158152f35b3461018857602080600319360112610188576004356000818152808352604090206008810154919290916001600160a01b0316330361046257600d8201805460ff8160a01c1693601585101561044c57600585148015610442575b156103fd57600301544211156103b85760ff60a01b1916600960a11b179055604080516000805160206115f18339815191529391929091601291906103b29084906114d1565b820152a2005b60405162461bcd60e51b815260048101849052601960248201527f446561646c696e65206e6f7420796574206272656163686564000000000000006044820152606490fd5b60405162461bcd60e51b815260048101859052601d60248201527f496e76616c69642073746174757320666f7220534c41207265766572740000006044820152606490fd5b506006851461036c565b634e487b7160e01b600052602160045260246000fd5b6064906040519062461bcd60e51b8252600482015260116024820152704f6e6c792069737375696e672062616e6b60781b6044820152fd5b346101885760203660031901126101885760043580600052600060205260406000206104dd60018060a01b038060088401541633149081156105f8575b506115b3565b600d81019081549060ff8260a01c1690601582101561044c576007821480156105ee575b1561059d576004015442111561054c5760ff60a01b19909116600960a11b17909155604080516000805160206115f1833981519152926105429082906114d1565b60126020820152a2005b60405162461bcd60e51b815260206004820152602360248201527f436c656172616e636520646561646c696e65206e6f74207965742062726561636044820152621a195960ea1b6064820152608490fd5b60405162461bcd60e51b815260206004820152602360248201527f496e76616c69642073746174757320666f7220636c656172616e636520726576604482015262195c9d60ea1b6064820152608490fd5b5060098214610501565b90506006830154163314846104d7565b346101885760208060031936011261018857600435908160005260008152604060002060018060a01b038060068301541633149182156107cd575b82156107bc575b82156107ab575b821561079a575b8215610789575b8215610778575b8215610767575b50501561072f578160005260008152600d6040600020019081549160ff8360a01c1692601584101561044c57600f84141580610724575b156106df5760ff60a01b1916600160a41b179055604080516000805160206115f18339815191529391929091601091906103b29084906114d1565b60405162461bcd60e51b815260048101849052601d60248201527f43616e6e6f7420646973707574652066696e69736865642074726164650000006044820152606490fd5b5060128414156106a4565b6064906040519062461bcd60e51b825260048201526011602482015270139bdd0818481c185c9d1a58da5c185b9d607a1b6044820152fd5b600d9192500154163314838061066d565b915080600c83015416331491610666565b915080600b8301541633149161065f565b915080600a83015416331491610658565b915080600983015416331491610651565b91508060088301541633149161064a565b915080600783015416331491610643565b3461018857602080600319360112610188576004359081600052600081526040600020600d810190815460ff91828260a01c16601581101561044c57610a05576006810154336001600160a01b03918216149182919082156109f4575b5050156109af571561094c57508154818160a81c166109075760ff60a81b1916600160a81b1782555b33847f4886270d3c681c8373359d1cfafb1a549453e43e452ce59a9eae87f8a23e50be600080a38154818160a81c16806108fb575b61089f57005b6000805160206115f1833981519152936103b26001926040958460a01b60ff60a01b1983161790558551948591897fc40a4f74d715da2ee96119fbf8d8da1df0f5b79e92c3fd855f1ddc102d51d047600080a260a01c166114d1565b50818160b01c16610899565b60405162461bcd60e51b815260048101859052601a60248201527f496d706f7274657220616c726561647920636f6e6669726d65640000000000006044820152606490fd5b818160b01c1661096a5760ff60b01b1916600160b01b178255610864565b60405162461bcd60e51b815260048101859052601a60248201527f4578706f7274657220616c726561647920636f6e6669726d65640000000000006044820152606490fd5b60405162461bcd60e51b815260048101869052601960248201527f4f6e6c7920696d706f72746572206f72206578706f72746572000000000000006044820152606490fd5b60079192500154163314878061083b565b60405162461bcd60e51b815260048101869052602260248201527f5472616465206e6f7420696e204f464645525f41434345505445442073746174604482015261757360f01b6064820152608490fd5b34610188576000366003190112610188576002546040516001600160a01b039091168152602090f35b34610188576000366003190112610188576020600354604051908152f35b346101885760403660031901126101885760043560243560158110156101885760406000805160206115f18339815191529133600052600160205260ff8260002054168015610b2e575b610aef906115b3565b836000526000602052610b2b600d836000200191610b158160ff855460a01c169461151a565b610b21845180946114d1565b60208301906114d1565ba2005b506002546001600160a01b03163314610ae6565b346101885761012036600319011261018857610b5c6114bb565b610b646114a5565b90604435906001600160a01b0382168203610188576064356001600160a01b0381168103610188576084356001600160a01b03811681036101885760a435916001600160a01b038316830361018857600354946000198614610e265760018601600355610bcf61157c565b9686885260c435602089015242604089015260e4356060890152610104356080890152600060a08901523360c089015260018060a01b03861660e089015260018060a01b031661010088015260018060a01b0316610120870152600061014087015260018060a01b031661016086015260018060a01b031661018085015260018060a01b03166101a084015260006101c084015260006101e084015260006102008401528160005260006020526040600020835181556020840151600182015560408401516002820155606084015160038201556080840151600482015560a08401516005820155600d600682019160018060a01b0360c087015116926bffffffffffffffffffffffff60a01b93848254161790556007810160018060a01b0360e088015116848254161790556008810160018060a01b0361010088015116848254161790556009810160018060a01b036101208801511684825416179055600a810160018060a01b036101408801511684825416179055600b810160018060a01b036101608801511684825416179055600c810160018060a01b036101808801511684825416179055019060018060a01b036101a086015116908254161781556101c084015193601585101561044c57610dac6020958361151a565b6101e081015182546102009092015161ffff60a81b1990921690151560a81b60ff60a81b161790151560b01b60ff60b01b1617905560405160c43581526001600160a01b0390911690339083907f7db1856a9087992b8c7c25a7f1622a9b144ff325953aee6bbb6d38d762c189f6908690a4604051908152f35b634e487b7160e01b600052601160045260246000fd5b3461018857602036600319011261018857600435806000526000602052600d6040600020610e7760018060a01b0360068301541633146114de565b01805460ff8160a01c16601581101561044c5760088103610ecd5760ff60a01b19909116600360a21b17909155604080516000805160206115f183398151915292610ec39082906114d1565b600c6020820152a2005b60405162461bcd60e51b815260206004820152601360248201527210dd5cdd1bdb5cc81b9bdd0818db19585c9959606a1b6044820152606490fd5b34610188576020366003190112610188576000610200610f2661157c565b8281528260208201528260408201528260608201528260808201528260a08201528260c08201528260e08201528261010082015282610120820152826101408201528261016082015282610180820152826101a0820152826101c0820152826101e0820152015260043560005260006020526040600020600d610fa761157c565b8254815260018301546020820152600283015460408201526003830154606082015260048301546080820152600583015460a08083019190915260068401546001600160a01b0390811660c08401526007850154811660e08401526008850154811661010084015260098501548116610120840152600a8501548116610140840152600b8501548116610160840152600c850154811661018084015292909301549182166101a0820152909160159083901c60ff16101561044c5760ff82816102209460a01c166101c0840152818160a81c1615156101e084015260b01c16151561020082015261020060405191805183526020810151602084015260408101516040840152606081015160608401526080810151608084015260a081015160a084015260018060a01b0360c08201511660c084015260018060a01b0360e08201511660e084015260018060a01b036101008201511661010084015260018060a01b036101208201511661012084015260018060a01b036101408201511661014084015260018060a01b036101608201511661016084015260018060a01b036101808201511661018084015260018060a01b036101a0820151166101a084015261117b6101c08201516101c08501906114d1565b6101e081015115156101e084015201511515610200820152f35b3461018857602036600319011261018857600480356000908152602081815260409182902080546001820154600283015460038401549684015460058501546006860154600787015460088801546009890154600a8a0154600b8b0154600c8c0154600d909c01548e519b8c529c8b01999099529b890196909652606088019b909b52608087019390935260a0808701929092526001600160a01b0390811660c087015291821660e086015297811661010085015290811661012084015294851661014083015284166101608201529083166101808201529181166101a0830152909161128d906101c084019083901c60ff166114d1565b8060a81c60ff1615156101e083015260b01c60ff16151561020082015261022090f35b34610188576040366003190112610188576004356112cc6114a5565b816000526000602052604060002060018060a01b03906112f38260068301541633146114de565b600d8101805460ff8160a01c1692601584101561044c576005840361139257600a6040956000805160206115f183398151915297169161133483151561153e565b0180546001600160a01b03191682179055867f2c66f56eae5b05d816c95cd687f6688b9df61f75e38f75cb9cc3a190358c5b64600080a360ff60a01b1916600360a11b1790558151906113889082906114d1565b60066020820152a2005b60405162461bcd60e51b8152602060048201526014602482015273119d5b991cc81b9bdd081b1bd8dad959081e595d60621b6044820152606490fd5b3461018857602036600319011261018857600435806000526000602052600d604060002061140960018060a01b0360068301541633146114de565b01805460ff8160a01c16601581101561044c5760018114801561149d575b156114675760ff60a01b19909116600160a11b17909155604080516000805160206115f18339815191529261145d9082906114d1565b60026020820152a2005b60405162461bcd60e51b815260206004820152600e60248201526d496e76616c69642073746174757360901b6044820152606490fd5b508015611427565b602435906001600160a01b038216820361018857565b600435906001600160a01b038216820361018857565b90601582101561044c5752565b156114e557565b60405162461bcd60e51b815260206004820152600d60248201526c27b7363c9034b6b837b93a32b960991b6044820152606490fd5b90601581101561044c57815460ff60a01b191660a09190911b60ff60a01b16179055565b1561154557565b60405162461bcd60e51b815260206004820152600f60248201526e496e76616c6964206164647265737360881b6044820152606490fd5b60405190610220820182811067ffffffffffffffff82111761159d57604052565b634e487b7160e01b600052604160045260246000fd5b156115ba57565b60405162461bcd60e51b815260206004820152600e60248201526d139bdd08185d5d1a1bdc9a5e995960921b6044820152606490fdfefcb82c5664d9b8ca92b30878bddea2bb0fc8804c7ac6dc8f781a1cd8b94e8effa2646970667358221220463a470f6843bec16543187beffeaa34181ca20becc68a022487a532f36b38da64736f6c63430008180033",
  "linkReferences": {},
  "deployedLinkReferences": {}
}