{
  "_format": "hh-sol-artifact-1",
  "contractName": "TradeRegistry",
  "sourceName": "contracts/TradeRegistry.sol",
  "abi": [
    {
      "inputs": [],
      "stateMutability": "nonpayable",
      "type": "constructor"
    },
    {
      "anonymous": false,
      "inputs": [
        {
          "indexed": true,
          "internalType": "address",
          "name": "contractAddress",
          "type": "address"
        },
        {
          "indexed": false,
          "internalType": "bool",
          "name": "authorized",
          "type": "bool"
        }
      ],
      "name": "ContractAuthorized",
      "type": "event"
    },
    {
      "anonymous": false,
      "inputs": [
        {
          "indexed": true,
          "internalType": "uint256",
          "name": "tradeId",
          "type": "uint256"
        },
        {
          "indexed": false,
          "internalType": "address",
          "name": "confirmedBy",
          "type": "address"
        }
      ],
      "name": "TradeConfirmed",
      "type": "event"
    },
    {
      "anonymous": false,
      "inputs": [
        {
          "indexed": true,
          "internalType": "uint256",
          "name": "tradeId",
          "type": "uint256"
        },
        {
          "indexed": false,
          "internalType": "address",
          "name": "importer",
          "type": "address"
        },
        {
          "indexed": false,
          "internalType": "address",
          "name": "exporter",
          "type": "address"
        },
        {
          "indexed": false,
          "internalType": "uint256",
          "name": "amount",
          "type": "uint256"
        }
      ],
      "name": "TradeCreated",
      "type": "event"
    },
    {
      "anonymous": false,
      "inputs": [
        {
          "indexed": true,
          "internalType": "uint256",
          "name": "tradeId",
          "type": "uint256"
        }
      ],
      "name": "TradeInitiated",
      "type": "event"
    },
    {
      "anonymous": false,
      "inputs": [
        {
          "indexed": true,
          "internalType": "uint256",
          "name": "tradeId",
          "type": "uint256"
        },
        {
          "indexed": false,
          "internalType": "enum TradeRegistry.TradeStatus",
          "name": "oldStatus",
          "type": "uint8"
        },
        {
          "indexed": false,
          "internalType": "enum TradeRegistry.TradeStatus",
          "name": "newStatus",
          "type": "uint8"
        }
      ],
      "name": "TradeStatusUpdated",
      "type": "event"
    },
    {
      "inputs": [
        {
          "internalType": "uint256",
          "name": "_tradeId",
          "type": "uint256"
        },
        {
          "internalType": "address",
          "name": "_advisingBank",
          "type": "address"
        }
      ],
      "name": "assignAdvisingBank",
      "outputs": [],
      "stateMutability": "nonpayable",
      "type": "function"
    },
    {
      "inputs": [
        {
          "internalType": "uint256",
          "name": "_tradeId",
          "type": "uint256"
        },
        {
          "internalType": "address",
          "name": "_shippingCompany",
          "type": "address"
        }
      ],
      "name": "assignShippingCompany",
      "outputs": [],
      "stateMutability": "nonpayable",
      "type": "function"
    },
    {
      "inputs": [
        {
          "internalType": "address",
          "name": "",
          "type": "address"
        }
      ],
      "name": "authorizedContracts",
      "outputs": [
        {
          "internalType": "bool",
          "name": "",
          "type": "bool"
        }
      ],
      "stateMutability": "view",
      "type": "function"
    },
    {
      "inputs": [
        {
          "internalType": "uint256",
          "name": "_tradeId",
          "type": "uint256"
        }
      ],
      "name": "confirmTrade",
      "outputs": [],
      "stateMutability": "nonpayable",
      "type": "function"
    },
    {
      "inputs": [
        {
          "internalType": "address",
          "name": "_exporter",
          "type": "address"
        },
        {
          "internalType": "address",
          "name": "_issuingBank",
          "type": "address"
        },
        {
          "internalType": "address",
          "name": "_advisingBank",
          "type": "address"
        },
        {
          "internalType": "uint256",
          "name": "_amount",
          "type": "uint256"
        }
      ],
      "name": "createTrade",
      "outputs": [
        {
          "internalType": "uint256",
          "name": "",
          "type": "uint256"
        }
      ],
      "stateMutability": "nonpayable",
      "type": "function"
    },
    {
      "inputs": [
        {
          "internalType": "uint256",
          "name": "_tradeId",
          "type": "uint256"
        }
      ],
      "name": "getTrade",
      "outputs": [
        {
          "components": [
            {
              "internalType": "uint256",
              "name": "tradeId",
              "type": "uint256"
            },
            {
              "internalType": "address",
              "name": "importer",
              "type": "address"
            },
            {
              "internalType": "address",
              "name": "exporter",
              "type": "address"
            },
            {
              "internalType": "address",
              "name": "issuingBank",
              "type": "address"
            },
            {
              "internalType": "address",
              "name": "advisingBank",
              "type": "address"
            },
            {
              "internalType": "address",
              "name": "shippingCompany",
              "type": "address"
            },
            {
              "internalType": "enum TradeRegistry.TradeStatus",
              "name": "status",
              "type": "uint8"
            },
            {
              "internalType": "uint256",
              "name": "createdAt",
              "type": "uint256"
            },
            {
              "internalType": "uint256",
              "name": "amount",
              "type": "uint256"
            },
            {
              "internalType": "bool",
              "name": "importerConfirmed",
              "type": "bool"
            },
            {
              "internalType": "bool",
              "name": "exporterConfirmed",
              "type": "bool"
            }
          ],
          "internalType": "struct TradeRegistry.Trade",
          "name": "",
          "type": "tuple"
        }
      ],
      "stateMutability": "view",
      "type": "function"
    },
    {
      "inputs": [],
      "name": "nextTradeId",
      "outputs": [
        {
          "internalType": "uint256",
          "name": "",
          "type": "uint256"
        }
      ],
      "stateMutability": "view",
      "type": "function"
    },
    {
      "inputs": [],
      "name": "owner",
      "outputs": [
        {
          "internalType": "address",
          "name": "",
          "type": "address"
        }
      ],
      "stateMutability": "view",
      "type": "function"
    },
    {
      "inputs": [
        {
          "internalType": "address",
          "name": "_contract",
          "type": "address"
        },
        {
          "internalType": "bool",
          "name": "_authorized",
          "type": "bool"
        }
      ],
      "name": "setAuthorizedContract",
      "outputs": [],
      "stateMutability": "nonpayable",
      "type": "function"
    },
    {
      "inputs": [
        {
          "internalType": "uint256",
          "name": "",
          "type": "uint256"
        }
      ],
      "name": "trades",
      "outputs": [
        {
          "internalType": "uint256",
          "name": "tradeId",
          "type": "uint256"
        },
        {
          "internalType": "address",
          "name": "importer",
          "type": "address"
        },
        {
          "internalType": "address",
          "name": "exporter",
          "type": "address"
        },
        {
          "internalType": "address",
          "name": "issuingBank",
          "type": "address"
        },
        {
          "internalType": "address",
          "name": "advisingBank",
          "type": "address"
        },
        {
          "internalType": "address",
          "name": "shippingCompany",
          "type": "address"
        },
        {
          "internalType": "enum TradeRegistry.TradeStatus",
          "name": "status",
          "type": "uint8"
        },
        {
          "internalType": "uint256",
          "name": "createdAt",
          "type": "uint256"
        },
        {
          "internalType": "uint256",
          "name": "amount",
          "type": "uint256"
        },
        {
          "internalType": "bool",
          "name": "importerConfirmed",
          "type": "bool"
        },
        {
          "internalType": "bool",
          "name": "exporterConfirmed",
          "type": "bool"
        }
      ],
      "stateMutability": "view",
      "type": "function"
    },
    {
      "inputs": [
        {
          "internalType": "uint256",
          "name": "_tradeId",
          "type": "uint256"
        },
        {
          "internalType": "enum TradeRegistry.TradeStatus",
          "name": "_newStatus",
          "type": "uint8"
        }
      ],
      "name": "updateStatus",
      "outputs": [],
      "stateMutability": "nonpayable",
      "type": "function"
    }
  ],
  "bytecode": "0x608060405234801561001057600080fd5b5033600260006101000a81548173ffffffffffffffffffffffffffffffffffffffff021916908373ffffffffffffffffffffffffffffffffffffffff160217905550611ec7806100616000396000f3fe608060405234801561001057600080fd5b50600436106100a95760003560e01c80638da5cb5b116100715780638da5cb5b1461016e5780639ec0507f1461018c578063d5b9221b146101a8578063d5ddd890146101d8578063f125b337146101f4578063f2fa739214610224576100a9565b806314feba52146100ae5780631e6c598e146100ca5780632db25e05146101045780633a1b3d3114610134578063813ad08314610150575b600080fd5b6100c860048036038101906100c39190611494565b610240565b005b6100e460048036038101906100df91906114d4565b610417565b6040516100fb9b9a999897969594939291906115b1565b60405180910390f35b61011e600480360381019061011991906114d4565b610538565b60405161012b9190611779565b60405180910390f35b61014e600480360381019061014991906117ba565b6107a2565b005b610158610929565b60405161016591906117fa565b60405180910390f35b61017661092f565b6040516101839190611815565b60405180910390f35b6101a660048036038101906101a191906114d4565b610955565b005b6101c260048036038101906101bd9190611830565b610d24565b6040516101cf919061185d565b60405180910390f35b6101f260048036038101906101ed9190611494565b610d44565b005b61020e60048036038101906102099190611878565b610ea3565b60405161021b91906117fa565b60405180910390f35b61023e6004803603810190610239919061190b565b6111e4565b005b600080600084815260200190815260200160002090508060010160009054906101000a900473ffffffffffffffffffffffffffffffffffffffff1673ffffffffffffffffffffffffffffffffffffffff163373ffffffffffffffffffffffffffffffffffffffff16146102e8576040517f08c379a00000000000000000000000000000000000000000000000000000000081526004016102df906119a8565b60405180910390fd5b6005600e8111156102fc576102fb61151f565b5b8160050160149054906101000a900460ff16600e8111156103205761031f61151f565b5b14610360576040517f08c379a000000000000000000000000000000000000000000000000000000000815260040161035790611a14565b60405180910390fd5b600073ffffffffffffffffffffffffffffffffffffffff168273ffffffffffffffffffffffffffffffffffffffff16036103cf576040517f08c379a00000000000000000000000000000000000000000000000000000000081526004016103c690611a80565b60405180910390fd5b818160050160006101000a81548173ffffffffffffffffffffffffffffffffffffffff021916908373ffffffffffffffffffffffffffffffffffffffff160217905550505050565b60006020528060005260406000206000915090508060000154908060010160009054906101000a900473ffffffffffffffffffffffffffffffffffffffff16908060020160009054906101000a900473ffffffffffffffffffffffffffffffffffffffff16908060030160009054906101000a900473ffffffffffffffffffffffffffffffffffffffff16908060040160009054906101000a900473ffffffffffffffffffffffffffffffffffffffff16908060050160009054906101000a900473ffffffffffffffffffffffffffffffffffffffff16908060050160149054906101000a900460ff16908060060154908060070154908060080160009054906101000a900460ff16908060080160019054906101000a900460ff1690508b565b61054061131d565b60008083815260200190815260200160002060405180610160016040529081600082015481526020016001820160009054906101000a900473ffffffffffffffffffffffffffffffffffffffff1673ffffffffffffffffffffffffffffffffffffffff1673ffffffffffffffffffffffffffffffffffffffff1681526020016002820160009054906101000a900473ffffffffffffffffffffffffffffffffffffffff1673ffffffffffffffffffffffffffffffffffffffff1673ffffffffffffffffffffffffffffffffffffffff1681526020016003820160009054906101000a900473ffffffffffffffffffffffffffffffffffffffff1673ffffffffffffffffffffffffffffffffffffffff1673ffffffffffffffffffffffffffffffffffffffff1681526020016004820160009054906101000a900473ffffffffffffffffffffffffffffffffffffffff1673ffffffffffffffffffffffffffffffffffffffff1673ffffffffffffffffffffffffffffffffffffffff1681526020016005820160009054906101000a900473ffffffffffffffffffffffffffffffffffffffff1673ffffffffffffffffffffffffffffffffffffffff1673ffffffffffffffffffffffffffffffffffffffff1681526020016005820160149054906101000a900460ff16600e81111561073b5761073a61151f565b5b600e81111561074d5761074c61151f565b5b815260200160068201548152602001600782015481526020016008820160009054906101000a900460ff161515151581526020016008820160019054906101000a900460ff1615151515815250509050919050565b600160003373ffffffffffffffffffffffffffffffffffffffff1673ffffffffffffffffffffffffffffffffffffffff16815260200190815260200160002060009054906101000a900460ff16806108475750600260009054906101000a900473ffffffffffffffffffffffffffffffffffffffff1673ffffffffffffffffffffffffffffffffffffffff163373ffffffffffffffffffffffffffffffffffffffff16145b610886576040517f08c379a000000000000000000000000000000000000000000000000000000000815260040161087d90611aec565b60405180910390fd5b600080600084815260200190815260200160002060050160149054906101000a900460ff1690508160008085815260200190815260200160002060050160146101000a81548160ff0219169083600e8111156108e5576108e461151f565b5b0217905550827ffcb82c5664d9b8ca92b30878bddea2bb0fc8804c7ac6dc8f781a1cd8b94e8eff828460405161091c929190611b0c565b60405180910390a2505050565b60035481565b600260009054906101000a900473ffffffffffffffffffffffffffffffffffffffff1681565b600080600083815260200190815260200160002090506000600e81111561097f5761097e61151f565b5b8160050160149054906101000a900460ff16600e8111156109a3576109a261151f565b5b146109e3576040517f08c379a00000000000000000000000000000000000000000000000000000000081526004016109da90611ba7565b60405180910390fd5b8060010160009054906101000a900473ffffffffffffffffffffffffffffffffffffffff1673ffffffffffffffffffffffffffffffffffffffff163373ffffffffffffffffffffffffffffffffffffffff161480610a9057508060020160009054906101000a900473ffffffffffffffffffffffffffffffffffffffff1673ffffffffffffffffffffffffffffffffffffffff163373ffffffffffffffffffffffffffffffffffffffff16145b610acf576040517f08c379a0000000000000000000000000000000000000000000000000000000008152600401610ac690611c13565b60405180910390fd5b8060010160009054906101000a900473ffffffffffffffffffffffffffffffffffffffff1673ffffffffffffffffffffffffffffffffffffffff163373ffffffffffffffffffffffffffffffffffffffff1603610b9a578060080160009054906101000a900460ff1615610b78576040517f08c379a0000000000000000000000000000000000000000000000000000000008152600401610b6f90611c7f565b60405180910390fd5b60018160080160006101000a81548160ff021916908315150217905550610c0a565b8060080160019054906101000a900460ff1615610bec576040517f08c379a0000000000000000000000000000000000000000000000000000000008152600401610be390611ceb565b60405180910390fd5b60018160080160016101000a81548160ff0219169083151502179055505b817f4886270d3c681c8373359d1cfafb1a549453e43e452ce59a9eae87f8a23e50be33604051610c3a9190611815565b60405180910390a28060080160009054906101000a900460ff168015610c6e57508060080160019054906101000a900460ff165b15610d205760008160050160149054906101000a900460ff16905060018260050160146101000a81548160ff0219169083600e811115610cb157610cb061151f565b5b0217905550827fc40a4f74d715da2ee96119fbf8d8da1df0f5b79e92c3fd855f1ddc102d51d04760405160405180910390a2827ffcb82c5664d9b8ca92b30878bddea2bb0fc8804c7ac6dc8f781a1cd8b94e8eff826001604051610d16929190611b0c565b60405180910390a2505b5050565b60016020528060005260406000206000915054906101000a900460ff1681565b600080600084815260200190815260200160002090508060020160009054906101000a900473ffffffffffffffffffffffffffffffffffffffff1673ffffffffffffffffffffffffffffffffffffffff163373ffffffffffffffffffffffffffffffffffffffff1614610dec576040517f08c379a0000000000000000000000000000000000000000000000000000000008152600401610de390611d57565b60405180910390fd5b600073ffffffffffffffffffffffffffffffffffffffff168273ffffffffffffffffffffffffffffffffffffffff1603610e5b576040517f08c379a0000000000000000000000000000000000000000000000000000000008152600401610e5290611a80565b60405180910390fd5b818160040160006101000a81548173ffffffffffffffffffffffffffffffffffffffff021916908373ffffffffffffffffffffffffffffffffffffffff160217905550505050565b60008060036000815480929190610eb990611da6565b9190505590506040518061016001604052808281526020013373ffffffffffffffffffffffffffffffffffffffff1681526020018773ffffffffffffffffffffffffffffffffffffffff1681526020018673ffffffffffffffffffffffffffffffffffffffff1681526020018573ffffffffffffffffffffffffffffffffffffffff168152602001600073ffffffffffffffffffffffffffffffffffffffff1681526020016000600e811115610f7257610f7161151f565b5b8152602001428152602001848152602001600015158152602001600015158152506000808381526020019081526020016000206000820151816000015560208201518160010160006101000a81548173ffffffffffffffffffffffffffffffffffffffff021916908373ffffffffffffffffffffffffffffffffffffffff16021790555060408201518160020160006101000a81548173ffffffffffffffffffffffffffffffffffffffff021916908373ffffffffffffffffffffffffffffffffffffffff16021790555060608201518160030160006101000a81548173ffffffffffffffffffffffffffffffffffffffff021916908373ffffffffffffffffffffffffffffffffffffffff16021790555060808201518160040160006101000a81548173ffffffffffffffffffffffffffffffffffffffff021916908373ffffffffffffffffffffffffffffffffffffffff16021790555060a08201518160050160006101000a81548173ffffffffffffffffffffffffffffffffffffffff021916908373ffffffffffffffffffffffffffffffffffffffff16021790555060c08201518160050160146101000a81548160ff0219169083600e81111561113d5761113c61151f565b5b021790555060e0820151816006015561010082015181600701556101208201518160080160006101000a81548160ff0219169083151502179055506101408201518160080160016101000a81548160ff021916908315150217905550905050807f7db1856a9087992b8c7c25a7f1622a9b144ff325953aee6bbb6d38d762c189f63388866040516111d093929190611dee565b60405180910390a280915050949350505050565b600260009054906101000a900473ffffffffffffffffffffffffffffffffffffffff1673ffffffffffffffffffffffffffffffffffffffff163373ffffffffffffffffffffffffffffffffffffffff1614611274576040517f08c379a000000000000000000000000000000000000000000000000000000000815260040161126b90611e71565b60405180910390fd5b80600160008473ffffffffffffffffffffffffffffffffffffffff1673ffffffffffffffffffffffffffffffffffffffff16815260200190815260200160002060006101000a81548160ff0219169083151502179055508173ffffffffffffffffffffffffffffffffffffffff167f3213ab8ec2ed122402f038736b41878b69ae9f61f49a7edd0666bce891d29fc982604051611311919061185d565b60405180910390a25050565b60405180610160016040528060008152602001600073ffffffffffffffffffffffffffffffffffffffff168152602001600073ffffffffffffffffffffffffffffffffffffffff168152602001600073ffffffffffffffffffffffffffffffffffffffff168152602001600073ffffffffffffffffffffffffffffffffffffffff168152602001600073ffffffffffffffffffffffffffffffffffffffff1681526020016000600e8111156113d5576113d461151f565b5b815260200160008152602001600081526020016000151581526020016000151581525090565b600080fd5b6000819050919050565b61141381611400565b811461141e57600080fd5b50565b6000813590506114308161140a565b92915050565b600073ffffffffffffffffffffffffffffffffffffffff82169050919050565b600061146182611436565b9050919050565b61147181611456565b811461147c57600080fd5b50565b60008135905061148e81611468565b92915050565b600080604083850312156114ab576114aa6113fb565b5b60006114b985828601611421565b92505060206114ca8582860161147f565b9150509250929050565b6000602082840312156114ea576114e96113fb565b5b60006114f884828501611421565b91505092915050565b61150a81611400565b82525050565b61151981611456565b82525050565b7f4e487b7100000000000000000000000000000000000000000000000000000000600052602160045260246000fd5b600f811061155f5761155e61151f565b5b50565b60008190506115708261154e565b919050565b600061158082611562565b9050919050565b61159081611575565b82525050565b60008115159050919050565b6115ab81611596565b82525050565b6000610160820190506115c7600083018e611501565b6115d4602083018d611510565b6115e1604083018c611510565b6115ee606083018b611510565b6115fb608083018a611510565b61160860a0830189611510565b61161560c0830188611587565b61162260e0830187611501565b611630610100830186611501565b61163e6101208301856115a2565b61164c6101408301846115a2565b9c9b505050505050505050505050565b61166581611400565b82525050565b61167481611456565b82525050565b61168381611575565b82525050565b61169281611596565b82525050565b610160820160008201516116af600085018261165c565b5060208201516116c2602085018261166b565b5060408201516116d5604085018261166b565b5060608201516116e8606085018261166b565b5060808201516116fb608085018261166b565b5060a082015161170e60a085018261166b565b5060c082015161172160c085018261167a565b5060e082015161173460e085018261165c565b5061010082015161174961010085018261165c565b5061012082015161175e610120850182611689565b50610140820151611773610140850182611689565b50505050565b60006101608201905061178f6000830184611698565b92915050565b600f81106117a257600080fd5b50565b6000813590506117b481611795565b92915050565b600080604083850312156117d1576117d06113fb565b5b60006117df85828601611421565b92505060206117f0858286016117a5565b9150509250929050565b600060208201905061180f6000830184611501565b92915050565b600060208201905061182a6000830184611510565b92915050565b600060208284031215611846576118456113fb565b5b60006118548482850161147f565b91505092915050565b600060208201905061187260008301846115a2565b92915050565b60008060008060808587031215611892576118916113fb565b5b60006118a08782880161147f565b94505060206118b18782880161147f565b93505060406118c28782880161147f565b92505060606118d387828801611421565b91505092959194509250565b6118e881611596565b81146118f357600080fd5b50565b600081359050611905816118df565b92915050565b60008060408385031215611922576119216113fb565b5b60006119308582860161147f565b9250506020611941858286016118f6565b9150509250929050565b600082825260208201905092915050565b7f4f6e6c7920696d706f7274657200000000000000000000000000000000000000600082015250565b6000611992600d8361194b565b915061199d8261195c565b602082019050919050565b600060208201905081810360008301526119c181611985565b9050919050565b7f46756e6473206e6f74206c6f636b656420796574000000000000000000000000600082015250565b60006119fe60148361194b565b9150611a09826119c8565b602082019050919050565b60006020820190508181036000830152611a2d816119f1565b9050919050565b7f496e76616c696420616464726573730000000000000000000000000000000000600082015250565b6000611a6a600f8361194b565b9150611a7582611a34565b602082019050919050565b60006020820190508181036000830152611a9981611a5d565b9050919050565b7f4e6f7420617574686f72697a6564000000000000000000000000000000000000600082015250565b6000611ad6600e8361194b565b9150611ae182611aa0565b602082019050919050565b60006020820190508181036000830152611b0581611ac9565b9050919050565b6000604082019050611b216000830185611587565b611b2e6020830184611587565b9392505050565b7f5472616465206e6f7420696e204f464645525f4143434550544544207374617460008201527f7573000000000000000000000000000000000000000000000000000000000000602082015250565b6000611b9160228361194b565b9150611b9c82611b35565b604082019050919050565b60006020820190508181036000830152611bc081611b84565b9050919050565b7f4f6e6c7920696d706f72746572206f72206578706f7274657200000000000000600082015250565b6000611bfd60198361194b565b9150611c0882611bc7565b602082019050919050565b60006020820190508181036000830152611c2c81611bf0565b9050919050565b7f496d706f7274657220616c726561647920636f6e6669726d6564000000000000600082015250565b6000611c69601a8361194b565b9150611c7482611c33565b602082019050919050565b60006020820190508181036000830152611c9881611c5c565b9050919050565b7f4578706f7274657220616c726561647920636f6e6669726d6564000000000000600082015250565b6000611cd5601a8361194b565b9150611ce082611c9f565b602082019050919050565b60006020820190508181036000830152611d0481611cc8565b9050919050565b7f4f6e6c79206578706f7274657200000000000000000000000000000000000000600082015250565b6000611d41600d8361194b565b9150611d4c82611d0b565b602082019050919050565b60006020820190508181036000830152611d7081611d34565b9050919050565b7f4e487b7100000000000000000000000000000000000000000000000000000000600052601160045260246000fd5b6000611db182611400565b91507fffffffffffffffffffffffffffffffffffffffffffffffffffffffffffffffff8203611de357611de2611d77565b5b600182019050919050565b6000606082019050611e036000830186611510565b611e106020830185611510565b611e1d6040830184611501565b949350505050565b7f4f6e6c79206f776e657200000000000000000000000000000000000000000000600082015250565b6000611e5b600a8361194b565b9150611e6682611e25565b602082019050919050565b60006020820190508181036000830152611e8a81611e4e565b905091905056fea2646970667358221220a100031ee04c5ef52a1290b719d8bd4b93693dfce6ad0e0954add49598c9238764736f6c63430008180033",
  "linkReferences": {},
  "deployedLinkReferences": {}
}