{
  "_format": "hh-sol-artifact-1",
  "contractName": "LetterOfCredit",
  "sourceName": "contracts/LetterOfCredit.sol",
  "abi": [
    {
      "inputs": [
        {
          "internalType": "address",
          "name": "_tradeRegistry",
          "type": "address"
        }
      ],
      "stateMutability": "nonpayable",
      "type": "constructor"
    },
    {
      "anonymous": false,
      "inputs": [
        {
          "indexed": true,
          "internalType": "uint256",
          "name": "tradeId",
          "type": "uint256"
        },
        {
          "indexed": false,
          "internalType": "uint256",
          "name": "amount",
          "type": "uint256"
        }
      ],
      "name": "FundsLocked",
      "type": "event"
    },
    {
      "anonymous": false,
      "inputs": [
        {
          "indexed": true,
          "internalType": "uint256",
          "name": "tradeId",
          "type": "uint256"
        }
      ],
      "name": "LoCIssued",
      "type": "event"
    },
    {
      "anonymous": false,
      "inputs": [
        {
          "indexed": true,
          "internalType": "uint256",
          "name": "tradeId",
          "type": "uint256"
        },
        {
          "indexed": false,
          "internalType": "uint256",
          "name": "amount",
          "type": "uint256"
        }
      ],
      "name": "LoCRequested",
      "type": "event"
    },
    {
      "inputs": [
        {
          "internalType": "uint256",
          "name": "_tradeId",
          "type": "uint256"
        }
      ],
      "name": "issueLoC",
      "outputs": [],
      "stateMutability": "nonpayable",
      "type": "function"
    },
    {
      "inputs": [
        {
          "internalType": "uint256",
          "name": "",
          "type": "uint256"
        }
      ],
      "name": "locs",
      "outputs": [
        {
          "internalType": "uint256",
          "name": "tradeId",
          "type": "uint256"
        },
        {
          "internalType": "uint256",
          "name": "amount",
          "type": "uint256"
        },
        {
          "internalType": "uint256",
          "name": "expiry",
          "type": "uint256"
        },
        {
          "internalType": "bool",
          "name": "isIssued",
          "type": "bool"
        },
        {
          "internalType": "bool",
          "name": "fundsLocked",
          "type": "bool"
        }
      ],
      "stateMutability": "view",
      "type": "function"
    },
    {
      "inputs": [
        {
          "internalType": "uint256",
          "name": "_tradeId",
          "type": "uint256"
        },
        {
          "internalType": "uint256",
          "name": "_expiry",
          "type": "uint256"
        }
      ],
      "name": "requestLoC",
      "outputs": [],
      "stateMutability": "nonpayable",
      "type": "function"
    },
    {
      "inputs": [],
      "name": "tradeRegistry",
      "outputs": [
        {
          "internalType": "contract TradeRegistry",
          "name": "",
          "type": "address"
        }
      ],
      "stateMutability": "view",
      "type": "function"
    }
  ],
  "bytecode": "0x60806040523480156200001157600080fd5b50604051620010b4380380620010b48339818101604052810190620000379190620000e8565b806000806101000a81548173ffffffffffffffffffffffffffffffffffffffff021916908373ffffffffffffffffffffffffffffffffffffffff160217905550506200011a565b600080fd5b600073ffffffffffffffffffffffffffffffffffffffff82169050919050565b6000620000b08262000083565b9050919050565b620000c281620000a3565b8114620000ce57600080fd5b50565b600081519050620000e281620000b7565b92915050565b6000602082840312156200010157620001006200007e565b5b60006200011184828501620000d1565b91505092915050565b610f8a806200012a6000396000f3fe608060405234801561001057600080fd5b506004361061004c5760003560e01c80631f80fbe6146100515780636c645e081461006d57806379f3ca1814610089578063dbd97308146100bd575b600080fd5b61006b600480360381019061006691906108e7565b6100db565b005b61008760048036038101906100829190610927565b61046f565b005b6100a3600480360381019061009e9190610927565b61082e565b6040516100b495949392919061097e565b60405180910390f35b6100c561087e565b6040516100d29190610a50565b60405180910390f35b8160008060009054906101000a900473ffffffffffffffffffffffffffffffffffffffff1673ffffffffffffffffffffffffffffffffffffffff16632db25e05836040518263ffffffff1660e01b81526004016101389190610a6b565b61010060405180830381865afa158015610156573d6000803e3d6000fd5b505050506040513d601f19601f8201168201806040525081019061017a9190610c59565b9050806020015173ffffffffffffffffffffffffffffffffffffffff163373ffffffffffffffffffffffffffffffffffffffff16146101ee576040517f08c379a00000000000000000000000000000000000000000000000000000000081526004016101e590610ce4565b60405180910390fd5b60008060009054906101000a900473ffffffffffffffffffffffffffffffffffffffff1673ffffffffffffffffffffffffffffffffffffffff16632db25e05866040518263ffffffff1660e01b815260040161024a9190610a6b565b61010060405180830381865afa158015610268573d6000803e3d6000fd5b505050506040513d601f19601f8201168201806040525081019061028c9190610c59565b9050600060098111156102a2576102a1610d04565b5b8160a0015160098111156102b9576102b8610d04565b5b146102f9576040517f08c379a00000000000000000000000000000000000000000000000000000000081526004016102f090610d7f565b60405180910390fd5b6040518060a001604052808681526020018260e001518152602001858152602001600015158152602001600015158152506001600087815260200190815260200160002060008201518160000155602082015181600101556040820151816002015560608201518160030160006101000a81548160ff02191690831515021790555060808201518160030160016101000a81548160ff02191690831515021790555090505060008054906101000a900473ffffffffffffffffffffffffffffffffffffffff1673ffffffffffffffffffffffffffffffffffffffff16633a1b3d318660016040518363ffffffff1660e01b81526004016103fa929190610de7565b600060405180830381600087803b15801561041457600080fd5b505af1158015610428573d6000803e3d6000fd5b50505050847ff4b6d917fe114ab45a3bc726e454eb5558422d9c9e9d8fa9b05817a7397dca5a8260e001516040516104609190610a6b565b60405180910390a25050505050565b8060008060009054906101000a900473ffffffffffffffffffffffffffffffffffffffff1673ffffffffffffffffffffffffffffffffffffffff16632db25e05836040518263ffffffff1660e01b81526004016104cc9190610a6b565b61010060405180830381865afa1580156104ea573d6000803e3d6000fd5b505050506040513d601f19601f8201168201806040525081019061050e9190610c59565b9050806060015173ffffffffffffffffffffffffffffffffffffffff163373ffffffffffffffffffffffffffffffffffffffff1614610582576040517f08c379a000000000000000000000000000000000000000000000000000000000815260040161057990610e5c565b60405180910390fd5b60008060009054906101000a900473ffffffffffffffffffffffffffffffffffffffff1673ffffffffffffffffffffffffffffffffffffffff16632db25e05856040518263ffffffff1660e01b81526004016105de9190610a6b565b61010060405180830381865afa1580156105fc573d6000803e3d6000fd5b505050506040513d601f19601f820116820180604052508101906106209190610c59565b90506001600981111561063657610635610d04565b5b8160a00151600981111561064d5761064c610d04565b5b1461068d576040517f08c379a000000000000000000000000000000000000000000000000000000000815260040161068490610ec8565b60405180910390fd5b60006001600086815260200190815260200160002090508060030160009054906101000a900460ff16156106f6576040517f08c379a00000000000000000000000000000000000000000000000000000000081526004016106ed90610f34565b60405180910390fd5b60018160030160006101000a81548160ff02191690831515021790555060018160030160016101000a81548160ff02191690831515021790555060008054906101000a900473ffffffffffffffffffffffffffffffffffffffff1673ffffffffffffffffffffffffffffffffffffffff16633a1b3d318660026040518363ffffffff1660e01b815260040161078c929190610de7565b600060405180830381600087803b1580156107a657600080fd5b505af11580156107ba573d6000803e3d6000fd5b50505050847f8fa7468d5ff94cfa6eb6ecdc13a2ff133065d3dcde789462ea3f0e7cba757e0b60405160405180910390a2847fbedc4e5ac6876307c4b4b5761039aa2ebce89052490a34e15cc655d9142ba0dc826001015460405161081f9190610a6b565b60405180910390a25050505050565b60016020528060005260406000206000915090508060000154908060010154908060020154908060030160009054906101000a900460ff16908060030160019054906101000a900460ff16905085565b60008054906101000a900473ffffffffffffffffffffffffffffffffffffffff1681565b6000604051905090565b600080fd5b6000819050919050565b6108c4816108b1565b81146108cf57600080fd5b50565b6000813590506108e1816108bb565b92915050565b600080604083850312156108fe576108fd6108ac565b5b600061090c858286016108d2565b925050602061091d858286016108d2565b9150509250929050565b60006020828403121561093d5761093c6108ac565b5b600061094b848285016108d2565b91505092915050565b61095d816108b1565b82525050565b60008115159050919050565b61097881610963565b82525050565b600060a0820190506109936000830188610954565b6109a06020830187610954565b6109ad6040830186610954565b6109ba606083018561096f565b6109c7608083018461096f565b9695505050505050565b600073ffffffffffffffffffffffffffffffffffffffff82169050919050565b6000819050919050565b6000610a16610a11610a0c846109d1565b6109f1565b6109d1565b9050919050565b6000610a28826109fb565b9050919050565b6000610a3a82610a1d565b9050919050565b610a4a81610a2f565b82525050565b6000602082019050610a656000830184610a41565b92915050565b6000602082019050610a806000830184610954565b92915050565b600080fd5b6000601f19601f8301169050919050565b7f4e487b7100000000000000000000000000000000000000000000000000000000600052604160045260246000fd5b610ad482610a8b565b810181811067ffffffffffffffff82111715610af357610af2610a9c565b5b80604052505050565b6000610b066108a2565b9050610b128282610acb565b919050565b600081519050610b26816108bb565b92915050565b6000610b37826109d1565b9050919050565b610b4781610b2c565b8114610b5257600080fd5b50565b600081519050610b6481610b3e565b92915050565b600a8110610b7757600080fd5b50565b600081519050610b8981610b6a565b92915050565b60006101008284031215610ba657610ba5610a86565b5b610bb1610100610afc565b90506000610bc184828501610b17565b6000830152506020610bd584828501610b55565b6020830152506040610be984828501610b55565b6040830152506060610bfd84828501610b55565b6060830152506080610c1184828501610b55565b60808301525060a0610c2584828501610b7a565b60a08301525060c0610c3984828501610b17565b60c08301525060e0610c4d84828501610b17565b60e08301525092915050565b60006101008284031215610c7057610c6f6108ac565b5b6000610c7e84828501610b8f565b91505092915050565b600082825260208201905092915050565b7f4f6e6c7920696d706f7274657200000000000000000000000000000000000000600082015250565b6000610cce600d83610c87565b9150610cd982610c98565b602082019050919050565b60006020820190508181036000830152610cfd81610cc1565b9050919050565b7f4e487b7100000000000000000000000000000000000000000000000000000000600052602160045260246000fd5b7f496e76616c696420747261646520737461747573000000000000000000000000600082015250565b6000610d69601483610c87565b9150610d7482610d33565b602082019050919050565b60006020820190508181036000830152610d9881610d5c565b9050919050565b600a8110610db057610daf610d04565b5b50565b6000819050610dc182610d9f565b919050565b6000610dd182610db3565b9050919050565b610de181610dc6565b82525050565b6000604082019050610dfc6000830185610954565b610e096020830184610dd8565b9392505050565b7f4f6e6c792069737375696e672062616e6b000000000000000000000000000000600082015250565b6000610e46601183610c87565b9150610e5182610e10565b602082019050919050565b60006020820190508181036000830152610e7581610e39565b9050919050565b7f4c6f43206e6f7420726571756573746564000000000000000000000000000000600082015250565b6000610eb2601183610c87565b9150610ebd82610e7c565b602082019050919050565b60006020820190508181036000830152610ee181610ea5565b9050919050565b7f416c726561647920697373756564000000000000000000000000000000000000600082015250565b6000610f1e600e83610c87565b9150610f2982610ee8565b602082019050919050565b60006020820190508181036000830152610f4d81610f11565b905091905056fea264697066735822122010b6460b94d1592f1e5d0b45e14f756a74bd36a3e936bc14eeed74ba61450e1864736f6c63430008180033",
  "linkReferences": {},
  "deployedLinkReferences": {}
}